{
  "contractName": "HydroDrive",
  "abi": [
    {
      "constant": true,
      "inputs": [],
      "name": "identityRegistry",
      "outputs": [
        {
          "name": "",
          "type": "address"
        }
      ],
      "payable": false,
      "stateMutability": "view",
      "type": "function"
    },
    {
      "constant": true,
      "inputs": [],
      "name": "ice",
      "outputs": [
        {
          "name": "",
          "type": "address"
        }
      ],
      "payable": false,
      "stateMutability": "view",
      "type": "function"
    },
    {
      "constant": false,
      "inputs": [],
      "name": "renounceOwnership",
      "outputs": [],
      "payable": false,
      "stateMutability": "nonpayable",
      "type": "function"
    },
    {
      "constant": true,
      "inputs": [],
      "name": "callOnAddition",
      "outputs": [
        {
          "name": "",
          "type": "bool"
        }
      ],
      "payable": false,
      "stateMutability": "view",
      "type": "function"
    },
    {
      "constant": true,
      "inputs": [],
      "name": "snowflakeDescription",
      "outputs": [
        {
          "name": "",
          "type": "string"
        }
      ],
      "payable": false,
      "stateMutability": "view",
      "type": "function"
    },
    {
      "constant": true,
      "inputs": [],
      "name": "snowflakeName",
      "outputs": [
        {
          "name": "",
          "type": "string"
        }
      ],
      "payable": false,
      "stateMutability": "view",
      "type": "function"
    },
    {
      "constant": true,
      "inputs": [],
      "name": "owner",
      "outputs": [
        {
          "name": "",
          "type": "address"
        }
      ],
      "payable": false,
      "stateMutability": "view",
      "type": "function"
    },
    {
      "constant": true,
      "inputs": [],
      "name": "callOnRemoval",
      "outputs": [
        {
          "name": "",
          "type": "bool"
        }
      ],
      "payable": false,
      "stateMutability": "view",
      "type": "function"
    },
    {
      "constant": true,
      "inputs": [],
      "name": "isOwner",
      "outputs": [
        {
          "name": "",
          "type": "bool"
        }
      ],
      "payable": false,
      "stateMutability": "view",
      "type": "function"
    },
    {
      "constant": false,
      "inputs": [
        {
          "name": "_snowflakeAddress",
          "type": "address"
        }
      ],
      "name": "setSnowflakeAddress",
      "outputs": [],
      "payable": false,
      "stateMutability": "nonpayable",
      "type": "function"
    },
    {
      "constant": false,
      "inputs": [
        {
          "name": "newOwner",
          "type": "address"
        }
      ],
      "name": "transferOwnership",
      "outputs": [],
      "payable": false,
      "stateMutability": "nonpayable",
      "type": "function"
    },
    {
      "constant": true,
      "inputs": [],
      "name": "snowflake",
      "outputs": [
        {
          "name": "",
          "type": "address"
        }
      ],
      "payable": false,
      "stateMutability": "view",
      "type": "function"
    },
    {
      "constant": true,
      "inputs": [],
      "name": "snowflakeAddress",
      "outputs": [
        {
          "name": "",
          "type": "address"
        }
      ],
      "payable": false,
      "stateMutability": "view",
      "type": "function"
    },
    {
      "inputs": [],
      "payable": false,
      "stateMutability": "nonpayable",
      "type": "constructor"
    },
    {
      "anonymous": false,
      "inputs": [
        {
          "indexed": true,
          "name": "previousOwner",
          "type": "address"
        },
        {
          "indexed": true,
          "name": "newOwner",
          "type": "address"
        }
      ],
      "name": "OwnershipTransferred",
      "type": "event"
    },
    {
      "constant": false,
      "inputs": [
        {
          "name": "",
          "type": "uint256"
        },
        {
          "name": "",
          "type": "uint256"
        },
        {
          "name": "",
          "type": "bytes"
        }
      ],
      "name": "onAddition",
      "outputs": [
        {
          "name": "",
          "type": "bool"
        }
      ],
      "payable": false,
      "stateMutability": "nonpayable",
      "type": "function"
    },
    {
      "constant": false,
      "inputs": [
        {
          "name": "",
          "type": "uint256"
        },
        {
          "name": "",
          "type": "bytes"
        }
      ],
      "name": "onRemoval",
      "outputs": [
        {
          "name": "",
          "type": "bool"
        }
      ],
      "payable": false,
      "stateMutability": "nonpayable",
      "type": "function"
    },
    {
      "constant": true,
      "inputs": [],
      "name": "whoEIN",
      "outputs": [
        {
          "name": "",
          "type": "uint256"
        },
        {
          "name": "",
          "type": "address"
        }
      ],
      "payable": false,
      "stateMutability": "view",
      "type": "function"
    },
    {
      "constant": false,
      "inputs": [],
      "name": "debugBuildFS",
      "outputs": [],
      "payable": false,
      "stateMutability": "nonpayable",
      "type": "function"
    }
  ],
  "bytecode": "0x608060405260078054600160a060020a031990811673143c43180cae3ef019cd915b3059bce5ac177538179091556008805490911673cf1877ac788a303cacbbfe21b4e8ad08139f54fa17905534801561005857600080fd5b50604080518082018252600b81527f487964726f20447269766500000000000000000000000000000000000000000060208083019190915282518084018452601b81527f46696c652053746f7261676520616e64204d616e6167656d656e7400000000009181019190915260085460008054600160a060020a0319163317808255945193949293600160a060020a039283169391928392169082907f8be0079c531659141344cd1fd0a4f28419497f9722a3daafe3b4186f6b6457e0908290a3845161012b9060019060208801906102d3565b50835161013f9060029060208701906102d3565b5061015283640100000000610283810204565b6003805491151575010000000000000000000000000000000000000000000260a860020a60ff0219931515740100000000000000000000000000000000000000000260a060020a60ff02199093169290921792909216179055505060075460048054600160a060020a0319908116600160a060020a03938416178255600854600580549092169084161790819055604080517fa759ee6f000000000000000000000000000000000000000000000000000000008152905191909316935063a759ee6f9280830192602092918290030181600087803b15801561023357600080fd5b505af1158015610247573d6000803e3d6000fd5b505050506040513d602081101561025d57600080fd5b505160068054600160a060020a031916600160a060020a0390921691909117905561036b565b6102946401000000006102c1810204565b151561029f57600080fd5b60038054600160a060020a031916600160a060020a0392909216919091179055565b600054600160a060020a031633145b90565b828054600181600116156101000203166002900490600052602060002090601f016020900481019282601f1061031457805160ff1916838001178555610341565b82800160010185558215610341579182015b82811115610341578251825591602001919060010190610326565b5061034d929150610351565b5090565b6102d091905b8082111561034d5760008155600101610357565b610a418061037a6000396000f3fe6080604052600436106100ea577c01000000000000000000000000000000000000000000000000000000006000350463134e18f481146100ef5780634c2a860d1461012057806366042d2b14610135578063715018a61461016b578063717902511461018257806376acf1b6146101ab57806388cdab94146102355780638da5cb5b1461024a5780638f06492d1461025f5780638f32d59b1461027457806390bfaf40146102895780639182621a14610348578063c979b05a14610402578063ef4f8f4b14610435578063f2fde38b1461044a578063f836a3531461047d578063f9f451b814610492575b600080fd5b3480156100fb57600080fd5b506101046104a7565b60408051600160a060020a039092168252519081900360200190f35b34801561012c57600080fd5b506101046104b6565b34801561014157600080fd5b5061014a6104c5565b60408051928352600160a060020a0390911660208301528051918290030190f35b34801561017757600080fd5b50610180610562565b005b34801561018e57600080fd5b506101976105cc565b604080519115158252519081900360200190f35b3480156101b757600080fd5b506101c06105ed565b6040805160208082528351818301528351919283929083019185019080838360005b838110156101fa5781810151838201526020016101e2565b50505050905090810190601f1680156102275780820380516001836020036101000a031916815260200191505b509250505060405180910390f35b34801561024157600080fd5b506101c0610678565b34801561025657600080fd5b506101046106d2565b34801561026b57600080fd5b506101976106e1565b34801561028057600080fd5b50610197610703565b34801561029557600080fd5b50610197600480360360608110156102ac57600080fd5b8135916020810135918101906060810160408201356401000000008111156102d357600080fd5b8201836020820111156102e557600080fd5b8035906020019184600183028401116401000000008311171561030757600080fd5b91908080601f016020809104026020016040519081016040528093929190818152602001838380828437600092019190915250929550610714945050505050565b34801561035457600080fd5b506101976004803603604081101561036b57600080fd5b8135919081019060408101602082013564010000000081111561038d57600080fd5b82018360208201111561039f57600080fd5b803590602001918460018302840111640100000000831117156103c157600080fd5b91908080601f0160208091040260200160405190810160405280939291908181526020018383808284376000920191909152509295506107c0945050505050565b34801561040e57600080fd5b506101806004803603602081101561042557600080fd5b5035600160a060020a031661086b565b34801561044157600080fd5b506101806108ad565b34801561045657600080fd5b506101806004803603602081101561046d57600080fd5b5035600160a060020a031661095b565b34801561048957600080fd5b5061010461097a565b34801561049e57600080fd5b50610104610989565b600654600160a060020a031681565b600454600160a060020a031681565b600654604080517f05c62c2f00000000000000000000000000000000000000000000000000000000815233600482015290516000928392600160a060020a03909116916305c62c2f91602480820192602092909190829003018186803b15801561052e57600080fd5b505afa158015610542573d6000803e3d6000fd5b505050506040513d602081101561055857600080fd5b5051923392509050565b61056a610703565b151561057557600080fd5b60008054604051600160a060020a03909116907f8be0079c531659141344cd1fd0a4f28419497f9722a3daafe3b4186f6b6457e0908390a36000805473ffffffffffffffffffffffffffffffffffffffff19169055565b60035474010000000000000000000000000000000000000000900460ff1681565b6002805460408051602060018416156101000260001901909316849004601f810184900484028201840190925281815292918301828280156106705780601f1061064557610100808354040283529160200191610670565b820191906000526020600020905b81548152906001019060200180831161065357829003601f168201915b505050505081565b60018054604080516020600284861615610100026000190190941693909304601f810184900484028201840190925281815292918301828280156106705780601f1061064557610100808354040283529160200191610670565b600054600160a060020a031690565b6003547501000000000000000000000000000000000000000000900460ff1681565b600054600160a060020a0316331490565b600354600090600160a060020a031633146107b657604080517f08c379a000000000000000000000000000000000000000000000000000000000815260206004820152602160248201527f446964206e6f74206f726967696e6174652066726f6d20536e6f77666c616b6560448201527f2e00000000000000000000000000000000000000000000000000000000000000606482015290519081900360840190fd5b5060019392505050565b600354600090600160a060020a0316331461086257604080517f08c379a000000000000000000000000000000000000000000000000000000000815260206004820152602160248201527f446964206e6f74206f726967696e6174652066726f6d20536e6f77666c616b6560448201527f2e00000000000000000000000000000000000000000000000000000000000000606482015290519081900360840190fd5b50600192915050565b610873610703565b151561087e57600080fd5b6003805473ffffffffffffffffffffffffffffffffffffffff1916600160a060020a0392909216919091179055565b60048054604080517fdc2ddcae000000000000000000000000000000000000000000000000000000008152602093810193909352600860248401527f412e496d61676573000000000000000000000000000000000000000000000000604484015251600160a060020a039091169163dc2ddcae91606480830192600092919082900301818387803b15801561094157600080fd5b505af1158015610955573d6000803e3d6000fd5b50505050565b610963610703565b151561096e57600080fd5b61097781610998565b50565b600554600160a060020a031681565b600354600160a060020a031681565b600160a060020a03811615156109ad57600080fd5b60008054604051600160a060020a03808516939216917f8be0079c531659141344cd1fd0a4f28419497f9722a3daafe3b4186f6b6457e091a36000805473ffffffffffffffffffffffffffffffffffffffff1916600160a060020a039290921691909117905556fea165627a7a723058207e8525b75d84565a06a6d969fa0c7b74d49977af4f19d401ce804e10b99107050029",
  "source": "pragma solidity ^0.5.0;\n\nimport \"./SnowflakeResolver.sol\";\n\nimport \"./interfaces/SnowflakeInterface.sol\";\nimport \"./interfaces/IdentityRegistryInterface.sol\";\nimport \"./interfaces/IceInterface.sol\";\n\n/**\n * @title Ice Protocol\n * @author Harsh Rajat\n * @notice Create Protocol Less File Storage, Grouping, Hassle free Encryption / Decryption and Stamping using Snowflake\n * @dev This Contract forms File Storage / Stamping / Encryption part of Hydro Protocols\n */\ncontract HydroDrive is SnowflakeResolver {\n    /* for referencing Ice, SnowFlake, Identity Registry (ERC-1484).\n     */\n    IceInterface public ice;\n    SnowflakeInterface public snowflake;\n    IdentityRegistryInterface public identityRegistry;\n\n\n    /* ***************\n    * DEFINE CONSTRUCTORS AND RELATED FUNCTIONS\n    *************** */\n    address IceAddress = 0x143c43180cAE3EF019cD915b3059BCe5AC177538; // For local use\n    address snowflakeAddress = 0xcF1877AC788a303cAcbbfE21b4E8AD08139f54FA; // For local use\n    constructor (/*address IceAddress, address snowflakeAddress*/) public \n    SnowflakeResolver(\"Hydro Drive\", \"File Storage and Management\", snowflakeAddress, false, false) {\n        // Reference Hydro Protocols\n        ice = IceInterface(IceAddress);\n        snowflake = SnowflakeInterface(snowflakeAddress);\n        identityRegistry = IdentityRegistryInterface(snowflake.identityRegistryAddress());\n    }\n    \n    function onAddition(uint /* ein */, uint /* allowance */, bytes memory /* extraData */) \n    public \n    senderIsSnowflake() \n    returns (bool) {\n        return true;\n    }\n\n    function onRemoval(uint /* ein */, bytes memory /* extraData */) \n    public \n    senderIsSnowflake() \n    returns (bool) {\n        return true;\n    }\n    \n    function whoEIN()\n    public view\n    returns (uint256, address) {\n        return (\n            identityRegistry.getEIN(msg.sender),\n            msg.sender\n        );\n    }\n\n    // *. FOR DEBUGGING CONTRACT\n    // To Build Groups & File System for users\n    function debugBuildFS()\n    public {\n        // Create Groups\n        ice.createGroup(\"A.Images\");\n    }\n\n}\n",
  "sourcePath": "/MAMPWeb/HydroIce/HydroIceProtocol/contracts/HydroDrive.sol",
  "compiler": {
    "name": "solc",
    "version": "0.5.1+commit.c8a2cb62.Emscripten.clang"
  },
  "schemaVersion": "3.0.11",
  "updatedAt": "2019-10-01T23:18:51.943Z",
  "devdoc": {
    "author": "Harsh Rajat",
    "details": "This Contract forms File Storage / Stamping / Encryption part of Hydro Protocols",
    "methods": {
      "isOwner()": {
        "return": "true if `msg.sender` is the owner of the contract."
      },
      "owner()": {
        "return": "the address of the owner."
      },
      "renounceOwnership()": {
        "details": "Allows the current owner to relinquish control of the contract."
      },
      "transferOwnership(address)": {
        "details": "Allows the current owner to transfer control of the contract to a newOwner.",
        "params": {
          "newOwner": "The address to transfer ownership to."
        }
      }
    },
    "title": "Ice Protocol"
  },
  "userdoc": {
    "methods": {
      "renounceOwnership()": {
        "notice": "Renouncing to ownership will leave the contract without an owner. It will not be possible to call the functions with the `onlyOwner` modifier anymore."
      }
    },
    "notice": "Create Protocol Less File Storage, Grouping, Hassle free Encryption / Decryption and Stamping using Snowflake"
  }
}