{
  "contractName": "Ice",
  "abi": [
    {
      "constant": true,
      "inputs": [
        {
          "name": "",
          "type": "uint256"
        },
        {
          "name": "",
          "type": "uint256"
        }
      ],
      "name": "shares",
      "outputs": [
        {
          "name": "i1",
          "type": "uint256"
        },
        {
          "name": "i2",
          "type": "uint256"
        }
      ],
      "payable": false,
      "stateMutability": "view",
      "type": "function"
    },
    {
      "constant": true,
      "inputs": [
        {
          "name": "",
          "type": "uint256"
        }
      ],
      "name": "usermeta",
      "outputs": [
        {
          "name": "lockFiles",
          "type": "bool"
        },
        {
          "name": "lockGroups",
          "type": "bool"
        },
        {
          "name": "lockTransfers",
          "type": "bool"
        },
        {
          "name": "lockSharings",
          "type": "bool"
        },
        {
          "name": "hasAvatar",
          "type": "bool"
        }
      ],
      "payable": false,
      "stateMutability": "view",
      "type": "function"
    },
    {
      "constant": true,
      "inputs": [
        {
          "name": "",
          "type": "uint256"
        },
        {
          "name": "",
          "type": "uint256"
        }
      ],
      "name": "stampingsRequestOrder",
      "outputs": [
        {
          "name": "next",
          "type": "uint256"
        },
        {
          "name": "prev",
          "type": "uint256"
        },
        {
          "name": "pointerID",
          "type": "uint256"
        },
        {
          "name": "active",
          "type": "bool"
        }
      ],
      "payable": false,
      "stateMutability": "view",
      "type": "function"
    },
    {
      "constant": true,
      "inputs": [],
      "name": "identityRegistry",
      "outputs": [
        {
          "name": "",
          "type": "address"
        }
      ],
      "payable": false,
      "stateMutability": "view",
      "type": "function"
    },
    {
      "constant": true,
      "inputs": [
        {
          "name": "",
          "type": "uint256"
        },
        {
          "name": "",
          "type": "uint256"
        }
      ],
      "name": "blacklist",
      "outputs": [
        {
          "name": "",
          "type": "bool"
        }
      ],
      "payable": false,
      "stateMutability": "view",
      "type": "function"
    },
    {
      "constant": true,
      "inputs": [
        {
          "name": "",
          "type": "uint256"
        }
      ],
      "name": "shareCount",
      "outputs": [
        {
          "name": "",
          "type": "uint256"
        }
      ],
      "payable": false,
      "stateMutability": "view",
      "type": "function"
    },
    {
      "constant": true,
      "inputs": [
        {
          "name": "",
          "type": "uint256"
        },
        {
          "name": "",
          "type": "uint256"
        }
      ],
      "name": "fileOrder",
      "outputs": [
        {
          "name": "next",
          "type": "uint256"
        },
        {
          "name": "prev",
          "type": "uint256"
        },
        {
          "name": "pointerID",
          "type": "uint256"
        },
        {
          "name": "active",
          "type": "bool"
        }
      ],
      "payable": false,
      "stateMutability": "view",
      "type": "function"
    },
    {
      "constant": true,
      "inputs": [
        {
          "name": "",
          "type": "uint256"
        },
        {
          "name": "",
          "type": "uint256"
        }
      ],
      "name": "whitelist",
      "outputs": [
        {
          "name": "",
          "type": "bool"
        }
      ],
      "payable": false,
      "stateMutability": "view",
      "type": "function"
    },
    {
      "constant": true,
      "inputs": [
        {
          "name": "",
          "type": "uint256"
        },
        {
          "name": "",
          "type": "uint256"
        }
      ],
      "name": "stampingsRequest",
      "outputs": [
        {
          "name": "i1",
          "type": "uint256"
        },
        {
          "name": "i2",
          "type": "uint256"
        }
      ],
      "payable": false,
      "stateMutability": "view",
      "type": "function"
    },
    {
      "constant": true,
      "inputs": [],
      "name": "globalIndex2",
      "outputs": [
        {
          "name": "",
          "type": "uint256"
        }
      ],
      "payable": false,
      "stateMutability": "view",
      "type": "function"
    },
    {
      "constant": true,
      "inputs": [
        {
          "name": "",
          "type": "uint256"
        }
      ],
      "name": "stampingsRequestCount",
      "outputs": [
        {
          "name": "",
          "type": "uint256"
        }
      ],
      "payable": false,
      "stateMutability": "view",
      "type": "function"
    },
    {
      "constant": true,
      "inputs": [
        {
          "name": "",
          "type": "uint256"
        },
        {
          "name": "",
          "type": "uint256"
        }
      ],
      "name": "stampings",
      "outputs": [
        {
          "name": "i1",
          "type": "uint256"
        },
        {
          "name": "i2",
          "type": "uint256"
        }
      ],
      "payable": false,
      "stateMutability": "view",
      "type": "function"
    },
    {
      "constant": true,
      "inputs": [
        {
          "name": "",
          "type": "uint256"
        },
        {
          "name": "",
          "type": "uint256"
        }
      ],
      "name": "groupOrder",
      "outputs": [
        {
          "name": "next",
          "type": "uint256"
        },
        {
          "name": "prev",
          "type": "uint256"
        },
        {
          "name": "pointerID",
          "type": "uint256"
        },
        {
          "name": "active",
          "type": "bool"
        }
      ],
      "payable": false,
      "stateMutability": "view",
      "type": "function"
    },
    {
      "constant": true,
      "inputs": [
        {
          "name": "",
          "type": "uint256"
        },
        {
          "name": "",
          "type": "uint256"
        }
      ],
      "name": "transfers",
      "outputs": [
        {
          "name": "i1",
          "type": "uint256"
        },
        {
          "name": "i2",
          "type": "uint256"
        }
      ],
      "payable": false,
      "stateMutability": "view",
      "type": "function"
    },
    {
      "constant": true,
      "inputs": [],
      "name": "globalIndex1",
      "outputs": [
        {
          "name": "",
          "type": "uint256"
        }
      ],
      "payable": false,
      "stateMutability": "view",
      "type": "function"
    },
    {
      "constant": true,
      "inputs": [
        {
          "name": "",
          "type": "uint256"
        }
      ],
      "name": "groupCount",
      "outputs": [
        {
          "name": "",
          "type": "uint256"
        }
      ],
      "payable": false,
      "stateMutability": "view",
      "type": "function"
    },
    {
      "constant": true,
      "inputs": [
        {
          "name": "",
          "type": "uint256"
        },
        {
          "name": "",
          "type": "uint256"
        }
      ],
      "name": "shareOrder",
      "outputs": [
        {
          "name": "next",
          "type": "uint256"
        },
        {
          "name": "prev",
          "type": "uint256"
        },
        {
          "name": "pointerID",
          "type": "uint256"
        },
        {
          "name": "active",
          "type": "bool"
        }
      ],
      "payable": false,
      "stateMutability": "view",
      "type": "function"
    },
    {
      "constant": true,
      "inputs": [
        {
          "name": "",
          "type": "uint256"
        },
        {
          "name": "",
          "type": "uint256"
        }
      ],
      "name": "stampingOrder",
      "outputs": [
        {
          "name": "next",
          "type": "uint256"
        },
        {
          "name": "prev",
          "type": "uint256"
        },
        {
          "name": "pointerID",
          "type": "uint256"
        },
        {
          "name": "active",
          "type": "bool"
        }
      ],
      "payable": false,
      "stateMutability": "view",
      "type": "function"
    },
    {
      "constant": true,
      "inputs": [
        {
          "name": "",
          "type": "uint256"
        }
      ],
      "name": "stampingCount",
      "outputs": [
        {
          "name": "",
          "type": "uint256"
        }
      ],
      "payable": false,
      "stateMutability": "view",
      "type": "function"
    },
    {
      "constant": true,
      "inputs": [
        {
          "name": "",
          "type": "uint256"
        },
        {
          "name": "",
          "type": "uint256"
        }
      ],
      "name": "transferOrder",
      "outputs": [
        {
          "name": "next",
          "type": "uint256"
        },
        {
          "name": "prev",
          "type": "uint256"
        },
        {
          "name": "pointerID",
          "type": "uint256"
        },
        {
          "name": "active",
          "type": "bool"
        }
      ],
      "payable": false,
      "stateMutability": "view",
      "type": "function"
    },
    {
      "constant": true,
      "inputs": [
        {
          "name": "",
          "type": "uint256"
        }
      ],
      "name": "transferCount",
      "outputs": [
        {
          "name": "",
          "type": "uint256"
        }
      ],
      "payable": false,
      "stateMutability": "view",
      "type": "function"
    },
    {
      "constant": true,
      "inputs": [
        {
          "name": "",
          "type": "uint256"
        }
      ],
      "name": "fileCount",
      "outputs": [
        {
          "name": "",
          "type": "uint256"
        }
      ],
      "payable": false,
      "stateMutability": "view",
      "type": "function"
    },
    {
      "constant": true,
      "inputs": [],
      "name": "snowflake",
      "outputs": [
        {
          "name": "",
          "type": "address"
        }
      ],
      "payable": false,
      "stateMutability": "view",
      "type": "function"
    },
    {
      "inputs": [],
      "payable": false,
      "stateMutability": "nonpayable",
      "type": "constructor"
    },
    {
      "anonymous": false,
      "inputs": [
        {
          "indexed": false,
          "name": "EIN",
          "type": "uint256"
        },
        {
          "indexed": false,
          "name": "fileIndex",
          "type": "uint256"
        },
        {
          "indexed": false,
          "name": "status",
          "type": "bool"
        }
      ],
      "name": "ItemHidden",
      "type": "event"
    },
    {
      "anonymous": false,
      "inputs": [
        {
          "indexed": false,
          "name": "EIN",
          "type": "uint256"
        },
        {
          "indexed": false,
          "name": "fileIndex",
          "type": "uint256"
        }
      ],
      "name": "ItemShareChange",
      "type": "event"
    },
    {
      "anonymous": false,
      "inputs": [
        {
          "indexed": false,
          "name": "EIN",
          "type": "uint256"
        },
        {
          "indexed": false,
          "name": "fileIndex",
          "type": "uint256"
        },
        {
          "indexed": false,
          "name": "fileName",
          "type": "string"
        }
      ],
      "name": "FileCreated",
      "type": "event"
    },
    {
      "anonymous": false,
      "inputs": [
        {
          "indexed": false,
          "name": "EIN",
          "type": "uint256"
        },
        {
          "indexed": false,
          "name": "fileIndex",
          "type": "uint256"
        },
        {
          "indexed": false,
          "name": "fileName",
          "type": "string"
        }
      ],
      "name": "FileRenamed",
      "type": "event"
    },
    {
      "anonymous": false,
      "inputs": [
        {
          "indexed": false,
          "name": "EIN",
          "type": "uint256"
        },
        {
          "indexed": false,
          "name": "fileIndex",
          "type": "uint256"
        },
        {
          "indexed": false,
          "name": "groupIndex",
          "type": "uint256"
        },
        {
          "indexed": false,
          "name": "groupFileIndex",
          "type": "uint256"
        }
      ],
      "name": "FileMoved",
      "type": "event"
    },
    {
      "anonymous": false,
      "inputs": [
        {
          "indexed": false,
          "name": "EIN",
          "type": "uint256"
        },
        {
          "indexed": false,
          "name": "fileIndex",
          "type": "uint256"
        }
      ],
      "name": "FileDeleted",
      "type": "event"
    },
    {
      "anonymous": false,
      "inputs": [
        {
          "indexed": false,
          "name": "EIN",
          "type": "uint256"
        },
        {
          "indexed": false,
          "name": "groupIndex",
          "type": "uint256"
        },
        {
          "indexed": false,
          "name": "groupName",
          "type": "string"
        }
      ],
      "name": "GroupCreated",
      "type": "event"
    },
    {
      "anonymous": false,
      "inputs": [
        {
          "indexed": false,
          "name": "EIN",
          "type": "uint256"
        },
        {
          "indexed": false,
          "name": "groupIndex",
          "type": "uint256"
        },
        {
          "indexed": false,
          "name": "groupName",
          "type": "string"
        }
      ],
      "name": "GroupRenamed",
      "type": "event"
    },
    {
      "anonymous": false,
      "inputs": [
        {
          "indexed": false,
          "name": "EIN",
          "type": "uint256"
        },
        {
          "indexed": false,
          "name": "groupIndex",
          "type": "uint256"
        },
        {
          "indexed": false,
          "name": "groupReplacedIndex",
          "type": "uint256"
        }
      ],
      "name": "GroupDeleted",
      "type": "event"
    },
    {
      "anonymous": false,
      "inputs": [
        {
          "indexed": true,
          "name": "EIN",
          "type": "uint256"
        },
        {
          "indexed": true,
          "name": "transfereeEIN",
          "type": "uint256"
        },
        {
          "indexed": true,
          "name": "fileID",
          "type": "uint256"
        }
      ],
      "name": "FileTransferInitiated",
      "type": "event"
    },
    {
      "anonymous": false,
      "inputs": [
        {
          "indexed": false,
          "name": "EIN",
          "type": "uint256"
        },
        {
          "indexed": false,
          "name": "recipientEIN",
          "type": "uint256"
        }
      ],
      "name": "AddedToWhitelist",
      "type": "event"
    },
    {
      "anonymous": false,
      "inputs": [
        {
          "indexed": false,
          "name": "EIN",
          "type": "uint256"
        },
        {
          "indexed": false,
          "name": "recipientEIN",
          "type": "uint256"
        }
      ],
      "name": "RemovedFromWhitelist",
      "type": "event"
    },
    {
      "anonymous": false,
      "inputs": [
        {
          "indexed": false,
          "name": "EIN",
          "type": "uint256"
        },
        {
          "indexed": false,
          "name": "recipientEIN",
          "type": "uint256"
        }
      ],
      "name": "AddedToBlacklist",
      "type": "event"
    },
    {
      "anonymous": false,
      "inputs": [
        {
          "indexed": false,
          "name": "EIN",
          "type": "uint256"
        },
        {
          "indexed": false,
          "name": "recipientEIN",
          "type": "uint256"
        }
      ],
      "name": "RemovedFromBlacklist",
      "type": "event"
    },
    {
      "constant": true,
      "inputs": [
        {
          "name": "_index1",
          "type": "uint256"
        },
        {
          "name": "_index2",
          "type": "uint256"
        }
      ],
      "name": "getGlobalItems",
      "outputs": [
        {
          "name": "ownerEIN",
          "type": "uint256"
        },
        {
          "name": "itemRecord",
          "type": "uint256"
        },
        {
          "name": "isFile",
          "type": "bool"
        },
        {
          "name": "isHidden",
          "type": "bool"
        },
        {
          "name": "deleted",
          "type": "bool"
        },
        {
          "name": "sharedToCount",
          "type": "uint8"
        },
        {
          "name": "pendingStampingCount",
          "type": "uint8"
        }
      ],
      "payable": false,
      "stateMutability": "view",
      "type": "function"
    },
    {
      "constant": false,
      "inputs": [
        {
          "name": "_index1",
          "type": "uint256"
        },
        {
          "name": "_index2",
          "type": "uint256"
        },
        {
          "name": "_isHidden",
          "type": "bool"
        }
      ],
      "name": "hideGlobalItem",
      "outputs": [],
      "payable": false,
      "stateMutability": "nonpayable",
      "type": "function"
    },
    {
      "constant": true,
      "inputs": [
        {
          "name": "_index1",
          "type": "uint256"
        },
        {
          "name": "_index2",
          "type": "uint256"
        },
        {
          "name": "_ofType",
          "type": "uint8"
        },
        {
          "name": "_mappedIndex",
          "type": "uint8"
        }
      ],
      "name": "getGlobalItemsMapping",
      "outputs": [
        {
          "name": "mappedToEIN",
          "type": "uint256"
        },
        {
          "name": "atIndex",
          "type": "uint256"
        }
      ],
      "payable": false,
      "stateMutability": "view",
      "type": "function"
    },
    {
      "constant": true,
      "inputs": [
        {
          "name": "_ein",
          "type": "uint256"
        },
        {
          "name": "_seedPointer",
          "type": "uint256"
        },
        {
          "name": "_limit",
          "type": "uint16"
        },
        {
          "name": "_asc",
          "type": "bool"
        }
      ],
      "name": "getFileIndexes",
      "outputs": [
        {
          "name": "fileIndexes",
          "type": "uint256[20]"
        }
      ],
      "payable": false,
      "stateMutability": "view",
      "type": "function"
    },
    {
      "constant": true,
      "inputs": [
        {
          "name": "_ein",
          "type": "uint256"
        },
        {
          "name": "_fileIndex",
          "type": "uint256"
        }
      ],
      "name": "getFileInfo",
      "outputs": [
        {
          "name": "protocol",
          "type": "uint8"
        },
        {
          "name": "protocolMeta",
          "type": "bytes"
        },
        {
          "name": "fileName",
          "type": "string"
        },
        {
          "name": "fileHash",
          "type": "bytes32"
        },
        {
          "name": "hashExtraInfo",
          "type": "bytes22"
        },
        {
          "name": "hashFunction",
          "type": "uint8"
        },
        {
          "name": "hashSize",
          "type": "uint8"
        },
        {
          "name": "encryptedStatus",
          "type": "bool"
        }
      ],
      "payable": false,
      "stateMutability": "view",
      "type": "function"
    },
    {
      "constant": true,
      "inputs": [
        {
          "name": "_ein",
          "type": "uint256"
        },
        {
          "name": "_fileIndex",
          "type": "uint256"
        }
      ],
      "name": "getFileOtherInfo",
      "outputs": [
        {
          "name": "timestamp",
          "type": "uint32"
        },
        {
          "name": "associatedGroupIndex",
          "type": "uint256"
        },
        {
          "name": "associatedGroupFileIndex",
          "type": "uint256"
        }
      ],
      "payable": false,
      "stateMutability": "view",
      "type": "function"
    },
    {
      "constant": true,
      "inputs": [
        {
          "name": "_ein",
          "type": "uint256"
        },
        {
          "name": "_fileIndex",
          "type": "uint256"
        }
      ],
      "name": "getFileTransferInfo",
      "outputs": [
        {
          "name": "transCount",
          "type": "uint256"
        },
        {
          "name": "transEIN",
          "type": "uint256"
        },
        {
          "name": "transIndex",
          "type": "uint256"
        },
        {
          "name": "forTrans",
          "type": "bool"
        }
      ],
      "payable": false,
      "stateMutability": "view",
      "type": "function"
    },
    {
      "constant": true,
      "inputs": [
        {
          "name": "_ein",
          "type": "uint256"
        },
        {
          "name": "_fileIndex",
          "type": "uint256"
        },
        {
          "name": "_transferCount",
          "type": "uint256"
        }
      ],
      "name": "getFileTransferOwners",
      "outputs": [
        {
          "name": "recipientEIN",
          "type": "uint256"
        }
      ],
      "payable": false,
      "stateMutability": "view",
      "type": "function"
    },
    {
      "constant": false,
      "inputs": [
        {
          "name": "_op",
          "type": "uint8"
        },
        {
          "name": "_protocol",
          "type": "uint8"
        },
        {
          "name": "_protocolMeta",
          "type": "bytes"
        },
        {
          "name": "_name",
          "type": "bytes32"
        },
        {
          "name": "_hash",
          "type": "bytes32"
        },
        {
          "name": "_hashExtraInfo",
          "type": "bytes22"
        },
        {
          "name": "_hashFunction",
          "type": "uint8"
        },
        {
          "name": "_hashSize",
          "type": "uint8"
        },
        {
          "name": "_encrypted",
          "type": "bool"
        },
        {
          "name": "_encryptedHash",
          "type": "bytes32"
        },
        {
          "name": "_groupIndex",
          "type": "uint256"
        }
      ],
      "name": "addFile",
      "outputs": [],
      "payable": false,
      "stateMutability": "nonpayable",
      "type": "function"
    },
    {
      "constant": false,
      "inputs": [
        {
          "name": "_fileIndex",
          "type": "uint256"
        },
        {
          "name": "_name",
          "type": "bytes32"
        }
      ],
      "name": "changeFileName",
      "outputs": [],
      "payable": false,
      "stateMutability": "nonpayable",
      "type": "function"
    },
    {
      "constant": false,
      "inputs": [
        {
          "name": "_fileIndex",
          "type": "uint256"
        },
        {
          "name": "_newGroupIndex",
          "type": "uint256"
        }
      ],
      "name": "moveFileToGroup",
      "outputs": [],
      "payable": false,
      "stateMutability": "nonpayable",
      "type": "function"
    },
    {
      "constant": false,
      "inputs": [
        {
          "name": "_fileIndex",
          "type": "uint256"
        }
      ],
      "name": "deleteFile",
      "outputs": [],
      "payable": false,
      "stateMutability": "nonpayable",
      "type": "function"
    },
    {
      "constant": true,
      "inputs": [
        {
          "name": "_ein",
          "type": "uint256"
        },
        {
          "name": "_groupIndex",
          "type": "uint256"
        },
        {
          "name": "_seedPointer",
          "type": "uint256"
        },
        {
          "name": "_limit",
          "type": "uint16"
        },
        {
          "name": "_asc",
          "type": "bool"
        }
      ],
      "name": "getGroupFileIndexes",
      "outputs": [
        {
          "name": "groupFileIndexes",
          "type": "uint256[20]"
        }
      ],
      "payable": false,
      "stateMutability": "view",
      "type": "function"
    },
    {
      "constant": true,
      "inputs": [
        {
          "name": "_ein",
          "type": "uint256"
        },
        {
          "name": "_groupIndex",
          "type": "uint256"
        }
      ],
      "name": "getGroup",
      "outputs": [
        {
          "name": "index",
          "type": "uint256"
        },
        {
          "name": "name",
          "type": "string"
        }
      ],
      "payable": false,
      "stateMutability": "view",
      "type": "function"
    },
    {
      "constant": true,
      "inputs": [
        {
          "name": "_ein",
          "type": "uint256"
        },
        {
          "name": "_seedPointer",
          "type": "uint256"
        },
        {
          "name": "_limit",
          "type": "uint16"
        },
        {
          "name": "_asc",
          "type": "bool"
        }
      ],
      "name": "getGroupIndexes",
      "outputs": [
        {
          "name": "groupIndexes",
          "type": "uint256[20]"
        }
      ],
      "payable": false,
      "stateMutability": "view",
      "type": "function"
    },
    {
      "constant": false,
      "inputs": [
        {
          "name": "_groupName",
          "type": "string"
        }
      ],
      "name": "createGroup",
      "outputs": [],
      "payable": false,
      "stateMutability": "nonpayable",
      "type": "function"
    },
    {
      "constant": false,
      "inputs": [
        {
          "name": "_groupIndex",
          "type": "uint256"
        },
        {
          "name": "_groupName",
          "type": "string"
        }
      ],
      "name": "renameGroup",
      "outputs": [],
      "payable": false,
      "stateMutability": "nonpayable",
      "type": "function"
    },
    {
      "constant": false,
      "inputs": [
        {
          "name": "_groupIndex",
          "type": "uint256"
        }
      ],
      "name": "deleteGroup",
      "outputs": [],
      "payable": false,
      "stateMutability": "nonpayable",
      "type": "function"
    },
    {
      "constant": false,
      "inputs": [
        {
          "name": "_toEINs",
          "type": "uint256[]"
        },
        {
          "name": "_itemIndex",
          "type": "uint256"
        },
        {
          "name": "_isFile",
          "type": "bool"
        }
      ],
      "name": "shareItemToEINs",
      "outputs": [],
      "payable": false,
      "stateMutability": "nonpayable",
      "type": "function"
    },
    {
      "constant": false,
      "inputs": [
        {
          "name": "_fromEINs",
          "type": "uint256[]"
        },
        {
          "name": "_itemIndex",
          "type": "uint256"
        },
        {
          "name": "_isFile",
          "type": "bool"
        }
      ],
      "name": "removeShareFromEINs",
      "outputs": [],
      "payable": false,
      "stateMutability": "nonpayable",
      "type": "function"
    },
    {
      "constant": false,
      "inputs": [
        {
          "name": "_itemIndex",
          "type": "uint256"
        }
      ],
      "name": "removeSharingItemBySharee",
      "outputs": [],
      "payable": false,
      "stateMutability": "nonpayable",
      "type": "function"
    },
    {
      "constant": false,
      "inputs": [
        {
          "name": "_fileIndex",
          "type": "uint256"
        },
        {
          "name": "_transfereeEIN",
          "type": "uint256"
        }
      ],
      "name": "initiateFileTransfer",
      "outputs": [],
      "payable": false,
      "stateMutability": "nonpayable",
      "type": "function"
    },
    {
      "constant": false,
      "inputs": [
        {
          "name": "_atRecipientTransferIndex",
          "type": "uint256"
        },
        {
          "name": "_toRecipientGroup",
          "type": "uint256"
        }
      ],
      "name": "acceptFileTransfer",
      "outputs": [],
      "payable": false,
      "stateMutability": "nonpayable",
      "type": "function"
    },
    {
      "constant": false,
      "inputs": [
        {
          "name": "_transfereeEIN",
          "type": "uint256"
        },
        {
          "name": "_fileIndex",
          "type": "uint256"
        }
      ],
      "name": "revokeFileTransfer",
      "outputs": [],
      "payable": false,
      "stateMutability": "nonpayable",
      "type": "function"
    },
    {
      "constant": false,
      "inputs": [
        {
          "name": "_atRecipientTransferIndex",
          "type": "uint256"
        }
      ],
      "name": "rejectFileTransfer",
      "outputs": [
        {
          "name": "",
          "type": "uint256"
        },
        {
          "name": "",
          "type": "uint256"
        }
      ],
      "payable": false,
      "stateMutability": "nonpayable",
      "type": "function"
    },
    {
      "constant": false,
      "inputs": [
        {
          "name": "_nonOwnerEIN",
          "type": "uint256"
        }
      ],
      "name": "addToWhitelist",
      "outputs": [],
      "payable": false,
      "stateMutability": "nonpayable",
      "type": "function"
    },
    {
      "constant": false,
      "inputs": [
        {
          "name": "_nonOwnerEIN",
          "type": "uint256"
        }
      ],
      "name": "removeFromWhitelist",
      "outputs": [],
      "payable": false,
      "stateMutability": "nonpayable",
      "type": "function"
    },
    {
      "constant": false,
      "inputs": [
        {
          "name": "_nonOwnerEIN",
          "type": "uint256"
        }
      ],
      "name": "addToBlacklist",
      "outputs": [],
      "payable": false,
      "stateMutability": "nonpayable",
      "type": "function"
    }
  ],
  "bytecode": "0x6080604052601a8054600160a060020a03191673b0d5a36733886a4c5597849a05b315626af5222e1790553480156200003757600080fd5b50601a5460188054600160a060020a031916600160a060020a039283161790819055604080517fa759ee6f0000000000000000000000000000000000000000000000000000000081529051919092169163a759ee6f9160048083019260209291908290030181600087803b158015620000af57600080fd5b505af1158015620000c4573d6000803e3d6000fd5b505050506040513d6020811015620000db57600080fd5b505160198054600160a060020a031916600160a060020a039092169190911790556149fc806200010c6000396000f3fe6080604052600436106102475760e060020a600035046301bee1d6811461024c5780630340cf6914610295578063081c56a5146102f057806312c8e64414610322578063134e18f41461037a57806314f2c435146103ab578063164570f5146103d55780632a11103c1461045057806330a0b0e41461049457806333aff05a146104d0578063368aaf7914610500578063426dd27c1461053057806344aac430146105df57806345d88d2d1461060f5780634e5b9f04146106395780635056feee1461067a57806351d3b554146106aa57806354a8a58a146106da57806358f2b588146106ef57806359a8e8b81461071957806359ceb6681461079d57806363804c20146107cd5780636e8e0b23146108225780636fc1084d14610858578063737f3a1d1461090f5780637b97cc4f1461093f578063804c1a6a1461096f5780638216526c1461099f5780638974a42514610af35780638b762e6c14610b23578063973670d614610b4d578063b02959af14610bd2578063b3ae44c814610bfc578063b4e741a214610c11578063b583637714610c3b578063ba45ce2114610c6b578063bae9c96d14610c9b578063bca92bc414610ccb578063be7047a514610dd1578063c2cfaaf514610e19578063c5b4200614610e89578063d62991ce14610eb3578063dc2ddcae14610edd578063de89fabc14610f90578063ec02ef5714610fc0578063ee2da28a14610fea578063f2395dc314611014578063f39997d21461103e578063f836a35314611068578063fb7ff8741461107d578063fb9efad1146110b5575b600080fd5b34801561025857600080fd5b5061027c6004803603604081101561026f57600080fd5b50803590602001356110f7565b6040805192835260208301919091528051918290030190f35b3480156102a157600080fd5b506102bf600480360360208110156102b857600080fd5b503561111b565b6040805195151586529315156020860152911515848401521515606084015215156080830152519081900360a00190f35b3480156102fc57600080fd5b506103206004803603604081101561031357600080fd5b5080359060200135611158565b005b34801561032e57600080fd5b506103526004803603604081101561034557600080fd5b50803590602001356113a1565b6040805194855260208501939093528383019190915215156060830152519081900360800190f35b34801561038657600080fd5b5061038f6113d6565b60408051600160a060020a039092168252519081900360200190f35b3480156103b757600080fd5b50610320600480360360208110156103ce57600080fd5b50356113e5565b3480156103e157600080fd5b50610417600480360360808110156103f857600080fd5b5080359060208101359061ffff60408201351690606001351515611545565b604051808261028080838360005b8381101561043d578181015183820152602001610425565b5050505090500191505060405180910390f35b34801561045c57600080fd5b506104806004803603604081101561047357600080fd5b5080359060200135611625565b604080519115158252519081900360200190f35b3480156104a057600080fd5b506104be600480360360208110156104b757600080fd5b5035611645565b60408051918252519081900360200190f35b3480156104dc57600080fd5b50610352600480360360408110156104f357600080fd5b5080359060200135611657565b34801561050c57600080fd5b506103526004803603604081101561052357600080fd5b508035906020013561168c565b34801561053c57600080fd5b506105606004803603604081101561055357600080fd5b508035906020013561175f565b6040518083815260200180602001828103825283818151815260200191508051906020019080838360005b838110156105a357818101518382015260200161058b565b50505050905090810190601f1680156105d05780820380516001836020036101000a031916815260200191505b50935050505060405180910390f35b3480156105eb57600080fd5b506104806004803603604081101561060257600080fd5b5080359060200135611897565b34801561061b57600080fd5b506103206004803603602081101561063257600080fd5b50356118b7565b34801561064557600080fd5b5061027c6004803603608081101561065c57600080fd5b5080359060208101359060ff60408201358116916060013516611a6a565b34801561068657600080fd5b5061027c6004803603604081101561069d57600080fd5b5080359060200135611b1c565b3480156106b657600080fd5b50610320600480360360408110156106cd57600080fd5b5080359060200135611b40565b3480156106e657600080fd5b506104be611d7c565b3480156106fb57600080fd5b506104be6004803603602081101561071257600080fd5b5035611d82565b34801561072557600080fd5b506103206004803603604081101561073c57600080fd5b8135919081019060408101602082013564010000000081111561075e57600080fd5b82018360208201111561077057600080fd5b8035906020019184600183028401116401000000008311171561079257600080fd5b509092509050611d94565b3480156107a957600080fd5b5061027c600480360360408110156107c057600080fd5b5080359060200135611f73565b3480156107d957600080fd5b506107fd600480360360408110156107f057600080fd5b5080359060200135611f97565b6040805163ffffffff9094168452602084019290925282820152519081900360600190f35b34801561082e57600080fd5b506104be6004803603606081101561084557600080fd5b508035906020810135906040013561205f565b34801561086457600080fd5b506103206004803603606081101561087b57600080fd5b81019060208101813564010000000081111561089657600080fd5b8201836020820111156108a857600080fd5b803590602001918460208302840111640100000000831117156108ca57600080fd5b91908080602002602001604051908101604052809392919081815260200183836020028082843760009201919091525092955050823593505050602001351515612115565b34801561091b57600080fd5b506103526004803603604081101561093257600080fd5b5080359060200135612418565b34801561094b57600080fd5b506103206004803603604081101561096257600080fd5b508035906020013561244d565b34801561097b57600080fd5b5061027c6004803603604081101561099257600080fd5b50803590602001356125b4565b3480156109ab57600080fd5b506109cf600480360360408110156109c257600080fd5b50803590602001356125d8565b6040805160ff808b1682526060820188905269ffffffffffffffffffff198716608083015285811660a0830152841660c082015282151560e082015261010060208083018281528b51928401929092528a5192939192918401916101208501918c019080838360005b83811015610a50578181015183820152602001610a38565b50505050905090810190601f168015610a7d5780820380516001836020036101000a031916815260200191505b5083810382528951815289516020918201918b019080838360005b83811015610ab0578181015183820152602001610a98565b50505050905090810190601f168015610add5780820380516001836020036101000a031916815260200191505b509a505050505050505050505060405180910390f35b348015610aff57600080fd5b5061032060048036036040811015610b1657600080fd5b50803590602001356127a5565b348015610b2f57600080fd5b5061032060048036036020811015610b4657600080fd5b503561295d565b348015610b5957600080fd5b5061032060048036036060811015610b7057600080fd5b810190602081018135640100000000811115610b8b57600080fd5b820183602082011115610b9d57600080fd5b80359060200191846020830284011164010000000083111715610bbf57600080fd5b9193509150803590602001351515612abd565b348015610bde57600080fd5b5061032060048036036020811015610bf557600080fd5b5035612e44565b348015610c0857600080fd5b506104be612f9a565b348015610c1d57600080fd5b506104be60048036036020811015610c3457600080fd5b5035612fa0565b348015610c4757600080fd5b5061035260048036036040811015610c5e57600080fd5b5080359060200135612fb2565b348015610c7757600080fd5b5061035260048036036040811015610c8e57600080fd5b5080359060200135612fe7565b348015610ca757600080fd5b5061032060048036036040811015610cbe57600080fd5b508035906020013561301c565b348015610cd757600080fd5b506103206004803603610160811015610cef57600080fd5b60ff8235811692602081013590911691810190606081016040820135640100000000811115610d1d57600080fd5b820183602082011115610d2f57600080fd5b80359060200191846001830284011164010000000083111715610d5157600080fd5b91908080601f0160208091040260200160405190810160405280939291908181526020018383808284376000920191909152509295505082359350505060208101359069ffffffffffffffffffff196040820135169060ff606082013581169160808101359091169060a081013515159060c08101359060e001356132f4565b348015610ddd57600080fd5b50610417600480360360a0811015610df457600080fd5b5080359060208101359060408101359061ffff60608201351690608001351515613c18565b348015610e2557600080fd5b50610e4960048036036040811015610e3c57600080fd5b5080359060200135613d06565b6040805197885260208801969096529315158686015291151560608601521515608085015260ff90811660a08501521660c0830152519081900360e00190f35b348015610e9557600080fd5b5061032060048036036020811015610eac57600080fd5b5035613d5c565b348015610ebf57600080fd5b506104be60048036036020811015610ed657600080fd5b5035613e21565b348015610ee957600080fd5b5061032060048036036020811015610f0057600080fd5b810190602081018135640100000000811115610f1b57600080fd5b820183602082011115610f2d57600080fd5b80359060200191846001830284011164010000000083111715610f4f57600080fd5b91908080601f016020809104026020016040519081016040528093929190818152602001838380828437600092019190915250929550613e33945050505050565b348015610f9c57600080fd5b5061035260048036036040811015610fb357600080fd5b50803590602001356140a7565b348015610fcc57600080fd5b506104be60048036036020811015610fe357600080fd5b50356140dc565b348015610ff657600080fd5b5061027c6004803603602081101561100d57600080fd5b50356140ee565b34801561102057600080fd5b506103206004803603602081101561103757600080fd5b50356142ab565b34801561104a57600080fd5b506104be6004803603602081101561106157600080fd5b503561440b565b34801561107457600080fd5b5061038f61441d565b34801561108957600080fd5b50610320600480360360608110156110a057600080fd5b5080359060208101359060400135151561442c565b3480156110c157600080fd5b50610417600480360360808110156110d857600080fd5b5080359060208101359061ffff604082013516906060013515156145be565b600d6020908152600092835260408084209091529082529020805460019091015482565b60036020526000908152604090205460ff808216916101008104821691620100008204811691630100000081048216916401000000009091041685565b6019546040805160e060020a6305c62c2f0281523360048201529051600092600160a060020a0316916305c62c2f916024808301926020929190829003018186803b1580156111a657600080fd5b505afa1580156111ba573d6000803e3d6000fd5b505050506040513d60208110156111d057600080fd5b505190506111dc614999565b6000828152600a6020908152604080832087845290915281206112049163ffffffff61465a16565b60408051808201825282548082526001909301546020820181905282517f16f6dc900000000000000000000000000000000000000000000000000000000081526004818101526024810185905260448101879052606481018290526003608482015292519194509173__IceFMS________________________________916316f6dc909160a480820192600092909190829003018186803b1580156112a857600080fd5b505af41580156112bc573d6000803e3d6000fd5b505050506112cc8285838861467b565b6000848152600a60209081526040808320600b90925280832081517feab910480000000000000000000000000000000000000000000000000000000081526004818101526024810187905260448101899052606481018b9052608481019390935260a4830152600c60c483015260e4820183905260036101048301525173__IceFMS________________________________9263eab91048926101248082019391829003018186803b15801561138157600080fd5b505af4158015611395573d6000803e3d6000fd5b50505050505050505050565b601460209081526000928352604080842090915290825290208054600182015460028301546003909301549192909160ff1684565b601954600160a060020a031681565b6019546040805160e060020a6305c62c2f0281523360048201529051600092600160a060020a0316916305c62c2f916024808301926020929190829003018186803b15801561143357600080fd5b505afa158015611447573d6000803e3d6000fd5b505050506040513d602081101561145d57600080fd5b50516000818152601660209081526040808320601790925280832081517f08a18df300000000000000000000000000000000000000000000000000000000815260048101939093526024830187905260448301525192935073__IceGlobal_____________________________926308a18df392606480840193919291829003018186803b1580156114ee57600080fd5b505af4158015611502573d6000803e3d6000fd5b5050604080518481526020810186905281517f96f0ff7350800befa1008d2dd1bc5e8f7a3c5aadc11678d50cd7193154b50ce39450908190039091019150a15050565b61154d6149b0565b6000858152600560205260409081902081517fad1c010a00000000000000000000000000000000000000000000000000000000815260048101919091526024810186905261ffff851660448201528315156064820152905173__IceSort_______________________________9163ad1c010a91608480830192610280929190829003018186803b1580156115e157600080fd5b505af41580156115f5573d6000803e3d6000fd5b505050506040513d601f19601f8201168201806040525061028081101561161b57600080fd5b5095945050505050565b601760209081526000928352604080842090915290825290205460ff1681565b600f6020526000908152604090205481565b600560209081526000928352604080842090915290825290208054600182015460028301546003909301549192909160ff1684565b600082815260046020818152604080842085855290915280832081517fc7bf45e6000000000000000000000000000000000000000000000000000000008152928301525182918291829173__IceFMS________________________________9163c7bf45e691602480820192608092909190829003018186803b15801561171257600080fd5b505af4158015611726573d6000803e3d6000fd5b505050506040513d608081101561173c57600080fd5b508051602082015160408301516060909301519199909850919650945092505050565b6000828152600760209081526040808320848452825280832085845260099092528083205481517f40cea0c200000000000000000000000000000000000000000000000000000000815260048101939093526024830185905260448301525160609173__IceFMS________________________________916340cea0c2916064808201928792909190829003018186803b1580156117fc57600080fd5b505af4158015611810573d6000803e3d6000fd5b505050506040513d6000823e601f3d908101601f19168201604090815281101561183957600080fd5b81516020830180519193928301929164010000000081111561185a57600080fd5b8201602081018481111561186d57600080fd5b815164010000000081118282018710171561188757600080fd5b5094999098509650505050505050565b601660209081526000928352604080842090915290825290205460ff1681565b6019546040805160e060020a6305c62c2f0281523360048201529051600092600160a060020a0316916305c62c2f916024808301926020929190829003018186803b15801561190557600080fd5b505afa158015611919573d6000803e3d6000fd5b505050506040513d602081101561192f57600080fd5b505160008181526007602090815260408083206008835281842082517f58e3b66b00000000000000000000000000000000000000000000000000000000815260048101929092526024820186905260448201889052606482015260096084820152600d60a4820152600e60c4820152600f60e4820152610104810184905260036101248201529051939450919273__IceFMS________________________________926358e3b66b92610144808301939192829003018186803b1580156119f557600080fd5b505af4158015611a09573d6000803e3d6000fd5b505050506040513d6020811015611a1f57600080fd5b5051604080518481526020810186905280820183905290519192507fd66ad55acd1951823df5c1b5c065951e2949a7cc40190ec571a2677508e13665919081900360600190a1505050565b600080611a75614999565b60ff85161515611abf5750600086815260208181526040808320888452825280832060ff871684526003018252918290208251808401909352805483526001015490820152611b07565b60ff851660011415611b075750600086815260208181526040808320888452825280832060ff8716845260050182529182902082518084019093528054835260010154908201525b80516020909101519097909650945050505050565b60136020908152600092835260408084209091529082529020805460019091015482565b6019546040805160e060020a6305c62c2f0281523360048201529051600092600160a060020a0316916305c62c2f916024808301926020929190829003018186803b158015611b8e57600080fd5b505afa158015611ba2573d6000803e3d6000fd5b505050506040513d6020811015611bb857600080fd5b5051600081815260046020818152604080842088855290915280832060030186905580517f9201de55000000000000000000000000000000000000000000000000000000008152918201869052519293507f2294a85d598463b63e064807fad457cab51825642ffcba08aadc87288b6cf0e8928492879273__IceFMS________________________________92639201de5592602480840193919291829003018186803b158015611c6857600080fd5b505af4158015611c7c573d6000803e3d6000fd5b505050506040513d6000823e601f3d908101601f191682016040526020811015611ca557600080fd5b810190808051640100000000811115611cbd57600080fd5b82016020810184811115611cd057600080fd5b8151640100000000811182820187101715611cea57600080fd5b50509291905050506040518084815260200183815260200180602001828103825283818151815260200191508051906020019080838360005b83811015611d3b578181015183820152602001611d23565b50505050905090810190601f168015611d685780820380516001836020036101000a031916815260200191505b5094505050505060405180910390a1505050565b60025481565b60156020526000908152604090205481565b6019546040805160e060020a6305c62c2f0281523360048201529051600092600160a060020a0316916305c62c2f916024808301926020929190829003018186803b158015611de257600080fd5b505afa158015611df6573d6000803e3d6000fd5b505050506040513d6020811015611e0c57600080fd5b5051600081815260076020908152604080832088845282528083208484526009909252918290205491517f05bd39220000000000000000000000000000000000000000000000000000000081526004810182815260248201899052604482018490526080606483019081526084830188905294955073__IceFMS________________________________946305bd3922948a9390928a928a9260a401848480828437600081840152601f19601f820116905080830192505050965050505050505060006040518083038186803b158015611ee557600080fd5b505af4158015611ef9573d6000803e3d6000fd5b505050507ffb99e9069a7eed8318d56501970264d150dcac4088e37bbf4bff66a71223b74b8185858560405180858152602001848152602001806020018281038252848482818152602001925080828437600083820152604051601f909101601f191690920182900397509095505050505050a150505050565b60106020908152600092835260408084209091529082529020805460019091015482565b600082815260046020818152604080842085855290915280832081517fc693ba1e00000000000000000000000000000000000000000000000000000000815292830152518291829173__IceFMS________________________________9163c693ba1e916024808301926060929190829003018186803b15801561201a57600080fd5b505af415801561202e573d6000803e3d6000fd5b505050506040513d606081101561204457600080fd5b50805160208201516040909201519097919650945092505050565b6000838152600460208181526040808420868552825280842081517fd3587cba00000000000000000000000000000000000000000000000000000000815293840152602483018590525173__IceFMS________________________________9263d3587cba926044808301939192829003018186803b1580156120e157600080fd5b505af41580156120f5573d6000803e3d6000fd5b505050506040513d602081101561210b57600080fd5b5051949350505050565b6019546040805160e060020a6305c62c2f0281523360048201529051600092600160a060020a0316916305c62c2f916024808301926020929190829003018186803b15801561216357600080fd5b505afa158015612177573d6000803e3d6000fd5b505050506040513d602081101561218d57600080fd5b50519050612199614999565b600183151514156122595760008281526006602052604080822054815160e060020a633b228bcf028152600481018890526024810191909152905173__IceFMS________________________________92633b228bcf9260448082019391829003018186803b15801561220b57600080fd5b505af415801561221f573d6000803e3d6000fd5b5050506000838152600460209081526040808320888452825291829020825180840190935280548352600101549082015291506123099050565b60008281526009602052604080822054815160e060020a633b228bcf028152600481018890526024810191909152905173__IceFMS________________________________92633b228bcf9260448082019391829003018186803b1580156122c057600080fd5b505af41580156122d4573d6000803e3d6000fd5b505050600083815260076020908152604080832088845282529182902082518084019093528054835260010154908201529150505b600d73__IceFMSAdv_____________________________639a6115d79091848860008087600001518152602001908152602001600020600087602001518152602001908152602001600020600e600f60036040518863ffffffff1660e060020a0281526004018088815260200187815260200180602001868152602001858152602001848152602001838152602001828103825287818151815260200191508051906020019060200280838360005b838110156123d05781810151838201526020016123b8565b505050509050019850505050505050505060006040518083038186803b1580156123f957600080fd5b505af415801561240d573d6000803e3d6000fd5b505050505050505050565b600860209081526000928352604080842090915290825290208054600182015460028301546003909301549192909160ff1684565b6019546040805160e060020a6305c62c2f0281523360048201529051600092600160a060020a0316916305c62c2f916024808301926020929190829003018186803b15801561249b57600080fd5b505afa1580156124af573d6000803e3d6000fd5b505050506040513d60208110156124c557600080fd5b50516000848152600a60209081526040808320600b8352818420858552600390935281842082517fd1183ba700000000000000000000000000000000000000000000000000000000815260048181015260248101879052604481018a905260648101899052608481019290925260a4820193909352600c60c482015260e4810184905261010481018390526101248101929092525192935073__IceFMS________________________________9263d1183ba79261014480840193919291829003018186803b15801561259757600080fd5b505af41580156125ab573d6000803e3d6000fd5b50505050505050565b600a6020908152600092835260408084209091529082529020805460019091015482565b600082815260046020818152604080842085855290915280832081517f3edbc2cd000000000000000000000000000000000000000000000000000000008152928301525160609182918491829182918291829173__IceFMS________________________________91633edbc2cd916024808201928692909190829003018186803b15801561266657600080fd5b505af415801561267a573d6000803e3d6000fd5b505050506040513d6000823e601f3d908101601f191682016040526101008110156126a457600080fd5b8151602083018051919392830192916401000000008111156126c557600080fd5b820160208101848111156126d857600080fd5b81516401000000008111828201871017156126f257600080fd5b5050929190602001805164010000000081111561270e57600080fd5b8201602081018481111561272157600080fd5b815164010000000081118282018710171561273b57600080fd5b50509291906020018051906020019092919080519060200190929190805190602001909291908051906020019092919080519060200190929190505050809850819950829a50839b50849c50859d50869e50879f5050505050505050509295985092959890939650565b6019546040805160e060020a6305c62c2f0281523360048201529051600092600160a060020a0316916305c62c2f916024808301926020929190829003018186803b1580156127f357600080fd5b505afa158015612807573d6000803e3d6000fd5b505050506040513d602081101561281d57600080fd5b50516000818152600460208181526040808420888552825280842085855260078352818520600884528286206003855283872084517f4344696300000000000000000000000000000000000000000000000000000000815296870193909352602486018b9052604486019190915260648501526084840188905260a4840185905260c484015251939450919273__IceFMS________________________________9263434469639260e48082019391829003018186803b1580156128e057600080fd5b505af41580156128f4573d6000803e3d6000fd5b505050506040513d602081101561290a57600080fd5b505160408051848152602081018790528082018690526060810183905290519192507f90066c23e167bba0523fbd672b21f1d81daf9041d56adbd5a79287f2cfd1ec08919081900360800190a150505050565b6019546040805160e060020a6305c62c2f0281523360048201529051600092600160a060020a0316916305c62c2f916024808301926020929190829003018186803b1580156129ab57600080fd5b505afa1580156129bf573d6000803e3d6000fd5b505050506040513d60208110156129d557600080fd5b50516000818152601760209081526040808320601690925280832081517fac0f927600000000000000000000000000000000000000000000000000000000815260048101939093526024830187905260448301525192935073__IceGlobal_____________________________9263ac0f927692606480840193919291829003018186803b158015612a6657600080fd5b505af4158015612a7a573d6000803e3d6000fd5b5050604080518481526020810186905281517f268aa614041be848a8eec03d06abc714c936e4466e52d79c1b0073d0bd5622fd9450908190039091019150a15050565b6019546040805160e060020a6305c62c2f0281523360048201529051600092600160a060020a0316916305c62c2f916024808301926020929190829003018186803b158015612b0b57600080fd5b505afa158015612b1f573d6000803e3d6000fd5b505050506040513d6020811015612b3557600080fd5b5051905060018215151415612ccf5760008181526006602052604080822054815160e060020a633b228bcf028152600481018790526024810191909152905173__IceFMS________________________________92633b228bcf9260448082019391829003018186803b158015612bab57600080fd5b505af4158015612bbf573d6000803e3d6000fd5b50505050600d73__IceFMSAdv_____________________________6373db547690916000600e600f60036017600460008a815260200190815260200160002060008c8152602001908152602001600020600001898e8e6040518b63ffffffff1660e060020a028152600401808b81526020018a8152602001898152602001888152602001878152602001868152602001858152602001848152602001806020018281038252848482818152602001925060200280828437600081840152601f19601f8201169050808301925050509b50505050505050505050505060006040518083038186803b158015612cb257600080fd5b505af4158015612cc6573d6000803e3d6000fd5b50505050612e3d565b60008181526009602052604080822054815160e060020a633b228bcf028152600481018790526024810191909152905173__IceFMS________________________________92633b228bcf9260448082019391829003018186803b158015612d3657600080fd5b505af4158015612d4a573d6000803e3d6000fd5b50505050600d73__IceFMSAdv_____________________________6373db547690916000600e600f60036017600760008a815260200190815260200160002060008c8152602001908152602001600020600001898e8e6040518b63ffffffff1660e060020a028152600401808b81526020018a8152602001898152602001888152602001878152602001868152602001858152602001848152602001806020018281038252848482818152602001925060200280828437600081840152601f19601f8201169050808301925050509b50505050505050505050505060006040518083038186803b1580156123f957600080fd5b5050505050565b6019546040805160e060020a6305c62c2f0281523360048201529051600092600160a060020a0316916305c62c2f916024808301926020929190829003018186803b158015612e9257600080fd5b505afa158015612ea6573d6000803e3d6000fd5b505050506040513d6020811015612ebc57600080fd5b50516000818152600d60209081526040808320868452909152812091925090612eeb908263ffffffff61465a16565b6000838152600d60209081526040808320600e8352818420600390935281842082517fa8eaca3c000000000000000000000000000000000000000000000000000000008152600481019290925260248201889052604482018690526064820193909352600f608482015260a48101929092525192935073__IceFMSAdv_____________________________9263a8eaca3c9260c480840193919291829003018186803b15801561259757600080fd5b60015481565b60096020526000908152604090205481565b600e60209081526000928352604080842090915290825290208054600182015460028301546003909301549192909160ff1684565b601160209081526000928352604080842090915290825290208054600182015460028301546003909301549192909160ff1684565b6019546040805160e060020a6305c62c2f0281523360048201529051600092600160a060020a0316916305c62c2f916024808301926020929190829003018186803b15801561306a57600080fd5b505afa15801561307e573d6000803e3d6000fd5b505050506040513d602081101561309457600080fd5b5051601954604080517f50f6848a00000000000000000000000000000000000000000000000000000000815260048181015260248101849052604481018690526064810187905260066084820152600760a4820152601760c4820152600060e482018190526003610104830152600160a060020a03909316610124820152905192935073__IceFMS________________________________926350f6848a9261014480840193919291829003018186803b15801561315157600080fd5b505af4158015613165573d6000803e3d6000fd5b505050600082815260036020908152604080832080546201000062ff0000199182168117909255878552828520805490911690911790556016825280832085845290915290205460ff1615156001141590506131cd576131c8818385600061467b565b6132c9565b60008181526004602081815260408084208785528252808420868552600a8352818520600b90935281852082517fa1b8ebb9000000000000000000000000000000000000000000000000000000008152948501919091526024840187905260448401929092526064830191909152600c608483015260a482018390525173__IceFMS________________________________9263a1b8ebb99260c48082019391829003018186803b15801561328157600080fd5b505af4158015613295573d6000803e3d6000fd5b505050508282827fbf6895715dbf24953564001b3ff975257cecfae946866daa1a1d345061a21e9160405160405180910390a45b600090815260036020526040808220805462ff00001990811690915592825290208054909116905550565b6019546040805160e060020a6305c62c2f0281523360048201529051600092600160a060020a0316916305c62c2f916024808301926020929190829003018186803b15801561334257600080fd5b505afa158015613356573d6000803e3d6000fd5b505050506040513d602081101561336c57600080fd5b505160008181526009602052604080822054815160e060020a633b228bcf028152600481018790526024810191909152905192935073__IceFMS________________________________92633b228bcf92604480840193919291829003018186803b1580156133da57600080fd5b505af41580156133ee573d6000803e3d6000fd5b50505060008281526003602052604080822081517f85ee7e960000000000000000000000000000000000000000000000000000000081526004810191909152905173__IceGlobal_____________________________93506385ee7e9692602480840193919291829003018186803b15801561346957600080fd5b505af415801561347d573d6000803e3d6000fd5b50505060008281526003602052604080822081517fb152badc0000000000000000000000000000000000000000000000000000000081526004810191909152905173__IceGlobal_____________________________935063b152badc92602480840193919291829003018186803b1580156134f857600080fd5b505af415801561350c573d6000803e3d6000fd5b5050506000828152600360205260409020805461ff001960ff19909116600117166101001790555061353c614999565b600060ff8e1615156136bb5773__IceGlobal_____________________________63846d4c8c6001546002546040518363ffffffff1660e060020a0281526004018083815260200182815260200192505050604080518083038186803b1580156135a557600080fd5b505af41580156135b9573d6000803e3d6000fd5b505050506040513d60408110156135cf57600080fd5b5080516020918201516002819055600182815560408051808201825293845283850192835260008881526006909552808520548451935182517fd6238b5a00000000000000000000000000000000000000000000000000000000815260048101889052602481019590955260448501526064840189905282016084840181905260a484019290925260c4830185905260e4830185905251929550935073__IceGlobal_____________________________9263d6238b5a9261010480840193829003018186803b1580156136a257600080fd5b505af41580156136b6573d6000803e3d6000fd5b505050505b60046000848152602001908152602001600020600082815260200190815260200160002073__IceFMS________________________________63bc5103a290918e876007600089815260200190815260200160002060008a8152602001908152602001600020600401546040518563ffffffff1660e060020a0281526004018085815260200180602001848152602001838152602001828103825285818151815260200191508051906020019080838360005b8381101561378657818101518382015260200161376e565b50505050905090810190601f1680156137b35780820380516001836020036101000a031916815260200191505b509550505050505060006040518083038186803b1580156137d357600080fd5b505af41580156137e7573d6000803e3d6000fd5b5050505081600460008581526020019081526020016000206000838152602001908152602001600020600001600082015181600001556020820151816001015590505060046000848152602001908152602001600020600082815260200190815260200160002073__IceFMS________________________________633b8b92bf90918f8e8e8e8e8e8e6040518963ffffffff1660e060020a028152600401808981526020018860ff1660ff1681526020018781526020018681526020018569ffffffffffffffffffff191669ffffffffffffffffffff191681526020018460ff1660ff1681526020018360ff1660ff168152602001821515151581526020019850505050505050505060006040518083038186803b15801561390957600080fd5b505af415801561391d573d6000803e3d6000fd5b5050505060ff8e161515613a4057600083815260046020818152604080842085855282528084208785526007835281852089865283528185208886526005845282862060068552958390205483517f331d6ab9000000000000000000000000000000000000000000000000000000008152958601929092526024850152604484018990526064840194909452608483019390935260a4820184905260c4820186905260e48201889052915173__IceFMS________________________________9263331d6ab9926101048082019391829003018186803b158015613a0057600080fd5b505af4158015613a14573d6000803e3d6000fd5b505050506040513d6020811015613a2a57600080fd5b5051600084815260066020526040902055613a6e565b8d60ff1660011415613a6e576000838152600360205260409020805464ff0000000019166401000000001790555b7f4443292b7c801de1e18bba287635c870a53fe39f205e385ab346e9f2939dffb2838273__IceFMS________________________________639201de558f6040518263ffffffff1660e060020a0281526004018082815260200191505060006040518083038186803b158015613ae357600080fd5b505af4158015613af7573d6000803e3d6000fd5b505050506040513d6000823e601f3d908101601f191682016040526020811015613b2057600080fd5b810190808051640100000000811115613b3857600080fd5b82016020810184811115613b4b57600080fd5b8151640100000000811182820187101715613b6557600080fd5b50509291905050506040518084815260200183815260200180602001828103825283818151815260200191508051906020019080838360005b83811015613bb6578181015183820152602001613b9e565b50505050905090810190601f168015613be35780820380516001836020036101000a031916815260200191505b5094505050505060405180910390a150506000908152600360205260409020805461ffff191690555050505050505050505050565b613c206149b0565b60008681526007602090815260408083208884529091529081902081517fad1c010a000000000000000000000000000000000000000000000000000000008152600390910160048201526024810186905261ffff851660448201528315156064820152905173__IceSort_______________________________9163ad1c010a91608480830192610280929190829003018186803b158015613cc157600080fd5b505af4158015613cd5573d6000803e3d6000fd5b505050506040513d601f19601f82011682018060405250610280811015613cfb57600080fd5b509695505050505050565b600091825260208281526040808420928452919052902080546001820154600290920154909260ff8083169261010081048216926301000000820483169264010000000083048116926501000000000090041690565b6019546040805160e060020a6305c62c2f0281523360048201529051600092600160a060020a0316916305c62c2f916024808301926020929190829003018186803b158015613daa57600080fd5b505afa158015613dbe573d6000803e3d6000fd5b505050506040513d6020811015613dd457600080fd5b50519050613de2818361485e565b604080518281526020810184905281517fa50edae42406c3acb160bbddf0ca2fc7eb414a065b7738f3ff10d22c6385cafd929181900390910190a15050565b60126020526000908152604090205481565b6019546040805160e060020a6305c62c2f0281523360048201529051600092600160a060020a0316916305c62c2f916024808301926020929190829003018186803b158015613e8157600080fd5b505afa158015613e95573d6000803e3d6000fd5b505050506040513d6020811015613eab57600080fd5b8101908080519060200190929190505050905060006007600083815260200190815260200160002073__IceFMS________________________________634e82cf81909184866008600088815260200190815260200160002060096000600154600254600360008d81526020019081526020016000206040518a63ffffffff1660e060020a028152600401808a815260200189815260200180602001888152602001878152602001868152602001858152602001848152602001838152602001828103825289818151815260200191508051906020019080838360005b83811015613fa0578181015183820152602001613f88565b50505050905090810190601f168015613fcd5780820380516001836020036101000a031916815260200191505b509a505050505050505050505060606040518083038186803b158015613ff257600080fd5b505af4158015614006573d6000803e3d6000fd5b505050506040513d606081101561401c57600080fd5b5080516020808301516040938401516002919091556001929092558251858152808201839052606093810184815287519482019490945286519294507fa5edfd2fddc5d31cfe8722fdf90ee7cbc852fb72f5d008e4672cd2d8d365d4cc9386938693899392916080840191850190808383600083811015611d3b578181015183820152602001611d23565b600b60209081526000928352604080842090915290825290208054600182015460028301546003909301549192909160ff1684565b600c6020526000908152604090205481565b6019546040805160e060020a6305c62c2f028152336004820152905160009283928392600160a060020a03909216916305c62c2f91602480820192602092909190829003018186803b15801561414357600080fd5b505afa158015614157573d6000803e3d6000fd5b505050506040513d602081101561416d57600080fd5b50519050614179614999565b6000828152600a6020908152604080832088845290915281206141a19163ffffffff61465a16565b604080518082018252825480825260019093015460208083018290526000878152600a8252848120600b8352858220878352600390935285822086517fd1183ba700000000000000000000000000000000000000000000000000000000815260048181015260248101899052604481018b905260648101869052608481019290925260a4820193909352600c60c482015260e4810182905261010481018390526101248101929092529351929550909273__IceFMS________________________________9263d1183ba792610144808201939291829003018186803b15801561428a57600080fd5b505af415801561429e573d6000803e3d6000fd5b5050505050505050915091565b6019546040805160e060020a6305c62c2f0281523360048201529051600092600160a060020a0316916305c62c2f916024808301926020929190829003018186803b1580156142f957600080fd5b505afa15801561430d573d6000803e3d6000fd5b505050506040513d602081101561432357600080fd5b50516000818152601660209081526040808320601790925280832081517fc9621e7c00000000000000000000000000000000000000000000000000000000815260048101939093526024830187905260448301525192935073__IceGlobal_____________________________9263c9621e7c92606480840193919291829003018186803b1580156143b457600080fd5b505af41580156143c8573d6000803e3d6000fd5b5050604080518481526020810186905281517f29f3bb6c612e040fa60e402db6e1cc866432046c42b69343e9a1fe5ec8a113799450908190039091019150a15050565b60066020526000908152604090205481565b601854600160a060020a031681565b6019546040805160e060020a6305c62c2f0281523360048201529051600092600160a060020a0316916305c62c2f916024808301926020929190829003018186803b15801561447a57600080fd5b505afa15801561448e573d6000803e3d6000fd5b505050506040513d60208110156144a457600080fd5b505160008581526020818152604080832087845290915280822081517f740757c5000000000000000000000000000000000000000000000000000000008152600481019190915260248101849052905192935073__IceGlobal_____________________________9263740757c592604480840193919291829003018186803b15801561453057600080fd5b505af4158015614544573d6000803e3d6000fd5b505050600085815260208181526040808320878452825291829020600281018054871515610100810261ff00199092169190911790915590548351868152928301528183015290517f0ce377672be6a67565be659bf079ec7b5847de22e63d796a7ee57f0cbd45b05f92509081900360600190a150505050565b6145c66149b0565b6000858152600860205260409081902081517fad1c010a00000000000000000000000000000000000000000000000000000000815260048101919091526024810186905261ffff851660448201528315156064820152905173__IceSort_______________________________9163ad1c010a91608480830192610280929190829003018186803b1580156115e157600080fd5b81546000908152602091825260408082206001909401548252929091522090565b600084815260036020908152604080832080546201000062ff00001991821681179092558785528285208054909116909117905580517fbac97b4000000000000000000000000000000000000000000000000000000000815260048082015260248101889052604481018790526064810186905260056084820152600660a4820152905173__IceFMS________________________________9263bac97b409260c48082019391829003018186803b15801561473657600080fd5b505af415801561474a573d6000803e3d6000fd5b505050506040513d602081101561476057600080fd5b50516000858152600960205260408082205481517fe730a131000000000000000000000000000000000000000000000000000000008152600481810152602481018990526044810188905260648101879052608481019190915260a48101849052600760c482015260e48101839052905192935073__IceFMS________________________________9263e730a1319261010480840193919291829003018186803b15801561480e57600080fd5b505af4158015614822573d6000803e3d6000fd5b50505050614830858461485e565b505050600091825260036020526040808320805462ff00001990811690915591835290912080549091169055565b600082815260046020908152604080832084845291829052822073__IceFMS________________________________926329b1851f9291869186916148a89163ffffffff61465a16565b6000888152600560209081526040808320600780845282852060048086528487208e88528652848720909201548087529085528386208e8752600886528487209187529452828520835160e060020a63ffffffff8d16028152918201999099526024810197909752604487019590955260648601939093526084850193909352600660a485015260c484019290925260e4830193909352600d610104830152600e610124830152600f610144830152600361016483015291516101848083019392829003018186803b15801561497d57600080fd5b505af4158015614991573d6000803e3d6000fd5b505050505050565b604080518082019091526000808252602082015290565b61028060405190810160405280601490602082028038833950919291505056fea165627a7a7230582059edc8565b6a3085ff7c2fe1c8c029cb864ca63a72654976b9a480adb356fba70029",
  "source": "pragma solidity ^0.5.1;\n\nimport \"./interfaces/SnowflakeInterface.sol\";\nimport \"./interfaces/IdentityRegistryInterface.sol\";\n\nimport \"./SafeMath.sol\";\n\nimport \"./IceGlobal.sol\";\nimport \"./IceSort.sol\";\n\nimport \"./IceFMSAdv.sol\";\n\nimport \"./IceFMS.sol\";\n\n/**\n * @title Ice Protocol\n * @author Harsh Rajat\n * @notice Create Protocol Less File Storage, Grouping, Hassle free Encryption / Decryption and Stamping using Snowflake\n * @dev This Contract forms File Storage / Stamping / Encryption part of Hydro Protocols\n */\ncontract Ice {\n    using SafeMath for uint;\n    \n    using IceGlobal for IceGlobal.GlobalRecord;\n    using IceGlobal for IceGlobal.ItemOwner;\n    using IceGlobal for IceGlobal.Association;\n    using IceGlobal for IceGlobal.UserMeta;\n    using IceGlobal for mapping (uint => bool);\n    using IceGlobal for mapping (uint8 => IceGlobal.ItemOwner);\n    using IceGlobal for mapping (uint => mapping (uint => IceGlobal.Association));\n    \n    using IceSort for mapping(uint => IceSort.SortOrder);\n    using IceSort for IceSort.SortOrder;\n    \n    using IceFMS for IceFMS.File;\n    using IceFMS for mapping (uint => IceFMS.File);\n    using IceFMS for mapping (uint => mapping (uint => IceFMS.File));\n    using IceFMS for IceFMS.Group;\n    using IceFMS for mapping (uint => IceFMS.Group);\n    using IceFMS for uint;\n    \n    using IceFMSAdv for mapping (uint => IceGlobal.GlobalRecord);\n    using IceFMSAdv for mapping (uint => mapping(uint => IceGlobal.GlobalRecord));\n    \n    /* ***************\n    * DEFINE ENUM\n    *************** */\n    enum NoticeType {info, warning, error}\n    \n    /* ***************\n    * DEFINE STRUCTURES\n    *************** */\n    // Done in Libraries\n     \n    /* ***************\n    * DEFINE VARIABLES\n    *************** */\n    /* for each item stored, ensure they can be retrieved publicly.\n     * globalIndex1 and globalIndex2 starts at 0 and will always increment\n     * given these indexes, any items can be retrieved.\n     */\n    mapping (uint => mapping(uint => IceGlobal.Association)) globalItems;\n    uint public globalIndex1; // store the first index of association to retrieve files\n    uint public globalIndex2; // store the second index of association to retrieve files\n\n    /* for each user (EIN), look up the Transitioon State they have\n     * stored on a given index.\n     */\n    mapping (uint => IceGlobal.UserMeta) public usermeta;\n\n    /* for each user (EIN), look up the file they have\n     * stored on a given index.\n     */\n    mapping (uint => mapping(uint => IceFMS.File)) files;\n    mapping (uint => mapping(uint => IceSort.SortOrder)) public fileOrder; // Store round robin order of files\n    mapping (uint => uint) public fileCount; // store the maximum file count reached to provide looping functionality\n\n    /* for each user (EIN), look up the group they have\n     * stored on a given index. Default group 0 indicates\n     * root folder\n     */\n    mapping (uint => mapping(uint => IceFMS.Group)) groups;\n    mapping (uint => mapping(uint => IceSort.SortOrder)) public groupOrder; // Store round robin order of group\n    mapping (uint => uint) public groupCount; // store the maximum group count reached to provide looping functionality\n\n    /* for each user (EIN), look up the incoming transfer request\n     * stored on a given index.\n     */\n    mapping (uint => mapping(uint => IceGlobal.GlobalRecord)) public transfers;\n    mapping (uint => mapping(uint => IceSort.SortOrder)) public transferOrder; // Store round robin order of transfers\n    mapping (uint => uint) public transferCount; // store the maximum transfer request count reached to provide looping functionality\n\n    /* for each user (EIN), look up the incoming sharing files\n     * stored on a given index.\n     */\n    mapping (uint => mapping(uint => IceGlobal.GlobalRecord)) public shares;\n    mapping (uint => mapping(uint => IceSort.SortOrder)) public shareOrder; // Store round robin order of sharing\n    mapping (uint => uint) public shareCount; // store the maximum shared items count reached to provide looping functionality\n\n    /* for each user (EIN), look up the incoming sharing files\n     * stored on a given index.\n     */\n    mapping (uint => mapping(uint => IceGlobal.GlobalRecord)) public stampings;\n    mapping (uint => mapping(uint => IceSort.SortOrder)) public stampingOrder; // Store round robin order of stamping\n    mapping (uint => uint) public stampingCount; // store the maximum file index reached to provide looping functionality\n\n    /* for each user (EIN), look up the incoming sharing files\n     * stored on a given index.\n     */\n    mapping (uint => mapping(uint => IceGlobal.GlobalRecord)) public stampingsRequest;\n    mapping (uint => mapping(uint => IceSort.SortOrder)) public stampingsRequestOrder; // Store round robin order of stamping requests\n    mapping (uint => uint) public stampingsRequestCount; // store the maximum file index reached to provide looping functionality\n\n    /* for each user (EIN), have a whitelist and blacklist\n     * association which can handle certain functions automatically.\n     */\n    mapping (uint => mapping(uint => bool)) public whitelist;\n    mapping (uint => mapping(uint => bool)) public blacklist;\n\n    /* for referencing SnowFlake for Identity Registry (ERC-1484).\n     */\n    SnowflakeInterface public snowflake;\n    IdentityRegistryInterface public identityRegistry;\n\n    /* ***************\n    * DEFINE EVENTS\n    *************** */\n    // When Item is hidden \n    event ItemHidden(uint EIN, uint fileIndex, bool status);\n    \n    // When Item is Shared\n    event ItemShareChange(uint EIN, uint fileIndex);\n    \n    // When File is created\n    event FileCreated(uint EIN, uint fileIndex, string fileName);\n\n    // When File is renamed\n    event FileRenamed(uint EIN, uint fileIndex, string fileName);\n\n    // When File is moved\n    event FileMoved(uint EIN, uint fileIndex, uint groupIndex, uint groupFileIndex);\n\n    // When File is deleted\n    event FileDeleted(uint EIN, uint fileIndex);\n\n    // When Group is created\n    event GroupCreated(uint EIN, uint groupIndex, string groupName);\n\n    // When Group is renamed\n    event GroupRenamed(uint EIN, uint groupIndex, string groupName);\n\n    // When Group Status is changed\n    event GroupDeleted(uint EIN, uint groupIndex, uint groupReplacedIndex);\n\n    // When Transfer is initiated from owner\n    event FileTransferInitiated(uint indexed EIN, uint indexed transfereeEIN, uint indexed fileID);\n\n    // When whitelist is updated\n    event AddedToWhitelist(uint EIN, uint recipientEIN);\n    event RemovedFromWhitelist(uint EIN, uint recipientEIN);\n\n    // When blacklist is updated\n    event AddedToBlacklist(uint EIN, uint recipientEIN);\n    event RemovedFromBlacklist(uint EIN, uint recipientEIN);\n\n    /* ***************\n    * DEFINE CONSTRUCTORS AND RELATED FUNCTIONS\n    *************** */\n    // CONSTRUCTOR / FUNCTIONS\n    address snowflakeAddress = 0xB0D5a36733886a4c5597849a05B315626aF5222E;//0xC155f98Fa02AeED743a2658a4B076701376a27ee; //0xcF1877AC788a303cAcbbfE21b4E8AD08139f54FA; // For local use\n    //address snowflakeAddress = 0xB0D5a36733886a4c5597849a05B315626aF5222E; //0xB0D5a36733886a4c5597849a05B315626aF5222E; // For rinkeby\n    \n    constructor (/*address snowflakeAddress*/) public {\n        snowflake = SnowflakeInterface(snowflakeAddress);\n        identityRegistry = IdentityRegistryInterface(snowflake.identityRegistryAddress());\n    }\n\n    /* ***************\n    * DEFINE CONTRACT FUNCTIONS\n    *************** */\n    // 1. GLOBAL ITEMS FUNCTIONS\n    /**\n     * @dev Function to get global items\n     * @param _index1 is the first index of item\n     * @param _index2 is the second index of item\n     * @return ownerEIN is the EIN of the user who owns the item\n     * itemRecord is the record of that item in relation to the individual user\n     * isFile indicates if the item is file or group\n     * isHidden indicates if the item is hidder or visible\n     * deleted indicates if the item is already deleted from the individual user perspective\n     * sharedToCount is the count of sharing the item has\n     * pendingStampingCount is the count of pending stamping requests\n     */\n    function getGlobalItems(\n        uint _index1, \n        uint _index2\n    )\n    external view\n    returns (\n        uint ownerEIN, \n        uint itemRecord, \n        bool isFile, \n        bool isHidden, \n        bool deleted, \n        uint8 sharedToCount, \n        uint8 pendingStampingCount\n    ) {\n        ownerEIN = globalItems[_index1][_index2].ownerInfo.EIN;\n        itemRecord = globalItems[_index1][_index2].ownerInfo.index;\n\n        isFile = globalItems[_index1][_index2].isFile;\n        isHidden = globalItems[_index1][_index2].isHidden;\n        deleted = globalItems[_index1][_index2].deleted;\n\n        sharedToCount = globalItems[_index1][_index2].sharedToCount;\n        pendingStampingCount = globalItems[_index1][_index2].stampedToCount;\n    }\n    \n    /**\n     * @dev Function to get global items\n     * @param _index1 is the first index of item\n     * @param _index2 is the second index of item\n     * @param _isHidden is the flag to hide that item or not \n     */\n    function hideGlobalItem(\n        uint _index1, \n        uint _index2, \n        bool _isHidden\n    ) \n    external {\n        // Get user EIN\n        uint ein = identityRegistry.getEIN(msg.sender);\n        \n        // Check Restrictions\n        globalItems[_index1][_index2].condItemOwner(ein);\n        \n        // Logic\n        globalItems[_index1][_index2].isHidden = _isHidden;\n        \n        // Trigger Event\n        emit ItemHidden(ein, globalItems[_index1][_index2].ownerInfo.EIN, _isHidden); \n    }\n\n    /**\n     * @dev Function to get info of mapping to user for a specific global item\n     * @param _index1 is the first index of global item\n     * @param _index2 is the second index of global item\n     * @param _ofType indicates the type. 0 - shares, 1 - stampings\n     * @param _mappedIndex is the index\n     * @return mappedToEIN is the user (EIN)\n     * @return atIndex is the specific index in question\n     */\n    function getGlobalItemsMapping(\n        uint _index1, \n        uint _index2, \n        uint8 _ofType, \n        uint8 _mappedIndex\n    )\n    external view\n    returns (\n        uint mappedToEIN, \n        uint atIndex\n    ) {\n        IceGlobal.ItemOwner memory _mappedItem;\n\n        // Allocalte based on type.\n        if (_ofType == uint8(IceGlobal.AsscProp.sharedTo)) {\n            _mappedItem = globalItems[_index1][_index2].sharedTo[_mappedIndex];\n        }\n        else if (_ofType == uint8(IceGlobal.AsscProp.stampedTo)) {\n            _mappedItem = globalItems[_index1][_index2].stampedTo[_mappedIndex];\n        }\n\n        mappedToEIN = _mappedItem.EIN;\n        atIndex = _mappedItem.index;\n    }\n    \n    // 2. FILE FUNCTIONS\n    /**\n     * @dev Function to get the desired amount of files indexes (max 20 at times) of an EIN, the 0 indicates \n     * @param _ein is the EIN of the user\n     * @param _seedPointer is the seed of the order from which it should begin\n     * @param _limit is the limit of file indexes requested\n     * @param _asc is the order by which the files will be presented\n     * @return fileIndexes is the array of file indexes for the specified users\n     */\n    function getFileIndexes(\n        uint _ein, \n        uint _seedPointer,\n        uint16 _limit, \n        bool _asc\n    )\n    external view\n    returns (uint[20] memory fileIndexes) {\n        fileIndexes = fileOrder[_ein].getIndexes(_seedPointer, _limit, _asc);\n    }\n\n    /**\n     * @dev Function to get file info of an EIN\n     * @param _ein is the owner EIN\n     * @param _fileIndex is index of the file\n     * @return protocol is the protocol used for storing that file (for example: 1 is IPFS, etc, etc). Used to fetch file from JS Library\n     * @return protocolMeta contains the additional essential infomation about the protocol if any\n     * @return name is the name of the file along with the extension\n     * @return hash1 is the \n     * \n     */\n    function getFileInfo(\n        uint _ein, \n        uint _fileIndex\n    )\n    external view \n    returns (\n        uint8 protocol, \n        bytes memory protocolMeta, \n        string memory fileName, \n        bytes32 fileHash, \n        bytes22 hashExtraInfo,\n        uint8 hashFunction,\n        uint8 hashSize,\n        bool encryptedStatus\n    ) {\n        // Logic\n        (protocol, protocolMeta, fileName, fileHash, hashExtraInfo, hashFunction, hashSize, encryptedStatus) = files[_ein][_fileIndex].getFileInfo();\n    }\n    \n    /**\n     * @dev Function to get file info of an EIN\n     * @param _ein is the owner EIN\n     * @param _fileIndex is index of the file\n     */\n    function getFileOtherInfo(uint _ein, uint _fileIndex)\n    external view\n    returns (uint32 timestamp, uint associatedGroupIndex, uint associatedGroupFileIndex) {\n        // Logic\n        (timestamp, associatedGroupIndex, associatedGroupFileIndex) = files[_ein][_fileIndex].getFileOtherInfo();\n    }\n\n    /**\n     * @dev Function to get file tranfer info of an EIN\n     * @param _ein is the owner EIN\n     * @param _fileIndex is index of the file\n     */\n    function getFileTransferInfo(uint _ein, uint _fileIndex)\n    external view\n    returns (uint transCount, uint transEIN, uint transIndex, bool forTrans) {\n        // Logic\n        (transCount, transEIN, transIndex, forTrans) = files[_ein][_fileIndex].getFileTransferInfo();\n    }\n\n    /**\n     * @dev Function to get file tranfer owner info of an EIN\n     * @param _ein is the owner EIN\n     * @param _fileIndex is index of the file\n     * @param _transferCount is index to poll\n     */\n    function getFileTransferOwners(uint _ein, uint _fileIndex, uint _transferCount)\n    external view\n    returns (uint recipientEIN) {\n        recipientEIN = files[_ein][_fileIndex].getFileTransferOwners(_transferCount);\n    }\n\n    // /**\n    //  * @dev Function to add File\n    //  * @param _protocol is the protocol used\n    //  * @param _protocolMeta is the metadata used by the protocol if any\n    //  * @param _name is the name of the file\n    //  * @param _hash1 is the first split hash of the stored file\n    //  * @param _hash2 is the second split hash of the stored file\n    //  * @param _encrypted defines if the file is encrypted or not\n    //  * @param _encryptedHash defines the encrypted public key password for the sender address\n    //  * @param _groupIndex defines the index of the group of file\n    //  */\n    function addFile(\n        uint8 _op, \n        uint8 _protocol, \n        bytes memory _protocolMeta, \n        bytes32 _name, \n        bytes32 _hash,\n        bytes22 _hashExtraInfo,\n        uint8 _hashFunction,\n        uint8 _hashSize,\n        bool _encrypted, \n        bytes32 _encryptedHash, \n        uint _groupIndex\n    )\n    public {\n        // Get user EIN\n        uint ein = identityRegistry.getEIN(msg.sender);\n        \n        // Check constraints\n        _groupIndex.condValidItem(groupCount[ein]);\n        usermeta[ein].condFilesOpFree();\n        usermeta[ein].condGroupsOpFree();\n        \n        // Set File & Group Atomicity\n        usermeta[ein].lockFiles = true;\n        usermeta[ein].lockGroups = true;\n\n        // To fill with global index if need be\n        IceGlobal.GlobalRecord memory rec;\n        \n        // Create File\n        uint nextIndex;\n            \n        // OP 0 - Normal | 1 - Avatar\n        if (_op == 0) {\n            // Reserve Global Index\n            (globalIndex1, globalIndex2) = IceGlobal.reserveGlobalItemSlot(globalIndex1, globalIndex2);\n        \n            // Create the record\n            rec = IceGlobal.GlobalRecord(globalIndex1, globalIndex2);\n        \n            // Create File Next Index\n            nextIndex = fileCount[ein] + 1;\n            \n            // Add to globalItems\n            globalItems.addItemToGlobalItems(rec.i1, rec.i2, ein, nextIndex, true, false, false);\n        }\n        \n        // Finally create the file object (EIN)\n        files[ein][nextIndex].createFileObject(\n            _protocolMeta,\n            \n            _groupIndex, \n            groups[ein][_groupIndex].groupFilesCount\n        );\n        \n        // Assign global item record \n        files[ein][nextIndex].rec = rec;\n        \n        // Also create meta object\n        files[ein][nextIndex].createFileMetaObject(\n            _protocol,\n            _name,\n            _hash,\n            _hashExtraInfo,\n            _hashFunction,\n            _hashSize,\n            _encrypted\n        );\n        \n        // OP 0 - Normal | 1 - Avatar\n        if (_op == 0) {\n            fileCount[ein] = files[ein][nextIndex].writeFile(\n                groups[ein][_groupIndex], \n                _groupIndex, \n                fileOrder[ein], \n                fileCount[ein], \n                nextIndex, \n                ein, \n                _encryptedHash\n            );\n        }\n        else if (_op == 1) {\n            usermeta[ein].hasAvatar = true;\n        }\n        \n        // Trigger Event\n        emit FileCreated(ein, nextIndex, IceFMS.bytes32ToString(_name));\n\n        // Reset Files & Group Atomicity\n        usermeta[ein].lockFiles = false;\n        usermeta[ein].lockGroups = false;\n    }\n\n    // /**\n    //  * @dev Function to change File Name\n    //  * @param _fileIndex is the index where file is stored\n    //  * @param _name is the name of stored file\n    //  */\n    function changeFileName(\n        uint _fileIndex, \n        bytes32 _name\n    )\n    external {\n        // Get user EIN\n        uint ein = identityRegistry.getEIN(msg.sender);\n\n        // Logic\n        files[ein][_fileIndex].fileMeta.name = _name;\n\n        // Trigger Event\n        emit FileRenamed(ein, _fileIndex, IceFMS.bytes32ToString(_name));\n    }\n\n    // /**\n    //  * @dev Function to move file to another group\n    //  * @param _fileIndex is the index where file is stored\n    //  * @param _newGroupIndex is the index of the new group where file has to be moved\n    //  */\n    function moveFileToGroup(\n        uint _fileIndex, \n        uint _newGroupIndex\n    )\n    external {\n        // Get user EIN\n        uint ein = identityRegistry.getEIN(msg.sender);\n\n        // Logic\n        uint groupFileIndex = files[ein][_fileIndex].moveFileToGroup(_fileIndex, groups[ein], groupOrder[ein], _newGroupIndex, globalItems, usermeta[ein]);\n\n        // Trigger Event\n        emit FileMoved(ein, _fileIndex, _newGroupIndex, groupFileIndex);\n    }\n\n    // /**\n    //  * @dev Function to delete file of the owner\n    //  * @param _fileIndex is the index where file is stored\n    //  */\n    function deleteFile(uint _fileIndex)\n    external {\n        // Get user EIN\n        uint ein = identityRegistry.getEIN(msg.sender);\n\n        // Delegate the call\n        _deleteFileAnyOwner(ein, _fileIndex);\n        \n        // Trigger Event\n        emit FileDeleted(ein, _fileIndex);\n    }\n\n    // /**\n    //  * @dev Function to delete file of any EIN\n    //  * @param _ein is the owner EIN\n    //  * @param _fileIndex is the index where file is stored\n    //  */\n    function _deleteFileAnyOwner(\n        uint _ein, \n        uint _fileIndex\n    )\n    internal {\n        // Logic\n        files[_ein].deleteFile(\n            _ein,\n            _fileIndex,\n            files[_ein][_fileIndex].rec.getGlobalItemViaRecord(globalItems),\n            \n            fileOrder[_ein],\n            fileCount,\n            groups[_ein][files[_ein][_fileIndex].associatedGroupIndex],\n            groupOrder[_ein][files[_ein][_fileIndex].associatedGroupIndex],\n            \n            shares,\n            shareOrder,\n            shareCount,\n            \n            usermeta\n        );\n    }\n\n    // 3. GROUP FILES FUNCTIONS\n    /**\n     * @dev Function to get all the files of an EIN associated with a group\n     * @param _ein is the owner EIN\n     * @param _groupIndex is the index where group is stored\n     * @param _seedPointer is the seed of the order from which it should begin\n     * @param _limit is the limit of file indexes requested\n     * @param _asc is the order by which the files will be presented\n     */\n    function getGroupFileIndexes(\n        uint _ein, \n        uint _groupIndex, \n        uint _seedPointer, \n        uint16 _limit, \n        bool _asc\n    )\n    external view\n    returns (uint[20] memory groupFileIndexes) {\n        return groups[_ein][_groupIndex].groupFilesOrder.getIndexes(_seedPointer, _limit, _asc);\n    }\n\n    // 4. GROUP FUNCTIONS\n    /**\n     * @dev Function to return group info for an EIN\n     * @param _ein the EIN of the user\n     * @param _groupIndex the index of the group\n     * @return index is the index of the group\n     * @return name is the name associated with the group\n     */\n    function getGroup(\n        uint _ein, \n        uint _groupIndex\n    )\n    external view\n    returns (\n        uint index, \n        string memory name\n    ) {\n        // Logic\n        (index, name) = groups[_ein][_groupIndex].getGroup(_groupIndex, groupCount[_ein]);\n    }\n\n    /**\n     * @dev Function to return group indexes used to retrieve info about group\n     * @param _ein the EIN of the user\n     * @param _seedPointer is the pointer (index) of the order mapping\n     * @param _limit is the number of indexes to return, capped at 20\n     * @param _asc is the order of group indexes in Ascending or Descending order\n     * @return groupIndexes the indexes of the groups associated with the ein in the preferred order\n     */\n    function getGroupIndexes(uint _ein, uint _seedPointer, uint16 _limit, bool _asc)\n    external view\n    returns (uint[20] memory groupIndexes) {\n        groupIndexes = groupOrder[_ein].getIndexes(_seedPointer, _limit, _asc);\n    }\n\n    /**\n     * @dev Function to create a new Group for the user\n     * @param _groupName describes the name of the group\n     */\n    function createGroup(string memory _groupName)\n    public {\n        // Get user EIN\n        uint ein = identityRegistry.getEIN(msg.sender);\n        \n        // Logic\n        uint nextGroupIndex;\n        (globalIndex1, globalIndex2, nextGroupIndex) = groups[ein].createGroup(\n            ein, \n            _groupName, \n            groupOrder[ein], \n            groupCount, \n            globalItems,\n            globalIndex1,\n            globalIndex2,\n            usermeta[ein]\n        );\n        \n        // Trigger Event\n        emit GroupCreated(ein, nextGroupIndex, _groupName);\n    }\n\n    /**\n     * @dev Function to rename an existing Group for the user / ein\n     * @param _groupIndex describes the associated index of the group for the user / ein\n     * @param _groupName describes the new name of the group\n     */\n    function renameGroup(\n        uint _groupIndex, \n        string calldata _groupName\n    )\n    external  {\n        // Get user EIN\n        uint ein = identityRegistry.getEIN(msg.sender);\n\n        // Logic\n        groups[ein][_groupIndex].renameGroup(_groupIndex, groupCount[ein], _groupName);\n        \n        // Trigger Event\n        emit GroupRenamed(ein, _groupIndex, _groupName);\n    }\n\n    /**\n     * @dev Function to delete an existing group for the user / ein\n     * @param _groupIndex describes the associated index of the group for the user / ein\n     */\n    function deleteGroup(uint _groupIndex)\n    external {\n        // Get user EIN\n        uint ein = identityRegistry.getEIN(msg.sender);\n\n        // Logic\n        uint currentGroupIndex = groups[ein].deleteGroup(\n            ein,\n            \n            _groupIndex,\n            groupOrder[ein], \n            groupCount, \n            \n            shares,\n            shareOrder,\n            shareCount,\n            \n            globalItems,\n            usermeta\n        );\n        \n        // Trigger Event\n        emit GroupDeleted(ein, _groupIndex, currentGroupIndex);\n    }\n\n    // 4. SHARING FUNCTIONS\n    /**\n     * @dev Function to share an item to other users, always called by owner of the Item\n     * @param _toEINs are the array of EINs which the item should be shared to\n     * @param _itemIndex is the index of the item to be shared to\n     * @param _isFile indicates if the item is file or group\n     */\n    function shareItemToEINs(uint[] calldata _toEINs, uint _itemIndex, bool _isFile)\n    external {\n        // Get user EIN\n        uint ein = identityRegistry.getEIN(msg.sender);\n        \n        // Check if item is file or group and accordingly check if Item is valid & Logic\n        if (_isFile == true) { \n            _itemIndex.condValidItem(fileCount[ein]);\n            shares.shareItemToEINs(globalItems, shareOrder, shareCount, usermeta, blacklist, files[ein][_itemIndex].rec, ein, _toEINs);\n        }\n        else {\n            _itemIndex.condValidItem(groupCount[ein]);\n            shares.shareItemToEINs(globalItems, shareOrder, shareCount, usermeta, blacklist, groups[ein][_itemIndex].rec, ein, _toEINs);\n        }\n    }\n\n    /**\n     * @dev Function to remove a shared item from the multiple user's mapping, always called by owner of the Item\n     * @param _fromEINs are the EINs to which the item should be removed from sharing\n     * @param _itemIndex is the index of the item on the owner's mapping\n     * @param _isFile indicates if the item is file or group \n     */\n    function removeShareFromEINs(\n        uint[] memory _fromEINs, \n        uint _itemIndex, \n        bool _isFile\n    )\n    public {\n        // Get user EIN\n        uint ein = identityRegistry.getEIN(msg.sender);\n\n        // Check if item is file or group and accordingly check if Item is valid & Logic\n        IceGlobal.GlobalRecord memory rec;\n        if (_isFile == true) { \n            _itemIndex.condValidItem(fileCount[ein]);\n            rec = files[ein][_itemIndex].rec;\n        }\n        else {\n            _itemIndex.condValidItem(groupCount[ein]);\n            rec = groups[ein][_itemIndex].rec;\n        }\n        \n        shares.removeShareFromEINs(\n            ein, \n            _fromEINs,\n            globalItems[rec.i1][rec.i2], \n            shareOrder, \n            shareCount, \n            usermeta\n        );\n    }\n    \n    \n    /**\n     * @dev Function to remove shared item by the user to whom the item is shared\n     * @param _itemIndex is the index of the item in shares\n     */\n    function removeSharingItemBySharee(uint _itemIndex) \n    external {\n        // Logic\n        uint shareeEIN = identityRegistry.getEIN(msg.sender);\n        IceGlobal.Association storage globalItem = shares[shareeEIN][_itemIndex].getGlobalItemViaRecord(globalItems);\n        \n        shares[shareeEIN].removeSharingItemBySharee( \n            shareeEIN,\n            globalItem, \n            shareOrder[shareeEIN], \n            shareCount, \n            usermeta[shareeEIN]\n        );\n    }\n    \n    // 5. STAMPING FUNCTIONS\n    \n    // 6. TRANSFER FILE FUNCTIONS\n    /**\n     * @dev Function to intiate file transfer to another EIN(user)\n     * @param _fileIndex is the index of file for the original user's EIN\n     * @param _transfereeEIN is the recipient user's EIN\n     */\n    function initiateFileTransfer(\n        uint _fileIndex, \n        uint _transfereeEIN\n    )\n    external {\n        // Get user EIN\n        uint transfererEIN = identityRegistry.getEIN(msg.sender);\n        \n        // Check Restrictions\n        IceFMS.doInitiateFileTransferChecks(\n            files,\n            \n            transfererEIN,\n            _transfereeEIN,\n            _fileIndex,\n            \n            fileCount,\n            groups,\n            blacklist,\n            \n            globalItems,\n            usermeta,\n            \n            identityRegistry\n        );\n        \n        // Set Transfers Atomiticy\n        usermeta[transfererEIN].lockTransfers = true;\n        usermeta[_transfereeEIN].lockTransfers = true;\n\n        // Check and change flow if white listed\n        if (whitelist[_transfereeEIN][transfererEIN] == true) {\n            // Directly transfer file, 0 is always root group\n            _doDirectFileTransfer(transfererEIN, _transfereeEIN, _fileIndex, 0);\n        }\n        else {\n            // Request based file Transfers\n            files[transfererEIN][_fileIndex].doPermissionedFileTransfer(\n                _transfereeEIN,\n                \n                transfers[_transfereeEIN],\n                transferOrder[_transfereeEIN],\n                transferCount,\n                \n                globalItems\n            );\n            \n            // Trigger Event\n            emit FileTransferInitiated(transfererEIN, _transfereeEIN, _fileIndex);\n        }\n\n        // Reset Transfers Atomiticy\n        usermeta[transfererEIN].lockTransfers = false;\n        usermeta[_transfereeEIN].lockTransfers = false;\n    }\n    \n    /**\n     * @dev Private Function to do file transfer from previous (current) owner to new owner\n     * @param _transfererEIN is the previous(current) owner EIN\n     * @param _transfereeEIN is the EIN of the user to whom the file needs to be transferred\n     * @param _fileIndex is the index where file is stored in the owner\n     * @param _toRecipientGroup is the index of the group where the file is suppose to be for the recipient\n     */\n    function _doDirectFileTransfer(\n        uint _transfererEIN, \n        uint _transfereeEIN, \n        uint _fileIndex, \n        uint _toRecipientGroup\n    )\n    internal {\n         // Set Transfers Atomiticy\n        usermeta[_transfererEIN].lockTransfers = true;\n        usermeta[_transfereeEIN].lockTransfers = true;\n\n        // Logic\n        uint nextTransfereeIndex = files.doFileTransferPart1 (\n            _transfererEIN,\n            _transfereeEIN,\n            _fileIndex,\n            \n            fileOrder,\n            fileCount\n        );\n        \n        files.doFileTransferPart2 (\n            _transfereeEIN, \n            _fileIndex, \n            _toRecipientGroup,\n            groupCount[_transfereeEIN],\n            nextTransfereeIndex,\n            \n            groups,\n            globalItems\n        );\n\n        // Delete File\n        _deleteFileAnyOwner(_transfererEIN, _fileIndex);\n\n        // Reset Transfers Atomiticy\n        usermeta[_transfererEIN].lockTransfers = false;\n        usermeta[_transfereeEIN].lockTransfers = false;\n    }\n    \n    /**\n     * @dev Function to accept file transfer from a user\n     * @param _atRecipientTransferIndex is the file mapping stored no the recipient transfers mapping\n     * @param _toRecipientGroup is the index of the group where the file is suppose to be for the recipient\n     */\n    function acceptFileTransfer(\n        uint _atRecipientTransferIndex,\n        uint _toRecipientGroup\n    )\n    external {\n        // Get user EIN | Transferee initiates this\n        uint transfereeEIN = identityRegistry.getEIN(msg.sender);\n        \n        // Get owner info\n        IceGlobal.ItemOwner memory ownerInfo = transfers[transfereeEIN][_atRecipientTransferIndex].getGlobalItemViaRecord(globalItems).ownerInfo;\n        \n        uint transfererEIN = ownerInfo.EIN;\n        uint fileIndex = ownerInfo.index;\n        \n        // Accept File Transfer Part 1\n        files.acceptFileTransferPart1(\n            transfererEIN, \n            transfereeEIN,\n            fileIndex,\n            \n            usermeta\n        );\n        \n        // Do file transfer\n        _doDirectFileTransfer(transfererEIN, transfereeEIN, fileIndex, _toRecipientGroup);\n        \n        // Accept File Transfer Part 2\n        files.acceptFileTransferPart2(\n            transfererEIN, \n            transfereeEIN,\n            \n            _atRecipientTransferIndex,\n        \n            transfers[transfereeEIN],\n            transferOrder[transfereeEIN],\n            transferCount,\n            \n            globalItems,\n            usermeta\n        );\n    }\n\n    /**\n     * @dev Function to revoke file transfer inititated by the current owner of that file\n     * @param _transfereeEIN is the EIN of the user to whom the file needs to be transferred\n     * @param _fileIndex is the index where file is stored\n     */\n    function revokeFileTransfer(\n        uint _transfereeEIN,\n        uint _fileIndex\n    )\n    external {\n        // Get user EIN | Transferer initiates this\n        uint transfererEIN = identityRegistry.getEIN(msg.sender);\n\n        // Logic\n        files.cancelFileTransfer(\n            transfererEIN,\n            _transfereeEIN,\n            _fileIndex,\n            \n            transfers[_transfereeEIN],\n            transferOrder[_transfereeEIN],\n            transferCount,\n            \n            globalItems,\n            \n            usermeta[transfererEIN],\n            usermeta[transfererEIN]\n        );\n    }\n    \n    /**\n     * @dev Function to revoke file transfer inititated by the current owner of that file\n     * @param _atRecipientTransferIndex is the file mapping stored no the recipient transfers mapping\n     */\n    function rejectFileTransfer(\n        uint _atRecipientTransferIndex\n    )\n    external \n    returns (\n        uint, uint\n    ){\n        // Get user EIN | Transferee initiates this\n        uint transfereeEIN = identityRegistry.getEIN(msg.sender);\n        \n        // Get owner info\n        IceGlobal.ItemOwner memory ownerInfo = transfers[transfereeEIN][_atRecipientTransferIndex].getGlobalItemViaRecord(globalItems).ownerInfo;\n        \n        uint transfererEIN = ownerInfo.EIN;\n        uint fileIndex = ownerInfo.index;\n        \n        // Logic\n        files.cancelFileTransfer(\n            transfererEIN,\n            transfereeEIN,\n            fileIndex,\n            \n            transfers[transfereeEIN],\n            transferOrder[transfereeEIN],\n            transferCount,\n            \n            globalItems,\n            \n            usermeta[transfererEIN],\n            usermeta[transfererEIN]\n        );\n    }\n    \n    // 7. WHITELIST / BLACKLIST FUNCTIONS\n    /**\n     * @dev Add a non-owner user to whitelist\n     * @param _nonOwnerEIN is the ein of the recipient\n     */\n    function addToWhitelist(uint _nonOwnerEIN)\n    external {\n        // Logic\n        uint ein = identityRegistry.getEIN(msg.sender);\n        whitelist[ein].addToWhitelist(_nonOwnerEIN, blacklist[ein]);\n\n        // Trigger Event\n        emit AddedToWhitelist(ein, _nonOwnerEIN);\n    }\n\n    /**\n     * @dev Remove a non-owner user from whitelist\n     * @param _nonOwnerEIN is the ein of the recipient\n     */\n    function removeFromWhitelist(uint _nonOwnerEIN)\n    external {\n        // Logic\n        uint ein = identityRegistry.getEIN(msg.sender);\n        whitelist[ein].removeFromWhitelist(_nonOwnerEIN, blacklist[ein]);\n\n        // Trigger Event\n        emit RemovedFromWhitelist(ein, _nonOwnerEIN);\n    }\n\n    /**\n     * @dev Remove a non-owner user to blacklist\n     * @param _nonOwnerEIN is the ein of the recipient\n     */\n    function addToBlacklist(uint _nonOwnerEIN)\n    external {\n        // Logic\n        uint ein = identityRegistry.getEIN(msg.sender);\n        blacklist[ein].addToBlacklist(_nonOwnerEIN, whitelist[ein]);\n\n        // Trigger Event\n        emit AddedToBlacklist(ein, _nonOwnerEIN);\n    }\n\n//     /**\n//      * @dev Remove a non-owner user from blacklist\n//      * @param _nonOwnerEIN is the ein of the recipient\n//      */\n//     function removeFromBlacklist(uint _nonOwnerEIN)\n//     external {\n//         // Logic\n//         uint ein = identityRegistry.getEIN(msg.sender);\n//         blacklist[ein].removeFromBlacklist(_nonOwnerEIN, whitelist[ein]);\n\n//         // Trigger Event\n//         emit RemovedFromBlacklist(ein, _nonOwnerEIN);\n//     }\n\n//     // *. GENERAL CONTRACT HELPERS\n//     /** @dev Private Function to append two strings together\n//      * @param a the first string\n//      * @param b the second string\n//      */\n//     function _append(string memory a, string memory b)\n//     internal pure\n//     returns (string memory) {\n//         return string(abi.encodePacked(a, b));\n//     }\n\n//     // *. FOR DEBUGGING CONTRACT\n//     // To Build Groups & File System for users\n//     function debugBuildFS()\n//     public {\n//         createGroup(\"A.Images\");\n//         createGroup(\"B.Movies\");\n//         createGroup(\"C.Crypto\");\n//         createGroup(\"D.Others\");\n//         createGroup(\"E.AdobeContract\");\n\n//         // Create Files\n//         // addFile(_op, _protocol, _protocolMeta, _name, _hash, _hashExtraInfo, _hashFunction, _hashSize, _encrypted, _encryptedHash, _groupIndex)\n//         addFile(0, 1, bytes(\"0x00\"), IceFMS.stringToBytes32(\"index.jpg\"), IceFMS.stringToBytes32(\"QmTecWfmvvsPdZXuYrLgCTqRj9YgBiAU332s\"), bytes22(\"0x00\"), 2, 3, false, \"\", 0);\n//         addFile(0, 1, bytes(\"0x00\"), IceFMS.stringToBytes32(\"family.pdf\"), IceFMS.stringToBytes32(\"QmTecWfmvvsPdZXuYrLgCTqRj9YgBiAU332sL4ZCr9iwDnp9q7\"), bytes22(\"0x00\"), 2, 3, false, \"\", 0);\n//         addFile(0, 1, bytes(\"0x00\"), IceFMS.stringToBytes32(\"myportrait.jpg\"), IceFMS.stringToBytes32(\"L4ZCr9iwDnp9q7QmTecWfmvvsPdZXuYrLgCTqRj9YgBiAU332s\"), bytes22(\"0x00\"), 2, 3, false, \"\", 0);\n//         addFile(0, 1, bytes(\"0x00\"), IceFMS.stringToBytes32(\"index.html\"), IceFMS.stringToBytes32(\"9iwDnp9q7QmTecWfmvvsPdZXuYrLgCTqRj9YgBiAU332sL4ZCr\"), bytes22(\"0x00\"), 2, 3, false, \"\", 1);\n//         addFile(0, 1, bytes(\"0x00\"), IceFMS.stringToBytes32(\"skills.txt\"), IceFMS.stringToBytes32(\"qRj9YgBiAU332sQmTecWfmvvsPdZXuYrLgCT\"), bytes22(\"0x00\"), 2, 3, false, \"\", 2);\n//   }\n\n//     // Get Indexes with Names for EIN\n//     // _for = 1 is Files, 2 is GroupFiles, 3 is Groups, 4 is shares\n//     function debugIndexesWithNames(uint _ein, uint _groupIndex, uint _seedPointer, uint16 _limit, bool _asc, uint8 _for)\n//     external view\n//     returns (uint[20] memory _indexes, string memory _names) {\n\n//         if (_for == 1) {\n//             _indexes = fileOrder[_ein].getIndexes(_seedPointer, _limit, _asc);\n//         }\n//         else if (_for == 2) {\n//             _indexes = groups[_ein][_groupIndex].groupFilesOrder.getIndexes(_seedPointer, _limit, _asc);\n//         }\n//         else if (_for == 3) {\n//             _indexes = groupOrder[_ein].getIndexes(_seedPointer, _limit, _asc);\n//         }\n//         else if (_for == 4) {\n//             _indexes = shareOrder[_ein].getIndexes(_seedPointer, _limit, _asc);\n//         }\n\n//         uint16 i = 0;\n//         bool completed = false;\n\n//         while (completed == false) {\n//             string memory name;\n\n//             // Get Name\n//             if (_for == 1 || _for == 2) {\n//                 name = IceFMS.bytes32ToString(files[_ein][_indexes[i]].fileMeta.name);\n//             }\n//             else if (_for == 3) {\n//                 name = groups[_ein][_indexes[i]].name;\n//             }\n//             else if (_for == 4) {\n//                 IceGlobal.GlobalRecord memory record = shares[_ein][_indexes[i]];\n//                 IceGlobal.ItemOwner memory owner = globalItems[record.i1][record.i2].ownerInfo;\n                \n//                 if (globalItems[record.i1][record.i2].isFile == true) {\n//                     name = IceFMS.bytes32ToString(files[owner.EIN][owner.index].fileMeta.name);\n//                 } \n//                 else {\n//                     name = groups[owner.EIN][owner.index].name;\n//                 }\n//             }\n\n//             // Add To Return Vars\n//             name = _append(name, \"|\");\n//             _names = _append(_names, name);\n\n//             i++;\n\n//             // check status\n//             if (i == _limit || (_indexes[i-1] == _indexes[i])) {\n//                 completed = true;\n//             }\n//         }\n//     }\n}\n",
  "sourcePath": "/MAMPWeb/HydroIce/HydroIceProtocol/contracts/Ice.sol",
  "compiler": {
    "name": "solc",
    "version": "0.5.1+commit.c8a2cb62.Emscripten.clang"
  },
  "schemaVersion": "3.0.11",
  "updatedAt": "2019-09-20T17:29:33.647Z",
  "devdoc": {
    "author": "Harsh Rajat",
    "details": "This Contract forms File Storage / Stamping / Encryption part of Hydro Protocols",
    "methods": {
      "acceptFileTransfer(uint256,uint256)": {
        "details": "Function to accept file transfer from a user",
        "params": {
          "_atRecipientTransferIndex": "is the file mapping stored no the recipient transfers mapping",
          "_toRecipientGroup": "is the index of the group where the file is suppose to be for the recipient"
        }
      },
      "addToBlacklist(uint256)": {
        "details": "Remove a non-owner user to blacklist",
        "params": {
          "_nonOwnerEIN": "is the ein of the recipient"
        }
      },
      "addToWhitelist(uint256)": {
        "details": "Add a non-owner user to whitelist",
        "params": {
          "_nonOwnerEIN": "is the ein of the recipient"
        }
      },
      "createGroup(string)": {
        "details": "Function to create a new Group for the user",
        "params": {
          "_groupName": "describes the name of the group"
        }
      },
      "deleteGroup(uint256)": {
        "details": "Function to delete an existing group for the user / ein",
        "params": {
          "_groupIndex": "describes the associated index of the group for the user / ein"
        }
      },
      "getFileIndexes(uint256,uint256,uint16,bool)": {
        "details": "Function to get the desired amount of files indexes (max 20 at times) of an EIN, the 0 indicates ",
        "params": {
          "_asc": "is the order by which the files will be presented",
          "_ein": "is the EIN of the user",
          "_limit": "is the limit of file indexes requested",
          "_seedPointer": "is the seed of the order from which it should begin"
        },
        "return": "fileIndexes is the array of file indexes for the specified users"
      },
      "getFileInfo(uint256,uint256)": {
        "details": "Function to get file info of an EIN",
        "params": {
          "_ein": "is the owner EIN",
          "_fileIndex": "is index of the file"
        },
        "return": "protocol is the protocol used for storing that file (for example: 1 is IPFS, etc, etc). Used to fetch file from JS LibraryprotocolMeta contains the additional essential infomation about the protocol if anyname is the name of the file along with the extensionhash1 is the       "
      },
      "getFileOtherInfo(uint256,uint256)": {
        "details": "Function to get file info of an EIN",
        "params": {
          "_ein": "is the owner EIN",
          "_fileIndex": "is index of the file"
        }
      },
      "getFileTransferInfo(uint256,uint256)": {
        "details": "Function to get file tranfer info of an EIN",
        "params": {
          "_ein": "is the owner EIN",
          "_fileIndex": "is index of the file"
        }
      },
      "getFileTransferOwners(uint256,uint256,uint256)": {
        "details": "Function to get file tranfer owner info of an EIN",
        "params": {
          "_ein": "is the owner EIN",
          "_fileIndex": "is index of the file",
          "_transferCount": "is index to poll"
        }
      },
      "getGlobalItems(uint256,uint256)": {
        "details": "Function to get global items",
        "params": {
          "_index1": "is the first index of item",
          "_index2": "is the second index of item"
        },
        "return": "ownerEIN is the EIN of the user who owns the item itemRecord is the record of that item in relation to the individual user isFile indicates if the item is file or group isHidden indicates if the item is hidder or visible deleted indicates if the item is already deleted from the individual user perspective sharedToCount is the count of sharing the item has pendingStampingCount is the count of pending stamping requests"
      },
      "getGlobalItemsMapping(uint256,uint256,uint8,uint8)": {
        "details": "Function to get info of mapping to user for a specific global item",
        "params": {
          "_index1": "is the first index of global item",
          "_index2": "is the second index of global item",
          "_mappedIndex": "is the index",
          "_ofType": "indicates the type. 0 - shares, 1 - stampings"
        },
        "return": "mappedToEIN is the user (EIN)atIndex is the specific index in question"
      },
      "getGroup(uint256,uint256)": {
        "details": "Function to return group info for an EIN",
        "params": {
          "_ein": "the EIN of the user",
          "_groupIndex": "the index of the group"
        },
        "return": "index is the index of the groupname is the name associated with the group"
      },
      "getGroupFileIndexes(uint256,uint256,uint256,uint16,bool)": {
        "details": "Function to get all the files of an EIN associated with a group",
        "params": {
          "_asc": "is the order by which the files will be presented",
          "_ein": "is the owner EIN",
          "_groupIndex": "is the index where group is stored",
          "_limit": "is the limit of file indexes requested",
          "_seedPointer": "is the seed of the order from which it should begin"
        }
      },
      "getGroupIndexes(uint256,uint256,uint16,bool)": {
        "details": "Function to return group indexes used to retrieve info about group",
        "params": {
          "_asc": "is the order of group indexes in Ascending or Descending order",
          "_ein": "the EIN of the user",
          "_limit": "is the number of indexes to return, capped at 20",
          "_seedPointer": "is the pointer (index) of the order mapping"
        },
        "return": "groupIndexes the indexes of the groups associated with the ein in the preferred order"
      },
      "hideGlobalItem(uint256,uint256,bool)": {
        "details": "Function to get global items",
        "params": {
          "_index1": "is the first index of item",
          "_index2": "is the second index of item",
          "_isHidden": "is the flag to hide that item or not "
        }
      },
      "initiateFileTransfer(uint256,uint256)": {
        "details": "Function to intiate file transfer to another EIN(user)",
        "params": {
          "_fileIndex": "is the index of file for the original user's EIN",
          "_transfereeEIN": "is the recipient user's EIN"
        }
      },
      "rejectFileTransfer(uint256)": {
        "details": "Function to revoke file transfer inititated by the current owner of that file",
        "params": {
          "_atRecipientTransferIndex": "is the file mapping stored no the recipient transfers mapping"
        }
      },
      "removeFromWhitelist(uint256)": {
        "details": "Remove a non-owner user from whitelist",
        "params": {
          "_nonOwnerEIN": "is the ein of the recipient"
        }
      },
      "removeShareFromEINs(uint256[],uint256,bool)": {
        "details": "Function to remove a shared item from the multiple user's mapping, always called by owner of the Item",
        "params": {
          "_fromEINs": "are the EINs to which the item should be removed from sharing",
          "_isFile": "indicates if the item is file or group ",
          "_itemIndex": "is the index of the item on the owner's mapping"
        }
      },
      "removeSharingItemBySharee(uint256)": {
        "details": "Function to remove shared item by the user to whom the item is shared",
        "params": {
          "_itemIndex": "is the index of the item in shares"
        }
      },
      "renameGroup(uint256,string)": {
        "details": "Function to rename an existing Group for the user / ein",
        "params": {
          "_groupIndex": "describes the associated index of the group for the user / ein",
          "_groupName": "describes the new name of the group"
        }
      },
      "revokeFileTransfer(uint256,uint256)": {
        "details": "Function to revoke file transfer inititated by the current owner of that file",
        "params": {
          "_fileIndex": "is the index where file is stored",
          "_transfereeEIN": "is the EIN of the user to whom the file needs to be transferred"
        }
      },
      "shareItemToEINs(uint256[],uint256,bool)": {
        "details": "Function to share an item to other users, always called by owner of the Item",
        "params": {
          "_isFile": "indicates if the item is file or group",
          "_itemIndex": "is the index of the item to be shared to",
          "_toEINs": "are the array of EINs which the item should be shared to"
        }
      }
    },
    "title": "Ice Protocol"
  },
  "userdoc": {
    "methods": {},
    "notice": "Create Protocol Less File Storage, Grouping, Hassle free Encryption / Decryption and Stamping using Snowflake"
  }
}