{
  "contractName": "Ice",
  "abi": [
    {
      "constant": true,
      "inputs": [
        {
          "name": "",
          "type": "uint256"
        },
        {
          "name": "",
          "type": "uint256"
        }
      ],
      "name": "shares",
      "outputs": [
        {
          "name": "i1",
          "type": "uint256"
        },
        {
          "name": "i2",
          "type": "uint256"
        }
      ],
      "payable": false,
      "stateMutability": "view",
      "type": "function",
      "signature": "0x01bee1d6"
    },
    {
      "constant": true,
      "inputs": [
        {
          "name": "",
          "type": "uint256"
        }
      ],
      "name": "usermeta",
      "outputs": [
        {
          "name": "lockFiles",
          "type": "bool"
        },
        {
          "name": "lockGroups",
          "type": "bool"
        },
        {
          "name": "lockTransfers",
          "type": "bool"
        },
        {
          "name": "lockSharings",
          "type": "bool"
        },
        {
          "name": "hasAvatar",
          "type": "bool"
        }
      ],
      "payable": false,
      "stateMutability": "view",
      "type": "function",
      "signature": "0x0340cf69"
    },
    {
      "constant": true,
      "inputs": [
        {
          "name": "",
          "type": "uint256"
        },
        {
          "name": "",
          "type": "uint256"
        }
      ],
      "name": "stampingsRequestOrder",
      "outputs": [
        {
          "name": "next",
          "type": "uint256"
        },
        {
          "name": "prev",
          "type": "uint256"
        },
        {
          "name": "pointerID",
          "type": "uint256"
        },
        {
          "name": "active",
          "type": "bool"
        }
      ],
      "payable": false,
      "stateMutability": "view",
      "type": "function",
      "signature": "0x12c8e644"
    },
    {
      "constant": true,
      "inputs": [],
      "name": "identityRegistry",
      "outputs": [
        {
          "name": "",
          "type": "address"
        }
      ],
      "payable": false,
      "stateMutability": "view",
      "type": "function",
      "signature": "0x134e18f4"
    },
    {
      "constant": true,
      "inputs": [
        {
          "name": "",
          "type": "uint256"
        },
        {
          "name": "",
          "type": "uint256"
        }
      ],
      "name": "blacklist",
      "outputs": [
        {
          "name": "",
          "type": "bool"
        }
      ],
      "payable": false,
      "stateMutability": "view",
      "type": "function",
      "signature": "0x2a11103c"
    },
    {
      "constant": true,
      "inputs": [
        {
          "name": "",
          "type": "uint256"
        }
      ],
      "name": "shareCount",
      "outputs": [
        {
          "name": "",
          "type": "uint256"
        }
      ],
      "payable": false,
      "stateMutability": "view",
      "type": "function",
      "signature": "0x30a0b0e4"
    },
    {
      "constant": true,
      "inputs": [
        {
          "name": "",
          "type": "uint256"
        },
        {
          "name": "",
          "type": "uint256"
        }
      ],
      "name": "fileOrder",
      "outputs": [
        {
          "name": "next",
          "type": "uint256"
        },
        {
          "name": "prev",
          "type": "uint256"
        },
        {
          "name": "pointerID",
          "type": "uint256"
        },
        {
          "name": "active",
          "type": "bool"
        }
      ],
      "payable": false,
      "stateMutability": "view",
      "type": "function",
      "signature": "0x33aff05a"
    },
    {
      "constant": true,
      "inputs": [
        {
          "name": "",
          "type": "uint256"
        },
        {
          "name": "",
          "type": "uint256"
        }
      ],
      "name": "whitelist",
      "outputs": [
        {
          "name": "",
          "type": "bool"
        }
      ],
      "payable": false,
      "stateMutability": "view",
      "type": "function",
      "signature": "0x44aac430"
    },
    {
      "constant": true,
      "inputs": [
        {
          "name": "",
          "type": "uint256"
        },
        {
          "name": "",
          "type": "uint256"
        }
      ],
      "name": "stampingsRequest",
      "outputs": [
        {
          "name": "i1",
          "type": "uint256"
        },
        {
          "name": "i2",
          "type": "uint256"
        }
      ],
      "payable": false,
      "stateMutability": "view",
      "type": "function",
      "signature": "0x5056feee"
    },
    {
      "constant": true,
      "inputs": [],
      "name": "globalIndex2",
      "outputs": [
        {
          "name": "",
          "type": "uint256"
        }
      ],
      "payable": false,
      "stateMutability": "view",
      "type": "function",
      "signature": "0x54a8a58a"
    },
    {
      "constant": true,
      "inputs": [
        {
          "name": "",
          "type": "uint256"
        }
      ],
      "name": "stampingsRequestCount",
      "outputs": [
        {
          "name": "",
          "type": "uint256"
        }
      ],
      "payable": false,
      "stateMutability": "view",
      "type": "function",
      "signature": "0x58f2b588"
    },
    {
      "constant": true,
      "inputs": [
        {
          "name": "",
          "type": "uint256"
        },
        {
          "name": "",
          "type": "uint256"
        }
      ],
      "name": "stampings",
      "outputs": [
        {
          "name": "i1",
          "type": "uint256"
        },
        {
          "name": "i2",
          "type": "uint256"
        }
      ],
      "payable": false,
      "stateMutability": "view",
      "type": "function",
      "signature": "0x59ceb668"
    },
    {
      "constant": true,
      "inputs": [
        {
          "name": "",
          "type": "uint256"
        },
        {
          "name": "",
          "type": "uint256"
        }
      ],
      "name": "groupOrder",
      "outputs": [
        {
          "name": "next",
          "type": "uint256"
        },
        {
          "name": "prev",
          "type": "uint256"
        },
        {
          "name": "pointerID",
          "type": "uint256"
        },
        {
          "name": "active",
          "type": "bool"
        }
      ],
      "payable": false,
      "stateMutability": "view",
      "type": "function",
      "signature": "0x737f3a1d"
    },
    {
      "constant": true,
      "inputs": [
        {
          "name": "",
          "type": "uint256"
        }
      ],
      "name": "transferIndex",
      "outputs": [
        {
          "name": "",
          "type": "uint256"
        }
      ],
      "payable": false,
      "stateMutability": "view",
      "type": "function",
      "signature": "0xa21aa458"
    },
    {
      "constant": true,
      "inputs": [],
      "name": "globalIndex1",
      "outputs": [
        {
          "name": "",
          "type": "uint256"
        }
      ],
      "payable": false,
      "stateMutability": "view",
      "type": "function",
      "signature": "0xb3ae44c8"
    },
    {
      "constant": true,
      "inputs": [
        {
          "name": "",
          "type": "uint256"
        }
      ],
      "name": "groupCount",
      "outputs": [
        {
          "name": "",
          "type": "uint256"
        }
      ],
      "payable": false,
      "stateMutability": "view",
      "type": "function",
      "signature": "0xb4e741a2"
    },
    {
      "constant": true,
      "inputs": [
        {
          "name": "",
          "type": "uint256"
        },
        {
          "name": "",
          "type": "uint256"
        }
      ],
      "name": "shareOrder",
      "outputs": [
        {
          "name": "next",
          "type": "uint256"
        },
        {
          "name": "prev",
          "type": "uint256"
        },
        {
          "name": "pointerID",
          "type": "uint256"
        },
        {
          "name": "active",
          "type": "bool"
        }
      ],
      "payable": false,
      "stateMutability": "view",
      "type": "function",
      "signature": "0xb5836377"
    },
    {
      "constant": true,
      "inputs": [
        {
          "name": "",
          "type": "uint256"
        },
        {
          "name": "",
          "type": "uint256"
        }
      ],
      "name": "stampingOrder",
      "outputs": [
        {
          "name": "next",
          "type": "uint256"
        },
        {
          "name": "prev",
          "type": "uint256"
        },
        {
          "name": "pointerID",
          "type": "uint256"
        },
        {
          "name": "active",
          "type": "bool"
        }
      ],
      "payable": false,
      "stateMutability": "view",
      "type": "function",
      "signature": "0xba45ce21"
    },
    {
      "constant": true,
      "inputs": [
        {
          "name": "",
          "type": "uint256"
        }
      ],
      "name": "stampingCount",
      "outputs": [
        {
          "name": "",
          "type": "uint256"
        }
      ],
      "payable": false,
      "stateMutability": "view",
      "type": "function",
      "signature": "0xd62991ce"
    },
    {
      "constant": true,
      "inputs": [
        {
          "name": "",
          "type": "uint256"
        },
        {
          "name": "",
          "type": "uint256"
        }
      ],
      "name": "transferOrder",
      "outputs": [
        {
          "name": "next",
          "type": "uint256"
        },
        {
          "name": "prev",
          "type": "uint256"
        },
        {
          "name": "pointerID",
          "type": "uint256"
        },
        {
          "name": "active",
          "type": "bool"
        }
      ],
      "payable": false,
      "stateMutability": "view",
      "type": "function",
      "signature": "0xde89fabc"
    },
    {
      "constant": true,
      "inputs": [
        {
          "name": "",
          "type": "uint256"
        }
      ],
      "name": "fileCount",
      "outputs": [
        {
          "name": "",
          "type": "uint256"
        }
      ],
      "payable": false,
      "stateMutability": "view",
      "type": "function",
      "signature": "0xf39997d2"
    },
    {
      "constant": true,
      "inputs": [],
      "name": "snowflake",
      "outputs": [
        {
          "name": "",
          "type": "address"
        }
      ],
      "payable": false,
      "stateMutability": "view",
      "type": "function",
      "signature": "0xf836a353"
    },
    {
      "inputs": [],
      "payable": false,
      "stateMutability": "nonpayable",
      "type": "constructor",
      "signature": "constructor"
    },
    {
      "anonymous": false,
      "inputs": [
        {
          "indexed": false,
          "name": "EIN",
          "type": "uint256"
        },
        {
          "indexed": false,
          "name": "fileIndex",
          "type": "uint256"
        },
        {
          "indexed": false,
          "name": "fileName",
          "type": "string"
        }
      ],
      "name": "FileCreated",
      "type": "event",
      "signature": "0x4443292b7c801de1e18bba287635c870a53fe39f205e385ab346e9f2939dffb2"
    },
    {
      "anonymous": false,
      "inputs": [
        {
          "indexed": false,
          "name": "EIN",
          "type": "uint256"
        },
        {
          "indexed": false,
          "name": "fileIndex",
          "type": "uint256"
        },
        {
          "indexed": false,
          "name": "fileName",
          "type": "string"
        }
      ],
      "name": "FileRenamed",
      "type": "event",
      "signature": "0x2294a85d598463b63e064807fad457cab51825642ffcba08aadc87288b6cf0e8"
    },
    {
      "anonymous": false,
      "inputs": [
        {
          "indexed": false,
          "name": "EIN",
          "type": "uint256"
        },
        {
          "indexed": false,
          "name": "fileIndex",
          "type": "uint256"
        },
        {
          "indexed": false,
          "name": "groupIndex",
          "type": "uint256"
        },
        {
          "indexed": false,
          "name": "groupFileIndex",
          "type": "uint256"
        }
      ],
      "name": "FileMoved",
      "type": "event",
      "signature": "0x90066c23e167bba0523fbd672b21f1d81daf9041d56adbd5a79287f2cfd1ec08"
    },
    {
      "anonymous": false,
      "inputs": [
        {
          "indexed": false,
          "name": "EIN",
          "type": "uint256"
        },
        {
          "indexed": false,
          "name": "fileIndex",
          "type": "uint256"
        }
      ],
      "name": "FileDeleted",
      "type": "event",
      "signature": "0xa50edae42406c3acb160bbddf0ca2fc7eb414a065b7738f3ff10d22c6385cafd"
    },
    {
      "anonymous": false,
      "inputs": [
        {
          "indexed": false,
          "name": "EIN",
          "type": "uint256"
        },
        {
          "indexed": false,
          "name": "groupIndex",
          "type": "uint256"
        },
        {
          "indexed": false,
          "name": "groupName",
          "type": "string"
        }
      ],
      "name": "GroupCreated",
      "type": "event",
      "signature": "0xa5edfd2fddc5d31cfe8722fdf90ee7cbc852fb72f5d008e4672cd2d8d365d4cc"
    },
    {
      "anonymous": false,
      "inputs": [
        {
          "indexed": false,
          "name": "EIN",
          "type": "uint256"
        },
        {
          "indexed": false,
          "name": "groupIndex",
          "type": "uint256"
        },
        {
          "indexed": false,
          "name": "groupName",
          "type": "string"
        }
      ],
      "name": "GroupRenamed",
      "type": "event",
      "signature": "0xfb99e9069a7eed8318d56501970264d150dcac4088e37bbf4bff66a71223b74b"
    },
    {
      "anonymous": false,
      "inputs": [
        {
          "indexed": false,
          "name": "EIN",
          "type": "uint256"
        },
        {
          "indexed": false,
          "name": "groupIndex",
          "type": "uint256"
        },
        {
          "indexed": false,
          "name": "groupReplacedIndex",
          "type": "uint256"
        }
      ],
      "name": "GroupDeleted",
      "type": "event",
      "signature": "0xd66ad55acd1951823df5c1b5c065951e2949a7cc40190ec571a2677508e13665"
    },
    {
      "anonymous": false,
      "inputs": [
        {
          "indexed": true,
          "name": "EIN",
          "type": "uint256"
        },
        {
          "indexed": true,
          "name": "transfereeEIN",
          "type": "uint256"
        },
        {
          "indexed": true,
          "name": "fileID",
          "type": "uint256"
        }
      ],
      "name": "FileTransferInitiated",
      "type": "event",
      "signature": "0xbf6895715dbf24953564001b3ff975257cecfae946866daa1a1d345061a21e91"
    },
    {
      "anonymous": false,
      "inputs": [
        {
          "indexed": false,
          "name": "EIN",
          "type": "uint256"
        },
        {
          "indexed": false,
          "name": "recipientEIN",
          "type": "uint256"
        }
      ],
      "name": "AddedToWhitelist",
      "type": "event",
      "signature": "0x96f0ff7350800befa1008d2dd1bc5e8f7a3c5aadc11678d50cd7193154b50ce3"
    },
    {
      "anonymous": false,
      "inputs": [
        {
          "indexed": false,
          "name": "EIN",
          "type": "uint256"
        },
        {
          "indexed": false,
          "name": "recipientEIN",
          "type": "uint256"
        }
      ],
      "name": "RemovedFromWhitelist",
      "type": "event",
      "signature": "0x29f3bb6c612e040fa60e402db6e1cc866432046c42b69343e9a1fe5ec8a11379"
    },
    {
      "anonymous": false,
      "inputs": [
        {
          "indexed": false,
          "name": "EIN",
          "type": "uint256"
        },
        {
          "indexed": false,
          "name": "recipientEIN",
          "type": "uint256"
        }
      ],
      "name": "AddedToBlacklist",
      "type": "event",
      "signature": "0x268aa614041be848a8eec03d06abc714c936e4466e52d79c1b0073d0bd5622fd"
    },
    {
      "anonymous": false,
      "inputs": [
        {
          "indexed": false,
          "name": "EIN",
          "type": "uint256"
        },
        {
          "indexed": false,
          "name": "recipientEIN",
          "type": "uint256"
        }
      ],
      "name": "RemovedFromBlacklist",
      "type": "event",
      "signature": "0x89793498dba1e15098e92cb548b33029672ea462853d1262390204b529d888ef"
    },
    {
      "anonymous": false,
      "inputs": [
        {
          "indexed": true,
          "name": "EIN",
          "type": "uint256"
        },
        {
          "indexed": true,
          "name": "notice",
          "type": "string"
        },
        {
          "indexed": true,
          "name": "statusType",
          "type": "uint256"
        }
      ],
      "name": "Notice",
      "type": "event",
      "signature": "0x4782c490a2c9d0953054b9cd906c9e02148b631a1726ab5366aa49064b73b92c"
    },
    {
      "constant": true,
      "inputs": [
        {
          "name": "_index1",
          "type": "uint256"
        },
        {
          "name": "_index2",
          "type": "uint256"
        }
      ],
      "name": "getGlobalItems",
      "outputs": [
        {
          "name": "ownerEIN",
          "type": "uint256"
        },
        {
          "name": "itemRecord",
          "type": "uint256"
        },
        {
          "name": "isFile",
          "type": "bool"
        },
        {
          "name": "isHidden",
          "type": "bool"
        },
        {
          "name": "deleted",
          "type": "bool"
        },
        {
          "name": "sharedToCount",
          "type": "uint256"
        },
        {
          "name": "stampingReqsCount",
          "type": "uint256"
        }
      ],
      "payable": false,
      "stateMutability": "view",
      "type": "function",
      "signature": "0xc2cfaaf5"
    },
    {
      "constant": false,
      "inputs": [
        {
          "name": "_index1",
          "type": "uint256"
        },
        {
          "name": "_index2",
          "type": "uint256"
        },
        {
          "name": "_isHidden",
          "type": "bool"
        }
      ],
      "name": "hideGlobalItem",
      "outputs": [],
      "payable": false,
      "stateMutability": "nonpayable",
      "type": "function",
      "signature": "0xfb7ff874"
    },
    {
      "constant": true,
      "inputs": [
        {
          "name": "_index1",
          "type": "uint256"
        },
        {
          "name": "_index2",
          "type": "uint256"
        },
        {
          "name": "_ofType",
          "type": "uint8"
        },
        {
          "name": "_mappedIndex",
          "type": "uint8"
        }
      ],
      "name": "getGlobalItemsMapping",
      "outputs": [
        {
          "name": "mappedToEIN",
          "type": "uint256"
        },
        {
          "name": "atIndex",
          "type": "uint256"
        }
      ],
      "payable": false,
      "stateMutability": "view",
      "type": "function",
      "signature": "0x4e5b9f04"
    },
    {
      "constant": true,
      "inputs": [
        {
          "name": "_ein",
          "type": "uint256"
        },
        {
          "name": "_seedPointer",
          "type": "uint256"
        },
        {
          "name": "_limit",
          "type": "uint16"
        },
        {
          "name": "_asc",
          "type": "bool"
        }
      ],
      "name": "getFileIndexes",
      "outputs": [
        {
          "name": "fileIndexes",
          "type": "uint256[20]"
        }
      ],
      "payable": false,
      "stateMutability": "view",
      "type": "function",
      "signature": "0x164570f5"
    },
    {
      "constant": true,
      "inputs": [
        {
          "name": "_ein",
          "type": "uint256"
        },
        {
          "name": "_fileIndex",
          "type": "uint256"
        }
      ],
      "name": "getFileInfo",
      "outputs": [
        {
          "name": "protocol",
          "type": "uint8"
        },
        {
          "name": "protocolMeta",
          "type": "bytes"
        },
        {
          "name": "name",
          "type": "string"
        },
        {
          "name": "hash1",
          "type": "string"
        },
        {
          "name": "hash2",
          "type": "string"
        },
        {
          "name": "encrypted",
          "type": "bool"
        }
      ],
      "payable": false,
      "stateMutability": "view",
      "type": "function",
      "signature": "0x8216526c"
    },
    {
      "constant": true,
      "inputs": [
        {
          "name": "_ein",
          "type": "uint256"
        },
        {
          "name": "_fileIndex",
          "type": "uint256"
        }
      ],
      "name": "getFileOtherInfo",
      "outputs": [
        {
          "name": "timestamp",
          "type": "uint32"
        },
        {
          "name": "associatedGroupIndex",
          "type": "uint256"
        },
        {
          "name": "associatedGroupFileIndex",
          "type": "uint256"
        }
      ],
      "payable": false,
      "stateMutability": "view",
      "type": "function",
      "signature": "0x63804c20"
    },
    {
      "constant": true,
      "inputs": [
        {
          "name": "_ein",
          "type": "uint256"
        },
        {
          "name": "_fileIndex",
          "type": "uint256"
        }
      ],
      "name": "getFileTransferInfo",
      "outputs": [
        {
          "name": "transCount",
          "type": "uint256"
        },
        {
          "name": "transEIN",
          "type": "uint256"
        },
        {
          "name": "transIndex",
          "type": "uint256"
        },
        {
          "name": "forTrans",
          "type": "bool"
        }
      ],
      "payable": false,
      "stateMutability": "view",
      "type": "function",
      "signature": "0x368aaf79"
    },
    {
      "constant": true,
      "inputs": [
        {
          "name": "_ein",
          "type": "uint256"
        },
        {
          "name": "_fileIndex",
          "type": "uint256"
        },
        {
          "name": "_transferIndex",
          "type": "uint256"
        }
      ],
      "name": "getFileTransferOwners",
      "outputs": [
        {
          "name": "recipientEIN",
          "type": "uint256"
        }
      ],
      "payable": false,
      "stateMutability": "view",
      "type": "function",
      "signature": "0x6e8e0b23"
    },
    {
      "constant": false,
      "inputs": [
        {
          "name": "_op",
          "type": "uint8"
        },
        {
          "name": "_protocol",
          "type": "uint8"
        },
        {
          "name": "_protocolMeta",
          "type": "bytes"
        },
        {
          "name": "_name",
          "type": "bytes32"
        },
        {
          "name": "_hash1",
          "type": "bytes32"
        },
        {
          "name": "_hash2",
          "type": "bytes32"
        },
        {
          "name": "_encrypted",
          "type": "bool"
        },
        {
          "name": "_encryptedHash",
          "type": "string"
        },
        {
          "name": "_groupIndex",
          "type": "uint256"
        }
      ],
      "name": "addFile",
      "outputs": [],
      "payable": false,
      "stateMutability": "nonpayable",
      "type": "function",
      "signature": "0x6f96a160"
    },
    {
      "constant": false,
      "inputs": [
        {
          "name": "_fileIndex",
          "type": "uint256"
        },
        {
          "name": "_name",
          "type": "bytes32"
        }
      ],
      "name": "changeFileName",
      "outputs": [],
      "payable": false,
      "stateMutability": "nonpayable",
      "type": "function",
      "signature": "0x51d3b554"
    },
    {
      "constant": false,
      "inputs": [
        {
          "name": "_fileIndex",
          "type": "uint256"
        },
        {
          "name": "_newGroupIndex",
          "type": "uint256"
        }
      ],
      "name": "moveFileToGroup",
      "outputs": [],
      "payable": false,
      "stateMutability": "nonpayable",
      "type": "function",
      "signature": "0x8974a425"
    },
    {
      "constant": false,
      "inputs": [
        {
          "name": "_fileIndex",
          "type": "uint256"
        }
      ],
      "name": "deleteFile",
      "outputs": [],
      "payable": false,
      "stateMutability": "nonpayable",
      "type": "function",
      "signature": "0xc5b42006"
    },
    {
      "constant": true,
      "inputs": [
        {
          "name": "_ein",
          "type": "uint256"
        },
        {
          "name": "_groupIndex",
          "type": "uint256"
        },
        {
          "name": "_seedPointer",
          "type": "uint256"
        },
        {
          "name": "_limit",
          "type": "uint16"
        },
        {
          "name": "_asc",
          "type": "bool"
        }
      ],
      "name": "getGroupFileIndexes",
      "outputs": [
        {
          "name": "groupFileIndexes",
          "type": "uint256[20]"
        }
      ],
      "payable": false,
      "stateMutability": "view",
      "type": "function",
      "signature": "0xbe7047a5"
    },
    {
      "constant": true,
      "inputs": [
        {
          "name": "_ein",
          "type": "uint256"
        },
        {
          "name": "_groupIndex",
          "type": "uint256"
        }
      ],
      "name": "getGroup",
      "outputs": [
        {
          "name": "index",
          "type": "uint256"
        },
        {
          "name": "name",
          "type": "string"
        }
      ],
      "payable": false,
      "stateMutability": "view",
      "type": "function",
      "signature": "0x426dd27c"
    },
    {
      "constant": true,
      "inputs": [
        {
          "name": "_ein",
          "type": "uint256"
        },
        {
          "name": "_seedPointer",
          "type": "uint256"
        },
        {
          "name": "_limit",
          "type": "uint16"
        },
        {
          "name": "_asc",
          "type": "bool"
        }
      ],
      "name": "getGroupIndexes",
      "outputs": [
        {
          "name": "groupIndexes",
          "type": "uint256[20]"
        }
      ],
      "payable": false,
      "stateMutability": "view",
      "type": "function",
      "signature": "0xfb9efad1"
    },
    {
      "constant": false,
      "inputs": [
        {
          "name": "_groupName",
          "type": "string"
        }
      ],
      "name": "createGroup",
      "outputs": [],
      "payable": false,
      "stateMutability": "nonpayable",
      "type": "function",
      "signature": "0xdc2ddcae"
    },
    {
      "constant": false,
      "inputs": [
        {
          "name": "_groupIndex",
          "type": "uint256"
        },
        {
          "name": "_groupName",
          "type": "string"
        }
      ],
      "name": "renameGroup",
      "outputs": [],
      "payable": false,
      "stateMutability": "nonpayable",
      "type": "function",
      "signature": "0x59a8e8b8"
    },
    {
      "constant": false,
      "inputs": [
        {
          "name": "_groupIndex",
          "type": "uint256"
        }
      ],
      "name": "deleteGroup",
      "outputs": [],
      "payable": false,
      "stateMutability": "nonpayable",
      "type": "function",
      "signature": "0x45d88d2d"
    },
    {
      "constant": false,
      "inputs": [
        {
          "name": "_toEINs",
          "type": "uint256[]"
        },
        {
          "name": "_itemIndex",
          "type": "uint256"
        },
        {
          "name": "_isFile",
          "type": "bool"
        }
      ],
      "name": "shareItemToEINs",
      "outputs": [],
      "payable": false,
      "stateMutability": "nonpayable",
      "type": "function",
      "signature": "0x973670d6"
    },
    {
      "constant": false,
      "inputs": [
        {
          "name": "_fromEINs",
          "type": "uint256[32]"
        },
        {
          "name": "_itemIndex",
          "type": "uint256"
        },
        {
          "name": "_isFile",
          "type": "bool"
        }
      ],
      "name": "removeShareFromEINs",
      "outputs": [],
      "payable": false,
      "stateMutability": "nonpayable",
      "type": "function",
      "signature": "0x7e79b842"
    },
    {
      "constant": false,
      "inputs": [
        {
          "name": "_itemIndex",
          "type": "uint256"
        }
      ],
      "name": "removeSharingItemBySharee",
      "outputs": [],
      "payable": false,
      "stateMutability": "nonpayable",
      "type": "function",
      "signature": "0xb02959af"
    },
    {
      "constant": false,
      "inputs": [],
      "name": "debugBuildFS",
      "outputs": [],
      "payable": false,
      "stateMutability": "nonpayable",
      "type": "function",
      "signature": "0xef4f8f4b"
    },
    {
      "constant": true,
      "inputs": [
        {
          "name": "_ein",
          "type": "uint256"
        },
        {
          "name": "_groupIndex",
          "type": "uint256"
        },
        {
          "name": "_seedPointer",
          "type": "uint256"
        },
        {
          "name": "_limit",
          "type": "uint16"
        },
        {
          "name": "_asc",
          "type": "bool"
        },
        {
          "name": "_for",
          "type": "uint8"
        }
      ],
      "name": "debugIndexesWithNames",
      "outputs": [
        {
          "name": "_indexes",
          "type": "uint256[20]"
        },
        {
          "name": "_names",
          "type": "string"
        }
      ],
      "payable": false,
      "stateMutability": "view",
      "type": "function",
      "signature": "0xca6d351b"
    }
  ],
  "bytecode": "0x6080604052601a8054600160a060020a03191673cf1877ac788a303cacbbfe21b4e8ad08139f54fa1790553480156200003757600080fd5b50601a5460188054600160a060020a031916600160a060020a039283161790819055604080517fa759ee6f0000000000000000000000000000000000000000000000000000000081529051919092169163a759ee6f9160048083019260209291908290030181600087803b158015620000af57600080fd5b505af1158015620000c4573d6000803e3d6000fd5b505050506040513d6020811015620000db57600080fd5b505160198054600160a060020a031916600160a060020a0390921691909117905561504d806200010c6000396000f3fe6080604052600436106102055760e060020a600035046301bee1d6811461020a5780630340cf691461025357806312c8e644146102ae578063134e18f414610306578063164570f5146103375780632a11103c146103b257806330a0b0e4146103f657806333aff05a14610432578063368aaf7914610462578063426dd27c1461049257806344aac4301461054157806345d88d2d146105715780634e5b9f041461059d5780635056feee146105de57806351d3b5541461060e57806354a8a58a1461063e57806358f2b5881461065357806359a8e8b81461067d57806359ceb6681461070157806363804c20146107315780636e8e0b23146107865780636f96a160146107bc578063737f3a1d146109265780637e79b842146109565780638216526c146109bd5780638974a42514610baf578063973670d614610bdf578063a21aa45814610c64578063b02959af14610c8e578063b3ae44c814610cb8578063b4e741a214610ccd578063b583637714610cf7578063ba45ce2114610d27578063be7047a514610d57578063c2cfaaf514610d9f578063c5b4200614610e09578063ca6d351b14610e33578063d62991ce14610ee9578063dc2ddcae14610f13578063de89fabc14610fc6578063ef4f8f4b14610ff6578063f39997d21461100b578063f836a35314611035578063fb7ff8741461104a578063fb9efad114611082575b600080fd5b34801561021657600080fd5b5061023a6004803603604081101561022d57600080fd5b50803590602001356110c4565b6040805192835260208301919091528051918290030190f35b34801561025f57600080fd5b5061027d6004803603602081101561027657600080fd5b50356110e8565b6040805195151586529315156020860152911515848401521515606084015215156080830152519081900360a00190f35b3480156102ba57600080fd5b506102de600480360360408110156102d157600080fd5b5080359060200135611125565b6040805194855260208501939093528383019190915215156060830152519081900360800190f35b34801561031257600080fd5b5061031b61115a565b60408051600160a060020a039092168252519081900360200190f35b34801561034357600080fd5b506103796004803603608081101561035a57600080fd5b5080359060208101359061ffff60408201351690606001351515611169565b604051808261028080838360005b8381101561039f578181015183820152602001610387565b5050505090500191505060405180910390f35b3480156103be57600080fd5b506103e2600480360360408110156103d557600080fd5b5080359060200135611233565b604080519115158252519081900360200190f35b34801561040257600080fd5b506104206004803603602081101561041957600080fd5b5035611253565b60408051918252519081900360200190f35b34801561043e57600080fd5b506102de6004803603604081101561045557600080fd5b5080359060200135611265565b34801561046e57600080fd5b506102de6004803603604081101561048557600080fd5b508035906020013561129a565b34801561049e57600080fd5b506104c2600480360360408110156104b557600080fd5b508035906020013561136d565b6040518083815260200180602001828103825283818151815260200191508051906020019080838360005b838110156105055781810151838201526020016104ed565b50505050905090810190601f1680156105325780820380516001836020036101000a031916815260200191505b50935050505060405180910390f35b34801561054d57600080fd5b506103e26004803603604081101561056457600080fd5b50803590602001356114e7565b34801561057d57600080fd5b5061059b6004803603602081101561059457600080fd5b5035611507565b005b3480156105a957600080fd5b5061023a600480360360808110156105c057600080fd5b5080359060208101359060ff604082013581169160600135166119bb565b3480156105ea57600080fd5b5061023a6004803603604081101561060157600080fd5b5080359060200135611a6d565b34801561061a57600080fd5b5061059b6004803603604081101561063157600080fd5b5080359060200135611a91565b34801561064a57600080fd5b50610420611ccc565b34801561065f57600080fd5b506104206004803603602081101561067657600080fd5b5035611cd2565b34801561068957600080fd5b5061059b600480360360408110156106a057600080fd5b813591908101906040810160208201356401000000008111156106c257600080fd5b8201836020820111156106d457600080fd5b803590602001918460018302840111640100000000831117156106f657600080fd5b509092509050611ce4565b34801561070d57600080fd5b5061023a6004803603604081101561072457600080fd5b5080359060200135611e86565b34801561073d57600080fd5b506107616004803603604081101561075457600080fd5b5080359060200135611eaa565b6040805163ffffffff9094168452602084019290925282820152519081900360600190f35b34801561079257600080fd5b50610420600480360360608110156107a957600080fd5b5080359060208101359060400135611f72565b3480156107c857600080fd5b5061059b60048036036101208110156107e057600080fd5b60ff823581169260208101359091169181019060608101604082013564010000000081111561080e57600080fd5b82018360208201111561082057600080fd5b8035906020019184600183028401116401000000008311171561084257600080fd5b91908080601f0160208091040260200160405190810160405280939291908181526020018383808284376000920191909152509295843595602086013595604081013595506060810135151594509192509060a0810190608001356401000000008111156108af57600080fd5b8201836020820111156108c157600080fd5b803590602001918460018302840111640100000000831117156108e357600080fd5b91908080601f0160208091040260200160405190810160405280939291908181526020018383808284376000920191909152509295505091359250612028915050565b34801561093257600080fd5b506102de6004803603604081101561094957600080fd5b508035906020013561273e565b34801561096257600080fd5b5061059b600480360361044081101561097a57600080fd5b8101908080610400019060208060200260405190810160405280929190826020800280828437600092019190915250919450508135925050602001351515612773565b3480156109c957600080fd5b506109ed600480360360408110156109e057600080fd5b5080359060200135612a5c565b604051808760ff1660ff168152602001806020018060200180602001806020018615151515815260200185810385528a818151815260200191508051906020019080838360005b83811015610a4c578181015183820152602001610a34565b50505050905090810190601f168015610a795780820380516001836020036101000a031916815260200191505b5085810384528951815289516020918201918b019080838360005b83811015610aac578181015183820152602001610a94565b50505050905090810190601f168015610ad95780820380516001836020036101000a031916815260200191505b5085810383528851815288516020918201918a019080838360005b83811015610b0c578181015183820152602001610af4565b50505050905090810190601f168015610b395780820380516001836020036101000a031916815260200191505b50858103825287518152875160209182019189019080838360005b83811015610b6c578181015183820152602001610b54565b50505050905090810190601f168015610b995780820380516001836020036101000a031916815260200191505b509a505050505050505050505060405180910390f35b348015610bbb57600080fd5b5061059b60048036036040811015610bd257600080fd5b5080359060200135612c6e565b348015610beb57600080fd5b5061059b60048036036060811015610c0257600080fd5b810190602081018135640100000000811115610c1d57600080fd5b820183602082011115610c2f57600080fd5b80359060200191846020830284011164010000000083111715610c5157600080fd5b9193509150803590602001351515612e1f565b348015610c7057600080fd5b5061042060048036036020811015610c8757600080fd5b50356131a6565b348015610c9a57600080fd5b5061059b60048036036020811015610cb157600080fd5b50356131b8565b348015610cc457600080fd5b5061042061332b565b348015610cd957600080fd5b5061042060048036036020811015610cf057600080fd5b5035613331565b348015610d0357600080fd5b506102de60048036036040811015610d1a57600080fd5b5080359060200135613343565b348015610d3357600080fd5b506102de60048036036040811015610d4a57600080fd5b5080359060200135613378565b348015610d6357600080fd5b50610379600480360360a0811015610d7a57600080fd5b5080359060208101359060408101359061ffff606082013516906080013515156133ad565b348015610dab57600080fd5b50610dcf60048036036040811015610dc257600080fd5b5080359060200135613485565b6040805197885260208801969096529315158686015291151560608601521515608085015260a084015260c0830152519081900360e00190f35b348015610e1557600080fd5b5061059b60048036036020811015610e2c57600080fd5b50356134db565b348015610e3f57600080fd5b50610e84600480360360c0811015610e5657600080fd5b50803590602081013590604081013590606081013561ffff1690608081013515159060a0013560ff16613565565b604051808361028080838360005b83811015610eaa578181015183820152602001610e92565b505050509050018060200182810382528381815181526020019150805190602001908083836000838110156105055781810151838201526020016104ed565b348015610ef557600080fd5b5061042060048036036020811015610f0c57600080fd5b5035613d7d565b348015610f1f57600080fd5b5061059b60048036036020811015610f3657600080fd5b810190602081018135640100000000811115610f5157600080fd5b820183602082011115610f6357600080fd5b80359060200191846001830284011164010000000083111715610f8557600080fd5b91908080601f016020809104026020016040519081016040528093929190818152602001838380828437600092019190915250929550613d8f945050505050565b348015610fd257600080fd5b506102de60048036036040811015610fe957600080fd5b5080359060200135614186565b34801561100257600080fd5b5061059b6141bb565b34801561101757600080fd5b506104206004803603602081101561102e57600080fd5b503561480c565b34801561104157600080fd5b5061031b61481e565b34801561105657600080fd5b5061059b6004803603606081101561106d57600080fd5b5080359060208101359060400135151561482d565b34801561108e57600080fd5b50610379600480360360808110156110a557600080fd5b5080359060208101359061ffff6040820135169060600135151561497c565b600d6020908152600092835260408084209091529082529020805460019091015482565b60036020526000908152604090205460ff808216916101008104821691620100008204811691630100000081048216916401000000009091041685565b601460209081526000928352604080842090915290825290208054600182015460028301546003909301549192909160ff1684565b601954600160a060020a031681565b611171614e28565b60008581526005602052604090819020815160e160020a63568e008502815260048101919091526024810186905261ffff851660448201528315156064820152905173__IceSort_______________________________9163ad1c010a91608480830192610280929190829003018186803b1580156111ef57600080fd5b505af4158015611203573d6000803e3d6000fd5b505050506040513d601f19601f8201168201806040525061028081101561122957600080fd5b5095945050505050565b601760209081526000928352604080842090915290825290205460ff1681565b600f6020526000908152604090205481565b600560209081526000928352604080842090915290825290208054600182015460028301546003909301549192909160ff1684565b600082815260046020818152604080842085855290915280832081517fc7bf45e6000000000000000000000000000000000000000000000000000000008152928301525182918291829173__IceFMS________________________________9163c7bf45e691602480820192608092909190829003018186803b15801561132057600080fd5b505af4158015611334573d6000803e3d6000fd5b505050506040513d608081101561134a57600080fd5b508051602082015160408301516060909301519199909850919650945092505050565b60008281526009602052604080822054815160e060020a633b228bcf028152600481018590526024810191909152905160609173__IceFMS________________________________91633b228bcf916044808201928792909190829003018186803b1580156113db57600080fd5b505af41580156113ef573d6000803e3d6000fd5b505050508291508260001415611439575060408051808201909152600481527f526f6f740000000000000000000000000000000000000000000000000000000060208201526114e0565b60008481526007602090815260408083208684528252918290206002908101805484516001821615610100026000190190911692909204601f8101849004840283018401909452838252909290918301828280156114d85780601f106114ad576101008083540402835291602001916114d8565b820191906000526020600020905b8154815290600101906020018083116114bb57829003601f168201915b505050505090505b9250929050565b601660209081526000928352604080842090915290825290205460ff1681565b6019546040805160e060020a6305c62c2f0281523360048201529051600092600160a060020a0316916305c62c2f916024808301926020929190829003018186803b15801561155557600080fd5b505afa158015611569573d6000803e3d6000fd5b505050506040513d602081101561157f57600080fd5b5051905061158d8183614a02565b61159682614a8b565b60008181526009602052604080822054815160e060020a633b228bcf028152600481018690526024810191909152905173__IceFMS________________________________92633b228bcf9260448082019391829003018186803b1580156115fd57600080fd5b505af4158015611611573d6000803e3d6000fd5b50505060008281526003602052604080822081517fb152badc0000000000000000000000000000000000000000000000000000000081526004810191909152905173__IceGlobal_____________________________935063b152badc92602480840193919291829003018186803b15801561168c57600080fd5b505af41580156116a0573d6000803e3d6000fd5b5050506000828152600360209081526040808320805461ff00191661010017905560098252808320546007835281842087855290925282209092506116eb908263ffffffff614afd16565b604080517ff619de76000000000000000000000000000000000000000000000000000000008152600d600482015260248101839052600e6044820152600f60648201526003608482015260a48101869052905191925073__IceFMSAdv_____________________________9163f619de769160c480820192600092909190829003018186803b15801561177d57600080fd5b505af4158015611791573d6000803e3d6000fd5b505050508073__IceGlobal_____________________________63b9ff4f8490916040518263ffffffff1660e060020a0281526004018082815260200191505060006040518083038186803b1580156117e957600080fd5b505af41580156117fd573d6000803e3d6000fd5b5050506000848152600760209081526040808320868452909152808220878352912081548155600180830154818301556002808401805494955092936118589382860193909290821615610100026000190190911604614e48565b5060049182015490820155600084815260086020908152604080832081517f49ec42320000000000000000000000000000000000000000000000000000000081529485015260248401889052604484018690526064840192909252905173__IceSort_______________________________926349ec4232926084808301939192829003018186803b1580156118ed57600080fd5b505af4158015611901573d6000803e3d6000fd5b505050506040513d602081101561191757600080fd5b505160008481526009602090815260408083209390935560078152828220858352905290812081815560018101829055906119556002830182614ecd565b50600060049190910155604080518481526020810186905280820184905290517fd66ad55acd1951823df5c1b5c065951e2949a7cc40190ec571a2677508e136659181900360600190a150506000908152600360205260409020805461ff001916905550565b6000806119c6614f11565b60ff85161515611a105750600086815260208181526040808320888452825280832060ff871684526003018252918290208251808401909352805483526001015490820152611a58565b60ff851660011415611a585750600086815260208181526040808320888452825280832060ff8716845260040182529182902082518084019093528054835260010154908201525b80516020909101519097909650945050505050565b60136020908152600092835260408084209091529082529020805460019091015482565b6019546040805160e060020a6305c62c2f0281523360048201529051600092600160a060020a0316916305c62c2f916024808301926020929190829003018186803b158015611adf57600080fd5b505afa158015611af3573d6000803e3d6000fd5b505050506040513d6020811015611b0957600080fd5b50516000818152600460208181526040808420888552909152808320820186905580517f9201de55000000000000000000000000000000000000000000000000000000008152918201869052519293507f2294a85d598463b63e064807fad457cab51825642ffcba08aadc87288b6cf0e8928492879273__IceUtil_______________________________92639201de5592602480840193919291829003018186803b158015611bb857600080fd5b505af4158015611bcc573d6000803e3d6000fd5b505050506040513d6000823e601f3d908101601f191682016040526020811015611bf557600080fd5b810190808051640100000000811115611c0d57600080fd5b82016020810184811115611c2057600080fd5b8151640100000000811182820187101715611c3a57600080fd5b50509291905050506040518084815260200183815260200180602001828103825283818151815260200191508051906020019080838360005b83811015611c8b578181015183820152602001611c73565b50505050905090810190601f168015611cb85780820380516001836020036101000a031916815260200191505b5094505050505060405180910390a1505050565b60025481565b60156020526000908152604090205481565b6019546040805160e060020a6305c62c2f0281523360048201529051600092600160a060020a0316916305c62c2f916024808301926020929190829003018186803b158015611d3257600080fd5b505afa158015611d46573d6000803e3d6000fd5b505050506040513d6020811015611d5c57600080fd5b50519050611d6984614a8b565b60008181526009602052604080822054815160e060020a633b228bcf028152600481018890526024810191909152905173__IceFMS________________________________92633b228bcf9260448082019391829003018186803b158015611dd057600080fd5b505af4158015611de4573d6000803e3d6000fd5b50505060008281526007602090815260408083208884529091529020611e0f91506002018484614f28565b507ffb99e9069a7eed8318d56501970264d150dcac4088e37bbf4bff66a71223b74b8185858560405180858152602001848152602001806020018281038252848482818152602001925080828437600083820152604051601f909101601f191690920182900397509095505050505050a150505050565b60106020908152600092835260408084209091529082529020805460019091015482565b600082815260046020818152604080842085855290915280832081517fc693ba1e00000000000000000000000000000000000000000000000000000000815292830152518291829173__IceFMS________________________________9163c693ba1e916024808301926060929190829003018186803b158015611f2d57600080fd5b505af4158015611f41573d6000803e3d6000fd5b505050506040513d6060811015611f5757600080fd5b50805160208201516040909201519097919650945092505050565b6000838152600460208181526040808420868552825280842081517fd3587cba00000000000000000000000000000000000000000000000000000000815293840152602483018590525173__IceFMS________________________________9263d3587cba926044808301939192829003018186803b158015611ff457600080fd5b505af4158015612008573d6000803e3d6000fd5b505050506040513d602081101561201e57600080fd5b5051949350505050565b6019546040805160e060020a6305c62c2f0281523360048201529051600092600160a060020a0316916305c62c2f916024808301926020929190829003018186803b15801561207657600080fd5b505afa15801561208a573d6000803e3d6000fd5b505050506040513d60208110156120a057600080fd5b505160008181526009602052604080822054815160e060020a633b228bcf028152600481018790526024810191909152905192935073__IceFMS________________________________92633b228bcf92604480840193919291829003018186803b15801561210e57600080fd5b505af4158015612122573d6000803e3d6000fd5b50505060008281526003602052604080822081517f85ee7e960000000000000000000000000000000000000000000000000000000081526004810191909152905173__IceGlobal_____________________________93506385ee7e9692602480840193919291829003018186803b15801561219d57600080fd5b505af41580156121b1573d6000803e3d6000fd5b50505060008281526003602052604080822081517fb152badc0000000000000000000000000000000000000000000000000000000081526004810191909152905173__IceGlobal_____________________________935063b152badc92602480840193919291829003018186803b15801561222c57600080fd5b505af4158015612240573d6000803e3d6000fd5b5050506000828152600360205260408120805461ff001960ff19909116600117166101001790559050808060ff8d16151561234d5761227d614b1e565b6000868152600660205260408082205481517fd6238b5a000000000000000000000000000000000000000000000000000000008152600481018490526024810186905260448101859052606481018a905260019182016084820181905260a482019290925260c4810184905260e48101849052915194975092955091935073__IceGlobal_____________________________9263d6238b5a92610104808201939291829003018186803b15801561233457600080fd5b505af4158015612348573d6000803e3d6000fd5b505050505b60408051808201825284815260208082018590526000878152600782528381208982528252838120600490810154898352908352848220868352909252929092206123ae929091908f908f908f908f908f908f908e9063ffffffff614b6516565b60ff8d1615156125515760046000858152602001908152602001600020600082815260200190815260200160002073__IceFMS________________________________638a86b62c909160076000888152602001908152602001600020600089815260200190815260200160002088600560008a8152602001908152602001600020600660008b815260200190815260200160002054878b8e6040518963ffffffff1660e060020a0281526004018089815260200188815260200187815260200186815260200185815260200184815260200183815260200180602001828103825283818151815260200191508051906020019080838360005b838110156124c05781810151838201526020016124a8565b50505050905090810190601f1680156124ed5780820380516001836020036101000a031916815260200191505b50995050505050505050505060206040518083038186803b15801561251157600080fd5b505af4158015612525573d6000803e3d6000fd5b505050506040513d602081101561253b57600080fd5b505160008581526006602052604090205561257f565b8c60ff166001141561257f576000848152600360205260409020805464ff0000000019166401000000001790555b7f4443292b7c801de1e18bba287635c870a53fe39f205e385ab346e9f2939dffb284600660008781526020019081526020016000205460010173__IceUtil_______________________________639201de558e6040518263ffffffff1660e060020a0281526004018082815260200191505060006040518083038186803b15801561260a57600080fd5b505af415801561261e573d6000803e3d6000fd5b505050506040513d6000823e601f3d908101601f19168201604052602081101561264757600080fd5b81019080805164010000000081111561265f57600080fd5b8201602081018481111561267257600080fd5b815164010000000081118282018710171561268c57600080fd5b50509291905050506040518084815260200183815260200180602001828103825283818151815260200191508051906020019080838360005b838110156126dd5781810151838201526020016126c5565b50505050905090810190601f16801561270a5780820380516001836020036101000a031916815260200191505b5094505050505060405180910390a15050506000908152600360205260409020805461ffff19169055505050505050505050565b600860209081526000928352604080842090915290825290208054600182015460028301546003909301549192909160ff1684565b6019546040805160e060020a6305c62c2f0281523360048201529051600092600160a060020a0316916305c62c2f916024808301926020929190829003018186803b1580156127c157600080fd5b505afa1580156127d5573d6000803e3d6000fd5b505050506040513d60208110156127eb57600080fd5b505190506127f7614f11565b600183151514156128b75760008281526006602052604080822054815160e060020a633b228bcf028152600481018890526024810191909152905173__IceFMS________________________________92633b228bcf9260448082019391829003018186803b15801561286957600080fd5b505af415801561287d573d6000803e3d6000fd5b5050506000838152600460209081526040808320888452825291829020825180840190935280548352600101549082015291506129679050565b60008281526009602052604080822054815160e060020a633b228bcf028152600481018890526024810191909152905173__IceFMS________________________________92633b228bcf9260448082019391829003018186803b15801561291e57600080fd5b505af4158015612932573d6000803e3d6000fd5b505050600083815260046020908152604080832088845282529182902082518084019093528054835260010154908201529150505b600d73__IceFMSAdv_____________________________6321c6f0f6909160008085600001518152602001908152602001600020600085602001518152602001908152602001600020600e600f6003888c6040518863ffffffff1660e060020a02815260040180888152602001878152602001868152602001858152602001848152602001838152602001826020800280838360005b83811015612a155781810151838201526020016129fd565b5050505090500197505050505050505060006040518083038186803b158015612a3d57600080fd5b505af4158015612a51573d6000803e3d6000fd5b505050505050505050565b600082815260046020818152604080842085855290915280832081517f3edbc2cd0000000000000000000000000000000000000000000000000000000081529283015251606091829182918291869173__IceFMS________________________________91633edbc2cd916024808201928692909190829003018186803b158015612ae657600080fd5b505af4158015612afa573d6000803e3d6000fd5b505050506040513d6000823e601f3d908101601f1916820160405260c0811015612b2357600080fd5b815160208301805191939283019291640100000000811115612b4457600080fd5b82016020810184811115612b5757600080fd5b8151640100000000811182820187101715612b7157600080fd5b50509291906020018051640100000000811115612b8d57600080fd5b82016020810184811115612ba057600080fd5b8151640100000000811182820187101715612bba57600080fd5b50509291906020018051640100000000811115612bd657600080fd5b82016020810184811115612be957600080fd5b8151640100000000811182820187101715612c0357600080fd5b50509291906020018051640100000000811115612c1f57600080fd5b82016020810184811115612c3257600080fd5b8151640100000000811182820187101715612c4c57600080fd5b5050602090910151969f959e50939c50919a5091985092965090945050505050565b6019546040805160e060020a6305c62c2f0281523360048201529051600092600160a060020a0316916305c62c2f916024808301926020929190829003018186803b158015612cbc57600080fd5b505afa158015612cd0573d6000803e3d6000fd5b505050506040513d6020811015612ce657600080fd5b50516000818152600460208181526040808420888552825280842085855260078352818520600884528286206003855283872084517f222ab0a10000000000000000000000000000000000000000000000000000000081529687019390935260248601919091526044850152606484018890526084840185905260a484015251939450919273__IceFMS________________________________9263222ab0a19260c48082019391829003018186803b158015612da257600080fd5b505af4158015612db6573d6000803e3d6000fd5b505050506040513d6020811015612dcc57600080fd5b505160408051848152602081018790528082018690526060810183905290519192507f90066c23e167bba0523fbd672b21f1d81daf9041d56adbd5a79287f2cfd1ec08919081900360800190a150505050565b6019546040805160e060020a6305c62c2f0281523360048201529051600092600160a060020a0316916305c62c2f916024808301926020929190829003018186803b158015612e6d57600080fd5b505afa158015612e81573d6000803e3d6000fd5b505050506040513d6020811015612e9757600080fd5b50519050600182151514156130315760008181526006602052604080822054815160e060020a633b228bcf028152600481018790526024810191909152905173__IceFMS________________________________92633b228bcf9260448082019391829003018186803b158015612f0d57600080fd5b505af4158015612f21573d6000803e3d6000fd5b50505050600d73__IceFMSAdv_____________________________6373db547690916000600e600f60036017600460008a815260200190815260200160002060008c8152602001908152602001600020600001898e8e6040518b63ffffffff1660e060020a028152600401808b81526020018a8152602001898152602001888152602001878152602001868152602001858152602001848152602001806020018281038252848482818152602001925060200280828437600081840152601f19601f8201169050808301925050509b50505050505050505050505060006040518083038186803b15801561301457600080fd5b505af4158015613028573d6000803e3d6000fd5b5050505061319f565b60008181526009602052604080822054815160e060020a633b228bcf028152600481018790526024810191909152905173__IceFMS________________________________92633b228bcf9260448082019391829003018186803b15801561309857600080fd5b505af41580156130ac573d6000803e3d6000fd5b50505050600d73__IceFMSAdv_____________________________6373db547690916000600e600f60036017600760008a815260200190815260200160002060008c8152602001908152602001600020600001898e8e6040518b63ffffffff1660e060020a028152600401808b81526020018a8152602001898152602001888152602001878152602001868152602001858152602001848152602001806020018281038252848482818152602001925060200280828437600081840152601f19601f8201169050808301925050509b50505050505050505050505060006040518083038186803b158015612a3d57600080fd5b5050505050565b600c6020526000908152604090205481565b6019546040805160e060020a6305c62c2f0281523360048201529051600092600160a060020a0316916305c62c2f916024808301926020929190829003018186803b15801561320657600080fd5b505afa15801561321a573d6000803e3d6000fd5b505050506040513d602081101561323057600080fd5b50516000818152600d6020908152604080832086845290915281209192509061325f908263ffffffff614afd16565b6000838152600d60209081526040808320600e8352818420600390935281842082517f7524375d0000000000000000000000000000000000000000000000000000000081526004810192909252602482018690526044820193909352600f6064820152608481019290925260a482018690525192935073__IceFMSAdv_____________________________92637524375d9260c480840193919291829003018186803b15801561330e57600080fd5b505af4158015613322573d6000803e3d6000fd5b50505050505050565b60015481565b60096020526000908152604090205481565b600e60209081526000928352604080842090915290825290208054600182015460028301546003909301549192909160ff1684565b601160209081526000928352604080842090915290825290208054600182015460028301546003909301549192909160ff1684565b6133b5614e28565b600086815260076020908152604080832088845290915290819020815160e160020a63568e0085028152600390910160048201526024810186905261ffff851660448201528315156064820152905173__IceSort_______________________________9163ad1c010a91608480830192610280929190829003018186803b15801561344057600080fd5b505af4158015613454573d6000803e3d6000fd5b505050506040513d601f19601f8201168201806040525061028081101561347a57600080fd5b509695505050505050565b600091825260208281526040808420928452919052902080546001820154600290920154909260ff8083169261010081048216926301000000820483169264010000000083048116926501000000000090041690565b6019546040805160e060020a6305c62c2f0281523360048201529051600092600160a060020a0316916305c62c2f916024808301926020929190829003018186803b15801561352957600080fd5b505afa15801561353d573d6000803e3d6000fd5b505050506040513d602081101561355357600080fd5b505190506135618183614c00565b5050565b61356d614e28565b60608260ff166001141561363b5760008881526005602052604090819020815160e160020a63568e008502815260048101919091526024810188905261ffff871660448201528515156064820152905173__IceSort_______________________________9163ad1c010a91608480830192610280929190829003018186803b1580156135f957600080fd5b505af415801561360d573d6000803e3d6000fd5b505050506040513d601f19601f8201168201806040525061028081101561363357600080fd5b509150613824565b8260ff16600214156136d25760008881526007602090815260408083208a845290915290819020815160e160020a63568e0085028152600390910160048201526024810188905261ffff871660448201528515156064820152905173__IceSort_______________________________9163ad1c010a91608480830192610280929190829003018186803b1580156135f957600080fd5b8260ff166003141561375c5760008881526008602052604090819020815160e160020a63568e008502815260048101919091526024810188905261ffff871660448201528515156064820152905173__IceSort_______________________________9163ad1c010a91608480830192610280929190829003018186803b1580156135f957600080fd5b8260ff1660041415613824576000888152600e602052604090819020815160e160020a63568e008502815260048101919091526024810188905261ffff871660448201528515156064820152905173__IceSort_______________________________9163ad1c010a91608480830192610280929190829003018186803b1580156137e657600080fd5b505af41580156137fa573d6000803e3d6000fd5b505050506040513d601f19601f8201168201806040525061028081101561382057600080fd5b5091505b6000805b801515613d705760608560ff166001148061384657508560ff166002145b156139645760008b815260046020526040812073__IceUtil_______________________________91639201de5591908861ffff88166014811061388657fe5b60200201518152602001908152602001600020600401546040518263ffffffff1660e060020a0281526004018082815260200191505060006040518083038186803b1580156138d457600080fd5b505af41580156138e8573d6000803e3d6000fd5b505050506040513d6000823e601f3d908101601f19168201604052602081101561391157600080fd5b81019080805164010000000081111561392957600080fd5b8201602081018481111561393c57600080fd5b815164010000000081118282018710171561395657600080fd5b50909450613ccd9350505050565b8560ff1660031415613a455760008b8152600760205260408120908661ffff86166014811061398f57fe5b602002015181526020019081526020016000206002018054600181600116156101000203166002900480601f016020809104026020016040519081016040528092919081815260200182805460018160011615610100020316600290048015613a395780601f10613a0e57610100808354040283529160200191613a39565b820191906000526020600020905b815481529060010190602001808311613a1c57829003601f168201915b50505050509050613ccd565b8560ff1660041415613ccd57613a59614f11565b60008c8152600d60205260408120908761ffff871660148110613a7857fe5b60200201518152602001908152602001600020604080519081016040529081600082015481526020016001820154815250509050613ab4614f11565b5080516000908152602081815260408083208285018051855290835281842082518084018452815481526001918201548186015286518652858552838620925186529190935292206002015460ff1615151415613c1e578051600090815260046020818152604080842082860151855290915280832082015481517f9201de55000000000000000000000000000000000000000000000000000000008152928301525173__IceUtil_______________________________92639201de559260248082019391829003018186803b158015613b8e57600080fd5b505af4158015613ba2573d6000803e3d6000fd5b505050506040513d6000823e601f3d908101601f191682016040526020811015613bcb57600080fd5b810190808051640100000000811115613be357600080fd5b82016020810184811115613bf657600080fd5b8151640100000000811182820187101715613c1057600080fd5b50909650613cca9350505050565b805160009081526007602090815260408083208285015184528252918290206002908101805484516001821615610100026000190190911692909204601f810184900484028301840190945283825290929091830182828015613cc25780601f10613c9757610100808354040283529160200191613cc2565b820191906000526020600020905b815481529060010190602001808311613ca557829003601f168201915b505050505092505b50505b613d0c816040805190810160405280600181526020017f7c00000000000000000000000000000000000000000000000000000000000000815250614d54565b9050613d188482614d54565b935060019092019161ffff8084169089161480613d6057508461ffff841660148110613d4057fe5b60200201518561ffff60001986011660148110613d5957fe5b6020020151145b15613d6a57600191505b50613828565b5050965096945050505050565b60126020526000908152604090205481565b6019546040805160e060020a6305c62c2f0281523360048201529051600092600160a060020a0316916305c62c2f916024808301926020929190829003018186803b158015613ddd57600080fd5b505afa158015613df1573d6000803e3d6000fd5b505050506040513d6020811015613e0757600080fd5b505160008181526003602052604080822081517fb152badc0000000000000000000000000000000000000000000000000000000081526004810191909152905192935073__IceGlobal_____________________________9263b152badc92602480840193919291829003018186803b158015613e8357600080fd5b505af4158015613e97573d6000803e3d6000fd5b5050506000828152600360205260408120805461ff001916610100179055905080613ec0614b1e565b6000858152600960205260408082205481517fd6238b5a00000000000000000000000000000000000000000000000000000000815260048101849052602481018690526044810185905260648101899052600182016084820181905260a4820185905260c4820185905260e48201859052925195975093955093909273__IceGlobal_____________________________9263d6238b5a9261010480840193829003018186803b158015613f7357600080fd5b505af4158015613f87573d6000803e3d6000fd5b50506040805160a0810182526060810188815260808201889052815260208082018b815260008385018190528b815260078352848120888252835293909320825180518255820151600182015592518051929550929350613fef926002850192910190614f96565b5060409182015160049182015560008781526008602090815283822084517ffb72a27500000000000000000000000000000000000000000000000000000000815293840152602483018690526044830191909152915173__IceSort_______________________________9263fb72a2759260648082019391829003018186803b15801561407c57600080fd5b505af4158015614090573d6000803e3d6000fd5b505050506040513d60208110156140a657600080fd5b5051600086815260096020908152604080832093909355825188815280820185905260609381018481528a519482019490945289517fa5edfd2fddc5d31cfe8722fdf90ee7cbc852fb72f5d008e4672cd2d8d365d4cc948a9487948d94936080850192918601918190849084905b8381101561412c578181015183820152602001614114565b50505050905090810190601f1680156141595780820380516001836020036101000a031916815260200191505b5094505050505060405180910390a1505050600091825250600360205260409020805461ff001916905550565b600b60209081526000928352604080842090915290825290208054600182015460028301546003909301549192909160ff1684565b6141f96040805190810160405280600881526020017f412e496d61676573000000000000000000000000000000000000000000000000815250613d8f565b6142376040805190810160405280600881526020017f422e4d6f76696573000000000000000000000000000000000000000000000000815250613d8f565b6142756040805190810160405280600881526020017f432e43727970746f000000000000000000000000000000000000000000000000815250613d8f565b6142b36040805190810160405280600881526020017f442e4f7468657273000000000000000000000000000000000000000000000000815250613d8f565b6142f16040805190810160405280600f81526020017f452e41646f6265436f6e74726163740000000000000000000000000000000000815250613d8f565b6145626000600160408051908101604052806004815260200160e460020a63030783030281525073__IceUtil_______________________________63cfb519286040518163ffffffff1660e060020a0281526004018080602001828103825260058152602001807f696e64657800000000000000000000000000000000000000000000000000000081525060200191505060206040518083038186803b15801561439b57600080fd5b505af41580156143af573d6000803e3d6000fd5b505050506040513d60208110156143c557600080fd5b5051604080517fcfb51928000000000000000000000000000000000000000000000000000000008152602060048201819052602482018190527f516d54656357666d76767350645a587559724c67435471526a395967426941556044830152915173__IceUtil_______________________________9263cfb519289260648082019391829003018186803b15801561445d57600080fd5b505af4158015614471573d6000803e3d6000fd5b505050506040513d602081101561448757600080fd5b5051604080517fcfb51928000000000000000000000000000000000000000000000000000000008152602060048201819052600e60248301527f4c345a4372396977446e703971370000000000000000000000000000000000006044830152915173__IceUtil_______________________________9263cfb519289260648082019391829003018186803b15801561451f57600080fd5b505af4158015614533573d6000803e3d6000fd5b505050506040513d602081101561454957600080fd5b5051604080516020810190915260008082529081612028565b61460c6000600160408051908101604052806004815260200160e460020a63030783030281525073__IceUtil_______________________________63cfb519286040518163ffffffff1660e060020a0281526004018080602001828103825260068152602001807f66616d696c79000000000000000000000000000000000000000000000000000081525060200191505060206040518083038186803b15801561439b57600080fd5b6146b66000600160408051908101604052806004815260200160e460020a63030783030281525073__IceUtil_______________________________63cfb519286040518163ffffffff1660e060020a02815260040180806020018281038252600a8152602001807f6d79706f7274726169740000000000000000000000000000000000000000000081525060200191505060206040518083038186803b15801561439b57600080fd5b6147606000600160408051908101604052806004815260200160e460020a63030783030281525073__IceUtil_______________________________63cfb519286040518163ffffffff1660e060020a0281526004018080602001828103825260078152602001807f637574657069630000000000000000000000000000000000000000000000000081525060200191505060206040518083038186803b15801561439b57600080fd5b61480a6000600160408051908101604052806004815260200160e460020a63030783030281525073__IceUtil_______________________________63cfb519286040518163ffffffff1660e060020a0281526004018080602001828103825260078152602001807f617765736f6d650000000000000000000000000000000000000000000000000081525060200191505060206040518083038186803b15801561439b57600080fd5b565b60066020526000908152604090205481565b601854600160a060020a031681565b6019546040805160e060020a6305c62c2f0281523360048201529051600092600160a060020a0316916305c62c2f916024808301926020929190829003018186803b15801561487b57600080fd5b505afa15801561488f573d6000803e3d6000fd5b505050506040513d60208110156148a557600080fd5b505160008581526020818152604080832087845290915280822081517f740757c5000000000000000000000000000000000000000000000000000000008152600481019190915260248101849052905192935073__IceGlobal_____________________________9263740757c592604480840193919291829003018186803b15801561493157600080fd5b505af4158015614945573d6000803e3d6000fd5b5050506000948552505060208381526040808520938552929052912060020180549115156101000261ff0019909216919091179055565b614984614e28565b60008581526008602052604090819020815160e160020a63568e008502815260048101919091526024810186905261ffff851660448201528315156064820152905173__IceSort_______________________________9163ad1c010a91608480830192610280929190829003018186803b1580156111ef57600080fd5b60008281526007602090815260408083208484529091529020600401541561356157604080517f08c379a000000000000000000000000000000000000000000000000000000000815260206004820152600f60248201527f47726f7570206861732046696c65730000000000000000000000000000000000604482015290519081900360640190fd5b60008111614afa57604080517f08c379a000000000000000000000000000000000000000000000000000000000815260206004820152600d60248201527f5265736572766564204974656d00000000000000000000000000000000000000604482015290519081900360640190fd5b50565b81546000908152602091825260408082206001909401548252929091522090565b60018054600254909181011515614b4f5760018054614b429163ffffffff614e0f16565b6001556000600255614b59565b6002805460010190555b50506001546002549091565b88518a556020808a015160018c015560028b01805461010060ff1990911660ff8c161761ff0019161790558751614ba49160038d0191908a0190614f96565b5060048a01959095556005890193909355600688019190915560078701805463ffffffff19164263ffffffff161764ff000000001916640100000000921515929092029190911790556009860155600a90940193909355505050565b600082815260046020818152604080842060058352818520600784528286208787528285528387206009015480885290855283872089885260088652848820918852945282862083517fcdd2a4e700000000000000000000000000000000000000000000000000000000815295860192909252602485018890526044850187905260648501526006608485015260a484019290925260c4830191909152600d60e4830152600e610104830152600f610124830152600361014483015261016482018390525173__IceFMS________________________________9263cdd2a4e7926101848082019391829003018186803b158015614cfd57600080fd5b505af4158015614d11573d6000803e3d6000fd5b5050604080518581526020810185905281517fa50edae42406c3acb160bbddf0ca2fc7eb414a065b7738f3ff10d22c6385cafd9450908190039091019150a15050565b606082826040516020018083805190602001908083835b60208310614d8a5780518252601f199092019160209182019101614d6b565b51815160209384036101000a600019018019909216911617905285519190930192850191508083835b60208310614dd25780518252601f199092019160209182019101614db3565b6001836020036101000a03801982511681845116808217855250505050505090500192505050604051602081830303815290604052905092915050565b600082820183811015614e2157600080fd5b9392505050565b610280604051908101604052806014906020820280388339509192915050565b828054600181600116156101000203166002900490600052602060002090601f016020900481019282601f10614e815780548555614ebd565b82800160010185558215614ebd57600052602060002091601f016020900482015b82811115614ebd578254825591600101919060010190614ea2565b50614ec9929150615004565b5090565b50805460018160011615610100020316600290046000825580601f10614ef35750614afa565b601f016020900490600052602060002090810190614afa9190615004565b604080518082019091526000808252602082015290565b828054600181600116156101000203166002900490600052602060002090601f016020900481019282601f10614f695782800160ff19823516178555614ebd565b82800160010185558215614ebd579182015b82811115614ebd578235825591602001919060010190614f7b565b828054600181600116156101000203166002900490600052602060002090601f016020900481019282601f10614fd757805160ff1916838001178555614ebd565b82800160010185558215614ebd579182015b82811115614ebd578251825591602001919060010190614fe9565b61501e91905b80821115614ec9576000815560010161500a565b9056fea165627a7a723058209b96bbf199dfc323555be3290af4d52b7634dba0db90529bcbd73de44fbf26820029",
  "source": "pragma solidity ^0.5.1;\n\nimport \"./interfaces/SnowflakeInterface.sol\";\nimport \"./interfaces/IdentityRegistryInterface.sol\";\n\nimport \"./IceFMS.sol\";\n\n/**\n * @title Ice Protocol\n * @author Harsh Rajat\n * @notice Create Protocol Less File Storage, Grouping, Hassle free Encryption / Decryption and Stamping using Snowflake\n * @dev This Contract forms File Storage / Stamping / Encryption part of Hydro Protocols\n */\ncontract Ice {\n    using SafeMath for uint;\n    \n    using IceGlobal for IceGlobal.GlobalRecord;\n    using IceGlobal for IceGlobal.ItemOwner;\n    using IceGlobal for IceGlobal.Association;\n    using IceGlobal for IceGlobal.UserMeta;\n    using IceGlobal for mapping (uint => bool);\n    using IceGlobal for mapping (uint8 => IceGlobal.ItemOwner);\n    using IceGlobal for mapping (uint => mapping (uint => IceGlobal.Association));\n    \n    using IceSort for mapping(uint => IceSort.SortOrder);\n    using IceSort for IceSort.SortOrder;\n    \n    using IceFMS for IceFMS.File;\n    using IceFMS for mapping (uint => IceFMS.File);\n    using IceFMS for IceFMS.Group;\n    using IceFMS for uint;\n    \n    using IceFMSAdv for mapping (uint => IceGlobal.GlobalRecord);\n    using IceFMSAdv for mapping (uint => mapping(uint => IceGlobal.GlobalRecord));\n    \n    /* ***************\n    * DEFINE ENUM\n    *************** */\n    enum NoticeType {info, warning, error}\n    \n    /* ***************\n    * DEFINE STRUCTURES\n    *************** */\n    // Done in Libraries\n     \n    /* ***************\n    * DEFINE VARIABLES\n    *************** */\n    /* for each file stored, ensure they can be retrieved publicly.\n     * associationIndex starts at 0 and will always increment\n     * given an associationIndex, any file can be retrieved.\n     */\n    mapping (uint => mapping(uint => IceGlobal.Association)) globalItems;\n    uint public globalIndex1; // store the first index of association to retrieve files\n    uint public globalIndex2; // store the first index of association to retrieve files\n\n    /* for each user (EIN), look up the Transitioon State they have\n     * stored on a given index.\n     */\n    mapping (uint => IceGlobal.UserMeta) public usermeta;\n\n    /* for each user (EIN), look up the file they have\n     * stored on a given index.\n     */\n    mapping (uint => mapping(uint => IceFMS.File)) files;\n    mapping (uint => mapping(uint => IceSort.SortOrder)) public fileOrder; // Store round robin order of files\n    mapping (uint => uint) public fileCount; // store the maximum file count reached to provide looping functionality\n\n    /* for each user (EIN), look up the group they have\n     * stored on a given index. Default group 0 indicates\n     * root folder\n     */\n    mapping (uint => mapping(uint => IceFMS.Group)) groups;\n    mapping (uint => mapping(uint => IceSort.SortOrder)) public groupOrder; // Store round robin order of group\n    mapping (uint => uint) public groupCount; // store the maximum group count reached to provide looping functionality\n\n    /* for each user (EIN), look up the incoming transfer request\n     * stored on a given index.\n     */\n    mapping (uint => mapping(uint => IceGlobal.Association)) transfers;\n    mapping (uint => mapping(uint => IceSort.SortOrder)) public transferOrder; // Store round robin order of transfers\n    mapping (uint => uint) public transferIndex; // store the maximum transfer request count reached to provide looping functionality\n\n    /* for each user (EIN), look up the incoming sharing files\n     * stored on a given index.\n     */\n    mapping (uint => mapping(uint => IceGlobal.GlobalRecord)) public shares;\n    mapping (uint => mapping(uint => IceSort.SortOrder)) public shareOrder; // Store round robin order of sharing\n    mapping (uint => uint) public shareCount; // store the maximum shared items count reached to provide looping functionality\n\n    /* for each user (EIN), look up the incoming sharing files\n     * stored on a given index.\n     */\n    mapping (uint => mapping(uint => IceGlobal.GlobalRecord)) public stampings;\n    mapping (uint => mapping(uint => IceSort.SortOrder)) public stampingOrder; // Store round robin order of stamping\n    mapping (uint => uint) public stampingCount; // store the maximum file index reached to provide looping functionality\n\n    /* for each user (EIN), look up the incoming sharing files\n     * stored on a given index.\n     */\n    mapping (uint => mapping(uint => IceGlobal.GlobalRecord)) public stampingsRequest;\n    mapping (uint => mapping(uint => IceSort.SortOrder)) public stampingsRequestOrder; // Store round robin order of stamping requests\n    mapping (uint => uint) public stampingsRequestCount; // store the maximum file index reached to provide looping functionality\n\n    /* for each user (EIN), have a whitelist and blacklist\n     * association which can handle certain functions automatically.\n     */\n    mapping (uint => mapping(uint => bool)) public whitelist;\n    mapping (uint => mapping(uint => bool)) public blacklist;\n\n    /* for referencing SnowFlake for Identity Registry (ERC-1484).\n     */\n    SnowflakeInterface public snowflake;\n    IdentityRegistryInterface public identityRegistry;\n\n    /* ***************\n    * DEFINE EVENTS\n    *************** */\n    // When File is created\n    event FileCreated(\n        uint EIN,\n        uint fileIndex,\n        string fileName\n    );\n\n    // When File is renamed\n    event FileRenamed(\n        uint EIN,\n        uint fileIndex,\n        string fileName\n    );\n\n    // When File is moved\n    event FileMoved(\n        uint EIN,\n        uint fileIndex,\n        uint groupIndex,\n        uint groupFileIndex\n    );\n\n    // When File is deleted\n    event FileDeleted(\n        uint EIN,\n        uint fileIndex\n    );\n\n    // When Group is created\n    event GroupCreated(\n        uint EIN,\n        uint groupIndex,\n        string groupName\n    );\n\n    // When Group is renamed\n    event GroupRenamed(\n        uint EIN,\n        uint groupIndex,\n        string groupName\n    );\n\n    // When Group Status is changed\n    event GroupDeleted(\n        uint EIN,\n        uint groupIndex,\n        uint groupReplacedIndex\n    );\n\n    // When Transfer is initiated from owner\n    event FileTransferInitiated(\n        uint indexed EIN,\n        uint indexed transfereeEIN,\n        uint indexed fileID\n    );\n\n    // When whitelist is updated\n    event AddedToWhitelist(\n        uint EIN,\n        uint recipientEIN\n    );\n\n    event RemovedFromWhitelist(\n        uint EIN,\n        uint recipientEIN\n    );\n\n    // When blacklist is updated\n    event AddedToBlacklist(\n        uint EIN,\n        uint recipientEIN\n    );\n\n    event RemovedFromBlacklist(\n        uint EIN,\n        uint recipientEIN\n    );\n\n    // Notice Events\n    event Notice(\n        uint indexed EIN,\n        string indexed notice,\n        uint indexed statusType\n    );\n\n    /* ***************\n    * DEFINE CONSTRUCTORS AND RELATED FUNCTIONS\n    *************** */\n    // CONSTRUCTOR / FUNCTIONS\n    address snowflakeAddress = 0xcF1877AC788a303cAcbbfE21b4E8AD08139f54FA; //0xB536a9b68e7c1D2Fd6b9851Af2F955099B3A59a9; // For local use\n    constructor (/*address snowflakeAddress*/) public {\n        snowflake = SnowflakeInterface(snowflakeAddress);\n        identityRegistry = IdentityRegistryInterface(snowflake.identityRegistryAddress());\n    }\n\n    /* ***************\n    * DEFINE CONTRACT FUNCTIONS\n    *************** */\n    // 1. GLOBAL ITEMS FUNCTIONS\n    /**\n     * @dev Function to get global items\n     * @param _index1 is the first index of item\n     * @param _index2 is the second index of item\n     */\n    function getGlobalItems(uint _index1, uint _index2)\n    external view\n    returns (uint ownerEIN, uint itemRecord, bool isFile, bool isHidden, bool deleted, uint sharedToCount, uint stampingReqsCount) {\n        ownerEIN = globalItems[_index1][_index2].ownerInfo.EIN;\n        itemRecord = globalItems[_index1][_index2].ownerInfo.index;\n\n        isFile = globalItems[_index1][_index2].isFile;\n        isHidden = globalItems[_index1][_index2].isHidden;\n        deleted = globalItems[_index1][_index2].deleted;\n\n        sharedToCount = globalItems[_index1][_index2].sharedToCount;\n        stampingReqsCount = globalItems[_index1][_index2].stampedToCount;\n        \n        //getGlobalItems\n    }\n    \n    /**\n     * @dev Function to get global items\n     * @param _index1 is the first index of item\n     * @param _index2 is the second index of item\n     * @param _isHidden is the flag to hide that item or not \n     */\n    function hideGlobalItem(uint _index1, uint _index2, bool _isHidden) \n    external {\n        // Get user EIN\n        uint ein = identityRegistry.getEIN(msg.sender);\n        \n        // Check Restrictions\n        globalItems[_index1][_index2].condItemOwner(ein);\n        \n        // Logic\n        globalItems[_index1][_index2].isHidden = _isHidden;\n    }\n\n    /**\n     * @dev Function to get info of mapping to user for a specific global item\n     * @param _index1 is the first index of global item\n     * @param _index2 is the second index of global item\n     * @param _ofType indicates the type. 0 - shares, 1 - transferReqs\n     * @param _mappedIndex is the index\n     * @return mappedToEIN is the user (EIN)\n     * @return atIndex is the specific index in question\n     */\n    function getGlobalItemsMapping(uint _index1, uint _index2, uint8 _ofType, uint8 _mappedIndex)\n    external view\n    returns (uint mappedToEIN, uint atIndex) {\n        IceGlobal.ItemOwner memory _mappedItem;\n\n        // Allocalte based on type.\n        if (_ofType == uint8(IceGlobal.AsscProp.sharedTo)) {\n            _mappedItem = globalItems[_index1][_index2].sharedTo[_mappedIndex];\n        }\n        else if (_ofType == uint8(IceGlobal.AsscProp.stampedTo)) {\n            _mappedItem = globalItems[_index1][_index2].stampedTo[_mappedIndex];\n        }\n\n        mappedToEIN = _mappedItem.EIN;\n        atIndex = _mappedItem.index;\n    }\n    \n    /**\n     * @dev Private Function to reserve global item slot\n     * @return i1 The reserved first index of global item\n     * @return i2 The reserved second index of global item\n     */\n    function _reserveGlobalItemSlot() \n    internal \n    returns (uint i1, uint i2){\n        // Increment global Item (0, 0 is always reserved | Is User Avatar)\n        i1 = globalIndex1;\n        i2 = globalIndex2;\n        \n        if ((i2 + 1) == 0) {\n            // This is loopback, Increment newIndex1\n            globalIndex1 = globalIndex1.add(1);\n            globalIndex2 = 0;\n        }\n        else {\n             globalIndex2 = globalIndex2 + 1;\n        }\n        \n        i1 = globalIndex1;\n        i2 = globalIndex2;\n    }\n\n    // 2. FILE FUNCTIONS\n    /**\n     * @dev Function to get all the files of an EIN\n     * @param _ein is the owner EIN\n     * @param _seedPointer is the seed of the order from which it should begin\n     * @param _limit is the limit of file indexes requested\n     * @param _asc is the order by which the files will be presented\n     */\n    function getFileIndexes(uint _ein, uint _seedPointer, uint16 _limit, bool _asc)\n    external view\n    returns (uint[20] memory fileIndexes) {\n        fileIndexes = fileOrder[_ein].getIndexes(_seedPointer, _limit, _asc);\n    }\n\n    /**\n     * @dev Function to get file info of an EIN\n     * @param _ein is the owner EIN\n     * @param _fileIndex is index of the file\n     */\n    function getFileInfo(uint _ein, uint _fileIndex)\n    external view\n    returns (uint8 protocol, bytes memory protocolMeta, string memory name, string memory hash1, string memory hash2, bool encrypted) {\n        // Logic\n        (protocol, protocolMeta, name, hash1, hash2, encrypted) = files[_ein][_fileIndex].getFileInfo();\n    }\n    \n    /**\n     * @dev Function to get file info of an EIN\n     * @param _ein is the owner EIN\n     * @param _fileIndex is index of the file\n     */\n    function getFileOtherInfo(uint _ein, uint _fileIndex)\n    external view\n    returns (uint32 timestamp, uint associatedGroupIndex, uint associatedGroupFileIndex) {\n        // Logic\n        (timestamp, associatedGroupIndex, associatedGroupFileIndex) = files[_ein][_fileIndex].getFileOtherInfo();\n    }\n\n    /**\n     * @dev Function to get file tranfer info of an EIN\n     * @param _ein is the owner EIN\n     * @param _fileIndex is index of the file\n     */\n    function getFileTransferInfo(uint _ein, uint _fileIndex)\n    external view\n    returns (uint transCount, uint transEIN, uint transIndex, bool forTrans) {\n        // Logic\n        (transCount, transEIN, transIndex, forTrans) = files[_ein][_fileIndex].getFileTransferInfo();\n    }\n\n    /**\n     * @dev Function to get file tranfer owner info of an EIN\n     * @param _ein is the owner EIN\n     * @param _fileIndex is index of the file\n     * @param _transferIndex is index to poll\n     */\n    function getFileTransferOwners(uint _ein, uint _fileIndex, uint _transferIndex)\n    external view\n    returns (uint recipientEIN) {\n        recipientEIN = files[_ein][_fileIndex].getFileTransferOwners(_transferIndex);\n    }\n\n    /**\n     * @dev Function to add File\n     * @param _protocol is the protocol used\n     * @param _protocolMeta is the metadata used by the protocol if any\n     * @param _name is the name of the file\n     * @param _hash1 is the first split hash of the stored file\n     * @param _hash2 is the second split hash of the stored file\n     * @param _encrypted defines if the file is encrypted or not\n     * @param _encryptedHash defines the encrypted public key password for the sender address\n     * @param _groupIndex defines the index of the group of file\n     */\n    function addFile(uint8 _op, uint8 _protocol, bytes memory _protocolMeta, \n    bytes32 _name, bytes32 _hash1, bytes32 _hash2, \n    bool _encrypted, string memory _encryptedHash, uint _groupIndex)\n    public {\n        // Get user EIN\n        uint ein = identityRegistry.getEIN(msg.sender);\n\n        // Check constraints\n        _groupIndex.condValidItem(groupCount[ein]);\n        usermeta[ein].condFilesOpFree();\n        usermeta[ein].condGroupsOpFree();\n        \n        // Set File & Group Atomicity\n        usermeta[ein].lockFiles = true;\n        usermeta[ein].lockGroups = true;\n\n        // To fill with global index if need be\n        uint i1;\n        uint i2;\n        \n        // Create File\n        uint nextIndex;\n            \n        // OP 0 - Normal | 1 - Avatar\n        if (_op == 0) {\n            // Reserve Global Index\n            (i1, i2) = _reserveGlobalItemSlot();\n        \n            // Create File Next Index\n            nextIndex = fileCount[ein] + 1;\n        \n            globalItems.addItemToGlobalItems(i1, i2, ein, nextIndex, true, false, false);\n        }\n        \n        // Finally create the file it to User (EIN)\n        files[ein][nextIndex].createFileObject(IceGlobal.GlobalRecord(i1, i2), _protocol, _protocolMeta, _name, _hash1, _hash2, _encrypted, _groupIndex, groups[ein][_groupIndex].groupFilesCount);\n        \n        // OP 0 - Normal | 1 - Avatar\n        if (_op == 0) {\n            fileCount[ein] = files[ein][nextIndex].writeFile(groups[ein][_groupIndex], _groupIndex, fileOrder[ein], fileCount[ein], nextIndex, ein, _encryptedHash);\n        }\n        else if (_op == 1) {\n            usermeta[ein].hasAvatar = true;\n        }\n        \n        // Trigger Event\n        emit FileCreated(ein, (fileCount[ein] + 1), IceUtil.bytes32ToString(_name));\n\n        // Reset Files & Group Atomicity\n        usermeta[ein].lockFiles = false;\n        usermeta[ein].lockGroups = false;\n    }\n\n    /**\n     * @dev Function to change File Name\n     * @param _fileIndex is the index where file is stored\n     * @param _name is the name of stored file\n     */\n    function changeFileName(uint _fileIndex, bytes32 _name)\n    external {\n        // Get user EIN\n        uint ein = identityRegistry.getEIN(msg.sender);\n\n        // Logic\n        files[ein][_fileIndex].name = _name;\n\n        // Trigger Event\n        emit FileRenamed(ein, _fileIndex, IceUtil.bytes32ToString(_name));\n    }\n\n    /**\n     * @dev Function to move file to another group\n     * @param _fileIndex is the index where file is stored\n     * @param _newGroupIndex is the index of the new group where file has to be moved\n     */\n    function moveFileToGroup(uint _fileIndex, uint _newGroupIndex)\n    external {\n        // Get user EIN\n        uint ein = identityRegistry.getEIN(msg.sender);\n\n        // Logic\n        uint GFIndex = files[ein][_fileIndex].moveFileToGroup(groups[ein], groupOrder[ein], _newGroupIndex, globalItems, usermeta[ein]);\n\n        // Trigger Event\n        emit FileMoved(ein, _fileIndex, _newGroupIndex, GFIndex);\n    }\n\n    /**\n     * @dev Function to delete file of the owner\n     * @param _fileIndex is the index where file is stored\n     */\n    function deleteFile(uint _fileIndex)\n    external {\n        // Get user EIN\n        uint ein = identityRegistry.getEIN(msg.sender);\n\n        // Delegate the call\n        _deleteFileAnyOwner(ein, _fileIndex);\n    }\n\n    /**\n     * @dev Function to delete file of any EIN\n     * @param _ein is the owner EIN\n     * @param _fileIndex is the index where file is stored\n     */\n    function _deleteFileAnyOwner(uint _ein, uint _fileIndex)\n    internal {\n        // Logic\n        files[_ein].deleteFile(\n            _ein, \n            _fileIndex, \n            fileOrder[_ein], \n            fileCount, \n            groups[_ein][files[_ein][_fileIndex].associatedGroupIndex], \n            groupOrder[_ein][files[_ein][_fileIndex].associatedGroupIndex],\n            shares,\n            shareOrder,\n            shareCount,\n            usermeta,\n            globalItems\n        );\n        \n        // Trigger Event\n        emit FileDeleted(_ein, _fileIndex);\n    }\n\n    // 4. GROUP FILES FUNCTIONS\n    /**\n     * @dev Function to get all the files of an EIN associated with a group\n     * @param _ein is the owner EIN\n     * @param _groupIndex is the index where group is stored\n     * @param _seedPointer is the seed of the order from which it should begin\n     * @param _limit is the limit of file indexes requested\n     * @param _asc is the order by which the files will be presented\n     */\n    function getGroupFileIndexes(uint _ein, uint _groupIndex, uint _seedPointer, uint16 _limit, bool _asc)\n    external view\n    returns (uint[20] memory groupFileIndexes) {\n        return groups[_ein][_groupIndex].groupFilesOrder.getIndexes(_seedPointer, _limit, _asc);\n    }\n\n    // 3. GROUP FUNCTIONS\n    /**\n     * @dev Function to return group info for an EIN\n     * @param _ein the EIN of the user\n     * @param _groupIndex the index of the group\n     * @return index is the index of the group\n     * @return name is the name associated with the group\n     */\n    function getGroup(uint _ein, uint _groupIndex)\n    external view\n    returns (uint index, string memory name) {\n        // Check constraints\n        _groupIndex.condValidItem(groupCount[_ein]);\n\n        // Logic flow\n        index = _groupIndex;\n\n        if (_groupIndex == 0) {\n            name = \"Root\";\n        }\n        else {\n            name = groups[_ein][_groupIndex].name;\n        }\n    }\n\n    /**\n     * @dev Function to return group indexes used to retrieve info about group\n     * @param _ein the EIN of the user\n     * @param _seedPointer is the pointer (index) of the order mapping\n     * @param _limit is the number of indexes to return, capped at 20\n     * @param _asc is the order of group indexes in Ascending or Descending order\n     * @return groupIndexes the indexes of the groups associated with the ein in the preferred order\n     */\n    function getGroupIndexes(uint _ein, uint _seedPointer, uint16 _limit, bool _asc)\n    external view\n    returns (uint[20] memory groupIndexes) {\n        groupIndexes = groupOrder[_ein].getIndexes(_seedPointer, _limit, _asc);\n    }\n\n    /**\n     * @dev Create a new Group for the user\n     * @param _groupName describes the name of the group\n     */\n    function createGroup(string memory _groupName)\n    public {\n        // Get user EIN\n        uint ein = identityRegistry.getEIN(msg.sender);\n        \n        // Check Restrictions\n        usermeta[ein].condGroupsOpFree();\n\n        // Set Group Atomicity\n        usermeta[ein].lockGroups = true;\n\n        // Reserve Global Index\n        uint i1;\n        uint i2;\n        (i1, i2) = _reserveGlobalItemSlot();\n\n        // Check if this is unitialized, if so, initialize it, reserved value of 0 is skipped as that's root\n        uint currentGroupIndex = groupCount[ein];\n        uint nextGroupIndex = currentGroupIndex + 1;\n        \n        // Add to Global Items as well\n        globalItems.addItemToGlobalItems(i1, i2, ein, nextGroupIndex, false, false, false);\n        \n        // Assign it to User (EIN)\n        groups[ein][nextGroupIndex] = IceFMS.Group(\n            IceGlobal.GlobalRecord( // Add Record to struct\n                i1,\n                i2\n            ),\n\n            _groupName, //name of Group\n            0 // The group file count\n        );\n\n        // Add to Stitch Order & Increment index\n        groupCount[ein] = groupOrder[ein].addToSortOrder(currentGroupIndex, 0);\n\n        // Trigger Event\n        emit GroupCreated(ein, nextGroupIndex, _groupName);\n\n        // Reset Group Atomicity\n        usermeta[ein].lockGroups = false;\n    }\n\n    /**\n     * @dev Rename an existing Group for the user / ein\n     * @param _groupIndex describes the associated index of the group for the user / ein\n     * @param _groupName describes the new name of the group\n     */\n    function renameGroup(uint _groupIndex, string calldata _groupName)\n    external  {\n        // Get user EIN\n        uint ein = identityRegistry.getEIN(msg.sender);\n\n        // Check Restrictions\n        _isNonReservedItem(_groupIndex);\n        _groupIndex.condValidItem(groupCount[ein]);\n\n        // Replace the group name\n        groups[ein][_groupIndex].name = _groupName;\n\n        // Trigger Event\n        emit GroupRenamed(ein, _groupIndex, _groupName);\n    }\n\n    /**\n     * @dev Delete an existing group for the user / ein\n     * @param _groupIndex describes the associated index of the group for the user / ein\n     */\n    function deleteGroup(uint _groupIndex)\n    external {\n        // Get user EIN\n        uint ein = identityRegistry.getEIN(msg.sender);\n\n        // Check Restrictions\n        _isGroupFileFree(ein, _groupIndex); // Check that Group contains no Files\n        _isNonReservedItem(_groupIndex);\n        _groupIndex.condValidItem(groupCount[ein]);\n        usermeta[ein].condGroupsOpFree();\n\n        // Set Group Atomicity\n        usermeta[ein].lockGroups = true;\n\n        // Check if the group exists or not\n        uint currentGroupIndex = groupCount[ein];\n\n        // Remove item from sharing of other users\n        IceGlobal.Association storage globalItem = groups[ein][_groupIndex].rec.getGlobalItemViaRecord(globalItems);\n        shares.removeAllShares(globalItem, shareOrder, shareCount, usermeta, ein);\n        \n        // Deactivate from global record\n        globalItem.deleteGlobalRecord();\n\n        // Swap Index mapping & remap the latest group ID if this is not the last group\n        groups[ein][_groupIndex] = groups[ein][currentGroupIndex];\n        groupCount[ein] = groupOrder[ein].stichSortOrder(_groupIndex, currentGroupIndex, 0);\n\n        // Delete the latest group now\n        delete (groups[ein][currentGroupIndex]);\n\n        // Trigger Event\n        emit GroupDeleted(ein, _groupIndex, currentGroupIndex);\n\n        // Reset Group Atomicity\n        usermeta[ein].lockGroups = false;\n    }\n\n    // 4. SHARING FUNCTIONS\n    /**\n     * @dev Function to share an item to other users, always called by owner of the Item\n     * @param _toEINs are the array of EINs which the item should be shared to\n     * @param _itemIndex is the index of the item to be shared to\n     * @param _isFile indicates if the item is file or group\n     */\n    function shareItemToEINs(uint[] calldata _toEINs, uint _itemIndex, bool _isFile)\n    external {\n        // Get user EIN\n        uint ein = identityRegistry.getEIN(msg.sender);\n        \n        // Check if item is file or group and accordingly check if Item is valid & Logic\n        if (_isFile == true) { \n            _itemIndex.condValidItem(fileCount[ein]);\n            shares.shareItemToEINs(globalItems, shareOrder, shareCount, usermeta, blacklist, files[ein][_itemIndex].rec, ein, _toEINs);\n        }\n        else {\n            _itemIndex.condValidItem(groupCount[ein]);\n            shares.shareItemToEINs(globalItems, shareOrder, shareCount, usermeta, blacklist, groups[ein][_itemIndex].rec, ein, _toEINs);\n        }\n    }\n\n    /**\n     * @dev Function to remove a shared item from the multiple user's mapping, always called by owner of the Item\n     * @param _fromEINs are the EINs to which the item should be removed from sharing\n     * @param _itemIndex is the index of the item on the owner's mapping\n     * @param _isFile indicates if the item is file or group \n     */\n    function removeShareFromEINs(uint[32] memory _fromEINs, uint _itemIndex, bool _isFile)\n    public {\n        // Get user EIN\n        uint ein = identityRegistry.getEIN(msg.sender);\n\n        // Check if item is file or group and accordingly check if Item is valid & Logic\n        IceGlobal.GlobalRecord memory rec;\n        if (_isFile == true) { \n            _itemIndex.condValidItem(fileCount[ein]);\n            rec = files[ein][_itemIndex].rec;\n        }\n        else {\n            _itemIndex.condValidItem(groupCount[ein]);\n            rec = files[ein][_itemIndex].rec;\n        }\n        \n        shares.removeShareFromEINs(globalItems[rec.i1][rec.i2], shareOrder, shareCount, usermeta, ein, _fromEINs);\n    }\n    \n    \n    /**\n     * @dev Function to remove shared item by the user to whom the item is shared\n     * @param _itemIndex is the index of the item in shares\n     */\n    function removeSharingItemBySharee(uint _itemIndex) \n    external {\n        // Logic\n        uint shareeEIN = identityRegistry.getEIN(msg.sender);\n        IceGlobal.Association storage globalItem = shares[shareeEIN][_itemIndex].getGlobalItemViaRecord(globalItems);\n        \n        shares[shareeEIN].removeSharingItemBySharee(globalItem, shareOrder[shareeEIN], shareCount, usermeta[shareeEIN], shareeEIN);\n    }\n    \n    // 5. STAMPING FUNCTIONS\n    \n    // 6. TRANSFER FILE FUNCTIONS\n    /**\n     * @dev Function to intiate file transfer to another EIN(user)\n     * @param _fileIndex is the index of file for the original user's EIN\n     * @param _transfereeEIN is the recipient user's EIN\n     */\n    // function initiateFileTransfer(uint _fileIndex, uint _transfereeEIN)\n    // external {\n    //     // Get user EIN\n    //     uint ein = identityRegistry.getEIN(msg.sender);\n\n    //     // Check Restrictions\n    //     _isValidEIN(_transfereeEIN); // Check Valid EIN\n    //     _isUnqEIN(ein, _transfereeEIN); // Check EINs and Unique\n    //     _isUnstampedItem(files[ein][_fileIndex].rec); // Check if the File is not stamped\n    //     _isUnstampedItem(groups[ein][files[ein][_fileIndex].associatedGroupIndex].rec); // Check if the Group is not stamped\n    //     blacklist[_transfereeEIN].condNotInList(ein); // Check if The transfee hasn't blacklisted the file owner\n    //     usermeta[ein].condTransfersOpFree(); // Check if Transfers are not locked for current user\n    //     usermeta[_transfereeEIN].condTransfersOpFree(); // Check if the transfers are not locked for recipient user\n\n    //     // Set Transfers Atomiticy\n    //     usermeta[ein].lockTransfers = true;\n    //     usermeta[_transfereeEIN].lockTransfers = true;\n\n    //     // Check and change flow if white listed\n    //     if (whitelist[_transfereeEIN][ein] == true) {\n    //         // Directly transfer file, 0 is always root group\n    //         _doFileTransfer(ein, _fileIndex, _transfereeEIN, 0);\n    //     }\n    //     else {\n    //       // Request based file Transfers\n    //       _initiateRequestedFileTransfer(ein, _fileIndex, _transfereeEIN);\n    //     }\n\n    //     // Reset Transfers Atomiticy\n    //     usermeta[ein].lockTransfers = false;\n    //     usermeta[_transfereeEIN].lockTransfers = false;\n    // }\n\n    // /**\n    //  * @dev Function to accept file transfer from a user\n    //  * @param _transfererEIN is the previous(current) owner EIN\n    //  * @param _fileIndex is the index where file is stored\n    //  * @param _transferSpecificIndex is the file mapping stored no the recipient transfers mapping\n    //  * @param _groupIndex is the index of the group where the file is suppose to be for the recipient\n    //  */\n    // function acceptFileTransfer(uint _transfererEIN, uint _fileIndex, uint _transferSpecificIndex, uint _groupIndex)\n    // external {\n    //     // Get user EIN | Transferee initiates this\n    //     uint ein = identityRegistry.getEIN(msg.sender);\n\n    //     // Check Restrictions\n    //     _isMarkedForTransferee(_transfererEIN, _fileIndex, ein); // Check if the file is marked for transfer to the recipient\n    //     usermeta[_transfererEIN].condTransfersOpFree(); // Check that the transfers are not locked for the sender of the file\n    //     usermeta[ein].condTransfersOpFree(); // Check that the transfers are not locked for the recipient of the file\n\n    //     // Set Transfers Atomiticy\n    //     usermeta[_transfererEIN].lockTransfers = true;\n    //     usermeta[ein].lockTransfers = true;\n\n    //     // Check if the item is marked for transfer\n    //     require (\n    //         (files[_transfererEIN][_fileIndex].markedForTransfer == true),\n    //         \"Can't proceed, item is not marked for Transfer.\"\n    //     );\n\n    //     // Do file transfer\n    //     _doFileTransfer(_transfererEIN, _fileIndex, ein, _groupIndex);\n\n    //     // Finally remove the file from Tranferee Mapping\n    //     _removeFileFromTransfereeMapping(ein, _transferSpecificIndex);\n\n    //     // Reset Transfers Atomiticy\n    //     usermeta[_transfererEIN].lockTransfers = false;\n    //     usermeta[ein].lockTransfers = false;\n    // }\n\n    // /**\n    //  * @dev Function to cancel file transfer inititated by the current owner\n    //  * @param _fileIndex is the index where file is stored\n    //  * @param _transfereeEIN is the EIN of the user to whom the file needs to be transferred\n    //  */\n    // function cancelFileTransfer(uint _fileIndex, uint _transfereeEIN)\n    // external {\n    //     // Get user EIN | Transferee initiates this\n    //     uint ein = identityRegistry.getEIN(msg.sender);\n\n    //     // Check Restrictions\n    //     usermeta[_transfereeEIN].condTransfersOpFree(); \n    //     usermeta[ein].condTransfersOpFree();\n\n    //     // Set Transfers Atomiticy\n    //     usermeta[ein].lockTransfers = true;\n    //     usermeta[_transfereeEIN].lockTransfers = true;\n\n    //     // Check if the item is marked for transfer\n    //     require (\n    //         (files[ein][_fileIndex].markedForTransfer == true),\n    //         \"Transfer Prohibited\"\n    //     );\n\n    //     // Cancel file transfer\n    //     files[ein][_fileIndex].markedForTransfer = false;\n\n    //     // Remove file from  transferee\n    //     uint transferSpecificIndex = files[ein][_fileIndex].transferIndex;\n    //     _removeFileFromTransfereeMapping(_transfereeEIN, transferSpecificIndex);\n\n    //     // Reset Transfers Atomiticy\n    //     usermeta[ein].lockTransfers = false;\n    //     usermeta[_transfereeEIN].lockTransfers = false;\n    // }\n    \n    // /**\n    //  * @dev Private Function to initiate requested file transfer\n    //  * @param _transfererEIN is the owner EIN\n    //  * @param _fileIndex is the index where file is stored\n    //  * @param _transfereeEIN is the EIN of the user to whom the file needs to be transferred\n    //  */\n    // function _initiateRequestedFileTransfer(uint _transfererEIN, uint _fileIndex, uint _transfereeEIN)\n    // internal {\n    //      // Map it to transferee mapping of transfers\n    //     // Add to transfers of TransfereeEIN User, 0 is always reserved\n    //     uint currentTransferIndex = transferIndex[_transfereeEIN];\n    //     uint nextTransferIndex = currentTransferIndex + 1;\n\n    //     require (\n    //         (nextTransferIndex > currentTransferIndex),\n    //         \"Limit reached on number of transfers, can't transfer more files to that EIN (User) till they clear it up.\"\n    //     );\n\n    //     // Mark the file for transfer\n    //     files[_transfererEIN][_fileIndex].markedForTransfer = true;\n    //     files[_transfererEIN][_fileIndex].transferEIN = _transfereeEIN;\n    //     files[_transfereeEIN][_fileIndex].transferIndex = nextTransferIndex;\n\n    //     // Get Item Association Index\n    //     uint index1;\n    //     uint index2;\n    //     (index1, index2) = files[_transfererEIN][_fileIndex].rec.getGlobalItemViaRecord();\n\n    //     // Check Item is file\n    //     require (\n    //         (globalItems[index1][index2].isFile == true),\n    //         \"Non-Transferable\"\n    //     );\n\n    //     // Create New Transfer\n    //     transfers[_transfereeEIN][nextTransferIndex] = globalItems[index1][index2];\n\n    //     // Update sort order and index\n    //     transferIndex[_transfereeEIN] = transferOrder[_transfererEIN].addToSortOrder(currentTransferIndex, 0);\n\n    //     // Trigger Event\n    //     emit FileTransferInitiated(_transfererEIN, _transfereeEIN, _fileIndex);\n    // }\n    \n    // /**\n    //  * @dev Private Function to do file transfer from previous (current) owner to new owner\n    //  * @param _transfererEIN is the previous(current) owner EIN\n    //  * @param _fileIndex is the index where file is stored\n    //  * @param _transfereeEIN is the EIN of the user to whom the file needs to be transferred\n    //  * @param _groupIndex is the index of the group where the file is suppose to be for the recipient\n    //  */\n    // function _doFileTransfer(uint _transfererEIN, uint _fileIndex, uint _transfereeEIN, uint _groupIndex)\n    // internal {\n    //     // Get Indexes\n    //     uint currentTransfererIndex = fileCount[_transfererEIN];\n    //     uint currentTransfereeIndex = fileCount[_transfereeEIN];\n\n    //     uint prevTransfererIndex = currentTransfererIndex - 1;\n    //     require (\n    //         (prevTransfererIndex >= 0),\n    //         \"No file found in the transferer db\"\n    //     );\n\n    //     uint nextTransfereeIndex =  currentTransfereeIndex + 1;\n    //     require (\n    //         (nextTransfereeIndex > currentTransfereeIndex),\n    //         \"Trasnferee User has run out of transfer slots.\"\n    //     );\n\n    //     // Transfer the file to the transferee & Delete it for transferer\n    //     files[_transfereeEIN][nextTransfereeIndex] = files[_transfererEIN][_fileIndex];\n    //     _deleteFileAnyOwner(_transfererEIN, _fileIndex);\n\n    //     // Change file properties and transfer history\n    //     uint8 tc = files[_transfereeEIN][nextTransfereeIndex].transferCount;\n    //     tc = tc + 1;\n    //     require (\n    //         (tc > 0),\n    //         \"Transfers Full\"\n    //     );\n\n    //     files[_transfereeEIN][nextTransfereeIndex].transferHistory[tc] = _transfereeEIN;\n    //     files[_transfereeEIN][nextTransfereeIndex].markedForTransfer = false;\n    //     files[_transfereeEIN][nextTransfereeIndex].transferCount = tc;\n\n    //     // add to transferee sort order & Increment index\n    //     fileCount[_transfereeEIN] = fileOrder[_transfereeEIN].addToSortOrder(currentTransfereeIndex, 0);\n\n    //     // Add File to transferee group\n    //     groups[_transfereeEIN][_groupIndex].addFileToGroup(_groupIndex, fileCount[_transfereeEIN]);\n\n    //     // Get global association\n    //     uint index1;\n    //     uint index2;\n    //     (index1, index2) = files[_transfereeEIN][_fileIndex].rec.getGlobalItemViaRecord();\n\n    //     // Update global file association\n    //     globalItems[index1][index2].ownerInfo.EIN = _transfereeEIN;\n    //     globalItems[index1][index2].ownerInfo.index = nextTransfereeIndex;\n    // }\n\n    // /**\n    //  * @dev Private Function to remove file from Transfers mapping of Transferee after file is transferred to them\n    //  * @param _transfereeEIN is the new owner EIN\n    //  * @param _transferSpecificIndex is the index of the association mapping of transfers\n    //  */\n    // function _removeFileFromTransfereeMapping(uint _transfereeEIN, uint _transferSpecificIndex)\n    // internal {\n    //     // Get Cureent Transfer Index\n    //     uint currentTransferIndex = transferIndex[_transfereeEIN];\n\n    //     require (\n    //         (currentTransferIndex > 0),\n    //         \"Index Not Found\"\n    //     );\n\n    //     // Remove the file from transferer, ie swap mapping and stich sort order\n    //     transfers[_transfereeEIN][_transferSpecificIndex] = transfers[_transfereeEIN][currentTransferIndex];\n    //     transferIndex[_transfereeEIN] = transferOrder[_transfereeEIN].stichSortOrder(_transferSpecificIndex, currentTransferIndex, 0);\n\n    //     // Retrive the swapped item record and change the transferIndex to remap correctly\n    //     IceGlobal.Association memory item = transfers[_transfereeEIN][_transferSpecificIndex];\n\n    //     if (item.isFile == true) {\n    //         //Only File is supported\n    //         files[item.ownerInfo.EIN][item.ownerInfo.index].transferIndex = _transferSpecificIndex;\n    //     }\n    // }\n\n    // // 7. WHITELIST / BLACKLIST FUNCTIONS\n    // /**\n    //  * @dev Add a non-owner user to whitelist\n    //  * @param _nonOwnerEIN is the ein of the recipient\n    //  */\n    // function addToWhitelist(uint _nonOwnerEIN)\n    // external {\n    //     // Logic\n    //     uint ein = identityRegistry.getEIN(msg.sender);\n    //     whitelist[ein].addToWhitelist(_nonOwnerEIN, blacklist[ein]);\n\n    //     // Trigger Event\n    //     emit AddedToWhitelist(ein, _nonOwnerEIN);\n    // }\n\n    // /**\n    //  * @dev Remove a non-owner user from whitelist\n    //  * @param _nonOwnerEIN is the ein of the recipient\n    //  */\n    // function removeFromWhitelist(uint _nonOwnerEIN)\n    // external {\n    //     // Logic\n    //     uint ein = identityRegistry.getEIN(msg.sender);\n    //     whitelist[ein].removeFromWhitelist(_nonOwnerEIN, blacklist[ein]);\n\n    //     // Trigger Event\n    //     emit RemovedFromWhitelist(ein, _nonOwnerEIN);\n    // }\n\n    // /**\n    //  * @dev Remove a non-owner user to blacklist\n    //  * @param _nonOwnerEIN is the ein of the recipient\n    //  */\n    // function addToBlacklist(uint _nonOwnerEIN)\n    // external {\n    //     // Logic\n    //     uint ein = identityRegistry.getEIN(msg.sender);\n    //     blacklist[ein].addToBlacklist(_nonOwnerEIN, whitelist[ein]);\n\n    //     // Trigger Event\n    //     emit AddedToBlacklist(ein, _nonOwnerEIN);\n    // }\n\n    // /**\n    //  * @dev Remove a non-owner user from blacklist\n    //  * @param _nonOwnerEIN is the ein of the recipient\n    //  */\n    // function removeFromBlacklist(uint _nonOwnerEIN)\n    // external {\n    //     // Logic\n    //     uint ein = identityRegistry.getEIN(msg.sender);\n    //     blacklist[ein].removeFromBlacklist(_nonOwnerEIN, whitelist[ein]);\n\n    //     // Trigger Event\n    //     emit RemovedFromBlacklist(ein, _nonOwnerEIN);\n    // }\n\n    // *. GENERAL CONTRACT HELPERS\n    /** @dev Private Function to append two strings together\n     * @param a the first string\n     * @param b the second string\n     */\n    function _append(string memory a, string memory b)\n    internal pure\n    returns (string memory) {\n        return string(abi.encodePacked(a, b));\n    }\n\n    /* ***************\n    * DEFINE MODIFIERS AS INTERNAL VIEW FUNTIONS\n    *************** */\n    /**\n     * @dev Private Function to check that only owner can have access\n     * @param _ein The EIN of the file Owner\n     */\n    function _isOwner(uint _ein)\n    internal view {\n        require (\n            (identityRegistry.getEIN(msg.sender) == _ein),\n            \"Only Owner\"\n        );\n    }\n\n    /**\n     * @dev Private Function to check that only non-owner can have access\n     * @param _ein The EIN of the file Owner\n     */\n    function _isNonOwner(uint _ein)\n    internal view {\n        require (\n            (identityRegistry.getEIN(msg.sender) != _ein),\n            \"Only Non-Owner\"\n        );\n    }\n\n    /**\n     * @dev Private Function to check that only valid EINs can have access\n     * @param _ein The EIN of the Passer\n     */\n    function _isValidEIN(uint _ein)\n    internal view {\n        require (\n            (identityRegistry.identityExists(_ein) == true),\n            \"EIN not Found\"\n        );\n    }\n\n    /**\n     * @dev Private Function to check that only unique EINs can have access\n     * @param _ein1 The First EIN\n     * @param _ein2 The Second EIN\n     */\n    function _isUnqEIN(uint _ein1, uint _ein2)\n    internal pure {\n        require (\n            (_ein1 != _ein2),\n            \"Same EINs\"\n        );\n    }\n    \n    /**\n     * @dev Private Function to check that a file has been marked for transferee EIN\n     * @param _fileIndex The index of the file\n     */\n    function _isMarkedForTransferee(uint _fileOwnerEIN, uint _fileIndex, uint _transfereeEIN)\n    internal view {\n        // Check if the group file exists or not\n        require (\n            (files[_fileOwnerEIN][_fileIndex].transferEIN == _transfereeEIN),\n            \"File not marked for Transfers\"\n        );\n    }\n\n    /**\n     * @dev Private Function to check that Rooot ID = 0 is not modified as this is root\n     * @param _index The index to check\n     */\n    function _isNonReservedItem(uint _index)\n    internal pure {\n        require (\n            (_index > 0),\n            \"Reserved Item\"\n        );\n    }\n\n    /**\n     * @dev Private Function to check that Group Order is valid\n     * @param _ein is the EIN of the target user\n     * @param _groupIndex The index of the group order\n     */\n    function _isGroupFileFree(uint _ein, uint _groupIndex)\n    internal view {\n        require (\n            (groups[_ein][_groupIndex].groupFilesCount == 0),\n            \"Group has Files\"\n        );\n    }\n\n    // *. FOR DEBUGGING CONTRACT\n    // To Build Groups & File System for users\n    function debugBuildFS()\n    public {\n        createGroup(\"A.Images\");\n        createGroup(\"B.Movies\");\n        createGroup(\"C.Crypto\");\n        createGroup(\"D.Others\");\n        createGroup(\"E.AdobeContract\");\n\n        // Create Files\n        // addFile(_op, _protocol, _protocolMeta, _name,  _hash1, _hash2, _encrypted, _encryptedHash, _groupIndex)\n        addFile(0, 1, bytes(\"0x00\"), IceUtil.stringToBytes32(\"index\"), IceUtil.stringToBytes32(\"QmTecWfmvvsPdZXuYrLgCTqRj9YgBiAU\"), IceUtil.stringToBytes32(\"L4ZCr9iwDnp9q7\"), false, \"\", 0);\n        addFile(0, 1, bytes(\"0x00\"), IceUtil.stringToBytes32(\"family\"), IceUtil.stringToBytes32(\"QmTecWfmvvsPdZXuYrLgCTqRj9YgBiAU\"), IceUtil.stringToBytes32(\"L4ZCr9iwDnp9q7\"), false, \"\", 0);\n        addFile(0, 1, bytes(\"0x00\"), IceUtil.stringToBytes32(\"myportrait\"), IceUtil.stringToBytes32(\"QmTecWfmvvsPdZXuYrLgCTqRj9YgBiAU\"), IceUtil.stringToBytes32(\"L4ZCr9iwDnp9q7\"), false, \"\", 0);\n        addFile(0, 1, bytes(\"0x00\"), IceUtil.stringToBytes32(\"cutepic\"), IceUtil.stringToBytes32(\"QmTecWfmvvsPdZXuYrLgCTqRj9YgBiAU\"), IceUtil.stringToBytes32(\"L4ZCr9iwDnp9q7\"), false, \"\", 0);\n        addFile(0, 1, bytes(\"0x00\"), IceUtil.stringToBytes32(\"awesome\"), IceUtil.stringToBytes32(\"QmTecWfmvvsPdZXuYrLgCTqRj9YgBiAU\"), IceUtil.stringToBytes32(\"L4ZCr9iwDnp9q7\"), false, \"\", 0);\n    }\n\n    // Get Indexes with Names for EIN\n    // _for = 1 is Files, 2 is GroupFiles, 3 is Groups\n    function debugIndexesWithNames(uint _ein, uint _groupIndex, uint _seedPointer, uint16 _limit, bool _asc, uint8 _for)\n    external view\n    returns (uint[20] memory _indexes, string memory _names) {\n\n        if (_for == 1) {\n            _indexes = fileOrder[_ein].getIndexes(_seedPointer, _limit, _asc);\n        }\n        else if (_for == 2) {\n            _indexes = groups[_ein][_groupIndex].groupFilesOrder.getIndexes(_seedPointer, _limit, _asc);\n        }\n        else if (_for == 3) {\n            _indexes = groupOrder[_ein].getIndexes(_seedPointer, _limit, _asc);\n        }\n        else if (_for == 4) {\n            _indexes = shareOrder[_ein].getIndexes(_seedPointer, _limit, _asc);\n        }\n\n        uint16 i = 0;\n        bool completed = false;\n\n        while (completed == false) {\n            string memory name;\n\n            // Get Name\n            if (_for == 1 || _for == 2) {\n                name = IceUtil.bytes32ToString(files[_ein][_indexes[i]].name);\n            }\n            else if (_for == 3) {\n                name = groups[_ein][_indexes[i]].name;\n            }\n            else if (_for == 4) {\n                IceGlobal.GlobalRecord memory record = shares[_ein][_indexes[i]];\n                IceGlobal.ItemOwner memory owner = globalItems[record.i1][record.i2].ownerInfo;\n                \n                if (globalItems[record.i1][record.i2].isFile == true) {\n                    name = IceUtil.bytes32ToString(files[owner.EIN][owner.index].name);\n                } \n                else {\n                    name = groups[owner.EIN][owner.index].name;\n                }\n            }\n\n            // Add To Return Vars\n            name = _append(name, \"|\");\n            _names = _append(_names, name);\n\n            i++;\n\n            // check status\n            if (i == _limit || (_indexes[i-1] == _indexes[i])) {\n                completed = true;\n            }\n        }\n    }\n}\n",
  "sourcePath": "/MAMPWeb/HydroIce/HydroIceContract/contracts/Ice.sol",
  "compiler": {
    "name": "solc",
    "version": "0.5.1+commit.c8a2cb62.Emscripten.clang"
  },
  "schemaVersion": "3.0.6",
  "updatedAt": "2019-06-14T08:17:01.498Z",
  "devdoc": {
    "author": "Harsh Rajat",
    "details": "This Contract forms File Storage / Stamping / Encryption part of Hydro Protocols",
    "methods": {
      "addFile(uint8,uint8,bytes,bytes32,bytes32,bytes32,bool,string,uint256)": {
        "details": "Function to add File",
        "params": {
          "_encrypted": "defines if the file is encrypted or not",
          "_encryptedHash": "defines the encrypted public key password for the sender address",
          "_groupIndex": "defines the index of the group of file",
          "_hash1": "is the first split hash of the stored file",
          "_hash2": "is the second split hash of the stored file",
          "_name": "is the name of the file",
          "_protocol": "is the protocol used",
          "_protocolMeta": "is the metadata used by the protocol if any"
        }
      },
      "changeFileName(uint256,bytes32)": {
        "details": "Function to change File Name",
        "params": {
          "_fileIndex": "is the index where file is stored",
          "_name": "is the name of stored file"
        }
      },
      "createGroup(string)": {
        "details": "Create a new Group for the user",
        "params": {
          "_groupName": "describes the name of the group"
        }
      },
      "deleteFile(uint256)": {
        "details": "Function to delete file of the owner",
        "params": {
          "_fileIndex": "is the index where file is stored"
        }
      },
      "deleteGroup(uint256)": {
        "details": "Delete an existing group for the user / ein",
        "params": {
          "_groupIndex": "describes the associated index of the group for the user / ein"
        }
      },
      "getFileIndexes(uint256,uint256,uint16,bool)": {
        "details": "Function to get all the files of an EIN",
        "params": {
          "_asc": "is the order by which the files will be presented",
          "_ein": "is the owner EIN",
          "_limit": "is the limit of file indexes requested",
          "_seedPointer": "is the seed of the order from which it should begin"
        }
      },
      "getFileInfo(uint256,uint256)": {
        "details": "Function to get file info of an EIN",
        "params": {
          "_ein": "is the owner EIN",
          "_fileIndex": "is index of the file"
        }
      },
      "getFileOtherInfo(uint256,uint256)": {
        "details": "Function to get file info of an EIN",
        "params": {
          "_ein": "is the owner EIN",
          "_fileIndex": "is index of the file"
        }
      },
      "getFileTransferInfo(uint256,uint256)": {
        "details": "Function to get file tranfer info of an EIN",
        "params": {
          "_ein": "is the owner EIN",
          "_fileIndex": "is index of the file"
        }
      },
      "getFileTransferOwners(uint256,uint256,uint256)": {
        "details": "Function to get file tranfer owner info of an EIN",
        "params": {
          "_ein": "is the owner EIN",
          "_fileIndex": "is index of the file",
          "_transferIndex": "is index to poll"
        }
      },
      "getGlobalItems(uint256,uint256)": {
        "details": "Function to get global items",
        "params": {
          "_index1": "is the first index of item",
          "_index2": "is the second index of item"
        }
      },
      "getGlobalItemsMapping(uint256,uint256,uint8,uint8)": {
        "details": "Function to get info of mapping to user for a specific global item",
        "params": {
          "_index1": "is the first index of global item",
          "_index2": "is the second index of global item",
          "_mappedIndex": "is the index",
          "_ofType": "indicates the type. 0 - shares, 1 - transferReqs"
        },
        "return": "mappedToEIN is the user (EIN)atIndex is the specific index in question"
      },
      "getGroup(uint256,uint256)": {
        "details": "Function to return group info for an EIN",
        "params": {
          "_ein": "the EIN of the user",
          "_groupIndex": "the index of the group"
        },
        "return": "index is the index of the groupname is the name associated with the group"
      },
      "getGroupFileIndexes(uint256,uint256,uint256,uint16,bool)": {
        "details": "Function to get all the files of an EIN associated with a group",
        "params": {
          "_asc": "is the order by which the files will be presented",
          "_ein": "is the owner EIN",
          "_groupIndex": "is the index where group is stored",
          "_limit": "is the limit of file indexes requested",
          "_seedPointer": "is the seed of the order from which it should begin"
        }
      },
      "getGroupIndexes(uint256,uint256,uint16,bool)": {
        "details": "Function to return group indexes used to retrieve info about group",
        "params": {
          "_asc": "is the order of group indexes in Ascending or Descending order",
          "_ein": "the EIN of the user",
          "_limit": "is the number of indexes to return, capped at 20",
          "_seedPointer": "is the pointer (index) of the order mapping"
        },
        "return": "groupIndexes the indexes of the groups associated with the ein in the preferred order"
      },
      "hideGlobalItem(uint256,uint256,bool)": {
        "details": "Function to get global items",
        "params": {
          "_index1": "is the first index of item",
          "_index2": "is the second index of item",
          "_isHidden": "is the flag to hide that item or not "
        }
      },
      "moveFileToGroup(uint256,uint256)": {
        "details": "Function to move file to another group",
        "params": {
          "_fileIndex": "is the index where file is stored",
          "_newGroupIndex": "is the index of the new group where file has to be moved"
        }
      },
      "removeShareFromEINs(uint256[32],uint256,bool)": {
        "details": "Function to remove a shared item from the multiple user's mapping, always called by owner of the Item",
        "params": {
          "_fromEINs": "are the EINs to which the item should be removed from sharing",
          "_isFile": "indicates if the item is file or group ",
          "_itemIndex": "is the index of the item on the owner's mapping"
        }
      },
      "removeSharingItemBySharee(uint256)": {
        "details": "Function to remove shared item by the user to whom the item is shared",
        "params": {
          "_itemIndex": "is the index of the item in shares"
        }
      },
      "renameGroup(uint256,string)": {
        "details": "Rename an existing Group for the user / ein",
        "params": {
          "_groupIndex": "describes the associated index of the group for the user / ein",
          "_groupName": "describes the new name of the group"
        }
      },
      "shareItemToEINs(uint256[],uint256,bool)": {
        "details": "Function to share an item to other users, always called by owner of the Item",
        "params": {
          "_isFile": "indicates if the item is file or group",
          "_itemIndex": "is the index of the item to be shared to",
          "_toEINs": "are the array of EINs which the item should be shared to"
        }
      }
    },
    "title": "Ice Protocol"
  },
  "userdoc": {
    "methods": {},
    "notice": "Create Protocol Less File Storage, Grouping, Hassle free Encryption / Decryption and Stamping using Snowflake"
  }
}