{
  "contractName": "Ice",
  "abi": [
    {
      "constant": true,
      "inputs": [
        {
          "name": "",
          "type": "uint256"
        },
        {
          "name": "",
          "type": "uint256"
        }
      ],
      "name": "stampingsRequestOrder",
      "outputs": [
        {
          "name": "next",
          "type": "uint256"
        },
        {
          "name": "prev",
          "type": "uint256"
        },
        {
          "name": "pointerID",
          "type": "uint256"
        },
        {
          "name": "active",
          "type": "bool"
        }
      ],
      "payable": false,
      "stateMutability": "view",
      "type": "function"
    },
    {
      "constant": true,
      "inputs": [],
      "name": "identityRegistry",
      "outputs": [
        {
          "name": "",
          "type": "address"
        }
      ],
      "payable": false,
      "stateMutability": "view",
      "type": "function"
    },
    {
      "constant": true,
      "inputs": [
        {
          "name": "",
          "type": "uint256"
        },
        {
          "name": "",
          "type": "uint256"
        }
      ],
      "name": "blacklist",
      "outputs": [
        {
          "name": "",
          "type": "bool"
        }
      ],
      "payable": false,
      "stateMutability": "view",
      "type": "function"
    },
    {
      "constant": true,
      "inputs": [],
      "name": "globalItemsIndex1",
      "outputs": [
        {
          "name": "",
          "type": "uint256"
        }
      ],
      "payable": false,
      "stateMutability": "view",
      "type": "function"
    },
    {
      "constant": true,
      "inputs": [
        {
          "name": "",
          "type": "uint256"
        }
      ],
      "name": "shareCount",
      "outputs": [
        {
          "name": "",
          "type": "uint256"
        }
      ],
      "payable": false,
      "stateMutability": "view",
      "type": "function"
    },
    {
      "constant": true,
      "inputs": [
        {
          "name": "",
          "type": "uint256"
        },
        {
          "name": "",
          "type": "uint256"
        }
      ],
      "name": "fileOrder",
      "outputs": [
        {
          "name": "next",
          "type": "uint256"
        },
        {
          "name": "prev",
          "type": "uint256"
        },
        {
          "name": "pointerID",
          "type": "uint256"
        },
        {
          "name": "active",
          "type": "bool"
        }
      ],
      "payable": false,
      "stateMutability": "view",
      "type": "function"
    },
    {
      "constant": true,
      "inputs": [
        {
          "name": "",
          "type": "uint256"
        }
      ],
      "name": "userAtomicity",
      "outputs": [
        {
          "name": "lockFiles",
          "type": "bool"
        },
        {
          "name": "lockGroups",
          "type": "bool"
        },
        {
          "name": "lockTransfers",
          "type": "bool"
        },
        {
          "name": "lockSharings",
          "type": "bool"
        }
      ],
      "payable": false,
      "stateMutability": "view",
      "type": "function"
    },
    {
      "constant": true,
      "inputs": [
        {
          "name": "",
          "type": "uint256"
        },
        {
          "name": "",
          "type": "uint256"
        }
      ],
      "name": "whitelist",
      "outputs": [
        {
          "name": "",
          "type": "bool"
        }
      ],
      "payable": false,
      "stateMutability": "view",
      "type": "function"
    },
    {
      "constant": true,
      "inputs": [
        {
          "name": "",
          "type": "uint256"
        }
      ],
      "name": "stampingsRequestCount",
      "outputs": [
        {
          "name": "",
          "type": "uint256"
        }
      ],
      "payable": false,
      "stateMutability": "view",
      "type": "function"
    },
    {
      "constant": false,
      "inputs": [],
      "name": "renounceOwnership",
      "outputs": [],
      "payable": false,
      "stateMutability": "nonpayable",
      "type": "function"
    },
    {
      "constant": true,
      "inputs": [],
      "name": "callOnAddition",
      "outputs": [
        {
          "name": "",
          "type": "bool"
        }
      ],
      "payable": false,
      "stateMutability": "view",
      "type": "function"
    },
    {
      "constant": true,
      "inputs": [
        {
          "name": "",
          "type": "uint256"
        },
        {
          "name": "",
          "type": "uint256"
        }
      ],
      "name": "groupOrder",
      "outputs": [
        {
          "name": "next",
          "type": "uint256"
        },
        {
          "name": "prev",
          "type": "uint256"
        },
        {
          "name": "pointerID",
          "type": "uint256"
        },
        {
          "name": "active",
          "type": "bool"
        }
      ],
      "payable": false,
      "stateMutability": "view",
      "type": "function"
    },
    {
      "constant": true,
      "inputs": [],
      "name": "snowflakeDescription",
      "outputs": [
        {
          "name": "",
          "type": "string"
        }
      ],
      "payable": false,
      "stateMutability": "view",
      "type": "function"
    },
    {
      "constant": true,
      "inputs": [],
      "name": "snowflakeName",
      "outputs": [
        {
          "name": "",
          "type": "string"
        }
      ],
      "payable": false,
      "stateMutability": "view",
      "type": "function"
    },
    {
      "constant": true,
      "inputs": [],
      "name": "owner",
      "outputs": [
        {
          "name": "",
          "type": "address"
        }
      ],
      "payable": false,
      "stateMutability": "view",
      "type": "function"
    },
    {
      "constant": true,
      "inputs": [],
      "name": "callOnRemoval",
      "outputs": [
        {
          "name": "",
          "type": "bool"
        }
      ],
      "payable": false,
      "stateMutability": "view",
      "type": "function"
    },
    {
      "constant": true,
      "inputs": [],
      "name": "isOwner",
      "outputs": [
        {
          "name": "",
          "type": "bool"
        }
      ],
      "payable": false,
      "stateMutability": "view",
      "type": "function"
    },
    {
      "constant": true,
      "inputs": [
        {
          "name": "",
          "type": "uint256"
        }
      ],
      "name": "transferIndex",
      "outputs": [
        {
          "name": "",
          "type": "uint256"
        }
      ],
      "payable": false,
      "stateMutability": "view",
      "type": "function"
    },
    {
      "constant": true,
      "inputs": [],
      "name": "globalItemsIndex2",
      "outputs": [
        {
          "name": "",
          "type": "uint256"
        }
      ],
      "payable": false,
      "stateMutability": "view",
      "type": "function"
    },
    {
      "constant": true,
      "inputs": [
        {
          "name": "",
          "type": "uint256"
        }
      ],
      "name": "groupCount",
      "outputs": [
        {
          "name": "",
          "type": "uint256"
        }
      ],
      "payable": false,
      "stateMutability": "view",
      "type": "function"
    },
    {
      "constant": true,
      "inputs": [
        {
          "name": "",
          "type": "uint256"
        },
        {
          "name": "",
          "type": "uint256"
        }
      ],
      "name": "stampingOrder",
      "outputs": [
        {
          "name": "next",
          "type": "uint256"
        },
        {
          "name": "prev",
          "type": "uint256"
        },
        {
          "name": "pointerID",
          "type": "uint256"
        },
        {
          "name": "active",
          "type": "bool"
        }
      ],
      "payable": false,
      "stateMutability": "view",
      "type": "function"
    },
    {
      "constant": false,
      "inputs": [
        {
          "name": "_snowflakeAddress",
          "type": "address"
        }
      ],
      "name": "setSnowflakeAddress",
      "outputs": [],
      "payable": false,
      "stateMutability": "nonpayable",
      "type": "function"
    },
    {
      "constant": true,
      "inputs": [
        {
          "name": "",
          "type": "uint256"
        }
      ],
      "name": "stampingCount",
      "outputs": [
        {
          "name": "",
          "type": "uint256"
        }
      ],
      "payable": false,
      "stateMutability": "view",
      "type": "function"
    },
    {
      "constant": true,
      "inputs": [
        {
          "name": "",
          "type": "uint256"
        },
        {
          "name": "",
          "type": "uint256"
        }
      ],
      "name": "transferOrder",
      "outputs": [
        {
          "name": "next",
          "type": "uint256"
        },
        {
          "name": "prev",
          "type": "uint256"
        },
        {
          "name": "pointerID",
          "type": "uint256"
        },
        {
          "name": "active",
          "type": "bool"
        }
      ],
      "payable": false,
      "stateMutability": "view",
      "type": "function"
    },
    {
      "constant": false,
      "inputs": [
        {
          "name": "newOwner",
          "type": "address"
        }
      ],
      "name": "transferOwnership",
      "outputs": [],
      "payable": false,
      "stateMutability": "nonpayable",
      "type": "function"
    },
    {
      "constant": true,
      "inputs": [
        {
          "name": "",
          "type": "uint256"
        }
      ],
      "name": "fileCount",
      "outputs": [
        {
          "name": "",
          "type": "uint256"
        }
      ],
      "payable": false,
      "stateMutability": "view",
      "type": "function"
    },
    {
      "constant": true,
      "inputs": [],
      "name": "snowflake",
      "outputs": [
        {
          "name": "",
          "type": "address"
        }
      ],
      "payable": false,
      "stateMutability": "view",
      "type": "function"
    },
    {
      "constant": true,
      "inputs": [],
      "name": "snowflakeAddress",
      "outputs": [
        {
          "name": "",
          "type": "address"
        }
      ],
      "payable": false,
      "stateMutability": "view",
      "type": "function"
    },
    {
      "constant": true,
      "inputs": [
        {
          "name": "",
          "type": "uint256"
        },
        {
          "name": "",
          "type": "uint256"
        }
      ],
      "name": "sharingOrder",
      "outputs": [
        {
          "name": "next",
          "type": "uint256"
        },
        {
          "name": "prev",
          "type": "uint256"
        },
        {
          "name": "pointerID",
          "type": "uint256"
        },
        {
          "name": "active",
          "type": "bool"
        }
      ],
      "payable": false,
      "stateMutability": "view",
      "type": "function"
    },
    {
      "inputs": [],
      "payable": false,
      "stateMutability": "nonpayable",
      "type": "constructor"
    },
    {
      "anonymous": false,
      "inputs": [
        {
          "indexed": false,
          "name": "EIN",
          "type": "uint256"
        },
        {
          "indexed": false,
          "name": "fileIndex",
          "type": "uint256"
        },
        {
          "indexed": false,
          "name": "fileName",
          "type": "string"
        }
      ],
      "name": "FileCreated",
      "type": "event"
    },
    {
      "anonymous": false,
      "inputs": [
        {
          "indexed": false,
          "name": "EIN",
          "type": "uint256"
        },
        {
          "indexed": false,
          "name": "fileIndex",
          "type": "uint256"
        },
        {
          "indexed": false,
          "name": "fileName",
          "type": "string"
        }
      ],
      "name": "FileRenamed",
      "type": "event"
    },
    {
      "anonymous": false,
      "inputs": [
        {
          "indexed": false,
          "name": "EIN",
          "type": "uint256"
        },
        {
          "indexed": false,
          "name": "fileIndex",
          "type": "uint256"
        },
        {
          "indexed": false,
          "name": "groupIndex",
          "type": "uint256"
        },
        {
          "indexed": false,
          "name": "groupFileIndex",
          "type": "uint256"
        }
      ],
      "name": "FileMoved",
      "type": "event"
    },
    {
      "anonymous": false,
      "inputs": [
        {
          "indexed": false,
          "name": "EIN",
          "type": "uint256"
        },
        {
          "indexed": false,
          "name": "fileIndex",
          "type": "uint256"
        }
      ],
      "name": "FileDeleted",
      "type": "event"
    },
    {
      "anonymous": false,
      "inputs": [
        {
          "indexed": false,
          "name": "EIN",
          "type": "uint256"
        },
        {
          "indexed": false,
          "name": "groupIndex",
          "type": "uint256"
        },
        {
          "indexed": false,
          "name": "groupName",
          "type": "string"
        }
      ],
      "name": "GroupCreated",
      "type": "event"
    },
    {
      "anonymous": false,
      "inputs": [
        {
          "indexed": false,
          "name": "EIN",
          "type": "uint256"
        },
        {
          "indexed": false,
          "name": "groupIndex",
          "type": "uint256"
        },
        {
          "indexed": false,
          "name": "groupName",
          "type": "string"
        }
      ],
      "name": "GroupRenamed",
      "type": "event"
    },
    {
      "anonymous": false,
      "inputs": [
        {
          "indexed": false,
          "name": "EIN",
          "type": "uint256"
        },
        {
          "indexed": false,
          "name": "groupIndex",
          "type": "uint256"
        },
        {
          "indexed": false,
          "name": "groupReplacedIndex",
          "type": "uint256"
        }
      ],
      "name": "GroupDeleted",
      "type": "event"
    },
    {
      "anonymous": false,
      "inputs": [
        {
          "indexed": true,
          "name": "EIN",
          "type": "uint256"
        },
        {
          "indexed": true,
          "name": "transfereeEIN",
          "type": "uint256"
        },
        {
          "indexed": true,
          "name": "fileID",
          "type": "uint256"
        }
      ],
      "name": "FileTransferInitiated",
      "type": "event"
    },
    {
      "anonymous": false,
      "inputs": [
        {
          "indexed": false,
          "name": "EIN",
          "type": "uint256"
        },
        {
          "indexed": false,
          "name": "recipientEIN",
          "type": "uint256"
        }
      ],
      "name": "AddedToWhitelist",
      "type": "event"
    },
    {
      "anonymous": false,
      "inputs": [
        {
          "indexed": false,
          "name": "EIN",
          "type": "uint256"
        },
        {
          "indexed": false,
          "name": "recipientEIN",
          "type": "uint256"
        }
      ],
      "name": "RemovedFromWhitelist",
      "type": "event"
    },
    {
      "anonymous": false,
      "inputs": [
        {
          "indexed": false,
          "name": "EIN",
          "type": "uint256"
        },
        {
          "indexed": false,
          "name": "recipientEIN",
          "type": "uint256"
        }
      ],
      "name": "AddedToBlacklist",
      "type": "event"
    },
    {
      "anonymous": false,
      "inputs": [
        {
          "indexed": false,
          "name": "EIN",
          "type": "uint256"
        },
        {
          "indexed": false,
          "name": "recipientEIN",
          "type": "uint256"
        }
      ],
      "name": "RemovedFromBlacklist",
      "type": "event"
    },
    {
      "anonymous": false,
      "inputs": [
        {
          "indexed": true,
          "name": "EIN",
          "type": "uint256"
        },
        {
          "indexed": true,
          "name": "notice",
          "type": "string"
        },
        {
          "indexed": true,
          "name": "statusType",
          "type": "uint256"
        }
      ],
      "name": "Notice",
      "type": "event"
    },
    {
      "anonymous": false,
      "inputs": [
        {
          "indexed": true,
          "name": "previousOwner",
          "type": "address"
        },
        {
          "indexed": true,
          "name": "newOwner",
          "type": "address"
        }
      ],
      "name": "OwnershipTransferred",
      "type": "event"
    },
    {
      "constant": false,
      "inputs": [
        {
          "name": "",
          "type": "uint256"
        },
        {
          "name": "",
          "type": "uint256"
        },
        {
          "name": "",
          "type": "bytes"
        }
      ],
      "name": "onAddition",
      "outputs": [
        {
          "name": "",
          "type": "bool"
        }
      ],
      "payable": false,
      "stateMutability": "nonpayable",
      "type": "function"
    },
    {
      "constant": false,
      "inputs": [
        {
          "name": "",
          "type": "uint256"
        },
        {
          "name": "",
          "type": "bytes"
        }
      ],
      "name": "onRemoval",
      "outputs": [
        {
          "name": "",
          "type": "bool"
        }
      ],
      "payable": false,
      "stateMutability": "nonpayable",
      "type": "function"
    },
    {
      "constant": true,
      "inputs": [],
      "name": "whoEIN",
      "outputs": [
        {
          "name": "",
          "type": "uint256"
        },
        {
          "name": "",
          "type": "address"
        }
      ],
      "payable": false,
      "stateMutability": "view",
      "type": "function"
    },
    {
      "constant": true,
      "inputs": [
        {
          "name": "_index1",
          "type": "uint256"
        },
        {
          "name": "_index2",
          "type": "uint256"
        }
      ],
      "name": "getGlobalItems",
      "outputs": [
        {
          "name": "ownerEIN",
          "type": "uint256"
        },
        {
          "name": "itemRecord",
          "type": "uint256"
        },
        {
          "name": "isFile",
          "type": "bool"
        },
        {
          "name": "isLocked",
          "type": "bool"
        },
        {
          "name": "deleted",
          "type": "bool"
        },
        {
          "name": "sharedToCount",
          "type": "uint256"
        },
        {
          "name": "stampingReqsCount",
          "type": "uint256"
        }
      ],
      "payable": false,
      "stateMutability": "view",
      "type": "function"
    },
    {
      "constant": true,
      "inputs": [
        {
          "name": "_ein",
          "type": "uint256"
        },
        {
          "name": "_fileIndex",
          "type": "uint256"
        }
      ],
      "name": "getFileMetaData",
      "outputs": [
        {
          "name": "fileOwner",
          "type": "uint256"
        },
        {
          "name": "globalIndex1",
          "type": "uint256"
        },
        {
          "name": "globalIndex2",
          "type": "uint256"
        }
      ],
      "payable": false,
      "stateMutability": "view",
      "type": "function"
    },
    {
      "constant": false,
      "inputs": [
        {
          "name": "_protocol",
          "type": "uint8"
        },
        {
          "name": "_name",
          "type": "string"
        },
        {
          "name": "_hash",
          "type": "string"
        },
        {
          "name": "_metadata",
          "type": "string"
        },
        {
          "name": "_encrypted",
          "type": "bool"
        },
        {
          "name": "_encryptedHash",
          "type": "string"
        },
        {
          "name": "_groupIndex",
          "type": "uint256"
        }
      ],
      "name": "addFile",
      "outputs": [],
      "payable": false,
      "stateMutability": "nonpayable",
      "type": "function"
    },
    {
      "constant": false,
      "inputs": [
        {
          "name": "_ein",
          "type": "uint256"
        },
        {
          "name": "_fileIndex",
          "type": "uint256"
        },
        {
          "name": "_name",
          "type": "string"
        }
      ],
      "name": "changeFileName",
      "outputs": [],
      "payable": false,
      "stateMutability": "nonpayable",
      "type": "function"
    },
    {
      "constant": false,
      "inputs": [
        {
          "name": "_ein",
          "type": "uint256"
        },
        {
          "name": "_fileIndex",
          "type": "uint256"
        },
        {
          "name": "_newGroupIndex",
          "type": "uint256"
        }
      ],
      "name": "moveFileToGroup",
      "outputs": [],
      "payable": false,
      "stateMutability": "nonpayable",
      "type": "function"
    },
    {
      "constant": false,
      "inputs": [
        {
          "name": "_ein",
          "type": "uint256"
        },
        {
          "name": "_fileIndex",
          "type": "uint256"
        }
      ],
      "name": "deleteFile",
      "outputs": [],
      "payable": false,
      "stateMutability": "nonpayable",
      "type": "function"
    },
    {
      "constant": true,
      "inputs": [
        {
          "name": "_ein",
          "type": "uint256"
        },
        {
          "name": "_groupIndex",
          "type": "uint256"
        }
      ],
      "name": "getGroup",
      "outputs": [
        {
          "name": "index",
          "type": "uint256"
        },
        {
          "name": "name",
          "type": "string"
        }
      ],
      "payable": false,
      "stateMutability": "view",
      "type": "function"
    },
    {
      "constant": true,
      "inputs": [
        {
          "name": "_ein",
          "type": "uint256"
        },
        {
          "name": "_seedPointer",
          "type": "uint256"
        },
        {
          "name": "_limit",
          "type": "uint16"
        },
        {
          "name": "_asc",
          "type": "bool"
        }
      ],
      "name": "getGroupIndexes",
      "outputs": [
        {
          "name": "groupIndexes",
          "type": "uint256[20]"
        }
      ],
      "payable": false,
      "stateMutability": "view",
      "type": "function"
    },
    {
      "constant": false,
      "inputs": [
        {
          "name": "_ein",
          "type": "uint256"
        },
        {
          "name": "_groupName",
          "type": "string"
        }
      ],
      "name": "createGroup",
      "outputs": [],
      "payable": false,
      "stateMutability": "nonpayable",
      "type": "function"
    },
    {
      "constant": false,
      "inputs": [
        {
          "name": "_ein",
          "type": "uint256"
        },
        {
          "name": "_groupIndex",
          "type": "uint256"
        },
        {
          "name": "_groupName",
          "type": "string"
        }
      ],
      "name": "renameGroup",
      "outputs": [],
      "payable": false,
      "stateMutability": "nonpayable",
      "type": "function"
    },
    {
      "constant": false,
      "inputs": [
        {
          "name": "_ein",
          "type": "uint256"
        },
        {
          "name": "_groupIndex",
          "type": "uint256"
        }
      ],
      "name": "deleteGroup",
      "outputs": [],
      "payable": false,
      "stateMutability": "nonpayable",
      "type": "function"
    },
    {
      "constant": false,
      "inputs": [
        {
          "name": "_transfererEIN",
          "type": "uint256"
        },
        {
          "name": "_fileIndex",
          "type": "uint256"
        },
        {
          "name": "_transfereeEIN",
          "type": "uint256"
        }
      ],
      "name": "initiateFileTransfer",
      "outputs": [],
      "payable": false,
      "stateMutability": "nonpayable",
      "type": "function"
    },
    {
      "constant": false,
      "inputs": [
        {
          "name": "_transfererEIN",
          "type": "uint256"
        },
        {
          "name": "_fileIndex",
          "type": "uint256"
        },
        {
          "name": "_transfereeEIN",
          "type": "uint256"
        },
        {
          "name": "_transferSpecificIndex",
          "type": "uint256"
        },
        {
          "name": "_groupIndex",
          "type": "uint256"
        }
      ],
      "name": "acceptFileTransfer",
      "outputs": [],
      "payable": false,
      "stateMutability": "nonpayable",
      "type": "function"
    },
    {
      "constant": false,
      "inputs": [
        {
          "name": "_transfererEIN",
          "type": "uint256"
        },
        {
          "name": "_fileIndex",
          "type": "uint256"
        },
        {
          "name": "_transfereeEIN",
          "type": "uint256"
        }
      ],
      "name": "cancelFileTransfer",
      "outputs": [],
      "payable": false,
      "stateMutability": "nonpayable",
      "type": "function"
    },
    {
      "constant": false,
      "inputs": [
        {
          "name": "_nonOwnerEIN",
          "type": "uint256"
        }
      ],
      "name": "addToWhitelist",
      "outputs": [],
      "payable": false,
      "stateMutability": "nonpayable",
      "type": "function"
    },
    {
      "constant": false,
      "inputs": [
        {
          "name": "_nonOwnerEIN",
          "type": "uint256"
        }
      ],
      "name": "removeFromWhitelist",
      "outputs": [],
      "payable": false,
      "stateMutability": "nonpayable",
      "type": "function"
    },
    {
      "constant": false,
      "inputs": [
        {
          "name": "_nonOwnerEIN",
          "type": "uint256"
        }
      ],
      "name": "addToBlacklist",
      "outputs": [],
      "payable": false,
      "stateMutability": "nonpayable",
      "type": "function"
    },
    {
      "constant": false,
      "inputs": [
        {
          "name": "_nonOwnerEIN",
          "type": "uint256"
        }
      ],
      "name": "removeFromBlacklist",
      "outputs": [],
      "payable": false,
      "stateMutability": "nonpayable",
      "type": "function"
    },
    {
      "constant": false,
      "inputs": [],
      "name": "debugBuildGroups",
      "outputs": [],
      "payable": false,
      "stateMutability": "nonpayable",
      "type": "function"
    },
    {
      "constant": true,
      "inputs": [
        {
          "name": "_ein",
          "type": "uint256"
        },
        {
          "name": "_seedPointer",
          "type": "uint256"
        },
        {
          "name": "_limit",
          "type": "uint16"
        },
        {
          "name": "_asc",
          "type": "bool"
        }
      ],
      "name": "debugGetGroupIndexesWithNames",
      "outputs": [
        {
          "name": "groupIndexes",
          "type": "uint256[20]"
        },
        {
          "name": "groupNames",
          "type": "string"
        }
      ],
      "payable": false,
      "stateMutability": "view",
      "type": "function"
    }
  ],
  "bytecode": "0x608060405273b536a9b68e7c1d2fd6b9851af2f955099b3a59a9601e60006101000a81548173ffffffffffffffffffffffffffffffffffffffff021916908373ffffffffffffffffffffffffffffffffffffffff1602179055503480156200006657600080fd5b506040805190810160405280600381526020017f4963650000000000000000000000000000000000000000000000000000000000815250606060405190810160405280602b81526020017f446f63756d656e74204d616e6167656d656e74202f205374616d70696e67206f81526020017f6e20536e6f77666c616b65000000000000000000000000000000000000000000815250601e60009054906101000a900473ffffffffffffffffffffffffffffffffffffffff16600080336000806101000a81548173ffffffffffffffffffffffffffffffffffffffff021916908373ffffffffffffffffffffffffffffffffffffffff1602179055506000809054906101000a900473ffffffffffffffffffffffffffffffffffffffff1673ffffffffffffffffffffffffffffffffffffffff16600073ffffffffffffffffffffffffffffffffffffffff167f8be0079c531659141344cd1fd0a4f28419497f9722a3daafe3b4186f6b6457e060405160405180910390a38460019080519060200190620001f49291906200048e565b5083600290805190602001906200020d9291906200048e565b506200022883620003ce640100000000026401000000009004565b81600360146101000a81548160ff02191690831515021790555080600360156101000a81548160ff0219169083151502179055505050505050601e60009054906101000a900473ffffffffffffffffffffffffffffffffffffffff16601c60006101000a81548173ffffffffffffffffffffffffffffffffffffffff021916908373ffffffffffffffffffffffffffffffffffffffff160217905550601c60009054906101000a900473ffffffffffffffffffffffffffffffffffffffff1673ffffffffffffffffffffffffffffffffffffffff1663a759ee6f6040518163ffffffff167c0100000000000000000000000000000000000000000000000000000000028152600401602060405180830381600087803b1580156200034b57600080fd5b505af115801562000360573d6000803e3d6000fd5b505050506040513d60208110156200037757600080fd5b8101908080519060200190929190505050601d60006101000a81548173ffffffffffffffffffffffffffffffffffffffff021916908373ffffffffffffffffffffffffffffffffffffffff1602179055506200053d565b620003e762000437640100000000026401000000009004565b1515620003f357600080fd5b80600360006101000a81548173ffffffffffffffffffffffffffffffffffffffff021916908373ffffffffffffffffffffffffffffffffffffffff16021790555050565b60008060009054906101000a900473ffffffffffffffffffffffffffffffffffffffff1673ffffffffffffffffffffffffffffffffffffffff163373ffffffffffffffffffffffffffffffffffffffff1614905090565b828054600181600116156101000203166002900490600052602060002090601f016020900481019282601f10620004d157805160ff191683800117855562000502565b8280016001018555821562000502579182015b8281111562000501578251825591602001919060010190620004e4565b5b50905062000511919062000515565b5090565b6200053a91905b80821115620005365760008160009055506001016200051c565b5090565b90565b618605806200054d6000396000f3fe608060405260043610610272576000357c0100000000000000000000000000000000000000000000000000000000900463ffffffff16806312c8e64414610277578063134e18f4146102e957806314f2c435146103405780631813cc7d1461037b5780631cd97c55146103c05780632a11103c1461040f5780632e520ff51461046c57806330a0b0e41461049757806333aff05a146104e65780633764ce1c14610558578063426dd27c146105cc57806344aac4301461069157806344ba1082146106ee57806344f6bf67146107ca57806358f2b58814610a7a57806366042d2b14610ac9578063715018a614610b275780637179025114610b3e578063737f3a1d14610b6d57806376acf1b614610bdf5780637a383eb514610c6f578063836cd63d14610cbe57806388cdab9414610d215780638a522ef514610db15780638b762e6c14610e005780638da5cb5b14610e3b5780638f06492d14610e925780638f32d59b14610ec157806390bfaf4014610ef05780639182621a14610fe45780639fbd7cef146110ce578063a21aa458146111a0578063a2ba1ad0146111ef578063a8ede7031461121a578063b4e741a21461125f578063b56b9cdb146112ae578063ba45ce2114611315578063c2cfaaf514611387578063c74d7d4914611416578063c979b05a1461151d578063ca9e86a61461156e578063cdaef7a014611585578063d62991ce14611661578063de89fabc146116b0578063f14b5bd614611722578063f2395dc31461175d578063f2fde38b14611798578063f39997d2146117e9578063f836a35314611838578063f9f451b81461188f578063fb9efad1146118e6578063fc7c077814611981575b600080fd5b34801561028357600080fd5b506102ba6004803603604081101561029a57600080fd5b8101908080359060200190929190803590602001909291905050506119f3565b604051808581526020018481526020018381526020018215151515815260200194505050505060405180910390f35b3480156102f557600080fd5b506102fe611a3d565b604051808273ffffffffffffffffffffffffffffffffffffffff1673ffffffffffffffffffffffffffffffffffffffff16815260200191505060405180910390f35b34801561034c57600080fd5b506103796004803603602081101561036357600080fd5b8101908080359060200190929190505050611a63565b005b34801561038757600080fd5b506103be6004803603604081101561039e57600080fd5b810190808035906020019092919080359060200190929190505050611dda565b005b3480156103cc57600080fd5b5061040d600480360360608110156103e357600080fd5b8101908080359060200190929190803590602001909291908035906020019092919050505061222d565b005b34801561041b57600080fd5b506104526004803603604081101561043257600080fd5b810190808035906020019092919080359060200190929190505050612660565b604051808215151515815260200191505060405180910390f35b34801561047857600080fd5b5061048161268f565b6040518082815260200191505060405180910390f35b3480156104a357600080fd5b506104d0600480360360208110156104ba57600080fd5b8101908080359060200190929190505050612695565b6040518082815260200191505060405180910390f35b3480156104f257600080fd5b506105296004803603604081101561050957600080fd5b8101908080359060200190929190803590602001909291905050506126ad565b604051808581526020018481526020018381526020018215151515815260200194505050505060405180910390f35b34801561056457600080fd5b506105916004803603602081101561057b57600080fd5b81019080803590602001909291905050506126f7565b604051808515151515815260200184151515158152602001831515151581526020018215151515815260200194505050505060405180910390f35b3480156105d857600080fd5b5061060f600480360360408110156105ef57600080fd5b81019080803590602001909291908035906020019092919050505061275b565b6040518083815260200180602001828103825283818151815260200191508051906020019080838360005b8381101561065557808201518184015260208101905061063a565b50505050905090810190601f1680156106825780820380516001836020036101000a031916815260200191505b50935050505060405180910390f35b34801561069d57600080fd5b506106d4600480360360408110156106b457600080fd5b810190808035906020019092919080359060200190929190505050612926565b604051808215151515815260200191505060405180910390f35b3480156106fa57600080fd5b506107c86004803603606081101561071157600080fd5b8101908080359060200190929190803590602001909291908035906020019064010000000081111561074257600080fd5b82018360208201111561075457600080fd5b8035906020019184600183028401116401000000008311171561077657600080fd5b91908080601f016020809104026020016040519081016040528093929190818152602001838380828437600081840152601f19601f820116905080830192505050505050509192919290505050612955565b005b3480156107d657600080fd5b50610a78600480360360e08110156107ed57600080fd5b81019080803560ff1690602001909291908035906020019064010000000081111561081757600080fd5b82018360208201111561082957600080fd5b8035906020019184600183028401116401000000008311171561084b57600080fd5b91908080601f016020809104026020016040519081016040528093929190818152602001838380828437600081840152601f19601f820116905080830192505050505050509192919290803590602001906401000000008111156108ae57600080fd5b8201836020820111156108c057600080fd5b803590602001918460018302840111640100000000831117156108e257600080fd5b91908080601f016020809104026020016040519081016040528093929190818152602001838380828437600081840152601f19601f8201169050808301925050505050505091929192908035906020019064010000000081111561094557600080fd5b82018360208201111561095757600080fd5b8035906020019184600183028401116401000000008311171561097957600080fd5b91908080601f016020809104026020016040519081016040528093929190818152602001838380828437600081840152601f19601f820116905080830192505050505050509192919290803515159060200190929190803590602001906401000000008111156109e857600080fd5b8201836020820111156109fa57600080fd5b80359060200191846001830284011164010000000083111715610a1c57600080fd5b91908080601f016020809104026020016040519081016040528093929190818152602001838380828437600081840152601f19601f82011690508083019250505050505050919291929080359060200190929190505050612a4b565b005b348015610a8657600080fd5b50610ab360048036036020811015610a9d57600080fd5b8101908080359060200190929190505050613295565b6040518082815260200191505060405180910390f35b348015610ad557600080fd5b50610ade6132ad565b604051808381526020018273ffffffffffffffffffffffffffffffffffffffff1673ffffffffffffffffffffffffffffffffffffffff1681526020019250505060405180910390f35b348015610b3357600080fd5b50610b3c6133b2565b005b348015610b4a57600080fd5b50610b53613484565b604051808215151515815260200191505060405180910390f35b348015610b7957600080fd5b50610bb060048036036040811015610b9057600080fd5b810190808035906020019092919080359060200190929190505050613497565b604051808581526020018481526020018381526020018215151515815260200194505050505060405180910390f35b348015610beb57600080fd5b50610bf46134e1565b6040518080602001828103825283818151815260200191508051906020019080838360005b83811015610c34578082015181840152602081019050610c19565b50505050905090810190601f168015610c615780820380516001836020036101000a031916815260200191505b509250505060405180910390f35b348015610c7b57600080fd5b50610cbc60048036036060811015610c9257600080fd5b8101908080359060200190929190803590602001909291908035906020019092919050505061357f565b005b348015610cca57600080fd5b50610d1f600480360360a0811015610ce157600080fd5b810190808035906020019092919080359060200190929190803590602001909291908035906020019092919080359060200190929190505050613c21565b005b348015610d2d57600080fd5b50610d36614157565b6040518080602001828103825283818151815260200191508051906020019080838360005b83811015610d76578082015181840152602081019050610d5b565b50505050905090810190601f168015610da35780820380516001836020036101000a031916815260200191505b509250505060405180910390f35b348015610dbd57600080fd5b50610dfe60048036036060811015610dd457600080fd5b810190808035906020019092919080359060200190929190803590602001909291905050506141f5565b005b348015610e0c57600080fd5b50610e3960048036036020811015610e2357600080fd5b8101908080359060200190929190505050614528565b005b348015610e4757600080fd5b50610e5061489f565b604051808273ffffffffffffffffffffffffffffffffffffffff1673ffffffffffffffffffffffffffffffffffffffff16815260200191505060405180910390f35b348015610e9e57600080fd5b50610ea76148c8565b604051808215151515815260200191505060405180910390f35b348015610ecd57600080fd5b50610ed66148db565b604051808215151515815260200191505060405180910390f35b348015610efc57600080fd5b50610fca60048036036060811015610f1357600080fd5b81019080803590602001909291908035906020019092919080359060200190640100000000811115610f4457600080fd5b820183602082011115610f5657600080fd5b80359060200191846001830284011164010000000083111715610f7857600080fd5b91908080601f016020809104026020016040519081016040528093929190818152602001838380828437600081840152601f19601f820116905080830192505050505050509192919290505050614932565b604051808215151515815260200191505060405180910390f35b348015610ff057600080fd5b506110b46004803603604081101561100757600080fd5b81019080803590602001909291908035906020019064010000000081111561102e57600080fd5b82018360208201111561104057600080fd5b8035906020019184600183028401116401000000008311171561106257600080fd5b91908080601f016020809104026020016040519081016040528093929190818152602001838380828437600081840152601f19601f820116905080830192505050505050509192919290505050614a2a565b604051808215151515815260200191505060405180910390f35b3480156110da57600080fd5b5061119e600480360360408110156110f157600080fd5b81019080803590602001909291908035906020019064010000000081111561111857600080fd5b82018360208201111561112a57600080fd5b8035906020019184600183028401116401000000008311171561114c57600080fd5b91908080601f016020809104026020016040519081016040528093929190818152602001838380828437600081840152601f19601f820116905080830192505050505050509192919290505050614b21565b005b3480156111ac57600080fd5b506111d9600480360360208110156111c357600080fd5b8101908080359060200190929190505050614e85565b6040518082815260200191505060405180910390f35b3480156111fb57600080fd5b50611204614e9d565b6040518082815260200191505060405180910390f35b34801561122657600080fd5b5061125d6004803603604081101561123d57600080fd5b810190808035906020019092919080359060200190929190505050614ea3565b005b34801561126b57600080fd5b506112986004803603602081101561128257600080fd5b810190808035906020019092919050505061533f565b6040518082815260200191505060405180910390f35b3480156112ba57600080fd5b506112f1600480360360408110156112d157600080fd5b810190808035906020019092919080359060200190929190505050615357565b60405180848152602001838152602001828152602001935050505060405180910390f35b34801561132157600080fd5b506113586004803603604081101561133857600080fd5b8101908080359060200190929190803590602001909291905050506153e7565b604051808581526020018481526020018381526020018215151515815260200194505050505060405180910390f35b34801561139357600080fd5b506113ca600480360360408110156113aa57600080fd5b810190808035906020019092919080359060200190929190505050615431565b6040518088815260200187815260200186151515158152602001851515151581526020018415151515815260200183815260200182815260200197505050505050505060405180910390f35b34801561142257600080fd5b506114736004803603608081101561143957600080fd5b810190808035906020019092919080359060200190929190803561ffff16906020019092919080351515906020019092919050505061559b565b6040518083601460200280838360005b8381101561149e578082015181840152602081019050611483565b5050505090500180602001828103825283818151815260200191508051906020019080838360005b838110156114e15780820151818401526020810190506114c6565b50505050905090810190601f16801561150e5780820380516001836020036101000a031916815260200191505b50935050505060405180910390f35b34801561152957600080fd5b5061156c6004803603602081101561154057600080fd5b81019080803573ffffffffffffffffffffffffffffffffffffffff1690602001909291905050506156b9565b005b34801561157a57600080fd5b50611583615710565b005b34801561159157600080fd5b5061165f600480360360608110156115a857600080fd5b810190808035906020019092919080359060200190929190803590602001906401000000008111156115d957600080fd5b8201836020820111156115eb57600080fd5b8035906020019184600183028401116401000000008311171561160d57600080fd5b91908080601f016020809104026020016040519081016040528093929190818152602001838380828437600081840152601f19601f820116905080830192505050505050509192919290505050615a05565b005b34801561166d57600080fd5b5061169a6004803603602081101561168457600080fd5b8101908080359060200190929190505050615c20565b6040518082815260200191505060405180910390f35b3480156116bc57600080fd5b506116f3600480360360408110156116d357600080fd5b810190808035906020019092919080359060200190929190505050615c38565b604051808581526020018481526020018381526020018215151515815260200194505050505060405180910390f35b34801561172e57600080fd5b5061175b6004803603602081101561174557600080fd5b8101908080359060200190929190505050615c82565b005b34801561176957600080fd5b506117966004803603602081101561178057600080fd5b8101908080359060200190929190505050615ff9565b005b3480156117a457600080fd5b506117e7600480360360208110156117bb57600080fd5b81019080803573ffffffffffffffffffffffffffffffffffffffff169060200190929190505050616370565b005b3480156117f557600080fd5b506118226004803603602081101561180c57600080fd5b810190808035906020019092919050505061638f565b6040518082815260200191505060405180910390f35b34801561184457600080fd5b5061184d6163a7565b604051808273ffffffffffffffffffffffffffffffffffffffff1673ffffffffffffffffffffffffffffffffffffffff16815260200191505060405180910390f35b34801561189b57600080fd5b506118a46163cd565b604051808273ffffffffffffffffffffffffffffffffffffffff1673ffffffffffffffffffffffffffffffffffffffff16815260200191505060405180910390f35b3480156118f257600080fd5b506119436004803603608081101561190957600080fd5b810190808035906020019092919080359060200190929190803561ffff1690602001909291908035151590602001909291905050506163f3565b6040518082601460200280838360005b8381101561196e578082015181840152602081019050611953565b5050505090500191505060405180910390f35b34801561198d57600080fd5b506119c4600480360360408110156119a457600080fd5b810190808035906020019092919080359060200190929190505050616423565b604051808581526020018481526020018381526020018215151515815260200194505050505060405180910390f35b6018602052816000526040600020602052806000526040600020600091509150508060000154908060010154908060020154908060030160009054906101000a900460ff16905084565b601d60009054906101000a900473ffffffffffffffffffffffffffffffffffffffff1681565b8060011515601d60009054906101000a900473ffffffffffffffffffffffffffffffffffffffff1673ffffffffffffffffffffffffffffffffffffffff16635b5aed3a836040518263ffffffff167c01000000000000000000000000000000000000000000000000000000000281526004018082815260200191505060206040518083038186803b158015611af757600080fd5b505afa158015611b0b573d6000803e3d6000fd5b505050506040513d6020811015611b2157600080fd5b81019080805190602001909291905050501515141515611ba9576040517f08c379a000000000000000000000000000000000000000000000000000000000815260040180806020018281038252600d8152602001807f45494e206e6f7420466f756e640000000000000000000000000000000000000081525060200191505060405180910390fd5b611bb28261646d565b6000601d60009054906101000a900473ffffffffffffffffffffffffffffffffffffffff1673ffffffffffffffffffffffffffffffffffffffff166305c62c2f336040518263ffffffff167c0100000000000000000000000000000000000000000000000000000000028152600401808273ffffffffffffffffffffffffffffffffffffffff1673ffffffffffffffffffffffffffffffffffffffff16815260200191505060206040518083038186803b158015611c6f57600080fd5b505afa158015611c83573d6000803e3d6000fd5b505050506040513d6020811015611c9957600080fd5b8101908080519060200190929190505050905060001515601b6000838152602001908152602001600020600085815260200190815260200160002060009054906101000a900460ff161515141515611d59576040517f08c379a000000000000000000000000000000000000000000000000000000000815260040180806020018281038252600f8152602001807f45494e20426c61636b6c6973746564000000000000000000000000000000000081525060200191505060405180910390fd5b6001601a6000838152602001908152602001600020600085815260200190815260200160002060006101000a81548160ff0219169083151502179055507f96f0ff7350800befa1008d2dd1bc5e8f7a3c5aadc11678d50cd7193154b50ce38184604051808381526020018281526020019250505060405180910390a1505050565b8181600080611de98484615357565b90915080925081935050506000151560046000848152602001908152602001600020600083815260200190815260200160002060020160019054906101000a900460ff161515141515611ea4576040517f08c379a000000000000000000000000000000000000000000000000000000000815260040180806020018281038252600b8152602001807f4974656d204c6f636b656400000000000000000000000000000000000000000081525060200191505060405180910390fd5b611ead866165dd565b60016007600088815260200190815260200160002060000160006101000a81548160ff02191690831515021790555060016007600088815260200190815260200160002060000160016101000a81548160ff0219169083151502179055506000600a6000888152602001908152602001600020549050611f716008600089815260200190815260200160002060008881526020019081526020016000206000016040805190810160405290816000820154815260200160018201548152505061674c565b611fca87600860008a81526020019081526020016000206000898152602001908152602001600020600a0154600860008b815260200190815260200160002060008a8152602001908152602001600020600b0154616797565b600860008881526020019081526020016000206000828152602001908152602001600020600860008981526020019081526020016000206000888152602001908152602001600020600082018160000160008201548160000155600182015481600101555050600282015481600201556003820160009054906101000a900460ff168160030160006101000a81548160ff021916908360ff1602179055506004820181600401908054600181600116156101000203166002900461208f92919061834a565b50600582018160050190805460018160011615610100020316600290046120b792919061834a565b50600782015481600701556008820160009054906101000a900460ff168160080160006101000a81548160ff021916908315150217905550600a82015481600a0155600b82015481600b0155600d82015481600d0155600e82015481600e0155600f82015481600f01556010820160009054906101000a900460ff168160100160006101000a81548160ff0219169083151502179055509050506121706009600089815260200190815260200160002087836000616926565b600a6000898152602001908152602001600020819055507fa50edae42406c3acb160bbddf0ca2fc7eb414a065b7738f3ff10d22c6385cafd8787604051808381526020018281526020019250505060405180910390a160006007600089815260200190815260200160002060000160006101000a81548160ff02191690831515021790555060006007600089815260200190815260200160002060000160016101000a81548160ff02191690831515021790555050505050505050565b828260008061223c8484615357565b90915080925081935050506000151560046000848152602001908152602001600020600083815260200190815260200160002060020160019054906101000a900460ff1615151415156122f7576040517f08c379a000000000000000000000000000000000000000000000000000000000815260040180806020018281038252600b8152602001807f4974656d204c6f636b656400000000000000000000000000000000000000000081525060200191505060405180910390fd5b86600015156007600083815260200190815260200160002060000160009054906101000a900460ff161515141515612397576040517f08c379a000000000000000000000000000000000000000000000000000000000815260040180806020018281038252600c8152602001807f46696c6573204c6f636b6564000000000000000000000000000000000000000081525060200191505060405180910390fd5b87600015156007600083815260200190815260200160002060000160019054906101000a900460ff161515141515612437576040517f08c379a000000000000000000000000000000000000000000000000000000000815260040180806020018281038252600d8152602001807f47726f757073204c6f636b65640000000000000000000000000000000000000081525060200191505060405180910390fd5b612440896165dd565b6001600760008b815260200190815260200160002060000160006101000a81548160ff0219169083151502179055506001600760008b815260200190815260200160002060000160016101000a81548160ff021916908315150217905550600115156124ac8a89616b62565b1515141515612549576040517f08c379a00000000000000000000000000000000000000000000000000000000081526004018080602001828103825260218152602001807f47726f757020646f65736e277420657869737420666f7220746865205573657281526020017f2e0000000000000000000000000000000000000000000000000000000000000081525060400191505060405180910390fd5b60006125a58a600860008d815260200190815260200160002060008c8152602001908152602001600020600a0154600860008e815260200190815260200160002060008d8152602001908152602001600020600b01548b616b9a565b90507f90066c23e167bba0523fbd672b21f1d81daf9041d56adbd5a79287f2cfd1ec088a8a8a846040518085815260200184815260200183815260200182815260200194505050505060405180910390a16000600760008c815260200190815260200160002060000160006101000a81548160ff0219169083151502179055506000600760008c815260200190815260200160002060000160016101000a81548160ff02191690831515021790555050505050505050505050565b601b6020528160005260406000206020528060005260406000206000915091509054906101000a900460ff1681565b60055481565b60136020528060005260406000206000915090505481565b6009602052816000526040600020602052806000526040600020600091509150508060000154908060010154908060020154908060030160009054906101000a900460ff16905084565b60076020528060005260406000206000915090508060000160009054906101000a900460ff16908060000160019054906101000a900460ff16908060000160029054906101000a900460ff16908060000160039054906101000a900460ff16905084565b60006060612768846165dd565b600115156127768585616b62565b1515141515612813576040517f08c379a00000000000000000000000000000000000000000000000000000000081526004018080602001828103825260268152602001807f47726f757020646f65736e277420657869737420666f7220746865205573657281526020017f202f2045494e000000000000000000000000000000000000000000000000000081525060400191505060405180910390fd5b829150600083141561285c576040805190810160405280600481526020017f526f6f7400000000000000000000000000000000000000000000000000000000815250905061291f565b600b600085815260200190815260200160002060008481526020019081526020016000206002018054600181600116156101000203166002900480601f0160208091040260200160405190810160405280929190818152602001828054600181600116156101000203166002900480156129175780601f106128ec57610100808354040283529160200191612917565b820191906000526020600020905b8154815290600101906020018083116128fa57829003601f168201915b505050505090505b9250929050565b601a6020528160005260406000206020528060005260406000206000915091509054906101000a900460ff1681565b61295e836165dd565b8060086000858152602001908152602001600020600084815260200190815260200160002060040190805190602001906129999291906183d1565b507f2294a85d598463b63e064807fad457cab51825642ffcba08aadc87288b6cf0e88383836040518084815260200183815260200180602001828103825283818151815260200191508051906020019080838360005b83811015612a0a5780820151818401526020810190506129ef565b50505050905090810190601f168015612a375780820380516001836020036101000a031916815260200191505b5094505050505060405180910390a1505050565b6000601d60009054906101000a900473ffffffffffffffffffffffffffffffffffffffff1673ffffffffffffffffffffffffffffffffffffffff166305c62c2f336040518263ffffffff167c0100000000000000000000000000000000000000000000000000000000028152600401808273ffffffffffffffffffffffffffffffffffffffff1673ffffffffffffffffffffffffffffffffffffffff16815260200191505060206040518083038186803b158015612b0857600080fd5b505afa158015612b1c573d6000803e3d6000fd5b505050506040513d6020811015612b3257600080fd5b81019080805190602001909291905050509050600015156007600083815260200190815260200160002060000160009054906101000a900460ff161515141515612c0a576040517f08c379a00000000000000000000000000000000000000000000000000000000081526004018080602001828103825260348152602001807f43616e27742070726f636565642c2046696c657320617265206c6f636b65642081526020017f666f72206f74686572206f7065726174696f6e2e00000000000000000000000081525060400191505060405180910390fd5b600015156007600083815260200190815260200160002060000160019054906101000a900460ff161515141515612ccf576040517f08c379a00000000000000000000000000000000000000000000000000000000081526004018080602001828103825260358152602001807f43616e27742070726f636565642c2047726f75707320617265206c6f636b656481526020017f20666f72206f74686572206f7065726174696f6e2e000000000000000000000081525060400191505060405180910390fd5b60011515612cdd8284616b62565b1515141515612d7a576040517f08c379a00000000000000000000000000000000000000000000000000000000081526004018080602001828103825260218152602001807f47726f757020646f65736e277420657869737420666f7220746865205573657281526020017f2e0000000000000000000000000000000000000000000000000000000000000081525060400191505060405180910390fd5b60016007600083815260200190815260200160002060000160006101000a81548160ff02191690831515021790555060016007600083815260200190815260200160002060000160016101000a81548160ff0219169083151502179055506000600a60008381526020019081526020016000205490506000600182019050600080612e088584600080616cbc565b80925081935050506101a06040519081016040528060408051908101604052808581526020018481525081526020018681526020018d60ff1681526020018c81526020018b81526020014281526020018915158152602001878152602001612e71878987616e8e565b815260200160018152602001600081526020016000815260200160001515815250600860008781526020019081526020016000206000858152602001908152602001600020600082015181600001600082015181600001556020820151816001015550506020820151816002015560408201518160030160006101000a81548160ff021916908360ff1602179055506060820151816004019080519060200190612f1c929190618451565b506080820151816005019080519060200190612f39929190618451565b5060a0820151816007015560c08201518160080160006101000a81548160ff02191690831515021790555060e082015181600a015561010082015181600b015561012082015181600d015561014082015181600e015561016082015181600f01556101808201518160100160006101000a81548160ff0219169083151502179055509050508860086000878152602001908152602001600020600085815260200190815260200160002060060160008060ff168152602001908152602001600020908051906020019061300d9291906183d1565b508660086000878152602001908152602001600020600085815260200190815260200160002060090160003373ffffffffffffffffffffffffffffffffffffffff1673ffffffffffffffffffffffffffffffffffffffff16815260200190815260200160002090805190602001906130869291906183d1565b5084600860008781526020019081526020016000206000858152602001908152602001600020600c016000808152602001908152602001600020819055506130e260096000878152602001908152602001600020856000616fc8565b600a600087815260200190815260200160002081905550613152600b60008781526020019081526020016000206000888152602001908152602001600020600301600b60008881526020019081526020016000206000898152602001908152602001600020600401546000616fc8565b600b60008781526020019081526020016000206000888152602001908152602001600020600401819055507f4443292b7c801de1e18bba287635c870a53fe39f205e385ab346e9f2939dffb285848d6040518084815260200183815260200180602001828103825283818151815260200191508051906020019080838360005b838110156131ed5780820151818401526020810190506131d2565b50505050905090810190601f16801561321a5780820380516001836020036101000a031916815260200191505b5094505050505060405180910390a160006007600087815260200190815260200160002060000160006101000a81548160ff02191690831515021790555060006007600087815260200190815260200160002060000160016101000a81548160ff021916908315150217905550505050505050505050505050565b60196020528060005260406000206000915090505481565b600080601d60009054906101000a900473ffffffffffffffffffffffffffffffffffffffff1673ffffffffffffffffffffffffffffffffffffffff166305c62c2f336040518263ffffffff167c0100000000000000000000000000000000000000000000000000000000028152600401808273ffffffffffffffffffffffffffffffffffffffff1673ffffffffffffffffffffffffffffffffffffffff16815260200191505060206040518083038186803b15801561336b57600080fd5b505afa15801561337f573d6000803e3d6000fd5b505050506040513d602081101561339557600080fd5b810190808051906020019092919050505033809050915091509091565b6133ba6148db565b15156133c557600080fd5b600073ffffffffffffffffffffffffffffffffffffffff166000809054906101000a900473ffffffffffffffffffffffffffffffffffffffff1673ffffffffffffffffffffffffffffffffffffffff167f8be0079c531659141344cd1fd0a4f28419497f9722a3daafe3b4186f6b6457e060405160405180910390a360008060006101000a81548173ffffffffffffffffffffffffffffffffffffffff021916908373ffffffffffffffffffffffffffffffffffffffff160217905550565b600360149054906101000a900460ff1681565b600c602052816000526040600020602052806000526040600020600091509150508060000154908060010154908060020154908060030160009054906101000a900460ff16905084565b60028054600181600116156101000203166002900480601f0160208091040260200160405190810160405280929190818152602001828054600181600116156101000203166002900480156135775780601f1061354c57610100808354040283529160200191613577565b820191906000526020600020905b81548152906001019060200180831161355a57829003601f168201915b505050505081565b8060011515601d60009054906101000a900473ffffffffffffffffffffffffffffffffffffffff1673ffffffffffffffffffffffffffffffffffffffff16635b5aed3a836040518263ffffffff167c01000000000000000000000000000000000000000000000000000000000281526004018082815260200191505060206040518083038186803b15801561361357600080fd5b505afa158015613627573d6000803e3d6000fd5b505050506040513d602081101561363d57600080fd5b810190808051906020019092919050505015151415156136c5576040517f08c379a000000000000000000000000000000000000000000000000000000000815260040180806020018281038252600d8152602001807f45494e206e6f7420466f756e640000000000000000000000000000000000000081525060200191505060405180910390fd5b838280821415151561373f576040517f08c379a00000000000000000000000000000000000000000000000000000000081526004018080602001828103825260098152602001807f53616d652045494e73000000000000000000000000000000000000000000000081525060200191505060405180910390fd5b85600015156007600083815260200190815260200160002060000160029054906101000a900460ff1615151415156137df576040517f08c379a00000000000000000000000000000000000000000000000000000000081526004018080602001828103825260108152602001807f5472616e7366657273204c6f636b65640000000000000000000000000000000081525060200191505060405180910390fd5b84600015156007600083815260200190815260200160002060000160029054906101000a900460ff16151514151561387f576040517f08c379a00000000000000000000000000000000000000000000000000000000081526004018080602001828103825260108152602001807f5472616e7366657273204c6f636b65640000000000000000000000000000000081525060200191505060405180910390fd5b878760008061388e8484615357565b90915080925081935050506000151560046000848152602001908152602001600020600083815260200190815260200160002060020160019054906101000a900460ff161515141515613949576040517f08c379a000000000000000000000000000000000000000000000000000000000815260040180806020018281038252600b8152602001807f4974656d204c6f636b656400000000000000000000000000000000000000000081525060200191505060405180910390fd5b6139528c6165dd565b6001600760008e815260200190815260200160002060000160026101000a81548160ff0219169083151502179055506001600760008c815260200190815260200160002060000160026101000a81548160ff02191690831515021790555060001515600860008e815260200190815260200160002060008d815260200190815260200160002060100160009054906101000a900460ff161515141515613a86576040517f08c379a00000000000000000000000000000000000000000000000000000000081526004018080602001828103825260338152602001807f43616e27742070726f636565642c2066696c6520697320616c7265616479206d81526020017f61726b656420666f72205472616e736665722e0000000000000000000000000081525060400191505060405180910390fd5b60011515601b60008c815260200190815260200160002060008e815260200190815260200160002060009054906101000a900460ff161515141515613b59576040517f08c379a000000000000000000000000000000000000000000000000000000000815260040180806020018281038252603e8152602001807f43616e277420696e6974696174652066696c65207472616e736665722061732081526020017f746865206f776e65722068617320626c61636b6c697374656420796f752e000081525060400191505060405180910390fd5b60011515601a60008c815260200190815260200160002060008e815260200190815260200160002060009054906101000a900460ff1615151415613ba957613ba48c8c8c6000617175565b613bb5565b613bb48c8c8c6178e4565b5b6000600760008e815260200190815260200160002060000160026101000a81548160ff0219169083151502179055506000600760008c815260200190815260200160002060000160026101000a81548160ff021916908315150217905550505050505050505050505050565b84600015156007600083815260200190815260200160002060000160029054906101000a900460ff161515141515613cc1576040517f08c379a00000000000000000000000000000000000000000000000000000000081526004018080602001828103825260108152602001807f5472616e7366657273204c6f636b65640000000000000000000000000000000081525060200191505060405180910390fd5b83600015156007600083815260200190815260200160002060000160029054906101000a900460ff161515141515613d61576040517f08c379a00000000000000000000000000000000000000000000000000000000081526004018080602001828103825260108152602001807f5472616e7366657273204c6f636b65640000000000000000000000000000000081525060200191505060405180910390fd5b868660086000838152602001908152602001600020600082815260200190815260200160002060020154601d60009054906101000a900473ffffffffffffffffffffffffffffffffffffffff1673ffffffffffffffffffffffffffffffffffffffff166305c62c2f336040518263ffffffff167c0100000000000000000000000000000000000000000000000000000000028152600401808273ffffffffffffffffffffffffffffffffffffffff1673ffffffffffffffffffffffffffffffffffffffff16815260200191505060206040518083038186803b158015613e4657600080fd5b505afa158015613e5a573d6000803e3d6000fd5b505050506040513d6020811015613e7057600080fd5b810190808051906020019092919050505014151515613ef7576040517f08c379a00000000000000000000000000000000000000000000000000000000081526004018080602001828103825260138152602001807f4f6e6c792046696c65204e6f6e2d4f776e65720000000000000000000000000081525060200191505060405180910390fd5b88888a80600860008581526020019081526020016000206000848152602001908152602001600020600e0154141515613f98576040517f08c379a000000000000000000000000000000000000000000000000000000000815260040180806020018281038252601d8152602001807f46696c65206e6f74206d61726b656420666f72205472616e736665727300000081525060200191505060405180910390fd5b613fa18a6165dd565b6001600760008e815260200190815260200160002060000160026101000a81548160ff0219169083151502179055506001600760008c815260200190815260200160002060000160026101000a81548160ff02191690831515021790555060011515600860008e815260200190815260200160002060008d815260200190815260200160002060100160009054906101000a900460ff1615151415156140d5576040517f08c379a000000000000000000000000000000000000000000000000000000000815260040180806020018281038252602f8152602001807f43616e27742070726f636565642c206974656d206973206e6f74206d61726b6581526020017f6420666f72205472616e736665722e000000000000000000000000000000000081525060400191505060405180910390fd5b6140e18c8c8c8b617175565b6140eb8a8a617cbe565b6000600760008e815260200190815260200160002060000160026101000a81548160ff0219169083151502179055506000600760008c815260200190815260200160002060000160026101000a81548160ff021916908315150217905550505050505050505050505050565b60018054600181600116156101000203166002900480601f0160208091040260200160405190810160405280929190818152602001828054600181600116156101000203166002900480156141ed5780601f106141c2576101008083540402835291602001916141ed565b820191906000526020600020905b8154815290600101906020018083116141d057829003601f168201915b505050505081565b82600015156007600083815260200190815260200160002060000160029054906101000a900460ff161515141515614295576040517f08c379a00000000000000000000000000000000000000000000000000000000081526004018080602001828103825260108152602001807f5472616e7366657273204c6f636b65640000000000000000000000000000000081525060200191505060405180910390fd5b81600015156007600083815260200190815260200160002060000160029054906101000a900460ff161515141515614335576040517f08c379a00000000000000000000000000000000000000000000000000000000081526004018080602001828103825260108152602001807f5472616e7366657273204c6f636b65640000000000000000000000000000000081525060200191505060405180910390fd5b61433e856165dd565b60016007600087815260200190815260200160002060000160026101000a81548160ff02191690831515021790555060016007600085815260200190815260200160002060000160026101000a81548160ff0219169083151502179055506001151560086000878152602001908152602001600020600086815260200190815260200160002060100160009054906101000a900460ff16151514151561444c576040517f08c379a00000000000000000000000000000000000000000000000000000000081526004018080602001828103825260138152602001807f5472616e736665722050726f686962697465640000000000000000000000000081525060200191505060405180910390fd5b600060086000878152602001908152602001600020600086815260200190815260200160002060100160006101000a81548160ff0219169083151502179055506000600860008781526020019081526020016000206000868152602001908152602001600020600f015490506144c28482617cbe565b60006007600088815260200190815260200160002060000160026101000a81548160ff02191690831515021790555060006007600086815260200190815260200160002060000160026101000a81548160ff021916908315150217905550505050505050565b8060011515601d60009054906101000a900473ffffffffffffffffffffffffffffffffffffffff1673ffffffffffffffffffffffffffffffffffffffff16635b5aed3a836040518263ffffffff167c01000000000000000000000000000000000000000000000000000000000281526004018082815260200191505060206040518083038186803b1580156145bc57600080fd5b505afa1580156145d0573d6000803e3d6000fd5b505050506040513d60208110156145e657600080fd5b8101908080519060200190929190505050151514151561466e576040517f08c379a000000000000000000000000000000000000000000000000000000000815260040180806020018281038252600d8152602001807f45494e206e6f7420466f756e640000000000000000000000000000000000000081525060200191505060405180910390fd5b6146778261646d565b6000601d60009054906101000a900473ffffffffffffffffffffffffffffffffffffffff1673ffffffffffffffffffffffffffffffffffffffff166305c62c2f336040518263ffffffff167c0100000000000000000000000000000000000000000000000000000000028152600401808273ffffffffffffffffffffffffffffffffffffffff1673ffffffffffffffffffffffffffffffffffffffff16815260200191505060206040518083038186803b15801561473457600080fd5b505afa158015614748573d6000803e3d6000fd5b505050506040513d602081101561475e57600080fd5b8101908080519060200190929190505050905060001515601a6000838152602001908152602001600020600085815260200190815260200160002060009054906101000a900460ff16151514151561481e576040517f08c379a000000000000000000000000000000000000000000000000000000000815260040180806020018281038252600f8152602001807f45494e2077686974656c6973746564000000000000000000000000000000000081525060200191505060405180910390fd5b6001601b6000838152602001908152602001600020600085815260200190815260200160002060006101000a81548160ff0219169083151502179055507f268aa614041be848a8eec03d06abc714c936e4466e52d79c1b0073d0bd5622fd8184604051808381526020018281526020019250505060405180910390a1505050565b60008060009054906101000a900473ffffffffffffffffffffffffffffffffffffffff16905090565b600360159054906101000a900460ff1681565b60008060009054906101000a900473ffffffffffffffffffffffffffffffffffffffff1673ffffffffffffffffffffffffffffffffffffffff163373ffffffffffffffffffffffffffffffffffffffff1614905090565b6000600360009054906101000a900473ffffffffffffffffffffffffffffffffffffffff1673ffffffffffffffffffffffffffffffffffffffff163373ffffffffffffffffffffffffffffffffffffffff16141515614a1f576040517f08c379a00000000000000000000000000000000000000000000000000000000081526004018080602001828103825260218152602001807f446964206e6f74206f726967696e6174652066726f6d20536e6f77666c616b6581526020017f2e0000000000000000000000000000000000000000000000000000000000000081525060400191505060405180910390fd5b600190509392505050565b6000600360009054906101000a900473ffffffffffffffffffffffffffffffffffffffff1673ffffffffffffffffffffffffffffffffffffffff163373ffffffffffffffffffffffffffffffffffffffff16141515614b17576040517f08c379a00000000000000000000000000000000000000000000000000000000081526004018080602001828103825260218152602001807f446964206e6f74206f726967696e6174652066726f6d20536e6f77666c616b6581526020017f2e0000000000000000000000000000000000000000000000000000000000000081525060400191505060405180910390fd5b6001905092915050565b81600015156007600083815260200190815260200160002060000160019054906101000a900460ff161515141515614bc1576040517f08c379a000000000000000000000000000000000000000000000000000000000815260040180806020018281038252600d8152602001807f47726f757073204c6f636b65640000000000000000000000000000000000000081525060200191505060405180910390fd5b614bca836165dd565b60016007600085815260200190815260200160002060000160016101000a81548160ff0219169083151502179055506000600d600085815260200190815260200160002054905060006001820190508181111515614cb6576040517f08c379a000000000000000000000000000000000000000000000000000000000815260040180806020018281038252603b8152602001807f4c696d69742072656163686564206f6e206e756d626572206f662067726f757081526020017f732c2063616e277420637265617465206d6f72652067726f757073000000000081525060400191505060405180910390fd5b600080614cc68784600080616cbc565b809250819350505060606040519081016040528060408051908101604052808581526020018481525081526020018781526020016000815250600b60008981526020019081526020016000206000858152602001908152602001600020600082015181600001600082015181600001556020820151816001015550506020820151816002019080519060200190614d5e929190618451565b5060408201518160040155905050614d8a600c6000898152602001908152602001600020856000616fc8565b600d6000898152602001908152602001600020819055507fa5edfd2fddc5d31cfe8722fdf90ee7cbc852fb72f5d008e4672cd2d8d365d4cc8784886040518084815260200183815260200180602001828103825283818151815260200191508051906020019080838360005b83811015614e11578082015181840152602081019050614df6565b50505050905090810190601f168015614e3e5780820380516001836020036101000a031916815260200191505b5094505050505060405180910390a160006007600089815260200190815260200160002060000160016101000a81548160ff02191690831515021790555050505050505050565b60106020528060005260406000206000915090505481565b60065481565b81816000600b6000848152602001908152602001600020600083815260200190815260200160002060040154141515614f44576040517f08c379a000000000000000000000000000000000000000000000000000000000815260040180806020018281038252600f8152602001807f47726f7570206861732046696c6573000000000000000000000000000000000081525060200191505060405180910390fd5b82600081111515614fbd576040517f08c379a000000000000000000000000000000000000000000000000000000000815260040180806020018281038252600d8152602001807f5265736572766564204974656d0000000000000000000000000000000000000081525060200191505060405180910390fd5b84600015156007600083815260200190815260200160002060000160019054906101000a900460ff16151514151561505d576040517f08c379a000000000000000000000000000000000000000000000000000000000815260040180806020018281038252600d8152602001807f47726f757073204c6f636b65640000000000000000000000000000000000000081525060200191505060405180910390fd5b615066866165dd565b60016007600088815260200190815260200160002060000160016101000a81548160ff0219169083151502179055506000600d600088815260200190815260200160002054905080861115151561514b576040517f08c379a00000000000000000000000000000000000000000000000000000000081526004018080602001828103825260268152602001807f47726f757020646f65736e277420657869737420666f7220746865205573657281526020017f202f2045494e000000000000000000000000000000000000000000000000000081525060400191505060405180910390fd5b615199600b600089815260200190815260200160002060008881526020019081526020016000206000016040805190810160405290816000820154815260200160018201548152505061674c565b600b60008881526020019081526020016000206000828152602001908152602001600020600b600089815260200190815260200160002060008881526020019081526020016000206000820181600001600082015481600001556001820154816001015550506002820181600201908054600181600116156101000203166002900461522692919061834a565b5060048201548160040155905050615253600c600089815260200190815260200160002087836000616926565b600d600089815260200190815260200160002081905550600b600088815260200190815260200160002060008281526020019081526020016000206000808201600080820160009055600182016000905550506002820160006152b691906184d1565b600482016000905550507fd66ad55acd1951823df5c1b5c065951e2949a7cc40190ec571a2677508e1366587878360405180848152602001838152602001828152602001935050505060405180910390a160006007600089815260200190815260200160002060000160016101000a81548160ff02191690831515021790555050505050505050565b600d6020528060005260406000206000915090505481565b60008060006008600086815260200190815260200160002060008581526020019081526020016000206002015492506008600086815260200190815260200160002060008581526020019081526020016000206000016000015491506008600086815260200190815260200160002060008581526020019081526020016000206000016001015490509250925092565b6015602052816000526040600020602052806000526040600020600091509150508060000154908060010154908060020154908060030160009054906101000a900460ff16905084565b6000806000806000806000600460008a81526020019081526020016000206000898152602001908152602001600020600001600001549650600460008a81526020019081526020016000206000898152602001908152602001600020600001600101549550600460008a8152602001908152602001600020600089815260200190815260200160002060020160009054906101000a900460ff169450600460008a8152602001908152602001600020600089815260200190815260200160002060020160019054906101000a900460ff169350600460008a8152602001908152602001600020600089815260200190815260200160002060020160029054906101000a900460ff169250600460008a81526020019081526020016000206000898152602001908152602001600020600401549150600460008a8152602001908152602001600020600089815260200190815260200160002060060154905092959891949750929550565b6155a3618519565b60606155c3600c6000888152602001908152602001600020868686617fa3565b9150600080905060008090505b6000151581151514156156ae5760606155ff89868561ffff166014811015156155f557fe5b602002015161275b565b905080915050615644816040805190810160405280600181526020017f7c00000000000000000000000000000000000000000000000000000000000000815250618108565b90506156508482618108565b935082806001019350508661ffff168361ffff16148061569e5750848361ffff1660148110151561567d57fe5b6020020151856001850361ffff1660148110151561569757fe5b6020020151145b156156a857600191505b506155d0565b505094509492505050565b6156c16148db565b15156156cc57600080fd5b80600360006101000a81548173ffffffffffffffffffffffffffffffffffffffff021916908373ffffffffffffffffffffffffffffffffffffffff16021790555050565b6000601d60009054906101000a900473ffffffffffffffffffffffffffffffffffffffff1673ffffffffffffffffffffffffffffffffffffffff166305c62c2f336040518263ffffffff167c0100000000000000000000000000000000000000000000000000000000028152600401808273ffffffffffffffffffffffffffffffffffffffff1673ffffffffffffffffffffffffffffffffffffffff16815260200191505060206040518083038186803b1580156157cd57600080fd5b505afa1580156157e1573d6000803e3d6000fd5b505050506040513d60208110156157f757600080fd5b81019080805190602001909291905050509050615849816040805190810160405280600181526020017f4100000000000000000000000000000000000000000000000000000000000000815250614b21565b615888816040805190810160405280600181526020017f4200000000000000000000000000000000000000000000000000000000000000815250614b21565b6158c7816040805190810160405280600181526020017f4300000000000000000000000000000000000000000000000000000000000000815250614b21565b615906816040805190810160405280600181526020017f4400000000000000000000000000000000000000000000000000000000000000815250614b21565b615945816040805190810160405280600181526020017f4500000000000000000000000000000000000000000000000000000000000000815250614b21565b615984816040805190810160405280600181526020017f4600000000000000000000000000000000000000000000000000000000000000815250614b21565b6159c3816040805190810160405280600181526020017f4700000000000000000000000000000000000000000000000000000000000000815250614b21565b615a02816040805190810160405280600181526020017f4800000000000000000000000000000000000000000000000000000000000000815250614b21565b50565b81600081111515615a7e576040517f08c379a000000000000000000000000000000000000000000000000000000000815260040180806020018281038252600d8152602001807f5265736572766564204974656d0000000000000000000000000000000000000081525060200191505060405180910390fd5b615a87846165dd565b60011515615a958585616b62565b1515141515615b32576040517f08c379a00000000000000000000000000000000000000000000000000000000081526004018080602001828103825260218152602001807f47726f757020646f65736e277420657869737420666f7220746865205573657281526020017f2e0000000000000000000000000000000000000000000000000000000000000081525060400191505060405180910390fd5b81600b600086815260200190815260200160002060008581526020019081526020016000206002019080519060200190615b6d9291906183d1565b507ffb99e9069a7eed8318d56501970264d150dcac4088e37bbf4bff66a71223b74b8484846040518084815260200183815260200180602001828103825283818151815260200191508051906020019080838360005b83811015615bde578082015181840152602081019050615bc3565b50505050905090810190601f168015615c0b5780820380516001836020036101000a031916815260200191505b5094505050505060405180910390a150505050565b60166020528060005260406000206000915090505481565b600f602052816000526040600020602052806000526040600020600091509150508060000154908060010154908060020154908060030160009054906101000a900460ff16905084565b8060011515601d60009054906101000a900473ffffffffffffffffffffffffffffffffffffffff1673ffffffffffffffffffffffffffffffffffffffff16635b5aed3a836040518263ffffffff167c01000000000000000000000000000000000000000000000000000000000281526004018082815260200191505060206040518083038186803b158015615d1657600080fd5b505afa158015615d2a573d6000803e3d6000fd5b505050506040513d6020811015615d4057600080fd5b81019080805190602001909291905050501515141515615dc8576040517f08c379a000000000000000000000000000000000000000000000000000000000815260040180806020018281038252600d8152602001807f45494e206e6f7420466f756e640000000000000000000000000000000000000081525060200191505060405180910390fd5b615dd18261646d565b6000601d60009054906101000a900473ffffffffffffffffffffffffffffffffffffffff1673ffffffffffffffffffffffffffffffffffffffff166305c62c2f336040518263ffffffff167c0100000000000000000000000000000000000000000000000000000000028152600401808273ffffffffffffffffffffffffffffffffffffffff1673ffffffffffffffffffffffffffffffffffffffff16815260200191505060206040518083038186803b158015615e8e57600080fd5b505afa158015615ea2573d6000803e3d6000fd5b505050506040513d6020811015615eb857600080fd5b8101908080519060200190929190505050905060001515601a6000838152602001908152602001600020600085815260200190815260200160002060009054906101000a900460ff161515141515615f78576040517f08c379a000000000000000000000000000000000000000000000000000000000815260040180806020018281038252600f8152602001807f45494e2077686974656c6973746564000000000000000000000000000000000081525060200191505060405180910390fd5b6000601a6000838152602001908152602001600020600085815260200190815260200160002060006101000a81548160ff0219169083151502179055507f89793498dba1e15098e92cb548b33029672ea462853d1262390204b529d888ef8184604051808381526020018281526020019250505060405180910390a1505050565b8060011515601d60009054906101000a900473ffffffffffffffffffffffffffffffffffffffff1673ffffffffffffffffffffffffffffffffffffffff16635b5aed3a836040518263ffffffff167c01000000000000000000000000000000000000000000000000000000000281526004018082815260200191505060206040518083038186803b15801561608d57600080fd5b505afa1580156160a1573d6000803e3d6000fd5b505050506040513d60208110156160b757600080fd5b8101908080519060200190929190505050151514151561613f576040517f08c379a000000000000000000000000000000000000000000000000000000000815260040180806020018281038252600d8152602001807f45494e206e6f7420466f756e640000000000000000000000000000000000000081525060200191505060405180910390fd5b6161488261646d565b6000601d60009054906101000a900473ffffffffffffffffffffffffffffffffffffffff1673ffffffffffffffffffffffffffffffffffffffff166305c62c2f336040518263ffffffff167c0100000000000000000000000000000000000000000000000000000000028152600401808273ffffffffffffffffffffffffffffffffffffffff1673ffffffffffffffffffffffffffffffffffffffff16815260200191505060206040518083038186803b15801561620557600080fd5b505afa158015616219573d6000803e3d6000fd5b505050506040513d602081101561622f57600080fd5b8101908080519060200190929190505050905060001515601b6000838152602001908152602001600020600085815260200190815260200160002060009054906101000a900460ff1615151415156162ef576040517f08c379a000000000000000000000000000000000000000000000000000000000815260040180806020018281038252600f8152602001807f45494e20626c61636b6c6973746564000000000000000000000000000000000081525060200191505060405180910390fd5b6000601a6000838152602001908152602001600020600085815260200190815260200160002060006101000a81548160ff0219169083151502179055507f29f3bb6c612e040fa60e402db6e1cc866432046c42b69343e9a1fe5ec8a113798184604051808381526020018281526020019250505060405180910390a1505050565b6163786148db565b151561638357600080fd5b61638c816181d4565b50565b600a6020528060005260406000206000915090505481565b601c60009054906101000a900473ffffffffffffffffffffffffffffffffffffffff1681565b600360009054906101000a900473ffffffffffffffffffffffffffffffffffffffff1681565b6163fb618519565b616419600c6000878152602001908152602001600020858585617fa3565b9050949350505050565b6012602052816000526040600020602052806000526040600020600091509150508060000154908060010154908060020154908060030160009054906101000a900460ff16905084565b80601d60009054906101000a900473ffffffffffffffffffffffffffffffffffffffff1673ffffffffffffffffffffffffffffffffffffffff166305c62c2f336040518263ffffffff167c0100000000000000000000000000000000000000000000000000000000028152600401808273ffffffffffffffffffffffffffffffffffffffff1673ffffffffffffffffffffffffffffffffffffffff16815260200191505060206040518083038186803b15801561652957600080fd5b505afa15801561653d573d6000803e3d6000fd5b505050506040513d602081101561655357600080fd5b8101908080519060200190929190505050141515156165da576040517f08c379a000000000000000000000000000000000000000000000000000000000815260040180806020018281038252600e8152602001807f4f6e6c79204e6f6e2d4f776e657200000000000000000000000000000000000081525060200191505060405180910390fd5b50565b80601d60009054906101000a900473ffffffffffffffffffffffffffffffffffffffff1673ffffffffffffffffffffffffffffffffffffffff166305c62c2f336040518263ffffffff167c0100000000000000000000000000000000000000000000000000000000028152600401808273ffffffffffffffffffffffffffffffffffffffff1673ffffffffffffffffffffffffffffffffffffffff16815260200191505060206040518083038186803b15801561669957600080fd5b505afa1580156166ad573d6000803e3d6000fd5b505050506040513d60208110156166c357600080fd5b8101908080519060200190929190505050141515616749576040517f08c379a000000000000000000000000000000000000000000000000000000000815260040180806020018281038252600a8152602001807f4f6e6c79204f776e65720000000000000000000000000000000000000000000081525060200191505060405180910390fd5b50565b6001600460008360000151815260200190815260200160002060008360200151815260200190815260200160002060020160026101000a81548160ff02191690831515021790555050565b828160008114806167e0575060011515600c6000848152602001908152602001600020600083815260200190815260200160002060030160009054906101000a900460ff161515145b1515616854576040517f08c379a000000000000000000000000000000000000000000000000000000000815260040180806020018281038252601b8152602001807f47726f7570204f7264657220496e646578206e6f7420466f756e64000000000081525060200191505060405180910390fd5b6000600b600087815260200190815260200160002060008681526020019081526020016000206004015490506000600b6000888152602001908152602001600020600087815260200190815260200160002060030160008381526020019081526020016000206002015490506168f2600b60008981526020019081526020016000206000888152602001908152602001600020600301868484616926565b600b600089815260200190815260200160002060008881526020019081526020016000206004018190555050505050505050565b6000808560008681526020019081526020016000206001015490506000866000878152602001908152602001600020600001549050808760008481526020019081526020016000206000018190555081876000838152602001908152602001600020600101819055508486141515616aac578660008681526020019081526020016000208760008881526020019081526020016000206000820154816000015560018201548160010155600282015481600201556003820160009054906101000a900460ff168160030160006101000a81548160ff0219169083151502179055509050506000841415616a32578587600088815260200190815260200160002060020181905550616a4d565b83876000888152602001908152602001600020600201819055505b858760008960008a815260200190815260200160002060000154815260200190815260200160002060010181905550858760008960008a8152602001908152602001600020600101548152602001908152602001600020600001819055505b600087600087815260200190815260200160002060030160006101000a81548160ff021916908315150217905550600085111515616b52576040517f08c379a000000000000000000000000000000000000000000000000000000000815260040180806020018281038252600e8152602001807f4974656d204e6f7420466f756e6400000000000000000000000000000000000081525060200191505060405180910390fd5b6001850392505050949350505050565b600080600d60008581526020019081526020016000205490508083111515616b8e576001915050616b94565b60009150505b92915050565b600084836000811480616be5575060011515600c6000848152602001908152602001600020600083815260200190815260200160002060030160009054906101000a900460ff161515145b1515616c59576040517f08c379a000000000000000000000000000000000000000000000000000000000815260040180806020018281038252601b8152602001807f47726f7570204f7264657220496e646578206e6f7420466f756e64000000000081525060200191505060405180910390fd5b6000600b600089815260200190815260200160002060008881526020019081526020016000206003016000878152602001908152602001600020600201549050616ca4888888616797565b616caf888683616e8e565b9350505050949350505050565b60008060055460058190555060016006540160068190555060006006541415616d66576001600554016005819055506000600554111515616d65576040517f08c379a000000000000000000000000000000000000000000000000000000000815260040180806020018281038252600c8152602001807f53746f726167652046756c6c000000000000000000000000000000000000000081525060200191505060405180910390fd5b5b616d6e61853d565b604080519081016040528088815260200187815250905060c06040519081016040528082815260200186151581526020018515158152602001600115158152602001600081526020016000815250600460006005548152602001908152602001600020600060065481526020019081526020016000206000820151816000016000820151816000015560208201518160010155505060208201518160020160006101000a81548160ff02191690831515021790555060408201518160020160016101000a81548160ff02191690831515021790555060608201518160020160026101000a81548160ff0219169083151502179055506080820151816004015560a08201518160060155905050600554925060065491505094509492505050565b600080600b60008681526020019081526020016000206000858152602001908152602001600020600401549050616eec600b600087815260200190815260200160002060008681526020019081526020016000206003018285616fc8565b600b600087815260200190815260200160002060008681526020019081526020016000206004018190555083600860008781526020019081526020016000206000858152602001908152602001600020600a0181905550600b6000868152602001908152602001600020600085815260200190815260200160002060040154600860008781526020019081526020016000206000858152602001908152602001600020600b0181905550600b60008681526020019081526020016000206000858152602001908152602001600020600401549150509392505050565b60008060018401905083811180616fe0575060008314155b1515617054576040517f08c379a000000000000000000000000000000000000000000000000000000000815260040180806020018281038252600a8152602001807f536c6f74732046756c6c0000000000000000000000000000000000000000000081525060200191505060405180910390fd5b8085600086815260200190815260200160002060000181905550600185600086815260200190815260200160002060030160006101000a81548160ff02191690831515021790555060008414156170c05780856000808152602001908152602001600020600001819055505b80856000808152602001908152602001600020600101819055506000808414156170ec578190506170f0565b8390505b608060405190810160405280600081526020018681526020018281526020016001151581525086600084815260200190815260200160002060008201518160000155602082015181600101556040820151816002015560608201518160030160006101000a81548160ff02191690831515021790555090505081925050509392505050565b6000600a60008681526020019081526020016000205490506000600a600085815260200190815260200160002054905060006001830390506000811015151561724c576040517f08c379a00000000000000000000000000000000000000000000000000000000081526004018080602001828103825260228152602001807f4e6f2066696c6520666f756e6420696e20746865207472616e7366657265722081526020017f646200000000000000000000000000000000000000000000000000000000000081525060400191505060405180910390fd5b600060018301905082811115156172f1576040517f08c379a000000000000000000000000000000000000000000000000000000000815260040180806020018281038252602e8152602001807f547261736e66657265652055736572206861732072756e206f7574206f66207481526020017f72616e7366657220736c6f74732e00000000000000000000000000000000000081525060400191505060405180910390fd5b600860008981526020019081526020016000206000888152602001908152602001600020600860008881526020019081526020016000206000838152602001908152602001600020600082018160000160008201548160000155600182015481600101555050600282015481600201556003820160009054906101000a900460ff168160030160006101000a81548160ff021916908360ff160217905550600482018160040190805460018160011615610100020316600290046173b692919061834a565b50600582018160050190805460018160011615610100020316600290046173de92919061834a565b50600782015481600701556008820160009054906101000a900460ff168160080160006101000a81548160ff021916908315150217905550600a82015481600a0155600b82015481600b0155600d82015481600d0155600e82015481600e0155600f82015481600f01556010820160009054906101000a900460ff168160100160006101000a81548160ff0219169083151502179055509050506000600860008881526020019081526020016000206000838152602001908152602001600020600d01549050600181019050600081111515617522576040517f08c379a000000000000000000000000000000000000000000000000000000000815260040180806020018281038252600e8152602001807f5472616e73666572732046756c6c00000000000000000000000000000000000081525060200191505060405180910390fd5b866008600089815260200190815260200160002060008481526020019081526020016000206002018190555086600860008981526020019081526020016000206000848152602001908152602001600020600c01600083815260200190815260200160002081905550600060086000898152602001908152602001600020600084815260200190815260200160002060100160006101000a81548160ff02191690831515021790555080600860008981526020019081526020016000206000848152602001908152602001600020600d018190555061761560096000898152602001908152602001600020856000616fc8565b600a60008981526020019081526020016000208190555061768589600860008c81526020019081526020016000206000888152602001908152602001600020600a0154600860008d81526020019081526020016000206000898152602001908152602001600020600b0154616797565b600860008a81526020019081526020016000206000868152602001908152602001600020600860008b815260200190815260200160002060008a8152602001908152602001600020600082018160000160008201548160000155600182015481600101555050600282015481600201556003820160009054906101000a900460ff168160030160006101000a81548160ff021916908360ff1602179055506004820181600401908054600181600116156101000203166002900461774a92919061834a565b506005820181600501908054600181600116156101000203166002900461777292919061834a565b50600782015481600701556008820160009054906101000a900460ff168160080160006101000a81548160ff021916908315150217905550600a82015481600a0155600b82015481600b0155600d82015481600d0155600e82015481600e0155600f82015481600f01556010820160009054906101000a900460ff168160100160006101000a81548160ff02191690831515021790555090505061782b600960008b815260200190815260200160002089876000616926565b600a60008b8152602001908152602001600020819055506178608787600a60008b815260200190815260200160002054616e8e565b5060008061786e898b615357565b9091508092508193505050886004600084815260200190815260200160002060008381526020019081526020016000206000016000018190555083600460008481526020019081526020016000206000838152602001908152602001600020600001600101819055505050505050505050505050565b600060106000838152602001908152602001600020549050600060018201905081811115156179ed576040517f08c379a00000000000000000000000000000000000000000000000000000000081526004018080602001828103825260698152602001807f4c696d69742072656163686564206f6e206e756d626572206f66207472616e7381526020017f666572732c2063616e2774207472616e73666572206d6f72652066696c65732081526020017f746f20746861742045494e202855736572292074696c6c207468657920636c6581526020017f61722069742075702e000000000000000000000000000000000000000000000081525060800191505060405180910390fd5b600160086000878152602001908152602001600020600086815260200190815260200160002060100160006101000a81548160ff02191690831515021790555082600860008781526020019081526020016000206000868152602001908152602001600020600e018190555080600860008581526020019081526020016000206000868152602001908152602001600020600f0181905550600080617a928787615357565b90915080925081935050506001151560046000848152602001908152602001600020600083815260200190815260200160002060020160009054906101000a900460ff161515141515617b4d576040517f08c379a00000000000000000000000000000000000000000000000000000000081526004018080602001828103825260108152602001807f4e6f6e2d5472616e7366657261626c650000000000000000000000000000000081525060200191505060405180910390fd5b600460008381526020019081526020016000206000828152602001908152602001600020600e600087815260200190815260200160002060008581526020019081526020016000206000820181600001600082015481600001556001820154816001015550506002820160009054906101000a900460ff168160020160006101000a81548160ff0219169083151502179055506002820160019054906101000a900460ff168160020160016101000a81548160ff0219169083151502179055506002820160029054906101000a900460ff168160020160026101000a81548160ff0219169083151502179055506004820154816004015560068201548160060155905050617c6f600f6000898152602001908152602001600020856000616fc8565b60106000878152602001908152602001600020819055508585887fbf6895715dbf24953564001b3ff975257cecfae946866daa1a1d345061a21e9160405160405180910390a450505050505050565b600060106000848152602001908152602001600020549050600081111515617d4e576040517f08c379a000000000000000000000000000000000000000000000000000000000815260040180806020018281038252600f8152602001807f496e646578204e6f7420466f756e64000000000000000000000000000000000081525060200191505060405180910390fd5b600e60008481526020019081526020016000206000828152602001908152602001600020600e600085815260200190815260200160002060008481526020019081526020016000206000820181600001600082015481600001556001820154816001015550506002820160009054906101000a900460ff168160020160006101000a81548160ff0219169083151502179055506002820160019054906101000a900460ff168160020160016101000a81548160ff0219169083151502179055506002820160029054906101000a900460ff168160020160026101000a81548160ff0219169083151502179055506004820154816004015560068201548160060155905050617e71600f600085815260200190815260200160002083836000616926565b6010600085815260200190815260200160002081905550617e90618557565b600e6000858152602001908152602001600020600084815260200190815260200160002060c06040519081016040529081600082016040805190810160405290816000820154815260200160018201548152505081526020016002820160009054906101000a900460ff161515151581526020016002820160019054906101000a900460ff161515151581526020016002820160029054906101000a900460ff1615151515815260200160048201548152602001600682015481525050905060011515816020015115151415617f9d578260086000836000015160000151815260200190815260200160002060008360000151602001518152602001908152602001600020600f01819055505b50505050565b617fab618519565b600080600080617fbb89896182ce565b80945081955082975083965050505050600115158615151415617ff757617fe289856182ce565b80945081955082975083965050505050618012565b61800189846182ce565b809450819550829750839650505050505b600080905060148861ffff1610151561802a57601497505b5b60008861ffff161415156180fb5760001515821515148061804c5750600083145b156180815760009750600083141561807c576000868261ffff1660148110151561807257fe5b6020020181815250505b6180f6565b82868261ffff1660148110151561809457fe5b6020020181815250506001151587151514156180c9576180b48a866182ce565b809550819650829850839750505050506180e4565b6180d38a856182ce565b809550819650829850839750505050505b80806001019150508780600190039850505b61802b565b5050505050949350505050565b606082826040516020018083805190602001908083835b602083101515618144578051825260208201915060208101905060208303925061811f565b6001836020036101000a03801982511681845116808217855250505050505090500182805190602001908083835b6020831015156181975780518252602082019150602081019050602083039250618172565b6001836020036101000a03801982511681845116808217855250505050505090500192505050604051602081830303815290604052905092915050565b600073ffffffffffffffffffffffffffffffffffffffff168173ffffffffffffffffffffffffffffffffffffffff161415151561821057600080fd5b8073ffffffffffffffffffffffffffffffffffffffff166000809054906101000a900473ffffffffffffffffffffffffffffffffffffffff1673ffffffffffffffffffffffffffffffffffffffff167f8be0079c531659141344cd1fd0a4f28419497f9722a3daafe3b4186f6b6457e060405160405180910390a3806000806101000a81548173ffffffffffffffffffffffffffffffffffffffff021916908373ffffffffffffffffffffffffffffffffffffffff16021790555050565b60008060008085600086815260200190815260200160002060010154935085600086815260200190815260200160002060000154925085600086815260200190815260200160002060020154915085600086815260200190815260200160002060030160009054906101000a900460ff16905092959194509250565b828054600181600116156101000203166002900490600052602060002090601f016020900481019282601f1061838357805485556183c0565b828001600101855582156183c057600052602060002091601f016020900482015b828111156183bf5782548255916001019190600101906183a4565b5b5090506183cd919061859a565b5090565b828054600181600116156101000203166002900490600052602060002090601f016020900481019282601f1061841257805160ff1916838001178555618440565b82800160010185558215618440579182015b8281111561843f578251825591602001919060010190618424565b5b50905061844d919061859a565b5090565b828054600181600116156101000203166002900490600052602060002090601f016020900481019282601f1061849257805160ff19168380011785556184c0565b828001600101855582156184c0579182015b828111156184bf5782518255916020019190600101906184a4565b5b5090506184cd919061859a565b5090565b50805460018160011615610100020316600290046000825580601f106184f75750618516565b601f016020900490600052602060002090810190618515919061859a565b5b50565b61028060405190810160405280601490602082028038833980820191505090505090565b604080519081016040528060008152602001600081525090565b60e06040519081016040528061856b6185bf565b815260200160001515815260200160001515815260200160001515815260200160008152602001600081525090565b6185bc91905b808211156185b85760008160009055506001016185a0565b5090565b90565b60408051908101604052806000815260200160008152509056fea165627a7a723058208e9fb120f48c971c6d23b703082c99e18e06085b712ec5e360b71a2511b023b30029",
  "source": "pragma solidity ^0.5.0;\n\nimport \"./SnowflakeResolver.sol\";\nimport \"./interfaces/SnowflakeInterface.sol\";\nimport \"./interfaces/IdentityRegistryInterface.sol\";\n\nimport \"./zeppelin/math/SafeMath.sol\";\nimport \"./zeppelin/math/SafeMath16.sol\";\n\n/**\n * @title Ice Protocol\n * @author Harsh Rajat\n * @notice Create Protocol Less File Storage, Grouping, Hassle free Encryption / Decryption and Stamping using Snowflake \n * @dev This Contract forms File Storage / Stamping / Encryption part of Hydro Protocols\n */\ncontract Ice is SnowflakeResolver {   \n    using SafeMath for uint16;\n    using SafeMath for uint256;\n\n    /* ***************\n    * DEFINE ENUM\n    *************** */\n    enum NoticeType {info, warning, error}\n    \n    /* ***************\n    * DEFINE VARIABLES\n    *************** */\n    /* for each file stored, ensure they can be retrieved publicly.\n     * associationIndex starts at 0 and will always increment\n     * given an associationIndex, any file can be retrieved.\n     */\n    mapping (uint256 => mapping(uint256 => Association)) globalItems;\n    uint256 public globalItemsIndex1; // store the first index of association to retrieve files\n    uint256 public globalItemsIndex2; // store the first index of association to retrieve files\n    \n    /* for each user (EIN), look up the Transitioon State they have\n     * stored on a given index.\n     */\n    mapping (uint256 => AtomicityState) public userAtomicity;\n     \n    /* for each user (EIN), look up the file they have\n     * stored on a given index.\n     */ \n    mapping (uint256 => mapping(uint256 => File)) private files;\n    mapping (uint256 => mapping(uint256 => SortOrder)) public fileOrder; // Store round robin order of files\n    mapping (uint256 => uint256) public fileCount; // store the maximum file count reached to provide looping functionality\n    \n    /* for each user (EIN), look up the group they have\n     * stored on a given index. Default group 0 indicates\n     * root folder\n     */ \n    mapping (uint256 => mapping(uint256 => Group)) private groups;\n    mapping (uint256 => mapping(uint256 => SortOrder)) public groupOrder; // Store round robin order of group\n    mapping (uint256 => uint256) public groupCount; // store the maximum group count reached to provide looping functionality\n    \n    /* for each user (EIN), look up the incoming transfer request\n     * stored on a given index.\n     */ \n    mapping (uint256 => mapping(uint256 => Association)) transfers;\n    mapping (uint256 => mapping(uint256 => SortOrder)) public transferOrder; // Store round robin order of transfers\n    mapping (uint256 => uint256) public transferIndex; // store the maximum transfer request count reached to provide looping functionality\n    \n    /* for each user (EIN), look up the incoming sharing files\n     * stored on a given index.\n     */ \n    mapping (uint256 => mapping(uint256 => Association)) sharings;\n    mapping (uint256 => mapping(uint256 => SortOrder)) public sharingOrder; // Store round robin order of sharing\n    mapping (uint256 => uint256) public shareCount; // store the maximum shared items count reached to provide looping functionality\n    \n    /* for each user (EIN), look up the incoming sharing files\n     * stored on a given index.\n     */ \n    mapping (uint256 => mapping(uint256 => Association)) stampings;\n    mapping (uint256 => mapping(uint256 => SortOrder)) public stampingOrder; // Store round robin order of stamping\n    mapping (uint256 => uint256) public stampingCount; // store the maximum file index reached to provide looping functionality\n    \n    /* for each user (EIN), look up the incoming sharing files\n     * stored on a given index.\n     */ \n    mapping (uint256 => mapping(uint256 => Association))  stampingsRequest;\n    mapping (uint256 => mapping(uint256 => SortOrder)) public stampingsRequestOrder; // Store round robin order of stamping requests\n    mapping (uint256 => uint256) public stampingsRequestCount; // store the maximum file index reached to provide looping functionality\n    \n    /* for each user (EIN), have a whitelist and blacklist\n     * association which can handle certain functions automatically.\n     */\n    mapping (uint256 => mapping(uint256 => bool)) public whitelist;\n    mapping (uint256 => mapping(uint256 => bool)) public blacklist;\n    \n    /* for referencing SnowFlake for Identity Registry (ERC-1484).\n     */\n    SnowflakeInterface public snowflake;\n    IdentityRegistryInterface public identityRegistry;\n   \n    /* ***************\n    * DEFINE STRUCTURES\n    *************** */\n    /* To define ownership info of a given Item.\n     */\n    struct ItemOwner {\n        uint256 ownerEIN; // the EIN of the owner\n        uint256 itemIndex; // the key at which the item is stored\n    }\n     \n    /* To define global file association with EIN\n     * Combining EIN and itemIndex and properties will give access to\n     * item data.\n     */\n    struct Association {\n        ItemOwner ownerInfo; // To Store Iteminfo\n        \n        bool isFile; // whether the Item is File or Group\n        bool isLocked; // Whether the item requires stamping \n        bool deleted; // whether the association is deleted \n        \n        // Item Sharing Properties        \n        mapping (uint256 => ItemOwner) sharedTo; // 0 - Contains User EIN, 1 Contains specific index\n        uint256 sharedToCount; // the count of sharing        \n        \n        // Item Stamping Properties\n        mapping (uint256 => ItemOwner) stampingReqs; // to have stamping reqs count \n        uint256 stampingReqsCount; // the count of stamping\n    }\n    \n    struct GlobalRecord {\n        uint256 index1; // store associated global index 1 for access\n        uint256 index2; // store associated global index 2 for access\n    }\n\n    /* To define File structure of all stored files\n     */\n    struct File {\n        // File Meta Data\n        GlobalRecord record; // store the association in global record\n        uint256 fileOwner; // store file owner EIN\n        \n        // File Properties\n        uint8 protocol; // store protocol of the file stored | 0 is URL, 1 is IPFS\n        string name; // the name of the file\n        string hash; // store the hash of the file for verification | 0x000 for deleted files\n        mapping(uint8 => string) metadata; // store any metadata required as per protocol\n        uint256 timestamp; // to store the timestamp of the block when file is created\n        \n        // File Properties - Encryption Properties\n        bool encrypted; // whether the file is encrypted\n        mapping (address => string) encryptedHash; // Maps Individual address to the stored hash\n        \n        // File Group Properties \n        uint256 associatedGroupIndex;\n        uint256 associatedGroupFileIndex;\n    \n        // File Transfer Properties\n        mapping (uint256 => uint256) transferHistory; // To maintain histroy of transfer of all EIN\n        uint256 transferCount; // To maintain the transfer count for mapping\n        uint256 transferEIN; // To record EIN of the user to whom trasnfer is inititated\n        uint256 transferIndex; // To record the transfer specific index of the transferee\n        bool markedForTransfer; // Mark the file as transferred\n    }\n    \n    /* To connect Files in linear grouping,\n     * sort of like a folder, 0 or default grooupID is root\n     */\n    struct Group {\n        GlobalRecord record; // store the association in global record\n        \n        string name; // the name of the Group\n        \n        mapping (uint256 => SortOrder) groupFilesOrder; // the order of files in the current group\n        uint256 groupFilesCount; // To keep the count of group files\n    }\n    \n    /* To define the order required to have double linked list\n     */\n    struct SortOrder {\n        uint256 next; // the next ID of the order\n        uint256 prev; // the prev ID of the order\n        \n        uint256 pointerID; // what it should point to in the mapping\n        \n        bool active; // whether the node is active or not\n    }\n\n    /* To define state and flags for Individual things,\n     * used in cases where state change should be atomic\n     */\n    struct AtomicityState {\n        bool lockFiles;\n        bool lockGroups;\n        bool lockTransfers;\n        bool lockSharings;\n    }\n    \n    /* ***************\n    * DEFINE EVENTS\n    *************** */\n    // When File is created\n    event FileCreated(\n        uint EIN,\n        uint fileIndex,\n        string fileName\n    );\n    \n    // When File is renamed\n    event FileRenamed(\n        uint EIN,\n        uint fileIndex,\n        string fileName\n    );\n    \n    // When File is moved\n    event FileMoved(\n        uint EIN,\n        uint fileIndex,\n        uint groupIndex,\n        uint groupFileIndex\n    );\n    \n    // When File is deleted\n    event FileDeleted(\n        uint EIN,\n        uint fileIndex\n    );\n    \n    // When Group is created\n    event GroupCreated(\n        uint EIN,\n        uint groupIndex,\n        string groupName\n    );\n    \n    // When Group is renamed\n    event GroupRenamed(\n        uint EIN,\n        uint groupIndex,\n        string groupName\n    );\n    \n    // When Group Status is changed\n    event GroupDeleted(\n        uint EIN,\n        uint groupIndex,\n        uint groupReplacedIndex\n    );\n    \n    // When Transfer is initiated from owner\n    event FileTransferInitiated(\n        uint indexed EIN,\n        uint indexed transfereeEIN,\n        uint indexed fileID\n    );\n    \n    // When whitelist is updated\n    event AddedToWhitelist(\n        uint EIN,\n        uint recipientEIN\n    );\n    \n    event RemovedFromWhitelist(\n        uint EIN,\n        uint recipientEIN\n    );\n    \n    // When blacklist is updated\n    event AddedToBlacklist(\n        uint EIN,\n        uint recipientEIN\n    );\n    \n    event RemovedFromBlacklist(\n        uint EIN,\n        uint recipientEIN\n    );\n    \n    // Notice Events\n    event Notice(\n        uint indexed EIN,\n        string indexed notice,\n        uint indexed statusType\n    );\n    \n    /* ***************\n    * DEFINE CONSTRUCTORS AND RELATED FUNCTIONS\n    *************** */\n    // SNOWFLAKE CONSTRUCTOR / FUNCTIONS\n    address snowflakeAddress = 0xB536a9b68e7c1D2Fd6b9851Af2F955099B3A59a9; // For local use\n    constructor (/*address snowflakeAddress*/) public \n    SnowflakeResolver(\"Ice\", \"Document Management / Stamping on Snowflake\", snowflakeAddress, false, false) {\n        snowflake = SnowflakeInterface(snowflakeAddress);\n        identityRegistry = IdentityRegistryInterface(snowflake.identityRegistryAddress());\n    }\n    \n    function onAddition(uint /* ein */, uint /* allowance */, bytes memory /* extraData */) \n    public \n    senderIsSnowflake() \n    returns (bool) {\n        return true;\n    }\n\n    function onRemoval(uint /* ein */, bytes memory /* extraData */) \n    public \n    senderIsSnowflake() \n    returns (bool) {\n        return true;\n    }\n    \n    function whoEIN()\n    public view\n    returns (uint256, address) {\n        return (\n            identityRegistry.getEIN(msg.sender),\n            msg.sender\n        );\n    }\n    \n    /* ***************\n    * DEFINE CONTRACT FUNCTIONS\n    *************** */\n    // 1. GLOBAL ITEMS FUNCTIONS\n    /**\n     * @dev Function to get global items \n     * @param _index1 is the first index of item\n     * @param _index2 is the second index of item\n     */\n    function getGlobalItems(uint256 _index1, uint256 _index2) \n    public view\n    returns (uint256 ownerEIN, uint256 itemRecord, bool isFile, bool isLocked, bool deleted, uint256 sharedToCount, uint256 stampingReqsCount) {\n        ownerEIN = globalItems[_index1][_index2].ownerInfo.ownerEIN;\n        itemRecord = globalItems[_index1][_index2].ownerInfo.itemIndex;\n        \n        isFile = globalItems[_index1][_index2].isFile;\n        isLocked = globalItems[_index1][_index2].isLocked;\n        deleted = globalItems[_index1][_index2].deleted;\n    \n        sharedToCount = globalItems[_index1][_index2].sharedToCount;\n        stampingReqsCount = globalItems[_index1][_index2].stampingReqsCount;\n    }\n    \n    \n    /**\n     * @dev Private Function to add item to global items\n     * @param _ownerEIN is the EIN of global items\n     * @param _itemIndex is the index at which the item exists on the user mapping \n     * @param _isFile indicates if the item is file or group\n     * @param _isLocked indicates if the item has is Locked or not\n     */\n    function _addItemToGlobalItems(uint256 _ownerEIN, uint256 _itemIndex, bool _isFile, bool _isLocked) \n    private \n    returns (uint256 globalIndex1, uint256 globalIndex2){\n        // Increment global Item (0, 0 is always reserved | Is User Avatar)\n        globalItemsIndex1 = globalItemsIndex1;\n        globalItemsIndex2 = globalItemsIndex2 + 1;\n        \n        if (globalItemsIndex2 == 0) {\n            // This is loopback, Increment newIndex1\n            globalItemsIndex1 = globalItemsIndex1 + 1;\n            \n            require (\n                globalItemsIndex1 > 0,\n                \"Storage Full\"\n            );\n        }\n        \n        ItemOwner memory owner = ItemOwner (\n            _ownerEIN, // Owner EIN \n            _itemIndex // Item stored at what index for that EIN\n        );\n        \n        // Add item to global item, no stiching it \n        globalItems[globalItemsIndex1][globalItemsIndex2] = Association (\n            owner, // Item Owner Info\n            \n            _isFile, // Item is file or group\n            _isLocked, // whether stamping is initiated or not\n            true, // Item is deleted or still exists\n            \n            0, // the count of shared EINs \n            0 // the count of stamping requests\n        );\n        \n        globalIndex1 = globalItemsIndex1;\n        globalIndex2 = globalItemsIndex2;\n    }\n    \n    /**\n     * @dev Private Function to delete a global items \n     * @param _record is the GlobalRecord Struct\n     */\n    function _deleteGlobalRecord(GlobalRecord memory _record) \n    internal {\n        globalItems[_record.index1][_record.index2].deleted = true;\n    }\n    \n    // 2. FILE FUNCTIONS\n    /**\n     * @dev Function to get Meta Data of File\n     * @param _ein is the EIN of the user\n     * @param _fileIndex is the index of the file\n     */\n    function getFileMetaData(uint256 _ein, uint256 _fileIndex) \n    public view \n    returns (uint256 fileOwner, uint256 globalIndex1, uint256 globalIndex2) {\n        fileOwner = files[_ein][_fileIndex].fileOwner;\n        \n        globalIndex1 = files[_ein][_fileIndex].record.index1;\n        globalIndex2 = files[_ein][_fileIndex].record.index2;\n    }\n    \n    /**\n     * @dev Function to add File\n     * @param _protocol is the protocol used\n     * @param _name is the name of the file \n     * @param _hash is the hash of the stored file\n     * @param _metadata is the data stored for protocol usage \n     * @param _encrypted defines if the file is encrypted or not\n     * @param _encryptedHash defines the encrypted public key password for the sender address\n     * @param _groupIndex defines the index of the group of file\n     */\n    function addFile(uint8 _protocol, string memory _name, string memory _hash, string memory _metadata, bool _encrypted, string memory _encryptedHash, uint256 _groupIndex) \n    public {\n        uint256 ein = identityRegistry.getEIN(msg.sender);\n        \n        require (\n          (userAtomicity[ein].lockFiles == false),\n          \"Can't proceed, Files are locked for other operation.\"\n        );\n        \n        require (\n          (userAtomicity[ein].lockGroups == false),\n          \"Can't proceed, Groups are locked for other operation.\"\n        );\n        \n        require (\n            (_groupExists(ein, _groupIndex) == true), \n            \"Group doesn't exist for the User.\"\n        );\n        \n        // Set File & Group Atomicity\n        userAtomicity[ein].lockFiles = true;\n        userAtomicity[ein].lockGroups = true;\n        \n        uint256 currentFileIndex = fileCount[ein];\n        uint256 nextFileIndex = currentFileIndex + 1;\n        \n        // Add to Global Items \n        uint256 index1;\n        uint256 index2;\n        (index1, index2) = _addItemToGlobalItems(ein, nextFileIndex, false, false);\n    \n        // Finally create the file it to User (EIN)\n        files[ein][nextFileIndex] = File (\n            GlobalRecord(\n                index1, // Global Index 1 \n                index2 // Global Index 2\n            ),\n            \n            ein, // File Owner\n            _protocol, // Protocol For Interpretation\n            _name, // Name of File\n            _hash, // Hash of File\n            now, // Timestamp of File\n            \n            _encrypted, // File Encyption\n            \n            _groupIndex, // Store the group index\n            _addFileToGroup(ein, _groupIndex, nextFileIndex), // Add File to Group and store the group file order index\n            \n            1, // Transfer Count, treat creation as a transfer count \n            0, // Transfer EIN\n            0, // Transfer Index for Transferee \n            \n            false // File is not flagged for Transfer\n        );\n        \n        // Recreate Meta Data | 0 is Extension | Find a workaround for this\n        files[ein][nextFileIndex].metadata[0] = _metadata;\n        \n        // To map encrypted password\n        files[ein][nextFileIndex].encryptedHash[msg.sender] = _encryptedHash;\n        \n        // To map transfer history \n        files[ein][nextFileIndex].transferHistory[0] = ein;\n        \n        // Add to Stitch Order & Increment index\n        fileCount[ein] = _addToSortOrder(fileOrder[ein], currentFileIndex, 0);\n        \n        // Add file pointer to group\n        groups[ein][_groupIndex].groupFilesCount = _addToSortOrder(groups[ein][_groupIndex].groupFilesOrder, groups[ein][_groupIndex].groupFilesCount, 0);\n\n        // Trigger Event\n        emit FileCreated(ein, nextFileIndex, _name);\n        \n        // Reset Files & Group Atomicity\n        userAtomicity[ein].lockFiles = false;\n        userAtomicity[ein].lockGroups = false;\n    }\n    \n    /**\n     * @dev Function to change File Name\n     * @param _ein is the owner EIN\n     * @param _fileIndex is the index where file is stored\n     * @param _name is the name of stored file\n     */\n    function changeFileName(uint256 _ein, uint256 _fileIndex, string memory _name) \n    public {\n        \n        _onlyOwner(_ein);\n        files[_ein][_fileIndex].name = _name;\n        \n        // Trigger Event\n        emit FileRenamed(_ein, _fileIndex, _name);\n    }\n    \n    /**\n     * @dev Function to move file to another group\n     * @param _ein is the owner EIN\n     * @param _fileIndex is the index where file is stored\n     * @param _newGroupIndex is the index of the new group where file has to be moved\n     */\n    function moveFileToGroup(uint256 _ein, uint256 _fileIndex, uint256 _newGroupIndex) \n    public \n    _onlyUnlockedItem(_ein, _fileIndex) \n    _onlyEnforcedAtomityFiles(_ein) \n    _onlyEnforcedAtomityGroups(_ein) {\n    _onlyOwner(_ein);\n        // Set Files & Group Atomicity\n        userAtomicity[_ein].lockFiles = true;\n        userAtomicity[_ein].lockGroups = true;\n        \n        require (\n            (_groupExists(_ein, _newGroupIndex) == true), \n            \"Group doesn't exist for the User.\"\n        );\n        \n        uint256 newGroupFileIndex = _remapFileToGroup(_ein, files[_ein][_fileIndex].associatedGroupIndex, files[_ein][_fileIndex].associatedGroupFileIndex, _newGroupIndex);\n        \n        // Trigger Event\n        emit FileMoved(_ein, _fileIndex, _newGroupIndex, newGroupFileIndex);\n        \n        // Reset Files & Group Atomicity\n        userAtomicity[_ein].lockFiles = false;\n        userAtomicity[_ein].lockGroups = false;\n    }\n    \n    /**\n     * @dev Function to delete file\n     * @param _ein is the owner EIN\n     * @param _fileIndex is the index where file is stored\n     */\n    function deleteFile(uint256 _ein, uint256 _fileIndex) \n    public \n    _onlyUnlockedItem(_ein, _fileIndex) {\n    _onlyOwner(_ein);\n    \n        // Set Files & Group Atomicity\n        userAtomicity[_ein].lockFiles = true;\n        userAtomicity[_ein].lockGroups = true;\n        \n        // Get current Index, Stich check previous index so not required to recheck \n        uint256 currentIndex = fileCount[_ein];\n        \n        // Deactivate From Global Items \n        _deleteGlobalRecord(files[_ein][_fileIndex].record);\n        \n        // Remove from Group which holds the File\n        _removeFileFromGroup(_ein, files[_ein][_fileIndex].associatedGroupIndex, files[_ein][_fileIndex].associatedGroupFileIndex);\n        \n        // Swap File\n        files[_ein][_fileIndex] = files[_ein][currentIndex];\n        fileCount[_ein] = _stichSortOrder(fileOrder[_ein], _fileIndex, currentIndex, 0);\n        \n        // Trigger Event\n        emit FileDeleted(_ein, _fileIndex);\n        \n        // Reset Files & Group Atomicity\n        userAtomicity[_ein].lockFiles = false;\n        userAtomicity[_ein].lockGroups = false;\n    }\n    \n    /**\n     * @dev Private Function to add file to a group\n     * @param _ein is the EIN of the intended user\n     * @param _groupIndex is the index of the group belonging to that user, 0 is reserved for root\n     * @param _fileIndex is the index of the file belonging to that user\n     */\n    function _addFileToGroup(uint256 _ein, uint256 _groupIndex, uint256 _fileIndex) \n    internal\n    returns (uint256) {\n        // Add File to a group is just adding the index of that file\n        uint256 currentIndex = groups[_ein][_groupIndex].groupFilesCount;\n        groups[_ein][_groupIndex].groupFilesCount = _addToSortOrder(groups[_ein][_groupIndex].groupFilesOrder, currentIndex, _fileIndex);\n        \n        // Map group index and group order index in file \n        files[_ein][_fileIndex].associatedGroupIndex = _groupIndex;\n        files[_ein][_fileIndex].associatedGroupFileIndex = groups[_ein][_groupIndex].groupFilesCount;\n        \n        return groups[_ein][_groupIndex].groupFilesCount;\n    }\n    \n    /**\n     * @dev Private Function to remove file from a group\n     * @param _ein is the EIN of the intended user\n     * @param _groupIndex is the index of the group belonging to that user\n     * @param _groupFileOrderIndex is the index of the file order within that group\n     */\n    function _removeFileFromGroup(uint256 _ein, uint256 _groupIndex, uint256 _groupFileOrderIndex) \n    internal \n    _onlyValidGroupOrder(_ein, _groupFileOrderIndex) {\n        uint256 maxIndex = groups[_ein][_groupIndex].groupFilesCount;\n        uint256 pointerID = groups[_ein][_groupIndex].groupFilesOrder[maxIndex].pointerID;\n        \n        groups[_ein][_groupIndex].groupFilesCount = _stichSortOrder(groups[_ein][_groupIndex].groupFilesOrder, _groupFileOrderIndex, maxIndex, pointerID);\n    }\n    \n    /**\n     * @dev Private Function to remap file from one group to another\n     * @param _ein is the EIN of the intended user\n     * @param _groupIndex is the index of the group belonging to that user, 0 is reserved for root\n     * @param _groupFileOrderIndex is the index of the file order within that group\n     * @param _newGroupIndex is the index of the new group belonging to that user\n     */\n    function _remapFileToGroup(uint256 _ein, uint256 _groupIndex, uint256 _groupFileOrderIndex, uint256 _newGroupIndex) \n    internal \n    _onlyValidGroupOrder(_ein, _groupFileOrderIndex) \n    returns (uint256) {\n        // Get file index for the Association\n        uint256 fileIndex = groups[_ein][_groupIndex].groupFilesOrder[_groupFileOrderIndex].pointerID;\n        \n        // Remove File from existing group\n        _removeFileFromGroup(_ein, _groupIndex, _groupFileOrderIndex);\n        \n        // Add File to new group \n        return _addFileToGroup(_ein, _newGroupIndex, fileIndex);\n    }\n    \n    // 3. GROUP FUNCTIONS\n    /**\n     * @dev Private Function to check if group exists\n     * @param _ein the EIN of the user\n     * @param _groupIndex the index of the group\n     */\n    function _groupExists(uint256 _ein, uint256 _groupIndex) \n    internal view \n    returns (bool) {\n        // Check if the group exists or not\n        uint256 currentGroupIndex = groupCount[_ein];\n        \n        if (_groupIndex <= currentGroupIndex) {\n            return true;\n        }\n        \n        return false;\n    }\n    \n    /**\n     * @dev Function to return group info for an EIN\n     * @param _ein the EIN of the user\n     * @param _groupIndex the index of the group\n     */\n    function getGroup(uint256 _ein, uint256 _groupIndex)\n    public view\n    returns (uint256 index, string memory name) {\n        \n    _onlyOwner(_ein);\n        // Check if the group exists or not\n        require (\n            (_groupExists(_ein, _groupIndex) == true), \n            \"Group doesn't exist for the User / EIN\"\n        );\n        \n        index = _groupIndex;\n        \n        if (_groupIndex == 0) {\n            name = \"Root\";\n        }\n        else {\n            name = groups[_ein][_groupIndex].name;\n        }\n    }\n    \n    /**\n     * @dev Function to return group indexes used to retrieve info about group\n     * @param _ein the EIN of the user\n     */\n    function getGroupIndexes(uint256 _ein, uint256 _seedPointer, uint16 _limit, bool _asc) \n    public view \n    returns (uint256[20] memory groupIndexes) { \n        groupIndexes = _getIndexes(groupOrder[_ein], _seedPointer, _limit, _asc);\n    }\n    \n    /**\n     * @dev Create a new Group for the user\n     * @param _ein should be the EIN of the user\n     * @param _groupName describes the name of the group\n     */\n    function createGroup(uint256 _ein, string memory _groupName) \n    public \n    _onlyEnforcedAtomityGroups(_ein) {\n    _onlyOwner(_ein);\n        // Set Group Atomicity\n        userAtomicity[_ein].lockGroups = true;\n        \n        // Check if this is unitialized, if so, initialize it, reserved value of 0 is skipped as that's root\n        uint256 currentGroupIndex = groupCount[_ein];\n        uint256 nextGroupIndex = currentGroupIndex + 1;\n        require (\n            nextGroupIndex > currentGroupIndex, \n            \"Limit reached on number of groups, can't create more groups\"\n        );\n        \n        // Add to Global Items \n        uint256 index1;\n        uint256 index2;\n        (index1, index2) = _addItemToGlobalItems(_ein, nextGroupIndex, false, false);\n\n        // Assign it to User (EIN)\n        groups[_ein][nextGroupIndex] = Group(\n            GlobalRecord(\n                index1, // Global Index 1 \n                index2 // Global Index 2\n            ),\n            \n            _groupName, //name of Group\n            0 // The group file count\n        );\n        \n        // Add to Stitch Order & Increment index\n        groupCount[_ein] = _addToSortOrder(groupOrder[_ein], currentGroupIndex, 0);\n\n        // Trigger Event\n        emit GroupCreated(_ein, nextGroupIndex, _groupName);\n        \n        // Reset Group Atomicity\n        userAtomicity[_ein].lockGroups = false;\n    }\n    \n    /**\n     * @dev Rename an existing Group for the user / ein\n     * @param _ein should be the EIN of the user\n     * @param _groupIndex describes the associated index of the group for the user / ein\n     * @param _groupName describes the new name of the group\n     */\n    function renameGroup(uint256 _ein, uint256 _groupIndex, string memory _groupName) \n    public \n    _onlyNonReservedItem(_groupIndex) {\n        \n    _onlyOwner(_ein);\n        // Check if the group exists or not\n        require (\n            (_groupExists(_ein, _groupIndex) == true), \n            \"Group doesn't exist for the User.\"\n        );\n        \n        // Replace the group name\n        groups[_ein][_groupIndex].name = _groupName;\n        \n        // Trigger Event\n        emit GroupRenamed(_ein, _groupIndex, _groupName);\n    }\n    \n    /**\n     * @dev Delete an existing group for the user / ein\n     * @param _ein should be the EIN of the user\n     * @param _groupIndex describes the associated index of the group for the user / ein\n     */\n    function deleteGroup(uint256 _ein, uint256 _groupIndex) public \n    _onlyZeroFilesGroup(_ein, _groupIndex)\n    _onlyNonReservedItem(_groupIndex) \n    _onlyEnforcedAtomityGroups(_ein) {\n    _onlyOwner(_ein);\n        // Set Group Atomicity\n        userAtomicity[_ein].lockGroups = true;\n         \n        // Check if the group exists or not\n        uint256 currentGroupIndex = groupCount[_ein];\n        require ((_groupIndex <= currentGroupIndex), \"Group doesn't exist for the User / EIN\");\n        \n        // Mark the item as deleted in global items\n        _deleteGlobalRecord(groups[_ein][_groupIndex].record);\n        \n        // Swap Index mapping & remap the latest group ID if this is not the last group\n        groups[_ein][_groupIndex] = groups[_ein][currentGroupIndex];\n        groupCount[_ein] = _stichSortOrder(groupOrder[_ein], _groupIndex, currentGroupIndex, 0);\n        \n        // Delete the latest group now\n        delete (groups[_ein][currentGroupIndex]);\n        \n        // Trigger Event\n        emit GroupDeleted(_ein, _groupIndex, currentGroupIndex);\n        \n        // Reset Group Atomicity\n        userAtomicity[_ein].lockGroups = false;\n    }\n    \n    // 4. SHARING FUNCTIONS\n    \n    // 5. STAMPING FUNCTIONS\n    \n    // 6. TRANSFER FILE FUNCTIONS\n    /**\n     * @dev Function to intiate file transfer to another EIN(user)\n     * @param _transfererEIN is the original user's EIN \n     * @param _fileIndex is the index of file for the original user's EIN\n     * @param _transfereeEIN is the recipient user's EIN\n     */\n    function initiateFileTransfer(uint256 _transfererEIN, uint256 _fileIndex, uint256 _transfereeEIN) \n    public \n    _onlyValidEIN(_transfereeEIN)\n    _onlyUniqueEIN(_transfererEIN, _transfereeEIN)\n    _onlyEnforcedAtomityTransfers(_transfererEIN)\n    _onlyEnforcedAtomityTransfers(_transfereeEIN)\n    _onlyUnlockedItem(_transfererEIN, _fileIndex) {\n        \n    _onlyOwner(_transfererEIN) ;\n        // Set Transfers Atomiticy\n        userAtomicity[_transfererEIN].lockTransfers = true;\n        userAtomicity[_transfereeEIN].lockTransfers = true;\n        \n        // Check if the file is not markedForTransfer\n        require (\n            (files[_transfererEIN][_fileIndex].markedForTransfer == false), \n            \"Can't proceed, file is already marked for Transfer.\"\n        );\n        \n        // Check if the transfereeEIN has blacklisted current owner\n        require (\n            (blacklist[_transfereeEIN][_transfererEIN] == true), \n            \"Can't initiate file transfer as the owner has blacklisted you.\"\n        );\n        // Check and change flow if white listed\n        if (whitelist[_transfereeEIN][_transfererEIN] == true) {\n            // Directly transfer file, 0 is always root group\n            _doFileTransfer(_transfererEIN, _fileIndex, _transfereeEIN, 0);\n        }\n        else {\n           // Request based file Transfers\n           _initiateRequestedFileTransfer(_transfererEIN, _fileIndex, _transfereeEIN);\n        }\n        \n        // Reset Transfers Atomiticy\n        userAtomicity[_transfererEIN].lockTransfers = false;\n        userAtomicity[_transfereeEIN].lockTransfers = false;\n    }\n    \n    /**\n     * @dev Private Function to initiate requested file transfer\n     * @param _transfererEIN is the owner EIN\n     * @param _fileIndex is the index where file is stored\n     * @param _transfereeEIN is the EIN of the user to whom the file needs to be transferred\n     */\n    function _initiateRequestedFileTransfer(uint256 _transfererEIN, uint256 _fileIndex, uint256 _transfereeEIN) \n    internal {\n         // Map it to transferee mapping of transfers \n        // Add to transfers of TransfereeEIN User, 0 is always reserved\n        uint256 currentTransferIndex = transferIndex[_transfereeEIN];\n        uint256 nextTransferIndex = currentTransferIndex + 1;\n        \n        require (\n            (nextTransferIndex > currentTransferIndex), \n            \"Limit reached on number of transfers, can't transfer more files to that EIN (User) till they clear it up.\"\n        );\n    \n        // Mark the file for transfer\n        files[_transfererEIN][_fileIndex].markedForTransfer = true;\n        files[_transfererEIN][_fileIndex].transferEIN = _transfereeEIN;\n        files[_transfereeEIN][_fileIndex].transferIndex = nextTransferIndex;\n    \n        // Get Item Association Index\n        uint256 globalIndex1;\n        uint256 globalIndex2;\n        (, globalIndex1, globalIndex2) = getFileMetaData(_transfererEIN, _fileIndex);\n        \n        // Check Item is file\n        require (\n            (globalItems[globalIndex1][globalIndex2].isFile == true),\n            \"Non-Transferable\"\n        );\n        \n        // Create New Transfer\n        transfers[_transfereeEIN][nextTransferIndex] = globalItems[globalIndex1][globalIndex2];\n        \n        // Update sort order and index\n        transferIndex[_transfereeEIN] = _addToSortOrder(transferOrder[_transfererEIN], currentTransferIndex, 0);\n        \n        // Trigger Event\n        emit FileTransferInitiated(_transfererEIN, _transfereeEIN, _fileIndex);\n    }\n    \n    /**\n     * @dev Function to accept file transfer from a user\n     * @param _transfererEIN is the previous(current) owner EIN\n     * @param _fileIndex is the index where file is stored\n     * @param _transfereeEIN is the EIN of the user to whom the file needs to be transferred\n     * @param _transferSpecificIndex is the file mapping stored no the recipient transfers mapping \n     * @param _groupIndex is the index of the group where the file is suppose to be for the recipient\n     */\n    function acceptFileTransfer(uint256 _transfererEIN, uint256 _fileIndex, uint256 _transfereeEIN, uint256 _transferSpecificIndex, uint256 _groupIndex) \n    public \n    _onlyEnforcedAtomityTransfers(_transfererEIN)\n    _onlyEnforcedAtomityTransfers(_transfereeEIN)\n    _onlyFileNonOwner(_transfererEIN, _fileIndex) \n    _onlyMarkedForTransferee(_transfererEIN, _fileIndex, _transfererEIN) {\n    _onlyOwner(_transfereeEIN);\n        // Set Transfers Atomiticy\n        userAtomicity[_transfererEIN].lockTransfers = true;\n        userAtomicity[_transfereeEIN].lockTransfers = true;\n        \n        // Check if the item is marked for transfer \n        require (\n            (files[_transfererEIN][_fileIndex].markedForTransfer == true), \n            \"Can't proceed, item is not marked for Transfer.\"\n        );\n        \n        // Do file transfer\n        _doFileTransfer(_transfererEIN, _fileIndex, _transfereeEIN, _groupIndex);\n        \n        // Finally remove the file from Tranferee Mapping \n        _removeFileFromTransfereeMapping(_transfereeEIN, _transferSpecificIndex);\n        \n        // Reset Transfers Atomiticy\n        userAtomicity[_transfererEIN].lockTransfers = false;\n        userAtomicity[_transfereeEIN].lockTransfers = false;\n    }\n    \n    /**\n     * @dev Private Function to do file transfer from previous (current) owner to new owner\n     * @param _transfererEIN is the previous(current) owner EIN\n     * @param _fileIndex is the index where file is stored\n     * @param _transfereeEIN is the EIN of the user to whom the file needs to be transferred\n     * @param _groupIndex is the index of the group where the file is suppose to be for the recipient\n     */\n    function _doFileTransfer(uint256 _transfererEIN, uint256 _fileIndex, uint256 _transfereeEIN, uint256 _groupIndex) \n    internal {\n        // Get Indexes\n        uint256 currentTransfererIndex = fileCount[_transfererEIN];\n        uint256 currentTransfereeIndex = fileCount[_transfereeEIN];\n        \n        uint256 prevTransfererIndex = currentTransfererIndex - 1;\n        require (\n            (prevTransfererIndex >= 0),\n            \"No file found in the transferer db\"\n        );\n        \n        uint256 nextTransfereeIndex =  currentTransfereeIndex + 1;\n        require (\n            (nextTransfereeIndex > currentTransfereeIndex),\n            \"Trasnferee User has run out of transfer slots.\"\n        );\n        \n        // Transfer the file to the transferee\n        files[_transfereeEIN][nextTransfereeIndex] = files[_transfererEIN][_fileIndex];\n        \n        // Change file properties and transfer history\n        uint256 tc = files[_transfereeEIN][nextTransfereeIndex].transferCount;\n        tc = tc + 1;\n        require (\n            (tc > 0),\n            \"Transfers Full\"\n        );\n        \n        files[_transfereeEIN][nextTransfereeIndex].fileOwner = _transfereeEIN;\n        files[_transfereeEIN][nextTransfereeIndex].transferHistory[tc] = _transfereeEIN;\n        files[_transfereeEIN][nextTransfereeIndex].markedForTransfer = false;\n        files[_transfereeEIN][nextTransfereeIndex].transferCount = tc;\n        \n        // add to transferee sort order & Increment index\n        fileCount[_transfereeEIN] = _addToSortOrder(fileOrder[_transfereeEIN], currentTransfereeIndex, 0);\n        \n        // Remove the file from transferer group\n        _removeFileFromGroup(_transfererEIN, files[_transfererEIN][currentTransfererIndex].associatedGroupIndex, files[_transfererEIN][currentTransfererIndex].associatedGroupFileIndex);\n        \n        // Remove the file from transferer, ie swap mapping and stich sort order\n        files[_transfererEIN][_fileIndex] = files[_transfererEIN][currentTransfererIndex];\n        fileCount[_transfererEIN] = _stichSortOrder(fileOrder[_transfererEIN], _fileIndex, currentTransfererIndex, 0);\n        \n        // Add File to transferee group \n        _addFileToGroup(_transfereeEIN, _groupIndex, fileCount[_transfereeEIN]);\n        \n        // Get global association\n        uint256 globalIndex1;\n        uint256 globalIndex2;\n        (, globalIndex1, globalIndex2) = getFileMetaData(_transfereeEIN, _fileIndex);\n        \n        // Update global file association\n        globalItems[globalIndex1][globalIndex2].ownerInfo.ownerEIN = _transfereeEIN;\n        globalItems[globalIndex1][globalIndex2].ownerInfo.itemIndex = nextTransfereeIndex;\n    }\n    \n    /**\n     * @dev Private Function to remove file from Transfers mapping of Transferee after file is transferred to them\n     * @param _transfereeEIN is the new owner EIN\n     * @param _transferSpecificIndex is the index of the association mapping of transfers\n     */\n    function _removeFileFromTransfereeMapping(uint256 _transfereeEIN, uint256 _transferSpecificIndex) \n    internal {\n        // Get Cureent Transfer Index\n        uint256 currentTransferIndex = transferIndex[_transfereeEIN];\n\n        require (\n            (currentTransferIndex > 0),\n            \"Index Not Found\"\n        );\n        \n        // Remove the file from transferer, ie swap mapping and stich sort order\n        transfers[_transfereeEIN][_transferSpecificIndex] = transfers[_transfereeEIN][currentTransferIndex];\n        transferIndex[_transfereeEIN] = _stichSortOrder(transferOrder[_transfereeEIN], _transferSpecificIndex, currentTransferIndex, 0);\n        \n        // Retrive the swapped item record and change the transferIndex to remap correctly\n        Association memory item = transfers[_transfereeEIN][_transferSpecificIndex];\n        \n        if (item.isFile == true) {\n            //Only File is supported  \n            files[item.ownerInfo.ownerEIN][item.ownerInfo.itemIndex].transferIndex = _transferSpecificIndex;\n        }\n    }\n    \n    /**\n     * @dev Function to cancel file transfer inititated by the current owner\n     * @param _transfererEIN is the previous(current) owner EIN\n     * @param _fileIndex is the index where file is stored\n     * @param _transfereeEIN is the EIN of the user to whom the file needs to be transferred\n     */\n    function cancelFileTransfer(uint256 _transfererEIN, uint256 _fileIndex, uint256 _transfereeEIN) \n    public \n    _onlyEnforcedAtomityTransfers(_transfererEIN)\n    _onlyEnforcedAtomityTransfers(_transfereeEIN) {\n    _onlyOwner(_transfererEIN);\n        // Set Transfers Atomiticy\n        userAtomicity[_transfererEIN].lockTransfers = true;\n        userAtomicity[_transfereeEIN].lockTransfers = true;\n        \n        // Check if the item is marked for transfer \n        require (\n            (files[_transfererEIN][_fileIndex].markedForTransfer == true), \n            \"Transfer Prohibited\"\n        );\n        \n        // Cancel file transfer\n        files[_transfererEIN][_fileIndex].markedForTransfer = false;\n        \n        // Remove file from  transferee\n        uint256 transferSpecificIndex = files[_transfererEIN][_fileIndex].transferIndex;\n        _removeFileFromTransfereeMapping(_transfereeEIN, transferSpecificIndex);\n        \n        // Reset Transfers Atomiticy\n        userAtomicity[_transfererEIN].lockTransfers = false;\n        userAtomicity[_transfereeEIN].lockTransfers = false;\n    }\n    \n    // 6. WHITELIST / BLACKLIST FUNCTIONS\n    /**\n     * @dev Add a non-owner user to whitelist\n     * @param _nonOwnerEIN is the ein of the recipient\n     */\n    function addToWhitelist(uint256 _nonOwnerEIN) \n    public\n    _onlyValidEIN(_nonOwnerEIN) {\n    _onlyNonOwner(_nonOwnerEIN);\n        // Returns EIN or Throws Error if not set\n        uint256 ein = identityRegistry.getEIN(msg.sender);\n        \n        //Check if user (EIN) is not on blacklist\n        require (\n            (blacklist[ein][_nonOwnerEIN] == false), \n            \"EIN Blacklisted\"\n        );\n        \n        whitelist[ein][_nonOwnerEIN] = true;\n        \n        // Trigger Event\n        emit AddedToWhitelist(ein, _nonOwnerEIN);\n    }\n    \n    /**\n     * @dev Remove a non-owner user from whitelist\n     * @param _nonOwnerEIN is the ein of the recipient\n     */\n    function removeFromWhitelist(uint256 _nonOwnerEIN) \n    public\n    _onlyValidEIN(_nonOwnerEIN) {\n        \n    _onlyNonOwner(_nonOwnerEIN);\n        // Returns EIN or Throws Error if not set\n        uint256 ein = identityRegistry.getEIN(msg.sender);\n       \n        //Check if user (EIN) is not on blacklist\n        require (\n            (blacklist[ein][_nonOwnerEIN] == false), \n            \"EIN blacklisted\"\n        );\n        \n        whitelist[ein][_nonOwnerEIN] = false;\n        \n        // Trigger Event\n        emit RemovedFromWhitelist(ein, _nonOwnerEIN);\n    }\n    \n    /**\n     * @dev Remove a non-owner user to blacklist\n     * @param _nonOwnerEIN is the ein of the recipient\n     */\n    function addToBlacklist(uint256 _nonOwnerEIN) \n    public\n    _onlyValidEIN(_nonOwnerEIN) {\n    _onlyNonOwner(_nonOwnerEIN);\n        // Get EIN\n        uint256 ein = identityRegistry.getEIN(msg.sender);\n        \n        //Check if user (EIN) is not on blacklist\n        require (\n            (whitelist[ein][_nonOwnerEIN] == false), \n            \"EIN whitelisted\"\n        );\n        \n        blacklist[ein][_nonOwnerEIN] = true;\n        \n        // Trigger Event\n        emit AddedToBlacklist(ein, _nonOwnerEIN);\n    }\n    \n    /**\n     * @dev Remove a non-owner user from blacklist\n     * @param _nonOwnerEIN is the ein of the recipient\n     */\n    function removeFromBlacklist(uint256 _nonOwnerEIN) \n    public\n    _onlyValidEIN(_nonOwnerEIN) {\n    _onlyNonOwner(_nonOwnerEIN);\n        // Get EIN\n        uint256 ein = identityRegistry.getEIN(msg.sender);\n        \n        //Check if user (EIN) is not on blacklist\n        require (\n            (whitelist[ein][_nonOwnerEIN] == false), \n            \"EIN whitelisted\"\n        );\n        \n        whitelist[ein][_nonOwnerEIN] = false;\n        \n        // Trigger Event\n        emit RemovedFromBlacklist(ein, _nonOwnerEIN);\n    }\n    \n    // *. REFERENTIAL INDEXES FUNCTIONS\n    /**\n     * @dev Private Function to return maximum 20 Indexes of Files, Groups, Transfers, \n     * etc based on their SortOrder. 0 is always reserved but will point to Root in Group & Avatar in Files\n     * @param _orderMapping is the relevant sort order of Files, Groups, Transfers, etc \n     * @param _seedPointer is the pointer (index) of the order mapping\n     * @param _limit is the number of files requested | Maximum of 20 can be retrieved\n     * @param _asc is the order, i.e. Ascending or Descending\n     */\n    function _getIndexes(mapping(uint256 => SortOrder) storage _orderMapping, uint256 _seedPointer, uint16 _limit, bool _asc)\n    internal view \n    returns (uint256[20] memory sortedIndexes) {\n        uint256 next;\n        uint256 prev;\n        uint256 pointerID;\n        bool active;\n        \n        // Get initial Order\n        (prev, next, pointerID, active) = _getOrder(_orderMapping, _seedPointer);\n        \n        // Get Previous or Next Order | Round Robin Fashion\n        if (_asc == true) {\n            // Ascending Order\n            (prev, next, pointerID, active) = _getOrder(_orderMapping, next);\n        }\n        else {\n            // Descending Order\n            (prev, next, pointerID, active) = _getOrder(_orderMapping, prev);\n        }\n        \n        uint16 i = 0;\n        \n        if (_limit >= 20) {\n            _limit = 20; // always account for root\n        }\n        \n        while (_limit != 0) {\n            \n            if (active == false || pointerID == 0) {\n                _limit = 0;\n                \n                if (pointerID == 0) {\n                    //add root as Special case\n                    sortedIndexes[i] = 0;\n                }\n            }\n            else {\n                // Get PointerID\n                sortedIndexes[i] = pointerID;\n                \n                // Get Previous or Next Order | Round Robin Fashion\n                if (_asc == true) {\n                    // Ascending Order\n                    (prev, next, pointerID, active) = _getOrder(_orderMapping, next);\n                }\n                else {\n                    // Descending Order\n                    (prev, next, pointerID, active) = _getOrder(_orderMapping, prev);\n                }\n                \n                // Increment counter\n                i++;\n                \n                // Decrease Limit        \n                _limit--;\n            }\n        }\n    }\n    \n    // *. DOUBLE LINKED LIST (ROUND ROBIN) FOR OPTIMIZATION FUNCTIONS / DELETE / ADD / ETC\n    /**\n     * @dev Private Function to facilitate returning of double linked list used\n     * @param _orderMapping is the relevant sort order of Files, Groups, Transfers, etc \n     * @param _seedPointer is the pointer (index) of the order mapping\n     */\n    function _getOrder(mapping(uint256 => SortOrder) storage _orderMapping, uint256 _seedPointer) \n    internal view \n    returns (uint256 prev, uint256 next, uint256 pointerID, bool active) {\n        prev = _orderMapping[_seedPointer].prev;\n        next = _orderMapping[_seedPointer].next;\n        pointerID = _orderMapping[_seedPointer].pointerID;\n        active = _orderMapping[_seedPointer].active;\n    }\n    \n    /**\n     * @dev Private Function to facilitate adding of double linked list used to preserve order and form cicular linked list\n     * @param _orderMapping is the relevant sort order of Files, Groups, Transfers, etc \n     * @param _currentIndex is the index which will be maximum\n     * @param _pointerID is the ID to which it should point to, pass 0 to calculate on existing logic flow\n     */\n    function _addToSortOrder(mapping(uint256 => SortOrder) storage _orderMapping, uint256 _currentIndex, uint256 _pointerID)  \n    internal \n    returns (uint256) {\n        // Next Index is always +1 \n        uint256 nextIndex = _currentIndex + 1;\n        \n        require (\n            (nextIndex > _currentIndex || _pointerID != 0),\n            \"Slots Full\"\n        );\n        \n        // Assign current order to next pointer\n        _orderMapping[_currentIndex].next = nextIndex;\n        _orderMapping[_currentIndex].active = true;\n        \n        // Special case of root of sort order \n        if (_currentIndex == 0) {\n            _orderMapping[0].next = nextIndex;\n        }\n        \n        // Assign initial group prev order\n        _orderMapping[0].prev = nextIndex;\n        \n        // Whether This is assigned or calculated\n        uint256 pointerID;\n        if (_pointerID == 0) {\n            pointerID = nextIndex;\n        }\n        else {\n            pointerID = _pointerID;\n        }\n            \n        // Assign next group order pointer and prev pointer\n        _orderMapping[nextIndex] = SortOrder(\n            0, // next index\n            _currentIndex, // prev index\n            pointerID, // pointerID\n            true // mark as active\n        );\n        \n        return nextIndex;\n    }\n    \n    /**\n     * @dev Private Function to facilitate stiching of double linked list used to preserve order with delete\n     * @param _orderMapping is the relevant sort order of Files, Groups, Transfer, etc \n     * @param _remappedIndex is the index which is swapped to from the latest index\n     * @param _maxIndex is the index which will always be maximum\n     * @param _pointerID is the ID to which it should point to, pass 0 to calculate on existing logic flow\n     */\n    function _stichSortOrder(mapping(uint256 => SortOrder) storage _orderMapping, uint256 _remappedIndex, uint256 _maxIndex, uint256 _pointerID) \n    internal \n    returns (uint256){\n        \n        // Stich Order\n        uint256 prevGroupIndex = _orderMapping[_remappedIndex].prev;\n        uint256 nextGroupIndex = _orderMapping[_remappedIndex].next;\n        \n        _orderMapping[prevGroupIndex].next = nextGroupIndex;\n        _orderMapping[nextGroupIndex].prev = prevGroupIndex;\n        \n        // Check if this is not the top order number\n        if (_remappedIndex != _maxIndex) {\n            // Change order mapping and remap\n            _orderMapping[_remappedIndex] = _orderMapping[_maxIndex];\n            if (_pointerID == 0) {\n                _orderMapping[_remappedIndex].pointerID = _remappedIndex;\n            }\n            else {\n                _orderMapping[_remappedIndex].pointerID = _pointerID;\n            }\n            _orderMapping[_orderMapping[_remappedIndex].next].prev = _remappedIndex;\n            _orderMapping[_orderMapping[_remappedIndex].prev].next = _remappedIndex;\n        }\n        \n        // Turn off the non-stich group\n        _orderMapping[_maxIndex].active = false;\n        \n        // Decrement count index if it's non-zero\n        require (\n            (_maxIndex > 0),\n            \"Item Not Found\"\n        );\n        \n        // return new index\n        return _maxIndex - 1;\n    }\n    \n    // *. GENERAL CONTRACT HELPERS\n    /** @dev Private Function to append two strings together\n     * @param a the first string \n     * @param b the second string \n     */\n    function _append(string memory a, string memory b) \n    internal pure \n    returns (string memory) {\n        return string(abi.encodePacked(a, b));\n    }\n    \n    /* ***************\n    * DEFINE MODIFIERS\n    *************** */\n    /**\n     * @dev Modifier to check that only owner can have access\n     * @param _ein The EIN of the file Owner\n     */\n    function _onlyOwner(uint256 _ein) \n    internal view {  \n        require (\n            (identityRegistry.getEIN(msg.sender) == _ein), \n            \"Only Owner\"\n        );\n    }\n    \n    /**\n     * @dev Modifier to check that only non-owner can have access\n     * @param _ein The EIN of the file Owner\n     */\n    function _onlyNonOwner(uint256 _ein) \n    internal view {  \n        require (\n            (identityRegistry.getEIN(msg.sender) != _ein), \n            \"Only Non-Owner\"\n        );\n    }\n    \n    /**\n     * @dev Modifier to check that only owner of EIN can access this\n     * @param _ownerEIN The EIN of the file Owner\n     * @param _fileIndex The index of the file\n     */\n    modifier _onlyFileOwner(uint256 _ownerEIN, uint256 _fileIndex) {\n        require (\n            (identityRegistry.getEIN(msg.sender) == files[_ownerEIN][_fileIndex].fileOwner), \n            \"Only File Owner\"\n        );\n         _;\n    }\n     \n    /**\n     * @dev Modifier to check that only non-owner of EIN can access this\n     * @param _ownerEIN The EIN of the file Owner\n     * @param _fileIndex The index of the file\n     */\n    modifier _onlyFileNonOwner(uint256 _ownerEIN, uint256 _fileIndex) { \n        require (\n            (identityRegistry.getEIN(msg.sender) != files[_ownerEIN][_fileIndex].fileOwner), \n            \"Only File Non-Owner\"\n        );\n         _;\n    }\n    \n    /**\n     * @dev Modifier to check that only valid EINs can have access\n     * @param _ein The EIN of the Passer\n     */\n    modifier _onlyValidEIN(uint256 _ein) {\n        require (\n            (identityRegistry.identityExists(_ein) == true), \n            \"EIN not Found\"\n        );\n        _;\n    }\n    \n    /**\n     * @dev Modifier to check that only unique EINs can have access\n     * @param _ein1 The First EIN\n     * @param _ein2 The Second EIN\n     */\n    modifier _onlyUniqueEIN(uint256 _ein1, uint256 _ein2) {\n        require (\n            (_ein1 != _ein2), \n            \"Same EINs\"\n        );\n        _;\n    }\n    \n    /**\n     * @dev Modifier to check that a file exists for the current EIN\n     * @param _fileIndex The index of the file\n     */\n    modifier _onlyFileExists(uint256 _fileIndex) {\n        require (\n            (_fileIndex <= fileCount[identityRegistry.getEIN(msg.sender)]), \n            \"File not Found\"\n        );\n        _;\n    }\n    \n    /**\n     * @dev Modifier to check that a file has been marked for transferee EIN\n     * @param _fileIndex The index of the file\n     */\n    modifier _onlyMarkedForTransferee(uint256 _fileOwnerEIN, uint256 _fileIndex, uint256 _transfereeEIN) {\n        // Check if the group file exists or not\n        require (\n            (files[_fileOwnerEIN][_fileIndex].transferEIN == _transfereeEIN), \n            \"File not marked for Transfers\"\n        );\n        _;\n    }\n    \n    /**\n     * @dev Modifier to check that a file hasn't been marked for stamping\n     * @param _fileIndex The index of the file\n     */\n    modifier _onlyUnlockedItem(uint256 _ein, uint256 _fileIndex) {\n        // Get Item Association Index\n        uint256 index1;\n        uint256 index2;\n        (, index1, index2) = getFileMetaData(_ein, _fileIndex);\n        \n        // Check if the group file exists or not\n        require (\n            (globalItems[index1][index2].isLocked == false), \n            \"Item Locked\"\n        );\n        _;\n    }\n    \n    /**\n     * @dev Modifier to check that Rooot ID = 0 is not modified as this is root\n     * @param _index The index to check\n     */\n    modifier _onlyNonReservedItem(uint256 _index) {\n        require (\n            (_index > 0), \n            \"Reserved Item\"\n        );\n        _;\n    }\n    \n    /**\n     * @dev Modifier to check that Group Order is valid\n     * @param _ein is the EIN of the target user\n     * @param _groupIndex The index of the group order\n     */\n    modifier _onlyZeroFilesGroup(uint256 _ein, uint256 _groupIndex) {\n        require (\n            (groups[_ein][_groupIndex].groupFilesCount == 0),\n            \"Group has Files\"\n        );\n        _;\n    }\n    \n    /**\n     * @dev Modifier to check that Group Order is valid\n     * @param _ein is the EIN of the target user\n     * @param _groupOrderIndex The index of the group order\n     */\n    modifier _onlyValidGroupOrder(uint256 _ein, uint256 _groupOrderIndex) {\n        require (\n            (_groupOrderIndex == 0 || groupOrder[_ein][_groupOrderIndex].active == true), \n            \"Group Order Index not Found\"\n        );\n        _;\n    }\n    \n    /**\n     * @dev Modifier to check that operation of Files is currently locked or not\n     * @param _ein is the EIN of the target user\n     */\n    modifier _onlyEnforcedAtomityFiles(uint256 _ein) {\n        require (\n          (userAtomicity[_ein].lockFiles == false),\n          \"Files Locked\"\n        );\n        _;\n    }\n    \n    /**\n     * @dev Modifier to check that operation of Groups is currently locked or not\n     * @param _ein is the EIN of the target user\n     */\n    modifier _onlyEnforcedAtomityGroups(uint256 _ein) {\n        require (\n          (userAtomicity[_ein].lockGroups == false),\n          \"Groups Locked\"\n        );\n        _;\n    }\n    \n    /**\n     * @dev Modifier to check that operation of Sharings is currently locked or not\n     * @param _ein is the EIN of the target user\n     */\n    modifier _onlyEnforcedAtomitySharings(uint256 _ein) {\n        require (\n          (userAtomicity[_ein].lockSharings == false),\n          \"Sharing Locked\"\n        );\n        _;\n    }\n    \n    /**\n     * @dev Modifier to check that operation of Transfers is currently locked or not\n     * @param _ein is the EIN of the target user\n     */\n    modifier _onlyEnforcedAtomityTransfers(uint256 _ein) {\n        require (\n          (userAtomicity[_ein].lockTransfers == false),\n          \"Transfers Locked\"\n        );\n        _;\n    }\n    \n    // *. FOR DEBUGGING CONTRACT\n    // To Build Groups for users\n    function debugBuildGroups() \n    public {\n        uint256 ein = identityRegistry.getEIN(msg.sender);\n        \n        createGroup(ein, \"A\");\n        createGroup(ein, \"B\");\n        createGroup(ein, \"C\");\n        createGroup(ein, \"D\");\n        createGroup(ein, \"E\");\n        createGroup(ein, \"F\");\n        createGroup(ein, \"G\");\n        createGroup(ein, \"H\");\n    }\n    \n    // Get Group Indexes with names for EIN\n    function debugGetGroupIndexesWithNames(uint256 _ein, uint256 _seedPointer, uint16 _limit, bool _asc) \n    public view \n    returns (uint256[20] memory groupIndexes, string memory groupNames) {\n        \n        groupIndexes = _getIndexes(groupOrder[_ein], _seedPointer, _limit, _asc);\n        \n        uint16 i = 0;\n        bool completed = false;\n        \n        while (completed == false) {\n            string memory groupName;\n            \n            // Get Group\n            (, groupName) = getGroup(_ein, groupIndexes[i]);\n            \n            // Add To Return Vars\n            groupName = _append(groupName, \"|\");\n            groupNames = _append(groupNames, groupName);\n            \n            i++;\n            \n            // check status\n            if (i == _limit || (groupIndexes[i-1] == groupIndexes[i])) {\n                completed = true;\n            }\n        }\n    }\n}\n\n\n\n\n\n",
  "sourcePath": "/MAMPWeb/HydroIce/HydroIceContract/contracts/Ice.sol",
  "compiler": {
    "name": "solc",
    "version": "0.5.0+commit.1d4f565a.Emscripten.clang"
  },
  "schemaVersion": "3.0.6",
  "updatedAt": "2019-05-02T21:08:46.158Z",
  "devdoc": {
    "author": "Harsh Rajat",
    "details": "This Contract forms File Storage / Stamping / Encryption part of Hydro Protocols",
    "methods": {
      "acceptFileTransfer(uint256,uint256,uint256,uint256,uint256)": {
        "details": "Function to accept file transfer from a user",
        "params": {
          "_fileIndex": "is the index where file is stored",
          "_groupIndex": "is the index of the group where the file is suppose to be for the recipient",
          "_transferSpecificIndex": "is the file mapping stored no the recipient transfers mapping ",
          "_transfereeEIN": "is the EIN of the user to whom the file needs to be transferred",
          "_transfererEIN": "is the previous(current) owner EIN"
        }
      },
      "addFile(uint8,string,string,string,bool,string,uint256)": {
        "details": "Function to add File",
        "params": {
          "_encrypted": "defines if the file is encrypted or not",
          "_encryptedHash": "defines the encrypted public key password for the sender address",
          "_groupIndex": "defines the index of the group of file",
          "_hash": "is the hash of the stored file",
          "_metadata": "is the data stored for protocol usage ",
          "_name": "is the name of the file ",
          "_protocol": "is the protocol used"
        }
      },
      "addToBlacklist(uint256)": {
        "details": "Remove a non-owner user to blacklist",
        "params": {
          "_nonOwnerEIN": "is the ein of the recipient"
        }
      },
      "addToWhitelist(uint256)": {
        "details": "Add a non-owner user to whitelist",
        "params": {
          "_nonOwnerEIN": "is the ein of the recipient"
        }
      },
      "cancelFileTransfer(uint256,uint256,uint256)": {
        "details": "Function to cancel file transfer inititated by the current owner",
        "params": {
          "_fileIndex": "is the index where file is stored",
          "_transfereeEIN": "is the EIN of the user to whom the file needs to be transferred",
          "_transfererEIN": "is the previous(current) owner EIN"
        }
      },
      "changeFileName(uint256,uint256,string)": {
        "details": "Function to change File Name",
        "params": {
          "_ein": "is the owner EIN",
          "_fileIndex": "is the index where file is stored",
          "_name": "is the name of stored file"
        }
      },
      "createGroup(uint256,string)": {
        "details": "Create a new Group for the user",
        "params": {
          "_ein": "should be the EIN of the user",
          "_groupName": "describes the name of the group"
        }
      },
      "deleteFile(uint256,uint256)": {
        "details": "Function to delete file",
        "params": {
          "_ein": "is the owner EIN",
          "_fileIndex": "is the index where file is stored"
        }
      },
      "deleteGroup(uint256,uint256)": {
        "details": "Delete an existing group for the user / ein",
        "params": {
          "_ein": "should be the EIN of the user",
          "_groupIndex": "describes the associated index of the group for the user / ein"
        }
      },
      "getFileMetaData(uint256,uint256)": {
        "details": "Function to get Meta Data of File",
        "params": {
          "_ein": "is the EIN of the user",
          "_fileIndex": "is the index of the file"
        }
      },
      "getGlobalItems(uint256,uint256)": {
        "details": "Function to get global items ",
        "params": {
          "_index1": "is the first index of item",
          "_index2": "is the second index of item"
        }
      },
      "getGroup(uint256,uint256)": {
        "details": "Function to return group info for an EIN",
        "params": {
          "_ein": "the EIN of the user",
          "_groupIndex": "the index of the group"
        }
      },
      "getGroupIndexes(uint256,uint256,uint16,bool)": {
        "details": "Function to return group indexes used to retrieve info about group",
        "params": {
          "_ein": "the EIN of the user"
        }
      },
      "initiateFileTransfer(uint256,uint256,uint256)": {
        "details": "Function to intiate file transfer to another EIN(user)",
        "params": {
          "_fileIndex": "is the index of file for the original user's EIN",
          "_transfereeEIN": "is the recipient user's EIN",
          "_transfererEIN": "is the original user's EIN "
        }
      },
      "isOwner()": {
        "return": "true if `msg.sender` is the owner of the contract."
      },
      "moveFileToGroup(uint256,uint256,uint256)": {
        "details": "Function to move file to another group",
        "params": {
          "_ein": "is the owner EIN",
          "_fileIndex": "is the index where file is stored",
          "_newGroupIndex": "is the index of the new group where file has to be moved"
        }
      },
      "owner()": {
        "return": "the address of the owner."
      },
      "removeFromBlacklist(uint256)": {
        "details": "Remove a non-owner user from blacklist",
        "params": {
          "_nonOwnerEIN": "is the ein of the recipient"
        }
      },
      "removeFromWhitelist(uint256)": {
        "details": "Remove a non-owner user from whitelist",
        "params": {
          "_nonOwnerEIN": "is the ein of the recipient"
        }
      },
      "renameGroup(uint256,uint256,string)": {
        "details": "Rename an existing Group for the user / ein",
        "params": {
          "_ein": "should be the EIN of the user",
          "_groupIndex": "describes the associated index of the group for the user / ein",
          "_groupName": "describes the new name of the group"
        }
      },
      "renounceOwnership()": {
        "details": "Allows the current owner to relinquish control of the contract."
      },
      "transferOwnership(address)": {
        "details": "Allows the current owner to transfer control of the contract to a newOwner.",
        "params": {
          "newOwner": "The address to transfer ownership to."
        }
      }
    },
    "title": "Ice Protocol"
  },
  "userdoc": {
    "methods": {
      "renounceOwnership()": {
        "notice": "Renouncing to ownership will leave the contract without an owner. It will not be possible to call the functions with the `onlyOwner` modifier anymore."
      }
    },
    "notice": "Create Protocol Less File Storage, Grouping, Hassle free Encryption / Decryption and Stamping using Snowflake "
  }
}