{
  "contractName": "Ice",
  "abi": [
    {
      "constant": true,
      "inputs": [
        {
          "name": "",
          "type": "uint256"
        },
        {
          "name": "",
          "type": "uint256"
        }
      ],
      "name": "shares",
      "outputs": [
        {
          "name": "i1",
          "type": "uint256"
        },
        {
          "name": "i2",
          "type": "uint256"
        }
      ],
      "payable": false,
      "stateMutability": "view",
      "type": "function"
    },
    {
      "constant": true,
      "inputs": [
        {
          "name": "",
          "type": "uint256"
        }
      ],
      "name": "usermeta",
      "outputs": [
        {
          "name": "lockFiles",
          "type": "bool"
        },
        {
          "name": "lockGroups",
          "type": "bool"
        },
        {
          "name": "lockTransfers",
          "type": "bool"
        },
        {
          "name": "lockSharings",
          "type": "bool"
        },
        {
          "name": "hasAvatar",
          "type": "bool"
        }
      ],
      "payable": false,
      "stateMutability": "view",
      "type": "function"
    },
    {
      "constant": true,
      "inputs": [
        {
          "name": "",
          "type": "uint256"
        },
        {
          "name": "",
          "type": "uint256"
        }
      ],
      "name": "stampingsRequestOrder",
      "outputs": [
        {
          "name": "next",
          "type": "uint256"
        },
        {
          "name": "prev",
          "type": "uint256"
        },
        {
          "name": "pointerID",
          "type": "uint256"
        },
        {
          "name": "active",
          "type": "bool"
        }
      ],
      "payable": false,
      "stateMutability": "view",
      "type": "function"
    },
    {
      "constant": true,
      "inputs": [],
      "name": "identityRegistry",
      "outputs": [
        {
          "name": "",
          "type": "address"
        }
      ],
      "payable": false,
      "stateMutability": "view",
      "type": "function"
    },
    {
      "constant": true,
      "inputs": [
        {
          "name": "",
          "type": "uint256"
        },
        {
          "name": "",
          "type": "uint256"
        }
      ],
      "name": "blacklist",
      "outputs": [
        {
          "name": "",
          "type": "bool"
        }
      ],
      "payable": false,
      "stateMutability": "view",
      "type": "function"
    },
    {
      "constant": true,
      "inputs": [
        {
          "name": "",
          "type": "uint256"
        }
      ],
      "name": "shareCount",
      "outputs": [
        {
          "name": "",
          "type": "uint256"
        }
      ],
      "payable": false,
      "stateMutability": "view",
      "type": "function"
    },
    {
      "constant": true,
      "inputs": [
        {
          "name": "",
          "type": "uint256"
        },
        {
          "name": "",
          "type": "uint256"
        }
      ],
      "name": "fileOrder",
      "outputs": [
        {
          "name": "next",
          "type": "uint256"
        },
        {
          "name": "prev",
          "type": "uint256"
        },
        {
          "name": "pointerID",
          "type": "uint256"
        },
        {
          "name": "active",
          "type": "bool"
        }
      ],
      "payable": false,
      "stateMutability": "view",
      "type": "function"
    },
    {
      "constant": true,
      "inputs": [
        {
          "name": "",
          "type": "uint256"
        },
        {
          "name": "",
          "type": "uint256"
        }
      ],
      "name": "whitelist",
      "outputs": [
        {
          "name": "",
          "type": "bool"
        }
      ],
      "payable": false,
      "stateMutability": "view",
      "type": "function"
    },
    {
      "constant": true,
      "inputs": [
        {
          "name": "",
          "type": "uint256"
        },
        {
          "name": "",
          "type": "uint256"
        }
      ],
      "name": "stampingsRequest",
      "outputs": [
        {
          "name": "i1",
          "type": "uint256"
        },
        {
          "name": "i2",
          "type": "uint256"
        }
      ],
      "payable": false,
      "stateMutability": "view",
      "type": "function"
    },
    {
      "constant": true,
      "inputs": [],
      "name": "globalIndex2",
      "outputs": [
        {
          "name": "",
          "type": "uint256"
        }
      ],
      "payable": false,
      "stateMutability": "view",
      "type": "function"
    },
    {
      "constant": true,
      "inputs": [
        {
          "name": "",
          "type": "uint256"
        }
      ],
      "name": "stampingsRequestCount",
      "outputs": [
        {
          "name": "",
          "type": "uint256"
        }
      ],
      "payable": false,
      "stateMutability": "view",
      "type": "function"
    },
    {
      "constant": true,
      "inputs": [
        {
          "name": "",
          "type": "uint256"
        },
        {
          "name": "",
          "type": "uint256"
        }
      ],
      "name": "stampings",
      "outputs": [
        {
          "name": "i1",
          "type": "uint256"
        },
        {
          "name": "i2",
          "type": "uint256"
        }
      ],
      "payable": false,
      "stateMutability": "view",
      "type": "function"
    },
    {
      "constant": true,
      "inputs": [
        {
          "name": "",
          "type": "uint256"
        },
        {
          "name": "",
          "type": "uint256"
        }
      ],
      "name": "groupOrder",
      "outputs": [
        {
          "name": "next",
          "type": "uint256"
        },
        {
          "name": "prev",
          "type": "uint256"
        },
        {
          "name": "pointerID",
          "type": "uint256"
        },
        {
          "name": "active",
          "type": "bool"
        }
      ],
      "payable": false,
      "stateMutability": "view",
      "type": "function"
    },
    {
      "constant": true,
      "inputs": [
        {
          "name": "",
          "type": "uint256"
        }
      ],
      "name": "transferIndex",
      "outputs": [
        {
          "name": "",
          "type": "uint256"
        }
      ],
      "payable": false,
      "stateMutability": "view",
      "type": "function"
    },
    {
      "constant": true,
      "inputs": [],
      "name": "globalIndex1",
      "outputs": [
        {
          "name": "",
          "type": "uint256"
        }
      ],
      "payable": false,
      "stateMutability": "view",
      "type": "function"
    },
    {
      "constant": true,
      "inputs": [
        {
          "name": "",
          "type": "uint256"
        }
      ],
      "name": "groupCount",
      "outputs": [
        {
          "name": "",
          "type": "uint256"
        }
      ],
      "payable": false,
      "stateMutability": "view",
      "type": "function"
    },
    {
      "constant": true,
      "inputs": [
        {
          "name": "",
          "type": "uint256"
        },
        {
          "name": "",
          "type": "uint256"
        }
      ],
      "name": "shareOrder",
      "outputs": [
        {
          "name": "next",
          "type": "uint256"
        },
        {
          "name": "prev",
          "type": "uint256"
        },
        {
          "name": "pointerID",
          "type": "uint256"
        },
        {
          "name": "active",
          "type": "bool"
        }
      ],
      "payable": false,
      "stateMutability": "view",
      "type": "function"
    },
    {
      "constant": true,
      "inputs": [
        {
          "name": "",
          "type": "uint256"
        },
        {
          "name": "",
          "type": "uint256"
        }
      ],
      "name": "stampingOrder",
      "outputs": [
        {
          "name": "next",
          "type": "uint256"
        },
        {
          "name": "prev",
          "type": "uint256"
        },
        {
          "name": "pointerID",
          "type": "uint256"
        },
        {
          "name": "active",
          "type": "bool"
        }
      ],
      "payable": false,
      "stateMutability": "view",
      "type": "function"
    },
    {
      "constant": true,
      "inputs": [
        {
          "name": "",
          "type": "uint256"
        }
      ],
      "name": "stampingCount",
      "outputs": [
        {
          "name": "",
          "type": "uint256"
        }
      ],
      "payable": false,
      "stateMutability": "view",
      "type": "function"
    },
    {
      "constant": true,
      "inputs": [
        {
          "name": "",
          "type": "uint256"
        },
        {
          "name": "",
          "type": "uint256"
        }
      ],
      "name": "transferOrder",
      "outputs": [
        {
          "name": "next",
          "type": "uint256"
        },
        {
          "name": "prev",
          "type": "uint256"
        },
        {
          "name": "pointerID",
          "type": "uint256"
        },
        {
          "name": "active",
          "type": "bool"
        }
      ],
      "payable": false,
      "stateMutability": "view",
      "type": "function"
    },
    {
      "constant": true,
      "inputs": [
        {
          "name": "",
          "type": "uint256"
        }
      ],
      "name": "fileCount",
      "outputs": [
        {
          "name": "",
          "type": "uint256"
        }
      ],
      "payable": false,
      "stateMutability": "view",
      "type": "function"
    },
    {
      "constant": true,
      "inputs": [],
      "name": "snowflake",
      "outputs": [
        {
          "name": "",
          "type": "address"
        }
      ],
      "payable": false,
      "stateMutability": "view",
      "type": "function"
    },
    {
      "inputs": [],
      "payable": false,
      "stateMutability": "nonpayable",
      "type": "constructor"
    },
    {
      "anonymous": false,
      "inputs": [
        {
          "indexed": false,
          "name": "EIN",
          "type": "uint256"
        },
        {
          "indexed": false,
          "name": "fileIndex",
          "type": "uint256"
        },
        {
          "indexed": false,
          "name": "fileName",
          "type": "string"
        }
      ],
      "name": "FileCreated",
      "type": "event"
    },
    {
      "anonymous": false,
      "inputs": [
        {
          "indexed": false,
          "name": "EIN",
          "type": "uint256"
        },
        {
          "indexed": false,
          "name": "fileIndex",
          "type": "uint256"
        },
        {
          "indexed": false,
          "name": "fileName",
          "type": "string"
        }
      ],
      "name": "FileRenamed",
      "type": "event"
    },
    {
      "anonymous": false,
      "inputs": [
        {
          "indexed": false,
          "name": "EIN",
          "type": "uint256"
        },
        {
          "indexed": false,
          "name": "fileIndex",
          "type": "uint256"
        },
        {
          "indexed": false,
          "name": "groupIndex",
          "type": "uint256"
        },
        {
          "indexed": false,
          "name": "groupFileIndex",
          "type": "uint256"
        }
      ],
      "name": "FileMoved",
      "type": "event"
    },
    {
      "anonymous": false,
      "inputs": [
        {
          "indexed": false,
          "name": "EIN",
          "type": "uint256"
        },
        {
          "indexed": false,
          "name": "fileIndex",
          "type": "uint256"
        }
      ],
      "name": "FileDeleted",
      "type": "event"
    },
    {
      "anonymous": false,
      "inputs": [
        {
          "indexed": false,
          "name": "EIN",
          "type": "uint256"
        },
        {
          "indexed": false,
          "name": "groupIndex",
          "type": "uint256"
        },
        {
          "indexed": false,
          "name": "groupName",
          "type": "string"
        }
      ],
      "name": "GroupCreated",
      "type": "event"
    },
    {
      "anonymous": false,
      "inputs": [
        {
          "indexed": false,
          "name": "EIN",
          "type": "uint256"
        },
        {
          "indexed": false,
          "name": "groupIndex",
          "type": "uint256"
        },
        {
          "indexed": false,
          "name": "groupName",
          "type": "string"
        }
      ],
      "name": "GroupRenamed",
      "type": "event"
    },
    {
      "anonymous": false,
      "inputs": [
        {
          "indexed": false,
          "name": "EIN",
          "type": "uint256"
        },
        {
          "indexed": false,
          "name": "groupIndex",
          "type": "uint256"
        },
        {
          "indexed": false,
          "name": "groupReplacedIndex",
          "type": "uint256"
        }
      ],
      "name": "GroupDeleted",
      "type": "event"
    },
    {
      "anonymous": false,
      "inputs": [
        {
          "indexed": true,
          "name": "EIN",
          "type": "uint256"
        },
        {
          "indexed": true,
          "name": "transfereeEIN",
          "type": "uint256"
        },
        {
          "indexed": true,
          "name": "fileID",
          "type": "uint256"
        }
      ],
      "name": "FileTransferInitiated",
      "type": "event"
    },
    {
      "anonymous": false,
      "inputs": [
        {
          "indexed": false,
          "name": "EIN",
          "type": "uint256"
        },
        {
          "indexed": false,
          "name": "recipientEIN",
          "type": "uint256"
        }
      ],
      "name": "AddedToWhitelist",
      "type": "event"
    },
    {
      "anonymous": false,
      "inputs": [
        {
          "indexed": false,
          "name": "EIN",
          "type": "uint256"
        },
        {
          "indexed": false,
          "name": "recipientEIN",
          "type": "uint256"
        }
      ],
      "name": "RemovedFromWhitelist",
      "type": "event"
    },
    {
      "anonymous": false,
      "inputs": [
        {
          "indexed": false,
          "name": "EIN",
          "type": "uint256"
        },
        {
          "indexed": false,
          "name": "recipientEIN",
          "type": "uint256"
        }
      ],
      "name": "AddedToBlacklist",
      "type": "event"
    },
    {
      "anonymous": false,
      "inputs": [
        {
          "indexed": false,
          "name": "EIN",
          "type": "uint256"
        },
        {
          "indexed": false,
          "name": "recipientEIN",
          "type": "uint256"
        }
      ],
      "name": "RemovedFromBlacklist",
      "type": "event"
    },
    {
      "anonymous": false,
      "inputs": [
        {
          "indexed": true,
          "name": "EIN",
          "type": "uint256"
        },
        {
          "indexed": true,
          "name": "notice",
          "type": "string"
        },
        {
          "indexed": true,
          "name": "statusType",
          "type": "uint256"
        }
      ],
      "name": "Notice",
      "type": "event"
    },
    {
      "constant": true,
      "inputs": [
        {
          "name": "_index1",
          "type": "uint256"
        },
        {
          "name": "_index2",
          "type": "uint256"
        }
      ],
      "name": "getGlobalItems",
      "outputs": [
        {
          "name": "ownerEIN",
          "type": "uint256"
        },
        {
          "name": "itemRecord",
          "type": "uint256"
        },
        {
          "name": "isFile",
          "type": "bool"
        },
        {
          "name": "isHidden",
          "type": "bool"
        },
        {
          "name": "deleted",
          "type": "bool"
        },
        {
          "name": "sharedToCount",
          "type": "uint8"
        },
        {
          "name": "pendingStampingCount",
          "type": "uint8"
        }
      ],
      "payable": false,
      "stateMutability": "view",
      "type": "function"
    },
    {
      "constant": false,
      "inputs": [
        {
          "name": "_index1",
          "type": "uint256"
        },
        {
          "name": "_index2",
          "type": "uint256"
        },
        {
          "name": "_isHidden",
          "type": "bool"
        }
      ],
      "name": "hideGlobalItem",
      "outputs": [],
      "payable": false,
      "stateMutability": "nonpayable",
      "type": "function"
    },
    {
      "constant": true,
      "inputs": [
        {
          "name": "_index1",
          "type": "uint256"
        },
        {
          "name": "_index2",
          "type": "uint256"
        },
        {
          "name": "_ofType",
          "type": "uint8"
        },
        {
          "name": "_mappedIndex",
          "type": "uint8"
        }
      ],
      "name": "getGlobalItemsMapping",
      "outputs": [
        {
          "name": "mappedToEIN",
          "type": "uint256"
        },
        {
          "name": "atIndex",
          "type": "uint256"
        }
      ],
      "payable": false,
      "stateMutability": "view",
      "type": "function"
    },
    {
      "constant": true,
      "inputs": [
        {
          "name": "_ein",
          "type": "uint256"
        },
        {
          "name": "_seedPointer",
          "type": "uint256"
        },
        {
          "name": "_limit",
          "type": "uint16"
        },
        {
          "name": "_asc",
          "type": "bool"
        }
      ],
      "name": "getFileIndexes",
      "outputs": [
        {
          "name": "fileIndexes",
          "type": "uint256[20]"
        }
      ],
      "payable": false,
      "stateMutability": "view",
      "type": "function"
    },
    {
      "constant": true,
      "inputs": [
        {
          "name": "_ein",
          "type": "uint256"
        },
        {
          "name": "_fileIndex",
          "type": "uint256"
        }
      ],
      "name": "getFileInfo",
      "outputs": [
        {
          "name": "protocol",
          "type": "uint8"
        },
        {
          "name": "protocolMeta",
          "type": "bytes"
        },
        {
          "name": "fileName",
          "type": "string"
        },
        {
          "name": "fileHash",
          "type": "bytes32"
        },
        {
          "name": "hashExtraInfo",
          "type": "bytes22"
        },
        {
          "name": "hashFunction",
          "type": "uint8"
        },
        {
          "name": "hashSize",
          "type": "uint8"
        },
        {
          "name": "encryptedStatus",
          "type": "bool"
        }
      ],
      "payable": false,
      "stateMutability": "view",
      "type": "function"
    },
    {
      "constant": true,
      "inputs": [
        {
          "name": "_ein",
          "type": "uint256"
        },
        {
          "name": "_fileIndex",
          "type": "uint256"
        }
      ],
      "name": "getFileOtherInfo",
      "outputs": [
        {
          "name": "timestamp",
          "type": "uint32"
        },
        {
          "name": "associatedGroupIndex",
          "type": "uint256"
        },
        {
          "name": "associatedGroupFileIndex",
          "type": "uint256"
        }
      ],
      "payable": false,
      "stateMutability": "view",
      "type": "function"
    },
    {
      "constant": true,
      "inputs": [
        {
          "name": "_ein",
          "type": "uint256"
        },
        {
          "name": "_fileIndex",
          "type": "uint256"
        }
      ],
      "name": "getFileTransferInfo",
      "outputs": [
        {
          "name": "transCount",
          "type": "uint256"
        },
        {
          "name": "transEIN",
          "type": "uint256"
        },
        {
          "name": "transIndex",
          "type": "uint256"
        },
        {
          "name": "forTrans",
          "type": "bool"
        }
      ],
      "payable": false,
      "stateMutability": "view",
      "type": "function"
    },
    {
      "constant": true,
      "inputs": [
        {
          "name": "_ein",
          "type": "uint256"
        },
        {
          "name": "_fileIndex",
          "type": "uint256"
        },
        {
          "name": "_transferIndex",
          "type": "uint256"
        }
      ],
      "name": "getFileTransferOwners",
      "outputs": [
        {
          "name": "recipientEIN",
          "type": "uint256"
        }
      ],
      "payable": false,
      "stateMutability": "view",
      "type": "function"
    },
    {
      "constant": false,
      "inputs": [
        {
          "name": "_op",
          "type": "uint8"
        },
        {
          "name": "_protocol",
          "type": "uint8"
        },
        {
          "name": "_protocolMeta",
          "type": "bytes"
        },
        {
          "name": "_name",
          "type": "bytes32"
        },
        {
          "name": "_hash",
          "type": "bytes32"
        },
        {
          "name": "_hashExtraInfo",
          "type": "bytes22"
        },
        {
          "name": "_hashFunction",
          "type": "uint8"
        },
        {
          "name": "_hashSize",
          "type": "uint8"
        },
        {
          "name": "_encrypted",
          "type": "bool"
        },
        {
          "name": "_encryptedHash",
          "type": "bytes32"
        },
        {
          "name": "_groupIndex",
          "type": "uint256"
        }
      ],
      "name": "addFile",
      "outputs": [],
      "payable": false,
      "stateMutability": "nonpayable",
      "type": "function"
    },
    {
      "constant": false,
      "inputs": [
        {
          "name": "_fileIndex",
          "type": "uint256"
        },
        {
          "name": "_name",
          "type": "bytes32"
        }
      ],
      "name": "changeFileName",
      "outputs": [],
      "payable": false,
      "stateMutability": "nonpayable",
      "type": "function"
    },
    {
      "constant": false,
      "inputs": [
        {
          "name": "_fileIndex",
          "type": "uint256"
        },
        {
          "name": "_newGroupIndex",
          "type": "uint256"
        }
      ],
      "name": "moveFileToGroup",
      "outputs": [],
      "payable": false,
      "stateMutability": "nonpayable",
      "type": "function"
    },
    {
      "constant": false,
      "inputs": [
        {
          "name": "_fileIndex",
          "type": "uint256"
        }
      ],
      "name": "deleteFile",
      "outputs": [],
      "payable": false,
      "stateMutability": "nonpayable",
      "type": "function"
    },
    {
      "constant": true,
      "inputs": [
        {
          "name": "_ein",
          "type": "uint256"
        },
        {
          "name": "_groupIndex",
          "type": "uint256"
        },
        {
          "name": "_seedPointer",
          "type": "uint256"
        },
        {
          "name": "_limit",
          "type": "uint16"
        },
        {
          "name": "_asc",
          "type": "bool"
        }
      ],
      "name": "getGroupFileIndexes",
      "outputs": [
        {
          "name": "groupFileIndexes",
          "type": "uint256[20]"
        }
      ],
      "payable": false,
      "stateMutability": "view",
      "type": "function"
    },
    {
      "constant": true,
      "inputs": [
        {
          "name": "_ein",
          "type": "uint256"
        },
        {
          "name": "_groupIndex",
          "type": "uint256"
        }
      ],
      "name": "getGroup",
      "outputs": [
        {
          "name": "index",
          "type": "uint256"
        },
        {
          "name": "name",
          "type": "string"
        }
      ],
      "payable": false,
      "stateMutability": "view",
      "type": "function"
    },
    {
      "constant": true,
      "inputs": [
        {
          "name": "_ein",
          "type": "uint256"
        },
        {
          "name": "_seedPointer",
          "type": "uint256"
        },
        {
          "name": "_limit",
          "type": "uint16"
        },
        {
          "name": "_asc",
          "type": "bool"
        }
      ],
      "name": "getGroupIndexes",
      "outputs": [
        {
          "name": "groupIndexes",
          "type": "uint256[20]"
        }
      ],
      "payable": false,
      "stateMutability": "view",
      "type": "function"
    },
    {
      "constant": false,
      "inputs": [
        {
          "name": "_groupName",
          "type": "string"
        }
      ],
      "name": "createGroup",
      "outputs": [],
      "payable": false,
      "stateMutability": "nonpayable",
      "type": "function"
    },
    {
      "constant": false,
      "inputs": [
        {
          "name": "_groupIndex",
          "type": "uint256"
        },
        {
          "name": "_groupName",
          "type": "string"
        }
      ],
      "name": "renameGroup",
      "outputs": [],
      "payable": false,
      "stateMutability": "nonpayable",
      "type": "function"
    },
    {
      "constant": false,
      "inputs": [
        {
          "name": "_groupIndex",
          "type": "uint256"
        }
      ],
      "name": "deleteGroup",
      "outputs": [],
      "payable": false,
      "stateMutability": "nonpayable",
      "type": "function"
    },
    {
      "constant": false,
      "inputs": [
        {
          "name": "_toEINs",
          "type": "uint256[]"
        },
        {
          "name": "_itemIndex",
          "type": "uint256"
        },
        {
          "name": "_isFile",
          "type": "bool"
        }
      ],
      "name": "shareItemToEINs",
      "outputs": [],
      "payable": false,
      "stateMutability": "nonpayable",
      "type": "function"
    },
    {
      "constant": false,
      "inputs": [
        {
          "name": "_fromEINs",
          "type": "uint256[32]"
        },
        {
          "name": "_itemIndex",
          "type": "uint256"
        },
        {
          "name": "_isFile",
          "type": "bool"
        }
      ],
      "name": "removeShareFromEINs",
      "outputs": [],
      "payable": false,
      "stateMutability": "nonpayable",
      "type": "function"
    },
    {
      "constant": false,
      "inputs": [
        {
          "name": "_itemIndex",
          "type": "uint256"
        }
      ],
      "name": "removeSharingItemBySharee",
      "outputs": [],
      "payable": false,
      "stateMutability": "nonpayable",
      "type": "function"
    },
    {
      "constant": false,
      "inputs": [],
      "name": "debugBuildFS",
      "outputs": [],
      "payable": false,
      "stateMutability": "nonpayable",
      "type": "function"
    },
    {
      "constant": true,
      "inputs": [
        {
          "name": "_ein",
          "type": "uint256"
        },
        {
          "name": "_groupIndex",
          "type": "uint256"
        },
        {
          "name": "_seedPointer",
          "type": "uint256"
        },
        {
          "name": "_limit",
          "type": "uint16"
        },
        {
          "name": "_asc",
          "type": "bool"
        },
        {
          "name": "_for",
          "type": "uint8"
        }
      ],
      "name": "debugIndexesWithNames",
      "outputs": [
        {
          "name": "_indexes",
          "type": "uint256[20]"
        },
        {
          "name": "_names",
          "type": "string"
        }
      ],
      "payable": false,
      "stateMutability": "view",
      "type": "function"
    }
  ],
  "bytecode": "0x6080604052601a8054600160a060020a03191673cf1877ac788a303cacbbfe21b4e8ad08139f54fa1790553480156200003757600080fd5b50601a5460188054600160a060020a031916600160a060020a039283161790819055604080517fa759ee6f0000000000000000000000000000000000000000000000000000000081529051919092169163a759ee6f9160048083019260209291908290030181600087803b158015620000af57600080fd5b505af1158015620000c4573d6000803e3d6000fd5b505050506040513d6020811015620000db57600080fd5b505160198054600160a060020a031916600160a060020a03909216919091179055615486806200010c6000396000f3fe6080604052600436106102055760e060020a600035046301bee1d6811461020a5780630340cf691461025357806312c8e644146102ae578063134e18f414610306578063164570f5146103375780632a11103c146103b257806330a0b0e4146103f657806333aff05a14610432578063368aaf7914610462578063426dd27c1461049257806344aac4301461054157806345d88d2d146105715780634e5b9f041461059d5780635056feee146105de57806351d3b5541461060e57806354a8a58a1461063e57806358f2b5881461065357806359a8e8b81461067d57806359ceb6681461070157806363804c20146107315780636e8e0b2314610786578063737f3a1d146107bc5780637e79b842146107ec5780638216526c146108535780638974a425146109a7578063973670d6146109d7578063a21aa45814610a5c578063b02959af14610a86578063b3ae44c814610ab0578063b4e741a214610ac5578063b583637714610aef578063ba45ce2114610b1f578063bca92bc414610b4f578063be7047a514610c55578063c2cfaaf514610c9d578063c5b4200614610d0d578063ca6d351b14610d37578063d62991ce14610ded578063dc2ddcae14610e17578063de89fabc14610eca578063ef4f8f4b14610efa578063f39997d214610f0f578063f836a35314610f39578063fb7ff87414610f4e578063fb9efad114610f86575b600080fd5b34801561021657600080fd5b5061023a6004803603604081101561022d57600080fd5b5080359060200135610fc8565b6040805192835260208301919091528051918290030190f35b34801561025f57600080fd5b5061027d6004803603602081101561027657600080fd5b5035610fec565b6040805195151586529315156020860152911515848401521515606084015215156080830152519081900360a00190f35b3480156102ba57600080fd5b506102de600480360360408110156102d157600080fd5b5080359060200135611029565b6040805194855260208501939093528383019190915215156060830152519081900360800190f35b34801561031257600080fd5b5061031b61105e565b60408051600160a060020a039092168252519081900360200190f35b34801561034357600080fd5b506103796004803603608081101561035a57600080fd5b5080359060208101359061ffff6040820135169060600135151561106d565b604051808261028080838360005b8381101561039f578181015183820152602001610387565b5050505090500191505060405180910390f35b3480156103be57600080fd5b506103e2600480360360408110156103d557600080fd5b5080359060200135611137565b604080519115158252519081900360200190f35b34801561040257600080fd5b506104206004803603602081101561041957600080fd5b5035611157565b60408051918252519081900360200190f35b34801561043e57600080fd5b506102de6004803603604081101561045557600080fd5b5080359060200135611169565b34801561046e57600080fd5b506102de6004803603604081101561048557600080fd5b508035906020013561119e565b34801561049e57600080fd5b506104c2600480360360408110156104b557600080fd5b5080359060200135611271565b6040518083815260200180602001828103825283818151815260200191508051906020019080838360005b838110156105055781810151838201526020016104ed565b50505050905090810190601f1680156105325780820380516001836020036101000a031916815260200191505b50935050505060405180910390f35b34801561054d57600080fd5b506103e26004803603604081101561056457600080fd5b50803590602001356113eb565b34801561057d57600080fd5b5061059b6004803603602081101561059457600080fd5b503561140b565b005b3480156105a957600080fd5b5061023a600480360360808110156105c057600080fd5b5080359060208101359060ff604082013581169160600135166118bf565b3480156105ea57600080fd5b5061023a6004803603604081101561060157600080fd5b5080359060200135611971565b34801561061a57600080fd5b5061059b6004803603604081101561063157600080fd5b5080359060200135611995565b34801561064a57600080fd5b50610420611bd1565b34801561065f57600080fd5b506104206004803603602081101561067657600080fd5b5035611bd7565b34801561068957600080fd5b5061059b600480360360408110156106a057600080fd5b813591908101906040810160208201356401000000008111156106c257600080fd5b8201836020820111156106d457600080fd5b803590602001918460018302840111640100000000831117156106f657600080fd5b509092509050611be9565b34801561070d57600080fd5b5061023a6004803603604081101561072457600080fd5b5080359060200135611d8b565b34801561073d57600080fd5b506107616004803603604081101561075457600080fd5b5080359060200135611daf565b6040805163ffffffff9094168452602084019290925282820152519081900360600190f35b34801561079257600080fd5b50610420600480360360608110156107a957600080fd5b5080359060208101359060400135611e77565b3480156107c857600080fd5b506102de600480360360408110156107df57600080fd5b5080359060200135611f2d565b3480156107f857600080fd5b5061059b600480360361044081101561081057600080fd5b8101908080610400019060208060200260405190810160405280929190826020800280828437600092019190915250919450508135925050602001351515611f62565b34801561085f57600080fd5b506108836004803603604081101561087657600080fd5b508035906020013561224b565b6040805160ff808b1682526060820188905269ffffffffffffffffffff198716608083015285811660a0830152841660c082015282151560e082015261010060208083018281528b51928401929092528a5192939192918401916101208501918c019080838360005b838110156109045781810151838201526020016108ec565b50505050905090810190601f1680156109315780820380516001836020036101000a031916815260200191505b5083810382528951815289516020918201918b019080838360005b8381101561096457818101518382015260200161094c565b50505050905090810190601f1680156109915780820380516001836020036101000a031916815260200191505b509a505050505050505050505060405180910390f35b3480156109b357600080fd5b5061059b600480360360408110156109ca57600080fd5b5080359060200135612418565b3480156109e357600080fd5b5061059b600480360360608110156109fa57600080fd5b810190602081018135640100000000811115610a1557600080fd5b820183602082011115610a2757600080fd5b80359060200191846020830284011164010000000083111715610a4957600080fd5b91935091508035906020013515156125d0565b348015610a6857600080fd5b5061042060048036036020811015610a7f57600080fd5b5035612957565b348015610a9257600080fd5b5061059b60048036036020811015610aa957600080fd5b5035612969565b348015610abc57600080fd5b50610420612adc565b348015610ad157600080fd5b5061042060048036036020811015610ae857600080fd5b5035612ae2565b348015610afb57600080fd5b506102de60048036036040811015610b1257600080fd5b5080359060200135612af4565b348015610b2b57600080fd5b506102de60048036036040811015610b4257600080fd5b5080359060200135612b29565b348015610b5b57600080fd5b5061059b6004803603610160811015610b7357600080fd5b60ff8235811692602081013590911691810190606081016040820135640100000000811115610ba157600080fd5b820183602082011115610bb357600080fd5b80359060200191846001830284011164010000000083111715610bd557600080fd5b91908080601f0160208091040260200160405190810160405280939291908181526020018383808284376000920191909152509295505082359350505060208101359069ffffffffffffffffffff196040820135169060ff606082013581169160808101359091169060a081013515159060c08101359060e00135612b5e565b348015610c6157600080fd5b50610379600480360360a0811015610c7857600080fd5b5080359060208101359060408101359061ffff6060820135169060800135151561333e565b348015610ca957600080fd5b50610ccd60048036036040811015610cc057600080fd5b5080359060200135613416565b6040805197885260208801969096529315158686015291151560608601521515608085015260ff90811660a08501521660c0830152519081900360e00190f35b348015610d1957600080fd5b5061059b60048036036020811015610d3057600080fd5b503561346c565b348015610d4357600080fd5b50610d88600480360360c0811015610d5a57600080fd5b50803590602081013590604081013590606081013561ffff1690608081013515159060a0013560ff16613531565b604051808361028080838360005b83811015610dae578181015183820152602001610d96565b505050509050018060200182810382528381815181526020019150805190602001908083836000838110156105055781810151838201526020016104ed565b348015610df957600080fd5b5061042060048036036020811015610e1057600080fd5b5035613d4d565b348015610e2357600080fd5b5061059b60048036036020811015610e3a57600080fd5b810190602081018135640100000000811115610e5557600080fd5b820183602082011115610e6757600080fd5b80359060200191846001830284011164010000000083111715610e8957600080fd5b91908080601f016020809104026020016040519081016040528093929190818152602001838380828437600092019190915250929550613d5f945050505050565b348015610ed657600080fd5b506102de60048036036040811015610eed57600080fd5b5080359060200135614168565b348015610f0657600080fd5b5061059b61419d565b348015610f1b57600080fd5b5061042060048036036020811015610f3257600080fd5b5035614b0c565b348015610f4557600080fd5b5061031b614b1e565b348015610f5a57600080fd5b5061059b60048036036060811015610f7157600080fd5b50803590602081013590604001351515614b2d565b348015610f9257600080fd5b5061037960048036036080811015610fa957600080fd5b5080359060208101359061ffff60408201351690606001351515614c7c565b600d6020908152600092835260408084209091529082529020805460019091015482565b60036020526000908152604090205460ff808216916101008104821691620100008204811691630100000081048216916401000000009091041685565b601460209081526000928352604080842090915290825290208054600182015460028301546003909301549192909160ff1684565b601954600160a060020a031681565b611075615261565b60008581526005602052604090819020815160e160020a63568e008502815260048101919091526024810186905261ffff851660448201528315156064820152905173__IceSort_______________________________9163ad1c010a91608480830192610280929190829003018186803b1580156110f357600080fd5b505af4158015611107573d6000803e3d6000fd5b505050506040513d601f19601f8201168201806040525061028081101561112d57600080fd5b5095945050505050565b601760209081526000928352604080842090915290825290205460ff1681565b600f6020526000908152604090205481565b600560209081526000928352604080842090915290825290208054600182015460028301546003909301549192909160ff1684565b600082815260046020818152604080842085855290915280832081517fc7bf45e6000000000000000000000000000000000000000000000000000000008152928301525182918291829173__IceFMS________________________________9163c7bf45e691602480820192608092909190829003018186803b15801561122457600080fd5b505af4158015611238573d6000803e3d6000fd5b505050506040513d608081101561124e57600080fd5b508051602082015160408301516060909301519199909850919650945092505050565b60008281526009602052604080822054815160e060020a633b228bcf028152600481018590526024810191909152905160609173__IceFMS________________________________91633b228bcf916044808201928792909190829003018186803b1580156112df57600080fd5b505af41580156112f3573d6000803e3d6000fd5b50505050829150826000141561133d575060408051808201909152600481527f526f6f740000000000000000000000000000000000000000000000000000000060208201526113e4565b60008481526007602090815260408083208684528252918290206002908101805484516001821615610100026000190190911692909204601f8101849004840283018401909452838252909290918301828280156113dc5780601f106113b1576101008083540402835291602001916113dc565b820191906000526020600020905b8154815290600101906020018083116113bf57829003601f168201915b505050505090505b9250929050565b601660209081526000928352604080842090915290825290205460ff1681565b6019546040805160e060020a6305c62c2f0281523360048201529051600092600160a060020a0316916305c62c2f916024808301926020929190829003018186803b15801561145957600080fd5b505afa15801561146d573d6000803e3d6000fd5b505050506040513d602081101561148357600080fd5b505190506114918183614d02565b61149a82614d8f565b60008181526009602052604080822054815160e060020a633b228bcf028152600481018690526024810191909152905173__IceFMS________________________________92633b228bcf9260448082019391829003018186803b15801561150157600080fd5b505af4158015611515573d6000803e3d6000fd5b50505060008281526003602052604080822081517fb152badc0000000000000000000000000000000000000000000000000000000081526004810191909152905173__IceGlobal_____________________________935063b152badc92602480840193919291829003018186803b15801561159057600080fd5b505af41580156115a4573d6000803e3d6000fd5b5050506000828152600360209081526040808320805461ff00191661010017905560098252808320546007835281842087855290925282209092506115ef908263ffffffff614e0116565b604080517f8235d441000000000000000000000000000000000000000000000000000000008152600d60048201526024810186905260448101839052600e6064820152600f6084820152600360a4820152905191925073__IceFMSAdv_____________________________91638235d4419160c480820192600092909190829003018186803b15801561168157600080fd5b505af4158015611695573d6000803e3d6000fd5b505050508073__IceGlobal_____________________________63b9ff4f8490916040518263ffffffff1660e060020a0281526004018082815260200191505060006040518083038186803b1580156116ed57600080fd5b505af4158015611701573d6000803e3d6000fd5b50505060008481526007602090815260408083208684529091528082208783529120815481556001808301548183015560028084018054949550929361175c9382860193909290821615610100026000190190911604615281565b5060049182015490820155600084815260086020908152604080832081517f49ec42320000000000000000000000000000000000000000000000000000000081529485015260248401889052604484018690526064840192909252905173__IceSort_______________________________926349ec4232926084808301939192829003018186803b1580156117f157600080fd5b505af4158015611805573d6000803e3d6000fd5b505050506040513d602081101561181b57600080fd5b505160008481526009602090815260408083209390935560078152828220858352905290812081815560018101829055906118596002830182615306565b50600060049190910155604080518481526020810186905280820184905290517fd66ad55acd1951823df5c1b5c065951e2949a7cc40190ec571a2677508e136659181900360600190a150506000908152600360205260409020805461ff001916905550565b6000806118ca61534a565b60ff851615156119145750600086815260208181526040808320888452825280832060ff87168452600301825291829020825180840190935280548352600101549082015261195c565b60ff85166001141561195c5750600086815260208181526040808320888452825280832060ff8716845260040182529182902082518084019093528054835260010154908201525b80516020909101519097909650945050505050565b60136020908152600092835260408084209091529082529020805460019091015482565b6019546040805160e060020a6305c62c2f0281523360048201529051600092600160a060020a0316916305c62c2f916024808301926020929190829003018186803b1580156119e357600080fd5b505afa1580156119f7573d6000803e3d6000fd5b505050506040513d6020811015611a0d57600080fd5b5051600081815260046020818152604080842088855290915280832060030186905580517f9201de55000000000000000000000000000000000000000000000000000000008152918201869052519293507f2294a85d598463b63e064807fad457cab51825642ffcba08aadc87288b6cf0e8928492879273__IceFMS________________________________92639201de5592602480840193919291829003018186803b158015611abd57600080fd5b505af4158015611ad1573d6000803e3d6000fd5b505050506040513d6000823e601f3d908101601f191682016040526020811015611afa57600080fd5b810190808051640100000000811115611b1257600080fd5b82016020810184811115611b2557600080fd5b8151640100000000811182820187101715611b3f57600080fd5b50509291905050506040518084815260200183815260200180602001828103825283818151815260200191508051906020019080838360005b83811015611b90578181015183820152602001611b78565b50505050905090810190601f168015611bbd5780820380516001836020036101000a031916815260200191505b5094505050505060405180910390a1505050565b60025481565b60156020526000908152604090205481565b6019546040805160e060020a6305c62c2f0281523360048201529051600092600160a060020a0316916305c62c2f916024808301926020929190829003018186803b158015611c3757600080fd5b505afa158015611c4b573d6000803e3d6000fd5b505050506040513d6020811015611c6157600080fd5b50519050611c6e84614d8f565b60008181526009602052604080822054815160e060020a633b228bcf028152600481018890526024810191909152905173__IceFMS________________________________92633b228bcf9260448082019391829003018186803b158015611cd557600080fd5b505af4158015611ce9573d6000803e3d6000fd5b50505060008281526007602090815260408083208884529091529020611d1491506002018484615361565b507ffb99e9069a7eed8318d56501970264d150dcac4088e37bbf4bff66a71223b74b8185858560405180858152602001848152602001806020018281038252848482818152602001925080828437600083820152604051601f909101601f191690920182900397509095505050505050a150505050565b60106020908152600092835260408084209091529082529020805460019091015482565b600082815260046020818152604080842085855290915280832081517fc693ba1e00000000000000000000000000000000000000000000000000000000815292830152518291829173__IceFMS________________________________9163c693ba1e916024808301926060929190829003018186803b158015611e3257600080fd5b505af4158015611e46573d6000803e3d6000fd5b505050506040513d6060811015611e5c57600080fd5b50805160208201516040909201519097919650945092505050565b6000838152600460208181526040808420868552825280842081517fd3587cba00000000000000000000000000000000000000000000000000000000815293840152602483018590525173__IceFMS________________________________9263d3587cba926044808301939192829003018186803b158015611ef957600080fd5b505af4158015611f0d573d6000803e3d6000fd5b505050506040513d6020811015611f2357600080fd5b5051949350505050565b600860209081526000928352604080842090915290825290208054600182015460028301546003909301549192909160ff1684565b6019546040805160e060020a6305c62c2f0281523360048201529051600092600160a060020a0316916305c62c2f916024808301926020929190829003018186803b158015611fb057600080fd5b505afa158015611fc4573d6000803e3d6000fd5b505050506040513d6020811015611fda57600080fd5b50519050611fe661534a565b600183151514156120a65760008281526006602052604080822054815160e060020a633b228bcf028152600481018890526024810191909152905173__IceFMS________________________________92633b228bcf9260448082019391829003018186803b15801561205857600080fd5b505af415801561206c573d6000803e3d6000fd5b5050506000838152600460209081526040808320888452825291829020825180840190935280548352600101549082015291506121569050565b60008281526009602052604080822054815160e060020a633b228bcf028152600481018890526024810191909152905173__IceFMS________________________________92633b228bcf9260448082019391829003018186803b15801561210d57600080fd5b505af4158015612121573d6000803e3d6000fd5b505050600083815260046020908152604080832088845282529182902082518084019093528054835260010154908201529150505b600d73__IceFMSAdv_____________________________6301523ea59091848860008087600001518152602001908152602001600020600087602001518152602001908152602001600020600e600f60036040518863ffffffff1660e060020a02815260040180888152602001878152602001866020800280838360005b838110156121ec5781810151838201526020016121d4565b5050505090500185815260200184815260200183815260200182815260200197505050505050505060006040518083038186803b15801561222c57600080fd5b505af4158015612240573d6000803e3d6000fd5b505050505050505050565b600082815260046020818152604080842085855290915280832081517f3edbc2cd000000000000000000000000000000000000000000000000000000008152928301525160609182918491829182918291829173__IceFMS________________________________91633edbc2cd916024808201928692909190829003018186803b1580156122d957600080fd5b505af41580156122ed573d6000803e3d6000fd5b505050506040513d6000823e601f3d908101601f1916820160405261010081101561231757600080fd5b81516020830180519193928301929164010000000081111561233857600080fd5b8201602081018481111561234b57600080fd5b815164010000000081118282018710171561236557600080fd5b5050929190602001805164010000000081111561238157600080fd5b8201602081018481111561239457600080fd5b81516401000000008111828201871017156123ae57600080fd5b50509291906020018051906020019092919080519060200190929190805190602001909291908051906020019092919080519060200190929190505050809850819950829a50839b50849c50859d50869e50879f5050505050505050509295985092959890939650565b6019546040805160e060020a6305c62c2f0281523360048201529051600092600160a060020a0316916305c62c2f916024808301926020929190829003018186803b15801561246657600080fd5b505afa15801561247a573d6000803e3d6000fd5b505050506040513d602081101561249057600080fd5b50516000818152600460208181526040808420888552825280842085855260078352818520600884528286206003855283872084517f4344696300000000000000000000000000000000000000000000000000000000815296870193909352602486018b9052604486019190915260648501526084840188905260a4840185905260c484015251939450919273__IceFMS________________________________9263434469639260e48082019391829003018186803b15801561255357600080fd5b505af4158015612567573d6000803e3d6000fd5b505050506040513d602081101561257d57600080fd5b505160408051848152602081018790528082018690526060810183905290519192507f90066c23e167bba0523fbd672b21f1d81daf9041d56adbd5a79287f2cfd1ec08919081900360800190a150505050565b6019546040805160e060020a6305c62c2f0281523360048201529051600092600160a060020a0316916305c62c2f916024808301926020929190829003018186803b15801561261e57600080fd5b505afa158015612632573d6000803e3d6000fd5b505050506040513d602081101561264857600080fd5b50519050600182151514156127e25760008181526006602052604080822054815160e060020a633b228bcf028152600481018790526024810191909152905173__IceFMS________________________________92633b228bcf9260448082019391829003018186803b1580156126be57600080fd5b505af41580156126d2573d6000803e3d6000fd5b50505050600d73__IceFMSAdv_____________________________6373db547690916000600e600f60036017600460008a815260200190815260200160002060008c8152602001908152602001600020600001898e8e6040518b63ffffffff1660e060020a028152600401808b81526020018a8152602001898152602001888152602001878152602001868152602001858152602001848152602001806020018281038252848482818152602001925060200280828437600081840152601f19601f8201169050808301925050509b50505050505050505050505060006040518083038186803b1580156127c557600080fd5b505af41580156127d9573d6000803e3d6000fd5b50505050612950565b60008181526009602052604080822054815160e060020a633b228bcf028152600481018790526024810191909152905173__IceFMS________________________________92633b228bcf9260448082019391829003018186803b15801561284957600080fd5b505af415801561285d573d6000803e3d6000fd5b50505050600d73__IceFMSAdv_____________________________6373db547690916000600e600f60036017600760008a815260200190815260200160002060008c8152602001908152602001600020600001898e8e6040518b63ffffffff1660e060020a028152600401808b81526020018a8152602001898152602001888152602001878152602001868152602001858152602001848152602001806020018281038252848482818152602001925060200280828437600081840152601f19601f8201169050808301925050509b50505050505050505050505060006040518083038186803b15801561222c57600080fd5b5050505050565b600c6020526000908152604090205481565b6019546040805160e060020a6305c62c2f0281523360048201529051600092600160a060020a0316916305c62c2f916024808301926020929190829003018186803b1580156129b757600080fd5b505afa1580156129cb573d6000803e3d6000fd5b505050506040513d60208110156129e157600080fd5b50516000818152600d60209081526040808320868452909152812091925090612a10908263ffffffff614e0116565b6000838152600d60209081526040808320600e8352818420600390935281842082517fa8eaca3c000000000000000000000000000000000000000000000000000000008152600481019290925260248201889052604482018690526064820193909352600f608482015260a48101929092525192935073__IceFMSAdv_____________________________9263a8eaca3c9260c480840193919291829003018186803b158015612abf57600080fd5b505af4158015612ad3573d6000803e3d6000fd5b50505050505050565b60015481565b60096020526000908152604090205481565b600e60209081526000928352604080842090915290825290208054600182015460028301546003909301549192909160ff1684565b601160209081526000928352604080842090915290825290208054600182015460028301546003909301549192909160ff1684565b6019546040805160e060020a6305c62c2f0281523360048201529051600092600160a060020a0316916305c62c2f916024808301926020929190829003018186803b158015612bac57600080fd5b505afa158015612bc0573d6000803e3d6000fd5b505050506040513d6020811015612bd657600080fd5b505160008181526009602052604080822054815160e060020a633b228bcf028152600481018790526024810191909152905192935073__IceFMS________________________________92633b228bcf92604480840193919291829003018186803b158015612c4457600080fd5b505af4158015612c58573d6000803e3d6000fd5b50505060008281526003602052604080822081517f85ee7e960000000000000000000000000000000000000000000000000000000081526004810191909152905173__IceGlobal_____________________________93506385ee7e9692602480840193919291829003018186803b158015612cd357600080fd5b505af4158015612ce7573d6000803e3d6000fd5b50505060008281526003602052604080822081517fb152badc0000000000000000000000000000000000000000000000000000000081526004810191909152905173__IceGlobal_____________________________935063b152badc92602480840193919291829003018186803b158015612d6257600080fd5b505af4158015612d76573d6000803e3d6000fd5b5050506000828152600360205260409020805461ff001960ff199091166001171661010017905550612da661534a565b600060ff8e161515612e8e57612dba614e22565b60008481526006602090815260408083205484519285015182517fd6238b5a00000000000000000000000000000000000000000000000000000000815260048101869052602481019490945260448401526064830188905260019081016084840181905260a484019190915260c4830184905260e483018490529051939550935073__IceGlobal_____________________________9263d6238b5a9261010480840193919291829003018186803b158015612e7557600080fd5b505af4158015612e89573d6000803e3d6000fd5b505050505b60046000848152602001908152602001600020600082815260200190815260200160002073__IceFMS________________________________63bc5103a290918e876007600089815260200190815260200160002060008a8152602001908152602001600020600401546040518563ffffffff1660e060020a0281526004018085815260200180602001848152602001838152602001828103825285818151815260200191508051906020019080838360005b83811015612f59578181015183820152602001612f41565b50505050905090810190601f168015612f865780820380516001836020036101000a031916815260200191505b509550505050505060006040518083038186803b158015612fa657600080fd5b505af4158015612fba573d6000803e3d6000fd5b5050505081600460008581526020019081526020016000206000838152602001908152602001600020600001600082015181600001556020820151816001015590505060046000848152602001908152602001600020600082815260200190815260200160002073__IceFMS________________________________633b8b92bf90918f8e8e8e8e8e8e6040518963ffffffff1660e060020a028152600401808981526020018860ff1660ff1681526020018781526020018681526020018569ffffffffffffffffffff191669ffffffffffffffffffff191681526020018460ff1660ff1681526020018360ff1660ff168152602001821515151581526020019850505050505050505060006040518083038186803b1580156130dc57600080fd5b505af41580156130f0573d6000803e3d6000fd5b5050505060ff8e161515613166576000838152600760209081526040808320878452825280832086845260058352818420600684528285205460048552838620878752909452919093206131529390929091889186898c63ffffffff614e7c16565b600084815260066020526040902055613194565b8d60ff1660011415613194576000838152600360205260409020805464ff0000000019166401000000001790555b7f4443292b7c801de1e18bba287635c870a53fe39f205e385ab346e9f2939dffb2838273__IceFMS________________________________639201de558f6040518263ffffffff1660e060020a0281526004018082815260200191505060006040518083038186803b15801561320957600080fd5b505af415801561321d573d6000803e3d6000fd5b505050506040513d6000823e601f3d908101601f19168201604052602081101561324657600080fd5b81019080805164010000000081111561325e57600080fd5b8201602081018481111561327157600080fd5b815164010000000081118282018710171561328b57600080fd5b50509291905050506040518084815260200183815260200180602001828103825283818151815260200191508051906020019080838360005b838110156132dc5781810151838201526020016132c4565b50505050905090810190601f1680156133095780820380516001836020036101000a031916815260200191505b5094505050505060405180910390a150506000908152600360205260409020805461ffff191690555050505050505050505050565b613346615261565b600086815260076020908152604080832088845290915290819020815160e160020a63568e0085028152600390910160048201526024810186905261ffff851660448201528315156064820152905173__IceSort_______________________________9163ad1c010a91608480830192610280929190829003018186803b1580156133d157600080fd5b505af41580156133e5573d6000803e3d6000fd5b505050506040513d601f19601f8201168201806040525061028081101561340b57600080fd5b509695505050505050565b600091825260208281526040808420928452919052902080546001820154600290920154909260ff8083169261010081048216926301000000820483169264010000000083048116926501000000000090041690565b6019546040805160e060020a6305c62c2f0281523360048201529051600092600160a060020a0316916305c62c2f916024808301926020929190829003018186803b1580156134ba57600080fd5b505afa1580156134ce573d6000803e3d6000fd5b505050506040513d60208110156134e457600080fd5b505190506134f28183614f78565b604080518281526020810184905281517fa50edae42406c3acb160bbddf0ca2fc7eb414a065b7738f3ff10d22c6385cafd929181900390910190a15050565b613539615261565b60608260ff16600114156136075760008881526005602052604090819020815160e160020a63568e008502815260048101919091526024810188905261ffff871660448201528515156064820152905173__IceSort_______________________________9163ad1c010a91608480830192610280929190829003018186803b1580156135c557600080fd5b505af41580156135d9573d6000803e3d6000fd5b505050506040513d601f19601f820116820180604052506102808110156135ff57600080fd5b5091506137f0565b8260ff166002141561369e5760008881526007602090815260408083208a845290915290819020815160e160020a63568e0085028152600390910160048201526024810188905261ffff871660448201528515156064820152905173__IceSort_______________________________9163ad1c010a91608480830192610280929190829003018186803b1580156135c557600080fd5b8260ff16600314156137285760008881526008602052604090819020815160e160020a63568e008502815260048101919091526024810188905261ffff871660448201528515156064820152905173__IceSort_______________________________9163ad1c010a91608480830192610280929190829003018186803b1580156135c557600080fd5b8260ff16600414156137f0576000888152600e602052604090819020815160e160020a63568e008502815260048101919091526024810188905261ffff871660448201528515156064820152905173__IceSort_______________________________9163ad1c010a91608480830192610280929190829003018186803b1580156137b257600080fd5b505af41580156137c6573d6000803e3d6000fd5b505050506040513d601f19601f820116820180604052506102808110156137ec57600080fd5b5091505b6000805b801515613d405760608560ff166001148061381257508560ff166002145b156139335760008b815260046020526040812073__IceFMS________________________________91639201de5591908861ffff88166014811061385257fe5b60200201518152602001908152602001600020600301600001546040518263ffffffff1660e060020a0281526004018082815260200191505060006040518083038186803b1580156138a357600080fd5b505af41580156138b7573d6000803e3d6000fd5b505050506040513d6000823e601f3d908101601f1916820160405260208110156138e057600080fd5b8101908080516401000000008111156138f857600080fd5b8201602081018481111561390b57600080fd5b815164010000000081118282018710171561392557600080fd5b50909450613c9d9350505050565b8560ff1660031415613a145760008b8152600760205260408120908661ffff86166014811061395e57fe5b602002015181526020019081526020016000206002018054600181600116156101000203166002900480601f016020809104026020016040519081016040528092919081815260200182805460018160011615610100020316600290048015613a085780601f106139dd57610100808354040283529160200191613a08565b820191906000526020600020905b8154815290600101906020018083116139eb57829003601f168201915b50505050509050613c9d565b8560ff1660041415613c9d57613a2861534a565b60008c8152600d60205260408120908761ffff871660148110613a4757fe5b60200201518152602001908152602001600020604080519081016040529081600082015481526020016001820154815250509050613a8361534a565b5080516000908152602081815260408083208285018051855290835281842082518084018452815481526001918201548186015286518652858552838620925186529190935292206002015460ff1615151415613bee57805160009081526004602081815260408084208286015185529091528083206003015481517f9201de55000000000000000000000000000000000000000000000000000000008152928301525173__IceFMS________________________________92639201de559260248082019391829003018186803b158015613b5e57600080fd5b505af4158015613b72573d6000803e3d6000fd5b505050506040513d6000823e601f3d908101601f191682016040526020811015613b9b57600080fd5b810190808051640100000000811115613bb357600080fd5b82016020810184811115613bc657600080fd5b8151640100000000811182820187101715613be057600080fd5b50909650613c9a9350505050565b805160009081526007602090815260408083208285015184528252918290206002908101805484516001821615610100026000190190911692909204601f810184900484028301840190945283825290929091830182828015613c925780601f10613c6757610100808354040283529160200191613c92565b820191906000526020600020905b815481529060010190602001808311613c7557829003601f168201915b505050505092505b50505b613cdc816040805190810160405280600181526020017f7c000000000000000000000000000000000000000000000000000000000000008152506150b3565b9050613ce884826150b3565b935060019092019161ffff8084169089161480613d3057508461ffff841660148110613d1057fe5b60200201518561ffff60001986011660148110613d2957fe5b6020020151145b15613d3a57600191505b506137f4565b5050965096945050505050565b60126020526000908152604090205481565b6019546040805160e060020a6305c62c2f0281523360048201529051600092600160a060020a0316916305c62c2f916024808301926020929190829003018186803b158015613dad57600080fd5b505afa158015613dc1573d6000803e3d6000fd5b505050506040513d6020811015613dd757600080fd5b505160008181526003602052604080822081517fb152badc0000000000000000000000000000000000000000000000000000000081526004810191909152905192935073__IceGlobal_____________________________9263b152badc92602480840193919291829003018186803b158015613e5357600080fd5b505af4158015613e67573d6000803e3d6000fd5b5050506000828152600360205260409020805461ff00191661010017905550613e8e61534a565b613e96614e22565b60008381526009602090815260408083205484519285015182517fd6238b5a000000000000000000000000000000000000000000000000000000008152600481018690526024810194909452604484015260648301879052600181016084840181905260a4840185905260c4840185905260e48401859052915194955093909273__IceGlobal_____________________________9263d6238b5a926101048083019392829003018186803b158015613f4e57600080fd5b505af4158015613f62573d6000803e3d6000fd5b50506040805160608101825286815260208082018a815260008385018190528a815260078352848120888252835293909320825180518255820151600182015592518051929550929350613fbd9260028501929101906153cf565b506040918201516004918201556000868152600860209081528382208280528082528483206001015485517f09da9d57000000000000000000000000000000000000000000000000000000008152948501919091526024840152604483018690526064830191909152915173__IceSort_______________________________926309da9d579260848082019391829003018186803b15801561405f57600080fd5b505af4158015614073573d6000803e3d6000fd5b505050506040513d602081101561408957600080fd5b50516000858152600960209081526040808320939093558251878152808201859052606093810184815289519482019490945288517fa5edfd2fddc5d31cfe8722fdf90ee7cbc852fb72f5d008e4672cd2d8d365d4cc94899487948c94936080850192918601918190849084905b8381101561410f5781810151838201526020016140f7565b50505050905090810190601f16801561413c5780820380516001836020036101000a031916815260200191505b5094505050505060405180910390a15050506000908152600360205260409020805461ff001916905550565b600b60209081526000928352604080842090915290825290208054600182015460028301546003909301549192909160ff1684565b6141db6040805190810160405280600881526020017f412e496d61676573000000000000000000000000000000000000000000000000815250613d5f565b6142196040805190810160405280600881526020017f422e4d6f76696573000000000000000000000000000000000000000000000000815250613d5f565b6142576040805190810160405280600881526020017f432e43727970746f000000000000000000000000000000000000000000000000815250613d5f565b6142956040805190810160405280600881526020017f442e4f7468657273000000000000000000000000000000000000000000000000815250613d5f565b6142d36040805190810160405280600f81526020017f452e41646f6265436f6e74726163740000000000000000000000000000000000815250613d5f565b6144926000600160408051908101604052806004815260200160e460020a63030783030281525073__IceFMS________________________________63cfb519286040518163ffffffff1660e060020a0281526004018080602001828103825260098152602001807f696e6465782e6a7067000000000000000000000000000000000000000000000081525060200191505060206040518083038186803b15801561437d57600080fd5b505af4158015614391573d6000803e3d6000fd5b505050506040513d60208110156143a757600080fd5b50516040805160e360020a6319f6a3250281526020600482018190526024808301527f516d54656357666d76767350645a587559724c67435471526a3959674269415560448301527f33333273000000000000000000000000000000000000000000000000000000006064830152915173__IceFMS________________________________9263cfb519289260848082019391829003018186803b15801561444e57600080fd5b505af4158015614462573d6000803e3d6000fd5b505050506040513d602081101561447857600080fd5b505160e460020a6303078303026002600360008080612b5e565b61460e6000600160408051908101604052806004815260200160e460020a63030783030281525073__IceFMS________________________________63cfb519286040518163ffffffff1660e060020a02815260040180806020018281038252600a8152602001807f66616d696c792e7064660000000000000000000000000000000000000000000081525060200191505060206040518083038186803b15801561453c57600080fd5b505af4158015614550573d6000803e3d6000fd5b505050506040513d602081101561456657600080fd5b50516040805160e360020a6319f6a325028152602060048201819052603260248301527f516d54656357666d76767350645a587559724c67435471526a3959674269415560448301527f333332734c345a4372396977446e7039713700000000000000000000000000006064830152915173__IceFMS________________________________9263cfb519289260848082019391829003018186803b15801561444e57600080fd5b61478a6000600160408051908101604052806004815260200160e460020a63030783030281525073__IceFMS________________________________63cfb519286040518163ffffffff1660e060020a02815260040180806020018281038252600e8152602001807f6d79706f7274726169742e6a706700000000000000000000000000000000000081525060200191505060206040518083038186803b1580156146b857600080fd5b505af41580156146cc573d6000803e3d6000fd5b505050506040513d60208110156146e257600080fd5b50516040805160e360020a6319f6a325028152602060048201819052603260248301527f4c345a4372396977446e70397137516d54656357666d76767350645a5875597260448301527f4c67435471526a395967426941553333327300000000000000000000000000006064830152915173__IceFMS________________________________9263cfb519289260848082019391829003018186803b15801561444e57600080fd5b61494b6000600160408051908101604052806004815260200160e460020a63030783030281525073__IceFMS________________________________63cfb519286040518163ffffffff1660e060020a02815260040180806020018281038252600a8152602001807f696e6465782e68746d6c0000000000000000000000000000000000000000000081525060200191505060206040518083038186803b15801561483457600080fd5b505af4158015614848573d6000803e3d6000fd5b505050506040513d602081101561485e57600080fd5b50516040805160e360020a6319f6a325028152602060048201819052603260248301527f396977446e70397137516d54656357666d76767350645a587559724c6743547160448301527f526a39596742694155333332734c345a437200000000000000000000000000006064830152915173__IceFMS________________________________9263cfb519289260848082019391829003018186803b15801561490657600080fd5b505af415801561491a573d6000803e3d6000fd5b505050506040513d602081101561493057600080fd5b505160e460020a630307830302600260036000806001612b5e565b614b0a6000600160408051908101604052806004815260200160e460020a63030783030281525073__IceFMS________________________________63cfb519286040518163ffffffff1660e060020a02815260040180806020018281038252600a8152602001807f736b696c6c732e7478740000000000000000000000000000000000000000000081525060200191505060206040518083038186803b1580156149f557600080fd5b505af4158015614a09573d6000803e3d6000fd5b505050506040513d6020811015614a1f57600080fd5b50516040805160e360020a6319f6a3250281526020600482018190526024808301527f71526a3959674269415533333273516d54656357666d76767350645a5875597260448301527f4c674354000000000000000000000000000000000000000000000000000000006064830152915173__IceFMS________________________________9263cfb519289260848082019391829003018186803b158015614ac657600080fd5b505af4158015614ada573d6000803e3d6000fd5b505050506040513d6020811015614af057600080fd5b505160e460020a6303078303026002600360008083612b5e565b565b60066020526000908152604090205481565b601854600160a060020a031681565b6019546040805160e060020a6305c62c2f0281523360048201529051600092600160a060020a0316916305c62c2f916024808301926020929190829003018186803b158015614b7b57600080fd5b505afa158015614b8f573d6000803e3d6000fd5b505050506040513d6020811015614ba557600080fd5b505160008581526020818152604080832087845290915280822081517f740757c5000000000000000000000000000000000000000000000000000000008152600481019190915260248101849052905192935073__IceGlobal_____________________________9263740757c592604480840193919291829003018186803b158015614c3157600080fd5b505af4158015614c45573d6000803e3d6000fd5b5050506000948552505060208381526040808520938552929052912060020180549115156101000261ff0019909216919091179055565b614c84615261565b60008581526008602052604090819020815160e160020a63568e008502815260048101919091526024810186905261ffff851660448201528315156064820152905173__IceSort_______________________________9163ad1c010a91608480830192610280929190829003018186803b1580156110f357600080fd5b600082815260076020908152604080832084845290915290206004015415614d8b57604080517f08c379a000000000000000000000000000000000000000000000000000000000815260206004820152600f60248201527f47726f7570206861732046696c65730000000000000000000000000000000000604482015290519081900360640190fd5b5050565b60008111614dfe57604080517f08c379a000000000000000000000000000000000000000000000000000000000815260206004820152600d60248201527f5265736572766564204974656d00000000000000000000000000000000000000604482015290519081900360640190fd5b50565b81546000908152602091825260408082206001909401548252929091522090565b614e2a61534a565b60018054600254909181011515614e5b5760018054614e4e9163ffffffff61516e16565b6001556000600255614e65565b6002805460010190555b604080518082019091529182526020820152919050565b6000614e89888886615187565b60088b015560078a015533600090815260068a0160209081526040808320859055828052600b8c0182528083208690558882528083206001015481517f09da9d57000000000000000000000000000000000000000000000000000000008152600481018b905260248101919091526044810189905260648101939093525173__IceSort_______________________________926309da9d57926084808301939192829003018186803b158015614f3f57600080fd5b505af4158015614f53573d6000803e3d6000fd5b505050506040513d6020811015614f6957600080fd5b50519998505050505050505050565b600082815260046020908152604080832084845291829052822073__IceFMS________________________________926329b1851f929186918691614fc29163ffffffff614e0116565b6000888152600560209081526040808320600780845282852060048086528487208e88528652848720909201548087529085528386208e8752600886528487209187529452828520835160e060020a63ffffffff8d16028152918201999099526024810197909752604487019590955260648601939093526084850193909352600660a485015260c484019290925260e4830193909352600d610104830152600e610124830152600f610144830152600361016483015291516101848083019392829003018186803b15801561509757600080fd5b505af41580156150ab573d6000803e3d6000fd5b505050505050565b606082826040516020018083805190602001908083835b602083106150e95780518252601f1990920191602091820191016150ca565b51815160209384036101000a600019018019909216911617905285519190930192850191508083835b602083106151315780518252601f199092019160209182019101615112565b6001836020036101000a03801982511681845116808217855250505050505090500192505050604051602081830303815290604052905092915050565b60008282018381101561518057600080fd5b9392505050565b600480840154600080805260038601602081815260408084206001015481517f09da9d5700000000000000000000000000000000000000000000000000000000815296870193909352602486019290925260448501849052606485018690529051919384939273__IceSort_______________________________926309da9d579260848082019391829003018186803b15801561522457600080fd5b505af4158015615238573d6000803e3d6000fd5b505050506040513d602081101561524e57600080fd5b5051600490960186905550929492505050565b610280604051908101604052806014906020820280388339509192915050565b828054600181600116156101000203166002900490600052602060002090601f016020900481019282601f106152ba57805485556152f6565b828001600101855582156152f657600052602060002091601f016020900482015b828111156152f65782548255916001019190600101906152db565b5061530292915061543d565b5090565b50805460018160011615610100020316600290046000825580601f1061532c5750614dfe565b601f016020900490600052602060002090810190614dfe919061543d565b604080518082019091526000808252602082015290565b828054600181600116156101000203166002900490600052602060002090601f016020900481019282601f106153a25782800160ff198235161785556152f6565b828001600101855582156152f6579182015b828111156152f65782358255916020019190600101906153b4565b828054600181600116156101000203166002900490600052602060002090601f016020900481019282601f1061541057805160ff19168380011785556152f6565b828001600101855582156152f6579182015b828111156152f6578251825591602001919060010190615422565b61545791905b808211156153025760008155600101615443565b9056fea165627a7a72305820acdba56ef577804394aae3ef39b921dd6863206f75fb494b23ec6b9c57554cd80029",
  "source": "pragma solidity ^0.5.1;\n\nimport \"./interfaces/SnowflakeInterface.sol\";\nimport \"./interfaces/IdentityRegistryInterface.sol\";\n\nimport \"./SafeMath.sol\";\n\nimport \"./IceGlobal.sol\";\nimport \"./IceSort.sol\";\n\nimport \"./IceFMSAdv.sol\";\n\nimport \"./IceFMS.sol\";\n\n/**\n * @title Ice Protocol\n * @author Harsh Rajat\n * @notice Create Protocol Less File Storage, Grouping, Hassle free Encryption / Decryption and Stamping using Snowflake\n * @dev This Contract forms File Storage / Stamping / Encryption part of Hydro Protocols\n */\ncontract Ice {\n    using SafeMath for uint;\n    \n    using IceGlobal for IceGlobal.GlobalRecord;\n    using IceGlobal for IceGlobal.ItemOwner;\n    using IceGlobal for IceGlobal.Association;\n    using IceGlobal for IceGlobal.UserMeta;\n    using IceGlobal for mapping (uint => bool);\n    using IceGlobal for mapping (uint8 => IceGlobal.ItemOwner);\n    using IceGlobal for mapping (uint => mapping (uint => IceGlobal.Association));\n    \n    using IceSort for mapping(uint => IceSort.SortOrder);\n    using IceSort for IceSort.SortOrder;\n    \n    using IceFMS for IceFMS.File;\n    using IceFMS for mapping (uint => IceFMS.File);\n    using IceFMS for IceFMS.Group;\n    using IceFMS for uint;\n    \n    using IceFMSAdv for mapping (uint => IceGlobal.GlobalRecord);\n    using IceFMSAdv for mapping (uint => mapping(uint => IceGlobal.GlobalRecord));\n    \n    /* ***************\n    * DEFINE ENUM\n    *************** */\n    enum NoticeType {info, warning, error}\n    \n    /* ***************\n    * DEFINE STRUCTURES\n    *************** */\n    // Done in Libraries\n     \n    /* ***************\n    * DEFINE VARIABLES\n    *************** */\n    /* for each item stored, ensure they can be retrieved publicly.\n     * globalIndex1 and globalIndex2 starts at 0 and will always increment\n     * given these indexes, any items can be retrieved.\n     */\n    mapping (uint => mapping(uint => IceGlobal.Association)) globalItems;\n    uint public globalIndex1; // store the first index of association to retrieve files\n    uint public globalIndex2; // store the first index of association to retrieve files\n\n    /* for each user (EIN), look up the Transitioon State they have\n     * stored on a given index.\n     */\n    mapping (uint => IceGlobal.UserMeta) public usermeta;\n\n    /* for each user (EIN), look up the file they have\n     * stored on a given index.\n     */\n    mapping (uint => mapping(uint => IceFMS.File)) files;\n    mapping (uint => mapping(uint => IceSort.SortOrder)) public fileOrder; // Store round robin order of files\n    mapping (uint => uint) public fileCount; // store the maximum file count reached to provide looping functionality\n\n    /* for each user (EIN), look up the group they have\n     * stored on a given index. Default group 0 indicates\n     * root folder\n     */\n    mapping (uint => mapping(uint => IceFMS.Group)) groups;\n    mapping (uint => mapping(uint => IceSort.SortOrder)) public groupOrder; // Store round robin order of group\n    mapping (uint => uint) public groupCount; // store the maximum group count reached to provide looping functionality\n\n    /* for each user (EIN), look up the incoming transfer request\n     * stored on a given index.\n     */\n    mapping (uint => mapping(uint => IceGlobal.Association)) transfers;\n    mapping (uint => mapping(uint => IceSort.SortOrder)) public transferOrder; // Store round robin order of transfers\n    mapping (uint => uint) public transferIndex; // store the maximum transfer request count reached to provide looping functionality\n\n    /* for each user (EIN), look up the incoming sharing files\n     * stored on a given index.\n     */\n    mapping (uint => mapping(uint => IceGlobal.GlobalRecord)) public shares;\n    mapping (uint => mapping(uint => IceSort.SortOrder)) public shareOrder; // Store round robin order of sharing\n    mapping (uint => uint) public shareCount; // store the maximum shared items count reached to provide looping functionality\n\n    /* for each user (EIN), look up the incoming sharing files\n     * stored on a given index.\n     */\n    mapping (uint => mapping(uint => IceGlobal.GlobalRecord)) public stampings;\n    mapping (uint => mapping(uint => IceSort.SortOrder)) public stampingOrder; // Store round robin order of stamping\n    mapping (uint => uint) public stampingCount; // store the maximum file index reached to provide looping functionality\n\n    /* for each user (EIN), look up the incoming sharing files\n     * stored on a given index.\n     */\n    mapping (uint => mapping(uint => IceGlobal.GlobalRecord)) public stampingsRequest;\n    mapping (uint => mapping(uint => IceSort.SortOrder)) public stampingsRequestOrder; // Store round robin order of stamping requests\n    mapping (uint => uint) public stampingsRequestCount; // store the maximum file index reached to provide looping functionality\n\n    /* for each user (EIN), have a whitelist and blacklist\n     * association which can handle certain functions automatically.\n     */\n    mapping (uint => mapping(uint => bool)) public whitelist;\n    mapping (uint => mapping(uint => bool)) public blacklist;\n\n    /* for referencing SnowFlake for Identity Registry (ERC-1484).\n     */\n    SnowflakeInterface public snowflake;\n    IdentityRegistryInterface public identityRegistry;\n\n    /* ***************\n    * DEFINE EVENTS\n    *************** */\n    // When File is created\n    event FileCreated(\n        uint EIN,\n        uint fileIndex,\n        string fileName\n    );\n\n    // When File is renamed\n    event FileRenamed(\n        uint EIN,\n        uint fileIndex,\n        string fileName\n    );\n\n    // When File is moved\n    event FileMoved(\n        uint EIN,\n        uint fileIndex,\n        uint groupIndex,\n        uint groupFileIndex\n    );\n\n    // When File is deleted\n    event FileDeleted(\n        uint EIN,\n        uint fileIndex\n    );\n\n    // When Group is created\n    event GroupCreated(\n        uint EIN,\n        uint groupIndex,\n        string groupName\n    );\n\n    // When Group is renamed\n    event GroupRenamed(\n        uint EIN,\n        uint groupIndex,\n        string groupName\n    );\n\n    // When Group Status is changed\n    event GroupDeleted(\n        uint EIN,\n        uint groupIndex,\n        uint groupReplacedIndex\n    );\n\n    // When Transfer is initiated from owner\n    event FileTransferInitiated(\n        uint indexed EIN,\n        uint indexed transfereeEIN,\n        uint indexed fileID\n    );\n\n    // When whitelist is updated\n    event AddedToWhitelist(\n        uint EIN,\n        uint recipientEIN\n    );\n\n    event RemovedFromWhitelist(\n        uint EIN,\n        uint recipientEIN\n    );\n\n    // When blacklist is updated\n    event AddedToBlacklist(\n        uint EIN,\n        uint recipientEIN\n    );\n\n    event RemovedFromBlacklist(\n        uint EIN,\n        uint recipientEIN\n    );\n\n    // Notice Events\n    event Notice(\n        uint indexed EIN,\n        string indexed notice,\n        uint indexed statusType\n    );\n\n    /* ***************\n    * DEFINE CONSTRUCTORS AND RELATED FUNCTIONS\n    *************** */\n    // CONSTRUCTOR / FUNCTIONS\n    address snowflakeAddress = 0xcF1877AC788a303cAcbbfE21b4E8AD08139f54FA; //0xB0D5a36733886a4c5597849a05B315626aF5222E; // For local use\n    //address snowflakeAddress = 0xB0D5a36733886a4c5597849a05B315626aF5222E; //0xB0D5a36733886a4c5597849a05B315626aF5222E; // For rinkeby\n    \n    constructor (/*address snowflakeAddress*/) public {\n        snowflake = SnowflakeInterface(snowflakeAddress);\n        identityRegistry = IdentityRegistryInterface(snowflake.identityRegistryAddress());\n    }\n\n    /* ***************\n    * DEFINE CONTRACT FUNCTIONS\n    *************** */\n    // 1. GLOBAL ITEMS FUNCTIONS\n    /**\n     * @dev Function to get global items\n     * @param _index1 is the first index of item\n     * @param _index2 is the second index of item\n     * @return ownerEIN is the EIN of the user who owns the item\n     * itemRecord is the record of that item in relation to the individual user\n     * isFile indicates if the item is file or group\n     * isHidden indicates if the item is hidder or visible\n     * deleted indicates if the item is already deleted from the individual user perspective\n     * sharedToCount is the count of sharing the item has\n     * pendingStampingCount is the count of pending stamping requests\n     */\n    function getGlobalItems(\n        uint _index1, \n        uint _index2\n    )\n    external view\n    returns (\n        uint ownerEIN, \n        uint itemRecord, \n        bool isFile, \n        bool isHidden, \n        bool deleted, \n        uint8 sharedToCount, \n        uint8 pendingStampingCount\n    ) {\n        ownerEIN = globalItems[_index1][_index2].ownerInfo.EIN;\n        itemRecord = globalItems[_index1][_index2].ownerInfo.index;\n\n        isFile = globalItems[_index1][_index2].isFile;\n        isHidden = globalItems[_index1][_index2].isHidden;\n        deleted = globalItems[_index1][_index2].deleted;\n\n        sharedToCount = globalItems[_index1][_index2].sharedToCount;\n        pendingStampingCount = globalItems[_index1][_index2].stampedToCount;\n    }\n    \n    /**\n     * @dev Function to get global items\n     * @param _index1 is the first index of item\n     * @param _index2 is the second index of item\n     * @param _isHidden is the flag to hide that item or not \n     */\n    function hideGlobalItem(\n        uint _index1, \n        uint _index2, \n        bool _isHidden\n    ) \n    external {\n        // Get user EIN\n        uint ein = identityRegistry.getEIN(msg.sender);\n        \n        // Check Restrictions\n        globalItems[_index1][_index2].condItemOwner(ein);\n        \n        // Logic\n        globalItems[_index1][_index2].isHidden = _isHidden;\n    }\n\n    /**\n     * @dev Function to get info of mapping to user for a specific global item\n     * @param _index1 is the first index of global item\n     * @param _index2 is the second index of global item\n     * @param _ofType indicates the type. 0 - shares, 1 - stampings\n     * @param _mappedIndex is the index\n     * @return mappedToEIN is the user (EIN)\n     * @return atIndex is the specific index in question\n     */\n    function getGlobalItemsMapping(\n        uint _index1, \n        uint _index2, \n        uint8 _ofType, \n        uint8 _mappedIndex\n    )\n    external view\n    returns (\n        uint mappedToEIN, \n        uint atIndex\n    ) {\n        IceGlobal.ItemOwner memory _mappedItem;\n\n        // Allocalte based on type.\n        if (_ofType == uint8(IceGlobal.AsscProp.sharedTo)) {\n            _mappedItem = globalItems[_index1][_index2].sharedTo[_mappedIndex];\n        }\n        else if (_ofType == uint8(IceGlobal.AsscProp.stampedTo)) {\n            _mappedItem = globalItems[_index1][_index2].stampedTo[_mappedIndex];\n        }\n\n        mappedToEIN = _mappedItem.EIN;\n        atIndex = _mappedItem.index;\n    }\n    \n    /**\n     * @dev Private Function to reserve global item slot\n     * @return i1 The reserved first index of global item\n     * @return i2 The reserved second index of global item\n     */\n    function _reserveGlobalItemSlot() \n    internal \n    returns (\n        IceGlobal.GlobalRecord memory rec\n    ){\n        // Increment global Item, this starts from 0, 0\n        uint i1 = globalIndex1;\n        uint i2 = globalIndex2;\n        \n        if ((i2 + 1) == 0) {\n            // This is loopback, Increment newIndex1\n            globalIndex1 = globalIndex1.add(1);\n            globalIndex2 = 0;\n        }\n        else {\n             globalIndex2 = globalIndex2 + 1;\n        }\n        \n        rec = IceGlobal.GlobalRecord(i1, i2);\n    }\n\n    // 2. FILE FUNCTIONS\n    /**\n     * @dev Function to get the desired amount of files indexes (max 20 at times) of an EIN, the 0 indicates \n     * @param _ein is the EIN of the user\n     * @param _seedPointer is the seed of the order from which it should begin\n     * @param _limit is the limit of file indexes requested\n     * @param _asc is the order by which the files will be presented\n     * @return fileIndexes is the array of file indexes for the specified users\n     */\n    function getFileIndexes(\n        uint _ein, \n        uint _seedPointer,\n        uint16 _limit, \n        bool _asc\n    )\n    external view\n    returns (uint[20] memory fileIndexes) {\n        fileIndexes = fileOrder[_ein].getIndexes(_seedPointer, _limit, _asc);\n    }\n\n    /**\n     * @dev Function to get file info of an EIN\n     * @param _ein is the owner EIN\n     * @param _fileIndex is index of the file\n     * @return protocol is the protocol used for storing that file (for example: 1 is IPFS, etc, etc). Used to fetch file from JS Library\n     * @return protocolMeta contains the additional essential infomation about the protocol if any\n     * @return name is the name of the file along with the extension\n     * @return hash1 is the \n     * \n     */\n    function getFileInfo(\n        uint _ein, \n        uint _fileIndex\n    )\n    external view \n    returns (\n        uint8 protocol, \n        bytes memory protocolMeta, \n        string memory fileName, \n        bytes32 fileHash, \n        bytes22 hashExtraInfo,\n        uint8 hashFunction,\n        uint8 hashSize,\n        bool encryptedStatus\n    ) {\n        // Logic\n        (protocol, protocolMeta, fileName, fileHash, hashExtraInfo, hashFunction, hashSize, encryptedStatus) = files[_ein][_fileIndex].getFileInfo();\n    }\n    \n    /**\n     * @dev Function to get file info of an EIN\n     * @param _ein is the owner EIN\n     * @param _fileIndex is index of the file\n     */\n    function getFileOtherInfo(uint _ein, uint _fileIndex)\n    external view\n    returns (uint32 timestamp, uint associatedGroupIndex, uint associatedGroupFileIndex) {\n        // Logic\n        (timestamp, associatedGroupIndex, associatedGroupFileIndex) = files[_ein][_fileIndex].getFileOtherInfo();\n    }\n\n    /**\n     * @dev Function to get file tranfer info of an EIN\n     * @param _ein is the owner EIN\n     * @param _fileIndex is index of the file\n     */\n    function getFileTransferInfo(uint _ein, uint _fileIndex)\n    external view\n    returns (uint transCount, uint transEIN, uint transIndex, bool forTrans) {\n        // Logic\n        (transCount, transEIN, transIndex, forTrans) = files[_ein][_fileIndex].getFileTransferInfo();\n    }\n\n    /**\n     * @dev Function to get file tranfer owner info of an EIN\n     * @param _ein is the owner EIN\n     * @param _fileIndex is index of the file\n     * @param _transferIndex is index to poll\n     */\n    function getFileTransferOwners(uint _ein, uint _fileIndex, uint _transferIndex)\n    external view\n    returns (uint recipientEIN) {\n        recipientEIN = files[_ein][_fileIndex].getFileTransferOwners(_transferIndex);\n    }\n\n    // /**\n    //  * @dev Function to add File\n    //  * @param _protocol is the protocol used\n    //  * @param _protocolMeta is the metadata used by the protocol if any\n    //  * @param _name is the name of the file\n    //  * @param _hash1 is the first split hash of the stored file\n    //  * @param _hash2 is the second split hash of the stored file\n    //  * @param _encrypted defines if the file is encrypted or not\n    //  * @param _encryptedHash defines the encrypted public key password for the sender address\n    //  * @param _groupIndex defines the index of the group of file\n    //  */\n    function addFile(\n        uint8 _op, \n        uint8 _protocol, \n        bytes memory _protocolMeta, \n        bytes32 _name, \n        bytes32 _hash,\n        bytes22 _hashExtraInfo,\n        uint8 _hashFunction,\n        uint8 _hashSize,\n        bool _encrypted, \n        bytes32 _encryptedHash, \n        uint _groupIndex\n    )\n    public {\n        // Get user EIN\n        uint ein = identityRegistry.getEIN(msg.sender);\n        \n        // Check constraints\n        _groupIndex.condValidItem(groupCount[ein]);\n        usermeta[ein].condFilesOpFree();\n        usermeta[ein].condGroupsOpFree();\n        \n        // Set File & Group Atomicity\n        usermeta[ein].lockFiles = true;\n        usermeta[ein].lockGroups = true;\n\n        // To fill with global index if need be\n        IceGlobal.GlobalRecord memory rec;\n        \n        // Create File\n        uint nextIndex;\n            \n        // OP 0 - Normal | 1 - Avatar\n        if (_op == 0) {\n            // Reserve Global Index\n            rec = _reserveGlobalItemSlot();\n        \n            // Create File Next Index\n            nextIndex = fileCount[ein] + 1;\n            \n            // Add to globalItems\n            globalItems.addItemToGlobalItems(rec.i1, rec.i2, ein, nextIndex, true, false, false);\n        }\n        \n        // Finally create the file object (EIN)\n        files[ein][nextIndex].createFileObject(\n            _protocolMeta,\n            \n            _groupIndex, \n            groups[ein][_groupIndex].groupFilesCount\n        );\n        \n        // Assign global item record \n        files[ein][nextIndex].rec = rec;\n        \n        // Also create meta object\n        files[ein][nextIndex].createFileMetaObject(\n            _protocol,\n            _name,\n            _hash,\n            _hashExtraInfo,\n            _hashFunction,\n            _hashSize,\n            _encrypted\n        );\n        \n        // OP 0 - Normal | 1 - Avatar\n        if (_op == 0) {\n            fileCount[ein] = files[ein][nextIndex].writeFile(\n                groups[ein][_groupIndex], \n                _groupIndex, \n                fileOrder[ein], \n                fileCount[ein], \n                nextIndex, \n                ein, \n                _encryptedHash\n            );\n        }\n        else if (_op == 1) {\n            usermeta[ein].hasAvatar = true;\n        }\n        \n        // Trigger Event\n        emit FileCreated(ein, nextIndex, IceFMS.bytes32ToString(_name));\n\n        // Reset Files & Group Atomicity\n        usermeta[ein].lockFiles = false;\n        usermeta[ein].lockGroups = false;\n    }\n\n    // /**\n    //  * @dev Function to change File Name\n    //  * @param _fileIndex is the index where file is stored\n    //  * @param _name is the name of stored file\n    //  */\n    function changeFileName(\n        uint _fileIndex, \n        bytes32 _name\n    )\n    external {\n        // Get user EIN\n        uint ein = identityRegistry.getEIN(msg.sender);\n\n        // Logic\n        files[ein][_fileIndex].fileMeta.name = _name;\n\n        // Trigger Event\n        emit FileRenamed(ein, _fileIndex, IceFMS.bytes32ToString(_name));\n    }\n\n    // /**\n    //  * @dev Function to move file to another group\n    //  * @param _fileIndex is the index where file is stored\n    //  * @param _newGroupIndex is the index of the new group where file has to be moved\n    //  */\n    function moveFileToGroup(\n        uint _fileIndex, \n        uint _newGroupIndex\n    )\n    external {\n        // Get user EIN\n        uint ein = identityRegistry.getEIN(msg.sender);\n\n        // Logic\n        uint groupFileIndex = files[ein][_fileIndex].moveFileToGroup(_fileIndex, groups[ein], groupOrder[ein], _newGroupIndex, globalItems, usermeta[ein]);\n\n        // Trigger Event\n        emit FileMoved(ein, _fileIndex, _newGroupIndex, groupFileIndex);\n    }\n\n    // /**\n    //  * @dev Function to delete file of the owner\n    //  * @param _fileIndex is the index where file is stored\n    //  */\n    function deleteFile(uint _fileIndex)\n    external {\n        // Get user EIN\n        uint ein = identityRegistry.getEIN(msg.sender);\n\n        // Delegate the call\n        _deleteFileAnyOwner(ein, _fileIndex);\n        \n        // Trigger Event\n        emit FileDeleted(ein, _fileIndex);\n    }\n\n    // /**\n    //  * @dev Function to delete file of any EIN\n    //  * @param _ein is the owner EIN\n    //  * @param _fileIndex is the index where file is stored\n    //  */\n    function _deleteFileAnyOwner(\n        uint _ein, \n        uint _fileIndex\n    )\n    internal {\n        // Logic\n        // files[_ein].deleteFile(\n        //     _ein, \n        //     _fileIndex, \n        //     fileOrder[_ein], \n        //     fileCount, \n        //     groups[_ein][files[_ein][_fileIndex].associatedGroupIndex], \n        //     groupOrder[_ein][files[_ein][_fileIndex].associatedGroupIndex],\n        //     shares,\n        //     shareOrder,\n        //     shareCount,\n        //     usermeta,\n        //     globalItems\n        // );\n        \n        files[_ein].deleteFile(\n            _ein,\n            _fileIndex,\n            files[_ein][_fileIndex].rec.getGlobalItemViaRecord(globalItems),\n            \n            fileOrder[_ein],\n            fileCount,\n            groups[_ein][files[_ein][_fileIndex].associatedGroupIndex],\n            groupOrder[_ein][files[_ein][_fileIndex].associatedGroupIndex],\n            \n            shares,\n            shareOrder,\n            shareCount,\n            \n            usermeta\n        );\n        \n        // // Check Restrictions\n        // IceFMS.condValidItem(_fileIndex, fileCount[_ein]);\n        // groupOrder[_ein][files[_ein][_fileIndex].associatedGroupIndex].condValidSortOrder(files[_ein][_fileIndex].associatedGroupFileIndex);\n\n        // // Get current Index, Stich check previous index so not required to recheck\n        // uint currentIndex = fileCount[_ein];\n\n        // // Remove item from sharing of other users\n        // //temp _removeAllShares(files[_ein][_fileIndex].rec);\n        \n        // // Deactivate From Global Items\n        // IceGlobal.Association storage globalItem = files[_ein][_fileIndex].rec.getGlobalItemViaRecord(globalItems);\n        // globalItem.deleteGlobalRecord();\n\n        // // Remove from Group which holds the File\n        // groups[_ein][files[_ein][_fileIndex].associatedGroupIndex].removeFileFromGroup(files[_ein][_fileIndex].associatedGroupFileIndex);\n\n        // // Swap File\n        // files[_ein][_fileIndex] = files[_ein][currentIndex];\n        // fileCount[_ein] = fileOrder[_ein].stichSortOrder(_fileIndex, currentIndex, 0);\n        \n        // // Delete the latest group now\n        // delete (files[_ein][currentIndex]);\n    }\n\n    // 4. GROUP FILES FUNCTIONS\n    /**\n     * @dev Function to get all the files of an EIN associated with a group\n     * @param _ein is the owner EIN\n     * @param _groupIndex is the index where group is stored\n     * @param _seedPointer is the seed of the order from which it should begin\n     * @param _limit is the limit of file indexes requested\n     * @param _asc is the order by which the files will be presented\n     */\n    function getGroupFileIndexes(uint _ein, uint _groupIndex, uint _seedPointer, uint16 _limit, bool _asc)\n    external view\n    returns (uint[20] memory groupFileIndexes) {\n        return groups[_ein][_groupIndex].groupFilesOrder.getIndexes(_seedPointer, _limit, _asc);\n    }\n\n    // 3. GROUP FUNCTIONS\n    /**\n     * @dev Function to return group info for an EIN\n     * @param _ein the EIN of the user\n     * @param _groupIndex the index of the group\n     * @return index is the index of the group\n     * @return name is the name associated with the group\n     */\n    function getGroup(uint _ein, uint _groupIndex)\n    external view\n    returns (uint index, string memory name) {\n        // Check constraints\n        _groupIndex.condValidItem(groupCount[_ein]);\n\n        // Logic flow\n        index = _groupIndex;\n\n        if (_groupIndex == 0) {\n            name = \"Root\";\n        }\n        else {\n            name = groups[_ein][_groupIndex].name;\n        }\n    }\n\n    /**\n     * @dev Function to return group indexes used to retrieve info about group\n     * @param _ein the EIN of the user\n     * @param _seedPointer is the pointer (index) of the order mapping\n     * @param _limit is the number of indexes to return, capped at 20\n     * @param _asc is the order of group indexes in Ascending or Descending order\n     * @return groupIndexes the indexes of the groups associated with the ein in the preferred order\n     */\n    function getGroupIndexes(uint _ein, uint _seedPointer, uint16 _limit, bool _asc)\n    external view\n    returns (uint[20] memory groupIndexes) {\n        groupIndexes = groupOrder[_ein].getIndexes(_seedPointer, _limit, _asc);\n    }\n\n    /**\n     * @dev Create a new Group for the user\n     * @param _groupName describes the name of the group\n     */\n    function createGroup(string memory _groupName)\n    public {\n        // Get user EIN\n        uint ein = identityRegistry.getEIN(msg.sender);\n        \n        // Check Restrictions\n        usermeta[ein].condGroupsOpFree();\n\n        // Set Group Atomicity\n        usermeta[ein].lockGroups = true;\n\n        // Reserve Global Index\n        IceGlobal.GlobalRecord memory rec = _reserveGlobalItemSlot();\n\n        // Check if this is unitialized, if so, initialize it, reserved value of 0 is skipped as that's root\n        uint currentGroupIndex = groupCount[ein];\n        uint nextGroupIndex = currentGroupIndex + 1;\n        \n        // Add to Global Items as well\n        globalItems.addItemToGlobalItems(rec.i1, rec.i2, ein, nextGroupIndex, false, false, false);\n        \n        // Assign it to User (EIN)\n        groups[ein][nextGroupIndex] = IceFMS.Group(\n            rec, // Add Record to struct\n    \n            _groupName, //name of Group\n            0 // The group file count\n        );\n\n        // Add to Stitch Order & Increment index\n        groupCount[ein] = groupOrder[ein].addToSortOrder(groupOrder[ein][0].prev, currentGroupIndex, 0);\n\n        // Trigger Event\n        emit GroupCreated(ein, nextGroupIndex, _groupName);\n\n        // Reset Group Atomicity\n        usermeta[ein].lockGroups = false;\n    }\n\n    /**\n     * @dev Rename an existing Group for the user / ein\n     * @param _groupIndex describes the associated index of the group for the user / ein\n     * @param _groupName describes the new name of the group\n     */\n    function renameGroup(uint _groupIndex, string calldata _groupName)\n    external  {\n        // Get user EIN\n        uint ein = identityRegistry.getEIN(msg.sender);\n\n        // Check Restrictions\n        _isNonReservedItem(_groupIndex);\n        _groupIndex.condValidItem(groupCount[ein]);\n\n        // Replace the group name\n        groups[ein][_groupIndex].name = _groupName;\n\n        // Trigger Event\n        emit GroupRenamed(ein, _groupIndex, _groupName);\n    }\n\n    /**\n     * @dev Delete an existing group for the user / ein\n     * @param _groupIndex describes the associated index of the group for the user / ein\n     */\n    function deleteGroup(uint _groupIndex)\n    external {\n        // Get user EIN\n        uint ein = identityRegistry.getEIN(msg.sender);\n\n        // Check Restrictions\n        _isGroupFileFree(ein, _groupIndex); // Check that Group contains no Files\n        _isNonReservedItem(_groupIndex);\n        _groupIndex.condValidItem(groupCount[ein]);\n        usermeta[ein].condGroupsOpFree();\n\n        // Set Group Atomicity\n        usermeta[ein].lockGroups = true;\n\n        // Check if the group exists or not\n        uint currentGroupIndex = groupCount[ein];\n\n        // Remove item from sharing of other users\n        IceGlobal.Association storage globalItem = groups[ein][_groupIndex].rec.getGlobalItemViaRecord(globalItems);\n        shares.removeAllShares(\n            ein,\n            globalItem, \n            shareOrder, \n            shareCount, \n            usermeta\n        );\n        \n        // Deactivate from global record\n        globalItem.deleteGlobalRecord();\n\n        // Swap Index mapping & remap the latest group ID if this is not the last group\n        groups[ein][_groupIndex] = groups[ein][currentGroupIndex];\n        groupCount[ein] = groupOrder[ein].stichSortOrder(_groupIndex, currentGroupIndex, 0);\n\n        // Delete the latest group now\n        delete (groups[ein][currentGroupIndex]);\n\n        // Trigger Event\n        emit GroupDeleted(ein, _groupIndex, currentGroupIndex);\n\n        // Reset Group Atomicity\n        usermeta[ein].lockGroups = false;\n    }\n\n    // 4. SHARING FUNCTIONS\n    /**\n     * @dev Function to share an item to other users, always called by owner of the Item\n     * @param _toEINs are the array of EINs which the item should be shared to\n     * @param _itemIndex is the index of the item to be shared to\n     * @param _isFile indicates if the item is file or group\n     */\n    function shareItemToEINs(uint[] calldata _toEINs, uint _itemIndex, bool _isFile)\n    external {\n        // Get user EIN\n        uint ein = identityRegistry.getEIN(msg.sender);\n        \n        // Check if item is file or group and accordingly check if Item is valid & Logic\n        if (_isFile == true) { \n            _itemIndex.condValidItem(fileCount[ein]);\n            shares.shareItemToEINs(globalItems, shareOrder, shareCount, usermeta, blacklist, files[ein][_itemIndex].rec, ein, _toEINs);\n        }\n        else {\n            _itemIndex.condValidItem(groupCount[ein]);\n            shares.shareItemToEINs(globalItems, shareOrder, shareCount, usermeta, blacklist, groups[ein][_itemIndex].rec, ein, _toEINs);\n        }\n    }\n\n    /**\n     * @dev Function to remove a shared item from the multiple user's mapping, always called by owner of the Item\n     * @param _fromEINs are the EINs to which the item should be removed from sharing\n     * @param _itemIndex is the index of the item on the owner's mapping\n     * @param _isFile indicates if the item is file or group \n     */\n    function removeShareFromEINs(uint[32] memory _fromEINs, uint _itemIndex, bool _isFile)\n    public {\n        // Get user EIN\n        uint ein = identityRegistry.getEIN(msg.sender);\n\n        // Check if item is file or group and accordingly check if Item is valid & Logic\n        IceGlobal.GlobalRecord memory rec;\n        if (_isFile == true) { \n            _itemIndex.condValidItem(fileCount[ein]);\n            rec = files[ein][_itemIndex].rec;\n        }\n        else {\n            _itemIndex.condValidItem(groupCount[ein]);\n            rec = files[ein][_itemIndex].rec;\n        }\n        \n        shares.removeShareFromEINs(\n            ein, \n            _fromEINs,\n            globalItems[rec.i1][rec.i2], \n            shareOrder, \n            shareCount, \n            usermeta\n        );\n    }\n    \n    \n    /**\n     * @dev Function to remove shared item by the user to whom the item is shared\n     * @param _itemIndex is the index of the item in shares\n     */\n    function removeSharingItemBySharee(uint _itemIndex) \n    external {\n        // Logic\n        uint shareeEIN = identityRegistry.getEIN(msg.sender);\n        IceGlobal.Association storage globalItem = shares[shareeEIN][_itemIndex].getGlobalItemViaRecord(globalItems);\n        \n        shares[shareeEIN].removeSharingItemBySharee( \n            shareeEIN,\n            globalItem, \n            shareOrder[shareeEIN], \n            shareCount, \n            usermeta[shareeEIN]\n        );\n    }\n    \n    // 5. STAMPING FUNCTIONS\n    \n    // // 6. TRANSFER FILE FUNCTIONS\n    // /**\n    //  * @dev Function to intiate file transfer to another EIN(user)\n    //  * @param _fileIndex is the index of file for the original user's EIN\n    //  * @param _transfereeEIN is the recipient user's EIN\n    //  */\n    // function initiateFileTransfer(uint _fileIndex, uint _transfereeEIN)\n    // external {\n    //     // Get user EIN\n    //     uint ein = identityRegistry.getEIN(msg.sender);\n\n    //     // Check Restrictions\n    //     _isValidEIN(_transfereeEIN); // Check Valid EIN\n    //     IceGlobal.condUniqueEIN(ein, _transfereeEIN); // Check EINs and Unique\n    //     // Do later _isUnstampedItem(files[ein][_fileIndex].rec); // Check if the File is not stamped\n    //     // Do later _isUnstampedItem(groups[ein][files[ein][_fileIndex].associatedGroupIndex].rec); // Check if the Group is not stamped\n    //     blacklist[_transfereeEIN].condNotInList(ein); // Check if The transfee hasn't blacklisted the file owner\n    //     usermeta[ein].condTransfersOpFree(); // Check if Transfers are not locked for current user\n    //     usermeta[_transfereeEIN].condTransfersOpFree(); // Check if the transfers are not locked for recipient user\n\n    //     // Set Transfers Atomiticy\n    //     usermeta[ein].lockTransfers = true;\n    //     usermeta[_transfereeEIN].lockTransfers = true;\n\n    //     // Check and change flow if white listed\n    //     if (whitelist[_transfereeEIN][ein] == true) {\n    //         // Directly transfer file, 0 is always root group\n    //         _doFileTransfer(ein, _fileIndex, _transfereeEIN, 0);\n    //     }\n    //     else {\n    //       // Request based file Transfers\n    //       _initiateRequestedFileTransfer(ein, _fileIndex, _transfereeEIN);\n    //     }\n\n    //     // Reset Transfers Atomiticy\n    //     usermeta[ein].lockTransfers = false;\n    //     usermeta[_transfereeEIN].lockTransfers = false;\n    // }\n\n    // /**\n    //  * @dev Function to accept file transfer from a user\n    //  * @param _transfererEIN is the previous(current) owner EIN\n    //  * @param _fileIndex is the index where file is stored\n    //  * @param _transferSpecificIndex is the file mapping stored no the recipient transfers mapping\n    //  * @param _groupIndex is the index of the group where the file is suppose to be for the recipient\n    //  */\n    // function acceptFileTransfer(uint _transfererEIN, uint _fileIndex, uint _transferSpecificIndex, uint _groupIndex)\n    // external {\n    //     // Get user EIN | Transferee initiates this\n    //     uint ein = identityRegistry.getEIN(msg.sender);\n\n    //     // Check Restrictions\n    //     _isMarkedForTransferee(_transfererEIN, _fileIndex, ein); // Check if the file is marked for transfer to the recipient\n    //     usermeta[_transfererEIN].condTransfersOpFree(); // Check that the transfers are not locked for the sender of the file\n    //     usermeta[ein].condTransfersOpFree(); // Check that the transfers are not locked for the recipient of the file\n\n    //     // Set Transfers Atomiticy\n    //     usermeta[_transfererEIN].lockTransfers = true;\n    //     usermeta[ein].lockTransfers = true;\n\n    //     // Check if the item is marked for transfer\n    //     require (\n    //         (files[_transfererEIN][_fileIndex].markedForTransfer == true),\n    //         \"Can't proceed, item is not marked for Transfer.\"\n    //     );\n\n    //     // Do file transfer\n    //     _doFileTransfer(_transfererEIN, _fileIndex, ein, _groupIndex);\n\n    //     // Finally remove the file from Tranferee Mapping\n    //     _removeFileFromTransfereeMapping(ein, _transferSpecificIndex);\n\n    //     // Reset Transfers Atomiticy\n    //     usermeta[_transfererEIN].lockTransfers = false;\n    //     usermeta[ein].lockTransfers = false;\n    // }\n\n    // /**\n    //  * @dev Function to cancel file transfer inititated by the current owner\n    //  * @param _fileIndex is the index where file is stored\n    //  * @param _transfereeEIN is the EIN of the user to whom the file needs to be transferred\n    //  */\n    // function cancelFileTransfer(uint _fileIndex, uint _transfereeEIN)\n    // external {\n    //     // Get user EIN | Transferee initiates this\n    //     uint ein = identityRegistry.getEIN(msg.sender);\n\n    //     // Check Restrictions\n    //     usermeta[_transfereeEIN].condTransfersOpFree(); \n    //     usermeta[ein].condTransfersOpFree();\n\n    //     // Set Transfers Atomiticy\n    //     usermeta[ein].lockTransfers = true;\n    //     usermeta[_transfereeEIN].lockTransfers = true;\n\n    //     // Check if the item is marked for transfer\n    //     require (\n    //         (files[ein][_fileIndex].markedForTransfer == true),\n    //         \"Transfer Prohibited\"\n    //     );\n\n    //     // Cancel file transfer\n    //     files[ein][_fileIndex].markedForTransfer = false;\n\n    //     // Remove file from  transferee\n    //     uint transferSpecificIndex = files[ein][_fileIndex].transferIndex;\n    //     _removeFileFromTransfereeMapping(_transfereeEIN, transferSpecificIndex);\n\n    //     // Reset Transfers Atomiticy\n    //     usermeta[ein].lockTransfers = false;\n    //     usermeta[_transfereeEIN].lockTransfers = false;\n    // }\n    \n    // /**\n    //  * @dev Private Function to initiate requested file transfer\n    //  * @param _transfererEIN is the owner EIN\n    //  * @param _fileIndex is the index where file is stored\n    //  * @param _transfereeEIN is the EIN of the user to whom the file needs to be transferred\n    //  */\n    // function _initiateRequestedFileTransfer(uint _transfererEIN, uint _fileIndex, uint _transfereeEIN)\n    // internal {\n    //      // Map it to transferee mapping of transfers\n    //     // Add to transfers of TransfereeEIN User, 0 is always reserved\n    //     uint currentTransferIndex = transferIndex[_transfereeEIN];\n    //     uint nextTransferIndex = currentTransferIndex + 1;\n\n    //     require (\n    //         (nextTransferIndex > currentTransferIndex),\n    //         \"Limit reached on number of transfers, can't transfer more files to that EIN (User) till they clear it up.\"\n    //     );\n\n    //     // Mark the file for transfer\n    //     files[_transfererEIN][_fileIndex].markedForTransfer = true;\n    //     files[_transfererEIN][_fileIndex].transferEIN = _transfereeEIN;\n    //     files[_transfereeEIN][_fileIndex].transferIndex = nextTransferIndex;\n\n    //     // Get Item Association Index\n    //     IceGlobal.Association storage globalItem = files[_transfererEIN][_fileIndex].rec.getGlobalItemViaRecord(globalItems);\n\n    //     // Check Item is file\n    //     require (\n    //         (globalItem.isFile == true),\n    //         \"Non-Transferable\"\n    //     );\n\n    //     // Create New Transfer\n    //     transfers[_transfereeEIN][nextTransferIndex] = globalItem;\n\n    //     // Update sort order and index\n    //     transferIndex[_transfereeEIN] = transferOrder[_transfererEIN].addToSortOrder(currentTransferIndex, 0);\n\n    //     // Trigger Event\n    //     emit FileTransferInitiated(_transfererEIN, _transfereeEIN, _fileIndex);\n    // }\n    \n    // /**\n    //  * @dev Private Function to do file transfer from previous (current) owner to new owner\n    //  * @param _transfererEIN is the previous(current) owner EIN\n    //  * @param _fileIndex is the index where file is stored\n    //  * @param _transfereeEIN is the EIN of the user to whom the file needs to be transferred\n    //  * @param _groupIndex is the index of the group where the file is suppose to be for the recipient\n    //  */\n    // function _doFileTransfer(uint _transfererEIN, uint _fileIndex, uint _transfereeEIN, uint _groupIndex)\n    // internal {\n    //     // Get Indexes\n    //     uint currentTransfererIndex = fileCount[_transfererEIN];\n    //     uint currentTransfereeIndex = fileCount[_transfereeEIN];\n\n    //     uint prevTransfererIndex = currentTransfererIndex - 1;\n    //     require (\n    //         (prevTransfererIndex >= 0),\n    //         \"No file found in the transferer db\"\n    //     );\n\n    //     uint nextTransfereeIndex =  currentTransfereeIndex + 1;\n    //     require (\n    //         (nextTransfereeIndex > currentTransfereeIndex),\n    //         \"Trasnferee User has run out of transfer slots.\"\n    //     );\n\n    //     // Transfer the file to the transferee & Delete it for transferer\n    //     files[_transfereeEIN][nextTransfereeIndex] = files[_transfererEIN][_fileIndex];\n    //     _deleteFileAnyOwner(_transfererEIN, _fileIndex);\n\n    //     // Change file properties and transfer history\n    //     uint8 tc = files[_transfereeEIN][nextTransfereeIndex].transferCount;\n    //     tc = tc + 1;\n    //     require (\n    //         (tc > 0),\n    //         \"Transfers Full\"\n    //     );\n\n    //     files[_transfereeEIN][nextTransfereeIndex].transferHistory[tc] = _transfereeEIN;\n    //     files[_transfereeEIN][nextTransfereeIndex].markedForTransfer = false;\n    //     files[_transfereeEIN][nextTransfereeIndex].transferCount = tc;\n\n    //     // add to transferee sort order & Increment index\n    //     fileCount[_transfereeEIN] = fileOrder[_transfereeEIN].addToSortOrder(currentTransfereeIndex, 0);\n\n    //     // Add File to transferee group\n    //     groups[_transfereeEIN][_groupIndex].addFileToGroup(_groupIndex, fileCount[_transfereeEIN]);\n\n    //     // Get global association\n    //     IceGlobal.Association storage globalItem = files[_transfereeEIN][_fileIndex].rec.getGlobalItemViaRecord(globalItems);\n\n    //     // Update global file association\n    //     globalItem.ownerInfo.EIN = _transfereeEIN;\n    //     globalItem.ownerInfo.index = nextTransfereeIndex;\n    // }\n\n    // /**\n    //  * @dev Private Function to remove file from Transfers mapping of Transferee after file is transferred to them\n    //  * @param _transfereeEIN is the new owner EIN\n    //  * @param _transferSpecificIndex is the index of the association mapping of transfers\n    //  */\n    // function _removeFileFromTransfereeMapping(uint _transfereeEIN, uint _transferSpecificIndex)\n    // internal {\n    //     // Get Cureent Transfer Index\n    //     uint currentTransferIndex = transferIndex[_transfereeEIN];\n\n    //     require (\n    //         (currentTransferIndex > 0),\n    //         \"Index Not Found\"\n    //     );\n\n    //     // Remove the file from transferer, ie swap mapping and stich sort order\n    //     transfers[_transfereeEIN][_transferSpecificIndex] = transfers[_transfereeEIN][currentTransferIndex];\n    //     transferIndex[_transfereeEIN] = transferOrder[_transfereeEIN].stichSortOrder(_transferSpecificIndex, currentTransferIndex, 0);\n\n    //     // Retrive the swapped item record and change the transferIndex to remap correctly\n    //     IceGlobal.Association memory item = transfers[_transfereeEIN][_transferSpecificIndex];\n\n    //     if (item.isFile == true) {\n    //         //Only File is supported\n    //         files[item.ownerInfo.EIN][item.ownerInfo.index].transferIndex = _transferSpecificIndex;\n    //     }\n    // }\n\n    // 7. WHITELIST / BLACKLIST FUNCTIONS\n    /**\n     * @dev Add a non-owner user to whitelist\n     * @param _nonOwnerEIN is the ein of the recipient\n     */\n    // function addToWhitelist(uint _nonOwnerEIN)\n    // external {\n    //     // Logic\n    //     uint ein = identityRegistry.getEIN(msg.sender);\n    //     whitelist[ein].addToWhitelist(_nonOwnerEIN, blacklist[ein]);\n\n    //     // Trigger Event\n    //     emit AddedToWhitelist(ein, _nonOwnerEIN);\n    // }\n\n    // /**\n    //  * @dev Remove a non-owner user from whitelist\n    //  * @param _nonOwnerEIN is the ein of the recipient\n    //  */\n    // function removeFromWhitelist(uint _nonOwnerEIN)\n    // external {\n    //     // Logic\n    //     uint ein = identityRegistry.getEIN(msg.sender);\n    //     whitelist[ein].removeFromWhitelist(_nonOwnerEIN, blacklist[ein]);\n\n    //     // Trigger Event\n    //     emit RemovedFromWhitelist(ein, _nonOwnerEIN);\n    // }\n\n    // /**\n    //  * @dev Remove a non-owner user to blacklist\n    //  * @param _nonOwnerEIN is the ein of the recipient\n    //  */\n    // function addToBlacklist(uint _nonOwnerEIN)\n    // external {\n    //     // Logic\n    //     uint ein = identityRegistry.getEIN(msg.sender);\n    //     blacklist[ein].addToBlacklist(_nonOwnerEIN, whitelist[ein]);\n\n    //     // Trigger Event\n    //     emit AddedToBlacklist(ein, _nonOwnerEIN);\n    // }\n\n    // /**\n    //  * @dev Remove a non-owner user from blacklist\n    //  * @param _nonOwnerEIN is the ein of the recipient\n    //  */\n    // function removeFromBlacklist(uint _nonOwnerEIN)\n    // external {\n    //     // Logic\n    //     uint ein = identityRegistry.getEIN(msg.sender);\n    //     blacklist[ein].removeFromBlacklist(_nonOwnerEIN, whitelist[ein]);\n\n    //     // Trigger Event\n    //     emit RemovedFromBlacklist(ein, _nonOwnerEIN);\n    // }\n\n    // *. GENERAL CONTRACT HELPERS\n    /** @dev Private Function to append two strings together\n     * @param a the first string\n     * @param b the second string\n     */\n    function _append(string memory a, string memory b)\n    internal pure\n    returns (string memory) {\n        return string(abi.encodePacked(a, b));\n    }\n\n    /* ***************\n    * DEFINE MODIFIERS AS INTERNAL VIEW FUNTIONS\n    *************** */\n    /**\n     * @dev Private Function to check that only unique EINs can have access\n     * @param _ein1 The First EIN\n     * @param _ein2 The Second EIN\n     */\n    function _isUnqEIN(uint _ein1, uint _ein2)\n    internal pure {\n        require (\n            (_ein1 != _ein2),\n            \"Same EINs\"\n        );\n    }\n    \n    /**\n     * @dev Private Function to check that a file has been marked for transferee EIN\n     * @param _fileIndex The index of the file\n     */\n    function _isMarkedForTransferee(uint _fileOwnerEIN, uint _fileIndex, uint _transfereeEIN)\n    internal view {\n        // Check if the group file exists or not\n        require (\n            (files[_fileOwnerEIN][_fileIndex].transferEIN == _transfereeEIN),\n            \"File not marked for Transfers\"\n        );\n    }\n\n    /**\n     * @dev Private Function to check that Rooot ID = 0 is not modified as this is root\n     * @param _index The index to check\n     */\n    function _isNonReservedItem(uint _index)\n    internal pure {\n        require (\n            (_index > 0),\n            \"Reserved Item\"\n        );\n    }\n\n    /**\n     * @dev Private Function to check that Group Order is valid\n     * @param _ein is the EIN of the target user\n     * @param _groupIndex The index of the group order\n     */\n    function _isGroupFileFree(uint _ein, uint _groupIndex)\n    internal view {\n        require (\n            (groups[_ein][_groupIndex].groupFilesCount == 0),\n            \"Group has Files\"\n        );\n    }\n\n    // *. FOR DEBUGGING CONTRACT\n    // To Build Groups & File System for users\n    function debugBuildFS()\n    public {\n        createGroup(\"A.Images\");\n        createGroup(\"B.Movies\");\n        createGroup(\"C.Crypto\");\n        createGroup(\"D.Others\");\n        createGroup(\"E.AdobeContract\");\n\n        // Create Files\n        // addFile(_op, _protocol, _protocolMeta, _name, _hash, _hashExtraInfo, _hashFunction, _hashSize, _encrypted, _encryptedHash, _groupIndex)\n        addFile(0, 1, bytes(\"0x00\"), IceFMS.stringToBytes32(\"index.jpg\"), IceFMS.stringToBytes32(\"QmTecWfmvvsPdZXuYrLgCTqRj9YgBiAU332s\"), bytes22(\"0x00\"), 2, 3, false, \"\", 0);\n        addFile(0, 1, bytes(\"0x00\"), IceFMS.stringToBytes32(\"family.pdf\"), IceFMS.stringToBytes32(\"QmTecWfmvvsPdZXuYrLgCTqRj9YgBiAU332sL4ZCr9iwDnp9q7\"), bytes22(\"0x00\"), 2, 3, false, \"\", 0);\n        addFile(0, 1, bytes(\"0x00\"), IceFMS.stringToBytes32(\"myportrait.jpg\"), IceFMS.stringToBytes32(\"L4ZCr9iwDnp9q7QmTecWfmvvsPdZXuYrLgCTqRj9YgBiAU332s\"), bytes22(\"0x00\"), 2, 3, false, \"\", 0);\n        addFile(0, 1, bytes(\"0x00\"), IceFMS.stringToBytes32(\"index.html\"), IceFMS.stringToBytes32(\"9iwDnp9q7QmTecWfmvvsPdZXuYrLgCTqRj9YgBiAU332sL4ZCr\"), bytes22(\"0x00\"), 2, 3, false, \"\", 1);\n        addFile(0, 1, bytes(\"0x00\"), IceFMS.stringToBytes32(\"skills.txt\"), IceFMS.stringToBytes32(\"qRj9YgBiAU332sQmTecWfmvvsPdZXuYrLgCT\"), bytes22(\"0x00\"), 2, 3, false, \"\", 2);\n   }\n\n    // Get Indexes with Names for EIN\n    // _for = 1 is Files, 2 is GroupFiles, 3 is Groups\n    function debugIndexesWithNames(uint _ein, uint _groupIndex, uint _seedPointer, uint16 _limit, bool _asc, uint8 _for)\n    external view\n    returns (uint[20] memory _indexes, string memory _names) {\n\n        if (_for == 1) {\n            _indexes = fileOrder[_ein].getIndexes(_seedPointer, _limit, _asc);\n        }\n        else if (_for == 2) {\n            _indexes = groups[_ein][_groupIndex].groupFilesOrder.getIndexes(_seedPointer, _limit, _asc);\n        }\n        else if (_for == 3) {\n            _indexes = groupOrder[_ein].getIndexes(_seedPointer, _limit, _asc);\n        }\n        else if (_for == 4) {\n            _indexes = shareOrder[_ein].getIndexes(_seedPointer, _limit, _asc);\n        }\n\n        uint16 i = 0;\n        bool completed = false;\n\n        while (completed == false) {\n            string memory name;\n\n            // Get Name\n            if (_for == 1 || _for == 2) {\n                name = IceFMS.bytes32ToString(files[_ein][_indexes[i]].fileMeta.name);\n            }\n            else if (_for == 3) {\n                name = groups[_ein][_indexes[i]].name;\n            }\n            else if (_for == 4) {\n                IceGlobal.GlobalRecord memory record = shares[_ein][_indexes[i]];\n                IceGlobal.ItemOwner memory owner = globalItems[record.i1][record.i2].ownerInfo;\n                \n                if (globalItems[record.i1][record.i2].isFile == true) {\n                    name = IceFMS.bytes32ToString(files[owner.EIN][owner.index].fileMeta.name);\n                } \n                else {\n                    name = groups[owner.EIN][owner.index].name;\n                }\n            }\n\n            // Add To Return Vars\n            name = _append(name, \"|\");\n            _names = _append(_names, name);\n\n            i++;\n\n            // check status\n            if (i == _limit || (_indexes[i-1] == _indexes[i])) {\n                completed = true;\n            }\n        }\n    }\n}\n",
  "sourcePath": "/MAMPWeb/HydroIce/HydroIceProtocol-master/contracts/Ice.sol",
  "compiler": {
    "name": "solc",
    "version": "0.5.1+commit.c8a2cb62.Emscripten.clang"
  },
  "schemaVersion": "3.0.11",
  "updatedAt": "2019-08-17T12:52:33.985Z",
  "devdoc": {
    "author": "Harsh Rajat",
    "details": "This Contract forms File Storage / Stamping / Encryption part of Hydro Protocols",
    "methods": {
      "createGroup(string)": {
        "details": "Create a new Group for the user",
        "params": {
          "_groupName": "describes the name of the group"
        }
      },
      "deleteGroup(uint256)": {
        "details": "Delete an existing group for the user / ein",
        "params": {
          "_groupIndex": "describes the associated index of the group for the user / ein"
        }
      },
      "getFileIndexes(uint256,uint256,uint16,bool)": {
        "details": "Function to get the desired amount of files indexes (max 20 at times) of an EIN, the 0 indicates ",
        "params": {
          "_asc": "is the order by which the files will be presented",
          "_ein": "is the EIN of the user",
          "_limit": "is the limit of file indexes requested",
          "_seedPointer": "is the seed of the order from which it should begin"
        },
        "return": "fileIndexes is the array of file indexes for the specified users"
      },
      "getFileInfo(uint256,uint256)": {
        "details": "Function to get file info of an EIN",
        "params": {
          "_ein": "is the owner EIN",
          "_fileIndex": "is index of the file"
        },
        "return": "protocol is the protocol used for storing that file (for example: 1 is IPFS, etc, etc). Used to fetch file from JS LibraryprotocolMeta contains the additional essential infomation about the protocol if anyname is the name of the file along with the extensionhash1 is the       "
      },
      "getFileOtherInfo(uint256,uint256)": {
        "details": "Function to get file info of an EIN",
        "params": {
          "_ein": "is the owner EIN",
          "_fileIndex": "is index of the file"
        }
      },
      "getFileTransferInfo(uint256,uint256)": {
        "details": "Function to get file tranfer info of an EIN",
        "params": {
          "_ein": "is the owner EIN",
          "_fileIndex": "is index of the file"
        }
      },
      "getFileTransferOwners(uint256,uint256,uint256)": {
        "details": "Function to get file tranfer owner info of an EIN",
        "params": {
          "_ein": "is the owner EIN",
          "_fileIndex": "is index of the file",
          "_transferIndex": "is index to poll"
        }
      },
      "getGlobalItems(uint256,uint256)": {
        "details": "Function to get global items",
        "params": {
          "_index1": "is the first index of item",
          "_index2": "is the second index of item"
        },
        "return": "ownerEIN is the EIN of the user who owns the item itemRecord is the record of that item in relation to the individual user isFile indicates if the item is file or group isHidden indicates if the item is hidder or visible deleted indicates if the item is already deleted from the individual user perspective sharedToCount is the count of sharing the item has pendingStampingCount is the count of pending stamping requests"
      },
      "getGlobalItemsMapping(uint256,uint256,uint8,uint8)": {
        "details": "Function to get info of mapping to user for a specific global item",
        "params": {
          "_index1": "is the first index of global item",
          "_index2": "is the second index of global item",
          "_mappedIndex": "is the index",
          "_ofType": "indicates the type. 0 - shares, 1 - stampings"
        },
        "return": "mappedToEIN is the user (EIN)atIndex is the specific index in question"
      },
      "getGroup(uint256,uint256)": {
        "details": "Function to return group info for an EIN",
        "params": {
          "_ein": "the EIN of the user",
          "_groupIndex": "the index of the group"
        },
        "return": "index is the index of the groupname is the name associated with the group"
      },
      "getGroupFileIndexes(uint256,uint256,uint256,uint16,bool)": {
        "details": "Function to get all the files of an EIN associated with a group",
        "params": {
          "_asc": "is the order by which the files will be presented",
          "_ein": "is the owner EIN",
          "_groupIndex": "is the index where group is stored",
          "_limit": "is the limit of file indexes requested",
          "_seedPointer": "is the seed of the order from which it should begin"
        }
      },
      "getGroupIndexes(uint256,uint256,uint16,bool)": {
        "details": "Function to return group indexes used to retrieve info about group",
        "params": {
          "_asc": "is the order of group indexes in Ascending or Descending order",
          "_ein": "the EIN of the user",
          "_limit": "is the number of indexes to return, capped at 20",
          "_seedPointer": "is the pointer (index) of the order mapping"
        },
        "return": "groupIndexes the indexes of the groups associated with the ein in the preferred order"
      },
      "hideGlobalItem(uint256,uint256,bool)": {
        "details": "Function to get global items",
        "params": {
          "_index1": "is the first index of item",
          "_index2": "is the second index of item",
          "_isHidden": "is the flag to hide that item or not "
        }
      },
      "removeShareFromEINs(uint256[32],uint256,bool)": {
        "details": "Function to remove a shared item from the multiple user's mapping, always called by owner of the Item",
        "params": {
          "_fromEINs": "are the EINs to which the item should be removed from sharing",
          "_isFile": "indicates if the item is file or group ",
          "_itemIndex": "is the index of the item on the owner's mapping"
        }
      },
      "removeSharingItemBySharee(uint256)": {
        "details": "Function to remove shared item by the user to whom the item is shared",
        "params": {
          "_itemIndex": "is the index of the item in shares"
        }
      },
      "renameGroup(uint256,string)": {
        "details": "Rename an existing Group for the user / ein",
        "params": {
          "_groupIndex": "describes the associated index of the group for the user / ein",
          "_groupName": "describes the new name of the group"
        }
      },
      "shareItemToEINs(uint256[],uint256,bool)": {
        "details": "Function to share an item to other users, always called by owner of the Item",
        "params": {
          "_isFile": "indicates if the item is file or group",
          "_itemIndex": "is the index of the item to be shared to",
          "_toEINs": "are the array of EINs which the item should be shared to"
        }
      }
    },
    "title": "Ice Protocol"
  },
  "userdoc": {
    "methods": {},
    "notice": "Create Protocol Less File Storage, Grouping, Hassle free Encryption / Decryption and Stamping using Snowflake"
  }
}