{
  "contractName": "IceProtocol",
  "abi": [
    {
      "constant": true,
      "inputs": [],
      "name": "identityRegistry",
      "outputs": [
        {
          "name": "",
          "type": "address"
        }
      ],
      "payable": false,
      "stateMutability": "view",
      "type": "function",
      "signature": "0x134e18f4"
    },
    {
      "constant": false,
      "inputs": [],
      "name": "renounceOwnership",
      "outputs": [],
      "payable": false,
      "stateMutability": "nonpayable",
      "type": "function",
      "signature": "0x715018a6"
    },
    {
      "constant": true,
      "inputs": [],
      "name": "callOnAddition",
      "outputs": [
        {
          "name": "",
          "type": "bool"
        }
      ],
      "payable": false,
      "stateMutability": "view",
      "type": "function",
      "signature": "0x71790251"
    },
    {
      "constant": true,
      "inputs": [],
      "name": "snowflakeDescription",
      "outputs": [
        {
          "name": "",
          "type": "string"
        }
      ],
      "payable": false,
      "stateMutability": "view",
      "type": "function",
      "signature": "0x76acf1b6"
    },
    {
      "constant": true,
      "inputs": [],
      "name": "snowflakeName",
      "outputs": [
        {
          "name": "",
          "type": "string"
        }
      ],
      "payable": false,
      "stateMutability": "view",
      "type": "function",
      "signature": "0x88cdab94"
    },
    {
      "constant": true,
      "inputs": [],
      "name": "owner",
      "outputs": [
        {
          "name": "",
          "type": "address"
        }
      ],
      "payable": false,
      "stateMutability": "view",
      "type": "function",
      "signature": "0x8da5cb5b"
    },
    {
      "constant": true,
      "inputs": [],
      "name": "callOnRemoval",
      "outputs": [
        {
          "name": "",
          "type": "bool"
        }
      ],
      "payable": false,
      "stateMutability": "view",
      "type": "function",
      "signature": "0x8f06492d"
    },
    {
      "constant": true,
      "inputs": [],
      "name": "isOwner",
      "outputs": [
        {
          "name": "",
          "type": "bool"
        }
      ],
      "payable": false,
      "stateMutability": "view",
      "type": "function",
      "signature": "0x8f32d59b"
    },
    {
      "constant": false,
      "inputs": [
        {
          "name": "_snowflakeAddress",
          "type": "address"
        }
      ],
      "name": "setSnowflakeAddress",
      "outputs": [],
      "payable": false,
      "stateMutability": "nonpayable",
      "type": "function",
      "signature": "0xc979b05a"
    },
    {
      "constant": false,
      "inputs": [
        {
          "name": "newOwner",
          "type": "address"
        }
      ],
      "name": "transferOwnership",
      "outputs": [],
      "payable": false,
      "stateMutability": "nonpayable",
      "type": "function",
      "signature": "0xf2fde38b"
    },
    {
      "constant": true,
      "inputs": [],
      "name": "snowflake",
      "outputs": [
        {
          "name": "",
          "type": "address"
        }
      ],
      "payable": false,
      "stateMutability": "view",
      "type": "function",
      "signature": "0xf836a353"
    },
    {
      "constant": true,
      "inputs": [],
      "name": "snowflakeAddress",
      "outputs": [
        {
          "name": "",
          "type": "address"
        }
      ],
      "payable": false,
      "stateMutability": "view",
      "type": "function",
      "signature": "0xf9f451b8"
    },
    {
      "inputs": [
        {
          "name": "snowflakeAddress",
          "type": "address"
        }
      ],
      "payable": false,
      "stateMutability": "nonpayable",
      "type": "constructor",
      "signature": "constructor"
    },
    {
      "anonymous": false,
      "inputs": [
        {
          "indexed": true,
          "name": "EIN",
          "type": "uint256"
        },
        {
          "indexed": true,
          "name": "groupID",
          "type": "uint16"
        }
      ],
      "name": "GroupCreated",
      "type": "event",
      "signature": "0x16562417569773b98bced45962ae792864e098bda92bda6b456185347e62eb67"
    },
    {
      "anonymous": false,
      "inputs": [
        {
          "indexed": true,
          "name": "EIN",
          "type": "uint256"
        },
        {
          "indexed": true,
          "name": "groupID",
          "type": "uint16"
        }
      ],
      "name": "GroupRenamed",
      "type": "event",
      "signature": "0x80527ac4a265529fe8b41f638996a1cc5d0a52d9bef8c0f4662f9833b04c2879"
    },
    {
      "anonymous": false,
      "inputs": [
        {
          "indexed": true,
          "name": "EIN",
          "type": "uint256"
        },
        {
          "indexed": true,
          "name": "groupID",
          "type": "uint16"
        }
      ],
      "name": "GroupDeleted",
      "type": "event",
      "signature": "0x5394e151fcfc2c5311c925dbe87c0adea6b9fe05a220f738ee99d1c730197506"
    },
    {
      "anonymous": false,
      "inputs": [
        {
          "indexed": true,
          "name": "EIN",
          "type": "uint256"
        },
        {
          "indexed": true,
          "name": "transfereeEIN",
          "type": "uint256"
        },
        {
          "indexed": true,
          "name": "fileID",
          "type": "uint256"
        }
      ],
      "name": "FileTransferInitiated",
      "type": "event",
      "signature": "0xbf6895715dbf24953564001b3ff975257cecfae946866daa1a1d345061a21e91"
    },
    {
      "anonymous": false,
      "inputs": [
        {
          "indexed": true,
          "name": "EIN",
          "type": "uint256"
        },
        {
          "indexed": true,
          "name": "recipientEIN",
          "type": "uint256"
        }
      ],
      "name": "AddedToWhitelist",
      "type": "event",
      "signature": "0x96f0ff7350800befa1008d2dd1bc5e8f7a3c5aadc11678d50cd7193154b50ce3"
    },
    {
      "anonymous": false,
      "inputs": [
        {
          "indexed": true,
          "name": "EIN",
          "type": "uint256"
        },
        {
          "indexed": true,
          "name": "recipientEIN",
          "type": "uint256"
        }
      ],
      "name": "RemovedFromWhitelist",
      "type": "event",
      "signature": "0x29f3bb6c612e040fa60e402db6e1cc866432046c42b69343e9a1fe5ec8a11379"
    },
    {
      "anonymous": false,
      "inputs": [
        {
          "indexed": true,
          "name": "EIN",
          "type": "uint256"
        },
        {
          "indexed": true,
          "name": "recipientEIN",
          "type": "uint256"
        }
      ],
      "name": "AddedToBlacklist",
      "type": "event",
      "signature": "0x268aa614041be848a8eec03d06abc714c936e4466e52d79c1b0073d0bd5622fd"
    },
    {
      "anonymous": false,
      "inputs": [
        {
          "indexed": true,
          "name": "EIN",
          "type": "uint256"
        },
        {
          "indexed": true,
          "name": "recipientEIN",
          "type": "uint256"
        }
      ],
      "name": "RemovedFromBlacklist",
      "type": "event",
      "signature": "0x89793498dba1e15098e92cb548b33029672ea462853d1262390204b529d888ef"
    },
    {
      "anonymous": false,
      "inputs": [
        {
          "indexed": true,
          "name": "EIN",
          "type": "uint256"
        },
        {
          "indexed": true,
          "name": "notice",
          "type": "string"
        },
        {
          "indexed": true,
          "name": "statusType",
          "type": "uint256"
        }
      ],
      "name": "Notice",
      "type": "event",
      "signature": "0x4782c490a2c9d0953054b9cd906c9e02148b631a1726ab5366aa49064b73b92c"
    },
    {
      "anonymous": false,
      "inputs": [
        {
          "indexed": true,
          "name": "previousOwner",
          "type": "address"
        },
        {
          "indexed": true,
          "name": "newOwner",
          "type": "address"
        }
      ],
      "name": "OwnershipTransferred",
      "type": "event",
      "signature": "0x8be0079c531659141344cd1fd0a4f28419497f9722a3daafe3b4186f6b6457e0"
    },
    {
      "constant": false,
      "inputs": [
        {
          "name": "_transfererEIN",
          "type": "uint256"
        },
        {
          "name": "_fileIndex",
          "type": "uint256"
        },
        {
          "name": "_transfereeEIN",
          "type": "uint256"
        }
      ],
      "name": "initiateFileTransfer",
      "outputs": [],
      "payable": false,
      "stateMutability": "nonpayable",
      "type": "function",
      "signature": "0x7a383eb5"
    },
    {
      "constant": false,
      "inputs": [
        {
          "name": "_transfererEIN",
          "type": "uint256"
        },
        {
          "name": "_fileIndex",
          "type": "uint256"
        },
        {
          "name": "_transfereeEIN",
          "type": "uint256"
        }
      ],
      "name": "acceptFileTransfer",
      "outputs": [],
      "payable": false,
      "stateMutability": "nonpayable",
      "type": "function",
      "signature": "0x2c523452"
    },
    {
      "constant": false,
      "inputs": [
        {
          "name": "",
          "type": "uint256"
        },
        {
          "name": "",
          "type": "uint256"
        },
        {
          "name": "",
          "type": "bytes"
        }
      ],
      "name": "onAddition",
      "outputs": [
        {
          "name": "",
          "type": "bool"
        }
      ],
      "payable": false,
      "stateMutability": "nonpayable",
      "type": "function",
      "signature": "0x90bfaf40"
    },
    {
      "constant": false,
      "inputs": [
        {
          "name": "",
          "type": "uint256"
        },
        {
          "name": "",
          "type": "bytes"
        }
      ],
      "name": "onRemoval",
      "outputs": [
        {
          "name": "",
          "type": "bool"
        }
      ],
      "payable": false,
      "stateMutability": "nonpayable",
      "type": "function",
      "signature": "0x9182621a"
    },
    {
      "constant": true,
      "inputs": [],
      "name": "whoEIN",
      "outputs": [
        {
          "name": "",
          "type": "uint256"
        },
        {
          "name": "",
          "type": "address"
        }
      ],
      "payable": false,
      "stateMutability": "view",
      "type": "function",
      "signature": "0x66042d2b"
    },
    {
      "constant": false,
      "inputs": [
        {
          "name": "hash",
          "type": "string"
        },
        {
          "name": "protocol",
          "type": "uint8"
        },
        {
          "name": "status",
          "type": "uint8"
        },
        {
          "name": "groupName",
          "type": "string"
        }
      ],
      "name": "addFileWithGroup",
      "outputs": [],
      "payable": false,
      "stateMutability": "nonpayable",
      "type": "function",
      "signature": "0x096ab8d6"
    },
    {
      "constant": false,
      "inputs": [
        {
          "name": "hash",
          "type": "string"
        },
        {
          "name": "protocol",
          "type": "uint8"
        },
        {
          "name": "status",
          "type": "uint8"
        },
        {
          "name": "groupID",
          "type": "uint8"
        }
      ],
      "name": "addFileToGroup",
      "outputs": [],
      "payable": false,
      "stateMutability": "nonpayable",
      "type": "function",
      "signature": "0x4df7d8c2"
    },
    {
      "constant": true,
      "inputs": [
        {
          "name": "_ein",
          "type": "uint256"
        },
        {
          "name": "_seedGroupID",
          "type": "uint16"
        }
      ],
      "name": "getGroupOrder",
      "outputs": [
        {
          "name": "prev",
          "type": "uint256"
        },
        {
          "name": "next",
          "type": "uint256"
        },
        {
          "name": "pointerID",
          "type": "uint256"
        },
        {
          "name": "active",
          "type": "bool"
        }
      ],
      "payable": false,
      "stateMutability": "view",
      "type": "function",
      "signature": "0x10333b0d"
    },
    {
      "constant": true,
      "inputs": [
        {
          "name": "_ein",
          "type": "uint256"
        },
        {
          "name": "_groupIndex",
          "type": "uint16"
        }
      ],
      "name": "getGroup",
      "outputs": [
        {
          "name": "groupID",
          "type": "uint256"
        },
        {
          "name": "groupName",
          "type": "string"
        }
      ],
      "payable": false,
      "stateMutability": "view",
      "type": "function",
      "signature": "0xbdeb3adc"
    },
    {
      "constant": true,
      "inputs": [
        {
          "name": "_ein",
          "type": "uint256"
        },
        {
          "name": "_limit",
          "type": "uint16"
        },
        {
          "name": "_seedOrder",
          "type": "uint16"
        }
      ],
      "name": "getDescendingGroupsID",
      "outputs": [
        {
          "name": "groupIDs",
          "type": "uint16[]"
        }
      ],
      "payable": false,
      "stateMutability": "view",
      "type": "function",
      "signature": "0x9fc3e5e3"
    },
    {
      "constant": false,
      "inputs": [],
      "name": "debugBuildGroupData",
      "outputs": [],
      "payable": false,
      "stateMutability": "nonpayable",
      "type": "function",
      "signature": "0x342db0e4"
    },
    {
      "constant": false,
      "inputs": [
        {
          "name": "_groupName",
          "type": "string"
        }
      ],
      "name": "createGroup",
      "outputs": [],
      "payable": false,
      "stateMutability": "nonpayable",
      "type": "function",
      "signature": "0xdc2ddcae"
    },
    {
      "constant": false,
      "inputs": [
        {
          "name": "_groupIndex",
          "type": "uint16"
        },
        {
          "name": "_groupName",
          "type": "string"
        }
      ],
      "name": "renameGroup",
      "outputs": [],
      "payable": false,
      "stateMutability": "nonpayable",
      "type": "function",
      "signature": "0xef34c885"
    },
    {
      "constant": false,
      "inputs": [
        {
          "name": "_groupIndex",
          "type": "uint16"
        }
      ],
      "name": "deleteGroup",
      "outputs": [],
      "payable": false,
      "stateMutability": "nonpayable",
      "type": "function",
      "signature": "0x09092018"
    },
    {
      "constant": true,
      "inputs": [
        {
          "name": "_forEin",
          "type": "uint256"
        },
        {
          "name": "_queryingEIN",
          "type": "uint256"
        }
      ],
      "name": "isWhitelisted",
      "outputs": [
        {
          "name": "",
          "type": "bool"
        }
      ],
      "payable": false,
      "stateMutability": "view",
      "type": "function",
      "signature": "0x51ff08b4"
    },
    {
      "constant": true,
      "inputs": [
        {
          "name": "_forEin",
          "type": "uint256"
        },
        {
          "name": "_queryingEIN",
          "type": "uint256"
        }
      ],
      "name": "isBlacklisted",
      "outputs": [
        {
          "name": "",
          "type": "bool"
        }
      ],
      "payable": false,
      "stateMutability": "view",
      "type": "function",
      "signature": "0xa40f16ed"
    },
    {
      "constant": false,
      "inputs": [
        {
          "name": "_nonOwnerEIN",
          "type": "uint256"
        }
      ],
      "name": "addToWhitelist",
      "outputs": [],
      "payable": false,
      "stateMutability": "nonpayable",
      "type": "function",
      "signature": "0x14f2c435"
    },
    {
      "constant": false,
      "inputs": [
        {
          "name": "_nonOwnerEIN",
          "type": "uint256"
        }
      ],
      "name": "removeFromWhitelist",
      "outputs": [],
      "payable": false,
      "stateMutability": "nonpayable",
      "type": "function",
      "signature": "0xf2395dc3"
    },
    {
      "constant": false,
      "inputs": [
        {
          "name": "_nonOwnerEIN",
          "type": "uint256"
        }
      ],
      "name": "addToBlacklist",
      "outputs": [],
      "payable": false,
      "stateMutability": "nonpayable",
      "type": "function",
      "signature": "0x8b762e6c"
    },
    {
      "constant": false,
      "inputs": [
        {
          "name": "_nonOwnerEIN",
          "type": "uint256"
        }
      ],
      "name": "removeFromBlacklist",
      "outputs": [],
      "payable": false,
      "stateMutability": "nonpayable",
      "type": "function",
      "signature": "0xf14b5bd6"
    }
  ],
  "bytecode": "0x60806040523480156200001157600080fd5b506040516020806200627c833981018060405260208110156200003357600080fd5b81019080805190602001909291905050506040805190810160405280600381526020017f4963650000000000000000000000000000000000000000000000000000000000815250606060405190810160405280602b81526020017f446f63756d656e74204d616e6167656d656e74202f205374616d70696e67206f81526020017f6e20536e6f77666c616b6500000000000000000000000000000000000000000081525082600080336000806101000a81548173ffffffffffffffffffffffffffffffffffffffff021916908373ffffffffffffffffffffffffffffffffffffffff1602179055506000809054906101000a900473ffffffffffffffffffffffffffffffffffffffff1673ffffffffffffffffffffffffffffffffffffffff16600073ffffffffffffffffffffffffffffffffffffffff167f8be0079c531659141344cd1fd0a4f28419497f9722a3daafe3b4186f6b6457e060405160405180910390a38460019080519060200190620001af92919062000428565b508360029080519060200190620001c892919062000428565b50620001e38362000368640100000000026401000000009004565b81600360146101000a81548160ff02191690831515021790555080600360156101000a81548160ff021916908315150217905550505050505080601560006101000a81548173ffffffffffffffffffffffffffffffffffffffff021916908373ffffffffffffffffffffffffffffffffffffffff160217905550601560009054906101000a900473ffffffffffffffffffffffffffffffffffffffff1673ffffffffffffffffffffffffffffffffffffffff1663a759ee6f6040518163ffffffff167c0100000000000000000000000000000000000000000000000000000000028152600401602060405180830381600087803b158015620002e457600080fd5b505af1158015620002f9573d6000803e3d6000fd5b505050506040513d60208110156200031057600080fd5b8101908080519060200190929190505050601660006101000a81548173ffffffffffffffffffffffffffffffffffffffff021916908373ffffffffffffffffffffffffffffffffffffffff16021790555050620004d7565b62000381620003d1640100000000026401000000009004565b15156200038d57600080fd5b80600360006101000a81548173ffffffffffffffffffffffffffffffffffffffff021916908373ffffffffffffffffffffffffffffffffffffffff16021790555050565b60008060009054906101000a900473ffffffffffffffffffffffffffffffffffffffff1673ffffffffffffffffffffffffffffffffffffffff163373ffffffffffffffffffffffffffffffffffffffff1614905090565b828054600181600116156101000203166002900490600052602060002090601f016020900481019282601f106200046b57805160ff19168380011785556200049c565b828001600101855582156200049c579182015b828111156200049b5782518255916020019190600101906200047e565b5b509050620004ab9190620004af565b5090565b620004d491905b80821115620004d0576000816000905550600101620004b6565b5090565b90565b615d9580620004e76000396000f3fe608060405260043610610196576000357c0100000000000000000000000000000000000000000000000000000000900463ffffffff168063090920181461019b578063096ab8d6146101da57806310333b0d14610353578063134e18f4146103c957806314f2c435146104205780632c5234521461045b578063342db0e4146104aa5780634df7d8c2146104c157806351ff08b4146105b057806366042d2b1461060d578063715018a61461066b578063717902511461068257806376acf1b6146106b15780637a383eb51461074157806388cdab94146107905780638b762e6c146108205780638da5cb5b1461085b5780638f06492d146108b25780638f32d59b146108e157806390bfaf40146109105780639182621a14610a045780639fc3e5e314610aee578063a40f16ed14610b9a578063bdeb3adc14610bf7578063c979b05a14610cc0578063dc2ddcae14610d11578063ef34c88514610dd9578063f14b5bd614610eaf578063f2395dc314610eea578063f2fde38b14610f25578063f836a35314610f76578063f9f451b814610fcd575b600080fd5b3480156101a757600080fd5b506101d8600480360360208110156101be57600080fd5b81019080803561ffff169060200190929190505050611024565b005b3480156101e657600080fd5b50610351600480360360808110156101fd57600080fd5b810190808035906020019064010000000081111561021a57600080fd5b82018360208201111561022c57600080fd5b8035906020019184600183028401116401000000008311171561024e57600080fd5b91908080601f016020809104026020016040519081016040528093929190818152602001838380828437600081840152601f19601f820116905080830192505050505050509192919290803560ff169060200190929190803560ff169060200190929190803590602001906401000000008111156102cb57600080fd5b8201836020820111156102dd57600080fd5b803590602001918460018302840111640100000000831117156102ff57600080fd5b91908080601f016020809104026020016040519081016040528093929190818152602001838380828437600081840152601f19601f82011690508083019250505050505050919291929050505061156c565b005b34801561035f57600080fd5b5061039a6004803603604081101561037657600080fd5b8101908080359060200190929190803561ffff16906020019092919050505061166d565b604051808581526020018481526020018381526020018215151515815260200194505050505060405180910390f35b3480156103d557600080fd5b506103de61183a565b604051808273ffffffffffffffffffffffffffffffffffffffff1673ffffffffffffffffffffffffffffffffffffffff16815260200191505060405180910390f35b34801561042c57600080fd5b506104596004803603602081101561044357600080fd5b8101908080359060200190929190505050611860565b005b34801561046757600080fd5b506104a86004803603606081101561047e57600080fd5b81019080803590602001909291908035906020019092919080359060200190929190505050611d50565b005b3480156104b657600080fd5b506104bf612257565b005b3480156104cd57600080fd5b506105ae600480360360808110156104e457600080fd5b810190808035906020019064010000000081111561050157600080fd5b82018360208201111561051357600080fd5b8035906020019184600183028401116401000000008311171561053557600080fd5b91908080601f016020809104026020016040519081016040528093929190818152602001838380828437600081840152601f19601f820116905080830192505050505050509192919290803560ff169060200190929190803560ff169060200190929190803560ff169060200190929190505050612449565b005b3480156105bc57600080fd5b506105f3600480360360408110156105d357600080fd5b81019080803590602001909291908035906020019092919050505061254a565b604051808215151515815260200191505060405180910390f35b34801561061957600080fd5b50610622612749565b604051808381526020018273ffffffffffffffffffffffffffffffffffffffff1673ffffffffffffffffffffffffffffffffffffffff1681526020019250505060405180910390f35b34801561067757600080fd5b5061068061284e565b005b34801561068e57600080fd5b50610697612920565b604051808215151515815260200191505060405180910390f35b3480156106bd57600080fd5b506106c6612933565b6040518080602001828103825283818151815260200191508051906020019080838360005b838110156107065780820151818401526020810190506106eb565b50505050905090810190601f1680156107335780820380516001836020036101000a031916815260200191505b509250505060405180910390f35b34801561074d57600080fd5b5061078e6004803603606081101561076457600080fd5b810190808035906020019092919080359060200190929190803590602001909291905050506129d1565b005b34801561079c57600080fd5b506107a56132f1565b6040518080602001828103825283818151815260200191508051906020019080838360005b838110156107e55780820151818401526020810190506107ca565b50505050905090810190601f1680156108125780820380516001836020036101000a031916815260200191505b509250505060405180910390f35b34801561082c57600080fd5b506108596004803603602081101561084357600080fd5b810190808035906020019092919050505061338f565b005b34801561086757600080fd5b5061087061387f565b604051808273ffffffffffffffffffffffffffffffffffffffff1673ffffffffffffffffffffffffffffffffffffffff16815260200191505060405180910390f35b3480156108be57600080fd5b506108c76138a8565b604051808215151515815260200191505060405180910390f35b3480156108ed57600080fd5b506108f66138bb565b604051808215151515815260200191505060405180910390f35b34801561091c57600080fd5b506109ea6004803603606081101561093357600080fd5b8101908080359060200190929190803590602001909291908035906020019064010000000081111561096457600080fd5b82018360208201111561097657600080fd5b8035906020019184600183028401116401000000008311171561099857600080fd5b91908080601f016020809104026020016040519081016040528093929190818152602001838380828437600081840152601f19601f820116905080830192505050505050509192919290505050613912565b604051808215151515815260200191505060405180910390f35b348015610a1057600080fd5b50610ad460048036036040811015610a2757600080fd5b810190808035906020019092919080359060200190640100000000811115610a4e57600080fd5b820183602082011115610a6057600080fd5b80359060200191846001830284011164010000000083111715610a8257600080fd5b91908080601f016020809104026020016040519081016040528093929190818152602001838380828437600081840152601f19601f820116905080830192505050505050509192919290505050613a0a565b604051808215151515815260200191505060405180910390f35b348015610afa57600080fd5b50610b4360048036036060811015610b1157600080fd5b8101908080359060200190929190803561ffff169060200190929190803561ffff169060200190929190505050613b01565b6040518080602001828103825283818151815260200191508051906020019060200280838360005b83811015610b86578082015181840152602081019050610b6b565b505050509050019250505060405180910390f35b348015610ba657600080fd5b50610bdd60048036036040811015610bbd57600080fd5b810190808035906020019092919080359060200190929190505050613c7d565b604051808215151515815260200191505060405180910390f35b348015610c0357600080fd5b50610c3e60048036036040811015610c1a57600080fd5b8101908080359060200190929190803561ffff169060200190929190505050613fc3565b6040518083815260200180602001828103825283818151815260200191508051906020019080838360005b83811015610c84578082015181840152602081019050610c69565b50505050905090810190601f168015610cb15780820380516001836020036101000a031916815260200191505b50935050505060405180910390f35b348015610ccc57600080fd5b50610d0f60048036036020811015610ce357600080fd5b81019080803573ffffffffffffffffffffffffffffffffffffffff169060200190929190505050614187565b005b348015610d1d57600080fd5b50610dd760048036036020811015610d3457600080fd5b8101908080359060200190640100000000811115610d5157600080fd5b820183602082011115610d6357600080fd5b80359060200191846001830284011164010000000083111715610d8557600080fd5b91908080601f016020809104026020016040519081016040528093929190818152602001838380828437600081840152601f19601f8201169050808301925050505050505091929192905050506141de565b005b348015610de557600080fd5b50610ead60048036036040811015610dfc57600080fd5b81019080803561ffff16906020019092919080359060200190640100000000811115610e2757600080fd5b820183602082011115610e3957600080fd5b80359060200191846001830284011164010000000083111715610e5b57600080fd5b91908080601f016020809104026020016040519081016040528093929190818152602001838380828437600081840152601f19601f82011690508083019250505050505050919291929050505061462f565b005b348015610ebb57600080fd5b50610ee860048036036020811015610ed257600080fd5b81019080803590602001909291905050506148cd565b005b348015610ef657600080fd5b50610f2360048036036020811015610f0d57600080fd5b8101908080359060200190929190505050614dbd565b005b348015610f3157600080fd5b50610f7460048036036020811015610f4857600080fd5b81019080803573ffffffffffffffffffffffffffffffffffffffff169060200190929190505050615445565b005b348015610f8257600080fd5b50610f8b615464565b604051808273ffffffffffffffffffffffffffffffffffffffff1673ffffffffffffffffffffffffffffffffffffffff16815260200191505060405180910390f35b348015610fd957600080fd5b50610fe261548a565b604051808273ffffffffffffffffffffffffffffffffffffffff1673ffffffffffffffffffffffffffffffffffffffff16815260200191505060405180910390f35b8060008161ffff161115156110a1576040517f08c379a00000000000000000000000000000000000000000000000000000000081526004018080602001828103825260198152602001807f43616e6e6f74206d6f6469667920726f6f742067726f75702e0000000000000081525060200191505060405180910390fd5b6000601660009054906101000a900473ffffffffffffffffffffffffffffffffffffffff1673ffffffffffffffffffffffffffffffffffffffff166305c62c2f336040518263ffffffff167c0100000000000000000000000000000000000000000000000000000000028152600401808273ffffffffffffffffffffffffffffffffffffffff1673ffffffffffffffffffffffffffffffffffffffff16815260200191505060206040518083038186803b15801561115e57600080fd5b505afa158015611172573d6000803e3d6000fd5b505050506040513d602081101561118857600080fd5b810190808051906020019092919050505090506000600c600083815260200190815260200160002060009054906101000a900461ffff1690508061ffff168461ffff1611151515611267576040517f08c379a00000000000000000000000000000000000000000000000000000000081526004018080602001828103825260268152602001807f47726f757020646f65736e277420657869737420666f7220746865205573657281526020017f202f2045494e000000000000000000000000000000000000000000000000000081525060400191505060405180910390fd5b600a600083815260200190815260200160002060008261ffff1661ffff168152602001908152602001600020600a600084815260200190815260200160002060008661ffff1661ffff1681526020019081526020016000206000820160009054906101000a900461ffff168160000160006101000a81548161ffff021916908361ffff16021790555060018201816001019080546001816001161561010002031660029004611317929190615a87565b509050506000600b600084815260200190815260200160002060008061ffff1681526020019081526020016000206001015490508461ffff16600b600085815260200190815260200160002060008361ffff1661ffff168152602001908152602001600020600201819055506000600b600085815260200190815260200160002060008761ffff1661ffff1681526020019081526020016000206001015490506000600b600086815260200190815260200160002060008861ffff1661ffff1681526020019081526020016000206000015490508061ffff16600b600087815260200190815260200160002060008461ffff1661ffff168152602001908152602001600020600001819055508161ffff16600b600087815260200190815260200160002060008361ffff1661ffff168152602001908152602001600020600101819055506000600b600087815260200190815260200160002060008961ffff1661ffff16815260200190815260200160002060030160006101000a81548160ff021916908315150217905550600a600086815260200190815260200160002060008561ffff1661ffff168152602001908152602001600020600080820160006101000a81549061ffff02191690556001820160006114f59190615b0e565b50506115306001600c600088815260200190815260200160002060009054906101000a900461ffff1661ffff166154b090919063ffffffff16565b508661ffff16857f5394e151fcfc2c5311c925dbe87c0adea6b9fe05a220f738ee99d1c73019750660405160405180910390a350505050505050565b6000601660009054906101000a900473ffffffffffffffffffffffffffffffffffffffff1673ffffffffffffffffffffffffffffffffffffffff166305c62c2f336040518263ffffffff167c0100000000000000000000000000000000000000000000000000000000028152600401808273ffffffffffffffffffffffffffffffffffffffff1673ffffffffffffffffffffffffffffffffffffffff16815260200191505060206040518083038186803b15801561162957600080fd5b505afa15801561163d573d6000803e3d6000fd5b505050506040513d602081101561165357600080fd5b810190808051906020019092919050505090505050505050565b600080600080858560008161ffff1614806116e65750600b600083815260200190815260200160002060008261ffff1661ffff16815260200190815260200160002060010154600b600084815260200190815260200160002060008361ffff1661ffff1681526020019081526020016000206000015414155b151561175a576040517f08c379a00000000000000000000000000000000000000000000000000000000081526004018080602001828103825260208152602001807f47726f7570204f7264657220496e64657820646f65736e27742065786973747381525060200191505060405180910390fd5b600b600089815260200190815260200160002060008861ffff1661ffff168152602001908152602001600020600101549550600b600089815260200190815260200160002060008861ffff1661ffff168152602001908152602001600020600001549450600b600089815260200190815260200160002060008861ffff1661ffff168152602001908152602001600020600201549350600b600089815260200190815260200160002060008861ffff1661ffff16815260200190815260200160002060030160009054906101000a900460ff169250505092959194509250565b601660009054906101000a900473ffffffffffffffffffffffffffffffffffffffff1681565b8080601660009054906101000a900473ffffffffffffffffffffffffffffffffffffffff1673ffffffffffffffffffffffffffffffffffffffff166305c62c2f336040518263ffffffff167c0100000000000000000000000000000000000000000000000000000000028152600401808273ffffffffffffffffffffffffffffffffffffffff1673ffffffffffffffffffffffffffffffffffffffff16815260200191505060206040518083038186803b15801561191d57600080fd5b505afa158015611931573d6000803e3d6000fd5b505050506040513d602081101561194757600080fd5b8101908080519060200190929190505050141515156119f4576040517f08c379a000000000000000000000000000000000000000000000000000000000815260040180806020018281038252602a8152602001807f4f6e6c7920746865204e6f6e2d4f776e6572206f662045494e2063616e20616381526020017f6365737320746869732e0000000000000000000000000000000000000000000081525060400191505060405180910390fd5b8160011515601660009054906101000a900473ffffffffffffffffffffffffffffffffffffffff1673ffffffffffffffffffffffffffffffffffffffff16635b5aed3a836040518263ffffffff167c01000000000000000000000000000000000000000000000000000000000281526004018082815260200191505060206040518083038186803b158015611a8857600080fd5b505afa158015611a9c573d6000803e3d6000fd5b505050506040513d6020811015611ab257600080fd5b81019080805190602001909291905050501515141515611b3a576040517f08c379a00000000000000000000000000000000000000000000000000000000081526004018080602001828103825260168152602001807f5468652045494e20646f65736e2774206578697374730000000000000000000081525060200191505060405180910390fd5b6000601660009054906101000a900473ffffffffffffffffffffffffffffffffffffffff1673ffffffffffffffffffffffffffffffffffffffff166305c62c2f336040518263ffffffff167c0100000000000000000000000000000000000000000000000000000000028152600401808273ffffffffffffffffffffffffffffffffffffffff1673ffffffffffffffffffffffffffffffffffffffff16815260200191505060206040518083038186803b158015611bf757600080fd5b505afa158015611c0b573d6000803e3d6000fd5b505050506040513d6020811015611c2157600080fd5b8101908080519060200190929190505050905060001515611c428286613c7d565b1515141515611cdf576040517f08c379a000000000000000000000000000000000000000000000000000000000815260040180806020018281038252603f8152602001807f45494e20697320626c61636b6c69737465642c2072656d6f76652045494e206681526020017f726f6d20626c61636b6c69737420666972737420746f2070726f636565642e0081525060400191505060405180910390fd5b600160136000838152602001908152602001600020600086815260200190815260200160002060006101000a81548160ff02191690831515021790555083817f96f0ff7350800befa1008d2dd1bc5e8f7a3c5aadc11678d50cd7193154b50ce360405160405180910390a350505050565b8080601660009054906101000a900473ffffffffffffffffffffffffffffffffffffffff1673ffffffffffffffffffffffffffffffffffffffff166305c62c2f336040518263ffffffff167c0100000000000000000000000000000000000000000000000000000000028152600401808273ffffffffffffffffffffffffffffffffffffffff1673ffffffffffffffffffffffffffffffffffffffff16815260200191505060206040518083038186803b158015611e0d57600080fd5b505afa158015611e21573d6000803e3d6000fd5b505050506040513d6020811015611e3757600080fd5b810190808051906020019092919050505014151515611ee4576040517f08c379a000000000000000000000000000000000000000000000000000000000815260040180806020018281038252602a8152602001807f4f6e6c7920746865204e6f6e2d4f776e6572206f662045494e2063616e20616381526020017f6365737320746869732e0000000000000000000000000000000000000000000081525060400191505060405180910390fd5b838360076000838152602001908152602001600020600082815260200190815260200160002060000154601660009054906101000a900473ffffffffffffffffffffffffffffffffffffffff1673ffffffffffffffffffffffffffffffffffffffff166305c62c2f336040518263ffffffff167c0100000000000000000000000000000000000000000000000000000000028152600401808273ffffffffffffffffffffffffffffffffffffffff1673ffffffffffffffffffffffffffffffffffffffff16815260200191505060206040518083038186803b158015611fc957600080fd5b505afa158015611fdd573d6000803e3d6000fd5b505050506040513d6020811015611ff357600080fd5b8101908080519060200190929190505050141515156120a0576040517f08c379a00000000000000000000000000000000000000000000000000000000081526004018080602001828103825260278152602001807f4f6e6c79204e6f6e2d4f776e6572206f662046696c652063616e20616363657381526020017f7320746869732e0000000000000000000000000000000000000000000000000081525060400191505060405180910390fd5b858560011515600760008481526020019081526020016000206000838152602001908152602001600020600c0160009054906101000a900460ff161515141515612178576040517f08c379a000000000000000000000000000000000000000000000000000000000815260040180806020018281038252602b8152602001807f43616e27742070726f636565642c2066696c65206973206d61726b656420666f81526020017f72205472616e736665722e00000000000000000000000000000000000000000081525060400191505060405180910390fd5b87878980600760008581526020019081526020016000206000848152602001908152602001600020600b015414151561223f576040517f08c379a000000000000000000000000000000000000000000000000000000000815260040180806020018281038252602f8152602001807f43616e27742070726f636565642c2066696c65206973206e6f74206d61726b6581526020017f6420666f72205472616e736665722e000000000000000000000000000000000081525060400191505060405180910390fd5b61224a8b8b8b6154d2565b5050505050505050505050565b6122956040805190810160405280600181526020017f41000000000000000000000000000000000000000000000000000000000000008152506141de565b6122d36040805190810160405280600181526020017f42000000000000000000000000000000000000000000000000000000000000008152506141de565b6123116040805190810160405280600181526020017f43000000000000000000000000000000000000000000000000000000000000008152506141de565b61234f6040805190810160405280600181526020017f44000000000000000000000000000000000000000000000000000000000000008152506141de565b61238d6040805190810160405280600181526020017f45000000000000000000000000000000000000000000000000000000000000008152506141de565b6123cb6040805190810160405280600181526020017f46000000000000000000000000000000000000000000000000000000000000008152506141de565b6124096040805190810160405280600181526020017f47000000000000000000000000000000000000000000000000000000000000008152506141de565b6124476040805190810160405280600181526020017f48000000000000000000000000000000000000000000000000000000000000008152506141de565b565b6000601660009054906101000a900473ffffffffffffffffffffffffffffffffffffffff1673ffffffffffffffffffffffffffffffffffffffff166305c62c2f336040518263ffffffff167c0100000000000000000000000000000000000000000000000000000000028152600401808273ffffffffffffffffffffffffffffffffffffffff1673ffffffffffffffffffffffffffffffffffffffff16815260200191505060206040518083038186803b15801561250657600080fd5b505afa15801561251a573d6000803e3d6000fd5b505050506040513d602081101561253057600080fd5b810190808051906020019092919050505090505050505050565b60008260011515601660009054906101000a900473ffffffffffffffffffffffffffffffffffffffff1673ffffffffffffffffffffffffffffffffffffffff16635b5aed3a836040518263ffffffff167c01000000000000000000000000000000000000000000000000000000000281526004018082815260200191505060206040518083038186803b1580156125e057600080fd5b505afa1580156125f4573d6000803e3d6000fd5b505050506040513d602081101561260a57600080fd5b81019080805190602001909291905050501515141515612692576040517f08c379a00000000000000000000000000000000000000000000000000000000081526004018080602001828103825260168152602001807f5468652045494e20646f65736e2774206578697374730000000000000000000081525060200191505060405180910390fd5b838380821415151561270c576040517f08c379a00000000000000000000000000000000000000000000000000000000081526004018080602001828103825260178152602001807f426f74682045494e7320617265207468652073616d652e00000000000000000081525060200191505060405180910390fd5b60136000878152602001908152602001600020600086815260200190815260200160002060009054906101000a900460ff16935050505092915050565b600080601660009054906101000a900473ffffffffffffffffffffffffffffffffffffffff1673ffffffffffffffffffffffffffffffffffffffff166305c62c2f336040518263ffffffff167c0100000000000000000000000000000000000000000000000000000000028152600401808273ffffffffffffffffffffffffffffffffffffffff1673ffffffffffffffffffffffffffffffffffffffff16815260200191505060206040518083038186803b15801561280757600080fd5b505afa15801561281b573d6000803e3d6000fd5b505050506040513d602081101561283157600080fd5b810190808051906020019092919050505033809050915091509091565b6128566138bb565b151561286157600080fd5b600073ffffffffffffffffffffffffffffffffffffffff166000809054906101000a900473ffffffffffffffffffffffffffffffffffffffff1673ffffffffffffffffffffffffffffffffffffffff167f8be0079c531659141344cd1fd0a4f28419497f9722a3daafe3b4186f6b6457e060405160405180910390a360008060006101000a81548173ffffffffffffffffffffffffffffffffffffffff021916908373ffffffffffffffffffffffffffffffffffffffff160217905550565b600360149054906101000a900460ff1681565b60028054600181600116156101000203166002900480601f0160208091040260200160405190810160405280929190818152602001828054600181600116156101000203166002900480156129c95780601f1061299e576101008083540402835291602001916129c9565b820191906000526020600020905b8154815290600101906020018083116129ac57829003601f168201915b505050505081565b8060011515601660009054906101000a900473ffffffffffffffffffffffffffffffffffffffff1673ffffffffffffffffffffffffffffffffffffffff16635b5aed3a836040518263ffffffff167c01000000000000000000000000000000000000000000000000000000000281526004018082815260200191505060206040518083038186803b158015612a6557600080fd5b505afa158015612a79573d6000803e3d6000fd5b505050506040513d6020811015612a8f57600080fd5b81019080805190602001909291905050501515141515612b17576040517f08c379a00000000000000000000000000000000000000000000000000000000081526004018080602001828103825260168152602001807f5468652045494e20646f65736e2774206578697374730000000000000000000081525060200191505060405180910390fd5b8380601660009054906101000a900473ffffffffffffffffffffffffffffffffffffffff1673ffffffffffffffffffffffffffffffffffffffff166305c62c2f336040518263ffffffff167c0100000000000000000000000000000000000000000000000000000000028152600401808273ffffffffffffffffffffffffffffffffffffffff1673ffffffffffffffffffffffffffffffffffffffff16815260200191505060206040518083038186803b158015612bd457600080fd5b505afa158015612be8573d6000803e3d6000fd5b505050506040513d6020811015612bfe57600080fd5b8101908080519060200190929190505050141515612caa576040517f08c379a00000000000000000000000000000000000000000000000000000000081526004018080602001828103825260268152602001807f4f6e6c7920746865204f776e6572206f662045494e2063616e2061636365737381526020017f20746869732e000000000000000000000000000000000000000000000000000081525060400191505060405180910390fd5b8483808214151515612d24576040517f08c379a00000000000000000000000000000000000000000000000000000000081526004018080602001828103825260178152602001807f426f74682045494e7320617265207468652073616d652e00000000000000000081525060200191505060405180910390fd5b856000151560076000601660009054906101000a900473ffffffffffffffffffffffffffffffffffffffff1673ffffffffffffffffffffffffffffffffffffffff166305c62c2f336040518263ffffffff167c0100000000000000000000000000000000000000000000000000000000028152600401808273ffffffffffffffffffffffffffffffffffffffff1673ffffffffffffffffffffffffffffffffffffffff16815260200191505060206040518083038186803b158015612de857600080fd5b505afa158015612dfc573d6000803e3d6000fd5b505050506040513d6020811015612e1257600080fd5b810190808051906020019092919050505081526020019081526020016000206000838152602001908152602001600020600c0160009054906101000a900460ff161515141515612ef0576040517f08c379a00000000000000000000000000000000000000000000000000000000081526004018080602001828103825260338152602001807f43616e27742070726f636565642c2066696c6520697320616c7265616479206d81526020017f61726b656420666f72205472616e736665722e0000000000000000000000000081525060400191505060405180910390fd5b866000151560076000601660009054906101000a900473ffffffffffffffffffffffffffffffffffffffff1673ffffffffffffffffffffffffffffffffffffffff166305c62c2f336040518263ffffffff167c0100000000000000000000000000000000000000000000000000000000028152600401808273ffffffffffffffffffffffffffffffffffffffff1673ffffffffffffffffffffffffffffffffffffffff16815260200191505060206040518083038186803b158015612fb457600080fd5b505afa158015612fc8573d6000803e3d6000fd5b505050506040513d6020811015612fde57600080fd5b810190808051906020019092919050505081526020019081526020016000206000838152602001908152602001600020600c0160019054906101000a900460ff1615151415156130bc576040517f08c379a00000000000000000000000000000000000000000000000000000000081526004018080602001828103825260408152602001807f43616e27742070726f636565642c2066696c65287329206d61726b656420666f81526020017f72207374616d70696e672063616e2774206265205472616e736665727265642e81525060400191505060405180910390fd5b600115156130ca888b613c7d565b1515141515613167576040517f08c379a000000000000000000000000000000000000000000000000000000000815260040180806020018281038252603e8152602001807f43616e277420696e6974696174652066696c65207472616e736665722061732081526020017f746865206f776e65722068617320626c61636b6c697374656420796f752e000081525060400191505060405180910390fd5b60011515613175888b61254a565b1515141561318d576131888989896154d2565b6132e6565b6001600760008b815260200190815260200160002060008a8152602001908152602001600020600c0160006101000a81548160ff02191690831515021790555086600760008b815260200190815260200160002060008a8152602001908152602001600020600b01819055506000600f600089815260200190815260200160002054905060408051908101604052808b81526020018a815250600d60008a81526020019081526020016000206000838152602001908152602001600020600082015181600001556020820151816001015590505080600e60008a815260200190815260200160002060008381526020019081526020016000208190555061329e60018261591e90919063ffffffff16565b600f60008a81526020019081526020016000208190555088888b7fbf6895715dbf24953564001b3ff975257cecfae946866daa1a1d345061a21e9160405160405180910390a4505b505050505050505050565b60018054600181600116156101000203166002900480601f0160208091040260200160405190810160405280929190818152602001828054600181600116156101000203166002900480156133875780601f1061335c57610100808354040283529160200191613387565b820191906000526020600020905b81548152906001019060200180831161336a57829003601f168201915b505050505081565b8080601660009054906101000a900473ffffffffffffffffffffffffffffffffffffffff1673ffffffffffffffffffffffffffffffffffffffff166305c62c2f336040518263ffffffff167c0100000000000000000000000000000000000000000000000000000000028152600401808273ffffffffffffffffffffffffffffffffffffffff1673ffffffffffffffffffffffffffffffffffffffff16815260200191505060206040518083038186803b15801561344c57600080fd5b505afa158015613460573d6000803e3d6000fd5b505050506040513d602081101561347657600080fd5b810190808051906020019092919050505014151515613523576040517f08c379a000000000000000000000000000000000000000000000000000000000815260040180806020018281038252602a8152602001807f4f6e6c7920746865204e6f6e2d4f776e6572206f662045494e2063616e20616381526020017f6365737320746869732e0000000000000000000000000000000000000000000081525060400191505060405180910390fd5b8160011515601660009054906101000a900473ffffffffffffffffffffffffffffffffffffffff1673ffffffffffffffffffffffffffffffffffffffff16635b5aed3a836040518263ffffffff167c01000000000000000000000000000000000000000000000000000000000281526004018082815260200191505060206040518083038186803b1580156135b757600080fd5b505afa1580156135cb573d6000803e3d6000fd5b505050506040513d60208110156135e157600080fd5b81019080805190602001909291905050501515141515613669576040517f08c379a00000000000000000000000000000000000000000000000000000000081526004018080602001828103825260168152602001807f5468652045494e20646f65736e2774206578697374730000000000000000000081525060200191505060405180910390fd5b6000601660009054906101000a900473ffffffffffffffffffffffffffffffffffffffff1673ffffffffffffffffffffffffffffffffffffffff166305c62c2f336040518263ffffffff167c0100000000000000000000000000000000000000000000000000000000028152600401808273ffffffffffffffffffffffffffffffffffffffff1673ffffffffffffffffffffffffffffffffffffffff16815260200191505060206040518083038186803b15801561372657600080fd5b505afa15801561373a573d6000803e3d6000fd5b505050506040513d602081101561375057600080fd5b8101908080519060200190929190505050905060001515613771828661254a565b151514151561380e576040517f08c379a000000000000000000000000000000000000000000000000000000000815260040180806020018281038252603f8152602001807f45494e2069732077686974656c69737465642c2072656d6f76652045494e206681526020017f726f6d2077686974656c69737420666972737420746f2070726f636565642e0081525060400191505060405180910390fd5b600160146000838152602001908152602001600020600086815260200190815260200160002060006101000a81548160ff02191690831515021790555083817f268aa614041be848a8eec03d06abc714c936e4466e52d79c1b0073d0bd5622fd60405160405180910390a350505050565b60008060009054906101000a900473ffffffffffffffffffffffffffffffffffffffff16905090565b600360159054906101000a900460ff1681565b60008060009054906101000a900473ffffffffffffffffffffffffffffffffffffffff1673ffffffffffffffffffffffffffffffffffffffff163373ffffffffffffffffffffffffffffffffffffffff1614905090565b6000600360009054906101000a900473ffffffffffffffffffffffffffffffffffffffff1673ffffffffffffffffffffffffffffffffffffffff163373ffffffffffffffffffffffffffffffffffffffff161415156139ff576040517f08c379a00000000000000000000000000000000000000000000000000000000081526004018080602001828103825260218152602001807f446964206e6f74206f726967696e6174652066726f6d20536e6f77666c616b6581526020017f2e0000000000000000000000000000000000000000000000000000000000000081525060400191505060405180910390fd5b600190509392505050565b6000600360009054906101000a900473ffffffffffffffffffffffffffffffffffffffff1673ffffffffffffffffffffffffffffffffffffffff163373ffffffffffffffffffffffffffffffffffffffff16141515613af7576040517f08c379a00000000000000000000000000000000000000000000000000000000081526004018080602001828103825260218152602001807f446964206e6f74206f726967696e6174652066726f6d20536e6f77666c616b6581526020017f2e0000000000000000000000000000000000000000000000000000000000000081525060400191505060405180910390fd5b6001905092915050565b6060600080600080613b13888761166d565b8094508195508296508397505050505081856000815181101515613b3357fe5b9060200190602002019061ffff16908161ffff1681525050613b55888461166d565b8094508195508296508397505050505081856001815181101515613b7557fe5b9060200190602002019061ffff16908161ffff168152505084945050505050613c76565b60008861ffff16141515613c3c57600015158215151480613bba5750600084145b15613bc85760009750613c37565b60006060613bd68b86613fc3565b809250819350505081888461ffff16815181101515613bf157fe5b9060200190602002019061ffff16908161ffff1681525050613c138b8761166d565b809750819850829950839a505050505082806001019350508980600190039a505050505b613b99565b80806001019150506000868261ffff16815181101515613c5857fe5b9060200190602002019061ffff16908161ffff168152505050505050505b9392505050565b60008260011515601660009054906101000a900473ffffffffffffffffffffffffffffffffffffffff1673ffffffffffffffffffffffffffffffffffffffff16635b5aed3a836040518263ffffffff167c01000000000000000000000000000000000000000000000000000000000281526004018082815260200191505060206040518083038186803b158015613d1357600080fd5b505afa158015613d27573d6000803e3d6000fd5b505050506040513d6020811015613d3d57600080fd5b81019080805190602001909291905050501515141515613dc5576040517f08c379a00000000000000000000000000000000000000000000000000000000081526004018080602001828103825260168152602001807f5468652045494e20646f65736e2774206578697374730000000000000000000081525060200191505060405180910390fd5b8260011515601660009054906101000a900473ffffffffffffffffffffffffffffffffffffffff1673ffffffffffffffffffffffffffffffffffffffff16635b5aed3a836040518263ffffffff167c01000000000000000000000000000000000000000000000000000000000281526004018082815260200191505060206040518083038186803b158015613e5957600080fd5b505afa158015613e6d573d6000803e3d6000fd5b505050506040513d6020811015613e8357600080fd5b81019080805190602001909291905050501515141515613f0b576040517f08c379a00000000000000000000000000000000000000000000000000000000081526004018080602001828103825260168152602001807f5468652045494e20646f65736e2774206578697374730000000000000000000081525060200191505060405180910390fd5b8484808214151515613f85576040517f08c379a00000000000000000000000000000000000000000000000000000000081526004018080602001828103825260178152602001807f426f74682045494e7320617265207468652073616d652e00000000000000000081525060200191505060405180910390fd5b60136000888152602001908152602001600020600087815260200190815260200160002060009054906101000a900460ff1694505050505092915050565b6000606060011515613fd5858561593f565b1515141515614072576040517f08c379a00000000000000000000000000000000000000000000000000000000081526004018080602001828103825260268152602001807f47726f757020646f65736e277420657869737420666f7220746865205573657281526020017f202f2045494e000000000000000000000000000000000000000000000000000081525060400191505060405180910390fd5b600a600085815260200190815260200160002060008461ffff1661ffff16815260200190815260200160002060000160009054906101000a900461ffff1661ffff169150600a600085815260200190815260200160002060008461ffff1661ffff1681526020019081526020016000206001018054600181600116156101000203166002900480601f0160208091040260200160405190810160405280929190818152602001828054600181600116156101000203166002900480156141795780601f1061414e57610100808354040283529160200191614179565b820191906000526020600020905b81548152906001019060200180831161415c57829003601f168201915b505050505090509250929050565b61418f6138bb565b151561419a57600080fd5b80600360006101000a81548173ffffffffffffffffffffffffffffffffffffffff021916908373ffffffffffffffffffffffffffffffffffffffff16021790555050565b6000601660009054906101000a900473ffffffffffffffffffffffffffffffffffffffff1673ffffffffffffffffffffffffffffffffffffffff166305c62c2f336040518263ffffffff167c0100000000000000000000000000000000000000000000000000000000028152600401808273ffffffffffffffffffffffffffffffffffffffff1673ffffffffffffffffffffffffffffffffffffffff16815260200191505060206040518083038186803b15801561429b57600080fd5b505afa1580156142af573d6000803e3d6000fd5b505050506040513d60208110156142c557600080fd5b810190808051906020019092919050505090506000600c600083815260200190815260200160002060009054906101000a900461ffff1690506000600182019050600c600084815260200190815260200160002060009054906101000a900461ffff1661ffff168161ffff16101515156143cd576040517f08c379a000000000000000000000000000000000000000000000000000000000815260040180806020018281038252603b8152602001807f4c696d69742072656163686564206f6e206e756d626572206f662067726f757081526020017f732c2063616e277420637265617465206d6f72652067726f757073000000000081525060400191505060405180910390fd5b60408051908101604052808261ffff16815260200185815250600a600085815260200190815260200160002060008361ffff1661ffff16815260200190815260200160002060008201518160000160006101000a81548161ffff021916908361ffff1602179055506020820151816001019080519060200190614451929190615b56565b509050508061ffff16600b600085815260200190815260200160002060008461ffff1661ffff1681526020019081526020016000206000018190555060008261ffff1614156144cf578061ffff16600b600085815260200190815260200160002060008061ffff168152602001908152602001600020600001819055505b8061ffff16600b600085815260200190815260200160002060008061ffff1681526020019081526020016000206001018190555060806040519081016040528060008152602001600b600086815260200190815260200160002060008561ffff1661ffff1681526020019081526020016000206002015481526020018261ffff16815260200160011515815250600b600085815260200190815260200160002060008361ffff1661ffff16815260200190815260200160002060008201518160000155602082015181600101556040820151816002015560608201518160030160006101000a81548160ff02191690831515021790555090505080600c600085815260200190815260200160002060006101000a81548161ffff021916908361ffff1602179055508061ffff16837f16562417569773b98bced45962ae792864e098bda92bda6b456185347e62eb6760405160405180910390a350505050565b8160008161ffff161115156146ac576040517f08c379a00000000000000000000000000000000000000000000000000000000081526004018080602001828103825260198152602001807f43616e6e6f74206d6f6469667920726f6f742067726f75702e0000000000000081525060200191505060405180910390fd5b6000601660009054906101000a900473ffffffffffffffffffffffffffffffffffffffff1673ffffffffffffffffffffffffffffffffffffffff166305c62c2f336040518263ffffffff167c0100000000000000000000000000000000000000000000000000000000028152600401808273ffffffffffffffffffffffffffffffffffffffff1673ffffffffffffffffffffffffffffffffffffffff16815260200191505060206040518083038186803b15801561476957600080fd5b505afa15801561477d573d6000803e3d6000fd5b505050506040513d602081101561479357600080fd5b81019080805190602001909291905050509050600115156147b4828661593f565b1515141515614851576040517f08c379a00000000000000000000000000000000000000000000000000000000081526004018080602001828103825260268152602001807f47726f757020646f65736e277420657869737420666f7220746865205573657281526020017f202f2045494e000000000000000000000000000000000000000000000000000081525060400191505060405180910390fd5b82600a600083815260200190815260200160002060008661ffff1661ffff1681526020019081526020016000206001019080519060200190614894929190615bd6565b508361ffff16817f80527ac4a265529fe8b41f638996a1cc5d0a52d9bef8c0f4662f9833b04c287960405160405180910390a350505050565b8080601660009054906101000a900473ffffffffffffffffffffffffffffffffffffffff1673ffffffffffffffffffffffffffffffffffffffff166305c62c2f336040518263ffffffff167c0100000000000000000000000000000000000000000000000000000000028152600401808273ffffffffffffffffffffffffffffffffffffffff1673ffffffffffffffffffffffffffffffffffffffff16815260200191505060206040518083038186803b15801561498a57600080fd5b505afa15801561499e573d6000803e3d6000fd5b505050506040513d60208110156149b457600080fd5b810190808051906020019092919050505014151515614a61576040517f08c379a000000000000000000000000000000000000000000000000000000000815260040180806020018281038252602a8152602001807f4f6e6c7920746865204e6f6e2d4f776e6572206f662045494e2063616e20616381526020017f6365737320746869732e0000000000000000000000000000000000000000000081525060400191505060405180910390fd5b8160011515601660009054906101000a900473ffffffffffffffffffffffffffffffffffffffff1673ffffffffffffffffffffffffffffffffffffffff16635b5aed3a836040518263ffffffff167c01000000000000000000000000000000000000000000000000000000000281526004018082815260200191505060206040518083038186803b158015614af557600080fd5b505afa158015614b09573d6000803e3d6000fd5b505050506040513d6020811015614b1f57600080fd5b81019080805190602001909291905050501515141515614ba7576040517f08c379a00000000000000000000000000000000000000000000000000000000081526004018080602001828103825260168152602001807f5468652045494e20646f65736e2774206578697374730000000000000000000081525060200191505060405180910390fd5b6000601660009054906101000a900473ffffffffffffffffffffffffffffffffffffffff1673ffffffffffffffffffffffffffffffffffffffff166305c62c2f336040518263ffffffff167c0100000000000000000000000000000000000000000000000000000000028152600401808273ffffffffffffffffffffffffffffffffffffffff1673ffffffffffffffffffffffffffffffffffffffff16815260200191505060206040518083038186803b158015614c6457600080fd5b505afa158015614c78573d6000803e3d6000fd5b505050506040513d6020811015614c8e57600080fd5b8101908080519060200190929190505050905060001515614caf828661254a565b1515141515614d4c576040517f08c379a000000000000000000000000000000000000000000000000000000000815260040180806020018281038252603f8152602001807f45494e2069732077686974656c69737465642c2072656d6f76652045494e206681526020017f726f6d20626c61636b6c69737420666972737420746f2070726f636565642e0081525060400191505060405180910390fd5b600060136000838152602001908152602001600020600086815260200190815260200160002060006101000a81548160ff02191690831515021790555083817f89793498dba1e15098e92cb548b33029672ea462853d1262390204b529d888ef60405160405180910390a350505050565b8080601660009054906101000a900473ffffffffffffffffffffffffffffffffffffffff1673ffffffffffffffffffffffffffffffffffffffff166305c62c2f336040518263ffffffff167c0100000000000000000000000000000000000000000000000000000000028152600401808273ffffffffffffffffffffffffffffffffffffffff1673ffffffffffffffffffffffffffffffffffffffff16815260200191505060206040518083038186803b158015614e7a57600080fd5b505afa158015614e8e573d6000803e3d6000fd5b505050506040513d6020811015614ea457600080fd5b810190808051906020019092919050505014151515614f51576040517f08c379a000000000000000000000000000000000000000000000000000000000815260040180806020018281038252602a8152602001807f4f6e6c7920746865204e6f6e2d4f776e6572206f662045494e2063616e20616381526020017f6365737320746869732e0000000000000000000000000000000000000000000081525060400191505060405180910390fd5b8160011515601660009054906101000a900473ffffffffffffffffffffffffffffffffffffffff1673ffffffffffffffffffffffffffffffffffffffff16635b5aed3a836040518263ffffffff167c01000000000000000000000000000000000000000000000000000000000281526004018082815260200191505060206040518083038186803b158015614fe557600080fd5b505afa158015614ff9573d6000803e3d6000fd5b505050506040513d602081101561500f57600080fd5b81019080805190602001909291905050501515141515615097576040517f08c379a00000000000000000000000000000000000000000000000000000000081526004018080602001828103825260168152602001807f5468652045494e20646f65736e2774206578697374730000000000000000000081525060200191505060405180910390fd5b6000601660009054906101000a900473ffffffffffffffffffffffffffffffffffffffff1673ffffffffffffffffffffffffffffffffffffffff166305c62c2f336040518263ffffffff167c0100000000000000000000000000000000000000000000000000000000028152600401808273ffffffffffffffffffffffffffffffffffffffff1673ffffffffffffffffffffffffffffffffffffffff16815260200191505060206040518083038186803b15801561515457600080fd5b505afa158015615168573d6000803e3d6000fd5b505050506040513d602081101561517e57600080fd5b81019080805190602001909291905050509050601660009054906101000a900473ffffffffffffffffffffffffffffffffffffffff1673ffffffffffffffffffffffffffffffffffffffff1663d4b1cdcc82306040518363ffffffff167c0100000000000000000000000000000000000000000000000000000000028152600401808381526020018273ffffffffffffffffffffffffffffffffffffffff1673ffffffffffffffffffffffffffffffffffffffff1681526020019250505060206040518083038186803b15801561525457600080fd5b505afa158015615268573d6000803e3d6000fd5b505050506040513d602081101561527e57600080fd5b81019080805190602001909291905050501515615329576040517f08c379a00000000000000000000000000000000000000000000000000000000081526004018080602001828103825260238152602001807f4545494e20686173206e6f74206265656e207365742074686973207265736f6c81526020017f766572000000000000000000000000000000000000000000000000000000000081525060400191505060405180910390fd5b600015156153378286613c7d565b15151415156153d4576040517f08c379a000000000000000000000000000000000000000000000000000000000815260040180806020018281038252603f8152602001807f45494e20697320626c61636b6c69737465642c2072656d6f76652045494e206681526020017f726f6d20626c61636b6c69737420666972737420746f2070726f636565642e0081525060400191505060405180910390fd5b600060136000838152602001908152602001600020600086815260200190815260200160002060006101000a81548160ff02191690831515021790555083817f29f3bb6c612e040fa60e402db6e1cc866432046c42b69343e9a1fe5ec8a1137960405160405180910390a350505050565b61544d6138bb565b151561545857600080fd5b6154618161598d565b50565b601560009054906101000a900473ffffffffffffffffffffffffffffffffffffffff1681565b600360009054906101000a900473ffffffffffffffffffffffffffffffffffffffff1681565b60008282111515156154c157600080fd5b600082840390508091505092915050565b600060096000858152602001908152602001600020549050600060096000848152602001908152602001600020549050600760008681526020019081526020016000206000858152602001908152602001600020600760008581526020019081526020016000206000838152602001908152602001600020600082015481600001556001820160009054906101000a900460ff168160010160006101000a81548160ff021916908360ff160217905550600282018160020190805460018160011615610100020316600290046155a9929190615a87565b50600382018160030190805460018160011615610100020316600290046155d1929190615a87565b5060048201816004019080546155e8929190615c56565b50600582015481600501556006820160009054906101000a900461ffff168160060160006101000a81548161ffff021916908361ffff1602179055506006820160029054906101000a900460ff168160060160026101000a81548160ff02191690831515021790555060098201548160090155600a820181600a01908054615671929190615cc6565b50600b82015481600b0155600c820160009054906101000a900460ff1681600c0160006101000a81548160ff021916908315150217905550600c820160019054906101000a900460ff1681600c0160016101000a81548160ff02191690831515021790555090505060096000848152602001908152602001600020546008600085815260200190815260200160002060008381526020019081526020016000208190555061572960018261591e90919063ffffffff16565b6009600085815260200190815260200160002081905550600760008681526020019081526020016000206000838152602001908152602001600020600760008781526020019081526020016000206000868152602001908152602001600020600082015481600001556001820160009054906101000a900460ff168160010160006101000a81548160ff021916908360ff160217905550600282018160020190805460018160011615610100020316600290046157e7929190615a87565b506003820181600301908054600181600116156101000203166002900461580f929190615a87565b506004820181600401908054615826929190615c56565b50600582015481600501556006820160009054906101000a900461ffff168160060160006101000a81548161ffff021916908361ffff1602179055506006820160029054906101000a900460ff168160060160026101000a81548160ff02191690831515021790555060098201548160090155600a820181600a019080546158af929190615cc6565b50600b82015481600b0155600c820160009054906101000a900460ff1681600c0160006101000a81548160ff021916908315150217905550600c820160019054906101000a900460ff1681600c0160016101000a81548160ff0219169083151502179055509050505050505050565b600080828401905083811015151561593557600080fd5b8091505092915050565b600080600c600085815260200190815260200160002060009054906101000a900461ffff1690508061ffff168361ffff16111515615981576001915050615987565b60009150505b92915050565b600073ffffffffffffffffffffffffffffffffffffffff168173ffffffffffffffffffffffffffffffffffffffff16141515156159c957600080fd5b8073ffffffffffffffffffffffffffffffffffffffff166000809054906101000a900473ffffffffffffffffffffffffffffffffffffffff1673ffffffffffffffffffffffffffffffffffffffff167f8be0079c531659141344cd1fd0a4f28419497f9722a3daafe3b4186f6b6457e060405160405180910390a3806000806101000a81548173ffffffffffffffffffffffffffffffffffffffff021916908373ffffffffffffffffffffffffffffffffffffffff16021790555050565b828054600181600116156101000203166002900490600052602060002090601f016020900481019282601f10615ac05780548555615afd565b82800160010185558215615afd57600052602060002091601f016020900482015b82811115615afc578254825591600101919060010190615ae1565b5b509050615b0a9190615d18565b5090565b50805460018160011615610100020316600290046000825580601f10615b345750615b53565b601f016020900490600052602060002090810190615b529190615d18565b5b50565b828054600181600116156101000203166002900490600052602060002090601f016020900481019282601f10615b9757805160ff1916838001178555615bc5565b82800160010185558215615bc5579182015b82811115615bc4578251825591602001919060010190615ba9565b5b509050615bd29190615d18565b5090565b828054600181600116156101000203166002900490600052602060002090601f016020900481019282601f10615c1757805160ff1916838001178555615c45565b82800160010185558215615c45579182015b82811115615c44578251825591602001919060010190615c29565b5b509050615c529190615d18565b5090565b828054828255906000526020600020908101928215615cb55760005260206000209182015b82811115615cb45782829080546001816001161561010002031660029004615ca4929190615a87565b5091600101919060010190615c7b565b5b509050615cc29190615d3d565b5090565b828054828255906000526020600020908101928215615d075760005260206000209182015b82811115615d06578254825591600101919060010190615ceb565b5b509050615d149190615d18565b5090565b615d3a91905b80821115615d36576000816000905550600101615d1e565b5090565b90565b615d6691905b80821115615d625760008181615d599190615b0e565b50600101615d43565b5090565b9056fea165627a7a72305820212d856d22efdccd4e2a9502b6ce3c06dd025af4af1223eb82ab935ea2aff4400029",
  "source": "pragma solidity ^0.5.0;\n\nimport \"./SnowflakeResolver.sol\";\nimport \"./interfaces/SnowflakeInterface.sol\";\nimport \"./interfaces/IdentityRegistryInterface.sol\";\n\nimport \"./zeppelin/math/SafeMath.sol\";\nimport \"./zeppelin/math/SafeMath16.sol\";\n\n/**\n * @title Ice Protocol\n * @author Harsh Rajat\n * @notice Create Protocol Less File Storage, Grouping, Hassle free Encryption / Decryption and Stamping using Snowflake \n * @dev This Contract forms File Storage / Stamping / Encryption part of Hydro Protocols\n */\ncontract IceProtocol is SnowflakeResolver {   \n    using SafeMath for uint16;\n    using SafeMath for uint256;\n\n    /* ***************\n    * DEFINE ENUM\n    *************** */\n    enum NoticeType {info, warning, error}\n    \n    /* ***************\n    * DEFINE VARIABLES\n    *************** */\n    /* for each file stored, ensure they can be retrieved publicly.\n    * associationIndex starts at 0 and will always increment\n    * given an associationIndex, any file can be retrieved.\n    */\n    mapping (uint256 => mapping(uint256 => Association)) private globalAssociation;\n    mapping (uint256 => mapping(uint256 => uint256)) private globalAssociationOrder; // Store descending order of global association\n    uint256 private globalAssociationIndex; // store the index of association to retrieve files\n    \n    /* for each user (EIN), look up the file they have\n     * stored on a given index.\n    */ \n    mapping (uint256 => mapping(uint256 => File)) private files;\n    mapping (uint256 => mapping(uint256 => uint256)) private fileOrder; // Store descending order of files\n    mapping (uint256 => uint256) private fileIndex; // store the maximum file index reached to provide looping functionality\n    \n    /* for each user (EIN), look up the group they have\n     * stored on a given index. Default group 0 indicates\n     * root folder\n    */ \n    mapping (uint256 => mapping(uint16 => Group)) private groups;\n    mapping (uint256 => mapping(uint16 => SortOrder)) private groupOrder; // Store descending order of group\n    mapping (uint256 => uint16) private groupIndex; // store the maximum group index reached to provide looping functionality\n    \n    /* for each user (EIN), look up the incoming transfer request\n     * stored on a given index.\n    */ \n    mapping (uint256 => mapping(uint256 => Association)) private transfers;\n    mapping (uint256 => mapping(uint256 => uint256)) private transferOrder; // Store descending order of transfers\n    mapping (uint256 => uint256) private transferIndex; // store the maximum file index reached to provide looping functionality\n    \n    /* for each user (EIN), look up the incoming sharing files\n     * stored on a given index.\n    */ \n    mapping (uint256 => mapping(uint256 => Association)) private sharings;\n    mapping (uint256 => mapping(uint256 => uint256)) private sharingOrder; // Store descending order of sharing\n    mapping (uint256 => uint256) private shareIndex; // store the maximum file index reached to provide looping functionality\n    \n    /* for each user (EIN), have a whitelist and blacklist\n     * association which can handle certain functions automatically.\n    */\n    mapping (uint256 => mapping(uint256 => bool)) private whitelist;\n    mapping (uint256 => mapping(uint256 => bool)) private blacklist;\n    \n    /* for referencing SnowFlake for Identity Registry (ERC-1484).\n    */\n    SnowflakeInterface public snowflake;\n    IdentityRegistryInterface public identityRegistry;\n   \n    /* ***************\n    * DEFINE STRUCTURES\n    *************** */\n    /* To define global file association with EIN\n    * Combining EIN and fileRecord will give access to \n    * file data.\n    */\n    struct Association {\n        uint256 ownerEIN; // the EIN of the owner\n        uint256 fileRecord; // the key at which the file struct is stored \n    }\n\n    /* To define File structure of all stored files\n    */\n    struct File {\n        /* Define the protocol of the storage,\n        * JS Library of ours reserves the following values\n        * 0 - OnChain | 1 - IPFS\n        */\n        uint256 fileOwner;\n        uint8 protocol;\n        \n        string name; // the name of the file\n        string hash; // store the hash of the file for verification | 0x000 for deleted files\n        string[] metadata; // store any metadata required as per protocol\n        uint256 timestamp; // to store the timestamp of the block when file is created\n        uint16 groupAssociationID; // maps 1:1 to groupID of Group\n        \n        bool encrypted; // whether the file is encrypted\n        mapping (address => string) encryptedHash; // Maps Individual address to the stored hash \n        \n        mapping (uint256 => uint256) sharedTo; // list of people the file is shared to\n        uint256 sharedIndex; // the index of sharing        \n        \n        uint256[] transferHistory; // To maintain histroy of transfer of all EIN\n        uint256 transfereeEIN; // To record EIN of the user to whom trasnfer is inititated\n        bool markedForTransfer; // Mark the file as transferred\n        \n        bool requiresStamping; // Whether the file requires stamping \n    }\n    \n    /* To define the order required to have double linked list\n    */\n    struct SortOrder {\n        uint256 next; // the next ID of the order\n        uint256 prev; // the prev ID of the order\n        \n        uint256 pointerID; // what it should point to in the mapping\n        \n        bool active; // whether the node is active or not\n    }\n    \n    function initiateFileTransfer(uint256 _transfererEIN, uint256 _fileIndex, uint256 _transfereeEIN) \n    public \n    _isResolverFor() \n    _onlyValidEIN(_transfereeEIN)\n    _onlyOwner(_transfererEIN) \n    _onlyUniqueEIN(_transfererEIN, _transfereeEIN)\n    _onlyUnmarkedTransferFile(_fileIndex)\n    _onlyUnmarkedStampingFile(_fileIndex) {\n        // Check if the transfereeEIN has blacklisted current owner\n        require ((isBlacklisted(_transfereeEIN, _transfererEIN) == true), \"Can't initiate file transfer as the owner has blacklisted you.\");\n        \n        // Check and change flow if white listed\n        if (isWhitelisted(_transfereeEIN, _transfererEIN) == true) {\n            // Directly transfer file\n            _doFileTransfer(_transfererEIN, _fileIndex, _transfereeEIN);\n        }\n        else {\n            // Map it to transferee mapping of transfers \n            // Mark the file for transfer\n            files[_transfererEIN][_fileIndex].markedForTransfer = true;\n            files[_transfererEIN][_fileIndex].transfereeEIN = _transfereeEIN;\n            \n            // Add to transfers of TransfereeEIN User\n            uint256 currentTransferIndex = transferIndex[_transfereeEIN];\n            transfers[_transfereeEIN][currentTransferIndex] = Association(\n                _transfererEIN,\n                _fileIndex\n            );\n            \n            // Update index and order\n            transferOrder[_transfereeEIN][currentTransferIndex] = currentTransferIndex;\n            \n            // Increment the transfer index and store that\n            transferIndex[_transfereeEIN] = currentTransferIndex.add(1);\n        \n            // Trigger Event\n            emit FileTransferInitiated(_transfererEIN, _transfereeEIN, _fileIndex);\n        }\n    }\n    \n    function acceptFileTransfer(uint256 _transfererEIN, uint256 _fileIndex, uint256 _transfereeEIN) \n    public \n    _isResolverFor() \n    _onlyNonOwner(_transfereeEIN)\n    _onlyFileNonOwner(_transfererEIN, _fileIndex) \n    _onlyMarkedTransferFile(_transfererEIN, _fileIndex) \n    _onlyMarkedForTransferee(_transfererEIN, _fileIndex, _transfererEIN) {\n        \n        // Do file transfer\n        _doFileTransfer(_transfererEIN, _fileIndex, _transfereeEIN);\n    }\n    \n    function _doFileTransfer(uint256 _transfererEIN, uint256 _fileIndex, uint256 _transfereeEIN) \n    internal {\n        // Get Indexes\n        uint256 transfererIndex = fileIndex[_transfererEIN];\n        uint256 transfereeIndex = fileIndex[_transfereeEIN];\n        \n        // Transfer the file to the transferee, update index and order\n        files[_transfereeEIN][transfereeIndex] = files[_transfererEIN][_fileIndex];\n        fileOrder[_transfereeEIN][transfereeIndex] = fileIndex[_transfereeEIN];\n        fileIndex[_transfereeEIN] = transfereeIndex.add(1);\n        \n        // Remove the file from transferer\n        files[_transfererEIN][_fileIndex] = files[_transfererEIN][transfererIndex];\n        \n    }\n    \n    /* To connect Files in linear grouping,\n    * sort of like a folder, 0 or default grooupID is root\n    */\n    struct Group {\n        uint16 groupID; // the id of the Group\n        string name; // the name of the group\n    }\n\n    /* ***************\n    * DEFINE EVENTS\n    *************** */\n    // When Group is created\n    event GroupCreated(\n        uint indexed EIN,\n        uint16 indexed groupID\n    );\n    \n    // When Group is renamed\n    event GroupRenamed(\n        uint indexed EIN,\n        uint16 indexed groupID\n    );\n    \n    // When Group Status is changed\n    event GroupDeleted(\n        uint indexed EIN,\n        uint16 indexed groupID\n    );\n    \n    // When Transfer is initiated from owner\n    event FileTransferInitiated(\n        uint indexed EIN,\n        uint indexed transfereeEIN,\n        uint indexed fileID\n    );\n    \n    // When whitelist is updated\n    event AddedToWhitelist(\n        uint indexed EIN,\n        uint indexed recipientEIN\n    );\n    \n    event RemovedFromWhitelist(\n        uint indexed EIN,\n        uint indexed recipientEIN\n    );\n    \n    // When blacklist is updated\n    event AddedToBlacklist(\n        uint indexed EIN,\n        uint indexed recipientEIN\n    );\n    \n    event RemovedFromBlacklist(\n        uint indexed EIN,\n        uint indexed recipientEIN\n    );\n    \n    // Notice Events\n    event Notice(\n        uint indexed EIN,\n        string indexed notice,\n        uint indexed statusType\n    );\n    \n    /* ***************\n    * DEFINE CONSTRUCTORS AND RELATED FUNCTIONS\n    *************** */\n    // SNOWFLAKE CONSTRUCTOR / FUNCTIONS\n    constructor (address snowflakeAddress) public \n    SnowflakeResolver(\"Ice\", \"Document Management / Stamping on Snowflake\", snowflakeAddress, false, false) {\n        snowflake = SnowflakeInterface(snowflakeAddress);\n        identityRegistry = IdentityRegistryInterface(snowflake.identityRegistryAddress());\n    }\n    \n    function onAddition(uint /* ein */, uint /* allowance */, bytes memory /* extraData */) public senderIsSnowflake() returns (bool) {\n        return true;\n    }\n\n    function onRemoval(uint /* ein */, bytes memory /* extraData */) public senderIsSnowflake() returns (bool) {\n        return true;\n    }\n    \n    function whoEIN()\n    public view\n    returns (uint256, address) {\n        return (\n            identityRegistry.getEIN(msg.sender),\n            msg.sender\n        );\n    }\n    \n    /* ***************\n    * DEFINE MODIFIERS\n    *************** */\n    /**\n     * @dev Modifier to check that the EIN has set reslover or not\n     */\n    modifier _isResolverFor() {\n        //require(identityRegistry.isResolverFor(identityRegistry.getEIN(msg.sender), address(this)),\"The EIN has not set this resolver.\");\n        _;\n    }\n    \n    /**\n    * @dev Modifier to check that only owner can have access\n    * @param _ein The EIN of the file Owner\n    */\n    modifier _onlyOwner(uint256 _ein) {  \n        require ((identityRegistry.getEIN(msg.sender) == _ein), \"Only the Owner of EIN can access this.\");\n         _;\n    }\n    \n    /**\n    * @dev Modifier to check that only non-owner can have access\n    * @param _ein The EIN of the file Owner\n    */\n    modifier _onlyNonOwner(uint256 _ein) {  \n        require ((identityRegistry.getEIN(msg.sender) != _ein), \"Only the Non-Owner of EIN can access this.\");\n         _;\n    }\n    \n    /**\n    * @dev Modifier to check that only owner of EIN can access this\n    * @param _ownerEIN The EIN of the file Owner\n    * @param _fileIndex The index of the file\n    */\n    modifier _onlyFileOwner(uint256 _ownerEIN, uint256 _fileIndex) {\n        require ((identityRegistry.getEIN(msg.sender) == files[_ownerEIN][_fileIndex].fileOwner), \"Only the Owner of File can access this.\");\n         _;\n    }\n     \n    /**\n    * @dev Modifier to check that only non-owner of EIN can access this\n    * @param _ownerEIN The EIN of the file Owner\n    * @param _fileIndex The index of the file\n    */\n    modifier _onlyFileNonOwner(uint256 _ownerEIN, uint256 _fileIndex) { \n        require ((identityRegistry.getEIN(msg.sender) != files[_ownerEIN][_fileIndex].fileOwner), \"Only Non-Owner of File can access this.\");\n         _;\n    }\n    \n    /**\n    * @dev Modifier to check that only valid EINs can have access\n    * @param _ein The EIN of the Passer\n    */\n    modifier _onlyValidEIN(uint256 _ein) {\n        require ((identityRegistry.identityExists(_ein) == true), \"The EIN doesn't exists\");\n        _;\n    }\n    \n    /**\n    * @dev Modifier to check that only unique EINs can have access\n    * @param _ein1 The First EIN\n    * @param _ein2 The Second EIN\n    */\n    modifier _onlyUniqueEIN(uint256 _ein1, uint256 _ein2) {\n        require ((_ein1 != _ein2), \"Both EINs are the same.\");\n        _;\n    }\n    \n    /**\n    * @dev Modifier to check that a file exists for the current EIN\n    * @param _fileIndex The index of the file\n    */\n    modifier _onlyFileExists(uint256 _fileIndex) {\n        require ((_fileIndex <= fileIndex[identityRegistry.getEIN(msg.sender)]), \"File doesn't exist for the User / EIN\");\n        _;\n    }\n    \n    /**\n    * @dev Modifier to check that a file has been marked for transfer\n    * @param _fileOwnerEIN The EIN of the file owner\n    * @param _fileIndex The index of the file\n    */\n    modifier _onlyMarkedTransferFile(uint256 _fileOwnerEIN, uint256 _fileIndex) {\n        // Check if the group file exists or not\n        require ((files[_fileOwnerEIN][_fileIndex].markedForTransfer == true), \"Can't proceed, file is marked for Transfer.\");\n        _;\n    }\n    \n    /**\n    * @dev Modifier to check that a file hasn't been marked for transfer\n    * @param _fileIndex The index of the file\n    */\n    modifier _onlyUnmarkedTransferFile(uint256 _fileIndex) {\n        // Check if the group file exists or not\n        require ((files[identityRegistry.getEIN(msg.sender)][_fileIndex].markedForTransfer == false), \"Can't proceed, file is already marked for Transfer.\");\n        _;\n    }\n    \n    /**\n    * @dev Modifier to check that a file has been marked for transferee EIN\n    * @param _fileIndex The index of the file\n    */\n    modifier _onlyMarkedForTransferee(uint256 _fileOwnerEIN, uint256 _fileIndex, uint256 _transfereeEIN) {\n        // Check if the group file exists or not\n        require ((files[_fileOwnerEIN][_fileIndex].transfereeEIN == _transfereeEIN), \"Can't proceed, file is not marked for Transfer.\");\n        _;\n    }\n    \n    /**\n    * @dev Modifier to check that a file hasn't been marked for stamping\n    * @param _fileIndex The index of the file\n    */\n    modifier _onlyUnmarkedStampingFile(uint256 _fileIndex) {\n        // Check if the group file exists or not\n        require ((files[identityRegistry.getEIN(msg.sender)][_fileIndex].requiresStamping == false), \"Can't proceed, file(s) marked for stamping can't be Transferred.\");\n        _;\n    }\n    \n    /**\n     * @dev Modifier to check that Group Order is valid\n     * @param _ein is the EIN of the target user\n     * @param _groupOrderIndex The index of the group order\n     */\n    modifier _onlyValidGroupOrder(uint256 _ein, uint16 _groupOrderIndex) {\n        require (\n            (_groupOrderIndex == 0 || groupOrder[_ein][_groupOrderIndex].next != groupOrder[_ein][_groupOrderIndex].prev), \n            \"Group Order Index doesn't exists\"\n        );\n        _;\n    }\n    \n    /**\n     * @dev Modifier to check that Group ID = 0 is not modified as this is root\n     * @param _groupIndex The index of the group\n     */\n    modifier _onlyNonRootGroup(uint16 _groupIndex) {\n        require ((_groupIndex > 0), \"Cannot modify root group.\");\n        _;\n    }\n     \n    /* ***************\n    * DEFINE CONTRACT FUNCTIONS\n    *************** */\n    // 1. FILE FUNCTIONS\n    /**\n     * @dev Addd File metadata and Create a new Group\n     * @param hash of the File\n     *\n     */\n    function addFileWithGroup(string memory hash, uint8 protocol, uint8 status, string memory groupName) public {\n        // Returns EIN or Throws Error if not set\n        uint256 ein = identityRegistry.getEIN(msg.sender);\n    }\n    \n    /**\n     * @dev Add File metadata to an existing Group\n     * @param hash of the File\n     * \n     */\n    function addFileToGroup(string memory hash, uint8 protocol, uint8 status, uint8 groupID) public {\n        uint256 ein = identityRegistry.getEIN(msg.sender);\n    }\n    \n    /**\n     * @dev Add File entire functionality\n     * @param hash of the file\n     * @param protocol used to store the file\n     * @param status of the file (0 = Normal | 1 = Encrypted)\n     * @param groupID refers to the existing group\n     * @param groupName refers to the groupName\n     */\n    function _addFile(uint EIN, string memory hash, uint8 protocol, uint8 status, uint8 groupID, string memory groupName) private {\n        uint256 ein = identityRegistry.getEIN(msg.sender);\n    }\n    \n    // 2. GROUP FUNCTIONS\n    /**\n     * @dev Function to check if group exists\n     * @param _ein the EIN of the user\n     * @param _groupIndex the index of the group\n     */\n    function _groupExists(uint256 _ein, uint16 _groupIndex) \n    internal view \n    returns (bool) {\n        // Check if the group exists or not\n        uint16 currentGroupIndex = uint16(groupIndex[_ein]);\n        \n        if (_groupIndex <= currentGroupIndex) {\n            return true;\n        }\n        \n        return false;\n    }\n    \n    function getGroupOrder(uint256 _ein, uint16 _seedGroupID)\n    public view\n    _onlyValidGroupOrder(_ein, _seedGroupID)\n    returns (uint256 prev, uint256 next, uint256 pointerID, bool active) {\n        prev = groupOrder[_ein][_seedGroupID].prev;\n        next = groupOrder[_ein][_seedGroupID].next;\n        pointerID = groupOrder[_ein][_seedGroupID].pointerID;\n        active = groupOrder[_ein][_seedGroupID].active;\n    }\n    \n    function getGroup(uint256 _ein, uint16 _groupIndex)\n    public view\n    returns (uint256 groupID, string memory groupName) {\n        // Check if the group exists or not\n        require ((_groupExists(_ein, _groupIndex) == true), \"Group doesn't exist for the User / EIN\");\n        \n        groupID = groups[_ein][_groupIndex].groupID;\n        groupName = groups[_ein][_groupIndex].name;\n    }\n    \n    function getDescendingGroupsID(uint256 _ein, uint16 _limit, uint16 _seedOrder) \n    public view\n    returns (uint16[] memory groupIDs) {\n        \n        uint256 next;\n        uint256 prev;\n        uint256 pointerID;\n        bool active;\n        \n        // Get initial Group\n        (next, prev, pointerID, active) = getGroupOrder(_ein, _seedOrder);\n        groupIDs[0] = uint16(pointerID);\n        \n        // Get Previous Group | Round Robin Fashion\n        (next, prev, pointerID, active) = getGroupOrder(_ein, uint16(prev));\n        groupIDs[1] = uint16(pointerID);\n        \n        return groupIDs;\n        uint16 i = 0;\n        \n        if (_limit > groupIndex[_ein]) {\n            _limit = groupIndex[_ein];\n        }\n        \n        while (_limit != 0) {\n            \n            if (active == false || prev == 0) {\n                _limit = 0;\n            }\n            else {\n                uint256 groupID;\n                string memory groupName;\n            \n                // Get Group\n                (groupID, groupName) = getGroup(_ein, uint16(pointerID));\n                \n                // Add To Return Vars\n                groupIDs[i] = uint16(groupID);\n                //groupNames = append(groupName, \"|\");\n                \n                // Get Previous Group | Round Robin Fashion\n                (next, prev, pointerID, active) = getGroupOrder(_ein, uint16(prev));\n                \n                // Increment counter\n                i++;\n                \n                // Decrease Limit        \n                _limit--;\n            }\n            \n        }\n        \n        // Increment counter\n        i++;\n                \n        // Always add Special case of root\n        groupIDs[i] = 0;\n        //groupNames = append(groupNames, \"|Root\");\n    }\n    \n    function debugBuildGroupData() \n    public {\n        createGroup(\"A\");\n        createGroup(\"B\");\n        createGroup(\"C\");\n        createGroup(\"D\");\n        createGroup(\"E\");\n        createGroup(\"F\");\n        createGroup(\"G\");\n        createGroup(\"H\");\n    \n    }\n    \n    /**\n     * @dev Create a new Group for the user\n     * @param _groupName describes the name of the group\n     */\n    function createGroup(string memory _groupName) \n    public \n    _isResolverFor() {\n        // Returns EIN or Throws Error if not set\n        uint256 ein = identityRegistry.getEIN(msg.sender);\n        \n        // Check if this is unitialized, if so, initialize it, reserved value of 0 is skipped as that's root\n        uint16 currentGroupIndex = groupIndex[ein];\n        uint16 nextGroupIndex = currentGroupIndex + 1;\n        require (nextGroupIndex >= groupIndex[ein], \"Limit reached on number of groups, can't create more groups\");\n        \n        // Assign it to User (EIN)\n        groups[ein][nextGroupIndex] = Group(\n            nextGroupIndex,\n            _groupName\n        );\n        \n        // Assign current group order next pointer\n        groupOrder[ein][currentGroupIndex].next = nextGroupIndex;\n        \n        // Special case of root group\n        if (currentGroupIndex == 0) {\n            groupOrder[ein][0].next = nextGroupIndex;\n        }\n        \n        // Assign initial group prev order\n        groupOrder[ein][0].prev = nextGroupIndex;\n            \n        // Assign next group order pointer and prev pointer\n        groupOrder[ein][nextGroupIndex] = SortOrder(\n            0, // next index\n            groupOrder[ein][currentGroupIndex].pointerID, // prev index\n            nextGroupIndex, // pointerID\n            true\n        );\n        \n        // increment index\n        groupIndex[ein] = nextGroupIndex;\n        \n        // Trigger Event\n        emit GroupCreated(ein, nextGroupIndex);\n    }\n    \n    /**\n     * @dev Rename an existing Group for the user / ein\n     * @param _groupIndex describes the associated index of the group for the user / ein\n     * @param _groupName describes the new name of the group\n     */\n    function renameGroup(uint16 _groupIndex, string memory _groupName) \n    public \n    _isResolverFor() \n    _onlyNonRootGroup(_groupIndex) {\n        \n        // Returns EIN or Throws Error if not set\n        uint256 ein = identityRegistry.getEIN(msg.sender);\n        \n        // Check if the group exists or not\n        require ((_groupExists(ein, _groupIndex) == true), \"Group doesn't exist for the User / EIN\");\n        \n        // Replace the group name\n        groups[ein][_groupIndex].name = _groupName;\n        \n        // Trigger Event\n        emit GroupRenamed(ein, _groupIndex);\n    }\n    \n    /**\n     * @dev Delete an existing group for the user / ein\n     * @param _groupIndex describes the associated index of the group for the user / ein\n     */\n    function deleteGroup(uint16 _groupIndex) public \n    _isResolverFor() \n    _onlyNonRootGroup(_groupIndex) {\n        \n        // Returns EIN or Throws Error if not set\n        uint256 ein = identityRegistry.getEIN(msg.sender);\n         \n        // Check if the group exists or not\n        uint16 currentGroupIndex = groupIndex[ein];\n        require ((_groupIndex <= currentGroupIndex), \"Group doesn't exist for the User / EIN\");\n        \n        // Swap Index mapping & remap the latest group ID\n        groups[ein][_groupIndex] = groups[ein][currentGroupIndex];\n        uint16 latestOrder = uint16(groupOrder[ein][0].prev);\n        groupOrder[ein][latestOrder].pointerID = _groupIndex;\n        \n        // Stich Group Order\n        uint16 prevGroupIndex = uint16(groupOrder[ein][_groupIndex].prev);\n        uint16 nextGroupIndex = uint16(groupOrder[ein][_groupIndex].next);\n        \n        groupOrder[ein][prevGroupIndex].next = nextGroupIndex;\n        groupOrder[ein][nextGroupIndex].prev = prevGroupIndex;\n        \n        // Turn off the non-stich group\n        groupOrder[ein][_groupIndex].active = false;\n        \n        // Delete the latest group now\n        delete (groups[ein][currentGroupIndex]);\n        groupIndex[ein].sub(1);\n        \n        // Trigger Event\n        emit GroupDeleted(ein, _groupIndex);\n    }\n    \n    // 3. TRANSFER FILE FUNCTIONS\n    \n    // 5. WHITELIST / BLACKLIST FUNCTIONS\n    /**\n     * @dev Check if a user (EIN) is whitelisted for any other user (EIN)\n     * @param _forEin is the ein for which the whitelist is targetted\n     * @param _queryingEIN is the ein of the recipient which is checked\n     */\n    function isWhitelisted(uint256 _forEin, uint256 _queryingEIN) \n    public view\n    _isResolverFor() \n    _onlyValidEIN(_forEin) \n    _onlyUniqueEIN(_forEin, _queryingEIN) \n    returns (bool) {\n        return whitelist[_forEin][_queryingEIN];\n    }\n    \n    /**\n    * @dev Check if a user (EIN) is whitelisted for any other user (EIN)\n    * @param _forEin is the ein for which the blacklist is targetted\n    * @param _queryingEIN is the ein of the recipient which is checked\n    */\n    function isBlacklisted(uint256 _forEin, uint256 _queryingEIN) \n    public view \n    _isResolverFor() \n    _onlyValidEIN(_forEin) \n    _onlyValidEIN(_queryingEIN) \n    _onlyUniqueEIN(_forEin, _queryingEIN)\n    returns (bool) {\n        return whitelist[_forEin][_queryingEIN];\n    }\n    \n    /**\n    * @dev Add a non-owner user to whitelist\n    * @param _nonOwnerEIN is the ein of the recipient\n    */\n    function addToWhitelist(uint256 _nonOwnerEIN) \n    public\n    _isResolverFor() \n    _onlyNonOwner(_nonOwnerEIN) \n    _onlyValidEIN(_nonOwnerEIN) {\n        // Returns EIN or Throws Error if not set\n        uint256 ein = identityRegistry.getEIN(msg.sender);\n        \n        //Check if user (EIN) is not on blacklist\n        require ((isBlacklisted(ein, _nonOwnerEIN) == false), \"EIN is blacklisted, remove EIN from blacklist first to proceed.\");\n        \n        whitelist[ein][_nonOwnerEIN] = true;\n        \n        // Trigger Event\n        emit AddedToWhitelist(ein, _nonOwnerEIN);\n    }\n    \n    /**\n    * @dev Remove a non-owner user from whitelist\n    * @param _nonOwnerEIN is the ein of the recipient\n    */\n    function removeFromWhitelist(uint256 _nonOwnerEIN) \n    public\n    _isResolverFor() _onlyNonOwner(_nonOwnerEIN) _onlyValidEIN(_nonOwnerEIN) {\n        \n        // Returns EIN or Throws Error if not set\n        uint256 ein = identityRegistry.getEIN(msg.sender);\n        require (identityRegistry.isResolverFor(ein, address(this)), \"EEIN has not been set this resolver\");\n        \n        //Check if user (EIN) is not on blacklist\n        require ((isBlacklisted(ein, _nonOwnerEIN) == false), \"EIN is blacklisted, remove EIN from blacklist first to proceed.\");\n        \n        whitelist[ein][_nonOwnerEIN] = false;\n        \n        // Trigger Event\n        emit RemovedFromWhitelist(ein, _nonOwnerEIN);\n    }\n    \n    /**\n    * @dev Remove a non-owner user to blacklist\n    * @param _nonOwnerEIN is the ein of the recipient\n    */\n    function addToBlacklist(uint256 _nonOwnerEIN) \n    public\n    _onlyNonOwner(_nonOwnerEIN) \n    _onlyValidEIN(_nonOwnerEIN) {\n        // Get EIN\n        uint256 ein = identityRegistry.getEIN(msg.sender);\n        \n        //Check if user (EIN) is not on blacklist\n        require ((isWhitelisted(ein, _nonOwnerEIN) == false), \"EIN is whitelisted, remove EIN from whitelist first to proceed.\");\n        \n        blacklist[ein][_nonOwnerEIN] = true;\n        \n        // Trigger Event\n        emit AddedToBlacklist(ein, _nonOwnerEIN);\n    }\n    \n    /**\n    * @dev Remove a non-owner user from blacklist\n    * @param _nonOwnerEIN is the ein of the recipient\n    */\n    function removeFromBlacklist(uint256 _nonOwnerEIN) \n    public\n    _isResolverFor() \n    _onlyNonOwner(_nonOwnerEIN) \n    _onlyValidEIN(_nonOwnerEIN) {\n        // Get EIN\n        uint256 ein = identityRegistry.getEIN(msg.sender);\n        \n        //Check if user (EIN) is not on blacklist\n        require ((isWhitelisted(ein, _nonOwnerEIN) == false), \"EIN is whitelisted, remove EIN from blacklist first to proceed.\");\n        \n        whitelist[ein][_nonOwnerEIN] = false;\n        \n        // Trigger Event\n        emit RemovedFromBlacklist(ein, _nonOwnerEIN);\n    }\n    \n    function append(string memory a, string memory b) internal pure returns (string memory) {\n        return string(abi.encodePacked(a, b));\n    }\n    \n    function uint2str(uint _i) internal pure returns (string memory _uintAsString) {\n        if (_i == 0) {\n            return \"0\";\n        }\n        uint j = _i;\n        uint len;\n        while (j != 0) {\n            len++;\n            j /= 10;\n        }\n        bytes memory bstr = new bytes(len);\n        uint k = len - 1;\n        while (_i != 0) {\n            bstr[k--] = byte(uint8(48 + _i % 10));\n            _i /= 10;\n        }\n        return string(bstr);\n    }\n}",
  "sourcePath": "/MAMPWeb/HydroIce/HydroIceContract/contracts/IceProtocol.sol",
  "compiler": {
    "name": "solc",
    "version": "0.5.0+commit.1d4f565a.Emscripten.clang"
  },
  "schemaVersion": "3.0.6",
  "updatedAt": "2019-04-22T16:23:29.775Z",
  "devdoc": {
    "author": "Harsh Rajat",
    "details": "This Contract forms File Storage / Stamping / Encryption part of Hydro Protocols",
    "methods": {
      "addFileToGroup(string,uint8,uint8,uint8)": {
        "details": "Add File metadata to an existing Group",
        "params": {
          "hash": "of the File      "
        }
      },
      "addFileWithGroup(string,uint8,uint8,string)": {
        "details": "Addd File metadata and Create a new Group",
        "params": {
          "hash": "of the File     "
        }
      },
      "addToBlacklist(uint256)": {
        "details": "Remove a non-owner user to blacklist",
        "params": {
          "_nonOwnerEIN": "is the ein of the recipient"
        }
      },
      "addToWhitelist(uint256)": {
        "details": "Add a non-owner user to whitelist",
        "params": {
          "_nonOwnerEIN": "is the ein of the recipient"
        }
      },
      "createGroup(string)": {
        "details": "Create a new Group for the user",
        "params": {
          "_groupName": "describes the name of the group"
        }
      },
      "deleteGroup(uint16)": {
        "details": "Delete an existing group for the user / ein",
        "params": {
          "_groupIndex": "describes the associated index of the group for the user / ein"
        }
      },
      "isBlacklisted(uint256,uint256)": {
        "details": "Check if a user (EIN) is whitelisted for any other user (EIN)",
        "params": {
          "_forEin": "is the ein for which the blacklist is targetted",
          "_queryingEIN": "is the ein of the recipient which is checked"
        }
      },
      "isOwner()": {
        "return": "true if `msg.sender` is the owner of the contract."
      },
      "isWhitelisted(uint256,uint256)": {
        "details": "Check if a user (EIN) is whitelisted for any other user (EIN)",
        "params": {
          "_forEin": "is the ein for which the whitelist is targetted",
          "_queryingEIN": "is the ein of the recipient which is checked"
        }
      },
      "owner()": {
        "return": "the address of the owner."
      },
      "removeFromBlacklist(uint256)": {
        "details": "Remove a non-owner user from blacklist",
        "params": {
          "_nonOwnerEIN": "is the ein of the recipient"
        }
      },
      "removeFromWhitelist(uint256)": {
        "details": "Remove a non-owner user from whitelist",
        "params": {
          "_nonOwnerEIN": "is the ein of the recipient"
        }
      },
      "renameGroup(uint16,string)": {
        "details": "Rename an existing Group for the user / ein",
        "params": {
          "_groupIndex": "describes the associated index of the group for the user / ein",
          "_groupName": "describes the new name of the group"
        }
      },
      "renounceOwnership()": {
        "details": "Allows the current owner to relinquish control of the contract."
      },
      "transferOwnership(address)": {
        "details": "Allows the current owner to transfer control of the contract to a newOwner.",
        "params": {
          "newOwner": "The address to transfer ownership to."
        }
      }
    },
    "title": "Ice Protocol"
  },
  "userdoc": {
    "methods": {
      "renounceOwnership()": {
        "notice": "Renouncing to ownership will leave the contract without an owner. It will not be possible to call the functions with the `onlyOwner` modifier anymore."
      }
    },
    "notice": "Create Protocol Less File Storage, Grouping, Hassle free Encryption / Decryption and Stamping using Snowflake "
  }
}