{
  "contractName": "Invoicing",
  "abi": [
    {
      "constant": false,
      "inputs": [],
      "name": "renounceOwnership",
      "outputs": [],
      "payable": false,
      "stateMutability": "nonpayable",
      "type": "function"
    },
    {
      "constant": true,
      "inputs": [],
      "name": "callOnAddition",
      "outputs": [
        {
          "name": "",
          "type": "bool"
        }
      ],
      "payable": false,
      "stateMutability": "view",
      "type": "function"
    },
    {
      "constant": true,
      "inputs": [],
      "name": "snowflakeDescription",
      "outputs": [
        {
          "name": "",
          "type": "string"
        }
      ],
      "payable": false,
      "stateMutability": "view",
      "type": "function"
    },
    {
      "constant": true,
      "inputs": [],
      "name": "snowflakeName",
      "outputs": [
        {
          "name": "",
          "type": "string"
        }
      ],
      "payable": false,
      "stateMutability": "view",
      "type": "function"
    },
    {
      "constant": true,
      "inputs": [],
      "name": "owner",
      "outputs": [
        {
          "name": "",
          "type": "address"
        }
      ],
      "payable": false,
      "stateMutability": "view",
      "type": "function"
    },
    {
      "constant": true,
      "inputs": [],
      "name": "callOnRemoval",
      "outputs": [
        {
          "name": "",
          "type": "bool"
        }
      ],
      "payable": false,
      "stateMutability": "view",
      "type": "function"
    },
    {
      "constant": true,
      "inputs": [],
      "name": "isOwner",
      "outputs": [
        {
          "name": "",
          "type": "bool"
        }
      ],
      "payable": false,
      "stateMutability": "view",
      "type": "function"
    },
    {
      "constant": true,
      "inputs": [
        {
          "name": "",
          "type": "uint256"
        },
        {
          "name": "",
          "type": "uint256"
        }
      ],
      "name": "customersToInvoices",
      "outputs": [
        {
          "name": "",
          "type": "uint256"
        }
      ],
      "payable": false,
      "stateMutability": "view",
      "type": "function"
    },
    {
      "constant": false,
      "inputs": [
        {
          "name": "_snowflakeAddress",
          "type": "address"
        }
      ],
      "name": "setSnowflakeAddress",
      "outputs": [],
      "payable": false,
      "stateMutability": "nonpayable",
      "type": "function"
    },
    {
      "constant": true,
      "inputs": [
        {
          "name": "",
          "type": "uint256"
        },
        {
          "name": "",
          "type": "uint256"
        }
      ],
      "name": "merchantsToInvoices",
      "outputs": [
        {
          "name": "",
          "type": "uint256"
        }
      ],
      "payable": false,
      "stateMutability": "view",
      "type": "function"
    },
    {
      "constant": false,
      "inputs": [
        {
          "name": "newOwner",
          "type": "address"
        }
      ],
      "name": "transferOwnership",
      "outputs": [],
      "payable": false,
      "stateMutability": "nonpayable",
      "type": "function"
    },
    {
      "constant": true,
      "inputs": [],
      "name": "snowflakeAddress",
      "outputs": [
        {
          "name": "",
          "type": "address"
        }
      ],
      "payable": false,
      "stateMutability": "view",
      "type": "function"
    },
    {
      "inputs": [
        {
          "name": "snowflakeAddress",
          "type": "address"
        }
      ],
      "payable": false,
      "stateMutability": "nonpayable",
      "type": "constructor"
    },
    {
      "anonymous": false,
      "inputs": [
        {
          "indexed": false,
          "name": "invoiceId",
          "type": "uint256"
        },
        {
          "indexed": true,
          "name": "merchant",
          "type": "uint256"
        },
        {
          "indexed": false,
          "name": "customers",
          "type": "uint256[]"
        }
      ],
      "name": "LogInvoiceCreated",
      "type": "event"
    },
    {
      "anonymous": false,
      "inputs": [
        {
          "indexed": false,
          "name": "invoiceId",
          "type": "uint256"
        },
        {
          "indexed": false,
          "name": "customer",
          "type": "uint256"
        },
        {
          "indexed": false,
          "name": "amount",
          "type": "uint256"
        }
      ],
      "name": "LogPayment",
      "type": "event"
    },
    {
      "anonymous": false,
      "inputs": [
        {
          "indexed": false,
          "name": "invoiceId",
          "type": "uint256"
        },
        {
          "indexed": false,
          "name": "customer",
          "type": "uint256"
        },
        {
          "indexed": false,
          "name": "amount",
          "type": "uint256"
        }
      ],
      "name": "LogRefund",
      "type": "event"
    },
    {
      "anonymous": false,
      "inputs": [
        {
          "indexed": false,
          "name": "invoiceId",
          "type": "uint256"
        },
        {
          "indexed": false,
          "name": "customer",
          "type": "uint256"
        },
        {
          "indexed": false,
          "name": "details",
          "type": "string"
        }
      ],
      "name": "LogDisputeCreated",
      "type": "event"
    },
    {
      "anonymous": false,
      "inputs": [
        {
          "indexed": true,
          "name": "previousOwner",
          "type": "address"
        },
        {
          "indexed": true,
          "name": "newOwner",
          "type": "address"
        }
      ],
      "name": "OwnershipTransferred",
      "type": "event"
    },
    {
      "constant": false,
      "inputs": [
        {
          "name": "",
          "type": "uint256"
        },
        {
          "name": "",
          "type": "uint256"
        },
        {
          "name": "",
          "type": "bytes"
        }
      ],
      "name": "onAddition",
      "outputs": [
        {
          "name": "",
          "type": "bool"
        }
      ],
      "payable": false,
      "stateMutability": "nonpayable",
      "type": "function"
    },
    {
      "constant": false,
      "inputs": [
        {
          "name": "",
          "type": "uint256"
        },
        {
          "name": "",
          "type": "bytes"
        }
      ],
      "name": "onRemoval",
      "outputs": [
        {
          "name": "",
          "type": "bool"
        }
      ],
      "payable": false,
      "stateMutability": "nonpayable",
      "type": "function"
    },
    {
      "constant": false,
      "inputs": [
        {
          "name": "id",
          "type": "string"
        },
        {
          "name": "customers",
          "type": "uint256[]"
        },
        {
          "name": "amount",
          "type": "uint256"
        },
        {
          "name": "allowPartialPayment",
          "type": "bool"
        },
        {
          "name": "minimumAmountDue",
          "type": "uint256"
        },
        {
          "name": "paymentTerm",
          "type": "uint8"
        },
        {
          "name": "term",
          "type": "uint256"
        }
      ],
      "name": "createDraftInvoice",
      "outputs": [],
      "payable": false,
      "stateMutability": "nonpayable",
      "type": "function"
    },
    {
      "constant": false,
      "inputs": [
        {
          "name": "invoiceId",
          "type": "uint256"
        },
        {
          "name": "customers",
          "type": "uint256[]"
        }
      ],
      "name": "updateInvoiceCustomers",
      "outputs": [],
      "payable": false,
      "stateMutability": "nonpayable",
      "type": "function"
    },
    {
      "constant": false,
      "inputs": [
        {
          "name": "invoiceId",
          "type": "uint256"
        },
        {
          "name": "amount",
          "type": "uint256"
        },
        {
          "name": "allowPartialPayment",
          "type": "bool"
        },
        {
          "name": "minimumAmountDue",
          "type": "uint256"
        },
        {
          "name": "paymentTerm",
          "type": "uint8"
        },
        {
          "name": "term",
          "type": "uint256"
        },
        {
          "name": "additionalTerms",
          "type": "string"
        },
        {
          "name": "note",
          "type": "string"
        }
      ],
      "name": "updateInvoicePayment",
      "outputs": [],
      "payable": false,
      "stateMutability": "nonpayable",
      "type": "function"
    },
    {
      "constant": false,
      "inputs": [
        {
          "name": "invoiceId",
          "type": "uint256"
        }
      ],
      "name": "validateInvoice",
      "outputs": [],
      "payable": false,
      "stateMutability": "nonpayable",
      "type": "function"
    },
    {
      "constant": false,
      "inputs": [
        {
          "name": "invoiceId",
          "type": "uint256"
        },
        {
          "name": "amount",
          "type": "uint256"
        }
      ],
      "name": "payInvoice",
      "outputs": [],
      "payable": false,
      "stateMutability": "nonpayable",
      "type": "function"
    },
    {
      "constant": false,
      "inputs": [
        {
          "name": "invoiceId",
          "type": "uint256"
        },
        {
          "name": "customer",
          "type": "uint256"
        },
        {
          "name": "amount",
          "type": "uint256"
        }
      ],
      "name": "refundCustomer",
      "outputs": [],
      "payable": false,
      "stateMutability": "nonpayable",
      "type": "function"
    },
    {
      "constant": false,
      "inputs": [
        {
          "name": "invoiceId",
          "type": "uint256"
        }
      ],
      "name": "cancelInvoice",
      "outputs": [],
      "payable": false,
      "stateMutability": "nonpayable",
      "type": "function"
    },
    {
      "constant": false,
      "inputs": [
        {
          "name": "invoiceId",
          "type": "uint256"
        },
        {
          "name": "details",
          "type": "string"
        }
      ],
      "name": "openDispute",
      "outputs": [],
      "payable": false,
      "stateMutability": "nonpayable",
      "type": "function"
    },
    {
      "constant": false,
      "inputs": [
        {
          "name": "invoiceId",
          "type": "uint256"
        }
      ],
      "name": "closeDispute",
      "outputs": [],
      "payable": false,
      "stateMutability": "nonpayable",
      "type": "function"
    },
    {
      "constant": true,
      "inputs": [
        {
          "name": "invoiceId",
          "type": "uint256"
        }
      ],
      "name": "getInvoiceInfo",
      "outputs": [
        {
          "name": "id",
          "type": "string"
        },
        {
          "name": "status",
          "type": "uint8"
        },
        {
          "name": "date",
          "type": "uint256"
        },
        {
          "name": "merchant",
          "type": "uint256"
        },
        {
          "name": "customers",
          "type": "uint256[]"
        }
      ],
      "payable": false,
      "stateMutability": "view",
      "type": "function"
    },
    {
      "constant": true,
      "inputs": [
        {
          "name": "invoiceId",
          "type": "uint256"
        }
      ],
      "name": "getInvoiceDetails",
      "outputs": [
        {
          "name": "amount",
          "type": "uint256"
        },
        {
          "name": "paidAmount",
          "type": "uint256"
        },
        {
          "name": "refundedAmount",
          "type": "uint256"
        },
        {
          "name": "allowPartialPayment",
          "type": "bool"
        },
        {
          "name": "minimumAmountDue",
          "type": "uint256"
        },
        {
          "name": "paymentTerm",
          "type": "uint8"
        },
        {
          "name": "term",
          "type": "uint256"
        }
      ],
      "payable": false,
      "stateMutability": "view",
      "type": "function"
    },
    {
      "constant": true,
      "inputs": [
        {
          "name": "invoiceId",
          "type": "uint256"
        }
      ],
      "name": "getInvoicesAdditionalDetails",
      "outputs": [
        {
          "name": "additionalTerms",
          "type": "string"
        },
        {
          "name": "note",
          "type": "string"
        }
      ],
      "payable": false,
      "stateMutability": "view",
      "type": "function"
    },
    {
      "constant": true,
      "inputs": [
        {
          "name": "ein",
          "type": "uint256"
        }
      ],
      "name": "getInvoicesFromMerchant",
      "outputs": [
        {
          "name": "invoicesId",
          "type": "uint256[]"
        }
      ],
      "payable": false,
      "stateMutability": "view",
      "type": "function"
    },
    {
      "constant": true,
      "inputs": [
        {
          "name": "ein",
          "type": "uint256"
        }
      ],
      "name": "getInvoicesFromCustomer",
      "outputs": [
        {
          "name": "invoicesId",
          "type": "uint256[]"
        }
      ],
      "payable": false,
      "stateMutability": "view",
      "type": "function"
    }
  ],
  "bytecode": "0x60806040523480156200001157600080fd5b5060405160208062005d20833981018060405260208110156200003357600080fd5b81019080805190602001909291905050506040805190810160405280600981526020017f496e766f6963696e6700000000000000000000000000000000000000000000008152506040805190810160405280600f81526020017f43726561746520696e766f69636573000000000000000000000000000000000081525082600080336000806101000a81548173ffffffffffffffffffffffffffffffffffffffff021916908373ffffffffffffffffffffffffffffffffffffffff1602179055506000809054906101000a900473ffffffffffffffffffffffffffffffffffffffff1673ffffffffffffffffffffffffffffffffffffffff16600073ffffffffffffffffffffffffffffffffffffffff167f8be0079c531659141344cd1fd0a4f28419497f9722a3daafe3b4186f6b6457e060405160405180910390a3846001908051906020019062000188929190620002bc565b508360029080519060200190620001a1929190620002bc565b50620001bc83620001fc640100000000026401000000009004565b81600360146101000a81548160ff02191690831515021790555080600360156101000a81548160ff0219169083151502179055505050505050506200036b565b6200021562000265640100000000026401000000009004565b15156200022157600080fd5b80600360006101000a81548173ffffffffffffffffffffffffffffffffffffffff021916908373ffffffffffffffffffffffffffffffffffffffff16021790555050565b60008060009054906101000a900473ffffffffffffffffffffffffffffffffffffffff1673ffffffffffffffffffffffffffffffffffffffff163373ffffffffffffffffffffffffffffffffffffffff1614905090565b828054600181600116156101000203166002900490600052602060002090601f016020900481019282601f10620002ff57805160ff191683800117855562000330565b8280016001018555821562000330579182015b828111156200032f57825182559160200191906001019062000312565b5b5090506200033f919062000343565b5090565b6200036891905b80821115620003645760008160009055506001016200034a565b5090565b90565b6159a5806200037b6000396000f3fe60806040526004361061016a576000357c0100000000000000000000000000000000000000000000000000000000900463ffffffff16806309c81cbd1461016f5780630a0428571461023e57806336f691c41461035e5780633b56c4c714610430578063622052831461046b5780636c195ecf1461060c578063715018a61461079f57806371790251146107b6578063742f260f146107e557806376acf1b6146108755780638660d5521461090557806388cdab94146109955780638da5cb5b14610a255780638f06492d14610a7c5780638f32d59b14610aab578063909a708a14610ada57806390bfaf4014610b655780639182621a14610c595780639f42f74814610d43578063a26a1e1f14610e62578063c979b05a14610ebb578063cc368b1d14610f0c578063d99971b414610f51578063da9c273d14610fa0578063ef1106b414610fdb578063f257aa5714611034578063f2fde38b1461106f578063f9f451b8146110c0575b600080fd5b34801561017b57600080fd5b5061023c6004803603604081101561019257600080fd5b8101908080359060200190929190803590602001906401000000008111156101b957600080fd5b8201836020820111156101cb57600080fd5b803590602001918460208302840111640100000000831117156101ed57600080fd5b919080806020026020016040519081016040528093929190818152602001838360200280828437600081840152601f19601f820116905080830192505050505050509192919290505050611117565b005b34801561024a57600080fd5b506102776004803603602081101561026157600080fd5b81019080803590602001909291905050506115e3565b604051808060200180602001838103835285818151815260200191508051906020019080838360005b838110156102bb5780820151818401526020810190506102a0565b50505050905090810190601f1680156102e85780820380516001836020036101000a031916815260200191505b50838103825284818151815260200191508051906020019080838360005b83811015610321578082015181840152602081019050610306565b50505050905090810190601f16801561034e5780820380516001836020036101000a031916815260200191505b5094505050505060405180910390f35b34801561036a57600080fd5b5061042e6004803603604081101561038157600080fd5b8101908080359060200190929190803590602001906401000000008111156103a857600080fd5b8201836020820111156103ba57600080fd5b803590602001918460018302840111640100000000831117156103dc57600080fd5b91908080601f016020809104026020016040519081016040528093929190818152602001838380828437600081840152601f19601f820116905080830192505050505050509192919290505050611767565b005b34801561043c57600080fd5b506104696004803603602081101561045357600080fd5b8101908080359060200190929190505050611de4565b005b34801561047757600080fd5b5061060a600480360361010081101561048f57600080fd5b81019080803590602001909291908035906020019092919080351515906020019092919080359060200190929190803560ff16906020019092919080359060200190929190803590602001906401000000008111156104ed57600080fd5b8201836020820111156104ff57600080fd5b8035906020019184600183028401116401000000008311171561052157600080fd5b91908080601f016020809104026020016040519081016040528093929190818152602001838380828437600081840152601f19601f8201169050808301925050505050505091929192908035906020019064010000000081111561058457600080fd5b82018360208201111561059657600080fd5b803590602001918460018302840111640100000000831117156105b857600080fd5b91908080601f016020809104026020016040519081016040528093929190818152602001838380828437600081840152601f19601f82011690508083019250505050505050919291929050505061242e565b005b34801561061857600080fd5b5061079d600480360360e081101561062f57600080fd5b810190808035906020019064010000000081111561064c57600080fd5b82018360208201111561065e57600080fd5b8035906020019184600183028401116401000000008311171561068057600080fd5b91908080601f016020809104026020016040519081016040528093929190818152602001838380828437600081840152601f19601f820116905080830192505050505050509192919290803590602001906401000000008111156106e357600080fd5b8201836020820111156106f557600080fd5b8035906020019184602083028401116401000000008311171561071757600080fd5b919080806020026020016040519081016040528093929190818152602001838360200280828437600081840152601f19601f8201169050808301925050505050505091929192908035906020019092919080351515906020019092919080359060200190929190803560ff16906020019092919080359060200190929190505050612a1d565b005b3480156107ab57600080fd5b506107b4613002565b005b3480156107c257600080fd5b506107cb6130d4565b604051808215151515815260200191505060405180910390f35b3480156107f157600080fd5b5061081e6004803603602081101561080857600080fd5b81019080803590602001909291905050506130e7565b6040518080602001828103825283818151815260200191508051906020019060200280838360005b83811015610861578082015181840152602081019050610846565b505050509050019250505060405180910390f35b34801561088157600080fd5b5061088a613152565b6040518080602001828103825283818151815260200191508051906020019080838360005b838110156108ca5780820151818401526020810190506108af565b50505050905090810190601f1680156108f75780820380516001836020036101000a031916815260200191505b509250505060405180910390f35b34801561091157600080fd5b5061093e6004803603602081101561092857600080fd5b81019080803590602001909291905050506131f0565b6040518080602001828103825283818151815260200191508051906020019060200280838360005b83811015610981578082015181840152602081019050610966565b505050509050019250505060405180910390f35b3480156109a157600080fd5b506109aa61325b565b6040518080602001828103825283818151815260200191508051906020019080838360005b838110156109ea5780820151818401526020810190506109cf565b50505050905090810190601f168015610a175780820380516001836020036101000a031916815260200191505b509250505060405180910390f35b348015610a3157600080fd5b50610a3a6132f9565b604051808273ffffffffffffffffffffffffffffffffffffffff1673ffffffffffffffffffffffffffffffffffffffff16815260200191505060405180910390f35b348015610a8857600080fd5b50610a91613322565b604051808215151515815260200191505060405180910390f35b348015610ab757600080fd5b50610ac0613335565b604051808215151515815260200191505060405180910390f35b348015610ae657600080fd5b50610b1360048036036020811015610afd57600080fd5b810190808035906020019092919050505061338c565b6040518088815260200187815260200186815260200185151515158152602001848152602001836003811115610b4557fe5b60ff16815260200182815260200197505050505050505060405180910390f35b348015610b7157600080fd5b50610c3f60048036036060811015610b8857600080fd5b81019080803590602001909291908035906020019092919080359060200190640100000000811115610bb957600080fd5b820183602082011115610bcb57600080fd5b80359060200191846001830284011164010000000083111715610bed57600080fd5b91908080601f016020809104026020016040519081016040528093929190818152602001838380828437600081840152601f19601f8201169050808301925050505050505091929192905050506134b1565b604051808215151515815260200191505060405180910390f35b348015610c6557600080fd5b50610d2960048036036040811015610c7c57600080fd5b810190808035906020019092919080359060200190640100000000811115610ca357600080fd5b820183602082011115610cb557600080fd5b80359060200191846001830284011164010000000083111715610cd757600080fd5b91908080601f016020809104026020016040519081016040528093929190818152602001838380828437600081840152601f19601f8201169050808301925050505050505091929192905050506135a5565b604051808215151515815260200191505060405180910390f35b348015610d4f57600080fd5b50610d7c60048036036020811015610d6657600080fd5b8101908080359060200190929190505050613698565b6040518080602001866007811115610d9057fe5b60ff16815260200185815260200184815260200180602001838103835288818151815260200191508051906020019080838360005b83811015610de0578082015181840152602081019050610dc5565b50505050905090810190601f168015610e0d5780820380516001836020036101000a031916815260200191505b50838103825284818151815260200191508051906020019060200280838360005b83811015610e49578082015181840152602081019050610e2e565b5050505090500197505050505050505060405180910390f35b348015610e6e57600080fd5b50610ea560048036036040811015610e8557600080fd5b810190808035906020019092919080359060200190929190505050613852565b6040518082815260200191505060405180910390f35b348015610ec757600080fd5b50610f0a60048036036020811015610ede57600080fd5b81019080803573ffffffffffffffffffffffffffffffffffffffff169060200190929190505050613882565b005b348015610f1857600080fd5b50610f4f60048036036040811015610f2f57600080fd5b8101908080359060200190929190803590602001909291905050506138d9565b005b348015610f5d57600080fd5b50610f9e60048036036060811015610f7457600080fd5b8101908080359060200190929190803590602001909291908035906020019092919050505061421b565b005b348015610fac57600080fd5b50610fd960048036036020811015610fc357600080fd5b8101908080359060200190929190505050614b29565b005b348015610fe757600080fd5b5061101e60048036036040811015610ffe57600080fd5b810190808035906020019092919080359060200190929190505050614f20565b6040518082815260200191505060405180910390f35b34801561104057600080fd5b5061106d6004803603602081101561105757600080fd5b8101908080359060200190929190505050614f50565b005b34801561107b57600080fd5b506110be6004803603602081101561109257600080fd5b81019080803573ffffffffffffffffffffffffffffffffffffffff169060200190929190505050615609565b005b3480156110cc57600080fd5b506110d5615628565b604051808273ffffffffffffffffffffffffffffffffffffffff1673ffffffffffffffffffffffffffffffffffffffff16815260200191505060405180910390f35b6000600360009054906101000a900473ffffffffffffffffffffffffffffffffffffffff16905060008173ffffffffffffffffffffffffffffffffffffffff1663a759ee6f6040518163ffffffff167c0100000000000000000000000000000000000000000000000000000000028152600401602060405180830381600087803b1580156111a457600080fd5b505af11580156111b8573d6000803e3d6000fd5b505050506040513d60208110156111ce57600080fd5b8101908080519060200190929190505050905060008173ffffffffffffffffffffffffffffffffffffffff166305c62c2f336040518263ffffffff167c0100000000000000000000000000000000000000000000000000000000028152600401808273ffffffffffffffffffffffffffffffffffffffff1673ffffffffffffffffffffffffffffffffffffffff16815260200191505060206040518083038186803b15801561127c57600080fd5b505afa158015611290573d6000803e3d6000fd5b505050506040513d60208110156112a657600080fd5b810190808051906020019092919050505090508173ffffffffffffffffffffffffffffffffffffffff1663d4b1cdcc82306040518363ffffffff167c0100000000000000000000000000000000000000000000000000000000028152600401808381526020018273ffffffffffffffffffffffffffffffffffffffff1673ffffffffffffffffffffffffffffffffffffffff1681526020019250505060206040518083038186803b15801561135a57600080fd5b505afa15801561136e573d6000803e3d6000fd5b505050506040513d602081101561138457600080fd5b8101908080519060200190929190505050151561142f576040517f08c379a00000000000000000000000000000000000000000000000000000000081526004018080602001828103825260228152602001807f5468652045494e20686173206e6f74207365742074686973207265736f6c766581526020017f722e00000000000000000000000000000000000000000000000000000000000081525060400191505060405180910390fd5b8060048681548110151561143f57fe5b90600052602060002090600e0201600301541415156114c6576040517f08c379a000000000000000000000000000000000000000000000000000000000815260040180806020018281038252601a8152602001807f53656e646572206973206e6f7420746865206d65726368616e7400000000000081525060200191505060405180910390fd5b600060078111156114d357fe5b6004868154811015156114e257fe5b90600052602060002090600e020160010160009054906101000a900460ff16600781111561150c57fe5b1415156115a7576040517f08c379a00000000000000000000000000000000000000000000000000000000081526004018080602001828103825260238152602001807f5468697320696e766f696365206973206e6f74206120647261667420616e796d81526020017f6f7265000000000000000000000000000000000000000000000000000000000081525060400191505060405180910390fd5b836004868154811015156115b757fe5b90600052602060002090600e020160040190805190602001906115db9291906157ba565b505050505050565b6060806004838154811015156115f557fe5b90600052602060002090600e0201600c0160048481548110151561161557fe5b90600052602060002090600e0201600d01818054600181600116156101000203166002900480601f0160208091040260200160405190810160405280929190818152602001828054600181600116156101000203166002900480156116bb5780601f10611690576101008083540402835291602001916116bb565b820191906000526020600020905b81548152906001019060200180831161169e57829003601f168201915b50505050509150808054600181600116156101000203166002900480601f0160208091040260200160405190810160405280929190818152602001828054600181600116156101000203166002900480156117575780601f1061172c57610100808354040283529160200191611757565b820191906000526020600020905b81548152906001019060200180831161173a57829003601f168201915b5050505050905091509150915091565b6000600360009054906101000a900473ffffffffffffffffffffffffffffffffffffffff16905060008173ffffffffffffffffffffffffffffffffffffffff1663a759ee6f6040518163ffffffff167c0100000000000000000000000000000000000000000000000000000000028152600401602060405180830381600087803b1580156117f457600080fd5b505af1158015611808573d6000803e3d6000fd5b505050506040513d602081101561181e57600080fd5b8101908080519060200190929190505050905060008173ffffffffffffffffffffffffffffffffffffffff166305c62c2f336040518263ffffffff167c0100000000000000000000000000000000000000000000000000000000028152600401808273ffffffffffffffffffffffffffffffffffffffff1673ffffffffffffffffffffffffffffffffffffffff16815260200191505060206040518083038186803b1580156118cc57600080fd5b505afa1580156118e0573d6000803e3d6000fd5b505050506040513d60208110156118f657600080fd5b810190808051906020019092919050505090508173ffffffffffffffffffffffffffffffffffffffff1663d4b1cdcc82306040518363ffffffff167c0100000000000000000000000000000000000000000000000000000000028152600401808381526020018273ffffffffffffffffffffffffffffffffffffffff1673ffffffffffffffffffffffffffffffffffffffff1681526020019250505060206040518083038186803b1580156119aa57600080fd5b505afa1580156119be573d6000803e3d6000fd5b505050506040513d60208110156119d457600080fd5b81019080805190602001909291905050501515611a7f576040517f08c379a00000000000000000000000000000000000000000000000000000000081526004018080602001828103825260228152602001807f5468652045494e20686173206e6f74207365742074686973207265736f6c766581526020017f722e00000000000000000000000000000000000000000000000000000000000081525060400191505060405180910390fd5b60011515611afb600487815481101515611a9557fe5b90600052602060002090600e0201600401805480602002602001604051908101604052809291908181526020018280548015611af057602002820191906000526020600020905b815481526020019060010190808311611adc575b50505050508361564e565b1515141515611b72576040517f08c379a000000000000000000000000000000000000000000000000000000000815260040180806020018281038252601c8152602001807f5468652073656e646572206973206e6f74206120637573746f6d65720000000081525060200191505060405180910390fd5b60026007811115611b7f57fe5b600486815481101515611b8e57fe5b90600052602060002090600e020160010160009054906101000a900460ff166007811115611bb857fe5b1480611c07575060036007811115611bcc57fe5b600486815481101515611bdb57fe5b90600052602060002090600e020160010160009054906101000a900460ff166007811115611c0557fe5b145b80611c55575060046007811115611c1a57fe5b600486815481101515611c2957fe5b90600052602060002090600e020160010160009054906101000a900460ff166007811115611c5357fe5b145b1515611cef576040517f08c379a00000000000000000000000000000000000000000000000000000000081526004018080602001828103825260288152602001807f4120646973707574652063616e6e6f742062652063726561746564206174207481526020017f6869732074696d6500000000000000000000000000000000000000000000000081525060400191505060405180910390fd5b6007600486815481101515611d0057fe5b90600052602060002090600e020160010160006101000a81548160ff02191690836007811115611d2c57fe5b02179055507fda2b47ca81efa39af14f6da32aaa2f6c15fefefb2c4860a7a67cb5cb3f81bd4a8582866040518084815260200183815260200180602001828103825283818151815260200191508051906020019080838360005b83811015611da1578082015181840152602081019050611d86565b50505050905090810190601f168015611dce5780820380516001836020036101000a031916815260200191505b5094505050505060405180910390a15050505050565b6000600360009054906101000a900473ffffffffffffffffffffffffffffffffffffffff16905060008173ffffffffffffffffffffffffffffffffffffffff1663a759ee6f6040518163ffffffff167c0100000000000000000000000000000000000000000000000000000000028152600401602060405180830381600087803b158015611e7157600080fd5b505af1158015611e85573d6000803e3d6000fd5b505050506040513d6020811015611e9b57600080fd5b8101908080519060200190929190505050905060008173ffffffffffffffffffffffffffffffffffffffff166305c62c2f336040518263ffffffff167c0100000000000000000000000000000000000000000000000000000000028152600401808273ffffffffffffffffffffffffffffffffffffffff1673ffffffffffffffffffffffffffffffffffffffff16815260200191505060206040518083038186803b158015611f4957600080fd5b505afa158015611f5d573d6000803e3d6000fd5b505050506040513d6020811015611f7357600080fd5b810190808051906020019092919050505090508173ffffffffffffffffffffffffffffffffffffffff1663d4b1cdcc82306040518363ffffffff167c0100000000000000000000000000000000000000000000000000000000028152600401808381526020018273ffffffffffffffffffffffffffffffffffffffff1673ffffffffffffffffffffffffffffffffffffffff1681526020019250505060206040518083038186803b15801561202757600080fd5b505afa15801561203b573d6000803e3d6000fd5b505050506040513d602081101561205157600080fd5b810190808051906020019092919050505015156120fc576040517f08c379a00000000000000000000000000000000000000000000000000000000081526004018080602001828103825260228152602001807f5468652045494e20686173206e6f74207365742074686973207265736f6c766581526020017f722e00000000000000000000000000000000000000000000000000000000000081525060400191505060405180910390fd5b8060048581548110151561210c57fe5b90600052602060002090600e020160030154141515612193576040517f08c379a000000000000000000000000000000000000000000000000000000000815260040180806020018281038252601a8152602001807f53656e646572206973206e6f7420746865206d65726368616e7400000000000081525060200191505060405180910390fd5b600060078111156121a057fe5b6004858154811015156121af57fe5b90600052602060002090600e020160010160009054906101000a900460ff1660078111156121d957fe5b141515612274576040517f08c379a00000000000000000000000000000000000000000000000000000000081526004018080602001828103825260238152602001807f5468697320696e766f696365206973206e6f74206120647261667420616e796d81526020017f6f7265000000000000000000000000000000000000000000000000000000000081525060400191505060405180910390fd5b600060048581548110151561228557fe5b90600052602060002090600e020160040180549050111515612335576040517f08c379a00000000000000000000000000000000000000000000000000000000081526004018080602001828103825260278152602001807f5468697320696e766f69636520646f6573206e6f74206861766520616e79206381526020017f7573746f6d65720000000000000000000000000000000000000000000000000081525060400191505060405180910390fd5b60008090505b60048581548110151561234a57fe5b90600052602060002090600e0201600401805490508110156123e5576006600060048781548110151561237957fe5b90600052602060002090600e02016004018381548110151561239757fe5b9060005260206000200154815260200190815260200160002085908060018154018082558091505090600182039060005260206000200160009091929091909150555060018101905061233b565b5060016004858154811015156123f757fe5b90600052602060002090600e020160010160006101000a81548160ff0219169083600781111561242357fe5b021790555050505050565b6000600360009054906101000a900473ffffffffffffffffffffffffffffffffffffffff16905060008173ffffffffffffffffffffffffffffffffffffffff1663a759ee6f6040518163ffffffff167c0100000000000000000000000000000000000000000000000000000000028152600401602060405180830381600087803b1580156124bb57600080fd5b505af11580156124cf573d6000803e3d6000fd5b505050506040513d60208110156124e557600080fd5b8101908080519060200190929190505050905060008173ffffffffffffffffffffffffffffffffffffffff166305c62c2f336040518263ffffffff167c0100000000000000000000000000000000000000000000000000000000028152600401808273ffffffffffffffffffffffffffffffffffffffff1673ffffffffffffffffffffffffffffffffffffffff16815260200191505060206040518083038186803b15801561259357600080fd5b505afa1580156125a7573d6000803e3d6000fd5b505050506040513d60208110156125bd57600080fd5b810190808051906020019092919050505090508173ffffffffffffffffffffffffffffffffffffffff1663d4b1cdcc82306040518363ffffffff167c0100000000000000000000000000000000000000000000000000000000028152600401808381526020018273ffffffffffffffffffffffffffffffffffffffff1673ffffffffffffffffffffffffffffffffffffffff1681526020019250505060206040518083038186803b15801561267157600080fd5b505afa158015612685573d6000803e3d6000fd5b505050506040513d602081101561269b57600080fd5b81019080805190602001909291905050501515612746576040517f08c379a00000000000000000000000000000000000000000000000000000000081526004018080602001828103825260228152602001807f5468652045494e20686173206e6f74207365742074686973207265736f6c766581526020017f722e00000000000000000000000000000000000000000000000000000000000081525060400191505060405180910390fd5b8060048c81548110151561275657fe5b90600052602060002090600e0201600301541415156127dd576040517f08c379a000000000000000000000000000000000000000000000000000000000815260040180806020018281038252601a8152602001807f53656e646572206973206e6f7420746865206d65726368616e7400000000000081525060200191505060405180910390fd5b600060078111156127ea57fe5b60048c8154811015156127f957fe5b90600052602060002090600e020160010160009054906101000a900460ff16600781111561282357fe5b1415156128be576040517f08c379a00000000000000000000000000000000000000000000000000000000081526004018080602001828103825260238152602001807f5468697320696e766f696365206973206e6f74206120647261667420616e796d81526020017f6f7265000000000000000000000000000000000000000000000000000000000081525060400191505060405180910390fd5b8960048c8154811015156128ce57fe5b90600052602060002090600e0201600501819055508860048c8154811015156128f357fe5b90600052602060002090600e020160080160006101000a81548160ff0219169083151502179055508760048c81548110151561292b57fe5b90600052602060002090600e0201600901819055508660048c81548110151561295057fe5b90600052602060002090600e0201600a0160006101000a81548160ff0219169083600381111561297c57fe5b02179055508560048c81548110151561299157fe5b90600052602060002090600e0201600b01819055508460048c8154811015156129b657fe5b90600052602060002090600e0201600c0190805190602001906129da929190615807565b508360048c8154811015156129eb57fe5b90600052602060002090600e0201600d019080519060200190612a0f929190615807565b505050505050505050505050565b6000600360009054906101000a900473ffffffffffffffffffffffffffffffffffffffff16905060008173ffffffffffffffffffffffffffffffffffffffff1663a759ee6f6040518163ffffffff167c0100000000000000000000000000000000000000000000000000000000028152600401602060405180830381600087803b158015612aaa57600080fd5b505af1158015612abe573d6000803e3d6000fd5b505050506040513d6020811015612ad457600080fd5b8101908080519060200190929190505050905060008173ffffffffffffffffffffffffffffffffffffffff166305c62c2f336040518263ffffffff167c0100000000000000000000000000000000000000000000000000000000028152600401808273ffffffffffffffffffffffffffffffffffffffff1673ffffffffffffffffffffffffffffffffffffffff16815260200191505060206040518083038186803b158015612b8257600080fd5b505afa158015612b96573d6000803e3d6000fd5b505050506040513d6020811015612bac57600080fd5b810190808051906020019092919050505090508173ffffffffffffffffffffffffffffffffffffffff1663d4b1cdcc82306040518363ffffffff167c0100000000000000000000000000000000000000000000000000000000028152600401808381526020018273ffffffffffffffffffffffffffffffffffffffff1673ffffffffffffffffffffffffffffffffffffffff1681526020019250505060206040518083038186803b158015612c6057600080fd5b505afa158015612c74573d6000803e3d6000fd5b505050506040513d6020811015612c8a57600080fd5b81019080805190602001909291905050501515612d35576040517f08c379a00000000000000000000000000000000000000000000000000000000081526004018080602001828103825260228152602001807f5468652045494e20686173206e6f74207365742074686973207265736f6c766581526020017f722e00000000000000000000000000000000000000000000000000000000000081525060400191505060405180910390fd5b6000600160046101c0604051908101604052808e815260200160006007811115612d5b57fe5b81526020014281526020018581526020018d81526020018c815260200160008152602001600081526020018b151581526020018a8152602001896003811115612da057fe5b81526020018881526020016020604051908101604052806000815250815260200160206040519081016040528060008152508152509080600181540180825580915050906001820390600052602060002090600e0201600090919290919091506000820151816000019080519060200190612e1c929190615887565b5060208201518160010160006101000a81548160ff02191690836007811115612e4157fe5b021790555060408201518160020155606082015181600301556080820151816004019080519060200190612e76929190615907565b5060a0820151816005015560c0820151816006015560e082015181600701556101008201518160080160006101000a81548160ff021916908315150217905550610120820151816009015561014082015181600a0160006101000a81548160ff02191690836003811115612ee657fe5b021790555061016082015181600b015561018082015181600c019080519060200190612f13929190615887565b506101a082015181600d019080519060200190612f31929190615887565b50505003905060056000838152602001908152602001600020819080600181540180825580915050906001820390600052602060002001600090919290919091505550817fc2be63215caeaf7067f09b90e7aaa982b22754c3915bad2db6556877ce8f5a5c828c6040518083815260200180602001828103825283818151815260200191508051906020019060200280838360005b83811015612fe1578082015181840152602081019050612fc6565b50505050905001935050505060405180910390a25050505050505050505050565b61300a613335565b151561301557600080fd5b600073ffffffffffffffffffffffffffffffffffffffff166000809054906101000a900473ffffffffffffffffffffffffffffffffffffffff1673ffffffffffffffffffffffffffffffffffffffff167f8be0079c531659141344cd1fd0a4f28419497f9722a3daafe3b4186f6b6457e060405160405180910390a360008060006101000a81548173ffffffffffffffffffffffffffffffffffffffff021916908373ffffffffffffffffffffffffffffffffffffffff160217905550565b600360149054906101000a900460ff1681565b60606006600083815260200190815260200160002080548060200260200160405190810160405280929190818152602001828054801561314657602002820191906000526020600020905b815481526020019060010190808311613132575b50505050509050919050565b60028054600181600116156101000203166002900480601f0160208091040260200160405190810160405280929190818152602001828054600181600116156101000203166002900480156131e85780601f106131bd576101008083540402835291602001916131e8565b820191906000526020600020905b8154815290600101906020018083116131cb57829003601f168201915b505050505081565b60606005600083815260200190815260200160002080548060200260200160405190810160405280929190818152602001828054801561324f57602002820191906000526020600020905b81548152602001906001019080831161323b575b50505050509050919050565b60018054600181600116156101000203166002900480601f0160208091040260200160405190810160405280929190818152602001828054600181600116156101000203166002900480156132f15780601f106132c6576101008083540402835291602001916132f1565b820191906000526020600020905b8154815290600101906020018083116132d457829003601f168201915b505050505081565b60008060009054906101000a900473ffffffffffffffffffffffffffffffffffffffff16905090565b600360159054906101000a900460ff1681565b60008060009054906101000a900473ffffffffffffffffffffffffffffffffffffffff1673ffffffffffffffffffffffffffffffffffffffff163373ffffffffffffffffffffffffffffffffffffffff1614905090565b60008060008060008060006004888154811015156133a657fe5b90600052602060002090600e0201600501546004898154811015156133c757fe5b90600052602060002090600e02016006015460048a8154811015156133e857fe5b90600052602060002090600e02016007015460048b81548110151561340957fe5b90600052602060002090600e020160080160009054906101000a900460ff1660048c81548110151561343757fe5b90600052602060002090600e02016009015460048d81548110151561345857fe5b90600052602060002090600e0201600a0160009054906101000a900460ff1660048e81548110151561348657fe5b90600052602060002090600e0201600b01549650965096509650965096509650919395979092949650565b6000600360009054906101000a900473ffffffffffffffffffffffffffffffffffffffff1673ffffffffffffffffffffffffffffffffffffffff163373ffffffffffffffffffffffffffffffffffffffff1614151561359e576040517f08c379a00000000000000000000000000000000000000000000000000000000081526004018080602001828103825260218152602001807f446964206e6f74206f726967696e6174652066726f6d20536e6f77666c616b6581526020017f2e0000000000000000000000000000000000000000000000000000000000000081525060400191505060405180910390fd5b9392505050565b6000600360009054906101000a900473ffffffffffffffffffffffffffffffffffffffff1673ffffffffffffffffffffffffffffffffffffffff163373ffffffffffffffffffffffffffffffffffffffff16141515613692576040517f08c379a00000000000000000000000000000000000000000000000000000000081526004018080602001828103825260218152602001807f446964206e6f74206f726967696e6174652066726f6d20536e6f77666c616b6581526020017f2e0000000000000000000000000000000000000000000000000000000000000081525060400191505060405180910390fd5b92915050565b6060600080600060606004868154811015156136b057fe5b90600052602060002090600e02016000016004878154811015156136d057fe5b90600052602060002090600e020160010160009054906101000a900460ff166004888154811015156136fe57fe5b90600052602060002090600e02016002015460048981548110151561371f57fe5b90600052602060002090600e02016003015460048a81548110151561374057fe5b90600052602060002090600e0201600401848054600181600116156101000203166002900480601f0160208091040260200160405190810160405280929190818152602001828054600181600116156101000203166002900480156137e65780601f106137bb576101008083540402835291602001916137e6565b820191906000526020600020905b8154815290600101906020018083116137c957829003601f168201915b505050505094508080548060200260200160405190810160405280929190818152602001828054801561383857602002820191906000526020600020905b815481526020019060010190808311613824575b505050505090509450945094509450945091939590929450565b60066020528160005260406000208181548110151561386d57fe5b90600052602060002001600091509150505481565b61388a613335565b151561389557600080fd5b80600360006101000a81548173ffffffffffffffffffffffffffffffffffffffff021916908373ffffffffffffffffffffffffffffffffffffffff16021790555050565b6000600360009054906101000a900473ffffffffffffffffffffffffffffffffffffffff16905060008173ffffffffffffffffffffffffffffffffffffffff1663a759ee6f6040518163ffffffff167c0100000000000000000000000000000000000000000000000000000000028152600401602060405180830381600087803b15801561396657600080fd5b505af115801561397a573d6000803e3d6000fd5b505050506040513d602081101561399057600080fd5b8101908080519060200190929190505050905060008173ffffffffffffffffffffffffffffffffffffffff166305c62c2f336040518263ffffffff167c0100000000000000000000000000000000000000000000000000000000028152600401808273ffffffffffffffffffffffffffffffffffffffff1673ffffffffffffffffffffffffffffffffffffffff16815260200191505060206040518083038186803b158015613a3e57600080fd5b505afa158015613a52573d6000803e3d6000fd5b505050506040513d6020811015613a6857600080fd5b810190808051906020019092919050505090508173ffffffffffffffffffffffffffffffffffffffff1663d4b1cdcc82306040518363ffffffff167c0100000000000000000000000000000000000000000000000000000000028152600401808381526020018273ffffffffffffffffffffffffffffffffffffffff1673ffffffffffffffffffffffffffffffffffffffff1681526020019250505060206040518083038186803b158015613b1c57600080fd5b505afa158015613b30573d6000803e3d6000fd5b505050506040513d6020811015613b4657600080fd5b81019080805190602001909291905050501515613bf1576040517f08c379a00000000000000000000000000000000000000000000000000000000081526004018080602001828103825260228152602001807f5468652045494e20686173206e6f74207365742074686973207265736f6c766581526020017f722e00000000000000000000000000000000000000000000000000000000000081525060400191505060405180910390fd5b60011515613c6d600487815481101515613c0757fe5b90600052602060002090600e0201600401805480602002602001604051908101604052809291908181526020018280548015613c6257602002820191906000526020600020905b815481526020019060010190808311613c4e575b50505050508361564e565b1515141515613ce4576040517f08c379a000000000000000000000000000000000000000000000000000000000815260040180806020018281038252601a8152602001807f53656e646572206973206e6f742074686520637573746f6d657200000000000081525060200191505060405180910390fd5b60016007811115613cf157fe5b600486815481101515613d0057fe5b90600052602060002090600e020160010160009054906101000a900460ff166007811115613d2a57fe5b1480613d79575060026007811115613d3e57fe5b600486815481101515613d4d57fe5b90600052602060002090600e020160010160009054906101000a900460ff166007811115613d7757fe5b145b1515613e13576040517f08c379a00000000000000000000000000000000000000000000000000000000081526004018080602001828103825260238152602001807f5468697320696e766f6963652063616e6e6f74206265207061696420616e796d81526020017f6f7265000000000000000000000000000000000000000000000000000000000081525060400191505060405180910390fd5b60001515600486815481101515613e2657fe5b90600052602060002090600e020160080160009054906101000a900460ff1615151415613f0f57600485815481101515613e5c57fe5b90600052602060002090600e02016005015484141515613f0a576040517f08c379a00000000000000000000000000000000000000000000000000000000081526004018080602001828103825260268152602001807f496e766f69636520646f6573206e6f7420616c6c6f77207061727469616c207081526020017f61796d656e74000000000000000000000000000000000000000000000000000081525060400191505060405180910390fd5b613fa8565b600485815481101515613f1e57fe5b90600052602060002090600e0201600901548410151515613fa7576040517f08c379a000000000000000000000000000000000000000000000000000000000815260040180806020018281038252601d8152602001807f53656e7420616d6f756e74206973206e6f742073756666696369656e7400000081525060200191505060405180910390fd5b5b613fd284600487815481101515613fbb57fe5b90600052602060002090600e02016006015461569f565b600486815481101515613fe157fe5b90600052602060002090600e02016006018190555060048581548110151561400557fe5b90600052602060002090600e02016005015460048681548110151561402657fe5b90600052602060002090600e02016006015410151561408657600360048681548110151561405057fe5b90600052602060002090600e020160010160006101000a81548160ff0219169083600781111561407c57fe5b0217905550614116565b6001600781111561409357fe5b6004868154811015156140a257fe5b90600052602060002090600e020160010160009054906101000a900460ff1660078111156140cc57fe5b14156141155760026004868154811015156140e357fe5b90600052602060002090600e020160010160006101000a81548160ff0219169083600781111561410f57fe5b02179055505b5b7f21dcbdd4ab9cb7d450a8a9989c24ef1a6512d56bde09236bcada253c33bf21e585828660405180848152602001838152602001828152602001935050505060405180910390a18273ffffffffffffffffffffffffffffffffffffffff166309164f9c8260048881548110151561418957fe5b90600052602060002090600e020160030154876040518463ffffffff167c0100000000000000000000000000000000000000000000000000000000028152600401808481526020018381526020018281526020019350505050600060405180830381600087803b1580156141fc57600080fd5b505af1158015614210573d6000803e3d6000fd5b505050505050505050565b6000600360009054906101000a900473ffffffffffffffffffffffffffffffffffffffff16905060008173ffffffffffffffffffffffffffffffffffffffff1663a759ee6f6040518163ffffffff167c0100000000000000000000000000000000000000000000000000000000028152600401602060405180830381600087803b1580156142a857600080fd5b505af11580156142bc573d6000803e3d6000fd5b505050506040513d60208110156142d257600080fd5b8101908080519060200190929190505050905060008173ffffffffffffffffffffffffffffffffffffffff166305c62c2f336040518263ffffffff167c0100000000000000000000000000000000000000000000000000000000028152600401808273ffffffffffffffffffffffffffffffffffffffff1673ffffffffffffffffffffffffffffffffffffffff16815260200191505060206040518083038186803b15801561438057600080fd5b505afa158015614394573d6000803e3d6000fd5b505050506040513d60208110156143aa57600080fd5b810190808051906020019092919050505090508173ffffffffffffffffffffffffffffffffffffffff1663d4b1cdcc82306040518363ffffffff167c0100000000000000000000000000000000000000000000000000000000028152600401808381526020018273ffffffffffffffffffffffffffffffffffffffff1673ffffffffffffffffffffffffffffffffffffffff1681526020019250505060206040518083038186803b15801561445e57600080fd5b505afa158015614472573d6000803e3d6000fd5b505050506040513d602081101561448857600080fd5b81019080805190602001909291905050501515614533576040517f08c379a00000000000000000000000000000000000000000000000000000000081526004018080602001828103825260228152602001807f5468652045494e20686173206e6f74207365742074686973207265736f6c766581526020017f722e00000000000000000000000000000000000000000000000000000000000081525060400191505060405180910390fd5b8060048781548110151561454357fe5b90600052602060002090600e0201600301541415156145ca576040517f08c379a000000000000000000000000000000000000000000000000000000000815260040180806020018281038252601a8152602001807f53656e646572206973206e6f7420746865206d65726368616e7400000000000081525060200191505060405180910390fd5b600260078111156145d757fe5b6004878154811015156145e657fe5b90600052602060002090600e020160010160009054906101000a900460ff16600781111561461057fe5b148061465f57506003600781111561462457fe5b60048781548110151561463357fe5b90600052602060002090600e020160010160009054906101000a900460ff16600781111561465d57fe5b145b806146ad57506004600781111561467257fe5b60048781548110151561468157fe5b90600052602060002090600e020160010160009054906101000a900460ff1660078111156146ab57fe5b145b806146fb5750600660078111156146c057fe5b6004878154811015156146cf57fe5b90600052602060002090600e020160010160009054906101000a900460ff1660078111156146f957fe5b145b80614748575060078081111561470d57fe5b60048781548110151561471c57fe5b90600052602060002090600e020160010160009054906101000a900460ff16600781111561474657fe5b145b15156147e2576040517f08c379a000000000000000000000000000000000000000000000000000000000815260040180806020018281038252602c8152602001807f5468697320696e766f6963652063616e6e6f7420626520726566756e6465642081526020017f617420746869732074696d65000000000000000000000000000000000000000081525060400191505060405180910390fd5b6001151561485e6004888154811015156147f857fe5b90600052602060002090600e020160040180548060200260200160405190810160405280929190818152602001828054801561485357602002820191906000526020600020905b81548152602001906001019080831161483f575b50505050508761564e565b15151415156148d5576040517f08c379a000000000000000000000000000000000000000000000000000000000815260040180806020018281038252601c8152602001807f5468652073656e646572206973206e6f74206120637573746f6d65720000000081525060200191505060405180910390fd5b6148ff6004878154811015156148e757fe5b90600052602060002090600e0201600701548561569f565b60048781548110151561490e57fe5b90600052602060002090600e02016007018190555060048681548110151561493257fe5b90600052602060002090600e02016005015460048781548110151561495357fe5b90600052602060002090600e0201600701541015156149b357600560048781548110151561497d57fe5b90600052602060002090600e020160010160006101000a81548160ff021916908360078111156149a957fe5b0217905550614a43565b600460078111156149c057fe5b6004878154811015156149cf57fe5b90600052602060002090600e020160010160009054906101000a900460ff1660078111156149f957fe5b141515614a425760048087815481101515614a1057fe5b90600052602060002090600e020160010160006101000a81548160ff02191690836007811115614a3c57fe5b02179055505b5b7f1ee75f95deb9227f1820c80490bf2d709a3ede43b874b8da80317534e918197786868660405180848152602001838152602001828152602001935050505060405180910390a18273ffffffffffffffffffffffffffffffffffffffff166309164f9c8287876040518463ffffffff167c0100000000000000000000000000000000000000000000000000000000028152600401808481526020018381526020018281526020019350505050600060405180830381600087803b158015614b0957600080fd5b505af1158015614b1d573d6000803e3d6000fd5b50505050505050505050565b6000600360009054906101000a900473ffffffffffffffffffffffffffffffffffffffff16905060008173ffffffffffffffffffffffffffffffffffffffff1663a759ee6f6040518163ffffffff167c0100000000000000000000000000000000000000000000000000000000028152600401602060405180830381600087803b158015614bb657600080fd5b505af1158015614bca573d6000803e3d6000fd5b505050506040513d6020811015614be057600080fd5b8101908080519060200190929190505050905060008173ffffffffffffffffffffffffffffffffffffffff166305c62c2f336040518263ffffffff167c0100000000000000000000000000000000000000000000000000000000028152600401808273ffffffffffffffffffffffffffffffffffffffff1673ffffffffffffffffffffffffffffffffffffffff16815260200191505060206040518083038186803b158015614c8e57600080fd5b505afa158015614ca2573d6000803e3d6000fd5b505050506040513d6020811015614cb857600080fd5b810190808051906020019092919050505090508173ffffffffffffffffffffffffffffffffffffffff1663d4b1cdcc82306040518363ffffffff167c0100000000000000000000000000000000000000000000000000000000028152600401808381526020018273ffffffffffffffffffffffffffffffffffffffff1673ffffffffffffffffffffffffffffffffffffffff1681526020019250505060206040518083038186803b158015614d6c57600080fd5b505afa158015614d80573d6000803e3d6000fd5b505050506040513d6020811015614d9657600080fd5b81019080805190602001909291905050501515614e41576040517f08c379a00000000000000000000000000000000000000000000000000000000081526004018080602001828103825260228152602001807f5468652045494e20686173206e6f74207365742074686973207265736f6c766581526020017f722e00000000000000000000000000000000000000000000000000000000000081525060400191505060405180910390fd5b80600485815481101515614e5157fe5b90600052602060002090600e020160030154141515614ed8576040517f08c379a000000000000000000000000000000000000000000000000000000000815260040180806020018281038252601a8152602001807f53656e646572206973206e6f7420746865206d65726368616e7400000000000081525060200191505060405180910390fd5b6006600485815481101515614ee957fe5b90600052602060002090600e020160010160006101000a81548160ff02191690836007811115614f1557fe5b021790555050505050565b600560205281600052604060002081815481101515614f3b57fe5b90600052602060002001600091509150505481565b6000600360009054906101000a900473ffffffffffffffffffffffffffffffffffffffff16905060008173ffffffffffffffffffffffffffffffffffffffff1663a759ee6f6040518163ffffffff167c0100000000000000000000000000000000000000000000000000000000028152600401602060405180830381600087803b158015614fdd57600080fd5b505af1158015614ff1573d6000803e3d6000fd5b505050506040513d602081101561500757600080fd5b8101908080519060200190929190505050905060008173ffffffffffffffffffffffffffffffffffffffff166305c62c2f336040518263ffffffff167c0100000000000000000000000000000000000000000000000000000000028152600401808273ffffffffffffffffffffffffffffffffffffffff1673ffffffffffffffffffffffffffffffffffffffff16815260200191505060206040518083038186803b1580156150b557600080fd5b505afa1580156150c9573d6000803e3d6000fd5b505050506040513d60208110156150df57600080fd5b810190808051906020019092919050505090508173ffffffffffffffffffffffffffffffffffffffff1663d4b1cdcc82306040518363ffffffff167c0100000000000000000000000000000000000000000000000000000000028152600401808381526020018273ffffffffffffffffffffffffffffffffffffffff1673ffffffffffffffffffffffffffffffffffffffff1681526020019250505060206040518083038186803b15801561519357600080fd5b505afa1580156151a7573d6000803e3d6000fd5b505050506040513d60208110156151bd57600080fd5b81019080805190602001909291905050501515615268576040517f08c379a00000000000000000000000000000000000000000000000000000000081526004018080602001828103825260228152602001807f5468652045494e20686173206e6f74207365742074686973207265736f6c766581526020017f722e00000000000000000000000000000000000000000000000000000000000081525060400191505060405180910390fd5b8060048581548110151561527857fe5b90600052602060002090600e0201600301541415156152ff576040517f08c379a00000000000000000000000000000000000000000000000000000000081526004018080602001828103825260188152602001807f53656e646572206973206e6f74207468652073656c6c6572000000000000000081525060200191505060405180910390fd5b60078081111561530b57fe5b60048581548110151561531a57fe5b90600052602060002090600e020160010160009054906101000a900460ff16600781111561534457fe5b1415156153b9576040517f08c379a000000000000000000000000000000000000000000000000000000000815260040180806020018281038252601b8152602001807f54686520696e766f696365206973206e6f74206469737075746564000000000081525060200191505060405180910390fd5b6004848154811015156153c857fe5b90600052602060002090600e0201600501546004858154811015156153e957fe5b90600052602060002090600e02016007015410151561544957600560048581548110151561541357fe5b90600052602060002090600e020160010160006101000a81548160ff0219169083600781111561543f57fe5b0217905550615603565b60048481548110151561545857fe5b90600052602060002090600e02016005015460048581548110151561547957fe5b90600052602060002090600e0201600701541080156154b8575060006004858154811015156154a457fe5b90600052602060002090600e020160070154115b1561550357600480858154811015156154cd57fe5b90600052602060002090600e020160010160006101000a81548160ff021916908360078111156154f957fe5b0217905550615602565b600060048581548110151561551457fe5b90600052602060002090600e020160070154148015615572575060048481548110151561553d57fe5b90600052602060002090600e02016005015460048581548110151561555e57fe5b90600052602060002090600e020160060154145b156155be57600360048581548110151561558857fe5b90600052602060002090600e020160010160006101000a81548160ff021916908360078111156155b457fe5b0217905550615601565b60026004858154811015156155cf57fe5b90600052602060002090600e020160010160006101000a81548160ff021916908360078111156155fb57fe5b02179055505b5b5b50505050565b615611613335565b151561561c57600080fd5b615625816156c0565b50565b600360009054906101000a900473ffffffffffffffffffffffffffffffffffffffff1681565b600080600090505b83518110156156935782848281518110151561566e57fe5b906020019060200201511415615688576001915050615699565b600181019050615656565b50600090505b92915050565b60008082840190508381101515156156b657600080fd5b8091505092915050565b600073ffffffffffffffffffffffffffffffffffffffff168173ffffffffffffffffffffffffffffffffffffffff16141515156156fc57600080fd5b8073ffffffffffffffffffffffffffffffffffffffff166000809054906101000a900473ffffffffffffffffffffffffffffffffffffffff1673ffffffffffffffffffffffffffffffffffffffff167f8be0079c531659141344cd1fd0a4f28419497f9722a3daafe3b4186f6b6457e060405160405180910390a3806000806101000a81548173ffffffffffffffffffffffffffffffffffffffff021916908373ffffffffffffffffffffffffffffffffffffffff16021790555050565b8280548282559060005260206000209081019282156157f6579160200282015b828111156157f55782518255916020019190600101906157da565b5b5090506158039190615954565b5090565b828054600181600116156101000203166002900490600052602060002090601f016020900481019282601f1061584857805160ff1916838001178555615876565b82800160010185558215615876579182015b8281111561587557825182559160200191906001019061585a565b5b5090506158839190615954565b5090565b828054600181600116156101000203166002900490600052602060002090601f016020900481019282601f106158c857805160ff19168380011785556158f6565b828001600101855582156158f6579182015b828111156158f55782518255916020019190600101906158da565b5b5090506159039190615954565b5090565b828054828255906000526020600020908101928215615943579160200282015b82811115615942578251825591602001919060010190615927565b5b5090506159509190615954565b5090565b61597691905b8082111561597257600081600090555060010161595a565b5090565b9056fea165627a7a72305820d530d6b08a2455ee204fdb73796c07296a1612d2091e5bd80a8625393f3b57910029",
  "source": "pragma solidity ^0.5.0;\n\nimport \"./SnowflakeResolver.sol\";\nimport \"./interfaces/IdentityRegistryInterface.sol\";\nimport \"./interfaces/HydroInterface.sol\";\nimport \"./interfaces/SnowflakeInterface.sol\";\nimport \"./zeppelin/math/SafeMath.sol\";\n\n\n/**\n * @title Invoicing\n * @notice Create invoices through Snowflake\n * @dev This contract is the base of the dapp\n * @author clemlak\n */\ncontract Invoicing is SnowflakeResolver {\n    /* Invoices can have several status, but only one at a time */\n    enum Status { Draft, Unpaid, PartiallyPaid, Paid, PartiallyRefunded, Refunded, Canceled, Disputed }\n\n    /* These are our payment terms */\n    enum Terms { DueOnReceipt, DueOnDate, NoDueDate, NetD }\n\n    /* This defines the invoices */\n    /* TODO: Tight pack this struct */\n    struct Invoice {\n        string id;\n        Status status;\n        uint256 date;\n        uint256 merchant;\n        uint256[] customers;\n        uint256 amount;\n        uint256 paidAmount;\n        uint256 refundedAmount;\n        bool allowPartialPayment;\n        uint256 minimumAmountDue;\n        Terms paymentTerm;\n        uint256 term;\n        string additionalTerms;\n        string note;\n    }\n\n    /* We store our invoices here */\n    Invoice[] private invoices;\n\n    /* We link the merchants to their invoices */\n    mapping (uint256 => uint256[]) public merchantsToInvoices;\n\n    /* We link the customers to their invoices */\n    mapping (uint256 => uint256[]) public customersToInvoices;\n\n    /**\n     * @dev Emitted when an invoice is created\n     * @param invoiceId The id of the new invoice\n     * @param merchant The ein of the merchant\n     * @param customers the ein of the customers\n     */\n    event LogInvoiceCreated(\n        uint256 invoiceId,\n        uint256 indexed merchant,\n        uint256[] customers\n    );\n\n    /**\n     * @dev Emitted when a payment is made\n     * @param invoiceId The id of the invoice\n     * @param customer The ein of the customer\n     * @param amount The paid amount\n     */\n    event LogPayment(uint256 invoiceId, uint256 customer, uint256 amount);\n\n    /**\n     * @dev Emitted when a refund is made\n     * @param invoiceId The id of the invoice\n     * @param customer The ein of the customer\n     * @param amount The refunded amount\n     */\n    event LogRefund(uint256 invoiceId, uint256 customer, uint256 amount);\n\n    /**\n     * @dev Emitted when a dispute is created\n     * @param invoiceId The id of the invoice\n     * @param customer The ein of the customer\n     * @param details The details of the dispute\n     */\n    event LogDisputeCreated(uint256 invoiceId, uint256 customer, string details);\n\n    constructor (address snowflakeAddress) public\n        SnowflakeResolver(\"Invoicing\", \"Create invoices\", snowflakeAddress, false, false) {}\n\n    function onAddition(uint /*ein*/, uint, bytes memory) public senderIsSnowflake() returns (bool) {}\n\n    function onRemoval(uint, bytes memory) public senderIsSnowflake() returns (bool) {}\n\n    /**\n     * @dev Creates a new draft invoice\n     * @param id A custom id for the invoice\n     * @param customers The ein of the customers (in an array)\n     * @param amount The amount of the invoice\n     * @param allowPartialPayment If partial payment is allowed\n     * @param minimumAmountDue The minimum amount for a payment\n     * @param paymentTerm The type of term of payment (DueOnReceipt, DueOnDate, NoDueDate, NetD)\n     * @param term The term of payment (in days or a timestamp)\n     */\n    function createDraftInvoice(\n        string memory id,\n        uint256[] memory customers,\n        uint256 amount,\n        bool allowPartialPayment,\n        uint256 minimumAmountDue,\n        Terms paymentTerm,\n        uint256 term\n    ) public {\n        SnowflakeInterface snowflake = SnowflakeInterface(snowflakeAddress);\n        IdentityRegistryInterface identityRegistry = IdentityRegistryInterface(snowflake.identityRegistryAddress());\n\n        uint256 ein = identityRegistry.getEIN(msg.sender);\n        require(identityRegistry.isResolverFor(ein, address(this)), \"The EIN has not set this resolver.\");\n\n        uint256 invoiceId = invoices.push(\n            Invoice({\n                id: id,\n                status: Status.Draft,\n                date: now,\n                merchant: ein,\n                customers: customers,\n                amount: amount,\n                paidAmount: 0,\n                refundedAmount: 0,\n                allowPartialPayment: allowPartialPayment,\n                minimumAmountDue: minimumAmountDue,\n                paymentTerm: paymentTerm,\n                term: term,\n                additionalTerms: \"\",\n                note: \"\"\n            })\n        ) - 1;\n\n        merchantsToInvoices[ein].push(invoiceId);\n\n        emit LogInvoiceCreated(invoiceId, ein, customers);\n    }\n\n    /**\n     * @dev Updates the customers of an invoice\n     * @param invoiceId The id of the invoice\n     * @param customers The updated customers list\n     */\n    function updateInvoiceCustomers(\n        uint256 invoiceId,\n        uint256[] memory customers\n    ) public {\n        SnowflakeInterface snowflake = SnowflakeInterface(snowflakeAddress);\n        IdentityRegistryInterface identityRegistry = IdentityRegistryInterface(snowflake.identityRegistryAddress());\n\n        uint256 ein = identityRegistry.getEIN(msg.sender);\n        require(identityRegistry.isResolverFor(ein, address(this)), \"The EIN has not set this resolver.\");\n\n        require(\n            invoices[invoiceId].merchant == ein,\n            \"Sender is not the merchant\"\n        );\n\n        require(\n            invoices[invoiceId].status == Status.Draft,\n            \"This invoice is not a draft anymore\"\n        );\n\n        invoices[invoiceId].customers = customers;\n    }\n\n    /**\n     * @dev Updates the payment data of an invoice\n     * @param invoiceId The id of the invoice (given by the smart-contract)\n     * @param amount The amount of the invoice\n     * @param allowPartialPayment If partial payment is allowed\n     * @param minimumAmountDue The minimum amount for a payment\n     * @param paymentTerm The type of term of payment\n     * @param term The term of payment, in days or a timestamp\n     * @param additionalTerms Additional terms (as a string)\n     * @param note Additional note (as a string)\n     */\n    function updateInvoicePayment(\n        uint256 invoiceId,\n        uint256 amount,\n        bool allowPartialPayment,\n        uint256 minimumAmountDue,\n        Terms paymentTerm,\n        uint256 term,\n        string memory additionalTerms,\n        string memory note\n    ) public {\n        SnowflakeInterface snowflake = SnowflakeInterface(snowflakeAddress);\n        IdentityRegistryInterface identityRegistry = IdentityRegistryInterface(snowflake.identityRegistryAddress());\n\n        uint256 ein = identityRegistry.getEIN(msg.sender);\n        require(identityRegistry.isResolverFor(ein, address(this)), \"The EIN has not set this resolver.\");\n\n        require(\n            invoices[invoiceId].merchant == ein,\n            \"Sender is not the merchant\"\n        );\n\n        require(\n            invoices[invoiceId].status == Status.Draft,\n            \"This invoice is not a draft anymore\"\n        );\n\n        invoices[invoiceId].amount = amount;\n        invoices[invoiceId].allowPartialPayment = allowPartialPayment;\n        invoices[invoiceId].minimumAmountDue = minimumAmountDue;\n        invoices[invoiceId].paymentTerm = paymentTerm;\n        invoices[invoiceId].term = term;\n        invoices[invoiceId].additionalTerms = additionalTerms;\n        invoices[invoiceId].note = note;\n    }\n\n    /**\n     * @dev Validates an invoice (from draft to unpaid)\n     * @param invoiceId The id of the invoice (given by the smart-contract)\n     */\n    function validateInvoice(uint256 invoiceId) public {\n        SnowflakeInterface snowflake = SnowflakeInterface(snowflakeAddress);\n        IdentityRegistryInterface identityRegistry = IdentityRegistryInterface(snowflake.identityRegistryAddress());\n\n        uint256 ein = identityRegistry.getEIN(msg.sender);\n        require(identityRegistry.isResolverFor(ein, address(this)), \"The EIN has not set this resolver.\");\n\n        require(\n            invoices[invoiceId].merchant == ein,\n            \"Sender is not the merchant\"\n        );\n\n        require(\n            invoices[invoiceId].status == Status.Draft,\n            \"This invoice is not a draft anymore\"\n        );\n\n        require(\n            invoices[invoiceId].customers.length > 0,\n            \"This invoice does not have any customer\"\n        );\n\n        for (uint256 i = 0; i < invoices[invoiceId].customers.length; i += 1) {\n            customersToInvoices[invoices[invoiceId].customers[i]].push(invoiceId);\n        }\n\n        invoices[invoiceId].status = Status.Unpaid;\n    }\n\n    /**\n     * @dev Pays an invoice\n     * @param invoiceId The id of the invoice (given by the smart-contract)\n     * @param amount The amount used to pay\n     */\n    function payInvoice(uint256 invoiceId, uint256 amount) public {\n        SnowflakeInterface snowflake = SnowflakeInterface(snowflakeAddress);\n        IdentityRegistryInterface identityRegistry = IdentityRegistryInterface(snowflake.identityRegistryAddress());\n\n        uint256 ein = identityRegistry.getEIN(msg.sender);\n        require(identityRegistry.isResolverFor(ein, address(this)), \"The EIN has not set this resolver.\");\n\n        require(\n            includes(invoices[invoiceId].customers, ein) == true,\n            \"Sender is not the customer\"\n        );\n\n        require(\n            invoices[invoiceId].status == Status.Unpaid\n            || invoices[invoiceId].status == Status.PartiallyPaid,\n            \"This invoice cannot be paid anymore\"\n        );\n\n        if (invoices[invoiceId].allowPartialPayment == false) {\n            require(\n                amount == invoices[invoiceId].amount,\n                \"Invoice does not allow partial payment\"\n            );\n        } else {\n            require(\n                amount >= invoices[invoiceId].minimumAmountDue,\n                \"Sent amount is not sufficient\"\n            );\n        }\n\n        /* Should we prevent customers from paying more than expected?\n        require(\n            SafeMath.add(amount, invoices[invoiceId].paidAmount) <= invoices[invoiceId].amount,\n            \"Sent amount is too high\"\n        );\n        */\n\n        invoices[invoiceId].paidAmount = SafeMath.add(amount, invoices[invoiceId].paidAmount);\n\n        if (invoices[invoiceId].paidAmount >= invoices[invoiceId].amount) {\n            invoices[invoiceId].status = Status.Paid;\n        } else {\n            if (invoices[invoiceId].status == Status.Unpaid) {\n                invoices[invoiceId].status = Status.PartiallyPaid;\n            }\n        }\n\n        emit LogPayment(invoiceId, ein, amount);\n\n        snowflake.transferSnowflakeBalanceFrom(ein, invoices[invoiceId].merchant, amount);\n    }\n\n    /**\n     * @dev Refunds a customer\n     * @param invoiceId The id of the invoice (given by the smart-contract)\n     * @param customer The ein of the customer\n     * @param amount The amount to refund\n     */\n    function refundCustomer(uint256 invoiceId, uint256 customer, uint256 amount) public {\n        SnowflakeInterface snowflake = SnowflakeInterface(snowflakeAddress);\n        IdentityRegistryInterface identityRegistry = IdentityRegistryInterface(snowflake.identityRegistryAddress());\n\n        uint256 ein = identityRegistry.getEIN(msg.sender);\n        require(identityRegistry.isResolverFor(ein, address(this)), \"The EIN has not set this resolver.\");\n\n        require(\n            invoices[invoiceId].merchant == ein,\n            \"Sender is not the merchant\"\n        );\n\n        require(\n            invoices[invoiceId].status == Status.PartiallyPaid\n            || invoices[invoiceId].status == Status.Paid\n            || invoices[invoiceId].status == Status.PartiallyRefunded\n            || invoices[invoiceId].status == Status.Canceled\n            || invoices[invoiceId].status == Status.Disputed,\n            \"This invoice cannot be refunded at this time\"\n        );\n\n        require(\n            includes(invoices[invoiceId].customers, customer) == true,\n            \"The sender is not a customer\"\n        );\n\n        invoices[invoiceId].refundedAmount = SafeMath.add(invoices[invoiceId].refundedAmount, amount);\n\n        if (invoices[invoiceId].refundedAmount >= invoices[invoiceId].amount) {\n            invoices[invoiceId].status = Status.Refunded;\n        } else {\n            if (invoices[invoiceId].status != Status.PartiallyRefunded) {\n                invoices[invoiceId].status = Status.PartiallyRefunded;\n            }\n        }\n\n        emit LogRefund(invoiceId, customer, amount);\n\n        snowflake.transferSnowflakeBalanceFrom(ein, customer, amount);\n    }\n\n    /**\n     * @dev Cancels an invoice\n     * @param invoiceId The id of the invoice (given by the smart-contract)\n     */\n    function cancelInvoice(uint256 invoiceId) public {\n        SnowflakeInterface snowflake = SnowflakeInterface(snowflakeAddress);\n        IdentityRegistryInterface identityRegistry = IdentityRegistryInterface(snowflake.identityRegistryAddress());\n\n        uint256 ein = identityRegistry.getEIN(msg.sender);\n        require(identityRegistry.isResolverFor(ein, address(this)), \"The EIN has not set this resolver.\");\n\n        require(\n            invoices[invoiceId].merchant == ein,\n            \"Sender is not the merchant\"\n        );\n\n        invoices[invoiceId].status = Status.Canceled;\n    }\n\n    /**\n     * @dev Opens a dispute\n     * @param invoiceId The id of the invoice (given by the smart-contract)\n     * @param details The details of the dispute\n     */\n    function openDispute(uint256 invoiceId, string memory details) public {\n        SnowflakeInterface snowflake = SnowflakeInterface(snowflakeAddress);\n        IdentityRegistryInterface identityRegistry = IdentityRegistryInterface(snowflake.identityRegistryAddress());\n\n        uint256 ein = identityRegistry.getEIN(msg.sender);\n        require(identityRegistry.isResolverFor(ein, address(this)), \"The EIN has not set this resolver.\");\n\n        require(\n            includes(invoices[invoiceId].customers, ein) == true,\n            \"The sender is not a customer\"\n        );\n\n        require(\n            invoices[invoiceId].status == Status.PartiallyPaid\n            || invoices[invoiceId].status == Status.Paid\n            || invoices[invoiceId].status == Status.PartiallyRefunded,\n            \"A dispute cannot be created at this time\"\n        );\n\n        invoices[invoiceId].status = Status.Disputed;\n\n        emit LogDisputeCreated(invoiceId, ein, details);\n    }\n\n    /**\n     * @dev Closes a dispute\n     * @param invoiceId The id of the invoice (given by the smart-contract)\n     */\n    function closeDispute(uint256 invoiceId) public {\n        SnowflakeInterface snowflake = SnowflakeInterface(snowflakeAddress);\n        IdentityRegistryInterface identityRegistry = IdentityRegistryInterface(snowflake.identityRegistryAddress());\n\n        uint256 ein = identityRegistry.getEIN(msg.sender);\n        require(identityRegistry.isResolverFor(ein, address(this)), \"The EIN has not set this resolver.\");\n\n        require(\n            invoices[invoiceId].merchant == ein,\n            \"Sender is not the seller\"\n        );\n\n        require(\n            invoices[invoiceId].status == Status.Disputed,\n            \"The invoice is not disputed\"\n        );\n\n        if (invoices[invoiceId].refundedAmount >= invoices[invoiceId].amount) {\n            invoices[invoiceId].status = Status.Refunded;\n        } else if (invoices[invoiceId].refundedAmount < invoices[invoiceId].amount\n        && invoices[invoiceId].refundedAmount > 0) {\n            invoices[invoiceId].status = Status.PartiallyRefunded;\n        } else if (invoices[invoiceId].refundedAmount == 0\n        && invoices[invoiceId].paidAmount == invoices[invoiceId].amount) {\n            invoices[invoiceId].status = Status.Paid;\n        } else {\n            invoices[invoiceId].status = Status.PartiallyPaid;\n        }\n    }\n\n    /**\n     * @dev Gets invoice info\n     * @param invoiceId The id of the invoice (given by the smart-contract)\n     * @return The id, status, date, merchant and customers of an invoice\n     */\n    function getInvoiceInfo(uint256 invoiceId) public view returns (\n        string memory id,\n        Status status,\n        uint256 date,\n        uint256 merchant,\n        uint256[] memory customers\n    ) {\n        return (\n            invoices[invoiceId].id,\n            invoices[invoiceId].status,\n            invoices[invoiceId].date,\n            invoices[invoiceId].merchant,\n            invoices[invoiceId].customers\n        );\n    }\n\n    /**\n     * @dev Gets invoice details\n     * @param invoiceId The id of the invoice (given by the smart-contract)\n     * @return The amount, paidAmount, refundedAmount, allowPartialPayment, paymentTerm and term of the invoice\n     */\n    function getInvoiceDetails(uint256 invoiceId) public view returns (\n        uint256 amount,\n        uint256 paidAmount,\n        uint256 refundedAmount,\n        bool allowPartialPayment,\n        uint256 minimumAmountDue,\n        Terms paymentTerm,\n        uint256 term\n    ) {\n        return (\n            invoices[invoiceId].amount,\n            invoices[invoiceId].paidAmount,\n            invoices[invoiceId].refundedAmount,\n            invoices[invoiceId].allowPartialPayment,\n            invoices[invoiceId].minimumAmountDue,\n            invoices[invoiceId].paymentTerm,\n            invoices[invoiceId].term\n        );\n    }\n\n    /**\n     * @dev Gets invoice additional details\n     * @param invoiceId The id of the invoice (given by the smart-contract)\n     * @return The additionalTerms and note of the invoice\n     */\n    function getInvoicesAdditionalDetails(uint256 invoiceId) public view returns (\n        string memory additionalTerms,\n        string memory note\n    ) {\n        return (\n            invoices[invoiceId].additionalTerms,\n            invoices[invoiceId].note\n        );\n    }\n\n    /**\n     * @dev Returns the invoices of a merchant\n     * @param ein The ein of the merchant\n     * @return The id of the invoices\n     */\n    function getInvoicesFromMerchant(uint256 ein) public view returns (uint256[] memory invoicesId) {\n        return merchantsToInvoices[ein];\n    }\n\n    /**\n     * @dev Returns the invoices of a customer\n     * @param ein The ein of the customer\n     * @return The id of the invoices\n     */\n    function getInvoicesFromCustomer(uint256 ein) public view returns (uint256[] memory invoicesId) {\n        return customersToInvoices[ein];\n    }\n\n    /**\n     * @dev Checks if a value exists within an array\n     * @param a The array to inspect\n     * @param b The value to expect\n     */\n    function includes(uint256[] memory a, uint256 b) internal pure returns (bool) {\n        for (uint256 i = 0; i < a.length; i += 1) {\n            if (a[i] == b) {\n                return true;\n            }\n        }\n\n        return false;\n    }\n}\n",
  "sourcePath": "/MAMPWeb/HydroIce/HydroIceContract/contracts/Invoicing.sol",
  "compiler": {
    "name": "solc",
    "version": "0.5.0+commit.1d4f565a.Emscripten.clang"
  },
  "schemaVersion": "3.0.6",
  "updatedAt": "2019-05-02T21:08:45.962Z",
  "devdoc": {
    "author": "clemlak",
    "details": "This contract is the base of the dapp",
    "methods": {
      "cancelInvoice(uint256)": {
        "details": "Cancels an invoice",
        "params": {
          "invoiceId": "The id of the invoice (given by the smart-contract)"
        }
      },
      "closeDispute(uint256)": {
        "details": "Closes a dispute",
        "params": {
          "invoiceId": "The id of the invoice (given by the smart-contract)"
        }
      },
      "createDraftInvoice(string,uint256[],uint256,bool,uint256,uint8,uint256)": {
        "details": "Creates a new draft invoice",
        "params": {
          "allowPartialPayment": "If partial payment is allowed",
          "amount": "The amount of the invoice",
          "customers": "The ein of the customers (in an array)",
          "id": "A custom id for the invoice",
          "minimumAmountDue": "The minimum amount for a payment",
          "paymentTerm": "The type of term of payment (DueOnReceipt, DueOnDate, NoDueDate, NetD)",
          "term": "The term of payment (in days or a timestamp)"
        }
      },
      "getInvoiceDetails(uint256)": {
        "details": "Gets invoice details",
        "params": {
          "invoiceId": "The id of the invoice (given by the smart-contract)"
        },
        "return": "The amount, paidAmount, refundedAmount, allowPartialPayment, paymentTerm and term of the invoice"
      },
      "getInvoiceInfo(uint256)": {
        "details": "Gets invoice info",
        "params": {
          "invoiceId": "The id of the invoice (given by the smart-contract)"
        },
        "return": "The id, status, date, merchant and customers of an invoice"
      },
      "getInvoicesAdditionalDetails(uint256)": {
        "details": "Gets invoice additional details",
        "params": {
          "invoiceId": "The id of the invoice (given by the smart-contract)"
        },
        "return": "The additionalTerms and note of the invoice"
      },
      "getInvoicesFromCustomer(uint256)": {
        "details": "Returns the invoices of a customer",
        "params": {
          "ein": "The ein of the customer"
        },
        "return": "The id of the invoices"
      },
      "getInvoicesFromMerchant(uint256)": {
        "details": "Returns the invoices of a merchant",
        "params": {
          "ein": "The ein of the merchant"
        },
        "return": "The id of the invoices"
      },
      "isOwner()": {
        "return": "true if `msg.sender` is the owner of the contract."
      },
      "openDispute(uint256,string)": {
        "details": "Opens a dispute",
        "params": {
          "details": "The details of the dispute",
          "invoiceId": "The id of the invoice (given by the smart-contract)"
        }
      },
      "owner()": {
        "return": "the address of the owner."
      },
      "payInvoice(uint256,uint256)": {
        "details": "Pays an invoice",
        "params": {
          "amount": "The amount used to pay",
          "invoiceId": "The id of the invoice (given by the smart-contract)"
        }
      },
      "refundCustomer(uint256,uint256,uint256)": {
        "details": "Refunds a customer",
        "params": {
          "amount": "The amount to refund",
          "customer": "The ein of the customer",
          "invoiceId": "The id of the invoice (given by the smart-contract)"
        }
      },
      "renounceOwnership()": {
        "details": "Allows the current owner to relinquish control of the contract."
      },
      "transferOwnership(address)": {
        "details": "Allows the current owner to transfer control of the contract to a newOwner.",
        "params": {
          "newOwner": "The address to transfer ownership to."
        }
      },
      "updateInvoiceCustomers(uint256,uint256[])": {
        "details": "Updates the customers of an invoice",
        "params": {
          "customers": "The updated customers list",
          "invoiceId": "The id of the invoice"
        }
      },
      "updateInvoicePayment(uint256,uint256,bool,uint256,uint8,uint256,string,string)": {
        "details": "Updates the payment data of an invoice",
        "params": {
          "additionalTerms": "Additional terms (as a string)",
          "allowPartialPayment": "If partial payment is allowed",
          "amount": "The amount of the invoice",
          "invoiceId": "The id of the invoice (given by the smart-contract)",
          "minimumAmountDue": "The minimum amount for a payment",
          "note": "Additional note (as a string)",
          "paymentTerm": "The type of term of payment",
          "term": "The term of payment, in days or a timestamp"
        }
      },
      "validateInvoice(uint256)": {
        "details": "Validates an invoice (from draft to unpaid)",
        "params": {
          "invoiceId": "The id of the invoice (given by the smart-contract)"
        }
      }
    },
    "title": "Invoicing"
  },
  "userdoc": {
    "methods": {
      "renounceOwnership()": {
        "notice": "Renouncing to ownership will leave the contract without an owner. It will not be possible to call the functions with the `onlyOwner` modifier anymore."
      }
    },
    "notice": "Create invoices through Snowflake"
  }
}