{
  "contractName": "Snowflake",
  "abi": [
    {
      "constant": true,
      "inputs": [
        {
          "name": "",
          "type": "uint256"
        }
      ],
      "name": "signatureNonce",
      "outputs": [
        {
          "name": "",
          "type": "uint256"
        }
      ],
      "payable": false,
      "stateMutability": "view",
      "type": "function"
    },
    {
      "constant": true,
      "inputs": [],
      "name": "clientRaindropAddress",
      "outputs": [
        {
          "name": "",
          "type": "address"
        }
      ],
      "payable": false,
      "stateMutability": "view",
      "type": "function"
    },
    {
      "constant": true,
      "inputs": [],
      "name": "signatureTimeout",
      "outputs": [
        {
          "name": "",
          "type": "uint256"
        }
      ],
      "payable": false,
      "stateMutability": "view",
      "type": "function"
    },
    {
      "constant": false,
      "inputs": [],
      "name": "renounceOwnership",
      "outputs": [],
      "payable": false,
      "stateMutability": "nonpayable",
      "type": "function"
    },
    {
      "constant": true,
      "inputs": [],
      "name": "hydroTokenAddress",
      "outputs": [
        {
          "name": "",
          "type": "address"
        }
      ],
      "payable": false,
      "stateMutability": "view",
      "type": "function"
    },
    {
      "constant": true,
      "inputs": [],
      "name": "owner",
      "outputs": [
        {
          "name": "",
          "type": "address"
        }
      ],
      "payable": false,
      "stateMutability": "view",
      "type": "function"
    },
    {
      "constant": true,
      "inputs": [],
      "name": "isOwner",
      "outputs": [
        {
          "name": "",
          "type": "bool"
        }
      ],
      "payable": false,
      "stateMutability": "view",
      "type": "function"
    },
    {
      "constant": true,
      "inputs": [],
      "name": "identityRegistryAddress",
      "outputs": [
        {
          "name": "",
          "type": "address"
        }
      ],
      "payable": false,
      "stateMutability": "view",
      "type": "function"
    },
    {
      "constant": true,
      "inputs": [
        {
          "name": "",
          "type": "uint256"
        }
      ],
      "name": "deposits",
      "outputs": [
        {
          "name": "",
          "type": "uint256"
        }
      ],
      "payable": false,
      "stateMutability": "view",
      "type": "function"
    },
    {
      "constant": true,
      "inputs": [
        {
          "name": "",
          "type": "uint256"
        },
        {
          "name": "",
          "type": "address"
        }
      ],
      "name": "resolverAllowances",
      "outputs": [
        {
          "name": "",
          "type": "uint256"
        }
      ],
      "payable": false,
      "stateMutability": "view",
      "type": "function"
    },
    {
      "constant": false,
      "inputs": [
        {
          "name": "newOwner",
          "type": "address"
        }
      ],
      "name": "transferOwnership",
      "outputs": [],
      "payable": false,
      "stateMutability": "nonpayable",
      "type": "function"
    },
    {
      "inputs": [
        {
          "name": "_identityRegistryAddress",
          "type": "address"
        },
        {
          "name": "_hydroTokenAddress",
          "type": "address"
        }
      ],
      "payable": false,
      "stateMutability": "nonpayable",
      "type": "constructor"
    },
    {
      "anonymous": false,
      "inputs": [
        {
          "indexed": true,
          "name": "ein",
          "type": "uint256"
        },
        {
          "indexed": false,
          "name": "newProviders",
          "type": "address[]"
        },
        {
          "indexed": false,
          "name": "oldProviders",
          "type": "address[]"
        },
        {
          "indexed": false,
          "name": "approvingAddress",
          "type": "address"
        }
      ],
      "name": "SnowflakeProvidersUpgraded",
      "type": "event"
    },
    {
      "anonymous": false,
      "inputs": [
        {
          "indexed": true,
          "name": "ein",
          "type": "uint256"
        },
        {
          "indexed": true,
          "name": "resolver",
          "type": "address"
        },
        {
          "indexed": false,
          "name": "withdrawAllowance",
          "type": "uint256"
        }
      ],
      "name": "SnowflakeResolverAdded",
      "type": "event"
    },
    {
      "anonymous": false,
      "inputs": [
        {
          "indexed": true,
          "name": "ein",
          "type": "uint256"
        },
        {
          "indexed": true,
          "name": "resolver",
          "type": "address"
        },
        {
          "indexed": false,
          "name": "withdrawAllowance",
          "type": "uint256"
        }
      ],
      "name": "SnowflakeResolverAllowanceChanged",
      "type": "event"
    },
    {
      "anonymous": false,
      "inputs": [
        {
          "indexed": true,
          "name": "ein",
          "type": "uint256"
        },
        {
          "indexed": true,
          "name": "resolver",
          "type": "address"
        }
      ],
      "name": "SnowflakeResolverRemoved",
      "type": "event"
    },
    {
      "anonymous": false,
      "inputs": [
        {
          "indexed": true,
          "name": "from",
          "type": "address"
        },
        {
          "indexed": true,
          "name": "einTo",
          "type": "uint256"
        },
        {
          "indexed": false,
          "name": "amount",
          "type": "uint256"
        }
      ],
      "name": "SnowflakeDeposit",
      "type": "event"
    },
    {
      "anonymous": false,
      "inputs": [
        {
          "indexed": true,
          "name": "einFrom",
          "type": "uint256"
        },
        {
          "indexed": true,
          "name": "einTo",
          "type": "uint256"
        },
        {
          "indexed": false,
          "name": "amount",
          "type": "uint256"
        }
      ],
      "name": "SnowflakeTransfer",
      "type": "event"
    },
    {
      "anonymous": false,
      "inputs": [
        {
          "indexed": true,
          "name": "einFrom",
          "type": "uint256"
        },
        {
          "indexed": true,
          "name": "to",
          "type": "address"
        },
        {
          "indexed": false,
          "name": "amount",
          "type": "uint256"
        }
      ],
      "name": "SnowflakeWithdraw",
      "type": "event"
    },
    {
      "anonymous": false,
      "inputs": [
        {
          "indexed": true,
          "name": "resolverFrom",
          "type": "address"
        }
      ],
      "name": "SnowflakeTransferFrom",
      "type": "event"
    },
    {
      "anonymous": false,
      "inputs": [
        {
          "indexed": true,
          "name": "resolverFrom",
          "type": "address"
        }
      ],
      "name": "SnowflakeWithdrawFrom",
      "type": "event"
    },
    {
      "anonymous": false,
      "inputs": [
        {
          "indexed": true,
          "name": "resolverFrom",
          "type": "address"
        },
        {
          "indexed": true,
          "name": "einTo",
          "type": "uint256"
        }
      ],
      "name": "SnowflakeTransferFromVia",
      "type": "event"
    },
    {
      "anonymous": false,
      "inputs": [
        {
          "indexed": true,
          "name": "resolverFrom",
          "type": "address"
        },
        {
          "indexed": true,
          "name": "to",
          "type": "address"
        }
      ],
      "name": "SnowflakeWithdrawFromVia",
      "type": "event"
    },
    {
      "anonymous": false,
      "inputs": [
        {
          "indexed": true,
          "name": "resolverFrom",
          "type": "address"
        },
        {
          "indexed": true,
          "name": "via",
          "type": "address"
        },
        {
          "indexed": true,
          "name": "einTo",
          "type": "uint256"
        },
        {
          "indexed": false,
          "name": "amount",
          "type": "uint256"
        }
      ],
      "name": "SnowflakeTransferToVia",
      "type": "event"
    },
    {
      "anonymous": false,
      "inputs": [
        {
          "indexed": true,
          "name": "resolverFrom",
          "type": "address"
        },
        {
          "indexed": true,
          "name": "via",
          "type": "address"
        },
        {
          "indexed": true,
          "name": "to",
          "type": "address"
        },
        {
          "indexed": false,
          "name": "amount",
          "type": "uint256"
        }
      ],
      "name": "SnowflakeWithdrawToVia",
      "type": "event"
    },
    {
      "anonymous": false,
      "inputs": [
        {
          "indexed": true,
          "name": "ein",
          "type": "uint256"
        },
        {
          "indexed": true,
          "name": "resolver",
          "type": "address"
        },
        {
          "indexed": false,
          "name": "currentAllowance",
          "type": "uint256"
        },
        {
          "indexed": false,
          "name": "requestedWithdraw",
          "type": "uint256"
        }
      ],
      "name": "SnowflakeInsufficientAllowance",
      "type": "event"
    },
    {
      "anonymous": false,
      "inputs": [
        {
          "indexed": true,
          "name": "previousOwner",
          "type": "address"
        },
        {
          "indexed": true,
          "name": "newOwner",
          "type": "address"
        }
      ],
      "name": "OwnershipTransferred",
      "type": "event"
    },
    {
      "constant": false,
      "inputs": [
        {
          "name": "_identityRegistryAddress",
          "type": "address"
        },
        {
          "name": "_hydroTokenAddress",
          "type": "address"
        }
      ],
      "name": "setAddresses",
      "outputs": [],
      "payable": false,
      "stateMutability": "nonpayable",
      "type": "function"
    },
    {
      "constant": false,
      "inputs": [
        {
          "name": "_clientRaindropAddress",
          "type": "address"
        }
      ],
      "name": "setClientRaindropAddress",
      "outputs": [],
      "payable": false,
      "stateMutability": "nonpayable",
      "type": "function"
    },
    {
      "constant": false,
      "inputs": [
        {
          "name": "recoveryAddress",
          "type": "address"
        },
        {
          "name": "associatedAddress",
          "type": "address"
        },
        {
          "name": "providers",
          "type": "address[]"
        },
        {
          "name": "casedHydroId",
          "type": "string"
        },
        {
          "name": "v",
          "type": "uint8"
        },
        {
          "name": "r",
          "type": "bytes32"
        },
        {
          "name": "s",
          "type": "bytes32"
        },
        {
          "name": "timestamp",
          "type": "uint256"
        }
      ],
      "name": "createIdentityDelegated",
      "outputs": [
        {
          "name": "ein",
          "type": "uint256"
        }
      ],
      "payable": false,
      "stateMutability": "nonpayable",
      "type": "function"
    },
    {
      "constant": false,
      "inputs": [
        {
          "name": "approvingAddress",
          "type": "address"
        },
        {
          "name": "providers",
          "type": "address[]"
        },
        {
          "name": "v",
          "type": "uint8"
        },
        {
          "name": "r",
          "type": "bytes32"
        },
        {
          "name": "s",
          "type": "bytes32"
        },
        {
          "name": "timestamp",
          "type": "uint256"
        }
      ],
      "name": "addProvidersFor",
      "outputs": [],
      "payable": false,
      "stateMutability": "nonpayable",
      "type": "function"
    },
    {
      "constant": false,
      "inputs": [
        {
          "name": "approvingAddress",
          "type": "address"
        },
        {
          "name": "providers",
          "type": "address[]"
        },
        {
          "name": "v",
          "type": "uint8"
        },
        {
          "name": "r",
          "type": "bytes32"
        },
        {
          "name": "s",
          "type": "bytes32"
        },
        {
          "name": "timestamp",
          "type": "uint256"
        }
      ],
      "name": "removeProvidersFor",
      "outputs": [],
      "payable": false,
      "stateMutability": "nonpayable",
      "type": "function"
    },
    {
      "constant": false,
      "inputs": [
        {
          "name": "approvingAddress",
          "type": "address"
        },
        {
          "name": "newProviders",
          "type": "address[]"
        },
        {
          "name": "oldProviders",
          "type": "address[]"
        },
        {
          "name": "v",
          "type": "uint8[2]"
        },
        {
          "name": "r",
          "type": "bytes32[2]"
        },
        {
          "name": "s",
          "type": "bytes32[2]"
        },
        {
          "name": "timestamp",
          "type": "uint256[2]"
        }
      ],
      "name": "upgradeProvidersFor",
      "outputs": [],
      "payable": false,
      "stateMutability": "nonpayable",
      "type": "function"
    },
    {
      "constant": false,
      "inputs": [
        {
          "name": "resolver",
          "type": "address"
        },
        {
          "name": "isSnowflake",
          "type": "bool"
        },
        {
          "name": "withdrawAllowance",
          "type": "uint256"
        },
        {
          "name": "extraData",
          "type": "bytes"
        }
      ],
      "name": "addResolver",
      "outputs": [],
      "payable": false,
      "stateMutability": "nonpayable",
      "type": "function"
    },
    {
      "constant": false,
      "inputs": [
        {
          "name": "ein",
          "type": "uint256"
        },
        {
          "name": "resolver",
          "type": "address"
        },
        {
          "name": "isSnowflake",
          "type": "bool"
        },
        {
          "name": "withdrawAllowance",
          "type": "uint256"
        },
        {
          "name": "extraData",
          "type": "bytes"
        }
      ],
      "name": "addResolverAsProvider",
      "outputs": [],
      "payable": false,
      "stateMutability": "nonpayable",
      "type": "function"
    },
    {
      "constant": false,
      "inputs": [
        {
          "name": "approvingAddress",
          "type": "address"
        },
        {
          "name": "resolver",
          "type": "address"
        },
        {
          "name": "isSnowflake",
          "type": "bool"
        },
        {
          "name": "withdrawAllowance",
          "type": "uint256"
        },
        {
          "name": "extraData",
          "type": "bytes"
        },
        {
          "name": "v",
          "type": "uint8"
        },
        {
          "name": "r",
          "type": "bytes32"
        },
        {
          "name": "s",
          "type": "bytes32"
        },
        {
          "name": "timestamp",
          "type": "uint256"
        }
      ],
      "name": "addResolverFor",
      "outputs": [],
      "payable": false,
      "stateMutability": "nonpayable",
      "type": "function"
    },
    {
      "constant": false,
      "inputs": [
        {
          "name": "approvingAddress",
          "type": "address"
        },
        {
          "name": "resolvers",
          "type": "address[]"
        },
        {
          "name": "withdrawAllowances",
          "type": "uint256[]"
        },
        {
          "name": "v",
          "type": "uint8"
        },
        {
          "name": "r",
          "type": "bytes32"
        },
        {
          "name": "s",
          "type": "bytes32"
        }
      ],
      "name": "changeResolverAllowancesDelegated",
      "outputs": [],
      "payable": false,
      "stateMutability": "nonpayable",
      "type": "function"
    },
    {
      "constant": false,
      "inputs": [
        {
          "name": "resolvers",
          "type": "address[]"
        },
        {
          "name": "withdrawAllowances",
          "type": "uint256[]"
        }
      ],
      "name": "changeResolverAllowances",
      "outputs": [],
      "payable": false,
      "stateMutability": "nonpayable",
      "type": "function"
    },
    {
      "constant": false,
      "inputs": [
        {
          "name": "approvingAddress",
          "type": "address"
        },
        {
          "name": "resolver",
          "type": "address"
        },
        {
          "name": "isSnowflake",
          "type": "bool"
        },
        {
          "name": "extraData",
          "type": "bytes"
        },
        {
          "name": "v",
          "type": "uint8"
        },
        {
          "name": "r",
          "type": "bytes32"
        },
        {
          "name": "s",
          "type": "bytes32"
        },
        {
          "name": "timestamp",
          "type": "uint256"
        }
      ],
      "name": "removeResolverFor",
      "outputs": [],
      "payable": false,
      "stateMutability": "nonpayable",
      "type": "function"
    },
    {
      "constant": false,
      "inputs": [
        {
          "name": "resolver",
          "type": "address"
        },
        {
          "name": "isSnowflake",
          "type": "bool"
        },
        {
          "name": "extraData",
          "type": "bytes"
        }
      ],
      "name": "removeResolver",
      "outputs": [],
      "payable": false,
      "stateMutability": "nonpayable",
      "type": "function"
    },
    {
      "constant": false,
      "inputs": [
        {
          "name": "approvingAddress",
          "type": "address"
        },
        {
          "name": "newRecoveryAddress",
          "type": "address"
        },
        {
          "name": "v",
          "type": "uint8"
        },
        {
          "name": "r",
          "type": "bytes32"
        },
        {
          "name": "s",
          "type": "bytes32"
        }
      ],
      "name": "triggerRecoveryAddressChangeFor",
      "outputs": [],
      "payable": false,
      "stateMutability": "nonpayable",
      "type": "function"
    },
    {
      "constant": false,
      "inputs": [
        {
          "name": "sender",
          "type": "address"
        },
        {
          "name": "amount",
          "type": "uint256"
        },
        {
          "name": "_tokenAddress",
          "type": "address"
        },
        {
          "name": "_bytes",
          "type": "bytes"
        }
      ],
      "name": "receiveApproval",
      "outputs": [],
      "payable": false,
      "stateMutability": "nonpayable",
      "type": "function"
    },
    {
      "constant": false,
      "inputs": [
        {
          "name": "einTo",
          "type": "uint256"
        },
        {
          "name": "amount",
          "type": "uint256"
        }
      ],
      "name": "transferSnowflakeBalance",
      "outputs": [],
      "payable": false,
      "stateMutability": "nonpayable",
      "type": "function"
    },
    {
      "constant": false,
      "inputs": [
        {
          "name": "to",
          "type": "address"
        },
        {
          "name": "amount",
          "type": "uint256"
        }
      ],
      "name": "withdrawSnowflakeBalance",
      "outputs": [],
      "payable": false,
      "stateMutability": "nonpayable",
      "type": "function"
    },
    {
      "constant": false,
      "inputs": [
        {
          "name": "einFrom",
          "type": "uint256"
        },
        {
          "name": "einTo",
          "type": "uint256"
        },
        {
          "name": "amount",
          "type": "uint256"
        }
      ],
      "name": "transferSnowflakeBalanceFrom",
      "outputs": [],
      "payable": false,
      "stateMutability": "nonpayable",
      "type": "function"
    },
    {
      "constant": false,
      "inputs": [
        {
          "name": "einFrom",
          "type": "uint256"
        },
        {
          "name": "to",
          "type": "address"
        },
        {
          "name": "amount",
          "type": "uint256"
        }
      ],
      "name": "withdrawSnowflakeBalanceFrom",
      "outputs": [],
      "payable": false,
      "stateMutability": "nonpayable",
      "type": "function"
    },
    {
      "constant": false,
      "inputs": [
        {
          "name": "einFrom",
          "type": "uint256"
        },
        {
          "name": "via",
          "type": "address"
        },
        {
          "name": "einTo",
          "type": "uint256"
        },
        {
          "name": "amount",
          "type": "uint256"
        },
        {
          "name": "_bytes",
          "type": "bytes"
        }
      ],
      "name": "transferSnowflakeBalanceFromVia",
      "outputs": [],
      "payable": false,
      "stateMutability": "nonpayable",
      "type": "function"
    },
    {
      "constant": false,
      "inputs": [
        {
          "name": "einFrom",
          "type": "uint256"
        },
        {
          "name": "via",
          "type": "address"
        },
        {
          "name": "to",
          "type": "address"
        },
        {
          "name": "amount",
          "type": "uint256"
        },
        {
          "name": "_bytes",
          "type": "bytes"
        }
      ],
      "name": "withdrawSnowflakeBalanceFromVia",
      "outputs": [],
      "payable": false,
      "stateMutability": "nonpayable",
      "type": "function"
    },
    {
      "constant": false,
      "inputs": [
        {
          "name": "destination",
          "type": "address"
        },
        {
          "name": "amount",
          "type": "uint256"
        },
        {
          "name": "data",
          "type": "bytes"
        },
        {
          "name": "approvingAddress",
          "type": "address"
        },
        {
          "name": "v",
          "type": "uint8"
        },
        {
          "name": "r",
          "type": "bytes32"
        },
        {
          "name": "s",
          "type": "bytes32"
        }
      ],
      "name": "allowAndCallDelegated",
      "outputs": [
        {
          "name": "returnData",
          "type": "bytes"
        }
      ],
      "payable": false,
      "stateMutability": "nonpayable",
      "type": "function"
    },
    {
      "constant": false,
      "inputs": [
        {
          "name": "destination",
          "type": "address"
        },
        {
          "name": "amount",
          "type": "uint256"
        },
        {
          "name": "data",
          "type": "bytes"
        }
      ],
      "name": "allowAndCall",
      "outputs": [
        {
          "name": "returnData",
          "type": "bytes"
        }
      ],
      "payable": false,
      "stateMutability": "nonpayable",
      "type": "function"
    }
  ],
  "bytecode": "0x6080604052620151806009553480156200001857600080fd5b50604051604080620058bd833981018060405260408110156200003a57600080fd5b50805160209091015160008054600160a060020a0319163317808255604051600160a060020a039190911691907f8be0079c531659141344cd1fd0a4f28419497f9722a3daafe3b4186f6b6457e0908290a3620000a18282640100000000620000a9810204565b50506200012a565b620000bc64010000000062000119810204565b1515620000c857600080fd5b60038054600160a060020a0319908116600160a060020a0394851617918290556004805492851692821692909217909155600580548216928416929092179182905560068054929093169116179055565b600054600160a060020a0316331490565b615783806200013a6000396000f3fe60806040526004361061018c5760e060020a600035046309164f9c811461019157806312f1dbc8146101c957806313954647146102055780631dfc99c41461035f57806327a0b6d8146103905780633b6da765146103e25780633e63dcc11461041257806349a79a50146104ea5780635437b67c146105be5780635a967ea5146105d3578063659ab4c3146107385780636be4d9b014610921578063715018a614610a5557806375d7e4bd14610a6a578063856b414e14610a7f57806385b118aa14610ab257806387d6203814610ba15780638da5cb5b14610c775780638f32d59b14610c8c5780638f4ffcb114610cb557806390107afe14610d875780639675932e14610dc25780639cd5421014610e8a5780639d10bb3214610f5e578063a3e9ec7314611028578063a759ee6f1461117a578063b02c43d01461118f578063badcfbcf146111b9578063c94dbd33146111f2578063edda7815146112c3578063ef11f9da14611302578063efd96fbf1461133b578063f2fde38b14611425578063fe89e39614611458575b600080fd5b34801561019d57600080fd5b506101c7600480360360608110156101b457600080fd5b508035906020810135906040013561152c565b005b3480156101d557600080fd5b506101f3600480360360208110156101ec57600080fd5b5035611572565b60408051918252519081900360200190f35b34801561021157600080fd5b506102ea600480360360e081101561022857600080fd5b600160a060020a038235169160208101359181019060608101604082013564010000000081111561025857600080fd5b82018360208201111561026a57600080fd5b8035906020019184600183028401116401000000008311171561028c57600080fd5b91908080601f01602080910402602001604051908101604052809392919081815260200183838082843760009201919091525092955050600160a060020a0383351693505060ff602083013516916040810135915060600135611584565b6040805160208082528351818301528351919283929083019185019080838360005b8381101561032457818101518382015260200161030c565b50505050905090810190601f1680156103515780820380516001836020036101000a031916815260200191505b509250505060405180910390f35b34801561036b57600080fd5b5061037461164b565b60408051600160a060020a039092168252519081900360200190f35b34801561039c57600080fd5b506101c7600480360360a08110156103b357600080fd5b50600160a060020a03813581169160208101359091169060ff604082013516906060810135906080013561165a565b3480156103ee57600080fd5b506101c76004803603604081101561040557600080fd5b5080359060200135611931565b34801561041e57600080fd5b506101c7600480360360a081101561043557600080fd5b813591600160a060020a03602082013581169260408301359091169160608101359181019060a08101608082013564010000000081111561047557600080fd5b82018360208201111561048757600080fd5b803590602001918460018302840111640100000000831117156104a957600080fd5b91908080601f0160208091040260200160405190810160405280939291908181526020018383808284376000920191909152509295506119bc945050505050565b3480156104f657600080fd5b506101c7600480360360c081101561050d57600080fd5b600160a060020a03823516919081019060408101602082013564010000000081111561053857600080fd5b82018360208201111561054a57600080fd5b8035906020019184602083028401116401000000008311171561056c57600080fd5b9190808060200260200160405190810160405280939291908181526020018383602002808284376000920191909152509295505060ff8335169350505060208101359060408101359060600135611b1b565b3480156105ca57600080fd5b506101f3611eeb565b3480156105df57600080fd5b506101f360048036036101008110156105f757600080fd5b600160a060020a03823581169260208101359091169181019060608101604082013564010000000081111561062b57600080fd5b82018360208201111561063d57600080fd5b8035906020019184602083028401116401000000008311171561065f57600080fd5b91908080602002602001604051908101604052809392919081815260200183836020028082843760009201919091525092959493602081019350359150506401000000008111156106af57600080fd5b8201836020820111156106c157600080fd5b803590602001918460018302840111640100000000831117156106e357600080fd5b91908080601f0160208091040260200160405190810160405280939291908181526020018383808284376000920191909152509295505060ff8335169350505060208101359060408101359060600135611ef1565b34801561074457600080fd5b506101c7600480360361016081101561075c57600080fd5b600160a060020a03823516919081019060408101602082013564010000000081111561078757600080fd5b82018360208201111561079957600080fd5b803590602001918460208302840111640100000000831117156107bb57600080fd5b919080806020026020016040519081016040528093929190818152602001838360200280828437600092019190915250929594936020810193503591505064010000000081111561080b57600080fd5b82018360208201111561081d57600080fd5b8035906020019184602083028401116401000000008311171561083f57600080fd5b9190808060200260200160405190810160405280939291908181526020018383602002808284376000920191909152505060408051808201825293969594818101949350915060029083908390808284376000920191909152505060408051808201825292959493818101939250906002908390839080828437600092019190915250506040805180820182529295949381810193925090600290839083908082843760009201919091525050604080518082018252929594938181019392509060029083908390808284376000920191909152509194506121dd9350505050565b34801561092d57600080fd5b506101c76004803603604081101561094457600080fd5b81019060208101813564010000000081111561095f57600080fd5b82018360208201111561097157600080fd5b8035906020019184602083028401116401000000008311171561099357600080fd5b91908080602002602001604051908101604052809392919081815260200183836020028082843760009201919091525092959493602081019350359150506401000000008111156109e357600080fd5b8201836020820111156109f557600080fd5b80359060200191846020830284011164010000000083111715610a1757600080fd5b919080806020026020016040519081016040528093929190818152602001838360200280828437600092019190915250929550612381945050505050565b348015610a6157600080fd5b506101c761240b565b348015610a7657600080fd5b50610374612475565b348015610a8b57600080fd5b506101c760048036036020811015610aa257600080fd5b5035600160a060020a0316612484565b348015610abe57600080fd5b506101c76004803603610120811015610ad657600080fd5b600160a060020a038235811692602081013590911691604082013515159160608101359181019060a081016080820135640100000000811115610b1857600080fd5b820183602082011115610b2a57600080fd5b80359060200191846001830284011164010000000083111715610b4c57600080fd5b91908080601f0160208091040260200160405190810160405280939291908181526020018383808284376000920191909152509295505060ff83351693505050602081013590604081013590606001356124d3565b348015610bad57600080fd5b506101c7600480360360a0811015610bc457600080fd5b813591600160a060020a0360208201351691604082013515159160608101359181019060a081016080820135640100000000811115610c0257600080fd5b820183602082011115610c1457600080fd5b80359060200191846001830284011164010000000083111715610c3657600080fd5b91908080601f016020809104026020016040519081016040528093929190818152602001838380828437600092019190915250929550612582945050505050565b348015610c8357600080fd5b506103746126a7565b348015610c9857600080fd5b50610ca16126b6565b604080519115158252519081900360200190f35b348015610cc157600080fd5b506101c760048036036080811015610cd857600080fd5b600160a060020a038235811692602081013592604082013590921691810190608081016060820135640100000000811115610d1257600080fd5b820183602082011115610d2457600080fd5b80359060200191846001830284011164010000000083111715610d4657600080fd5b91908080601f0160208091040260200160405190810160405280939291908181526020018383808284376000920191909152509295506126c7945050505050565b348015610d9357600080fd5b506101c760048036036040811015610daa57600080fd5b50600160a060020a0381358116916020013516612f85565b348015610dce57600080fd5b506102ea60048036036060811015610de557600080fd5b600160a060020a0382351691602081013591810190606081016040820135640100000000811115610e1557600080fd5b820183602082011115610e2757600080fd5b80359060200191846001830284011164010000000083111715610e4957600080fd5b91908080601f016020809104026020016040519081016040528093929190818152602001838380828437600092019190915250929550612ff6945050505050565b348015610e9657600080fd5b506101c7600480360360a0811015610ead57600080fd5b813591600160a060020a036020820135169160408201359160608101359181019060a081016080820135640100000000811115610ee957600080fd5b820183602082011115610efb57600080fd5b80359060200191846001830284011164010000000083111715610f1d57600080fd5b91908080601f016020809104026020016040519081016040528093929190818152602001838380828437600092019190915250929550613087945050505050565b348015610f6a57600080fd5b506101c760048036036060811015610f8157600080fd5b600160a060020a03823516916020810135151591810190606081016040820135640100000000811115610fb357600080fd5b820183602082011115610fc557600080fd5b80359060200191846001830284011164010000000083111715610fe757600080fd5b91908080601f0160208091040260200160405190810160405280939291908181526020018383808284376000920191909152509295506131cb945050505050565b34801561103457600080fd5b506101c7600480360360c081101561104b57600080fd5b600160a060020a03823516919081019060408101602082013564010000000081111561107657600080fd5b82018360208201111561108857600080fd5b803590602001918460208302840111640100000000831117156110aa57600080fd5b91908080602002602001604051908101604052809392919081815260200183836020028082843760009201919091525092959493602081019350359150506401000000008111156110fa57600080fd5b82018360208201111561110c57600080fd5b8035906020019184602083028401116401000000008311171561112e57600080fd5b9190808060200260200160405190810160405280939291908181526020018383602002808284376000920191909152509295505060ff8335169350505060208101359060400135613252565b34801561118657600080fd5b5061037461356a565b34801561119b57600080fd5b506101f3600480360360208110156111b257600080fd5b5035613579565b3480156111c557600080fd5b506101c7600480360360408110156111dc57600080fd5b50600160a060020a03813516906020013561358b565b3480156111fe57600080fd5b506101c76004803603608081101561121557600080fd5b600160a060020a038235169160208101351515916040820135919081019060808101606082013564010000000081111561124e57600080fd5b82018360208201111561126057600080fd5b8035906020019184600183028401116401000000008311171561128257600080fd5b91908080601f016020809104026020016040519081016040528093929190818152602001838380828437600092019190915250929550613611945050505050565b3480156112cf57600080fd5b506101c7600480360360608110156112e657600080fd5b50803590600160a060020a036020820135169060400135613699565b34801561130e57600080fd5b506101f36004803603604081101561132557600080fd5b5080359060200135600160a060020a03166136de565b34801561134757600080fd5b506101c7600480360361010081101561135f57600080fd5b600160a060020a03823581169260208101359091169160408201351515919081019060808101606082013564010000000081111561139c57600080fd5b8201836020820111156113ae57600080fd5b803590602001918460018302840111640100000000831117156113d057600080fd5b91908080601f0160208091040260200160405190810160405280939291908181526020018383808284376000920191909152509295505060ff83351693505050602081013590604081013590606001356136fb565b34801561143157600080fd5b506101c76004803603602081101561144857600080fd5b5035600160a060020a03166137f4565b34801561146457600080fd5b506101c7600480360360c081101561147b57600080fd5b600160a060020a0382351691908101906040810160208201356401000000008111156114a657600080fd5b8201836020820111156114b857600080fd5b803590602001918460208302840111640100000000831117156114da57600080fd5b9190808060200260200160405190810160405280939291908181526020018383602002808284376000920191909152509295505060ff8335169350505060208101359060408101359060600135613813565b6115368382613b9a565b611541838383613da6565b5060405133907f3bd0280dc67bfc5c83998b5eddebb84cb266dd5fea7c8552e43f1c55110e966790600090a2505050565b600a6020526000908152604090205481565b600480546040805160e060020a6305c62c2f028152600160a060020a0388811694820194909452905160609360009316916305c62c2f916024808301926020929190829003018186803b1580156115da57600080fd5b505afa1580156115ee573d6000803e3d6000fd5b505050506040513d602081101561160457600080fd5b50516000818152600a6020526040902080546001810190915590915061163187838c8c8c868c8c8c613fc2565b61163d828a8c8b614204565b9a9950505050505050505050565b600754600160a060020a031681565b600480546040805160e060020a6305c62c2f028152600160a060020a03898116948201949094529051600093909216916305c62c2f91602480820192602092909190829003018186803b1580156116b057600080fd5b505afa1580156116c4573d6000803e3d6000fd5b505050506040513d60208110156116da57600080fd5b50516000818152600a6020908152604080832080546001810190915560045482517f1900000000000000000000000000000000000000000000000000000000000000818601526021810195909552606060020a30810260228701527f4920617574686f72697a652074686973206368616e6765206f66205265636f7660368701527f65727920416464726573732e0000000000000000000000000000000000000000605687015260628601879052600160a060020a038c8116909102608287015260968087018490528451808803909101815260b687018086528151918701919091207f8677ebe8000000000000000000000000000000000000000000000000000000009091528d821660ba88015260da87015260ff8b1660fa87015261011a86018a905261013a860189905292519596509094911692638677ebe89261015a808301939192829003018186803b15801561183457600080fd5b505afa158015611848573d6000803e3d6000fd5b505050506040513d602081101561185e57600080fd5b505115156118a4576040805160e560020a62461bcd0281526020600482015260126024820152600080516020615718833981519152604482015290519081900360640190fd5b60048054604080517f2501faa5000000000000000000000000000000000000000000000000000000008152928301859052600160a060020a0389811660248501529051911691632501faa591604480830192600092919082900301818387803b15801561191057600080fd5b505af1158015611924573d6000803e3d6000fd5b5050505050505050505050565b600480546040805160e060020a6305c62c2f0281523393810193909352516119b792600160a060020a03909216916305c62c2f916024808301926020929190829003018186803b15801561198457600080fd5b505afa158015611998573d6000803e3d6000fd5b505050506040513d60208110156119ae57600080fd5b50518383613da6565b505050565b6119c68583613b9a565b6119d185858461446f565b600084905080600160a060020a0316633aaaa8a033888787876040518663ffffffff1660e060020a0281526004018086600160a060020a0316600160a060020a0316815260200185815260200184600160a060020a0316600160a060020a0316815260200183815260200180602001828103825283818151815260200191508051906020019080838360005b83811015611a75578181015183820152602001611a5d565b50505050905090810190601f168015611aa25780820380516001836020036101000a031916815260200191505b509650505050505050600060405180830381600087803b158015611ac557600080fd5b505af1158015611ad9573d6000803e3d6000fd5b5050604051600160a060020a03871692503391507f4bf145994459e88b08345bbe483ca295ac2305df746c75740dd9d837344a9acf90600090a3505050505050565b80804210158015611b2f5750600954810142105b1515611b73576040805160e560020a62461bcd0281526020600482015260176024820152600080516020615738833981519152604482015290519081900360640190fd5b600480546040805160e060020a6305c62c2f028152600160a060020a038b8116948201949094529051600093909216916305c62c2f91602480820192602092909190829003018186803b158015611bc957600080fd5b505afa158015611bdd573d6000803e3d6000fd5b505050506040513d6020811015611bf357600080fd5b81019080805190602001909291905050509050600460009054906101000a9004600160a060020a0316600160a060020a0316638677ebe889601960f860020a02600060f860020a0230868d8a6040516020018087600160f860020a031916600160f860020a031916815260010186600160f860020a031916600160f860020a031916815260010185600160a060020a0316600160a060020a0316606060020a028152601401807f4920617574686f72697a6520746861742074686573652050726f76696465727381526020017f20626520616464656420746f206d79204964656e746974792e00000000000000815250603901848152602001838051906020019060200280838360005b83811015611d15578181015183820152602001611cfd565b505050509050018281526020019650505050505050604051602081830303815290604052805190602001208989896040518663ffffffff1660e060020a0281526004018086600160a060020a0316600160a060020a031681526020018581526020018460ff1660ff1681526020018381526020018281526020019550505050505060206040518083038186803b158015611dae57600080fd5b505afa158015611dc2573d6000803e3d6000fd5b505050506040513d6020811015611dd857600080fd5b50511515611e1e576040805160e560020a62461bcd0281526020600482015260126024820152600080516020615718833981519152604482015290519081900360640190fd5b60048054604080517f960b11f5000000000000000000000000000000000000000000000000000000008152928301848152602484019182528a5160448501528a51600160a060020a039093169363960b11f59386938d939290916064909101906020808601910280838360005b83811015611ea3578181015183820152602001611e8b565b505050509050019350505050600060405180830381600087803b158015611ec957600080fd5b505af1158015611edd573d6000803e3d6000fd5b505050505050505050505050565b60095481565b600060608751600101604051908082528060200260200182016040528015611f23578160200160208202803883390190505b50905030816000815181101515611f3657fe5b600160a060020a0390921660209283029091019091015260005b8851811015611fa1578881815181101515611f6757fe5b906020019060200201518282600101815181101515611f8257fe5b600160a060020a03909216602092830290910190910152600101611f50565b50600454604080516000808252602082019092529091600160a060020a0316906314fb5646908d908d9086908c8c8c8c6040518963ffffffff1660e060020a0281526004018089600160a060020a0316600160a060020a0316815260200188600160a060020a0316600160a060020a0316815260200180602001806020018760ff1660ff168152602001868152602001858152602001848152602001838103835289818151815260200191508051906020019060200280838360005b8381101561207557818101518382015260200161205d565b50505050905001838103825288818151815260200191508051906020019060200280838360005b838110156120b457818101518382015260200161209c565b505050509050019a5050505050505050505050602060405180830381600087803b1580156120e157600080fd5b505af11580156120f5573d6000803e3d6000fd5b505050506040513d602081101561210b57600080fd5b8101908080519060200190929190505050905061163d81600760009054906101000a9004600160a060020a0316600160008e8d6040516020018083600160a060020a0316600160a060020a0316815260200180602001828103825283818151815260200191508051906020019080838360005b8381101561219657818101518382015260200161217e565b50505050905090810190601f1680156121c35780820380516001836020036101000a031916815260200191505b5093505050506040516020818303038152906040526146e6565b83518351835183516121f7938b938b939192909190611b1b565b61222187868660016020020151866001602002015186600160200201518660016020020151613813565b600480546040805160e060020a6305c62c2f028152600160a060020a038b8116948201949094529051600093909216916305c62c2f91602480820192602092909190829003018186803b15801561227757600080fd5b505afa15801561228b573d6000803e3d6000fd5b505050506040513d60208110156122a157600080fd5b505160408051600160a060020a038b16918101919091526060808252895190820152885191925082917f9395986444296878f4ccc8a3e3a2d2d64a2988fb3cf2fd45fd7abe7449025626918a918a918d9181906020828101916080840191888101910280838360005b8381101561232257818101518382015260200161230a565b50505050905001838103825285818151815260200191508051906020019060200280838360005b83811015612361578181015183820152602001612349565b505050509050019550505050505060405180910390a25050505050505050565b600480546040805160e060020a6305c62c2f02815233938101939093525161240792600160a060020a03909216916305c62c2f916024808301926020929190829003018186803b1580156123d457600080fd5b505afa1580156123e8573d6000803e3d6000fd5b505050506040513d60208110156123fe57600080fd5b50518383614b2f565b5050565b6124136126b6565b151561241e57600080fd5b60008054604051600160a060020a03909116907f8be0079c531659141344cd1fd0a4f28419497f9722a3daafe3b4186f6b6457e0908390a36000805473ffffffffffffffffffffffffffffffffffffffff19169055565b600554600160a060020a031681565b61248c6126b6565b151561249757600080fd5b6007805473ffffffffffffffffffffffffffffffffffffffff19908116600160a060020a03938416179182905560088054929093169116179055565b600480546040805160e060020a6305c62c2f028152600160a060020a038d8116948201949094529051600093909216916305c62c2f91602480820192602092909190829003018186803b15801561252957600080fd5b505afa15801561253d573d6000803e3d6000fd5b505050506040513d602081101561255357600080fd5b505190506125698a828b8b8b8b8b8b8b8b614d91565b612576818a8a8a8a6146e6565b50505050505050505050565b60048054604080517f53a9698a00000000000000000000000000000000000000000000000000000000815292830188905233602484015251600160a060020a03909116916353a9698a916044808301926020929190829003018186803b1580156125eb57600080fd5b505afa1580156125ff573d6000803e3d6000fd5b505050506040513d602081101561261557600080fd5b50511515612693576040805160e560020a62461bcd02815260206004820152603360248201527f546865206d73672e73656e646572206973206e6f7420612050726f766964657260448201527f20666f7220746865207061737365642045494e00000000000000000000000000606482015290519081900360840190fd5b6126a085858585856146e6565b5050505050565b600054600160a060020a031690565b600054600160a060020a0316331490565b33600160a060020a03831614612727576040805160e560020a62461bcd02815260206004820152601160248201527f4d616c666f726d656420696e707574732e000000000000000000000000000000604482015290519081900360640190fd5b600554600160a060020a038381169116146127b2576040805160e560020a62461bcd02815260206004820152602d60248201527f53656e646572206973206e6f742074686520485944524f20746f6b656e20736d60448201527f61727420636f6e74726163742e00000000000000000000000000000000000000606482015290519081900360840190fd5b8051602010612b0d57600654604080517f23b872dd000000000000000000000000000000000000000000000000000000008152600160a060020a03878116600483015230602483015260448201879052915191909216916323b872dd9160648083019260209291908290030181600087803b15801561283057600080fd5b505af1158015612844573d6000803e3d6000fd5b505050506040513d602081101561285a57600080fd5b505115156128d8576040805160e560020a62461bcd02815260206004820152602360248201527f556e61626c6520746f207472616e7366657220746f6b656e206f776e6572736860448201527f69702e0000000000000000000000000000000000000000000000000000000000606482015290519081900360840190fd5b600060208251101561296b57600480546040805160e060020a6305c62c2f028152600160a060020a0389811694820194909452905192909116916305c62c2f91602480820192602092909190829003018186803b15801561293857600080fd5b505afa15801561294c573d6000803e3d6000fd5b505050506040513d602081101561296257600080fd5b50519050612a8f565b81806020019051602081101561298057600080fd5b505160048054604080517f5b5aed3a00000000000000000000000000000000000000000000000000000000815292830184905251929350600160a060020a031691635b5aed3a91602480820192602092909190829003018186803b1580156129e757600080fd5b505afa1580156129fb573d6000803e3d6000fd5b505050506040513d6020811015612a1157600080fd5b50511515612a8f576040805160e560020a62461bcd02815260206004820152602160248201527f54686520726563697069656e742045494e20646f6573206e6f7420657869737460448201527f2e00000000000000000000000000000000000000000000000000000000000000606482015290519081900360840190fd5b600081815260016020526040902054612aae908563ffffffff61505816565b60016000838152602001908152602001600020819055508085600160a060020a03167fc03bd73422f0f423555852c3018d2296bec6c3fb71372de56d3ce8f5984d6812866040518082815260200191505060405180910390a350612f7f565b60008060008060608580602001905160a0811015612b2a57600080fd5b815160208301516040840151606085015160808601805194969395929491939283019291640100000000811115612b6057600080fd5b82016020810184811115612b7357600080fd5b8151640100000000811182820187101715612b8d57600080fd5b505092919050505094509450945094509450600660009054906101000a9004600160a060020a0316600160a060020a03166323b872dd8a858b6040518463ffffffff1660e060020a0281526004018084600160a060020a0316600160a060020a0316815260200183600160a060020a0316600160a060020a031681526020018281526020019350505050602060405180830381600087803b158015612c3157600080fd5b505af1158015612c45573d6000803e3d6000fd5b505050506040513d6020811015612c5b57600080fd5b50511515612cd9576040805160e560020a62461bcd02815260206004820152602360248201527f556e61626c6520746f207472616e7366657220746f6b656e206f776e6572736860448201527f69702e0000000000000000000000000000000000000000000000000000000000606482015290519081900360840190fd5b828515612e1e5780600160a060020a0316633c72e43986858c866040518563ffffffff1660e060020a0281526004018085600160a060020a0316600160a060020a0316815260200184815260200183815260200180602001828103825283818151815260200191508051906020019080838360005b83811015612d66578181015183820152602001612d4e565b50505050905090810190601f168015612d935780820380516001836020036101000a031916815260200191505b5095505050505050600060405180830381600087803b158015612db557600080fd5b505af1158015612dc9573d6000803e3d6000fd5b505050508284600160a060020a031686600160a060020a03167fedb6770cb1ac0722d4ee53b473075a9d9d9ada0726d38bfc29d7cefb278a6b508c6040518082815260200191505060405180910390a4612576565b600083905081600160a060020a031663e5a1309287838d876040518563ffffffff1660e060020a0281526004018085600160a060020a0316600160a060020a0316815260200184600160a060020a0316600160a060020a0316815260200183815260200180602001828103825283818151815260200191508051906020019080838360005b83811015612ebb578181015183820152602001612ea3565b50505050905090810190601f168015612ee85780820380516001836020036101000a031916815260200191505b5095505050505050600060405180830381600087803b158015612f0a57600080fd5b505af1158015612f1e573d6000803e3d6000fd5b5050505083600160a060020a031685600160a060020a031687600160a060020a03167f0c00f14cabae1f33bca7bd1a7510da7d1188463c014549b4817ece9db32ce67d8d6040518082815260200191505060405180910390a4505050505050505b50505050565b612f8d6126b6565b1515612f9857600080fd5b6003805473ffffffffffffffffffffffffffffffffffffffff19908116600160a060020a0394851617918290556004805492851692821692909217909155600580548216928416929092179182905560068054929093169116179055565b600480546040805160e060020a6305c62c2f02815233938101939093525160609261307f92600160a060020a0316916305c62c2f91602480820192602092909190829003018186803b15801561304b57600080fd5b505afa15801561305f573d6000803e3d6000fd5b505050506040513d602081101561307557600080fd5b5051848685614204565b949350505050565b6130918583613b9a565b61309c85858461446f565b600084905080600160a060020a0316631c75edfe33888787876040518663ffffffff1660e060020a0281526004018086600160a060020a0316600160a060020a0316815260200185815260200184815260200183815260200180602001828103825283818151815260200191508051906020019080838360005b8381101561312e578181015183820152602001613116565b50505050905090810190601f16801561315b5780820380516001836020036101000a031916815260200191505b509650505050505050600060405180830381600087803b15801561317e57600080fd5b505af1158015613192573d6000803e3d6000fd5b50506040518692503391507f1dd3c359182056ab5063bcdbab2346601270459beb53cabcbd39ca79f050336890600090a3505050505050565b600480546040805160e060020a6305c62c2f0281523393810193909352516119b792600160a060020a03909216916305c62c2f916024808301926020929190829003018186803b15801561321e57600080fd5b505afa158015613232573d6000803e3d6000fd5b505050506040513d602081101561324857600080fd5b5051848484615071565b600480546040805160e060020a6305c62c2f028152600160a060020a038a8116948201949094529051600093909216916305c62c2f91602480820192602092909190829003018186803b1580156132a857600080fd5b505afa1580156132bc573d6000803e3d6000fd5b505050506040513d60208110156132d257600080fd5b810190808051906020019092919050505090506000600a60008381526020019081526020016000206000815480929190600101919050559050600460009054906101000a9004600160a060020a0316600160a060020a0316638677ebe889601960f860020a02600060f860020a0230878d8d896040516020018088600160f860020a031916600160f860020a031916815260010187600160f860020a031916600160f860020a031916815260010186600160a060020a0316600160a060020a0316606060020a028152601401807f4920617574686f72697a652074686973206368616e676520696e205265736f6c81526020017f76657220616c6c6f77616e6365732e0000000000000000000000000000000000815250602f01858152602001848051906020019060200280838360005b8381101561341b578181015183820152602001613403565b50505050905001838051906020019060200280838360005b8381101561344b578181015183820152602001613433565b50505050905001828152602001975050505050505050604051602081830303815290604052805190602001208888886040518663ffffffff1660e060020a0281526004018086600160a060020a0316600160a060020a031681526020018581526020018460ff1660ff1681526020018381526020018281526020019550505050505060206040518083038186803b1580156134e557600080fd5b505afa1580156134f9573d6000803e3d6000fd5b505050506040513d602081101561350f57600080fd5b50511515613555576040805160e560020a62461bcd0281526020600482015260126024820152600080516020615718833981519152604482015290519081900360640190fd5b613560828888614b2f565b5050505050505050565b600354600160a060020a031681565b60016020526000908152604090205481565b600480546040805160e060020a6305c62c2f02815233938101939093525161240792600160a060020a03909216916305c62c2f916024808301926020929190829003018186803b1580156135de57600080fd5b505afa1580156135f2573d6000803e3d6000fd5b505050506040513d602081101561360857600080fd5b5051838361446f565b600480546040805160e060020a6305c62c2f028152339381019390935251612f7f92600160a060020a03909216916305c62c2f916024808301926020929190829003018186803b15801561366457600080fd5b505afa158015613678573d6000803e3d6000fd5b505050506040513d602081101561368e57600080fd5b5051858585856146e6565b6136a38382613b9a565b6136ae83838361446f565b60405133907f8262975dcca6e765bc0c030d671a00379895d3f60ab5f0033ca4aa088074646b90600090a2505050565b600260209081526000928352604080842090915290825290205481565b8080421015801561370f5750600954810142105b1515613753576040805160e560020a62461bcd0281526020600482015260176024820152600080516020615738833981519152604482015290519081900360640190fd5b600480546040805160e060020a6305c62c2f028152600160a060020a038d8116948201949094529051600093909216916305c62c2f91602480820192602092909190829003018186803b1580156137a957600080fd5b505afa1580156137bd573d6000803e3d6000fd5b505050506040513d60208110156137d357600080fd5b505190506137e88a828b8b8b8b8b8b8b61548e565b612576818a8a8a615071565b6137fc6126b6565b151561380757600080fd5b61381081615685565b50565b808042101580156138275750600954810142105b151561386b576040805160e560020a62461bcd0281526020600482015260176024820152600080516020615738833981519152604482015290519081900360640190fd5b600480546040805160e060020a6305c62c2f028152600160a060020a038b8116948201949094529051600093909216916305c62c2f91602480820192602092909190829003018186803b1580156138c157600080fd5b505afa1580156138d5573d6000803e3d6000fd5b505050506040513d60208110156138eb57600080fd5b81019080805190602001909291905050509050600460009054906101000a9004600160a060020a0316600160a060020a0316638677ebe889601960f860020a02600060f860020a0230868d8a6040516020018087600160f860020a031916600160f860020a031916815260010186600160f860020a031916600160f860020a031916815260010185600160a060020a0316600160a060020a0316606060020a028152601401807f4920617574686f72697a6520746861742074686573652050726f76696465727381526020017f2062652072656d6f7665642066726f6d206d79204964656e746974792e000000815250603d01848152602001838051906020019060200280838360005b83811015613a0d5781810151838201526020016139f5565b505050509050018281526020019650505050505050604051602081830303815290604052805190602001208989896040518663ffffffff1660e060020a0281526004018086600160a060020a0316600160a060020a031681526020018581526020018460ff1660ff1681526020018381526020018281526020019550505050505060206040518083038186803b158015613aa657600080fd5b505afa158015613aba573d6000803e3d6000fd5b505050506040513d6020811015613ad057600080fd5b50511515613b16576040805160e560020a62461bcd0281526020600482015260126024820152600080516020615718833981519152604482015290519081900360640190fd5b60048054604080517f06c93c36000000000000000000000000000000000000000000000000000000008152928301848152602484019182528a5160448501528a51600160a060020a03909316936306c93c369386938d9392909160649091019060208086019102808383600083811015611ea3578181015183820152602001611e8b565b600480546040805160e260020a63352c737302815292830185905233602484015251600160a060020a039091169163d4b1cdcc916044808301926020929190829003018186803b158015613bed57600080fd5b505afa158015613c01573d6000803e3d6000fd5b505050506040513d6020811015613c1757600080fd5b50511515613c95576040805160e560020a62461bcd02815260206004820152602e60248201527f5265736f6c76657220686173206e6f74206265656e207365742062792066726f60448201527f6d20746f6b656e686f6c6465722e000000000000000000000000000000000000606482015290519081900360840190fd5b6000828152600260209081526040808320338452909152902054811115613d5b5760008281526002602090815260408083203380855290835292819020548151908152918201849052805185927fe8197a2184c184c738bfd08f3ee78a377cde69118a3d580480d00a9208d6bdf392908290030190a36040805160e560020a62461bcd02815260206004820152601660248201527f496e73756666696369656e7420416c6c6f77616e636500000000000000000000604482015290519081900360640190fd5b6000828152600260209081526040808320338452909152902054613d85908263ffffffff61570216565b60009283526002602090815260408085203386529091529092209190915550565b60048054604080517f5b5aed3a0000000000000000000000000000000000000000000000000000000081529283018590525160009285926001928392600160a060020a0390921691635b5aed3a916024808301926020929190829003018186803b158015613e1357600080fd5b505afa158015613e27573d6000803e3d6000fd5b505050506040513d6020811015613e3d57600080fd5b5051151514613e96576040805160e560020a62461bcd02815260206004820152601760248201527f5468652045494e20646f6573206e6f742065786973742e000000000000000000604482015290519081900360640190fd5b600086815260016020526040902054841115613f22576040805160e560020a62461bcd02815260206004820152603660248201527f43616e6e6f74207769746864726177206d6f7265207468616e2074686520637560448201527f7272656e74206465706f7369742062616c616e63652e00000000000000000000606482015290519081900360840190fd5b600086815260016020526040902054613f41908563ffffffff61570216565b600087815260016020526040808220929092558681522054613f69908563ffffffff61505816565b600160008781526020019081526020016000208190555084867ffc1e758cdfd0000672c8f8e0557fdae32b207ab6040726e3e91a363ac1ea234a866040518082815260200191505060405180910390a350509392505050565b600460009054906101000a9004600160a060020a0316600160a060020a0316638677ebe88a601960f860020a02600060f860020a02308d8d8d8d8d6040516020018089600160f860020a031916600160f860020a031916815260010188600160f860020a031916600160f860020a031916815260010187600160a060020a0316600160a060020a0316606060020a028152601401807f4920617574686f72697a65207468697320616c6c6f7720616e642063616c6c2e81525060200186815260200185600160a060020a0316600160a060020a0316606060020a02815260140184815260200183805190602001908083835b602083106140d35780518252601f1990920191602091820191016140b4565b6001836020036101000a03801982511681845116808217855250505050505090500182815260200198505050505050505050604051602081830303815290604052805190602001208686866040518663ffffffff1660e060020a0281526004018086600160a060020a0316600160a060020a031681526020018581526020018460ff1660ff1681526020018381526020018281526020019550505050505060206040518083038186803b15801561418957600080fd5b505afa15801561419d573d6000803e3d6000fd5b505050506040513d60208110156141b357600080fd5b505115156141f9576040805160e560020a62461bcd0281526020600482015260126024820152600080516020615718833981519152604482015290519081900360640190fd5b505050505050505050565b600480546040805160e260020a63352c7373028152928301879052600160a060020a0385811660248501529051606093919092169163d4b1cdcc91604480820192602092909190829003018186803b15801561425f57600080fd5b505afa158015614273573d6000803e3d6000fd5b505050506040513d602081101561428957600080fd5b50511515614307576040805160e560020a62461bcd02815260206004820152603160248201527f44657374696e6174696f6e20686173206e6f74206265656e207365742062792060448201527f66726f6d20746f6b656e686f6c6465722e000000000000000000000000000000606482015290519081900360840190fd5b8315614364576000858152600260209081526040808320600160a060020a0387168452909152902054614340908563ffffffff61505816565b6000868152600260209081526040808320600160a060020a03881684529091529020555b6000606084600160a060020a0316846040518082805190602001908083835b602083106143a25780518252601f199092019160209182019101614383565b6001836020036101000a0380198251168184511680821785525050505050509050019150506000604051808303816000865af19150503d8060008114614404576040519150601f19603f3d011682016040523d82523d6000602084013e614409565b606091505b5091509150811515614465576040805160e560020a62461bcd02815260206004820152601860248201527f43616c6c20776173206e6f74207375636365737366756c2e0000000000000000604482015290519081900360640190fd5b9695505050505050565b600160a060020a0382163014156144f6576040805160e560020a62461bcd02815260206004820152603760248201527f43616e6e6f74207472616e7366657220746f2074686520536e6f77666c616b6560448201527f20736d61727420636f6e747261637420697473656c662e000000000000000000606482015290519081900360840190fd5b600083815260016020526040902054811115614582576040805160e560020a62461bcd02815260206004820152603660248201527f43616e6e6f74207769746864726177206d6f7265207468616e2074686520637560448201527f7272656e74206465706f7369742062616c616e63652e00000000000000000000606482015290519081900360840190fd5b6000838152600160205260409020546145a1908263ffffffff61570216565b60008481526001602090815260408083209390935560065483517fa9059cbb000000000000000000000000000000000000000000000000000000008152600160a060020a038781166004830152602482018790529451949091169363a9059cbb93604480840194938390030190829087803b15801561461f57600080fd5b505af1158015614633573d6000803e3d6000fd5b505050506040513d602081101561464957600080fd5b505115156146a1576040805160e560020a62461bcd02815260206004820152601960248201527f5472616e736665722077617320756e7375636365737366756c00000000000000604482015290519081900360640190fd5b604080518281529051600160a060020a0384169185917faaa7de357803e36044e97c4f0d438a72b371380bff06b41e9b921b8f61cb489e9181900360200190a3505050565b600480546040805160e260020a63352c7373028152928301889052600160a060020a038781166024850152905191169163d4b1cdcc916044808301926020929190829003018186803b15801561473b57600080fd5b505afa15801561474f573d6000803e3d6000fd5b505050506040513d602081101561476557600080fd5b5051156147e2576040805160e560020a62461bcd02815260206004820152602760248201527f4964656e746974792068617320616c726561647920736574207468697320726560448201527f736f6c7665722e00000000000000000000000000000000000000000000000000606482015290519081900360840190fd5b604080516001808252818301909252606091602080830190803883390190505090508481600081518110151561481457fe5b600160a060020a03928316602091820290920181019190915260048054604080517f010887dc0000000000000000000000000000000000000000000000000000000081529283018b815260248401918252865160448501528651929095169463010887dc948c948894929392606490910191858101910280838360005b838110156148a9578181015183820152602001614891565b505050509050019350505050600060405180830381600087803b1580156148cf57600080fd5b505af11580156148e3573d6000803e3d6000fd5b505050508315614b27576000868152600260209081526040808320600160a060020a0389168085529083529281902086905580517f71790251000000000000000000000000000000000000000000000000000000008152905188939263717902519260048082019391829003018186803b15801561496057600080fd5b505afa158015614974573d6000803e3d6000fd5b505050506040513d602081101561498a57600080fd5b505115614ae5576040517f90bfaf400000000000000000000000000000000000000000000000000000000081526004810188815260248201869052606060448301908152855160648401528551600160a060020a038516936390bfaf40938c938a938a9360840190602085019080838360005b83811015614a155781810151838201526020016149fd565b50505050905090810190601f168015614a425780820380516001836020036101000a031916815260200191505b50945050505050602060405180830381600087803b158015614a6357600080fd5b505af1158015614a77573d6000803e3d6000fd5b505050506040513d6020811015614a8d57600080fd5b50511515614ae5576040805160e560020a62461bcd02815260206004820152601060248201527f5369676e207570206661696c7572652e00000000000000000000000000000000604482015290519081900360640190fd5b604080518581529051600160a060020a0388169189917fa5a2dcb81990508894586bccd9070af644f5b33c720292251377ad26fc26b8809181900360200190a3505b505050505050565b8051825114614b88576040805160e560020a62461bcd02815260206004820152601160248201527f4d616c666f726d656420696e707574732e000000000000000000000000000000604482015290519081900360640190fd5b60005b8251811015612f7f576004548351600160a060020a039091169063d4b1cdcc908690869085908110614bb957fe5b906020019060200201516040518363ffffffff1660e060020a0281526004018083815260200182600160a060020a0316600160a060020a031681526020019250505060206040518083038186803b158015614c1357600080fd5b505afa158015614c27573d6000803e3d6000fd5b505050506040513d6020811015614c3d57600080fd5b50511515614cbb576040805160e560020a62461bcd02815260206004820152602360248201527f4964656e7469747920686173206e6f74207365742074686973207265736f6c7660448201527f65722e0000000000000000000000000000000000000000000000000000000000606482015290519081900360840190fd5b8181815181101515614cc957fe5b906020019060200201516002600086815260200190815260200160002060008584815181101515614cf657fe5b6020908102909101810151600160a060020a03168252810191909152604001600020558251839082908110614d2757fe5b90602001906020020151600160a060020a0316847ffb55528a8074c988c79fef57f3a73aebf780773d5152d785bbaf700c9e3532d38484815181101515614d6a57fe5b906020019060200201516040518082815260200191505060405180910390a3600101614b8b565b80804210158015614da55750600954810142105b1515614de9576040805160e560020a62461bcd0281526020600482015260176024820152600080516020615738833981519152604482015290519081900360640190fd5b600460009054906101000a9004600160a060020a0316600160a060020a0316638677ebe88c601960f860020a02600060f860020a02308f8f8f8f8f8c604051602001808a600160f860020a031916600160f860020a031916815260010189600160f860020a031916600160f860020a031916815260010188600160a060020a0316600160a060020a0316606060020a028152601401807f4920617574686f72697a6520746861742074686973207265736f6c766572206281526020017f6520616464656420746f206d79204964656e746974792e00000000000000000081525060370187815260200186600160a060020a0316600160a060020a0316606060020a028152601401851515151560f860020a02815260010184815260200183805190602001908083835b60208310614f315780518252601f199092019160209182019101614f12565b6001836020036101000a0380198251168184511680821785525050505050509050018281526020019950505050505050505050604051602081830303815290604052805190602001208888886040518663ffffffff1660e060020a0281526004018086600160a060020a0316600160a060020a031681526020018581526020018460ff1660ff1681526020018381526020018281526020019550505050505060206040518083038186803b158015614fe857600080fd5b505afa158015614ffc573d6000803e3d6000fd5b505050506040513d602081101561501257600080fd5b50511515611924576040805160e560020a62461bcd0281526020600482015260126024820152600080516020615718833981519152604482015290519081900360640190fd5b60008282018381101561506a57600080fd5b9392505050565b600480546040805160e260020a63352c7373028152928301879052600160a060020a038681166024850152905191169163d4b1cdcc916044808301926020929190829003018186803b1580156150c657600080fd5b505afa1580156150da573d6000803e3d6000fd5b505050506040513d60208110156150f057600080fd5b5051151561516e576040805160e560020a62461bcd02815260206004820152602760248201527f4964656e7469747920686173206e6f742079657420736574207468697320726560448201527f736f6c7665722e00000000000000000000000000000000000000000000000000606482015290519081900360840190fd5b6000848152600260209081526040808320600160a060020a0387168452909152812055811561538d57600083905080600160a060020a0316638f06492d6040518163ffffffff1660e060020a02815260040160206040518083038186803b1580156151d857600080fd5b505afa1580156151ec573d6000803e3d6000fd5b505050506040513d602081101561520257600080fd5b50511561535557604080517f9182621a0000000000000000000000000000000000000000000000000000000081526004810187815260248201928352845160448301528451600160a060020a03851693639182621a938a93889390929160640190602085019080838360005b8381101561528657818101518382015260200161526e565b50505050905090810190601f1680156152b35780820380516001836020036101000a031916815260200191505b509350505050602060405180830381600087803b1580156152d357600080fd5b505af11580156152e7573d6000803e3d6000fd5b505050506040513d60208110156152fd57600080fd5b50511515615355576040805160e560020a62461bcd02815260206004820152601060248201527f52656d6f76616c206661696c7572652e00000000000000000000000000000000604482015290519081900360640190fd5b604051600160a060020a0385169086907fd1b5265e776cc74b7c19e1f79f0eb431189105741c07f3bb870f17ce3ba4aed890600090a3505b60408051600180825281830190925260609160208083019080388339019050509050838160008151811015156153bf57fe5b600160a060020a03928316602091820290920181019190915260048054604080517f5726f6600000000000000000000000000000000000000000000000000000000081529283018a8152602484019182528651604485015286519290951694635726f660948b948894929392606490910191858101910280838360005b8381101561545457818101518382015260200161543c565b505050509050019350505050600060405180830381600087803b15801561547a57600080fd5b505af11580156141f9573d6000803e3d6000fd5b600460009054906101000a9004600160a060020a0316600160a060020a0316638677ebe88a601960f860020a02600060f860020a02308d8d8d8d8a6040516020018089600160f860020a031916600160f860020a031916815260010188600160f860020a031916600160f860020a031916815260010187600160a060020a0316600160a060020a0316606060020a028152601401807f4920617574686f72697a652074686174207468657365205265736f6c7665727381526020017f2062652072656d6f7665642066726f6d206d79204964656e746974792e000000815250603d0186815260200185600160a060020a0316600160a060020a0316606060020a028152601401841515151560f860020a02815260010183805190602001908083835b602083106155cf5780518252601f1990920191602091820191016155b0565b6001836020036101000a03801982511681845116808217855250505050505090500182815260200198505050505050505050604051602081830303815290604052805190602001208787876040518663ffffffff1660e060020a0281526004018086600160a060020a0316600160a060020a031681526020018581526020018460ff1660ff1681526020018381526020018281526020019550505050505060206040518083038186803b15801561418957600080fd5b600160a060020a038116151561569a57600080fd5b60008054604051600160a060020a03808516939216917f8be0079c531659141344cd1fd0a4f28419497f9722a3daafe3b4186f6b6457e091a36000805473ffffffffffffffffffffffffffffffffffffffff1916600160a060020a0392909216919091179055565b60008282111561571157600080fd5b5090039056fe5065726d697373696f6e2064656e6965642e000000000000000000000000000054696d657374616d70206973206e6f742076616c69642e000000000000000000a165627a7a72305820a43db0da40d96fa8511effcc1e4cc1b8260c9caffbecc2ce35c75a0c34fc6dc20029",
  "source": "pragma solidity ^0.5.0;\n\nimport \"./zeppelin/ownership/Ownable.sol\";\nimport \"./zeppelin/math/SafeMath.sol\";\n\nimport \"./interfaces/HydroInterface.sol\";\nimport \"./interfaces/SnowflakeResolverInterface.sol\";\nimport \"./interfaces/SnowflakeViaInterface.sol\";\nimport \"./interfaces/IdentityRegistryInterface.sol\";\nimport \"./interfaces/ClientRaindropInterface.sol\";\n\ncontract Snowflake is Ownable {\n    using SafeMath for uint;\n\n    // mapping of EIN to hydro token deposits\n    mapping (uint => uint) public deposits;\n    // mapping from EIN to resolver to allowance\n    mapping (uint => mapping (address => uint)) public resolverAllowances;\n\n    // SC variables\n    address public identityRegistryAddress;\n    IdentityRegistryInterface private identityRegistry;\n    address public hydroTokenAddress;\n    HydroInterface private hydroToken;\n    address public clientRaindropAddress;\n    ClientRaindropInterface private clientRaindrop;\n\n    // signature variables\n    uint public signatureTimeout = 1 days;\n    mapping (uint => uint) public signatureNonce;\n\n    constructor (address _identityRegistryAddress, address _hydroTokenAddress) public {\n        setAddresses(_identityRegistryAddress, _hydroTokenAddress);\n    }\n\n    // enforces that a particular EIN exists\n    modifier identityExists(uint ein, bool check) {\n        require(identityRegistry.identityExists(ein) == check, \"The EIN does not exist.\");\n        _;\n    }\n\n    // enforces signature timeouts\n    modifier ensureSignatureTimeValid(uint timestamp) {\n        require(\n            // solium-disable-next-line security/no-block-members\n            block.timestamp >= timestamp && block.timestamp < timestamp + signatureTimeout, \"Timestamp is not valid.\"\n        );\n        _;\n    }\n\n\n    // set the hydro token and identity registry addresses\n    function setAddresses(address _identityRegistryAddress, address _hydroTokenAddress) public onlyOwner {\n        identityRegistryAddress = _identityRegistryAddress;\n        identityRegistry = IdentityRegistryInterface(identityRegistryAddress);\n\n        hydroTokenAddress = _hydroTokenAddress;\n        hydroToken = HydroInterface(hydroTokenAddress);\n    }\n\n    function setClientRaindropAddress(address _clientRaindropAddress) public onlyOwner {\n        clientRaindropAddress = _clientRaindropAddress;\n        clientRaindrop = ClientRaindropInterface(clientRaindropAddress);\n    }\n\n    // wrap createIdentityDelegated and initialize the client raindrop resolver\n    function createIdentityDelegated(\n        address recoveryAddress, address associatedAddress, address[] memory providers, string memory casedHydroId,\n        uint8 v, bytes32 r, bytes32 s, uint timestamp\n    )\n        public returns (uint ein)\n    {\n        address[] memory _providers = new address[](providers.length + 1);\n        _providers[0] = address(this);\n        for (uint i; i < providers.length; i++) {\n            _providers[i + 1] = providers[i];\n        }\n\n        uint _ein = identityRegistry.createIdentityDelegated(\n            recoveryAddress, associatedAddress, _providers, new address[](0), v, r, s, timestamp\n        );\n\n        _addResolver(_ein, clientRaindropAddress, true, 0, abi.encode(associatedAddress, casedHydroId));\n\n        return _ein;\n    }\n\n    // permission addProvidersFor by signature\n    function addProvidersFor(\n        address approvingAddress, address[] memory providers, uint8 v, bytes32 r, bytes32 s, uint timestamp\n    )\n        public ensureSignatureTimeValid(timestamp)\n    {\n        uint ein = identityRegistry.getEIN(approvingAddress);\n        require(\n            identityRegistry.isSigned(\n                approvingAddress,\n                keccak256(\n                    abi.encodePacked(\n                        byte(0x19), byte(0), address(this),\n                        \"I authorize that these Providers be added to my Identity.\",\n                        ein, providers, timestamp\n                    )\n                ),\n                v, r, s\n            ),\n            \"Permission denied.\"\n        );\n\n        identityRegistry.addProvidersFor(ein, providers);\n    }\n\n    // permission removeProvidersFor by signature\n    function removeProvidersFor(\n        address approvingAddress, address[] memory providers, uint8 v, bytes32 r, bytes32 s, uint timestamp\n    )\n        public ensureSignatureTimeValid(timestamp)\n    {\n        uint ein = identityRegistry.getEIN(approvingAddress);\n        require(\n            identityRegistry.isSigned(\n                approvingAddress,\n                keccak256(\n                    abi.encodePacked(\n                        byte(0x19), byte(0), address(this),\n                        \"I authorize that these Providers be removed from my Identity.\",\n                        ein, providers, timestamp\n                    )\n                ),\n                v, r, s\n            ),\n            \"Permission denied.\"\n        );\n\n        identityRegistry.removeProvidersFor(ein, providers);\n    }\n\n    // permissioned addProvidersFor and removeProvidersFor by signature\n    function upgradeProvidersFor(\n        address approvingAddress, address[] memory newProviders, address[] memory oldProviders,\n        uint8[2] memory v, bytes32[2] memory r, bytes32[2] memory s, uint[2] memory timestamp\n    )\n        public\n    {\n        addProvidersFor(approvingAddress, newProviders, v[0], r[0], s[0], timestamp[0]);\n        removeProvidersFor(approvingAddress, oldProviders, v[1], r[1], s[1], timestamp[1]);\n        uint ein = identityRegistry.getEIN(approvingAddress);\n        emit SnowflakeProvidersUpgraded(ein, newProviders, oldProviders, approvingAddress);\n    }\n\n    // permission adding a resolver for identity of msg.sender\n    function addResolver(address resolver, bool isSnowflake, uint withdrawAllowance, bytes memory extraData) public {\n        _addResolver(identityRegistry.getEIN(msg.sender), resolver, isSnowflake, withdrawAllowance, extraData);\n    }\n\n    // permission adding a resolver for identity passed by a provider\n    function addResolverAsProvider(\n        uint ein, address resolver, bool isSnowflake, uint withdrawAllowance, bytes memory extraData\n    )\n        public\n    {\n        require(identityRegistry.isProviderFor(ein, msg.sender), \"The msg.sender is not a Provider for the passed EIN\");\n        _addResolver(ein, resolver, isSnowflake, withdrawAllowance, extraData);\n    }\n\n    // permission addResolversFor by signature\n    function addResolverFor(\n        address approvingAddress, address resolver, bool isSnowflake, uint withdrawAllowance, bytes memory extraData,\n        uint8 v, bytes32 r, bytes32 s, uint timestamp\n    )\n        public\n    {\n        uint ein = identityRegistry.getEIN(approvingAddress);\n\n        validateAddResolverForSignature(\n            approvingAddress, ein, resolver, isSnowflake, withdrawAllowance, extraData, v, r, s, timestamp\n        );\n\n        _addResolver(ein, resolver, isSnowflake, withdrawAllowance, extraData);\n    }\n\n    function validateAddResolverForSignature(\n        address approvingAddress, uint ein,\n        address resolver, bool isSnowflake, uint withdrawAllowance, bytes memory extraData,\n        uint8 v, bytes32 r, bytes32 s, uint timestamp\n    )\n        private view ensureSignatureTimeValid(timestamp)\n    {\n        require(\n            identityRegistry.isSigned(\n                approvingAddress,\n                keccak256(\n                    abi.encodePacked(\n                        byte(0x19), byte(0), address(this),\n                        \"I authorize that this resolver be added to my Identity.\",\n                        ein, resolver, isSnowflake, withdrawAllowance, extraData, timestamp\n                    )\n                ),\n                v, r, s\n            ),\n            \"Permission denied.\"\n        );\n    }\n\n    // common logic for adding resolvers\n    function _addResolver(uint ein, address resolver, bool isSnowflake, uint withdrawAllowance, bytes memory extraData)\n        private\n    {\n        require(!identityRegistry.isResolverFor(ein, resolver), \"Identity has already set this resolver.\");\n\n        address[] memory resolvers = new address[](1);\n        resolvers[0] = resolver;\n        identityRegistry.addResolversFor(ein, resolvers);\n\n        if (isSnowflake) {\n            resolverAllowances[ein][resolver] = withdrawAllowance;\n            SnowflakeResolverInterface snowflakeResolver = SnowflakeResolverInterface(resolver);\n            if (snowflakeResolver.callOnAddition())\n                require(snowflakeResolver.onAddition(ein, withdrawAllowance, extraData), \"Sign up failure.\");\n            emit SnowflakeResolverAdded(ein, resolver, withdrawAllowance);\n        }\n    }\n\n    // permission changing resolver allowances for identity of msg.sender\n    function changeResolverAllowances(address[] memory resolvers, uint[] memory withdrawAllowances) public {\n        changeResolverAllowances(identityRegistry.getEIN(msg.sender), resolvers, withdrawAllowances);\n    }\n\n    // change resolver allowances delegated\n    function changeResolverAllowancesDelegated(\n        address approvingAddress, address[] memory resolvers, uint[] memory withdrawAllowances,\n        uint8 v, bytes32 r, bytes32 s\n    )\n        public\n    {\n        uint ein = identityRegistry.getEIN(approvingAddress);\n\n        uint nonce = signatureNonce[ein]++;\n        require(\n            identityRegistry.isSigned(\n                approvingAddress,\n                keccak256(\n                    abi.encodePacked(\n                        byte(0x19), byte(0), address(this),\n                        \"I authorize this change in Resolver allowances.\",\n                        ein, resolvers, withdrawAllowances, nonce\n                    )\n                ),\n                v, r, s\n            ),\n            \"Permission denied.\"\n        );\n\n        changeResolverAllowances(ein, resolvers, withdrawAllowances);\n    }\n\n    // common logic to change resolver allowances\n    function changeResolverAllowances(uint ein, address[] memory resolvers, uint[] memory withdrawAllowances) private {\n        require(resolvers.length == withdrawAllowances.length, \"Malformed inputs.\");\n\n        for (uint i; i < resolvers.length; i++) {\n            require(identityRegistry.isResolverFor(ein, resolvers[i]), \"Identity has not set this resolver.\");\n            resolverAllowances[ein][resolvers[i]] = withdrawAllowances[i];\n            emit SnowflakeResolverAllowanceChanged(ein, resolvers[i], withdrawAllowances[i]);\n        }\n    }\n\n    // permission removing a resolver for identity of msg.sender\n    function removeResolver(address resolver, bool isSnowflake, bytes memory extraData) public {\n        removeResolver(identityRegistry.getEIN(msg.sender), resolver, isSnowflake, extraData);\n    }\n\n    // permission removeResolverFor by signature\n    function removeResolverFor(\n        address approvingAddress, address resolver, bool isSnowflake, bytes memory extraData,\n        uint8 v, bytes32 r, bytes32 s, uint timestamp\n    )\n        public ensureSignatureTimeValid(timestamp)\n    {\n        uint ein = identityRegistry.getEIN(approvingAddress);\n\n        validateRemoveResolverForSignature(approvingAddress, ein, resolver, isSnowflake, extraData, v, r, s, timestamp);\n\n        removeResolver(ein, resolver, isSnowflake, extraData);\n    }\n\n    function validateRemoveResolverForSignature(\n        address approvingAddress, uint ein, address resolver, bool isSnowflake, bytes memory extraData,\n        uint8 v, bytes32 r, bytes32 s, uint timestamp\n    )\n        private view\n    {\n        require(\n            identityRegistry.isSigned(\n                approvingAddress,\n                keccak256(\n                    abi.encodePacked(\n                        byte(0x19), byte(0), address(this),\n                        \"I authorize that these Resolvers be removed from my Identity.\",\n                        ein, resolver, isSnowflake, extraData, timestamp\n                    )\n                ),\n                v, r, s\n            ),\n            \"Permission denied.\"\n        );\n    }\n\n    // common logic to remove resolvers\n    function removeResolver(uint ein, address resolver, bool isSnowflake, bytes memory extraData) private {\n        require(identityRegistry.isResolverFor(ein, resolver), \"Identity has not yet set this resolver.\");\n    \n        delete resolverAllowances[ein][resolver];\n    \n        if (isSnowflake) {\n            SnowflakeResolverInterface snowflakeResolver = SnowflakeResolverInterface(resolver);\n            if (snowflakeResolver.callOnRemoval())\n                require(snowflakeResolver.onRemoval(ein, extraData), \"Removal failure.\");\n            emit SnowflakeResolverRemoved(ein, resolver);\n        }\n\n        address[] memory resolvers = new address[](1);\n        resolvers[0] = resolver;\n        identityRegistry.removeResolversFor(ein, resolvers);\n    }\n\n    function triggerRecoveryAddressChangeFor(\n        address approvingAddress, address newRecoveryAddress, uint8 v, bytes32 r, bytes32 s\n    )\n        public\n    {\n        uint ein = identityRegistry.getEIN(approvingAddress);\n        uint nonce = signatureNonce[ein]++;\n        require(\n            identityRegistry.isSigned(\n                approvingAddress,\n                keccak256(\n                    abi.encodePacked(\n                        byte(0x19), byte(0), address(this),\n                        \"I authorize this change of Recovery Address.\",\n                        ein, newRecoveryAddress, nonce\n                    )\n                ),\n                v, r, s\n            ),\n            \"Permission denied.\"\n        );\n\n        identityRegistry.triggerRecoveryAddressChangeFor(ein, newRecoveryAddress);\n    }\n\n    // allow contract to receive HYDRO tokens\n    function receiveApproval(address sender, uint amount, address _tokenAddress, bytes memory _bytes) public {\n        require(msg.sender == _tokenAddress, \"Malformed inputs.\");\n        require(_tokenAddress == hydroTokenAddress, \"Sender is not the HYDRO token smart contract.\");\n\n        // depositing to an EIN\n        if (_bytes.length <= 32) {\n            require(hydroToken.transferFrom(sender, address(this), amount), \"Unable to transfer token ownership.\");\n            uint recipient;\n            if (_bytes.length < 32) {\n                recipient = identityRegistry.getEIN(sender);\n            }\n            else {\n                recipient = abi.decode(_bytes, (uint));\n                require(identityRegistry.identityExists(recipient), \"The recipient EIN does not exist.\");\n            }\n            deposits[recipient] = deposits[recipient].add(amount);\n            emit SnowflakeDeposit(sender, recipient, amount);\n        }\n        // transferring to a via\n        else {\n            (\n                bool isTransfer, address resolver, address via, uint to, bytes memory snowflakeCallBytes\n            ) = abi.decode(_bytes, (bool, address, address, uint, bytes));\n            \n            require(hydroToken.transferFrom(sender, via, amount), \"Unable to transfer token ownership.\");\n\n            SnowflakeViaInterface viaContract = SnowflakeViaInterface(via);\n            if (isTransfer) {\n                viaContract.snowflakeCall(resolver, to, amount, snowflakeCallBytes);\n                emit SnowflakeTransferToVia(resolver, via, to, amount);\n            } else {\n                address payable payableTo = address(to);\n                viaContract.snowflakeCall(resolver, payableTo, amount, snowflakeCallBytes);\n                emit SnowflakeWithdrawToVia(resolver, via, address(to), amount);\n            }\n        }\n    }\n\n    // transfer snowflake balance from one snowflake holder to another\n    function transferSnowflakeBalance(uint einTo, uint amount) public {\n        _transfer(identityRegistry.getEIN(msg.sender), einTo, amount);\n    }\n\n    // withdraw Snowflake balance to an external address\n    function withdrawSnowflakeBalance(address to, uint amount) public {\n        _withdraw(identityRegistry.getEIN(msg.sender), to, amount);\n    }\n\n    // allows resolvers to transfer allowance amounts to other snowflakes (throws if unsuccessful)\n    function transferSnowflakeBalanceFrom(uint einFrom, uint einTo, uint amount) public {\n        handleAllowance(einFrom, amount);\n        _transfer(einFrom, einTo, amount);\n        emit SnowflakeTransferFrom(msg.sender);\n    }\n\n    // allows resolvers to withdraw allowance amounts to external addresses (throws if unsuccessful)\n    function withdrawSnowflakeBalanceFrom(uint einFrom, address to, uint amount) public {\n        handleAllowance(einFrom, amount);\n        _withdraw(einFrom, to, amount);\n        emit SnowflakeWithdrawFrom(msg.sender);\n    }\n\n    // allows resolvers to send withdrawal amounts to arbitrary smart contracts 'to' identities (throws if unsuccessful)\n    function transferSnowflakeBalanceFromVia(uint einFrom, address via, uint einTo, uint amount, bytes memory _bytes)\n        public\n    {\n        handleAllowance(einFrom, amount);\n        _withdraw(einFrom, via, amount);\n        SnowflakeViaInterface viaContract = SnowflakeViaInterface(via);\n        viaContract.snowflakeCall(msg.sender, einFrom, einTo, amount, _bytes);\n        emit SnowflakeTransferFromVia(msg.sender, einTo);\n    }\n\n    // allows resolvers to send withdrawal amounts 'to' addresses via arbitrary smart contracts\n    function withdrawSnowflakeBalanceFromVia(\n        uint einFrom, address via, address payable to, uint amount, bytes memory _bytes\n    )\n        public\n    {\n        handleAllowance(einFrom, amount);\n        _withdraw(einFrom, via, amount);\n        SnowflakeViaInterface viaContract = SnowflakeViaInterface(via);\n        viaContract.snowflakeCall(msg.sender, einFrom, to, amount, _bytes);\n        emit SnowflakeWithdrawFromVia(msg.sender, to);\n    }\n\n    function _transfer(uint einFrom, uint einTo, uint amount) private identityExists(einTo, true) returns (bool) {\n        require(deposits[einFrom] >= amount, \"Cannot withdraw more than the current deposit balance.\");\n        deposits[einFrom] = deposits[einFrom].sub(amount);\n        deposits[einTo] = deposits[einTo].add(amount);\n\n        emit SnowflakeTransfer(einFrom, einTo, amount);\n    }\n\n    function _withdraw(uint einFrom, address to, uint amount) internal {\n        require(to != address(this), \"Cannot transfer to the Snowflake smart contract itself.\");\n\n        require(deposits[einFrom] >= amount, \"Cannot withdraw more than the current deposit balance.\");\n        deposits[einFrom] = deposits[einFrom].sub(amount);\n        require(hydroToken.transfer(to, amount), \"Transfer was unsuccessful\");\n\n        emit SnowflakeWithdraw(einFrom, to, amount);\n    }\n\n    function handleAllowance(uint einFrom, uint amount) internal {\n        // check that resolver-related details are correct\n        require(identityRegistry.isResolverFor(einFrom, msg.sender), \"Resolver has not been set by from tokenholder.\");\n\n        if (resolverAllowances[einFrom][msg.sender] < amount) {\n            emit SnowflakeInsufficientAllowance(einFrom, msg.sender, resolverAllowances[einFrom][msg.sender], amount);\n            revert(\"Insufficient Allowance\");\n        }\n\n        resolverAllowances[einFrom][msg.sender] = resolverAllowances[einFrom][msg.sender].sub(amount);\n    }\n\n    // allowAndCall from msg.sender\n    function allowAndCall(address destination, uint amount, bytes memory data)\n        public returns (bytes memory returnData)\n    {\n        return allowAndCall(identityRegistry.getEIN(msg.sender), amount, destination, data);\n    }\n\n    // allowAndCall from approvingAddress with meta-transaction\n    function allowAndCallDelegated(\n        address destination, uint amount, bytes memory data, address approvingAddress, uint8 v, bytes32 r, bytes32 s\n    )\n        public returns (bytes memory returnData)\n    {\n        uint ein = identityRegistry.getEIN(approvingAddress);\n        uint nonce = signatureNonce[ein]++;\n        validateAllowAndCallDelegatedSignature(approvingAddress, ein, destination, amount, data, nonce, v, r, s);\n\n        return allowAndCall(ein, amount, destination, data);\n    }\n\n    function validateAllowAndCallDelegatedSignature(\n        address approvingAddress, uint ein, address destination, uint amount, bytes memory data, uint nonce,\n        uint8 v, bytes32 r, bytes32 s\n    )\n        private view\n    {\n        require(\n            identityRegistry.isSigned(\n                approvingAddress,\n                keccak256(\n                    abi.encodePacked(\n                        byte(0x19), byte(0), address(this),\n                        \"I authorize this allow and call.\", ein, destination, amount, data, nonce\n                    )\n                ),\n                v, r, s\n            ),\n            \"Permission denied.\"\n        );\n    }\n\n    // internal logic for allowAndCall\n    function allowAndCall(uint ein, uint amount, address destination, bytes memory data)\n        private returns (bytes memory returnData)\n    {\n        // check that resolver-related details are correct\n        require(identityRegistry.isResolverFor(ein, destination), \"Destination has not been set by from tokenholder.\");\n        if (amount != 0) {\n            resolverAllowances[ein][destination] = resolverAllowances[ein][destination].add(amount);\n        }\n\n        // solium-disable-next-line security/no-low-level-calls\n        (bool success, bytes memory _returnData) = destination.call(data);\n        require(success, \"Call was not successful.\");\n        return _returnData;\n    }\n\n    // events\n    event SnowflakeProvidersUpgraded(uint indexed ein, address[] newProviders, address[] oldProviders, address approvingAddress);\n\n    event SnowflakeResolverAdded(uint indexed ein, address indexed resolver, uint withdrawAllowance);\n    event SnowflakeResolverAllowanceChanged(uint indexed ein, address indexed resolver, uint withdrawAllowance);\n    event SnowflakeResolverRemoved(uint indexed ein, address indexed resolver);\n\n    event SnowflakeDeposit(address indexed from, uint indexed einTo, uint amount);\n    event SnowflakeTransfer(uint indexed einFrom, uint indexed einTo, uint amount);\n    event SnowflakeWithdraw(uint indexed einFrom, address indexed to, uint amount);\n\n    event SnowflakeTransferFrom(address indexed resolverFrom);\n    event SnowflakeWithdrawFrom(address indexed resolverFrom);\n    event SnowflakeTransferFromVia(address indexed resolverFrom, uint indexed einTo);\n    event SnowflakeWithdrawFromVia(address indexed resolverFrom, address indexed to);\n    event SnowflakeTransferToVia(address indexed resolverFrom, address indexed via, uint indexed einTo, uint amount);\n    event SnowflakeWithdrawToVia(address indexed resolverFrom, address indexed via, address indexed to, uint amount);\n\n    event SnowflakeInsufficientAllowance(\n        uint indexed ein, address indexed resolver, uint currentAllowance, uint requestedWithdraw\n    );\n}\n",
  "sourcePath": "/MAMPWeb/HydroIce/HydroIceContract/contracts/Snowflake.sol",
  "compiler": {
    "name": "solc",
    "version": "0.5.1+commit.c8a2cb62.Emscripten.clang"
  },
  "schemaVersion": "3.0.6",
  "updatedAt": "2019-05-12T00:52:55.815Z",
  "devdoc": {
    "methods": {
      "isOwner()": {
        "return": "true if `msg.sender` is the owner of the contract."
      },
      "owner()": {
        "return": "the address of the owner."
      },
      "renounceOwnership()": {
        "details": "Allows the current owner to relinquish control of the contract."
      },
      "transferOwnership(address)": {
        "details": "Allows the current owner to transfer control of the contract to a newOwner.",
        "params": {
          "newOwner": "The address to transfer ownership to."
        }
      }
    }
  },
  "userdoc": {
    "methods": {
      "renounceOwnership()": {
        "notice": "Renouncing to ownership will leave the contract without an owner. It will not be possible to call the functions with the `onlyOwner` modifier anymore."
      }
    }
  }
}