{
  "contractName": "Snowflake",
  "abi": [
    {
      "constant": true,
      "inputs": [
        {
          "name": "",
          "type": "uint256"
        }
      ],
      "name": "signatureNonce",
      "outputs": [
        {
          "name": "",
          "type": "uint256"
        }
      ],
      "payable": false,
      "stateMutability": "view",
      "type": "function"
    },
    {
      "constant": true,
      "inputs": [],
      "name": "clientRaindropAddress",
      "outputs": [
        {
          "name": "",
          "type": "address"
        }
      ],
      "payable": false,
      "stateMutability": "view",
      "type": "function"
    },
    {
      "constant": true,
      "inputs": [],
      "name": "signatureTimeout",
      "outputs": [
        {
          "name": "",
          "type": "uint256"
        }
      ],
      "payable": false,
      "stateMutability": "view",
      "type": "function"
    },
    {
      "constant": false,
      "inputs": [],
      "name": "renounceOwnership",
      "outputs": [],
      "payable": false,
      "stateMutability": "nonpayable",
      "type": "function"
    },
    {
      "constant": true,
      "inputs": [],
      "name": "hydroTokenAddress",
      "outputs": [
        {
          "name": "",
          "type": "address"
        }
      ],
      "payable": false,
      "stateMutability": "view",
      "type": "function"
    },
    {
      "constant": true,
      "inputs": [],
      "name": "owner",
      "outputs": [
        {
          "name": "",
          "type": "address"
        }
      ],
      "payable": false,
      "stateMutability": "view",
      "type": "function"
    },
    {
      "constant": true,
      "inputs": [],
      "name": "isOwner",
      "outputs": [
        {
          "name": "",
          "type": "bool"
        }
      ],
      "payable": false,
      "stateMutability": "view",
      "type": "function"
    },
    {
      "constant": true,
      "inputs": [],
      "name": "identityRegistryAddress",
      "outputs": [
        {
          "name": "",
          "type": "address"
        }
      ],
      "payable": false,
      "stateMutability": "view",
      "type": "function"
    },
    {
      "constant": true,
      "inputs": [
        {
          "name": "",
          "type": "uint256"
        }
      ],
      "name": "deposits",
      "outputs": [
        {
          "name": "",
          "type": "uint256"
        }
      ],
      "payable": false,
      "stateMutability": "view",
      "type": "function"
    },
    {
      "constant": true,
      "inputs": [
        {
          "name": "",
          "type": "uint256"
        },
        {
          "name": "",
          "type": "address"
        }
      ],
      "name": "resolverAllowances",
      "outputs": [
        {
          "name": "",
          "type": "uint256"
        }
      ],
      "payable": false,
      "stateMutability": "view",
      "type": "function"
    },
    {
      "constant": false,
      "inputs": [
        {
          "name": "newOwner",
          "type": "address"
        }
      ],
      "name": "transferOwnership",
      "outputs": [],
      "payable": false,
      "stateMutability": "nonpayable",
      "type": "function"
    },
    {
      "inputs": [
        {
          "name": "_identityRegistryAddress",
          "type": "address"
        },
        {
          "name": "_hydroTokenAddress",
          "type": "address"
        }
      ],
      "payable": false,
      "stateMutability": "nonpayable",
      "type": "constructor"
    },
    {
      "anonymous": false,
      "inputs": [
        {
          "indexed": true,
          "name": "ein",
          "type": "uint256"
        },
        {
          "indexed": false,
          "name": "newProviders",
          "type": "address[]"
        },
        {
          "indexed": false,
          "name": "oldProviders",
          "type": "address[]"
        },
        {
          "indexed": false,
          "name": "approvingAddress",
          "type": "address"
        }
      ],
      "name": "SnowflakeProvidersUpgraded",
      "type": "event"
    },
    {
      "anonymous": false,
      "inputs": [
        {
          "indexed": true,
          "name": "ein",
          "type": "uint256"
        },
        {
          "indexed": true,
          "name": "resolver",
          "type": "address"
        },
        {
          "indexed": false,
          "name": "withdrawAllowance",
          "type": "uint256"
        }
      ],
      "name": "SnowflakeResolverAdded",
      "type": "event"
    },
    {
      "anonymous": false,
      "inputs": [
        {
          "indexed": true,
          "name": "ein",
          "type": "uint256"
        },
        {
          "indexed": true,
          "name": "resolver",
          "type": "address"
        },
        {
          "indexed": false,
          "name": "withdrawAllowance",
          "type": "uint256"
        }
      ],
      "name": "SnowflakeResolverAllowanceChanged",
      "type": "event"
    },
    {
      "anonymous": false,
      "inputs": [
        {
          "indexed": true,
          "name": "ein",
          "type": "uint256"
        },
        {
          "indexed": true,
          "name": "resolver",
          "type": "address"
        }
      ],
      "name": "SnowflakeResolverRemoved",
      "type": "event"
    },
    {
      "anonymous": false,
      "inputs": [
        {
          "indexed": true,
          "name": "from",
          "type": "address"
        },
        {
          "indexed": true,
          "name": "einTo",
          "type": "uint256"
        },
        {
          "indexed": false,
          "name": "amount",
          "type": "uint256"
        }
      ],
      "name": "SnowflakeDeposit",
      "type": "event"
    },
    {
      "anonymous": false,
      "inputs": [
        {
          "indexed": true,
          "name": "einFrom",
          "type": "uint256"
        },
        {
          "indexed": true,
          "name": "einTo",
          "type": "uint256"
        },
        {
          "indexed": false,
          "name": "amount",
          "type": "uint256"
        }
      ],
      "name": "SnowflakeTransfer",
      "type": "event"
    },
    {
      "anonymous": false,
      "inputs": [
        {
          "indexed": true,
          "name": "einFrom",
          "type": "uint256"
        },
        {
          "indexed": true,
          "name": "to",
          "type": "address"
        },
        {
          "indexed": false,
          "name": "amount",
          "type": "uint256"
        }
      ],
      "name": "SnowflakeWithdraw",
      "type": "event"
    },
    {
      "anonymous": false,
      "inputs": [
        {
          "indexed": true,
          "name": "resolverFrom",
          "type": "address"
        }
      ],
      "name": "SnowflakeTransferFrom",
      "type": "event"
    },
    {
      "anonymous": false,
      "inputs": [
        {
          "indexed": true,
          "name": "resolverFrom",
          "type": "address"
        }
      ],
      "name": "SnowflakeWithdrawFrom",
      "type": "event"
    },
    {
      "anonymous": false,
      "inputs": [
        {
          "indexed": true,
          "name": "resolverFrom",
          "type": "address"
        },
        {
          "indexed": true,
          "name": "einTo",
          "type": "uint256"
        }
      ],
      "name": "SnowflakeTransferFromVia",
      "type": "event"
    },
    {
      "anonymous": false,
      "inputs": [
        {
          "indexed": true,
          "name": "resolverFrom",
          "type": "address"
        },
        {
          "indexed": true,
          "name": "to",
          "type": "address"
        }
      ],
      "name": "SnowflakeWithdrawFromVia",
      "type": "event"
    },
    {
      "anonymous": false,
      "inputs": [
        {
          "indexed": true,
          "name": "resolverFrom",
          "type": "address"
        },
        {
          "indexed": true,
          "name": "via",
          "type": "address"
        },
        {
          "indexed": true,
          "name": "einTo",
          "type": "uint256"
        },
        {
          "indexed": false,
          "name": "amount",
          "type": "uint256"
        }
      ],
      "name": "SnowflakeTransferToVia",
      "type": "event"
    },
    {
      "anonymous": false,
      "inputs": [
        {
          "indexed": true,
          "name": "resolverFrom",
          "type": "address"
        },
        {
          "indexed": true,
          "name": "via",
          "type": "address"
        },
        {
          "indexed": true,
          "name": "to",
          "type": "address"
        },
        {
          "indexed": false,
          "name": "amount",
          "type": "uint256"
        }
      ],
      "name": "SnowflakeWithdrawToVia",
      "type": "event"
    },
    {
      "anonymous": false,
      "inputs": [
        {
          "indexed": true,
          "name": "ein",
          "type": "uint256"
        },
        {
          "indexed": true,
          "name": "resolver",
          "type": "address"
        },
        {
          "indexed": false,
          "name": "currentAllowance",
          "type": "uint256"
        },
        {
          "indexed": false,
          "name": "requestedWithdraw",
          "type": "uint256"
        }
      ],
      "name": "SnowflakeInsufficientAllowance",
      "type": "event"
    },
    {
      "anonymous": false,
      "inputs": [
        {
          "indexed": true,
          "name": "previousOwner",
          "type": "address"
        },
        {
          "indexed": true,
          "name": "newOwner",
          "type": "address"
        }
      ],
      "name": "OwnershipTransferred",
      "type": "event"
    },
    {
      "constant": false,
      "inputs": [
        {
          "name": "_identityRegistryAddress",
          "type": "address"
        },
        {
          "name": "_hydroTokenAddress",
          "type": "address"
        }
      ],
      "name": "setAddresses",
      "outputs": [],
      "payable": false,
      "stateMutability": "nonpayable",
      "type": "function"
    },
    {
      "constant": false,
      "inputs": [
        {
          "name": "_clientRaindropAddress",
          "type": "address"
        }
      ],
      "name": "setClientRaindropAddress",
      "outputs": [],
      "payable": false,
      "stateMutability": "nonpayable",
      "type": "function"
    },
    {
      "constant": false,
      "inputs": [
        {
          "name": "recoveryAddress",
          "type": "address"
        },
        {
          "name": "associatedAddress",
          "type": "address"
        },
        {
          "name": "providers",
          "type": "address[]"
        },
        {
          "name": "casedHydroId",
          "type": "string"
        },
        {
          "name": "v",
          "type": "uint8"
        },
        {
          "name": "r",
          "type": "bytes32"
        },
        {
          "name": "s",
          "type": "bytes32"
        },
        {
          "name": "timestamp",
          "type": "uint256"
        }
      ],
      "name": "createIdentityDelegated",
      "outputs": [
        {
          "name": "ein",
          "type": "uint256"
        }
      ],
      "payable": false,
      "stateMutability": "nonpayable",
      "type": "function"
    },
    {
      "constant": false,
      "inputs": [
        {
          "name": "approvingAddress",
          "type": "address"
        },
        {
          "name": "providers",
          "type": "address[]"
        },
        {
          "name": "v",
          "type": "uint8"
        },
        {
          "name": "r",
          "type": "bytes32"
        },
        {
          "name": "s",
          "type": "bytes32"
        },
        {
          "name": "timestamp",
          "type": "uint256"
        }
      ],
      "name": "addProvidersFor",
      "outputs": [],
      "payable": false,
      "stateMutability": "nonpayable",
      "type": "function"
    },
    {
      "constant": false,
      "inputs": [
        {
          "name": "approvingAddress",
          "type": "address"
        },
        {
          "name": "providers",
          "type": "address[]"
        },
        {
          "name": "v",
          "type": "uint8"
        },
        {
          "name": "r",
          "type": "bytes32"
        },
        {
          "name": "s",
          "type": "bytes32"
        },
        {
          "name": "timestamp",
          "type": "uint256"
        }
      ],
      "name": "removeProvidersFor",
      "outputs": [],
      "payable": false,
      "stateMutability": "nonpayable",
      "type": "function"
    },
    {
      "constant": false,
      "inputs": [
        {
          "name": "approvingAddress",
          "type": "address"
        },
        {
          "name": "newProviders",
          "type": "address[]"
        },
        {
          "name": "oldProviders",
          "type": "address[]"
        },
        {
          "name": "v",
          "type": "uint8[2]"
        },
        {
          "name": "r",
          "type": "bytes32[2]"
        },
        {
          "name": "s",
          "type": "bytes32[2]"
        },
        {
          "name": "timestamp",
          "type": "uint256[2]"
        }
      ],
      "name": "upgradeProvidersFor",
      "outputs": [],
      "payable": false,
      "stateMutability": "nonpayable",
      "type": "function"
    },
    {
      "constant": false,
      "inputs": [
        {
          "name": "resolver",
          "type": "address"
        },
        {
          "name": "isSnowflake",
          "type": "bool"
        },
        {
          "name": "withdrawAllowance",
          "type": "uint256"
        },
        {
          "name": "extraData",
          "type": "bytes"
        }
      ],
      "name": "addResolver",
      "outputs": [],
      "payable": false,
      "stateMutability": "nonpayable",
      "type": "function"
    },
    {
      "constant": false,
      "inputs": [
        {
          "name": "ein",
          "type": "uint256"
        },
        {
          "name": "resolver",
          "type": "address"
        },
        {
          "name": "isSnowflake",
          "type": "bool"
        },
        {
          "name": "withdrawAllowance",
          "type": "uint256"
        },
        {
          "name": "extraData",
          "type": "bytes"
        }
      ],
      "name": "addResolverAsProvider",
      "outputs": [],
      "payable": false,
      "stateMutability": "nonpayable",
      "type": "function"
    },
    {
      "constant": false,
      "inputs": [
        {
          "name": "approvingAddress",
          "type": "address"
        },
        {
          "name": "resolver",
          "type": "address"
        },
        {
          "name": "isSnowflake",
          "type": "bool"
        },
        {
          "name": "withdrawAllowance",
          "type": "uint256"
        },
        {
          "name": "extraData",
          "type": "bytes"
        },
        {
          "name": "v",
          "type": "uint8"
        },
        {
          "name": "r",
          "type": "bytes32"
        },
        {
          "name": "s",
          "type": "bytes32"
        },
        {
          "name": "timestamp",
          "type": "uint256"
        }
      ],
      "name": "addResolverFor",
      "outputs": [],
      "payable": false,
      "stateMutability": "nonpayable",
      "type": "function"
    },
    {
      "constant": false,
      "inputs": [
        {
          "name": "approvingAddress",
          "type": "address"
        },
        {
          "name": "resolvers",
          "type": "address[]"
        },
        {
          "name": "withdrawAllowances",
          "type": "uint256[]"
        },
        {
          "name": "v",
          "type": "uint8"
        },
        {
          "name": "r",
          "type": "bytes32"
        },
        {
          "name": "s",
          "type": "bytes32"
        }
      ],
      "name": "changeResolverAllowancesDelegated",
      "outputs": [],
      "payable": false,
      "stateMutability": "nonpayable",
      "type": "function"
    },
    {
      "constant": false,
      "inputs": [
        {
          "name": "resolvers",
          "type": "address[]"
        },
        {
          "name": "withdrawAllowances",
          "type": "uint256[]"
        }
      ],
      "name": "changeResolverAllowances",
      "outputs": [],
      "payable": false,
      "stateMutability": "nonpayable",
      "type": "function"
    },
    {
      "constant": false,
      "inputs": [
        {
          "name": "approvingAddress",
          "type": "address"
        },
        {
          "name": "resolver",
          "type": "address"
        },
        {
          "name": "isSnowflake",
          "type": "bool"
        },
        {
          "name": "extraData",
          "type": "bytes"
        },
        {
          "name": "v",
          "type": "uint8"
        },
        {
          "name": "r",
          "type": "bytes32"
        },
        {
          "name": "s",
          "type": "bytes32"
        },
        {
          "name": "timestamp",
          "type": "uint256"
        }
      ],
      "name": "removeResolverFor",
      "outputs": [],
      "payable": false,
      "stateMutability": "nonpayable",
      "type": "function"
    },
    {
      "constant": false,
      "inputs": [
        {
          "name": "resolver",
          "type": "address"
        },
        {
          "name": "isSnowflake",
          "type": "bool"
        },
        {
          "name": "extraData",
          "type": "bytes"
        }
      ],
      "name": "removeResolver",
      "outputs": [],
      "payable": false,
      "stateMutability": "nonpayable",
      "type": "function"
    },
    {
      "constant": false,
      "inputs": [
        {
          "name": "approvingAddress",
          "type": "address"
        },
        {
          "name": "newRecoveryAddress",
          "type": "address"
        },
        {
          "name": "v",
          "type": "uint8"
        },
        {
          "name": "r",
          "type": "bytes32"
        },
        {
          "name": "s",
          "type": "bytes32"
        }
      ],
      "name": "triggerRecoveryAddressChangeFor",
      "outputs": [],
      "payable": false,
      "stateMutability": "nonpayable",
      "type": "function"
    },
    {
      "constant": false,
      "inputs": [
        {
          "name": "sender",
          "type": "address"
        },
        {
          "name": "amount",
          "type": "uint256"
        },
        {
          "name": "_tokenAddress",
          "type": "address"
        },
        {
          "name": "_bytes",
          "type": "bytes"
        }
      ],
      "name": "receiveApproval",
      "outputs": [],
      "payable": false,
      "stateMutability": "nonpayable",
      "type": "function"
    },
    {
      "constant": false,
      "inputs": [
        {
          "name": "einTo",
          "type": "uint256"
        },
        {
          "name": "amount",
          "type": "uint256"
        }
      ],
      "name": "transferSnowflakeBalance",
      "outputs": [],
      "payable": false,
      "stateMutability": "nonpayable",
      "type": "function"
    },
    {
      "constant": false,
      "inputs": [
        {
          "name": "to",
          "type": "address"
        },
        {
          "name": "amount",
          "type": "uint256"
        }
      ],
      "name": "withdrawSnowflakeBalance",
      "outputs": [],
      "payable": false,
      "stateMutability": "nonpayable",
      "type": "function"
    },
    {
      "constant": false,
      "inputs": [
        {
          "name": "einFrom",
          "type": "uint256"
        },
        {
          "name": "einTo",
          "type": "uint256"
        },
        {
          "name": "amount",
          "type": "uint256"
        }
      ],
      "name": "transferSnowflakeBalanceFrom",
      "outputs": [],
      "payable": false,
      "stateMutability": "nonpayable",
      "type": "function"
    },
    {
      "constant": false,
      "inputs": [
        {
          "name": "einFrom",
          "type": "uint256"
        },
        {
          "name": "to",
          "type": "address"
        },
        {
          "name": "amount",
          "type": "uint256"
        }
      ],
      "name": "withdrawSnowflakeBalanceFrom",
      "outputs": [],
      "payable": false,
      "stateMutability": "nonpayable",
      "type": "function"
    },
    {
      "constant": false,
      "inputs": [
        {
          "name": "einFrom",
          "type": "uint256"
        },
        {
          "name": "via",
          "type": "address"
        },
        {
          "name": "einTo",
          "type": "uint256"
        },
        {
          "name": "amount",
          "type": "uint256"
        },
        {
          "name": "_bytes",
          "type": "bytes"
        }
      ],
      "name": "transferSnowflakeBalanceFromVia",
      "outputs": [],
      "payable": false,
      "stateMutability": "nonpayable",
      "type": "function"
    },
    {
      "constant": false,
      "inputs": [
        {
          "name": "einFrom",
          "type": "uint256"
        },
        {
          "name": "via",
          "type": "address"
        },
        {
          "name": "to",
          "type": "address"
        },
        {
          "name": "amount",
          "type": "uint256"
        },
        {
          "name": "_bytes",
          "type": "bytes"
        }
      ],
      "name": "withdrawSnowflakeBalanceFromVia",
      "outputs": [],
      "payable": false,
      "stateMutability": "nonpayable",
      "type": "function"
    },
    {
      "constant": false,
      "inputs": [
        {
          "name": "destination",
          "type": "address"
        },
        {
          "name": "amount",
          "type": "uint256"
        },
        {
          "name": "data",
          "type": "bytes"
        },
        {
          "name": "approvingAddress",
          "type": "address"
        },
        {
          "name": "v",
          "type": "uint8"
        },
        {
          "name": "r",
          "type": "bytes32"
        },
        {
          "name": "s",
          "type": "bytes32"
        }
      ],
      "name": "allowAndCallDelegated",
      "outputs": [
        {
          "name": "returnData",
          "type": "bytes"
        }
      ],
      "payable": false,
      "stateMutability": "nonpayable",
      "type": "function"
    },
    {
      "constant": false,
      "inputs": [
        {
          "name": "destination",
          "type": "address"
        },
        {
          "name": "amount",
          "type": "uint256"
        },
        {
          "name": "data",
          "type": "bytes"
        }
      ],
      "name": "allowAndCall",
      "outputs": [
        {
          "name": "returnData",
          "type": "bytes"
        }
      ],
      "payable": false,
      "stateMutability": "nonpayable",
      "type": "function"
    }
  ],
  "bytecode": "0x6080604052620151806009553480156200001857600080fd5b5060405160408062008806833981018060405260408110156200003a57600080fd5b810190808051906020019092919080519060200190929190505050336000806101000a81548173ffffffffffffffffffffffffffffffffffffffff021916908373ffffffffffffffffffffffffffffffffffffffff1602179055506000809054906101000a900473ffffffffffffffffffffffffffffffffffffffff1673ffffffffffffffffffffffffffffffffffffffff16600073ffffffffffffffffffffffffffffffffffffffff167f8be0079c531659141344cd1fd0a4f28419497f9722a3daafe3b4186f6b6457e060405160405180910390a36200012c828262000134640100000000026401000000009004565b5050620002fc565b6200014d620002a5640100000000026401000000009004565b15156200015957600080fd5b81600360006101000a81548173ffffffffffffffffffffffffffffffffffffffff021916908373ffffffffffffffffffffffffffffffffffffffff160217905550600360009054906101000a900473ffffffffffffffffffffffffffffffffffffffff16600460006101000a81548173ffffffffffffffffffffffffffffffffffffffff021916908373ffffffffffffffffffffffffffffffffffffffff16021790555080600560006101000a81548173ffffffffffffffffffffffffffffffffffffffff021916908373ffffffffffffffffffffffffffffffffffffffff160217905550600560009054906101000a900473ffffffffffffffffffffffffffffffffffffffff16600660006101000a81548173ffffffffffffffffffffffffffffffffffffffff021916908373ffffffffffffffffffffffffffffffffffffffff1602179055505050565b60008060009054906101000a900473ffffffffffffffffffffffffffffffffffffffff1673ffffffffffffffffffffffffffffffffffffffff163373ffffffffffffffffffffffffffffffffffffffff1614905090565b6184fa806200030c6000396000f3fe6080604052600436106101ac576000357c0100000000000000000000000000000000000000000000000000000000900463ffffffff16806309164f9c146101b157806312f1dbc814610200578063139546471461024f5780631dfc99c4146103fb57806327a0b6d8146104525780633b6da765146104e45780633e63dcc11461052957806349a79a50146106455780635437b67c146107555780635a967ea514610780578063659ab4c31461095c5780636be4d9b014610bda578063715018a614610d3357806375d7e4bd14610d4a578063856b414e14610da157806385b118aa14610df257806387d6203814610f3c5780638da5cb5b146110445780638f32d59b1461109b5780638f4ffcb1146110ca57806390107afe146111dc5780639675932e1461124d5780639cd54210146113b85780639d10bb32146114be578063a3e9ec73146115b2578063a759ee6f1461174c578063b02c43d0146117a3578063badcfbcf146117f2578063c94dbd331461184d578063edda78151461194b578063ef11f9da146119b0578063efd96fbf14611a1f578063f2fde38b14611b5f578063fe89e39614611bb0575b600080fd5b3480156101bd57600080fd5b506101fe600480360360608110156101d457600080fd5b81019080803590602001909291908035906020019092919080359060200190929190505050611cc0565b005b34801561020c57600080fd5b506102396004803603602081101561022357600080fd5b8101908080359060200190929190505050611d1e565b6040518082815260200191505060405180910390f35b34801561025b57600080fd5b50610380600480360360e081101561027257600080fd5b81019080803573ffffffffffffffffffffffffffffffffffffffff16906020019092919080359060200190929190803590602001906401000000008111156102b957600080fd5b8201836020820111156102cb57600080fd5b803590602001918460018302840111640100000000831117156102ed57600080fd5b91908080601f016020809104026020016040519081016040528093929190818152602001838380828437600081840152601f19601f820116905080830192505050505050509192919290803573ffffffffffffffffffffffffffffffffffffffff169060200190929190803560ff1690602001909291908035906020019092919080359060200190929190505050611d36565b6040518080602001828103825283818151815260200191508051906020019080838360005b838110156103c05780820151818401526020810190506103a5565b50505050905090810190601f1680156103ed5780820380516001836020036101000a031916815260200191505b509250505060405180910390f35b34801561040757600080fd5b50610410611e84565b604051808273ffffffffffffffffffffffffffffffffffffffff1673ffffffffffffffffffffffffffffffffffffffff16815260200191505060405180910390f35b34801561045e57600080fd5b506104e2600480360360a081101561047557600080fd5b81019080803573ffffffffffffffffffffffffffffffffffffffff169060200190929190803573ffffffffffffffffffffffffffffffffffffffff169060200190929190803560ff1690602001909291908035906020019092919080359060200190929190505050611eaa565b005b3480156104f057600080fd5b506105276004803603604081101561050757600080fd5b810190808035906020019092919080359060200190929190505050612420565b005b34801561053557600080fd5b50610643600480360360a081101561054c57600080fd5b8101908080359060200190929190803573ffffffffffffffffffffffffffffffffffffffff169060200190929190803573ffffffffffffffffffffffffffffffffffffffff16906020019092919080359060200190929190803590602001906401000000008111156105bd57600080fd5b8201836020820111156105cf57600080fd5b803590602001918460018302840111640100000000831117156105f157600080fd5b91908080601f016020809104026020016040519081016040528093929190818152602001838380828437600081840152601f19601f820116905080830192505050505050509192919290505050612525565b005b34801561065157600080fd5b50610753600480360360c081101561066857600080fd5b81019080803573ffffffffffffffffffffffffffffffffffffffff169060200190929190803590602001906401000000008111156106a557600080fd5b8201836020820111156106b757600080fd5b803590602001918460208302840111640100000000831117156106d957600080fd5b919080806020026020016040519081016040528093929190818152602001838360200280828437600081840152601f19601f820116905080830192505050505050509192919290803560ff169060200190929190803590602001909291908035906020019092919080359060200190929190505050612705565b005b34801561076157600080fd5b5061076a612ce5565b6040518082815260200191505060405180910390f35b34801561078c57600080fd5b5061094660048036036101008110156107a457600080fd5b81019080803573ffffffffffffffffffffffffffffffffffffffff169060200190929190803573ffffffffffffffffffffffffffffffffffffffff1690602001909291908035906020019064010000000081111561080157600080fd5b82018360208201111561081357600080fd5b8035906020019184602083028401116401000000008311171561083557600080fd5b919080806020026020016040519081016040528093929190818152602001838360200280828437600081840152601f19601f8201169050808301925050505050505091929192908035906020019064010000000081111561089557600080fd5b8201836020820111156108a757600080fd5b803590602001918460018302840111640100000000831117156108c957600080fd5b91908080601f016020809104026020016040519081016040528093929190818152602001838380828437600081840152601f19601f820116905080830192505050505050509192919290803560ff169060200190929190803590602001909291908035906020019092919080359060200190929190505050612ceb565b6040518082815260200191505060405180910390f35b34801561096857600080fd5b50610bd8600480360361016081101561098057600080fd5b81019080803573ffffffffffffffffffffffffffffffffffffffff169060200190929190803590602001906401000000008111156109bd57600080fd5b8201836020820111156109cf57600080fd5b803590602001918460208302840111640100000000831117156109f157600080fd5b919080806020026020016040519081016040528093929190818152602001838360200280828437600081840152601f19601f82011690508083019250505050505050919291929080359060200190640100000000811115610a5157600080fd5b820183602082011115610a6357600080fd5b80359060200191846020830284011164010000000083111715610a8557600080fd5b919080806020026020016040519081016040528093929190818152602001838360200280828437600081840152601f19601f82011690508083019250505050505050919291929080604001906002806020026040519081016040528092919082600260200280828437600081840152601f19601f820116905080830192505050505050919291929080604001906002806020026040519081016040528092919082600260200280828437600081840152601f19601f820116905080830192505050505050919291929080604001906002806020026040519081016040528092919082600260200280828437600081840152601f19601f820116905080830192505050505050919291929080604001906002806020026040519081016040528092919082600260200280828437600081840152601f19601f8201169050808301925050505050509192919290505050613102565b005b348015610be657600080fd5b50610d3160048036036040811015610bfd57600080fd5b8101908080359060200190640100000000811115610c1a57600080fd5b820183602082011115610c2c57600080fd5b80359060200191846020830284011164010000000083111715610c4e57600080fd5b919080806020026020016040519081016040528093929190818152602001838360200280828437600081840152601f19601f82011690508083019250505050505050919291929080359060200190640100000000811115610cae57600080fd5b820183602082011115610cc057600080fd5b80359060200191846020830284011164010000000083111715610ce257600080fd5b919080806020026020016040519081016040528093929190818152602001838360200280828437600081840152601f19601f8201169050808301925050505050505091929192905050506133b0565b005b348015610d3f57600080fd5b50610d486134b4565b005b348015610d5657600080fd5b50610d5f613586565b604051808273ffffffffffffffffffffffffffffffffffffffff1673ffffffffffffffffffffffffffffffffffffffff16815260200191505060405180910390f35b348015610dad57600080fd5b50610df060048036036020811015610dc457600080fd5b81019080803573ffffffffffffffffffffffffffffffffffffffff1690602001909291905050506135ac565b005b348015610dfe57600080fd5b50610f3a6004803603610120811015610e1657600080fd5b81019080803573ffffffffffffffffffffffffffffffffffffffff169060200190929190803573ffffffffffffffffffffffffffffffffffffffff1690602001909291908035151590602001909291908035906020019092919080359060200190640100000000811115610e8957600080fd5b820183602082011115610e9b57600080fd5b80359060200191846001830284011164010000000083111715610ebd57600080fd5b91908080601f016020809104026020016040519081016040528093929190818152602001838380828437600081840152601f19601f820116905080830192505050505050509192919290803560ff169060200190929190803590602001909291908035906020019092919080359060200190929190505050613666565b005b348015610f4857600080fd5b50611042600480360360a0811015610f5f57600080fd5b8101908080359060200190929190803573ffffffffffffffffffffffffffffffffffffffff1690602001909291908035151590602001909291908035906020019092919080359060200190640100000000811115610fbc57600080fd5b820183602082011115610fce57600080fd5b80359060200191846001830284011164010000000083111715610ff057600080fd5b91908080601f016020809104026020016040519081016040528093929190818152602001838380828437600081840152601f19601f82011690508083019250505050505050919291929050505061378b565b005b34801561105057600080fd5b50611059613937565b604051808273ffffffffffffffffffffffffffffffffffffffff1673ffffffffffffffffffffffffffffffffffffffff16815260200191505060405180910390f35b3480156110a757600080fd5b506110b0613960565b604051808215151515815260200191505060405180910390f35b3480156110d657600080fd5b506111da600480360360808110156110ed57600080fd5b81019080803573ffffffffffffffffffffffffffffffffffffffff16906020019092919080359060200190929190803573ffffffffffffffffffffffffffffffffffffffff1690602001909291908035906020019064010000000081111561115457600080fd5b82018360208201111561116657600080fd5b8035906020019184600183028401116401000000008311171561118857600080fd5b91908080601f016020809104026020016040519081016040528093929190818152602001838380828437600081840152601f19601f8201169050808301925050505050505091929192905050506139b7565b005b3480156111e857600080fd5b5061124b600480360360408110156111ff57600080fd5b81019080803573ffffffffffffffffffffffffffffffffffffffff169060200190929190803573ffffffffffffffffffffffffffffffffffffffff169060200190929190505050614648565b005b34801561125957600080fd5b5061133d6004803603606081101561127057600080fd5b81019080803573ffffffffffffffffffffffffffffffffffffffff16906020019092919080359060200190929190803590602001906401000000008111156112b757600080fd5b8201836020820111156112c957600080fd5b803590602001918460018302840111640100000000831117156112eb57600080fd5b91908080601f016020809104026020016040519081016040528093929190818152602001838380828437600081840152601f19601f8201169050808301925050505050505091929192905050506147a7565b6040518080602001828103825283818151815260200191508051906020019080838360005b8381101561137d578082015181840152602081019050611362565b50505050905090810190601f1680156113aa5780820380516001836020036101000a031916815260200191505b509250505060405180910390f35b3480156113c457600080fd5b506114bc600480360360a08110156113db57600080fd5b8101908080359060200190929190803573ffffffffffffffffffffffffffffffffffffffff16906020019092919080359060200190929190803590602001909291908035906020019064010000000081111561143657600080fd5b82018360208201111561144857600080fd5b8035906020019184600183028401116401000000008311171561146a57600080fd5b91908080601f016020809104026020016040519081016040528093929190818152602001838380828437600081840152601f19601f8201169050808301925050505050505091929192905050506148b3565b005b3480156114ca57600080fd5b506115b0600480360360608110156114e157600080fd5b81019080803573ffffffffffffffffffffffffffffffffffffffff1690602001909291908035151590602001909291908035906020019064010000000081111561152a57600080fd5b82018360208201111561153c57600080fd5b8035906020019184600183028401116401000000008311171561155e57600080fd5b91908080601f016020809104026020016040519081016040528093929190818152602001838380828437600081840152601f19601f820116905080830192505050505050509192919290505050614a51565b005b3480156115be57600080fd5b5061174a600480360360c08110156115d557600080fd5b81019080803573ffffffffffffffffffffffffffffffffffffffff1690602001909291908035906020019064010000000081111561161257600080fd5b82018360208201111561162457600080fd5b8035906020019184602083028401116401000000008311171561164657600080fd5b919080806020026020016040519081016040528093929190818152602001838360200280828437600081840152601f19601f820116905080830192505050505050509192919290803590602001906401000000008111156116a657600080fd5b8201836020820111156116b857600080fd5b803590602001918460208302840111640100000000831117156116da57600080fd5b919080806020026020016040519081016040528093929190818152602001838360200280828437600081840152601f19601f820116905080830192505050505050509192919290803560ff1690602001909291908035906020019092919080359060200190929190505050614b57565b005b34801561175857600080fd5b50611761615023565b604051808273ffffffffffffffffffffffffffffffffffffffff1673ffffffffffffffffffffffffffffffffffffffff16815260200191505060405180910390f35b3480156117af57600080fd5b506117dc600480360360208110156117c657600080fd5b8101908080359060200190929190505050615049565b6040518082815260200191505060405180910390f35b3480156117fe57600080fd5b5061184b6004803603604081101561181557600080fd5b81019080803573ffffffffffffffffffffffffffffffffffffffff16906020019092919080359060200190929190505050615061565b005b34801561185957600080fd5b506119496004803603608081101561187057600080fd5b81019080803573ffffffffffffffffffffffffffffffffffffffff16906020019092919080351515906020019092919080359060200190929190803590602001906401000000008111156118c357600080fd5b8201836020820111156118d557600080fd5b803590602001918460018302840111640100000000831117156118f757600080fd5b91908080601f016020809104026020016040519081016040528093929190818152602001838380828437600081840152601f19601f820116905080830192505050505050509192919290505050615165565b005b34801561195757600080fd5b506119ae6004803603606081101561196e57600080fd5b8101908080359060200190929190803573ffffffffffffffffffffffffffffffffffffffff1690602001909291908035906020019092919050505061526d565b005b3480156119bc57600080fd5b50611a09600480360360408110156119d357600080fd5b8101908080359060200190929190803573ffffffffffffffffffffffffffffffffffffffff1690602001909291905050506152ca565b6040518082815260200191505060405180910390f35b348015611a2b57600080fd5b50611b5d6004803603610100811015611a4357600080fd5b81019080803573ffffffffffffffffffffffffffffffffffffffff169060200190929190803573ffffffffffffffffffffffffffffffffffffffff16906020019092919080351515906020019092919080359060200190640100000000811115611aac57600080fd5b820183602082011115611abe57600080fd5b80359060200191846001830284011164010000000083111715611ae057600080fd5b91908080601f016020809104026020016040519081016040528093929190818152602001838380828437600081840152601f19601f820116905080830192505050505050509192919290803560ff1690602001909291908035906020019092919080359060200190929190803590602001909291905050506152ef565b005b348015611b6b57600080fd5b50611bae60048036036020811015611b8257600080fd5b81019080803573ffffffffffffffffffffffffffffffffffffffff16906020019092919050505061549a565b005b348015611bbc57600080fd5b50611cbe600480360360c0811015611bd357600080fd5b81019080803573ffffffffffffffffffffffffffffffffffffffff16906020019092919080359060200190640100000000811115611c1057600080fd5b820183602082011115611c2257600080fd5b80359060200191846020830284011164010000000083111715611c4457600080fd5b919080806020026020016040519081016040528093929190818152602001838360200280828437600081840152601f19601f820116905080830192505050505050509192919290803560ff1690602001909291908035906020019092919080359060200190929190803590602001909291905050506154b9565b005b611cca8382615a99565b611cd5838383615e59565b503373ffffffffffffffffffffffffffffffffffffffff167f3bd0280dc67bfc5c83998b5eddebb84cb266dd5fea7c8552e43f1c55110e966760405160405180910390a2505050565b600a6020528060005260406000206000915090505481565b60606000600460009054906101000a900473ffffffffffffffffffffffffffffffffffffffff1673ffffffffffffffffffffffffffffffffffffffff166305c62c2f876040518263ffffffff167c0100000000000000000000000000000000000000000000000000000000028152600401808273ffffffffffffffffffffffffffffffffffffffff1673ffffffffffffffffffffffffffffffffffffffff16815260200191505060206040518083038186803b158015611df557600080fd5b505afa158015611e09573d6000803e3d6000fd5b505050506040513d6020811015611e1f57600080fd5b810190808051906020019092919050505090506000600a60008381526020019081526020016000206000815480929190600101919050559050611e6987838c8c8c868c8c8c61610f565b611e75828a8c8b6164c1565b92505050979650505050505050565b600760009054906101000a900473ffffffffffffffffffffffffffffffffffffffff1681565b6000600460009054906101000a900473ffffffffffffffffffffffffffffffffffffffff1673ffffffffffffffffffffffffffffffffffffffff166305c62c2f876040518263ffffffff167c0100000000000000000000000000000000000000000000000000000000028152600401808273ffffffffffffffffffffffffffffffffffffffff1673ffffffffffffffffffffffffffffffffffffffff16815260200191505060206040518083038186803b158015611f6757600080fd5b505afa158015611f7b573d6000803e3d6000fd5b505050506040513d6020811015611f9157600080fd5b810190808051906020019092919050505090506000600a60008381526020019081526020016000206000815480929190600101919050559050600460009054906101000a900473ffffffffffffffffffffffffffffffffffffffff1673ffffffffffffffffffffffffffffffffffffffff16638677ebe88860197f01000000000000000000000000000000000000000000000000000000000000000260007f01000000000000000000000000000000000000000000000000000000000000000230878c8860405160200180877effffffffffffffffffffffffffffffffffffffffffffffffffffffffffffff19167effffffffffffffffffffffffffffffffffffffffffffffffffffffffffffff19168152600101867effffffffffffffffffffffffffffffffffffffffffffffffffffffffffffff19167effffffffffffffffffffffffffffffffffffffffffffffffffffffffffffff191681526001018573ffffffffffffffffffffffffffffffffffffffff1673ffffffffffffffffffffffffffffffffffffffff166c01000000000000000000000000028152601401807f4920617574686f72697a652074686973206368616e6765206f66205265636f7681526020017f65727920416464726573732e0000000000000000000000000000000000000000815250602c018481526020018373ffffffffffffffffffffffffffffffffffffffff1673ffffffffffffffffffffffffffffffffffffffff166c010000000000000000000000000281526014018281526020019650505050505050604051602081830303815290604052805190602001208888886040518663ffffffff167c0100000000000000000000000000000000000000000000000000000000028152600401808673ffffffffffffffffffffffffffffffffffffffff1673ffffffffffffffffffffffffffffffffffffffff1681526020018581526020018460ff1660ff1681526020018381526020018281526020019550505050505060206040518083038186803b15801561228b57600080fd5b505afa15801561229f573d6000803e3d6000fd5b505050506040513d60208110156122b557600080fd5b8101908080519060200190929190505050151561233a576040517f08c379a00000000000000000000000000000000000000000000000000000000081526004018080602001828103825260128152602001807f5065726d697373696f6e2064656e6965642e000000000000000000000000000081525060200191505060405180910390fd5b600460009054906101000a900473ffffffffffffffffffffffffffffffffffffffff1673ffffffffffffffffffffffffffffffffffffffff16632501faa583886040518363ffffffff167c0100000000000000000000000000000000000000000000000000000000028152600401808381526020018273ffffffffffffffffffffffffffffffffffffffff1673ffffffffffffffffffffffffffffffffffffffff16815260200192505050600060405180830381600087803b1580156123ff57600080fd5b505af1158015612413573d6000803e3d6000fd5b5050505050505050505050565b612520600460009054906101000a900473ffffffffffffffffffffffffffffffffffffffff1673ffffffffffffffffffffffffffffffffffffffff166305c62c2f336040518263ffffffff167c0100000000000000000000000000000000000000000000000000000000028152600401808273ffffffffffffffffffffffffffffffffffffffff1673ffffffffffffffffffffffffffffffffffffffff16815260200191505060206040518083038186803b1580156124de57600080fd5b505afa1580156124f2573d6000803e3d6000fd5b505050506040513d602081101561250857600080fd5b81019080805190602001909291905050508383615e59565b505050565b61252f8583615a99565b61253a85858461685c565b60008490508073ffffffffffffffffffffffffffffffffffffffff16633aaaa8a033888787876040518663ffffffff167c0100000000000000000000000000000000000000000000000000000000028152600401808673ffffffffffffffffffffffffffffffffffffffff1673ffffffffffffffffffffffffffffffffffffffff1681526020018581526020018473ffffffffffffffffffffffffffffffffffffffff1673ffffffffffffffffffffffffffffffffffffffff16815260200183815260200180602001828103825283818151815260200191508051906020019080838360005b8381101561263b578082015181840152602081019050612620565b50505050905090810190601f1680156126685780820380516001836020036101000a031916815260200191505b509650505050505050600060405180830381600087803b15801561268b57600080fd5b505af115801561269f573d6000803e3d6000fd5b505050508373ffffffffffffffffffffffffffffffffffffffff163373ffffffffffffffffffffffffffffffffffffffff167f4bf145994459e88b08345bbe483ca295ac2305df746c75740dd9d837344a9acf60405160405180910390a3505050505050565b808042101580156127195750600954810142105b151561278d576040517f08c379a00000000000000000000000000000000000000000000000000000000081526004018080602001828103825260178152602001807f54696d657374616d70206973206e6f742076616c69642e00000000000000000081525060200191505060405180910390fd5b6000600460009054906101000a900473ffffffffffffffffffffffffffffffffffffffff1673ffffffffffffffffffffffffffffffffffffffff166305c62c2f896040518263ffffffff167c0100000000000000000000000000000000000000000000000000000000028152600401808273ffffffffffffffffffffffffffffffffffffffff1673ffffffffffffffffffffffffffffffffffffffff16815260200191505060206040518083038186803b15801561284a57600080fd5b505afa15801561285e573d6000803e3d6000fd5b505050506040513d602081101561287457600080fd5b81019080805190602001909291905050509050600460009054906101000a900473ffffffffffffffffffffffffffffffffffffffff1673ffffffffffffffffffffffffffffffffffffffff16638677ebe88960197f01000000000000000000000000000000000000000000000000000000000000000260007f01000000000000000000000000000000000000000000000000000000000000000230868d8a60405160200180877effffffffffffffffffffffffffffffffffffffffffffffffffffffffffffff19167effffffffffffffffffffffffffffffffffffffffffffffffffffffffffffff19168152600101867effffffffffffffffffffffffffffffffffffffffffffffffffffffffffffff19167effffffffffffffffffffffffffffffffffffffffffffffffffffffffffffff191681526001018573ffffffffffffffffffffffffffffffffffffffff1673ffffffffffffffffffffffffffffffffffffffff166c01000000000000000000000000028152601401807f4920617574686f72697a6520746861742074686573652050726f76696465727381526020017f20626520616464656420746f206d79204964656e746974792e00000000000000815250603901848152602001838051906020019060200280838360005b83811015612a6e578082015181840152602081019050612a53565b505050509050018281526020019650505050505050604051602081830303815290604052805190602001208989896040518663ffffffff167c0100000000000000000000000000000000000000000000000000000000028152600401808673ffffffffffffffffffffffffffffffffffffffff1673ffffffffffffffffffffffffffffffffffffffff1681526020018581526020018460ff1660ff1681526020018381526020018281526020019550505050505060206040518083038186803b158015612b3a57600080fd5b505afa158015612b4e573d6000803e3d6000fd5b505050506040513d6020811015612b6457600080fd5b81019080805190602001909291905050501515612be9576040517f08c379a00000000000000000000000000000000000000000000000000000000081526004018080602001828103825260128152602001807f5065726d697373696f6e2064656e6965642e000000000000000000000000000081525060200191505060405180910390fd5b600460009054906101000a900473ffffffffffffffffffffffffffffffffffffffff1673ffffffffffffffffffffffffffffffffffffffff1663960b11f582896040518363ffffffff167c01000000000000000000000000000000000000000000000000000000000281526004018083815260200180602001828103825283818151815260200191508051906020019060200280838360005b83811015612c9d578082015181840152602081019050612c82565b505050509050019350505050600060405180830381600087803b158015612cc357600080fd5b505af1158015612cd7573d6000803e3d6000fd5b505050505050505050505050565b60095481565b600060606001885101604051908082528060200260200182016040528015612d225781602001602082028038833980820191505090505b50905030816000815181101515612d3557fe5b9060200190602002019073ffffffffffffffffffffffffffffffffffffffff16908173ffffffffffffffffffffffffffffffffffffffff168152505060005b8851811015612def578881815181101515612d8b57fe5b906020019060200201518260018301815181101515612da657fe5b9060200190602002019073ffffffffffffffffffffffffffffffffffffffff16908173ffffffffffffffffffffffffffffffffffffffff16815250508080600101915050612d74565b506000600460009054906101000a900473ffffffffffffffffffffffffffffffffffffffff1673ffffffffffffffffffffffffffffffffffffffff166314fb56468c8c856000604051908082528060200260200182016040528015612e635781602001602082028038833980820191505090505b508c8c8c8c6040518963ffffffff167c0100000000000000000000000000000000000000000000000000000000028152600401808973ffffffffffffffffffffffffffffffffffffffff1673ffffffffffffffffffffffffffffffffffffffff1681526020018873ffffffffffffffffffffffffffffffffffffffff1673ffffffffffffffffffffffffffffffffffffffff16815260200180602001806020018760ff1660ff168152602001868152602001858152602001848152602001838103835289818151815260200191508051906020019060200280838360005b83811015612f5c578082015181840152602081019050612f41565b50505050905001838103825288818151815260200191508051906020019060200280838360005b83811015612f9e578082015181840152602081019050612f83565b505050509050019a5050505050505050505050602060405180830381600087803b158015612fcb57600080fd5b505af1158015612fdf573d6000803e3d6000fd5b505050506040513d6020811015612ff557600080fd5b810190808051906020019092919050505090506130f181600760009054906101000a900473ffffffffffffffffffffffffffffffffffffffff16600160008e8d604051602001808373ffffffffffffffffffffffffffffffffffffffff1673ffffffffffffffffffffffffffffffffffffffff16815260200180602001828103825283818151815260200191508051906020019080838360005b838110156130aa57808201518184015260208101905061308f565b50505050905090810190601f1680156130d75780820380516001836020036101000a031916815260200191505b509350505050604051602081830303815290604052616bdc565b809250505098975050505050505050565b61315c878786600060028110151561311657fe5b602002015186600060028110151561312a57fe5b602002015186600060028110151561313e57fe5b602002015186600060028110151561315257fe5b6020020151612705565b6131b6878686600160028110151561317057fe5b602002015186600160028110151561318457fe5b602002015186600160028110151561319857fe5b60200201518660016002811015156131ac57fe5b60200201516154b9565b6000600460009054906101000a900473ffffffffffffffffffffffffffffffffffffffff1673ffffffffffffffffffffffffffffffffffffffff166305c62c2f896040518263ffffffff167c0100000000000000000000000000000000000000000000000000000000028152600401808273ffffffffffffffffffffffffffffffffffffffff1673ffffffffffffffffffffffffffffffffffffffff16815260200191505060206040518083038186803b15801561327357600080fd5b505afa158015613287573d6000803e3d6000fd5b505050506040513d602081101561329d57600080fd5b81019080805190602001909291905050509050807f9395986444296878f4ccc8a3e3a2d2d64a2988fb3cf2fd45fd7abe744902562688888b6040518080602001806020018473ffffffffffffffffffffffffffffffffffffffff1673ffffffffffffffffffffffffffffffffffffffff168152602001838103835286818151815260200191508051906020019060200280838360005b8381101561334e578082015181840152602081019050613333565b50505050905001838103825285818151815260200191508051906020019060200280838360005b83811015613390578082015181840152602081019050613375565b505050509050019550505050505060405180910390a25050505050505050565b6134b0600460009054906101000a900473ffffffffffffffffffffffffffffffffffffffff1673ffffffffffffffffffffffffffffffffffffffff166305c62c2f336040518263ffffffff167c0100000000000000000000000000000000000000000000000000000000028152600401808273ffffffffffffffffffffffffffffffffffffffff1673ffffffffffffffffffffffffffffffffffffffff16815260200191505060206040518083038186803b15801561346e57600080fd5b505afa158015613482573d6000803e3d6000fd5b505050506040513d602081101561349857600080fd5b810190808051906020019092919050505083836171d7565b5050565b6134bc613960565b15156134c757600080fd5b600073ffffffffffffffffffffffffffffffffffffffff166000809054906101000a900473ffffffffffffffffffffffffffffffffffffffff1673ffffffffffffffffffffffffffffffffffffffff167f8be0079c531659141344cd1fd0a4f28419497f9722a3daafe3b4186f6b6457e060405160405180910390a360008060006101000a81548173ffffffffffffffffffffffffffffffffffffffff021916908373ffffffffffffffffffffffffffffffffffffffff160217905550565b600560009054906101000a900473ffffffffffffffffffffffffffffffffffffffff1681565b6135b4613960565b15156135bf57600080fd5b80600760006101000a81548173ffffffffffffffffffffffffffffffffffffffff021916908373ffffffffffffffffffffffffffffffffffffffff160217905550600760009054906101000a900473ffffffffffffffffffffffffffffffffffffffff16600860006101000a81548173ffffffffffffffffffffffffffffffffffffffff021916908373ffffffffffffffffffffffffffffffffffffffff16021790555050565b6000600460009054906101000a900473ffffffffffffffffffffffffffffffffffffffff1673ffffffffffffffffffffffffffffffffffffffff166305c62c2f8b6040518263ffffffff167c0100000000000000000000000000000000000000000000000000000000028152600401808273ffffffffffffffffffffffffffffffffffffffff1673ffffffffffffffffffffffffffffffffffffffff16815260200191505060206040518083038186803b15801561372357600080fd5b505afa158015613737573d6000803e3d6000fd5b505050506040513d602081101561374d57600080fd5b810190808051906020019092919050505090506137728a828b8b8b8b8b8b8b8b61751e565b61377f818a8a8a8a616bdc565b50505050505050505050565b600460009054906101000a900473ffffffffffffffffffffffffffffffffffffffff1673ffffffffffffffffffffffffffffffffffffffff166353a9698a86336040518363ffffffff167c0100000000000000000000000000000000000000000000000000000000028152600401808381526020018273ffffffffffffffffffffffffffffffffffffffff1673ffffffffffffffffffffffffffffffffffffffff1681526020019250505060206040518083038186803b15801561384e57600080fd5b505afa158015613862573d6000803e3d6000fd5b505050506040513d602081101561387857600080fd5b81019080805190602001909291905050501515613923576040517f08c379a00000000000000000000000000000000000000000000000000000000081526004018080602001828103825260338152602001807f546865206d73672e73656e646572206973206e6f7420612050726f766964657281526020017f20666f7220746865207061737365642045494e0000000000000000000000000081525060400191505060405180910390fd5b6139308585858585616bdc565b5050505050565b60008060009054906101000a900473ffffffffffffffffffffffffffffffffffffffff16905090565b60008060009054906101000a900473ffffffffffffffffffffffffffffffffffffffff1673ffffffffffffffffffffffffffffffffffffffff163373ffffffffffffffffffffffffffffffffffffffff1614905090565b8173ffffffffffffffffffffffffffffffffffffffff163373ffffffffffffffffffffffffffffffffffffffff16141515613a5a576040517f08c379a00000000000000000000000000000000000000000000000000000000081526004018080602001828103825260118152602001807f4d616c666f726d656420696e707574732e00000000000000000000000000000081525060200191505060405180910390fd5b600560009054906101000a900473ffffffffffffffffffffffffffffffffffffffff1673ffffffffffffffffffffffffffffffffffffffff168273ffffffffffffffffffffffffffffffffffffffff16141515613b45576040517f08c379a000000000000000000000000000000000000000000000000000000000815260040180806020018281038252602d8152602001807f53656e646572206973206e6f742074686520485944524f20746f6b656e20736d81526020017f61727420636f6e74726163742e0000000000000000000000000000000000000081525060400191505060405180910390fd5b6020815111151561404657600660009054906101000a900473ffffffffffffffffffffffffffffffffffffffff1673ffffffffffffffffffffffffffffffffffffffff166323b872dd8530866040518463ffffffff167c0100000000000000000000000000000000000000000000000000000000028152600401808473ffffffffffffffffffffffffffffffffffffffff1673ffffffffffffffffffffffffffffffffffffffff1681526020018373ffffffffffffffffffffffffffffffffffffffff1673ffffffffffffffffffffffffffffffffffffffff1681526020018281526020019350505050602060405180830381600087803b158015613c4957600080fd5b505af1158015613c5d573d6000803e3d6000fd5b505050506040513d6020811015613c7357600080fd5b81019080805190602001909291905050501515613d1e576040517f08c379a00000000000000000000000000000000000000000000000000000000081526004018080602001828103825260238152602001807f556e61626c6520746f207472616e7366657220746f6b656e206f776e6572736881526020017f69702e000000000000000000000000000000000000000000000000000000000081525060400191505060405180910390fd5b6000602082511015613e2757600460009054906101000a900473ffffffffffffffffffffffffffffffffffffffff1673ffffffffffffffffffffffffffffffffffffffff166305c62c2f866040518263ffffffff167c0100000000000000000000000000000000000000000000000000000000028152600401808273ffffffffffffffffffffffffffffffffffffffff1673ffffffffffffffffffffffffffffffffffffffff16815260200191505060206040518083038186803b158015613de557600080fd5b505afa158015613df9573d6000803e3d6000fd5b505050506040513d6020811015613e0f57600080fd5b81019080805190602001909291905050509050613fb4565b818060200190516020811015613e3c57600080fd5b81019080805190602001909291905050509050600460009054906101000a900473ffffffffffffffffffffffffffffffffffffffff1673ffffffffffffffffffffffffffffffffffffffff16635b5aed3a826040518263ffffffff167c01000000000000000000000000000000000000000000000000000000000281526004018082815260200191505060206040518083038186803b158015613ede57600080fd5b505afa158015613ef2573d6000803e3d6000fd5b505050506040513d6020811015613f0857600080fd5b81019080805190602001909291905050501515613fb3576040517f08c379a00000000000000000000000000000000000000000000000000000000081526004018080602001828103825260218152602001807f54686520726563697069656e742045494e20646f6573206e6f7420657869737481526020017f2e0000000000000000000000000000000000000000000000000000000000000081525060400191505060405180910390fd5b5b613fda8460016000848152602001908152602001600020546179ae90919063ffffffff16565b6001600083815260200190815260200160002081905550808573ffffffffffffffffffffffffffffffffffffffff167fc03bd73422f0f423555852c3018d2296bec6c3fb71372de56d3ce8f5984d6812866040518082815260200191505060405180910390a350614642565b60008060008060608580602001905160a081101561406357600080fd5b810190808051906020019092919080519060200190929190805190602001909291908051906020019092919080516401000000008111156140a357600080fd5b828101905060208101848111156140b957600080fd5b81518560018202830111640100000000821117156140d657600080fd5b505092919050505094509450945094509450600660009054906101000a900473ffffffffffffffffffffffffffffffffffffffff1673ffffffffffffffffffffffffffffffffffffffff166323b872dd8a858b6040518463ffffffff167c0100000000000000000000000000000000000000000000000000000000028152600401808473ffffffffffffffffffffffffffffffffffffffff1673ffffffffffffffffffffffffffffffffffffffff1681526020018373ffffffffffffffffffffffffffffffffffffffff1673ffffffffffffffffffffffffffffffffffffffff1681526020018281526020019350505050602060405180830381600087803b1580156141e157600080fd5b505af11580156141f5573d6000803e3d6000fd5b505050506040513d602081101561420b57600080fd5b810190808051906020019092919050505015156142b6576040517f08c379a00000000000000000000000000000000000000000000000000000000081526004018080602001828103825260238152602001807f556e61626c6520746f207472616e7366657220746f6b656e206f776e6572736881526020017f69702e000000000000000000000000000000000000000000000000000000000081525060400191505060405180910390fd5b6000839050851561445c578073ffffffffffffffffffffffffffffffffffffffff16633c72e43986858c866040518563ffffffff167c0100000000000000000000000000000000000000000000000000000000028152600401808573ffffffffffffffffffffffffffffffffffffffff1673ffffffffffffffffffffffffffffffffffffffff16815260200184815260200183815260200180602001828103825283818151815260200191508051906020019080838360005b8381101561438a57808201518184015260208101905061436f565b50505050905090810190601f1680156143b75780820380516001836020036101000a031916815260200191505b5095505050505050600060405180830381600087803b1580156143d957600080fd5b505af11580156143ed573d6000803e3d6000fd5b50505050828473ffffffffffffffffffffffffffffffffffffffff168673ffffffffffffffffffffffffffffffffffffffff167fedb6770cb1ac0722d4ee53b473075a9d9d9ada0726d38bfc29d7cefb278a6b508c6040518082815260200191505060405180910390a461463b565b60008390508173ffffffffffffffffffffffffffffffffffffffff1663e5a1309287838d876040518563ffffffff167c0100000000000000000000000000000000000000000000000000000000028152600401808573ffffffffffffffffffffffffffffffffffffffff1673ffffffffffffffffffffffffffffffffffffffff1681526020018473ffffffffffffffffffffffffffffffffffffffff1673ffffffffffffffffffffffffffffffffffffffff16815260200183815260200180602001828103825283818151815260200191508051906020019080838360005b8381101561455657808201518184015260208101905061453b565b50505050905090810190601f1680156145835780820380516001836020036101000a031916815260200191505b5095505050505050600060405180830381600087803b1580156145a557600080fd5b505af11580156145b9573d6000803e3d6000fd5b505050508373ffffffffffffffffffffffffffffffffffffffff168573ffffffffffffffffffffffffffffffffffffffff168773ffffffffffffffffffffffffffffffffffffffff167f0c00f14cabae1f33bca7bd1a7510da7d1188463c014549b4817ece9db32ce67d8d6040518082815260200191505060405180910390a4505b5050505050505b50505050565b614650613960565b151561465b57600080fd5b81600360006101000a81548173ffffffffffffffffffffffffffffffffffffffff021916908373ffffffffffffffffffffffffffffffffffffffff160217905550600360009054906101000a900473ffffffffffffffffffffffffffffffffffffffff16600460006101000a81548173ffffffffffffffffffffffffffffffffffffffff021916908373ffffffffffffffffffffffffffffffffffffffff16021790555080600560006101000a81548173ffffffffffffffffffffffffffffffffffffffff021916908373ffffffffffffffffffffffffffffffffffffffff160217905550600560009054906101000a900473ffffffffffffffffffffffffffffffffffffffff16600660006101000a81548173ffffffffffffffffffffffffffffffffffffffff021916908373ffffffffffffffffffffffffffffffffffffffff1602179055505050565b60606148aa600460009054906101000a900473ffffffffffffffffffffffffffffffffffffffff1673ffffffffffffffffffffffffffffffffffffffff166305c62c2f336040518263ffffffff167c0100000000000000000000000000000000000000000000000000000000028152600401808273ffffffffffffffffffffffffffffffffffffffff1673ffffffffffffffffffffffffffffffffffffffff16815260200191505060206040518083038186803b15801561486757600080fd5b505afa15801561487b573d6000803e3d6000fd5b505050506040513d602081101561489157600080fd5b81019080805190602001909291905050508486856164c1565b90509392505050565b6148bd8583615a99565b6148c885858461685c565b60008490508073ffffffffffffffffffffffffffffffffffffffff16631c75edfe33888787876040518663ffffffff167c0100000000000000000000000000000000000000000000000000000000028152600401808673ffffffffffffffffffffffffffffffffffffffff1673ffffffffffffffffffffffffffffffffffffffff16815260200185815260200184815260200183815260200180602001828103825283818151815260200191508051906020019080838360005b8381101561499d578082015181840152602081019050614982565b50505050905090810190601f1680156149ca5780820380516001836020036101000a031916815260200191505b509650505050505050600060405180830381600087803b1580156149ed57600080fd5b505af1158015614a01573d6000803e3d6000fd5b50505050833373ffffffffffffffffffffffffffffffffffffffff167f1dd3c359182056ab5063bcdbab2346601270459beb53cabcbd39ca79f050336860405160405180910390a3505050505050565b614b52600460009054906101000a900473ffffffffffffffffffffffffffffffffffffffff1673ffffffffffffffffffffffffffffffffffffffff166305c62c2f336040518263ffffffff167c0100000000000000000000000000000000000000000000000000000000028152600401808273ffffffffffffffffffffffffffffffffffffffff1673ffffffffffffffffffffffffffffffffffffffff16815260200191505060206040518083038186803b158015614b0f57600080fd5b505afa158015614b23573d6000803e3d6000fd5b505050506040513d6020811015614b3957600080fd5b81019080805190602001909291905050508484846179cf565b505050565b6000600460009054906101000a900473ffffffffffffffffffffffffffffffffffffffff1673ffffffffffffffffffffffffffffffffffffffff166305c62c2f886040518263ffffffff167c0100000000000000000000000000000000000000000000000000000000028152600401808273ffffffffffffffffffffffffffffffffffffffff1673ffffffffffffffffffffffffffffffffffffffff16815260200191505060206040518083038186803b158015614c1457600080fd5b505afa158015614c28573d6000803e3d6000fd5b505050506040513d6020811015614c3e57600080fd5b810190808051906020019092919050505090506000600a60008381526020019081526020016000206000815480929190600101919050559050600460009054906101000a900473ffffffffffffffffffffffffffffffffffffffff1673ffffffffffffffffffffffffffffffffffffffff16638677ebe88960197f01000000000000000000000000000000000000000000000000000000000000000260007f01000000000000000000000000000000000000000000000000000000000000000230878d8d8960405160200180887effffffffffffffffffffffffffffffffffffffffffffffffffffffffffffff19167effffffffffffffffffffffffffffffffffffffffffffffffffffffffffffff19168152600101877effffffffffffffffffffffffffffffffffffffffffffffffffffffffffffff19167effffffffffffffffffffffffffffffffffffffffffffffffffffffffffffff191681526001018673ffffffffffffffffffffffffffffffffffffffff1673ffffffffffffffffffffffffffffffffffffffff166c01000000000000000000000000028152601401807f4920617574686f72697a652074686973206368616e676520696e205265736f6c81526020017f76657220616c6c6f77616e6365732e0000000000000000000000000000000000815250602f01858152602001848051906020019060200280838360005b83811015614e5f578082015181840152602081019050614e44565b50505050905001838051906020019060200280838360005b83811015614e92578082015181840152602081019050614e77565b50505050905001828152602001975050505050505050604051602081830303815290604052805190602001208888886040518663ffffffff167c0100000000000000000000000000000000000000000000000000000000028152600401808673ffffffffffffffffffffffffffffffffffffffff1673ffffffffffffffffffffffffffffffffffffffff1681526020018581526020018460ff1660ff1681526020018381526020018281526020019550505050505060206040518083038186803b158015614f5f57600080fd5b505afa158015614f73573d6000803e3d6000fd5b505050506040513d6020811015614f8957600080fd5b8101908080519060200190929190505050151561500e576040517f08c379a00000000000000000000000000000000000000000000000000000000081526004018080602001828103825260128152602001807f5065726d697373696f6e2064656e6965642e000000000000000000000000000081525060200191505060405180910390fd5b6150198288886171d7565b5050505050505050565b600360009054906101000a900473ffffffffffffffffffffffffffffffffffffffff1681565b60016020528060005260406000206000915090505481565b615161600460009054906101000a900473ffffffffffffffffffffffffffffffffffffffff1673ffffffffffffffffffffffffffffffffffffffff166305c62c2f336040518263ffffffff167c0100000000000000000000000000000000000000000000000000000000028152600401808273ffffffffffffffffffffffffffffffffffffffff1673ffffffffffffffffffffffffffffffffffffffff16815260200191505060206040518083038186803b15801561511f57600080fd5b505afa158015615133573d6000803e3d6000fd5b505050506040513d602081101561514957600080fd5b8101908080519060200190929190505050838361685c565b5050565b615267600460009054906101000a900473ffffffffffffffffffffffffffffffffffffffff1673ffffffffffffffffffffffffffffffffffffffff166305c62c2f336040518263ffffffff167c0100000000000000000000000000000000000000000000000000000000028152600401808273ffffffffffffffffffffffffffffffffffffffff1673ffffffffffffffffffffffffffffffffffffffff16815260200191505060206040518083038186803b15801561522357600080fd5b505afa158015615237573d6000803e3d6000fd5b505050506040513d602081101561524d57600080fd5b810190808051906020019092919050505085858585616bdc565b50505050565b6152778382615a99565b61528283838361685c565b3373ffffffffffffffffffffffffffffffffffffffff167f8262975dcca6e765bc0c030d671a00379895d3f60ab5f0033ca4aa088074646b60405160405180910390a2505050565b6002602052816000526040600020602052806000526040600020600091509150505481565b808042101580156153035750600954810142105b1515615377576040517f08c379a00000000000000000000000000000000000000000000000000000000081526004018080602001828103825260178152602001807f54696d657374616d70206973206e6f742076616c69642e00000000000000000081525060200191505060405180910390fd5b6000600460009054906101000a900473ffffffffffffffffffffffffffffffffffffffff1673ffffffffffffffffffffffffffffffffffffffff166305c62c2f8b6040518263ffffffff167c0100000000000000000000000000000000000000000000000000000000028152600401808273ffffffffffffffffffffffffffffffffffffffff1673ffffffffffffffffffffffffffffffffffffffff16815260200191505060206040518083038186803b15801561543457600080fd5b505afa158015615448573d6000803e3d6000fd5b505050506040513d602081101561545e57600080fd5b810190808051906020019092919050505090506154828a828b8b8b8b8b8b8b617fb4565b61548e818a8a8a6179cf565b50505050505050505050565b6154a2613960565b15156154ad57600080fd5b6154b6816183b2565b50565b808042101580156154cd5750600954810142105b1515615541576040517f08c379a00000000000000000000000000000000000000000000000000000000081526004018080602001828103825260178152602001807f54696d657374616d70206973206e6f742076616c69642e00000000000000000081525060200191505060405180910390fd5b6000600460009054906101000a900473ffffffffffffffffffffffffffffffffffffffff1673ffffffffffffffffffffffffffffffffffffffff166305c62c2f896040518263ffffffff167c0100000000000000000000000000000000000000000000000000000000028152600401808273ffffffffffffffffffffffffffffffffffffffff1673ffffffffffffffffffffffffffffffffffffffff16815260200191505060206040518083038186803b1580156155fe57600080fd5b505afa158015615612573d6000803e3d6000fd5b505050506040513d602081101561562857600080fd5b81019080805190602001909291905050509050600460009054906101000a900473ffffffffffffffffffffffffffffffffffffffff1673ffffffffffffffffffffffffffffffffffffffff16638677ebe88960197f01000000000000000000000000000000000000000000000000000000000000000260007f01000000000000000000000000000000000000000000000000000000000000000230868d8a60405160200180877effffffffffffffffffffffffffffffffffffffffffffffffffffffffffffff19167effffffffffffffffffffffffffffffffffffffffffffffffffffffffffffff19168152600101867effffffffffffffffffffffffffffffffffffffffffffffffffffffffffffff19167effffffffffffffffffffffffffffffffffffffffffffffffffffffffffffff191681526001018573ffffffffffffffffffffffffffffffffffffffff1673ffffffffffffffffffffffffffffffffffffffff166c01000000000000000000000000028152601401807f4920617574686f72697a6520746861742074686573652050726f76696465727381526020017f2062652072656d6f7665642066726f6d206d79204964656e746974792e000000815250603d01848152602001838051906020019060200280838360005b83811015615822578082015181840152602081019050615807565b505050509050018281526020019650505050505050604051602081830303815290604052805190602001208989896040518663ffffffff167c0100000000000000000000000000000000000000000000000000000000028152600401808673ffffffffffffffffffffffffffffffffffffffff1673ffffffffffffffffffffffffffffffffffffffff1681526020018581526020018460ff1660ff1681526020018381526020018281526020019550505050505060206040518083038186803b1580156158ee57600080fd5b505afa158015615902573d6000803e3d6000fd5b505050506040513d602081101561591857600080fd5b8101908080519060200190929190505050151561599d576040517f08c379a00000000000000000000000000000000000000000000000000000000081526004018080602001828103825260128152602001807f5065726d697373696f6e2064656e6965642e000000000000000000000000000081525060200191505060405180910390fd5b600460009054906101000a900473ffffffffffffffffffffffffffffffffffffffff1673ffffffffffffffffffffffffffffffffffffffff166306c93c3682896040518363ffffffff167c01000000000000000000000000000000000000000000000000000000000281526004018083815260200180602001828103825283818151815260200191508051906020019060200280838360005b83811015615a51578082015181840152602081019050615a36565b505050509050019350505050600060405180830381600087803b158015615a7757600080fd5b505af1158015615a8b573d6000803e3d6000fd5b505050505050505050505050565b600460009054906101000a900473ffffffffffffffffffffffffffffffffffffffff1673ffffffffffffffffffffffffffffffffffffffff1663d4b1cdcc83336040518363ffffffff167c0100000000000000000000000000000000000000000000000000000000028152600401808381526020018273ffffffffffffffffffffffffffffffffffffffff1673ffffffffffffffffffffffffffffffffffffffff1681526020019250505060206040518083038186803b158015615b5c57600080fd5b505afa158015615b70573d6000803e3d6000fd5b505050506040513d6020811015615b8657600080fd5b81019080805190602001909291905050501515615c31576040517f08c379a000000000000000000000000000000000000000000000000000000000815260040180806020018281038252602e8152602001807f5265736f6c76657220686173206e6f74206265656e207365742062792066726f81526020017f6d20746f6b656e686f6c6465722e00000000000000000000000000000000000081525060400191505060405180910390fd5b806002600084815260200190815260200160002060003373ffffffffffffffffffffffffffffffffffffffff1673ffffffffffffffffffffffffffffffffffffffff168152602001908152602001600020541015615d9e573373ffffffffffffffffffffffffffffffffffffffff16827fe8197a2184c184c738bfd08f3ee78a377cde69118a3d580480d00a9208d6bdf36002600086815260200190815260200160002060003373ffffffffffffffffffffffffffffffffffffffff1673ffffffffffffffffffffffffffffffffffffffff1681526020019081526020016000205484604051808381526020018281526020019250505060405180910390a36040517f08c379a00000000000000000000000000000000000000000000000000000000081526004018080602001828103825260168152602001807f496e73756666696369656e7420416c6c6f77616e63650000000000000000000081525060200191505060405180910390fd5b615e01816002600085815260200190815260200160002060003373ffffffffffffffffffffffffffffffffffffffff1673ffffffffffffffffffffffffffffffffffffffff168152602001908152602001600020546184ac90919063ffffffff16565b6002600084815260200190815260200160002060003373ffffffffffffffffffffffffffffffffffffffff1673ffffffffffffffffffffffffffffffffffffffff168152602001908152602001600020819055505050565b6000826001801515600460009054906101000a900473ffffffffffffffffffffffffffffffffffffffff1673ffffffffffffffffffffffffffffffffffffffff16635b5aed3a846040518263ffffffff167c01000000000000000000000000000000000000000000000000000000000281526004018082815260200191505060206040518083038186803b158015615ef057600080fd5b505afa158015615f04573d6000803e3d6000fd5b505050506040513d6020811015615f1a57600080fd5b81019080805190602001909291905050501515141515615fa2576040517f08c379a00000000000000000000000000000000000000000000000000000000081526004018080602001828103825260178152602001807f5468652045494e20646f6573206e6f742065786973742e00000000000000000081525060200191505060405180910390fd5b83600160008881526020019081526020016000205410151515616053576040517f08c379a00000000000000000000000000000000000000000000000000000000081526004018080602001828103825260368152602001807f43616e6e6f74207769746864726177206d6f7265207468616e2074686520637581526020017f7272656e74206465706f7369742062616c616e63652e0000000000000000000081525060400191505060405180910390fd5b6160798460016000898152602001908152602001600020546184ac90919063ffffffff16565b60016000888152602001908152602001600020819055506160b68460016000888152602001908152602001600020546179ae90919063ffffffff16565b600160008781526020019081526020016000208190555084867ffc1e758cdfd0000672c8f8e0557fdae32b207ab6040726e3e91a363ac1ea234a866040518082815260200191505060405180910390a350509392505050565b600460009054906101000a900473ffffffffffffffffffffffffffffffffffffffff1673ffffffffffffffffffffffffffffffffffffffff16638677ebe88a60197f01000000000000000000000000000000000000000000000000000000000000000260007f010000000000000000000000000000000000000000000000000000000000000002308d8d8d8d8d60405160200180897effffffffffffffffffffffffffffffffffffffffffffffffffffffffffffff19167effffffffffffffffffffffffffffffffffffffffffffffffffffffffffffff19168152600101887effffffffffffffffffffffffffffffffffffffffffffffffffffffffffffff19167effffffffffffffffffffffffffffffffffffffffffffffffffffffffffffff191681526001018773ffffffffffffffffffffffffffffffffffffffff1673ffffffffffffffffffffffffffffffffffffffff166c01000000000000000000000000028152601401807f4920617574686f72697a65207468697320616c6c6f7720616e642063616c6c2e8152506020018681526020018573ffffffffffffffffffffffffffffffffffffffff1673ffffffffffffffffffffffffffffffffffffffff166c0100000000000000000000000002815260140184815260200183805190602001908083835b60208310151561631e57805182526020820191506020810190506020830392506162f9565b6001836020036101000a03801982511681845116808217855250505050505090500182815260200198505050505050505050604051602081830303815290604052805190602001208686866040518663ffffffff167c0100000000000000000000000000000000000000000000000000000000028152600401808673ffffffffffffffffffffffffffffffffffffffff1673ffffffffffffffffffffffffffffffffffffffff1681526020018581526020018460ff1660ff1681526020018381526020018281526020019550505050505060206040518083038186803b15801561640757600080fd5b505afa15801561641b573d6000803e3d6000fd5b505050506040513d602081101561643157600080fd5b810190808051906020019092919050505015156164b6576040517f08c379a00000000000000000000000000000000000000000000000000000000081526004018080602001828103825260128152602001807f5065726d697373696f6e2064656e6965642e000000000000000000000000000081525060200191505060405180910390fd5b505050505050505050565b6060600460009054906101000a900473ffffffffffffffffffffffffffffffffffffffff1673ffffffffffffffffffffffffffffffffffffffff1663d4b1cdcc86856040518363ffffffff167c0100000000000000000000000000000000000000000000000000000000028152600401808381526020018273ffffffffffffffffffffffffffffffffffffffff1673ffffffffffffffffffffffffffffffffffffffff1681526020019250505060206040518083038186803b15801561658657600080fd5b505afa15801561659a573d6000803e3d6000fd5b505050506040513d60208110156165b057600080fd5b8101908080519060200190929190505050151561665b576040517f08c379a00000000000000000000000000000000000000000000000000000000081526004018080602001828103825260318152602001807f44657374696e6174696f6e20686173206e6f74206265656e207365742062792081526020017f66726f6d20746f6b656e686f6c6465722e00000000000000000000000000000081525060400191505060405180910390fd5b60008414151561671d576166c8846002600088815260200190815260200160002060008673ffffffffffffffffffffffffffffffffffffffff1673ffffffffffffffffffffffffffffffffffffffff168152602001908152602001600020546179ae90919063ffffffff16565b6002600087815260200190815260200160002060008573ffffffffffffffffffffffffffffffffffffffff1673ffffffffffffffffffffffffffffffffffffffff168152602001908152602001600020819055505b600060608473ffffffffffffffffffffffffffffffffffffffff16846040518082805190602001908083835b60208310151561676e5780518252602082019150602081019050602083039250616749565b6001836020036101000a0380198251168184511680821785525050505050509050019150506000604051808303816000865af19150503d80600081146167d0576040519150601f19603f3d011682016040523d82523d6000602084013e6167d5565b606091505b509150915081151561684f576040517f08c379a00000000000000000000000000000000000000000000000000000000081526004018080602001828103825260188152602001807f43616c6c20776173206e6f74207375636365737366756c2e000000000000000081525060200191505060405180910390fd5b8092505050949350505050565b3073ffffffffffffffffffffffffffffffffffffffff168273ffffffffffffffffffffffffffffffffffffffff1614151515616926576040517f08c379a00000000000000000000000000000000000000000000000000000000081526004018080602001828103825260378152602001807f43616e6e6f74207472616e7366657220746f2074686520536e6f77666c616b6581526020017f20736d61727420636f6e747261637420697473656c662e00000000000000000081525060400191505060405180910390fd5b806001600085815260200190815260200160002054101515156169d7576040517f08c379a00000000000000000000000000000000000000000000000000000000081526004018080602001828103825260368152602001807f43616e6e6f74207769746864726177206d6f7265207468616e2074686520637581526020017f7272656e74206465706f7369742062616c616e63652e0000000000000000000081525060400191505060405180910390fd5b6169fd8160016000868152602001908152602001600020546184ac90919063ffffffff16565b6001600085815260200190815260200160002081905550600660009054906101000a900473ffffffffffffffffffffffffffffffffffffffff1673ffffffffffffffffffffffffffffffffffffffff1663a9059cbb83836040518363ffffffff167c0100000000000000000000000000000000000000000000000000000000028152600401808373ffffffffffffffffffffffffffffffffffffffff1673ffffffffffffffffffffffffffffffffffffffff16815260200182815260200192505050602060405180830381600087803b158015616ad957600080fd5b505af1158015616aed573d6000803e3d6000fd5b505050506040513d6020811015616b0357600080fd5b81019080805190602001909291905050501515616b88576040517f08c379a00000000000000000000000000000000000000000000000000000000081526004018080602001828103825260198152602001807f5472616e736665722077617320756e7375636365737366756c0000000000000081525060200191505060405180910390fd5b8173ffffffffffffffffffffffffffffffffffffffff16837faaa7de357803e36044e97c4f0d438a72b371380bff06b41e9b921b8f61cb489e836040518082815260200191505060405180910390a3505050565b600460009054906101000a900473ffffffffffffffffffffffffffffffffffffffff1673ffffffffffffffffffffffffffffffffffffffff1663d4b1cdcc86866040518363ffffffff167c0100000000000000000000000000000000000000000000000000000000028152600401808381526020018273ffffffffffffffffffffffffffffffffffffffff1673ffffffffffffffffffffffffffffffffffffffff1681526020019250505060206040518083038186803b158015616c9f57600080fd5b505afa158015616cb3573d6000803e3d6000fd5b505050506040513d6020811015616cc957600080fd5b8101908080519060200190929190505050151515616d75576040517f08c379a00000000000000000000000000000000000000000000000000000000081526004018080602001828103825260278152602001807f4964656e746974792068617320616c726561647920736574207468697320726581526020017f736f6c7665722e0000000000000000000000000000000000000000000000000081525060400191505060405180910390fd5b60606001604051908082528060200260200182016040528015616da75781602001602082028038833980820191505090505b50905084816000815181101515616dba57fe5b9060200190602002019073ffffffffffffffffffffffffffffffffffffffff16908173ffffffffffffffffffffffffffffffffffffffff1681525050600460009054906101000a900473ffffffffffffffffffffffffffffffffffffffff1673ffffffffffffffffffffffffffffffffffffffff1663010887dc87836040518363ffffffff167c01000000000000000000000000000000000000000000000000000000000281526004018083815260200180602001828103825283818151815260200191508051906020019060200280838360005b83811015616eaa578082015181840152602081019050616e8f565b505050509050019350505050600060405180830381600087803b158015616ed057600080fd5b505af1158015616ee4573d6000803e3d6000fd5b5050505083156171cf57826002600088815260200190815260200160002060008773ffffffffffffffffffffffffffffffffffffffff1673ffffffffffffffffffffffffffffffffffffffff1681526020019081526020016000208190555060008590508073ffffffffffffffffffffffffffffffffffffffff1663717902516040518163ffffffff167c010000000000000000000000000000000000000000000000000000000002815260040160206040518083038186803b158015616faa57600080fd5b505afa158015616fbe573d6000803e3d6000fd5b505050506040513d6020811015616fd457600080fd5b81019080805190602001909291905050501561717e578073ffffffffffffffffffffffffffffffffffffffff166390bfaf408886866040518463ffffffff167c01000000000000000000000000000000000000000000000000000000000281526004018084815260200183815260200180602001828103825283818151815260200191508051906020019080838360005b83811015617080578082015181840152602081019050617065565b50505050905090810190601f1680156170ad5780820380516001836020036101000a031916815260200191505b50945050505050602060405180830381600087803b1580156170ce57600080fd5b505af11580156170e2573d6000803e3d6000fd5b505050506040513d60208110156170f857600080fd5b8101908080519060200190929190505050151561717d576040517f08c379a00000000000000000000000000000000000000000000000000000000081526004018080602001828103825260108152602001807f5369676e207570206661696c7572652e0000000000000000000000000000000081525060200191505060405180910390fd5b5b8573ffffffffffffffffffffffffffffffffffffffff16877fa5a2dcb81990508894586bccd9070af644f5b33c720292251377ad26fc26b880866040518082815260200191505060405180910390a3505b505050505050565b80518251141515617250576040517f08c379a00000000000000000000000000000000000000000000000000000000081526004018080602001828103825260118152602001807f4d616c666f726d656420696e707574732e00000000000000000000000000000081525060200191505060405180910390fd5b60005b825181101561751857600460009054906101000a900473ffffffffffffffffffffffffffffffffffffffff1673ffffffffffffffffffffffffffffffffffffffff1663d4b1cdcc8585848151811015156172a957fe5b906020019060200201516040518363ffffffff167c0100000000000000000000000000000000000000000000000000000000028152600401808381526020018273ffffffffffffffffffffffffffffffffffffffff1673ffffffffffffffffffffffffffffffffffffffff1681526020019250505060206040518083038186803b15801561733657600080fd5b505afa15801561734a573d6000803e3d6000fd5b505050506040513d602081101561736057600080fd5b8101908080519060200190929190505050151561740b576040517f08c379a00000000000000000000000000000000000000000000000000000000081526004018080602001828103825260238152602001807f4964656e7469747920686173206e6f74207365742074686973207265736f6c7681526020017f65722e000000000000000000000000000000000000000000000000000000000081525060400191505060405180910390fd5b818181518110151561741957fe5b90602001906020020151600260008681526020019081526020016000206000858481518110151561744657fe5b9060200190602002015173ffffffffffffffffffffffffffffffffffffffff1673ffffffffffffffffffffffffffffffffffffffff16815260200190815260200160002081905550828181518110151561749c57fe5b9060200190602002015173ffffffffffffffffffffffffffffffffffffffff16847ffb55528a8074c988c79fef57f3a73aebf780773d5152d785bbaf700c9e3532d384848151811015156174ec57fe5b906020019060200201516040518082815260200191505060405180910390a38080600101915050617253565b50505050565b808042101580156175325750600954810142105b15156175a6576040517f08c379a00000000000000000000000000000000000000000000000000000000081526004018080602001828103825260178152602001807f54696d657374616d70206973206e6f742076616c69642e00000000000000000081525060200191505060405180910390fd5b600460009054906101000a900473ffffffffffffffffffffffffffffffffffffffff1673ffffffffffffffffffffffffffffffffffffffff16638677ebe88c60197f01000000000000000000000000000000000000000000000000000000000000000260007f010000000000000000000000000000000000000000000000000000000000000002308f8f8f8f8f8c604051602001808a7effffffffffffffffffffffffffffffffffffffffffffffffffffffffffffff19167effffffffffffffffffffffffffffffffffffffffffffffffffffffffffffff19168152600101897effffffffffffffffffffffffffffffffffffffffffffffffffffffffffffff19167effffffffffffffffffffffffffffffffffffffffffffffffffffffffffffff191681526001018873ffffffffffffffffffffffffffffffffffffffff1673ffffffffffffffffffffffffffffffffffffffff166c01000000000000000000000000028152601401807f4920617574686f72697a6520746861742074686973207265736f6c766572206281526020017f6520616464656420746f206d79204964656e746974792e0000000000000000008152506037018781526020018673ffffffffffffffffffffffffffffffffffffffff1673ffffffffffffffffffffffffffffffffffffffff166c0100000000000000000000000002815260140185151515157f010000000000000000000000000000000000000000000000000000000000000002815260010184815260200183805190602001908083835b60208310151561780857805182526020820191506020810190506020830392506177e3565b6001836020036101000a0380198251168184511680821785525050505050509050018281526020019950505050505050505050604051602081830303815290604052805190602001208888886040518663ffffffff167c0100000000000000000000000000000000000000000000000000000000028152600401808673ffffffffffffffffffffffffffffffffffffffff1673ffffffffffffffffffffffffffffffffffffffff1681526020018581526020018460ff1660ff1681526020018381526020018281526020019550505050505060206040518083038186803b1580156178f257600080fd5b505afa158015617906573d6000803e3d6000fd5b505050506040513d602081101561791c57600080fd5b810190808051906020019092919050505015156179a1576040517f08c379a00000000000000000000000000000000000000000000000000000000081526004018080602001828103825260128152602001807f5065726d697373696f6e2064656e6965642e000000000000000000000000000081525060200191505060405180910390fd5b5050505050505050505050565b60008082840190508381101515156179c557600080fd5b8091505092915050565b600460009054906101000a900473ffffffffffffffffffffffffffffffffffffffff1673ffffffffffffffffffffffffffffffffffffffff1663d4b1cdcc85856040518363ffffffff167c0100000000000000000000000000000000000000000000000000000000028152600401808381526020018273ffffffffffffffffffffffffffffffffffffffff1673ffffffffffffffffffffffffffffffffffffffff1681526020019250505060206040518083038186803b158015617a9257600080fd5b505afa158015617aa6573d6000803e3d6000fd5b505050506040513d6020811015617abc57600080fd5b81019080805190602001909291905050501515617b67576040517f08c379a00000000000000000000000000000000000000000000000000000000081526004018080602001828103825260278152602001807f4964656e7469747920686173206e6f742079657420736574207468697320726581526020017f736f6c7665722e0000000000000000000000000000000000000000000000000081525060400191505060405180910390fd5b6002600085815260200190815260200160002060008473ffffffffffffffffffffffffffffffffffffffff1673ffffffffffffffffffffffffffffffffffffffff168152602001908152602001600020600090558115617e3a5760008390508073ffffffffffffffffffffffffffffffffffffffff16638f06492d6040518163ffffffff167c010000000000000000000000000000000000000000000000000000000002815260040160206040518083038186803b158015617c2857600080fd5b505afa158015617c3c573d6000803e3d6000fd5b505050506040513d6020811015617c5257600080fd5b810190808051906020019092919050505015617df4578073ffffffffffffffffffffffffffffffffffffffff16639182621a86846040518363ffffffff167c01000000000000000000000000000000000000000000000000000000000281526004018083815260200180602001828103825283818151815260200191508051906020019080838360005b83811015617cf7578082015181840152602081019050617cdc565b50505050905090810190601f168015617d245780820380516001836020036101000a031916815260200191505b509350505050602060405180830381600087803b158015617d4457600080fd5b505af1158015617d58573d6000803e3d6000fd5b505050506040513d6020811015617d6e57600080fd5b81019080805190602001909291905050501515617df3576040517f08c379a00000000000000000000000000000000000000000000000000000000081526004018080602001828103825260108152602001807f52656d6f76616c206661696c7572652e0000000000000000000000000000000081525060200191505060405180910390fd5b5b8373ffffffffffffffffffffffffffffffffffffffff16857fd1b5265e776cc74b7c19e1f79f0eb431189105741c07f3bb870f17ce3ba4aed860405160405180910390a3505b60606001604051908082528060200260200182016040528015617e6c5781602001602082028038833980820191505090505b50905083816000815181101515617e7f57fe5b9060200190602002019073ffffffffffffffffffffffffffffffffffffffff16908173ffffffffffffffffffffffffffffffffffffffff1681525050600460009054906101000a900473ffffffffffffffffffffffffffffffffffffffff1673ffffffffffffffffffffffffffffffffffffffff16635726f66086836040518363ffffffff167c01000000000000000000000000000000000000000000000000000000000281526004018083815260200180602001828103825283818151815260200191508051906020019060200280838360005b83811015617f6f578082015181840152602081019050617f54565b505050509050019350505050600060405180830381600087803b158015617f9557600080fd5b505af1158015617fa9573d6000803e3d6000fd5b505050505050505050565b600460009054906101000a900473ffffffffffffffffffffffffffffffffffffffff1673ffffffffffffffffffffffffffffffffffffffff16638677ebe88a60197f01000000000000000000000000000000000000000000000000000000000000000260007f010000000000000000000000000000000000000000000000000000000000000002308d8d8d8d8a60405160200180897effffffffffffffffffffffffffffffffffffffffffffffffffffffffffffff19167effffffffffffffffffffffffffffffffffffffffffffffffffffffffffffff19168152600101887effffffffffffffffffffffffffffffffffffffffffffffffffffffffffffff19167effffffffffffffffffffffffffffffffffffffffffffffffffffffffffffff191681526001018773ffffffffffffffffffffffffffffffffffffffff1673ffffffffffffffffffffffffffffffffffffffff166c01000000000000000000000000028152601401807f4920617574686f72697a652074686174207468657365205265736f6c7665727381526020017f2062652072656d6f7665642066726f6d206d79204964656e746974792e000000815250603d018681526020018573ffffffffffffffffffffffffffffffffffffffff1673ffffffffffffffffffffffffffffffffffffffff166c0100000000000000000000000002815260140184151515157f010000000000000000000000000000000000000000000000000000000000000002815260010183805190602001908083835b60208310151561820f57805182526020820191506020810190506020830392506181ea565b6001836020036101000a03801982511681845116808217855250505050505090500182815260200198505050505050505050604051602081830303815290604052805190602001208787876040518663ffffffff167c0100000000000000000000000000000000000000000000000000000000028152600401808673ffffffffffffffffffffffffffffffffffffffff1673ffffffffffffffffffffffffffffffffffffffff1681526020018581526020018460ff1660ff1681526020018381526020018281526020019550505050505060206040518083038186803b1580156182f857600080fd5b505afa15801561830c573d6000803e3d6000fd5b505050506040513d602081101561832257600080fd5b810190808051906020019092919050505015156183a7576040517f08c379a00000000000000000000000000000000000000000000000000000000081526004018080602001828103825260128152602001807f5065726d697373696f6e2064656e6965642e000000000000000000000000000081525060200191505060405180910390fd5b505050505050505050565b600073ffffffffffffffffffffffffffffffffffffffff168173ffffffffffffffffffffffffffffffffffffffff16141515156183ee57600080fd5b8073ffffffffffffffffffffffffffffffffffffffff166000809054906101000a900473ffffffffffffffffffffffffffffffffffffffff1673ffffffffffffffffffffffffffffffffffffffff167f8be0079c531659141344cd1fd0a4f28419497f9722a3daafe3b4186f6b6457e060405160405180910390a3806000806101000a81548173ffffffffffffffffffffffffffffffffffffffff021916908373ffffffffffffffffffffffffffffffffffffffff16021790555050565b60008282111515156184bd57600080fd5b60008284039050809150509291505056fea165627a7a723058205aeef380ed1a097f186c53f58d2cfe939c83771a2d8a5d4c7569d479940b02ea0029",
  "source": "pragma solidity ^0.5.0;\n\nimport \"./zeppelin/ownership/Ownable.sol\";\nimport \"./zeppelin/math/SafeMath.sol\";\n\nimport \"./interfaces/HydroInterface.sol\";\nimport \"./interfaces/SnowflakeResolverInterface.sol\";\nimport \"./interfaces/SnowflakeViaInterface.sol\";\nimport \"./interfaces/IdentityRegistryInterface.sol\";\nimport \"./interfaces/ClientRaindropInterface.sol\";\n\ncontract Snowflake is Ownable {\n    using SafeMath for uint;\n\n    // mapping of EIN to hydro token deposits\n    mapping (uint => uint) public deposits;\n    // mapping from EIN to resolver to allowance\n    mapping (uint => mapping (address => uint)) public resolverAllowances;\n\n    // SC variables\n    address public identityRegistryAddress;\n    IdentityRegistryInterface private identityRegistry;\n    address public hydroTokenAddress;\n    HydroInterface private hydroToken;\n    address public clientRaindropAddress;\n    ClientRaindropInterface private clientRaindrop;\n\n    // signature variables\n    uint public signatureTimeout = 1 days;\n    mapping (uint => uint) public signatureNonce;\n\n    constructor (address _identityRegistryAddress, address _hydroTokenAddress) public {\n        setAddresses(_identityRegistryAddress, _hydroTokenAddress);\n    }\n\n    // enforces that a particular EIN exists\n    modifier identityExists(uint ein, bool check) {\n        require(identityRegistry.identityExists(ein) == check, \"The EIN does not exist.\");\n        _;\n    }\n\n    // enforces signature timeouts\n    modifier ensureSignatureTimeValid(uint timestamp) {\n        require(\n            // solium-disable-next-line security/no-block-members\n            block.timestamp >= timestamp && block.timestamp < timestamp + signatureTimeout, \"Timestamp is not valid.\"\n        );\n        _;\n    }\n\n\n    // set the hydro token and identity registry addresses\n    function setAddresses(address _identityRegistryAddress, address _hydroTokenAddress) public onlyOwner {\n        identityRegistryAddress = _identityRegistryAddress;\n        identityRegistry = IdentityRegistryInterface(identityRegistryAddress);\n\n        hydroTokenAddress = _hydroTokenAddress;\n        hydroToken = HydroInterface(hydroTokenAddress);\n    }\n\n    function setClientRaindropAddress(address _clientRaindropAddress) public onlyOwner {\n        clientRaindropAddress = _clientRaindropAddress;\n        clientRaindrop = ClientRaindropInterface(clientRaindropAddress);\n    }\n\n    // wrap createIdentityDelegated and initialize the client raindrop resolver\n    function createIdentityDelegated(\n        address recoveryAddress, address associatedAddress, address[] memory providers, string memory casedHydroId,\n        uint8 v, bytes32 r, bytes32 s, uint timestamp\n    )\n        public returns (uint ein)\n    {\n        address[] memory _providers = new address[](providers.length + 1);\n        _providers[0] = address(this);\n        for (uint i; i < providers.length; i++) {\n            _providers[i + 1] = providers[i];\n        }\n\n        uint _ein = identityRegistry.createIdentityDelegated(\n            recoveryAddress, associatedAddress, _providers, new address[](0), v, r, s, timestamp\n        );\n\n        _addResolver(_ein, clientRaindropAddress, true, 0, abi.encode(associatedAddress, casedHydroId));\n\n        return _ein;\n    }\n\n    // permission addProvidersFor by signature\n    function addProvidersFor(\n        address approvingAddress, address[] memory providers, uint8 v, bytes32 r, bytes32 s, uint timestamp\n    )\n        public ensureSignatureTimeValid(timestamp)\n    {\n        uint ein = identityRegistry.getEIN(approvingAddress);\n        require(\n            identityRegistry.isSigned(\n                approvingAddress,\n                keccak256(\n                    abi.encodePacked(\n                        byte(0x19), byte(0), address(this),\n                        \"I authorize that these Providers be added to my Identity.\",\n                        ein, providers, timestamp\n                    )\n                ),\n                v, r, s\n            ),\n            \"Permission denied.\"\n        );\n\n        identityRegistry.addProvidersFor(ein, providers);\n    }\n\n    // permission removeProvidersFor by signature\n    function removeProvidersFor(\n        address approvingAddress, address[] memory providers, uint8 v, bytes32 r, bytes32 s, uint timestamp\n    )\n        public ensureSignatureTimeValid(timestamp)\n    {\n        uint ein = identityRegistry.getEIN(approvingAddress);\n        require(\n            identityRegistry.isSigned(\n                approvingAddress,\n                keccak256(\n                    abi.encodePacked(\n                        byte(0x19), byte(0), address(this),\n                        \"I authorize that these Providers be removed from my Identity.\",\n                        ein, providers, timestamp\n                    )\n                ),\n                v, r, s\n            ),\n            \"Permission denied.\"\n        );\n\n        identityRegistry.removeProvidersFor(ein, providers);\n    }\n\n    // permissioned addProvidersFor and removeProvidersFor by signature\n    function upgradeProvidersFor(\n        address approvingAddress, address[] memory newProviders, address[] memory oldProviders,\n        uint8[2] memory v, bytes32[2] memory r, bytes32[2] memory s, uint[2] memory timestamp\n    )\n        public\n    {\n        addProvidersFor(approvingAddress, newProviders, v[0], r[0], s[0], timestamp[0]);\n        removeProvidersFor(approvingAddress, oldProviders, v[1], r[1], s[1], timestamp[1]);\n        uint ein = identityRegistry.getEIN(approvingAddress);\n        emit SnowflakeProvidersUpgraded(ein, newProviders, oldProviders, approvingAddress);\n    }\n\n    // permission adding a resolver for identity of msg.sender\n    function addResolver(address resolver, bool isSnowflake, uint withdrawAllowance, bytes memory extraData) public {\n        _addResolver(identityRegistry.getEIN(msg.sender), resolver, isSnowflake, withdrawAllowance, extraData);\n    }\n\n    // permission adding a resolver for identity passed by a provider\n    function addResolverAsProvider(\n        uint ein, address resolver, bool isSnowflake, uint withdrawAllowance, bytes memory extraData\n    )\n        public\n    {\n        require(identityRegistry.isProviderFor(ein, msg.sender), \"The msg.sender is not a Provider for the passed EIN\");\n        _addResolver(ein, resolver, isSnowflake, withdrawAllowance, extraData);\n    }\n\n    // permission addResolversFor by signature\n    function addResolverFor(\n        address approvingAddress, address resolver, bool isSnowflake, uint withdrawAllowance, bytes memory extraData,\n        uint8 v, bytes32 r, bytes32 s, uint timestamp\n    )\n        public\n    {\n        uint ein = identityRegistry.getEIN(approvingAddress);\n\n        validateAddResolverForSignature(\n            approvingAddress, ein, resolver, isSnowflake, withdrawAllowance, extraData, v, r, s, timestamp\n        );\n\n        _addResolver(ein, resolver, isSnowflake, withdrawAllowance, extraData);\n    }\n\n    function validateAddResolverForSignature(\n        address approvingAddress, uint ein,\n        address resolver, bool isSnowflake, uint withdrawAllowance, bytes memory extraData,\n        uint8 v, bytes32 r, bytes32 s, uint timestamp\n    )\n        private view ensureSignatureTimeValid(timestamp)\n    {\n        require(\n            identityRegistry.isSigned(\n                approvingAddress,\n                keccak256(\n                    abi.encodePacked(\n                        byte(0x19), byte(0), address(this),\n                        \"I authorize that this resolver be added to my Identity.\",\n                        ein, resolver, isSnowflake, withdrawAllowance, extraData, timestamp\n                    )\n                ),\n                v, r, s\n            ),\n            \"Permission denied.\"\n        );\n    }\n\n    // common logic for adding resolvers\n    function _addResolver(uint ein, address resolver, bool isSnowflake, uint withdrawAllowance, bytes memory extraData)\n        private\n    {\n        require(!identityRegistry.isResolverFor(ein, resolver), \"Identity has already set this resolver.\");\n\n        address[] memory resolvers = new address[](1);\n        resolvers[0] = resolver;\n        identityRegistry.addResolversFor(ein, resolvers);\n\n        if (isSnowflake) {\n            resolverAllowances[ein][resolver] = withdrawAllowance;\n            SnowflakeResolverInterface snowflakeResolver = SnowflakeResolverInterface(resolver);\n            if (snowflakeResolver.callOnAddition())\n                require(snowflakeResolver.onAddition(ein, withdrawAllowance, extraData), \"Sign up failure.\");\n            emit SnowflakeResolverAdded(ein, resolver, withdrawAllowance);\n        }\n    }\n\n    // permission changing resolver allowances for identity of msg.sender\n    function changeResolverAllowances(address[] memory resolvers, uint[] memory withdrawAllowances) public {\n        changeResolverAllowances(identityRegistry.getEIN(msg.sender), resolvers, withdrawAllowances);\n    }\n\n    // change resolver allowances delegated\n    function changeResolverAllowancesDelegated(\n        address approvingAddress, address[] memory resolvers, uint[] memory withdrawAllowances,\n        uint8 v, bytes32 r, bytes32 s\n    )\n        public\n    {\n        uint ein = identityRegistry.getEIN(approvingAddress);\n\n        uint nonce = signatureNonce[ein]++;\n        require(\n            identityRegistry.isSigned(\n                approvingAddress,\n                keccak256(\n                    abi.encodePacked(\n                        byte(0x19), byte(0), address(this),\n                        \"I authorize this change in Resolver allowances.\",\n                        ein, resolvers, withdrawAllowances, nonce\n                    )\n                ),\n                v, r, s\n            ),\n            \"Permission denied.\"\n        );\n\n        changeResolverAllowances(ein, resolvers, withdrawAllowances);\n    }\n\n    // common logic to change resolver allowances\n    function changeResolverAllowances(uint ein, address[] memory resolvers, uint[] memory withdrawAllowances) private {\n        require(resolvers.length == withdrawAllowances.length, \"Malformed inputs.\");\n\n        for (uint i; i < resolvers.length; i++) {\n            require(identityRegistry.isResolverFor(ein, resolvers[i]), \"Identity has not set this resolver.\");\n            resolverAllowances[ein][resolvers[i]] = withdrawAllowances[i];\n            emit SnowflakeResolverAllowanceChanged(ein, resolvers[i], withdrawAllowances[i]);\n        }\n    }\n\n    // permission removing a resolver for identity of msg.sender\n    function removeResolver(address resolver, bool isSnowflake, bytes memory extraData) public {\n        removeResolver(identityRegistry.getEIN(msg.sender), resolver, isSnowflake, extraData);\n    }\n\n    // permission removeResolverFor by signature\n    function removeResolverFor(\n        address approvingAddress, address resolver, bool isSnowflake, bytes memory extraData,\n        uint8 v, bytes32 r, bytes32 s, uint timestamp\n    )\n        public ensureSignatureTimeValid(timestamp)\n    {\n        uint ein = identityRegistry.getEIN(approvingAddress);\n\n        validateRemoveResolverForSignature(approvingAddress, ein, resolver, isSnowflake, extraData, v, r, s, timestamp);\n\n        removeResolver(ein, resolver, isSnowflake, extraData);\n    }\n\n    function validateRemoveResolverForSignature(\n        address approvingAddress, uint ein, address resolver, bool isSnowflake, bytes memory extraData,\n        uint8 v, bytes32 r, bytes32 s, uint timestamp\n    )\n        private view\n    {\n        require(\n            identityRegistry.isSigned(\n                approvingAddress,\n                keccak256(\n                    abi.encodePacked(\n                        byte(0x19), byte(0), address(this),\n                        \"I authorize that these Resolvers be removed from my Identity.\",\n                        ein, resolver, isSnowflake, extraData, timestamp\n                    )\n                ),\n                v, r, s\n            ),\n            \"Permission denied.\"\n        );\n    }\n\n    // common logic to remove resolvers\n    function removeResolver(uint ein, address resolver, bool isSnowflake, bytes memory extraData) private {\n        require(identityRegistry.isResolverFor(ein, resolver), \"Identity has not yet set this resolver.\");\n    \n        delete resolverAllowances[ein][resolver];\n    \n        if (isSnowflake) {\n            SnowflakeResolverInterface snowflakeResolver = SnowflakeResolverInterface(resolver);\n            if (snowflakeResolver.callOnRemoval())\n                require(snowflakeResolver.onRemoval(ein, extraData), \"Removal failure.\");\n            emit SnowflakeResolverRemoved(ein, resolver);\n        }\n\n        address[] memory resolvers = new address[](1);\n        resolvers[0] = resolver;\n        identityRegistry.removeResolversFor(ein, resolvers);\n    }\n\n    function triggerRecoveryAddressChangeFor(\n        address approvingAddress, address newRecoveryAddress, uint8 v, bytes32 r, bytes32 s\n    )\n        public\n    {\n        uint ein = identityRegistry.getEIN(approvingAddress);\n        uint nonce = signatureNonce[ein]++;\n        require(\n            identityRegistry.isSigned(\n                approvingAddress,\n                keccak256(\n                    abi.encodePacked(\n                        byte(0x19), byte(0), address(this),\n                        \"I authorize this change of Recovery Address.\",\n                        ein, newRecoveryAddress, nonce\n                    )\n                ),\n                v, r, s\n            ),\n            \"Permission denied.\"\n        );\n\n        identityRegistry.triggerRecoveryAddressChangeFor(ein, newRecoveryAddress);\n    }\n\n    // allow contract to receive HYDRO tokens\n    function receiveApproval(address sender, uint amount, address _tokenAddress, bytes memory _bytes) public {\n        require(msg.sender == _tokenAddress, \"Malformed inputs.\");\n        require(_tokenAddress == hydroTokenAddress, \"Sender is not the HYDRO token smart contract.\");\n\n        // depositing to an EIN\n        if (_bytes.length <= 32) {\n            require(hydroToken.transferFrom(sender, address(this), amount), \"Unable to transfer token ownership.\");\n            uint recipient;\n            if (_bytes.length < 32) {\n                recipient = identityRegistry.getEIN(sender);\n            }\n            else {\n                recipient = abi.decode(_bytes, (uint));\n                require(identityRegistry.identityExists(recipient), \"The recipient EIN does not exist.\");\n            }\n            deposits[recipient] = deposits[recipient].add(amount);\n            emit SnowflakeDeposit(sender, recipient, amount);\n        }\n        // transferring to a via\n        else {\n            (\n                bool isTransfer, address resolver, address via, uint to, bytes memory snowflakeCallBytes\n            ) = abi.decode(_bytes, (bool, address, address, uint, bytes));\n            \n            require(hydroToken.transferFrom(sender, via, amount), \"Unable to transfer token ownership.\");\n\n            SnowflakeViaInterface viaContract = SnowflakeViaInterface(via);\n            if (isTransfer) {\n                viaContract.snowflakeCall(resolver, to, amount, snowflakeCallBytes);\n                emit SnowflakeTransferToVia(resolver, via, to, amount);\n            } else {\n                address payable payableTo = address(to);\n                viaContract.snowflakeCall(resolver, payableTo, amount, snowflakeCallBytes);\n                emit SnowflakeWithdrawToVia(resolver, via, address(to), amount);\n            }\n        }\n    }\n\n    // transfer snowflake balance from one snowflake holder to another\n    function transferSnowflakeBalance(uint einTo, uint amount) public {\n        _transfer(identityRegistry.getEIN(msg.sender), einTo, amount);\n    }\n\n    // withdraw Snowflake balance to an external address\n    function withdrawSnowflakeBalance(address to, uint amount) public {\n        _withdraw(identityRegistry.getEIN(msg.sender), to, amount);\n    }\n\n    // allows resolvers to transfer allowance amounts to other snowflakes (throws if unsuccessful)\n    function transferSnowflakeBalanceFrom(uint einFrom, uint einTo, uint amount) public {\n        handleAllowance(einFrom, amount);\n        _transfer(einFrom, einTo, amount);\n        emit SnowflakeTransferFrom(msg.sender);\n    }\n\n    // allows resolvers to withdraw allowance amounts to external addresses (throws if unsuccessful)\n    function withdrawSnowflakeBalanceFrom(uint einFrom, address to, uint amount) public {\n        handleAllowance(einFrom, amount);\n        _withdraw(einFrom, to, amount);\n        emit SnowflakeWithdrawFrom(msg.sender);\n    }\n\n    // allows resolvers to send withdrawal amounts to arbitrary smart contracts 'to' identities (throws if unsuccessful)\n    function transferSnowflakeBalanceFromVia(uint einFrom, address via, uint einTo, uint amount, bytes memory _bytes)\n        public\n    {\n        handleAllowance(einFrom, amount);\n        _withdraw(einFrom, via, amount);\n        SnowflakeViaInterface viaContract = SnowflakeViaInterface(via);\n        viaContract.snowflakeCall(msg.sender, einFrom, einTo, amount, _bytes);\n        emit SnowflakeTransferFromVia(msg.sender, einTo);\n    }\n\n    // allows resolvers to send withdrawal amounts 'to' addresses via arbitrary smart contracts\n    function withdrawSnowflakeBalanceFromVia(\n        uint einFrom, address via, address payable to, uint amount, bytes memory _bytes\n    )\n        public\n    {\n        handleAllowance(einFrom, amount);\n        _withdraw(einFrom, via, amount);\n        SnowflakeViaInterface viaContract = SnowflakeViaInterface(via);\n        viaContract.snowflakeCall(msg.sender, einFrom, to, amount, _bytes);\n        emit SnowflakeWithdrawFromVia(msg.sender, to);\n    }\n\n    function _transfer(uint einFrom, uint einTo, uint amount) private identityExists(einTo, true) returns (bool) {\n        require(deposits[einFrom] >= amount, \"Cannot withdraw more than the current deposit balance.\");\n        deposits[einFrom] = deposits[einFrom].sub(amount);\n        deposits[einTo] = deposits[einTo].add(amount);\n\n        emit SnowflakeTransfer(einFrom, einTo, amount);\n    }\n\n    function _withdraw(uint einFrom, address to, uint amount) internal {\n        require(to != address(this), \"Cannot transfer to the Snowflake smart contract itself.\");\n\n        require(deposits[einFrom] >= amount, \"Cannot withdraw more than the current deposit balance.\");\n        deposits[einFrom] = deposits[einFrom].sub(amount);\n        require(hydroToken.transfer(to, amount), \"Transfer was unsuccessful\");\n\n        emit SnowflakeWithdraw(einFrom, to, amount);\n    }\n\n    function handleAllowance(uint einFrom, uint amount) internal {\n        // check that resolver-related details are correct\n        require(identityRegistry.isResolverFor(einFrom, msg.sender), \"Resolver has not been set by from tokenholder.\");\n\n        if (resolverAllowances[einFrom][msg.sender] < amount) {\n            emit SnowflakeInsufficientAllowance(einFrom, msg.sender, resolverAllowances[einFrom][msg.sender], amount);\n            revert(\"Insufficient Allowance\");\n        }\n\n        resolverAllowances[einFrom][msg.sender] = resolverAllowances[einFrom][msg.sender].sub(amount);\n    }\n\n    // allowAndCall from msg.sender\n    function allowAndCall(address destination, uint amount, bytes memory data)\n        public returns (bytes memory returnData)\n    {\n        return allowAndCall(identityRegistry.getEIN(msg.sender), amount, destination, data);\n    }\n\n    // allowAndCall from approvingAddress with meta-transaction\n    function allowAndCallDelegated(\n        address destination, uint amount, bytes memory data, address approvingAddress, uint8 v, bytes32 r, bytes32 s\n    )\n        public returns (bytes memory returnData)\n    {\n        uint ein = identityRegistry.getEIN(approvingAddress);\n        uint nonce = signatureNonce[ein]++;\n        validateAllowAndCallDelegatedSignature(approvingAddress, ein, destination, amount, data, nonce, v, r, s);\n\n        return allowAndCall(ein, amount, destination, data);\n    }\n\n    function validateAllowAndCallDelegatedSignature(\n        address approvingAddress, uint ein, address destination, uint amount, bytes memory data, uint nonce,\n        uint8 v, bytes32 r, bytes32 s\n    )\n        private view\n    {\n        require(\n            identityRegistry.isSigned(\n                approvingAddress,\n                keccak256(\n                    abi.encodePacked(\n                        byte(0x19), byte(0), address(this),\n                        \"I authorize this allow and call.\", ein, destination, amount, data, nonce\n                    )\n                ),\n                v, r, s\n            ),\n            \"Permission denied.\"\n        );\n    }\n\n    // internal logic for allowAndCall\n    function allowAndCall(uint ein, uint amount, address destination, bytes memory data)\n        private returns (bytes memory returnData)\n    {\n        // check that resolver-related details are correct\n        require(identityRegistry.isResolverFor(ein, destination), \"Destination has not been set by from tokenholder.\");\n        if (amount != 0) {\n            resolverAllowances[ein][destination] = resolverAllowances[ein][destination].add(amount);\n        }\n\n        // solium-disable-next-line security/no-low-level-calls\n        (bool success, bytes memory _returnData) = destination.call(data);\n        require(success, \"Call was not successful.\");\n        return _returnData;\n    }\n\n    // events\n    event SnowflakeProvidersUpgraded(uint indexed ein, address[] newProviders, address[] oldProviders, address approvingAddress);\n\n    event SnowflakeResolverAdded(uint indexed ein, address indexed resolver, uint withdrawAllowance);\n    event SnowflakeResolverAllowanceChanged(uint indexed ein, address indexed resolver, uint withdrawAllowance);\n    event SnowflakeResolverRemoved(uint indexed ein, address indexed resolver);\n\n    event SnowflakeDeposit(address indexed from, uint indexed einTo, uint amount);\n    event SnowflakeTransfer(uint indexed einFrom, uint indexed einTo, uint amount);\n    event SnowflakeWithdraw(uint indexed einFrom, address indexed to, uint amount);\n\n    event SnowflakeTransferFrom(address indexed resolverFrom);\n    event SnowflakeWithdrawFrom(address indexed resolverFrom);\n    event SnowflakeTransferFromVia(address indexed resolverFrom, uint indexed einTo);\n    event SnowflakeWithdrawFromVia(address indexed resolverFrom, address indexed to);\n    event SnowflakeTransferToVia(address indexed resolverFrom, address indexed via, uint indexed einTo, uint amount);\n    event SnowflakeWithdrawToVia(address indexed resolverFrom, address indexed via, address indexed to, uint amount);\n\n    event SnowflakeInsufficientAllowance(\n        uint indexed ein, address indexed resolver, uint currentAllowance, uint requestedWithdraw\n    );\n}\n",
  "sourcePath": "/MAMPWeb/HydroIce/HydroIceContract/contracts/Snowflake.sol",
  "compiler": {
    "name": "solc",
    "version": "0.5.0+commit.1d4f565a.Emscripten.clang"
  },
  "schemaVersion": "3.0.6",
  "updatedAt": "2019-05-08T14:08:07.517Z",
  "devdoc": {
    "methods": {
      "isOwner()": {
        "return": "true if `msg.sender` is the owner of the contract."
      },
      "owner()": {
        "return": "the address of the owner."
      },
      "renounceOwnership()": {
        "details": "Allows the current owner to relinquish control of the contract."
      },
      "transferOwnership(address)": {
        "details": "Allows the current owner to transfer control of the contract to a newOwner.",
        "params": {
          "newOwner": "The address to transfer ownership to."
        }
      }
    }
  },
  "userdoc": {
    "methods": {
      "renounceOwnership()": {
        "notice": "Renouncing to ownership will leave the contract without an owner. It will not be possible to call the functions with the `onlyOwner` modifier anymore."
      }
    }
  }
}